{
	"GoWorkspace/github.com/hdlabs-ro/sc_base/us-contracts/PairUsdtRont.sol": {
		"PairUsdtRont": {
			"abi": [
				{
					"inputs": [],
					"stateMutability": "nonpayable",
					"type": "constructor"
				},
				{
					"anonymous": false,
					"inputs": [
						{
							"indexed": true,
							"internalType": "string",
							"name": "msg",
							"type": "string"
						}
					],
					"name": "Log",
					"type": "event"
				},
				{
					"anonymous": false,
					"inputs": [
						{
							"indexed": true,
							"internalType": "bytes",
							"name": "msg",
							"type": "bytes"
						}
					],
					"name": "LogBytes",
					"type": "event"
				},
				{
					"inputs": [],
					"name": "DOMAIN_SEPARATOR",
					"outputs": [
						{
							"internalType": "bytes32",
							"name": "",
							"type": "bytes32"
						}
					],
					"stateMutability": "view",
					"type": "function"
				},
				{
					"inputs": [],
					"name": "MINIMUM_LIQUIDITY",
					"outputs": [
						{
							"internalType": "uint256",
							"name": "",
							"type": "uint256"
						}
					],
					"stateMutability": "view",
					"type": "function"
				},
				{
					"inputs": [],
					"name": "PERMIT_TYPEHASH",
					"outputs": [
						{
							"internalType": "bytes32",
							"name": "",
							"type": "bytes32"
						}
					],
					"stateMutability": "view",
					"type": "function"
				},
				{
					"inputs": [
						{
							"internalType": "address",
							"name": "",
							"type": "address"
						},
						{
							"internalType": "address",
							"name": "",
							"type": "address"
						}
					],
					"name": "allowance",
					"outputs": [
						{
							"internalType": "uint256",
							"name": "",
							"type": "uint256"
						}
					],
					"stateMutability": "view",
					"type": "function"
				},
				{
					"inputs": [
						{
							"internalType": "address",
							"name": "spender",
							"type": "address"
						},
						{
							"internalType": "uint256",
							"name": "value",
							"type": "uint256"
						}
					],
					"name": "approve",
					"outputs": [
						{
							"internalType": "bool",
							"name": "",
							"type": "bool"
						}
					],
					"stateMutability": "nonpayable",
					"type": "function"
				},
				{
					"inputs": [
						{
							"internalType": "address",
							"name": "",
							"type": "address"
						}
					],
					"name": "balanceOf",
					"outputs": [
						{
							"internalType": "uint256",
							"name": "",
							"type": "uint256"
						}
					],
					"stateMutability": "view",
					"type": "function"
				},
				{
					"inputs": [
						{
							"internalType": "address",
							"name": "to",
							"type": "address"
						}
					],
					"name": "burn",
					"outputs": [
						{
							"internalType": "uint256",
							"name": "amount0",
							"type": "uint256"
						},
						{
							"internalType": "uint256",
							"name": "amount1",
							"type": "uint256"
						}
					],
					"stateMutability": "nonpayable",
					"type": "function"
				},
				{
					"inputs": [],
					"name": "decimals",
					"outputs": [
						{
							"internalType": "uint8",
							"name": "",
							"type": "uint8"
						}
					],
					"stateMutability": "view",
					"type": "function"
				},
				{
					"inputs": [],
					"name": "getReserves",
					"outputs": [
						{
							"internalType": "uint112",
							"name": "_reserve0",
							"type": "uint112"
						},
						{
							"internalType": "uint112",
							"name": "_reserve1",
							"type": "uint112"
						},
						{
							"internalType": "uint32",
							"name": "_blockTimestampLast",
							"type": "uint32"
						}
					],
					"stateMutability": "view",
					"type": "function"
				},
				{
					"inputs": [],
					"name": "kLast",
					"outputs": [
						{
							"internalType": "uint256",
							"name": "",
							"type": "uint256"
						}
					],
					"stateMutability": "view",
					"type": "function"
				},
				{
					"inputs": [
						{
							"internalType": "address",
							"name": "to",
							"type": "address"
						}
					],
					"name": "mint",
					"outputs": [
						{
							"internalType": "uint256",
							"name": "liquidity",
							"type": "uint256"
						}
					],
					"stateMutability": "nonpayable",
					"type": "function"
				},
				{
					"inputs": [],
					"name": "name",
					"outputs": [
						{
							"internalType": "string",
							"name": "",
							"type": "string"
						}
					],
					"stateMutability": "view",
					"type": "function"
				},
				{
					"inputs": [
						{
							"internalType": "address",
							"name": "",
							"type": "address"
						}
					],
					"name": "nonces",
					"outputs": [
						{
							"internalType": "uint256",
							"name": "",
							"type": "uint256"
						}
					],
					"stateMutability": "view",
					"type": "function"
				},
				{
					"inputs": [
						{
							"internalType": "address",
							"name": "owner",
							"type": "address"
						},
						{
							"internalType": "address",
							"name": "spender",
							"type": "address"
						},
						{
							"internalType": "uint256",
							"name": "value",
							"type": "uint256"
						},
						{
							"internalType": "uint256",
							"name": "deadline",
							"type": "uint256"
						},
						{
							"internalType": "uint8",
							"name": "v",
							"type": "uint8"
						},
						{
							"internalType": "bytes32",
							"name": "r",
							"type": "bytes32"
						},
						{
							"internalType": "bytes32",
							"name": "s",
							"type": "bytes32"
						}
					],
					"name": "permit",
					"outputs": [],
					"stateMutability": "nonpayable",
					"type": "function"
				},
				{
					"inputs": [],
					"name": "price0CumulativeLast",
					"outputs": [
						{
							"internalType": "uint256",
							"name": "",
							"type": "uint256"
						}
					],
					"stateMutability": "view",
					"type": "function"
				},
				{
					"inputs": [],
					"name": "price1CumulativeLast",
					"outputs": [
						{
							"internalType": "uint256",
							"name": "",
							"type": "uint256"
						}
					],
					"stateMutability": "view",
					"type": "function"
				},
				{
					"inputs": [
						{
							"internalType": "address",
							"name": "to",
							"type": "address"
						}
					],
					"name": "skim",
					"outputs": [],
					"stateMutability": "nonpayable",
					"type": "function"
				},
				{
					"inputs": [
						{
							"internalType": "uint256",
							"name": "amount0Out",
							"type": "uint256"
						},
						{
							"internalType": "uint256",
							"name": "amount1Out",
							"type": "uint256"
						},
						{
							"internalType": "address",
							"name": "to",
							"type": "address"
						},
						{
							"internalType": "bytes",
							"name": "data",
							"type": "bytes"
						}
					],
					"name": "swap",
					"outputs": [],
					"stateMutability": "nonpayable",
					"type": "function"
				},
				{
					"inputs": [],
					"name": "symbol",
					"outputs": [
						{
							"internalType": "string",
							"name": "",
							"type": "string"
						}
					],
					"stateMutability": "view",
					"type": "function"
				},
				{
					"inputs": [],
					"name": "sync",
					"outputs": [],
					"stateMutability": "nonpayable",
					"type": "function"
				},
				{
					"inputs": [],
					"name": "token0",
					"outputs": [
						{
							"internalType": "address",
							"name": "",
							"type": "address"
						}
					],
					"stateMutability": "view",
					"type": "function"
				},
				{
					"inputs": [],
					"name": "token1",
					"outputs": [
						{
							"internalType": "address",
							"name": "",
							"type": "address"
						}
					],
					"stateMutability": "view",
					"type": "function"
				},
				{
					"inputs": [],
					"name": "totalSupply",
					"outputs": [
						{
							"internalType": "uint256",
							"name": "",
							"type": "uint256"
						}
					],
					"stateMutability": "view",
					"type": "function"
				},
				{
					"inputs": [
						{
							"internalType": "address",
							"name": "to",
							"type": "address"
						},
						{
							"internalType": "uint256",
							"name": "value",
							"type": "uint256"
						}
					],
					"name": "transfer",
					"outputs": [
						{
							"internalType": "bool",
							"name": "",
							"type": "bool"
						}
					],
					"stateMutability": "nonpayable",
					"type": "function"
				},
				{
					"inputs": [
						{
							"internalType": "address",
							"name": "from",
							"type": "address"
						},
						{
							"internalType": "address",
							"name": "to",
							"type": "address"
						},
						{
							"internalType": "uint256",
							"name": "value",
							"type": "uint256"
						}
					],
					"name": "transferFrom",
					"outputs": [
						{
							"internalType": "bool",
							"name": "",
							"type": "bool"
						}
					],
					"stateMutability": "nonpayable",
					"type": "function"
				}
			],
			"devdoc": {
				"events": {
					"Log(string)": {
						"details": "Developer dev only messages"
					}
				},
				"kind": "dev",
				"methods": {},
				"version": 1
			},
			"evm": {
				"assembly": "    /* \"GoWorkspace/github.com/hdlabs-ro/sc_base/us-contracts/PairUsdtRont.sol\":100:13607  contract PairUsdtRont is ILog {... */\n  mstore(0x40, 0x80)\n    /* \"GoWorkspace/github.com/hdlabs-ro/sc_base/us-contracts/PairUsdtRont.sol\":159:201  0x5B38Da6a701c568545dCfcB03FcB875f56beddC4 */\n  0x5b38da6a701c568545dcfcb03fcb875f56beddc4\n    /* \"GoWorkspace/github.com/hdlabs-ro/sc_base/us-contracts/PairUsdtRont.sol\":143:201  address feeTo = 0x5B38Da6a701c568545dCfcB03FcB875f56beddC4 */\n  0x00\n  dup1\n  0x0100\n  exp\n  dup2\n  sload\n  dup2\n  0xffffffffffffffffffffffffffffffffffffffff\n  mul\n  not\n  and\n  swap1\n  dup4\n  0xffffffffffffffffffffffffffffffffffffffff\n  and\n  mul\n  or\n  swap1\n  sstore\n  pop\n    /* \"GoWorkspace/github.com/hdlabs-ro/sc_base/us-contracts/PairUsdtRont.sol\":231:273  0xD0DA387609Adc13779badAf1315a4904CD40976E */\n  0xd0da387609adc13779badaf1315a4904cd40976e\n    /* \"GoWorkspace/github.com/hdlabs-ro/sc_base/us-contracts/PairUsdtRont.sol\":207:273  address public token0 = 0xD0DA387609Adc13779badAf1315a4904CD40976E */\n  0x01\n  exp(0x0100, 0x00)\n  dup2\n  sload\n  dup2\n  0xffffffffffffffffffffffffffffffffffffffff\n  mul\n  not\n  and\n  swap1\n  dup4\n  0xffffffffffffffffffffffffffffffffffffffff\n  and\n  mul\n  or\n  swap1\n  sstore\n  pop\n    /* \"GoWorkspace/github.com/hdlabs-ro/sc_base/us-contracts/PairUsdtRont.sol\":319:361  0xD1F9C3397ea04D3dE7F002cB9e63cb49d0DEAA36 */\n  0xd1f9c3397ea04d3de7f002cb9e63cb49d0deaa36\n    /* \"GoWorkspace/github.com/hdlabs-ro/sc_base/us-contracts/PairUsdtRont.sol\":295:361  address public token1 = 0xD1F9C3397ea04D3dE7F002cB9e63cb49d0DEAA36 */\n  0x02\n  exp(0x0100, 0x00)\n  dup2\n  sload\n  dup2\n  0xffffffffffffffffffffffffffffffffffffffff\n  mul\n  not\n  and\n  swap1\n  dup4\n  0xffffffffffffffffffffffffffffffffffffffff\n  and\n  mul\n  or\n  swap1\n  sstore\n  pop\n    /* \"GoWorkspace/github.com/hdlabs-ro/sc_base/us-contracts/PairUsdtRont.sol\":1641:1642  1 */\n  0x01\n    /* \"GoWorkspace/github.com/hdlabs-ro/sc_base/us-contracts/PairUsdtRont.sol\":1614:1642  uint256 private unlocked = 1 */\n  0x0c\n  sstore\n    /* \"GoWorkspace/github.com/hdlabs-ro/sc_base/us-contracts/PairUsdtRont.sol\":1788:2321  constructor() {... */\n  callvalue\n  dup1\n  iszero\n  tag_1\n  jumpi\n  0x00\n  dup1\n  revert\ntag_1:\n  pop\n    /* \"GoWorkspace/github.com/hdlabs-ro/sc_base/us-contracts/PairUsdtRont.sol\":1812:1827  uint256 chainId */\n  0x00\n    /* \"GoWorkspace/github.com/hdlabs-ro/sc_base/us-contracts/PairUsdtRont.sol\":1871:1880  chainid() */\n  chainid\n    /* \"GoWorkspace/github.com/hdlabs-ro/sc_base/us-contracts/PairUsdtRont.sol\":1860:1880  chainId := chainid() */\n  swap1\n  pop\n    /* \"GoWorkspace/github.com/hdlabs-ro/sc_base/us-contracts/PairUsdtRont.sol\":1969:2102  keccak256(... */\n  0x8b73c3c69bb8fe3d512ecc4cf759cc79239f7b179b0ffacaa9a75d522b39400f\n    /* \"GoWorkspace/github.com/hdlabs-ro/sc_base/us-contracts/PairUsdtRont.sol\":2136:2140  name */\n  mload(0x40)\n  dup1\n  0x40\n  add\n  0x40\n  mstore\n  dup1\n  0x0e\n  dup2\n  mstore\n  0x20\n  add\n  0x45524320556e6973776170205632000000000000000000000000000000000000\n  dup2\n  mstore\n  pop\n    /* \"GoWorkspace/github.com/hdlabs-ro/sc_base/us-contracts/PairUsdtRont.sol\":2120:2142  keccak256(bytes(name)) */\n  dup1\n  mload\n  swap1\n  0x20\n  add\n  keccak256\n    /* \"GoWorkspace/github.com/hdlabs-ro/sc_base/us-contracts/PairUsdtRont.sol\":2170:2180  bytes(\"1\") */\n  mload(0x40)\n  dup1\n  0x40\n  add\n  0x40\n  mstore\n  dup1\n  0x01\n  dup2\n  mstore\n  0x20\n  add\n  0x3100000000000000000000000000000000000000000000000000000000000000\n  dup2\n  mstore\n  pop\n    /* \"GoWorkspace/github.com/hdlabs-ro/sc_base/us-contracts/PairUsdtRont.sol\":2160:2181  keccak256(bytes(\"1\")) */\n  dup1\n  mload\n  swap1\n  0x20\n  add\n  keccak256\n    /* \"GoWorkspace/github.com/hdlabs-ro/sc_base/us-contracts/PairUsdtRont.sol\":2199:2206  chainId */\n  dup4\n    /* \"GoWorkspace/github.com/hdlabs-ro/sc_base/us-contracts/PairUsdtRont.sol\":2232:2236  this */\n  address\n    /* \"GoWorkspace/github.com/hdlabs-ro/sc_base/us-contracts/PairUsdtRont.sol\":1941:2251  abi.encode(... */\n  add(0x20, mload(0x40))\n  tag_4\n  swap6\n  swap5\n  swap4\n  swap3\n  swap2\n  swap1\n  tag_5\n  jump\t// in\ntag_4:\n  mload(0x40)\n  0x20\n  dup2\n  dup4\n  sub\n  sub\n  dup2\n  mstore\n  swap1\n  0x40\n  mstore\n    /* \"GoWorkspace/github.com/hdlabs-ro/sc_base/us-contracts/PairUsdtRont.sol\":1918:2261  keccak256(... */\n  dup1\n  mload\n  swap1\n  0x20\n  add\n  keccak256\n    /* \"GoWorkspace/github.com/hdlabs-ro/sc_base/us-contracts/PairUsdtRont.sol\":1899:1915  DOMAIN_SEPARATOR */\n  0x06\n    /* \"GoWorkspace/github.com/hdlabs-ro/sc_base/us-contracts/PairUsdtRont.sol\":1899:2261  DOMAIN_SEPARATOR = keccak256(... */\n  dup2\n  swap1\n  sstore\n  pop\n    /* \"GoWorkspace/github.com/hdlabs-ro/sc_base/us-contracts/PairUsdtRont.sol\":2276:2314  Log(\"Pair USDT-RONT contract created\") */\n  mload(0x40)\n  tag_6\n  swap1\n  tag_7\n  jump\t// in\ntag_6:\n  mload(0x40)\n  dup1\n  swap2\n  sub\n  swap1\n  keccak256\n  0xcf34ef537ac33ee1ac626ca1587a0a7e8e51561e5514f8cb36afa1c5102b3bab\n  mload(0x40)\n  mload(0x40)\n  dup1\n  swap2\n  sub\n  swap1\n  log2\n    /* \"GoWorkspace/github.com/hdlabs-ro/sc_base/us-contracts/PairUsdtRont.sol\":1802:2321  {... */\n  pop\n    /* \"GoWorkspace/github.com/hdlabs-ro/sc_base/us-contracts/PairUsdtRont.sol\":100:13607  contract PairUsdtRont is ILog {... */\n  jump(tag_8)\n    /* \"#utility.yul\":7:84   */\ntag_9:\n    /* \"#utility.yul\":44:51   */\n  0x00\n    /* \"#utility.yul\":73:78   */\n  dup2\n    /* \"#utility.yul\":62:78   */\n  swap1\n  pop\n    /* \"#utility.yul\":7:84   */\n  swap2\n  swap1\n  pop\n  jump\t// out\n    /* \"#utility.yul\":90:208   */\ntag_10:\n    /* \"#utility.yul\":177:201   */\n  tag_22\n    /* \"#utility.yul\":195:200   */\n  dup2\n    /* \"#utility.yul\":177:201   */\n  tag_9\n  jump\t// in\ntag_22:\n    /* \"#utility.yul\":172:175   */\n  dup3\n    /* \"#utility.yul\":165:202   */\n  mstore\n    /* \"#utility.yul\":90:208   */\n  pop\n  pop\n  jump\t// out\n    /* \"#utility.yul\":214:291   */\ntag_11:\n    /* \"#utility.yul\":251:258   */\n  0x00\n    /* \"#utility.yul\":280:285   */\n  dup2\n    /* \"#utility.yul\":269:285   */\n  swap1\n  pop\n    /* \"#utility.yul\":214:291   */\n  swap2\n  swap1\n  pop\n  jump\t// out\n    /* \"#utility.yul\":297:415   */\ntag_12:\n    /* \"#utility.yul\":384:408   */\n  tag_25\n    /* \"#utility.yul\":402:407   */\n  dup2\n    /* \"#utility.yul\":384:408   */\n  tag_11\n  jump\t// in\ntag_25:\n    /* \"#utility.yul\":379:382   */\n  dup3\n    /* \"#utility.yul\":372:409   */\n  mstore\n    /* \"#utility.yul\":297:415   */\n  pop\n  pop\n  jump\t// out\n    /* \"#utility.yul\":421:547   */\ntag_13:\n    /* \"#utility.yul\":458:465   */\n  0x00\n    /* \"#utility.yul\":498:540   */\n  0xffffffffffffffffffffffffffffffffffffffff\n    /* \"#utility.yul\":491:496   */\n  dup3\n    /* \"#utility.yul\":487:541   */\n  and\n    /* \"#utility.yul\":476:541   */\n  swap1\n  pop\n    /* \"#utility.yul\":421:547   */\n  swap2\n  swap1\n  pop\n  jump\t// out\n    /* \"#utility.yul\":553:649   */\ntag_14:\n    /* \"#utility.yul\":590:597   */\n  0x00\n    /* \"#utility.yul\":619:643   */\n  tag_28\n    /* \"#utility.yul\":637:642   */\n  dup3\n    /* \"#utility.yul\":619:643   */\n  tag_13\n  jump\t// in\ntag_28:\n    /* \"#utility.yul\":608:643   */\n  swap1\n  pop\n    /* \"#utility.yul\":553:649   */\n  swap2\n  swap1\n  pop\n  jump\t// out\n    /* \"#utility.yul\":655:773   */\ntag_15:\n    /* \"#utility.yul\":742:766   */\n  tag_30\n    /* \"#utility.yul\":760:765   */\n  dup2\n    /* \"#utility.yul\":742:766   */\n  tag_14\n  jump\t// in\ntag_30:\n    /* \"#utility.yul\":737:740   */\n  dup3\n    /* \"#utility.yul\":730:767   */\n  mstore\n    /* \"#utility.yul\":655:773   */\n  pop\n  pop\n  jump\t// out\n    /* \"#utility.yul\":779:1443   */\ntag_5:\n    /* \"#utility.yul\":984:988   */\n  0x00\n    /* \"#utility.yul\":1022:1025   */\n  0xa0\n    /* \"#utility.yul\":1011:1020   */\n  dup3\n    /* \"#utility.yul\":1007:1026   */\n  add\n    /* \"#utility.yul\":999:1026   */\n  swap1\n  pop\n    /* \"#utility.yul\":1036:1107   */\n  tag_32\n    /* \"#utility.yul\":1104:1105   */\n  0x00\n    /* \"#utility.yul\":1093:1102   */\n  dup4\n    /* \"#utility.yul\":1089:1106   */\n  add\n    /* \"#utility.yul\":1080:1086   */\n  dup9\n    /* \"#utility.yul\":1036:1107   */\n  tag_10\n  jump\t// in\ntag_32:\n    /* \"#utility.yul\":1117:1189   */\n  tag_33\n    /* \"#utility.yul\":1185:1187   */\n  0x20\n    /* \"#utility.yul\":1174:1183   */\n  dup4\n    /* \"#utility.yul\":1170:1188   */\n  add\n    /* \"#utility.yul\":1161:1167   */\n  dup8\n    /* \"#utility.yul\":1117:1189   */\n  tag_10\n  jump\t// in\ntag_33:\n    /* \"#utility.yul\":1199:1271   */\n  tag_34\n    /* \"#utility.yul\":1267:1269   */\n  0x40\n    /* \"#utility.yul\":1256:1265   */\n  dup4\n    /* \"#utility.yul\":1252:1270   */\n  add\n    /* \"#utility.yul\":1243:1249   */\n  dup7\n    /* \"#utility.yul\":1199:1271   */\n  tag_10\n  jump\t// in\ntag_34:\n    /* \"#utility.yul\":1281:1353   */\n  tag_35\n    /* \"#utility.yul\":1349:1351   */\n  0x60\n    /* \"#utility.yul\":1338:1347   */\n  dup4\n    /* \"#utility.yul\":1334:1352   */\n  add\n    /* \"#utility.yul\":1325:1331   */\n  dup6\n    /* \"#utility.yul\":1281:1353   */\n  tag_12\n  jump\t// in\ntag_35:\n    /* \"#utility.yul\":1363:1436   */\n  tag_36\n    /* \"#utility.yul\":1431:1434   */\n  0x80\n    /* \"#utility.yul\":1420:1429   */\n  dup4\n    /* \"#utility.yul\":1416:1435   */\n  add\n    /* \"#utility.yul\":1407:1413   */\n  dup5\n    /* \"#utility.yul\":1363:1436   */\n  tag_15\n  jump\t// in\ntag_36:\n    /* \"#utility.yul\":779:1443   */\n  swap7\n  swap6\n  pop\n  pop\n  pop\n  pop\n  pop\n  pop\n  jump\t// out\n    /* \"#utility.yul\":1449:1597   */\ntag_16:\n    /* \"#utility.yul\":1551:1562   */\n  0x00\n    /* \"#utility.yul\":1588:1591   */\n  dup2\n    /* \"#utility.yul\":1573:1591   */\n  swap1\n  pop\n    /* \"#utility.yul\":1449:1597   */\n  swap3\n  swap2\n  pop\n  pop\n  jump\t// out\n    /* \"#utility.yul\":1603:1784   */\ntag_17:\n    /* \"#utility.yul\":1743:1776   */\n  0x5061697220555344542d524f4e5420636f6e7472616374206372656174656400\n    /* \"#utility.yul\":1739:1740   */\n  0x00\n    /* \"#utility.yul\":1731:1737   */\n  dup3\n    /* \"#utility.yul\":1727:1741   */\n  add\n    /* \"#utility.yul\":1720:1777   */\n  mstore\n    /* \"#utility.yul\":1603:1784   */\n  pop\n  jump\t// out\n    /* \"#utility.yul\":1790:2192   */\ntag_18:\n    /* \"#utility.yul\":1950:1953   */\n  0x00\n    /* \"#utility.yul\":1971:2056   */\n  tag_40\n    /* \"#utility.yul\":2053:2055   */\n  0x1f\n    /* \"#utility.yul\":2048:2051   */\n  dup4\n    /* \"#utility.yul\":1971:2056   */\n  tag_16\n  jump\t// in\ntag_40:\n    /* \"#utility.yul\":1964:2056   */\n  swap2\n  pop\n    /* \"#utility.yul\":2065:2158   */\n  tag_41\n    /* \"#utility.yul\":2154:2157   */\n  dup3\n    /* \"#utility.yul\":2065:2158   */\n  tag_17\n  jump\t// in\ntag_41:\n    /* \"#utility.yul\":2183:2185   */\n  0x1f\n    /* \"#utility.yul\":2178:2181   */\n  dup3\n    /* \"#utility.yul\":2174:2186   */\n  add\n    /* \"#utility.yul\":2167:2186   */\n  swap1\n  pop\n    /* \"#utility.yul\":1790:2192   */\n  swap2\n  swap1\n  pop\n  jump\t// out\n    /* \"#utility.yul\":2198:2579   */\ntag_7:\n    /* \"#utility.yul\":2383:2386   */\n  0x00\n    /* \"#utility.yul\":2405:2553   */\n  tag_43\n    /* \"#utility.yul\":2549:2552   */\n  dup3\n    /* \"#utility.yul\":2405:2553   */\n  tag_18\n  jump\t// in\ntag_43:\n    /* \"#utility.yul\":2398:2553   */\n  swap2\n  pop\n    /* \"#utility.yul\":2570:2573   */\n  dup2\n    /* \"#utility.yul\":2563:2573   */\n  swap1\n  pop\n    /* \"#utility.yul\":2198:2579   */\n  swap2\n  swap1\n  pop\n  jump\t// out\n    /* \"GoWorkspace/github.com/hdlabs-ro/sc_base/us-contracts/PairUsdtRont.sol\":100:13607  contract PairUsdtRont is ILog {... */\ntag_8:\n  dataSize(sub_0)\n  dup1\n  dataOffset(sub_0)\n  0x00\n  codecopy\n  0x00\n  return\nstop\n\nsub_0: assembly {\n        /* \"GoWorkspace/github.com/hdlabs-ro/sc_base/us-contracts/PairUsdtRont.sol\":100:13607  contract PairUsdtRont is ILog {... */\n      mstore(0x40, 0x80)\n      callvalue\n      dup1\n      iszero\n      tag_1\n      jumpi\n      0x00\n      dup1\n      revert\n    tag_1:\n      pop\n      jumpi(tag_2, lt(calldatasize, 0x04))\n      shr(0xe0, calldataload(0x00))\n      dup1\n      0x6a627842\n      gt\n      tag_28\n      jumpi\n      dup1\n      0xa9059cbb\n      gt\n      tag_29\n      jumpi\n      dup1\n      0xd21220a7\n      gt\n      tag_30\n      jumpi\n      dup1\n      0xd21220a7\n      eq\n      tag_24\n      jumpi\n      dup1\n      0xd505accf\n      eq\n      tag_25\n      jumpi\n      dup1\n      0xdd62ed3e\n      eq\n      tag_26\n      jumpi\n      dup1\n      0xfff6cae9\n      eq\n      tag_27\n      jumpi\n      jump(tag_2)\n    tag_30:\n      dup1\n      0xa9059cbb\n      eq\n      tag_21\n      jumpi\n      dup1\n      0xba9a7a56\n      eq\n      tag_22\n      jumpi\n      dup1\n      0xbc25cf77\n      eq\n      tag_23\n      jumpi\n      jump(tag_2)\n    tag_29:\n      dup1\n      0x6a627842\n      eq\n      tag_15\n      jumpi\n      dup1\n      0x70a08231\n      eq\n      tag_16\n      jumpi\n      dup1\n      0x7464fc3d\n      eq\n      tag_17\n      jumpi\n      dup1\n      0x7ecebe00\n      eq\n      tag_18\n      jumpi\n      dup1\n      0x89afcb44\n      eq\n      tag_19\n      jumpi\n      dup1\n      0x95d89b41\n      eq\n      tag_20\n      jumpi\n      jump(tag_2)\n    tag_28:\n      dup1\n      0x23b872dd\n      gt\n      tag_31\n      jumpi\n      dup1\n      0x23b872dd\n      eq\n      tag_9\n      jumpi\n      dup1\n      0x30adf81f\n      eq\n      tag_10\n      jumpi\n      dup1\n      0x313ce567\n      eq\n      tag_11\n      jumpi\n      dup1\n      0x3644e515\n      eq\n      tag_12\n      jumpi\n      dup1\n      0x5909c0d5\n      eq\n      tag_13\n      jumpi\n      dup1\n      0x5a3d5493\n      eq\n      tag_14\n      jumpi\n      jump(tag_2)\n    tag_31:\n      dup1\n      0x022c0d9f\n      eq\n      tag_3\n      jumpi\n      dup1\n      0x06fdde03\n      eq\n      tag_4\n      jumpi\n      dup1\n      0x0902f1ac\n      eq\n      tag_5\n      jumpi\n      dup1\n      0x095ea7b3\n      eq\n      tag_6\n      jumpi\n      dup1\n      0x0dfe1681\n      eq\n      tag_7\n      jumpi\n      dup1\n      0x18160ddd\n      eq\n      tag_8\n      jumpi\n    tag_2:\n      0x00\n      dup1\n      revert\n        /* \"GoWorkspace/github.com/hdlabs-ro/sc_base/us-contracts/PairUsdtRont.sol\":5569:7694  function swap(... */\n    tag_3:\n      tag_32\n      0x04\n      dup1\n      calldatasize\n      sub\n      dup2\n      add\n      swap1\n      tag_33\n      swap2\n      swap1\n      tag_34\n      jump\t// in\n    tag_33:\n      tag_35\n      jump\t// in\n    tag_32:\n      stop\n        /* \"GoWorkspace/github.com/hdlabs-ro/sc_base/us-contracts/PairUsdtRont.sol\":384:430  string public constant name = \"ERC Uniswap V2\" */\n    tag_4:\n      tag_36\n      tag_37\n      jump\t// in\n    tag_36:\n      mload(0x40)\n      tag_38\n      swap2\n      swap1\n      tag_39\n      jump\t// in\n    tag_38:\n      mload(0x40)\n      dup1\n      swap2\n      sub\n      swap1\n      return\n        /* \"GoWorkspace/github.com/hdlabs-ro/sc_base/us-contracts/PairUsdtRont.sol\":2327:2628  function getReserves()... */\n    tag_5:\n      tag_40\n      tag_41\n      jump\t// in\n    tag_40:\n      mload(0x40)\n      tag_42\n      swap4\n      swap3\n      swap2\n      swap1\n      tag_43\n      jump\t// in\n    tag_42:\n      mload(0x40)\n      dup1\n      swap2\n      sub\n      swap1\n      return\n        /* \"GoWorkspace/github.com/hdlabs-ro/sc_base/us-contracts/PairUsdtRont.sol\":11267:11414  function approve(address spender, uint256 value) external returns (bool) {... */\n    tag_6:\n      tag_44\n      0x04\n      dup1\n      calldatasize\n      sub\n      dup2\n      add\n      swap1\n      tag_45\n      swap2\n      swap1\n      tag_46\n      jump\t// in\n    tag_45:\n      tag_47\n      jump\t// in\n    tag_44:\n      mload(0x40)\n      tag_48\n      swap2\n      swap1\n      tag_49\n      jump\t// in\n    tag_48:\n      mload(0x40)\n      dup1\n      swap2\n      sub\n      swap1\n      return\n        /* \"GoWorkspace/github.com/hdlabs-ro/sc_base/us-contracts/PairUsdtRont.sol\":207:273  address public token0 = 0xD0DA387609Adc13779badAf1315a4904CD40976E */\n    tag_7:\n      tag_50\n      tag_51\n      jump\t// in\n    tag_50:\n      mload(0x40)\n      tag_52\n      swap2\n      swap1\n      tag_53\n      jump\t// in\n    tag_52:\n      mload(0x40)\n      dup1\n      swap2\n      sub\n      swap1\n      return\n        /* \"GoWorkspace/github.com/hdlabs-ro/sc_base/us-contracts/PairUsdtRont.sol\":527:553  uint256 public totalSupply */\n    tag_8:\n      tag_54\n      tag_55\n      jump\t// in\n    tag_54:\n      mload(0x40)\n      tag_56\n      swap2\n      swap1\n      tag_57\n      jump\t// in\n    tag_56:\n      mload(0x40)\n      dup1\n      swap2\n      sub\n      swap1\n      return\n        /* \"GoWorkspace/github.com/hdlabs-ro/sc_base/us-contracts/PairUsdtRont.sol\":11565:11916  function transferFrom(... */\n    tag_9:\n      tag_58\n      0x04\n      dup1\n      calldatasize\n      sub\n      dup2\n      add\n      swap1\n      tag_59\n      swap2\n      swap1\n      tag_60\n      jump\t// in\n    tag_59:\n      tag_61\n      jump\t// in\n    tag_58:\n      mload(0x40)\n      tag_62\n      swap2\n      swap1\n      tag_49\n      jump\t// in\n    tag_62:\n      mload(0x40)\n      dup1\n      swap2\n      sub\n      swap1\n      return\n        /* \"GoWorkspace/github.com/hdlabs-ro/sc_base/us-contracts/PairUsdtRont.sol\":820:936  bytes32 public constant PERMIT_TYPEHASH =... */\n    tag_10:\n      tag_63\n      tag_64\n      jump\t// in\n    tag_63:\n      mload(0x40)\n      tag_65\n      swap2\n      swap1\n      tag_66\n      jump\t// in\n    tag_65:\n      mload(0x40)\n      dup1\n      swap2\n      sub\n      swap1\n      return\n        /* \"GoWorkspace/github.com/hdlabs-ro/sc_base/us-contracts/PairUsdtRont.sol\":486:521  uint8 public constant decimals = 18 */\n    tag_11:\n      tag_67\n      tag_68\n      jump\t// in\n    tag_67:\n      mload(0x40)\n      tag_69\n      swap2\n      swap1\n      tag_70\n      jump\t// in\n    tag_69:\n      mload(0x40)\n      dup1\n      swap2\n      sub\n      swap1\n      return\n        /* \"GoWorkspace/github.com/hdlabs-ro/sc_base/us-contracts/PairUsdtRont.sol\":679:710  bytes32 public DOMAIN_SEPARATOR */\n    tag_12:\n      tag_71\n      tag_72\n      jump\t// in\n    tag_71:\n      mload(0x40)\n      tag_73\n      swap2\n      swap1\n      tag_66\n      jump\t// in\n    tag_73:\n      mload(0x40)\n      dup1\n      swap2\n      sub\n      swap1\n      return\n        /* \"GoWorkspace/github.com/hdlabs-ro/sc_base/us-contracts/PairUsdtRont.sol\":1425:1460  uint256 public price0CumulativeLast */\n    tag_13:\n      tag_74\n      tag_75\n      jump\t// in\n    tag_74:\n      mload(0x40)\n      tag_76\n      swap2\n      swap1\n      tag_57\n      jump\t// in\n    tag_76:\n      mload(0x40)\n      dup1\n      swap2\n      sub\n      swap1\n      return\n        /* \"GoWorkspace/github.com/hdlabs-ro/sc_base/us-contracts/PairUsdtRont.sol\":1466:1501  uint256 public price1CumulativeLast */\n    tag_14:\n      tag_77\n      tag_78\n      jump\t// in\n    tag_77:\n      mload(0x40)\n      tag_79\n      swap2\n      swap1\n      tag_57\n      jump\t// in\n    tag_79:\n      mload(0x40)\n      dup1\n      swap2\n      sub\n      swap1\n      return\n        /* \"GoWorkspace/github.com/hdlabs-ro/sc_base/us-contracts/PairUsdtRont.sol\":2737:3948  function mint(address to) external lock returns (uint256 liquidity) {... */\n    tag_15:\n      tag_80\n      0x04\n      dup1\n      calldatasize\n      sub\n      dup2\n      add\n      swap1\n      tag_81\n      swap2\n      swap1\n      tag_82\n      jump\t// in\n    tag_81:\n      tag_83\n      jump\t// in\n    tag_80:\n      mload(0x40)\n      tag_84\n      swap2\n      swap1\n      tag_57\n      jump\t// in\n    tag_84:\n      mload(0x40)\n      dup1\n      swap2\n      sub\n      swap1\n      return\n        /* \"GoWorkspace/github.com/hdlabs-ro/sc_base/us-contracts/PairUsdtRont.sol\":559:603  mapping(address => uint256) public balanceOf */\n    tag_16:\n      tag_85\n      0x04\n      dup1\n      calldatasize\n      sub\n      dup2\n      add\n      swap1\n      tag_86\n      swap2\n      swap1\n      tag_82\n      jump\t// in\n    tag_86:\n      tag_87\n      jump\t// in\n    tag_85:\n      mload(0x40)\n      tag_88\n      swap2\n      swap1\n      tag_57\n      jump\t// in\n    tag_88:\n      mload(0x40)\n      dup1\n      swap2\n      sub\n      swap1\n      return\n        /* \"GoWorkspace/github.com/hdlabs-ro/sc_base/us-contracts/PairUsdtRont.sol\":1507:1527  uint256 public kLast */\n    tag_17:\n      tag_89\n      tag_90\n      jump\t// in\n    tag_89:\n      mload(0x40)\n      tag_91\n      swap2\n      swap1\n      tag_57\n      jump\t// in\n    tag_91:\n      mload(0x40)\n      dup1\n      swap2\n      sub\n      swap1\n      return\n        /* \"GoWorkspace/github.com/hdlabs-ro/sc_base/us-contracts/PairUsdtRont.sol\":942:983  mapping(address => uint256) public nonces */\n    tag_18:\n      tag_92\n      0x04\n      dup1\n      calldatasize\n      sub\n      dup2\n      add\n      swap1\n      tag_93\n      swap2\n      swap1\n      tag_82\n      jump\t// in\n    tag_93:\n      tag_94\n      jump\t// in\n    tag_92:\n      mload(0x40)\n      tag_95\n      swap2\n      swap1\n      tag_57\n      jump\t// in\n    tag_95:\n      mload(0x40)\n      dup1\n      swap2\n      sub\n      swap1\n      return\n        /* \"GoWorkspace/github.com/hdlabs-ro/sc_base/us-contracts/PairUsdtRont.sol\":4057:5460  function burn(address to)... */\n    tag_19:\n      tag_96\n      0x04\n      dup1\n      calldatasize\n      sub\n      dup2\n      add\n      swap1\n      tag_97\n      swap2\n      swap1\n      tag_82\n      jump\t// in\n    tag_97:\n      tag_98\n      jump\t// in\n    tag_96:\n      mload(0x40)\n      tag_99\n      swap3\n      swap2\n      swap1\n      tag_100\n      jump\t// in\n    tag_99:\n      mload(0x40)\n      dup1\n      swap2\n      sub\n      swap1\n      return\n        /* \"GoWorkspace/github.com/hdlabs-ro/sc_base/us-contracts/PairUsdtRont.sol\":436:480  string public constant symbol = \"ERC UNI-V2\" */\n    tag_20:\n      tag_101\n      tag_102\n      jump\t// in\n    tag_101:\n      mload(0x40)\n      tag_103\n      swap2\n      swap1\n      tag_39\n      jump\t// in\n    tag_103:\n      mload(0x40)\n      dup1\n      swap2\n      sub\n      swap1\n      return\n        /* \"GoWorkspace/github.com/hdlabs-ro/sc_base/us-contracts/PairUsdtRont.sol\":11420:11559  function transfer(address to, uint256 value) external returns (bool) {... */\n    tag_21:\n      tag_104\n      0x04\n      dup1\n      calldatasize\n      sub\n      dup2\n      add\n      swap1\n      tag_105\n      swap2\n      swap1\n      tag_46\n      jump\t// in\n    tag_105:\n      tag_106\n      jump\t// in\n    tag_104:\n      mload(0x40)\n      tag_107\n      swap2\n      swap1\n      tag_49\n      jump\t// in\n    tag_107:\n      mload(0x40)\n      dup1\n      swap2\n      sub\n      swap1\n      return\n        /* \"GoWorkspace/github.com/hdlabs-ro/sc_base/us-contracts/PairUsdtRont.sol\":1003:1048  uint256 public constant MINIMUM_LIQUIDITY = 1 */\n    tag_22:\n      tag_108\n      tag_109\n      jump\t// in\n    tag_108:\n      mload(0x40)\n      tag_110\n      swap2\n      swap1\n      tag_57\n      jump\t// in\n    tag_110:\n      mload(0x40)\n      dup1\n      swap2\n      sub\n      swap1\n      return\n        /* \"GoWorkspace/github.com/hdlabs-ro/sc_base/us-contracts/PairUsdtRont.sol\":7740:8151  function skim(address to) external lock {... */\n    tag_23:\n      tag_111\n      0x04\n      dup1\n      calldatasize\n      sub\n      dup2\n      add\n      swap1\n      tag_112\n      swap2\n      swap1\n      tag_82\n      jump\t// in\n    tag_112:\n      tag_113\n      jump\t// in\n    tag_111:\n      stop\n        /* \"GoWorkspace/github.com/hdlabs-ro/sc_base/us-contracts/PairUsdtRont.sol\":295:361  address public token1 = 0xD1F9C3397ea04D3dE7F002cB9e63cb49d0DEAA36 */\n    tag_24:\n      tag_114\n      tag_115\n      jump\t// in\n    tag_114:\n      mload(0x40)\n      tag_116\n      swap2\n      swap1\n      tag_53\n      jump\t// in\n    tag_116:\n      mload(0x40)\n      dup1\n      swap2\n      sub\n      swap1\n      return\n        /* \"GoWorkspace/github.com/hdlabs-ro/sc_base/us-contracts/PairUsdtRont.sol\":11922:12890  function permit(... */\n    tag_25:\n      tag_117\n      0x04\n      dup1\n      calldatasize\n      sub\n      dup2\n      add\n      swap1\n      tag_118\n      swap2\n      swap1\n      tag_119\n      jump\t// in\n    tag_118:\n      tag_120\n      jump\t// in\n    tag_117:\n      stop\n        /* \"GoWorkspace/github.com/hdlabs-ro/sc_base/us-contracts/PairUsdtRont.sol\":609:673  mapping(address => mapping(address => uint256)) public allowance */\n    tag_26:\n      tag_121\n      0x04\n      dup1\n      calldatasize\n      sub\n      dup2\n      add\n      swap1\n      tag_122\n      swap2\n      swap1\n      tag_123\n      jump\t// in\n    tag_122:\n      tag_124\n      jump\t// in\n    tag_121:\n      mload(0x40)\n      tag_125\n      swap2\n      swap1\n      tag_57\n      jump\t// in\n    tag_125:\n      mload(0x40)\n      dup1\n      swap2\n      sub\n      swap1\n      return\n        /* \"GoWorkspace/github.com/hdlabs-ro/sc_base/us-contracts/PairUsdtRont.sol\":8197:8407  function sync() external lock {... */\n    tag_27:\n      tag_126\n      tag_127\n      jump\t// in\n    tag_126:\n      stop\n        /* \"GoWorkspace/github.com/hdlabs-ro/sc_base/us-contracts/PairUsdtRont.sol\":5569:7694  function swap(... */\n    tag_35:\n        /* \"GoWorkspace/github.com/hdlabs-ro/sc_base/us-contracts/PairUsdtRont.sol\":1694:1695  1 */\n      0x01\n        /* \"GoWorkspace/github.com/hdlabs-ro/sc_base/us-contracts/PairUsdtRont.sol\":1682:1690  unlocked */\n      sload(0x0c)\n        /* \"GoWorkspace/github.com/hdlabs-ro/sc_base/us-contracts/PairUsdtRont.sol\":1682:1695  unlocked == 1 */\n      eq\n        /* \"GoWorkspace/github.com/hdlabs-ro/sc_base/us-contracts/PairUsdtRont.sol\":1674:1720  require(unlocked == 1, \"PairUsdtRont: LOCKED\") */\n      tag_129\n      jumpi\n      mload(0x40)\n      0x08c379a000000000000000000000000000000000000000000000000000000000\n      dup2\n      mstore\n      0x04\n      add\n      tag_130\n      swap1\n      tag_131\n      jump\t// in\n    tag_130:\n      mload(0x40)\n      dup1\n      swap2\n      sub\n      swap1\n      revert\n    tag_129:\n        /* \"GoWorkspace/github.com/hdlabs-ro/sc_base/us-contracts/PairUsdtRont.sol\":1741:1742  0 */\n      0x00\n        /* \"GoWorkspace/github.com/hdlabs-ro/sc_base/us-contracts/PairUsdtRont.sol\":1730:1738  unlocked */\n      0x0c\n        /* \"GoWorkspace/github.com/hdlabs-ro/sc_base/us-contracts/PairUsdtRont.sol\":1730:1742  unlocked = 0 */\n      dup2\n      swap1\n      sstore\n      pop\n        /* \"GoWorkspace/github.com/hdlabs-ro/sc_base/us-contracts/PairUsdtRont.sol\":5752:5753  0 */\n      0x00\n        /* \"GoWorkspace/github.com/hdlabs-ro/sc_base/us-contracts/PairUsdtRont.sol\":5739:5749  amount0Out */\n      dup6\n        /* \"GoWorkspace/github.com/hdlabs-ro/sc_base/us-contracts/PairUsdtRont.sol\":5739:5753  amount0Out > 0 */\n      gt\n        /* \"GoWorkspace/github.com/hdlabs-ro/sc_base/us-contracts/PairUsdtRont.sol\":5739:5771  amount0Out > 0 || amount1Out > 0 */\n      dup1\n      tag_133\n      jumpi\n      pop\n        /* \"GoWorkspace/github.com/hdlabs-ro/sc_base/us-contracts/PairUsdtRont.sol\":5770:5771  0 */\n      0x00\n        /* \"GoWorkspace/github.com/hdlabs-ro/sc_base/us-contracts/PairUsdtRont.sol\":5757:5767  amount1Out */\n      dup5\n        /* \"GoWorkspace/github.com/hdlabs-ro/sc_base/us-contracts/PairUsdtRont.sol\":5757:5771  amount1Out > 0 */\n      gt\n        /* \"GoWorkspace/github.com/hdlabs-ro/sc_base/us-contracts/PairUsdtRont.sol\":5739:5771  amount0Out > 0 || amount1Out > 0 */\n    tag_133:\n        /* \"GoWorkspace/github.com/hdlabs-ro/sc_base/us-contracts/PairUsdtRont.sol\":5718:5837  require(... */\n      tag_134\n      jumpi\n      mload(0x40)\n      0x08c379a000000000000000000000000000000000000000000000000000000000\n      dup2\n      mstore\n      0x04\n      add\n      tag_135\n      swap1\n      tag_136\n      jump\t// in\n    tag_135:\n      mload(0x40)\n      dup1\n      swap2\n      sub\n      swap1\n      revert\n    tag_134:\n        /* \"GoWorkspace/github.com/hdlabs-ro/sc_base/us-contracts/PairUsdtRont.sol\":5848:5865  uint112 _reserve0 */\n      0x00\n        /* \"GoWorkspace/github.com/hdlabs-ro/sc_base/us-contracts/PairUsdtRont.sol\":5867:5884  uint112 _reserve1 */\n      dup1\n        /* \"GoWorkspace/github.com/hdlabs-ro/sc_base/us-contracts/PairUsdtRont.sol\":5890:5903  getReserves() */\n      tag_137\n        /* \"GoWorkspace/github.com/hdlabs-ro/sc_base/us-contracts/PairUsdtRont.sol\":5890:5901  getReserves */\n      tag_41\n        /* \"GoWorkspace/github.com/hdlabs-ro/sc_base/us-contracts/PairUsdtRont.sol\":5890:5903  getReserves() */\n      jump\t// in\n    tag_137:\n        /* \"GoWorkspace/github.com/hdlabs-ro/sc_base/us-contracts/PairUsdtRont.sol\":5847:5903  (uint112 _reserve0, uint112 _reserve1, ) = getReserves() */\n      pop\n      swap2\n      pop\n      swap2\n      pop\n        /* \"GoWorkspace/github.com/hdlabs-ro/sc_base/us-contracts/PairUsdtRont.sol\":5962:5971  _reserve0 */\n      dup2\n        /* \"GoWorkspace/github.com/hdlabs-ro/sc_base/us-contracts/PairUsdtRont.sol\":5949:5971  amount0Out < _reserve0 */\n      0xffffffffffffffffffffffffffff\n      and\n        /* \"GoWorkspace/github.com/hdlabs-ro/sc_base/us-contracts/PairUsdtRont.sol\":5949:5959  amount0Out */\n      dup8\n        /* \"GoWorkspace/github.com/hdlabs-ro/sc_base/us-contracts/PairUsdtRont.sol\":5949:5971  amount0Out < _reserve0 */\n      lt\n        /* \"GoWorkspace/github.com/hdlabs-ro/sc_base/us-contracts/PairUsdtRont.sol\":5949:5997  amount0Out < _reserve0 && amount1Out < _reserve1 */\n      dup1\n      iszero\n      tag_138\n      jumpi\n      pop\n        /* \"GoWorkspace/github.com/hdlabs-ro/sc_base/us-contracts/PairUsdtRont.sol\":5988:5997  _reserve1 */\n      dup1\n        /* \"GoWorkspace/github.com/hdlabs-ro/sc_base/us-contracts/PairUsdtRont.sol\":5975:5997  amount1Out < _reserve1 */\n      0xffffffffffffffffffffffffffff\n      and\n        /* \"GoWorkspace/github.com/hdlabs-ro/sc_base/us-contracts/PairUsdtRont.sol\":5975:5985  amount1Out */\n      dup7\n        /* \"GoWorkspace/github.com/hdlabs-ro/sc_base/us-contracts/PairUsdtRont.sol\":5975:5997  amount1Out < _reserve1 */\n      lt\n        /* \"GoWorkspace/github.com/hdlabs-ro/sc_base/us-contracts/PairUsdtRont.sol\":5949:5997  amount0Out < _reserve0 && amount1Out < _reserve1 */\n    tag_138:\n        /* \"GoWorkspace/github.com/hdlabs-ro/sc_base/us-contracts/PairUsdtRont.sol\":5928:6059  require(... */\n      tag_139\n      jumpi\n      mload(0x40)\n      0x08c379a000000000000000000000000000000000000000000000000000000000\n      dup2\n      mstore\n      0x04\n      add\n      tag_140\n      swap1\n      tag_141\n      jump\t// in\n    tag_140:\n      mload(0x40)\n      dup1\n      swap2\n      sub\n      swap1\n      revert\n    tag_139:\n        /* \"GoWorkspace/github.com/hdlabs-ro/sc_base/us-contracts/PairUsdtRont.sol\":6084:6088  data */\n      dup4\n      dup4\n        /* \"GoWorkspace/github.com/hdlabs-ro/sc_base/us-contracts/PairUsdtRont.sol\":6075:6089  LogBytes(data) */\n      mload(0x40)\n      tag_142\n      swap3\n      swap2\n      swap1\n      tag_143\n      jump\t// in\n    tag_142:\n      mload(0x40)\n      dup1\n      swap2\n      sub\n      swap1\n      keccak256\n      0x532fd6ea96cfb78bb46e09279a26828b8b493de1a2b8b1ee1face527978a15a5\n      mload(0x40)\n      mload(0x40)\n      dup1\n      swap2\n      sub\n      swap1\n      log2\n        /* \"GoWorkspace/github.com/hdlabs-ro/sc_base/us-contracts/PairUsdtRont.sol\":6100:6116  uint256 balance0 */\n      0x00\n        /* \"GoWorkspace/github.com/hdlabs-ro/sc_base/us-contracts/PairUsdtRont.sol\":6126:6142  uint256 balance1 */\n      dup1\n        /* \"GoWorkspace/github.com/hdlabs-ro/sc_base/us-contracts/PairUsdtRont.sol\":6233:6248  address _token0 */\n      0x00\n        /* \"GoWorkspace/github.com/hdlabs-ro/sc_base/us-contracts/PairUsdtRont.sol\":6251:6257  token0 */\n      0x01\n      0x00\n      swap1\n      sload\n      swap1\n      0x0100\n      exp\n      swap1\n      div\n      0xffffffffffffffffffffffffffffffffffffffff\n      and\n        /* \"GoWorkspace/github.com/hdlabs-ro/sc_base/us-contracts/PairUsdtRont.sol\":6233:6257  address _token0 = token0 */\n      swap1\n      pop\n        /* \"GoWorkspace/github.com/hdlabs-ro/sc_base/us-contracts/PairUsdtRont.sol\":6271:6286  address _token1 */\n      0x00\n        /* \"GoWorkspace/github.com/hdlabs-ro/sc_base/us-contracts/PairUsdtRont.sol\":6289:6295  token1 */\n      0x02\n      0x00\n      swap1\n      sload\n      swap1\n      0x0100\n      exp\n      swap1\n      div\n      0xffffffffffffffffffffffffffffffffffffffff\n      and\n        /* \"GoWorkspace/github.com/hdlabs-ro/sc_base/us-contracts/PairUsdtRont.sol\":6271:6295  address _token1 = token1 */\n      swap1\n      pop\n        /* \"GoWorkspace/github.com/hdlabs-ro/sc_base/us-contracts/PairUsdtRont.sol\":6323:6330  _token0 */\n      dup2\n        /* \"GoWorkspace/github.com/hdlabs-ro/sc_base/us-contracts/PairUsdtRont.sol\":6317:6330  to != _token0 */\n      0xffffffffffffffffffffffffffffffffffffffff\n      and\n        /* \"GoWorkspace/github.com/hdlabs-ro/sc_base/us-contracts/PairUsdtRont.sol\":6317:6319  to */\n      dup10\n        /* \"GoWorkspace/github.com/hdlabs-ro/sc_base/us-contracts/PairUsdtRont.sol\":6317:6330  to != _token0 */\n      0xffffffffffffffffffffffffffffffffffffffff\n      and\n      eq\n      iszero\n        /* \"GoWorkspace/github.com/hdlabs-ro/sc_base/us-contracts/PairUsdtRont.sol\":6317:6347  to != _token0 && to != _token1 */\n      dup1\n      iszero\n      tag_144\n      jumpi\n      pop\n        /* \"GoWorkspace/github.com/hdlabs-ro/sc_base/us-contracts/PairUsdtRont.sol\":6340:6347  _token1 */\n      dup1\n        /* \"GoWorkspace/github.com/hdlabs-ro/sc_base/us-contracts/PairUsdtRont.sol\":6334:6347  to != _token1 */\n      0xffffffffffffffffffffffffffffffffffffffff\n      and\n        /* \"GoWorkspace/github.com/hdlabs-ro/sc_base/us-contracts/PairUsdtRont.sol\":6334:6336  to */\n      dup10\n        /* \"GoWorkspace/github.com/hdlabs-ro/sc_base/us-contracts/PairUsdtRont.sol\":6334:6347  to != _token1 */\n      0xffffffffffffffffffffffffffffffffffffffff\n      and\n      eq\n      iszero\n        /* \"GoWorkspace/github.com/hdlabs-ro/sc_base/us-contracts/PairUsdtRont.sol\":6317:6347  to != _token0 && to != _token1 */\n    tag_144:\n        /* \"GoWorkspace/github.com/hdlabs-ro/sc_base/us-contracts/PairUsdtRont.sol\":6309:6376  require(to != _token0 && to != _token1, \"PairUsdtRont: INVALID_TO\") */\n      tag_145\n      jumpi\n      mload(0x40)\n      0x08c379a000000000000000000000000000000000000000000000000000000000\n      dup2\n      mstore\n      0x04\n      add\n      tag_146\n      swap1\n      tag_147\n      jump\t// in\n    tag_146:\n      mload(0x40)\n      dup1\n      swap2\n      sub\n      swap1\n      revert\n    tag_145:\n        /* \"GoWorkspace/github.com/hdlabs-ro/sc_base/us-contracts/PairUsdtRont.sol\":6407:6408  0 */\n      0x00\n        /* \"GoWorkspace/github.com/hdlabs-ro/sc_base/us-contracts/PairUsdtRont.sol\":6394:6404  amount0Out */\n      dup12\n        /* \"GoWorkspace/github.com/hdlabs-ro/sc_base/us-contracts/PairUsdtRont.sol\":6394:6408  amount0Out > 0 */\n      gt\n        /* \"GoWorkspace/github.com/hdlabs-ro/sc_base/us-contracts/PairUsdtRont.sol\":6390:6448  if (amount0Out > 0) _safeTransfer(_token0, to, amount0Out) */\n      iszero\n      tag_148\n      jumpi\n        /* \"GoWorkspace/github.com/hdlabs-ro/sc_base/us-contracts/PairUsdtRont.sol\":6410:6448  _safeTransfer(_token0, to, amount0Out) */\n      tag_149\n        /* \"GoWorkspace/github.com/hdlabs-ro/sc_base/us-contracts/PairUsdtRont.sol\":6424:6431  _token0 */\n      dup3\n        /* \"GoWorkspace/github.com/hdlabs-ro/sc_base/us-contracts/PairUsdtRont.sol\":6433:6435  to */\n      dup11\n        /* \"GoWorkspace/github.com/hdlabs-ro/sc_base/us-contracts/PairUsdtRont.sol\":6437:6447  amount0Out */\n      dup14\n        /* \"GoWorkspace/github.com/hdlabs-ro/sc_base/us-contracts/PairUsdtRont.sol\":6410:6423  _safeTransfer */\n      tag_150\n        /* \"GoWorkspace/github.com/hdlabs-ro/sc_base/us-contracts/PairUsdtRont.sol\":6410:6448  _safeTransfer(_token0, to, amount0Out) */\n      jump\t// in\n    tag_149:\n        /* \"GoWorkspace/github.com/hdlabs-ro/sc_base/us-contracts/PairUsdtRont.sol\":6390:6448  if (amount0Out > 0) _safeTransfer(_token0, to, amount0Out) */\n    tag_148:\n        /* \"GoWorkspace/github.com/hdlabs-ro/sc_base/us-contracts/PairUsdtRont.sol\":6513:6514  0 */\n      0x00\n        /* \"GoWorkspace/github.com/hdlabs-ro/sc_base/us-contracts/PairUsdtRont.sol\":6500:6510  amount1Out */\n      dup11\n        /* \"GoWorkspace/github.com/hdlabs-ro/sc_base/us-contracts/PairUsdtRont.sol\":6500:6514  amount1Out > 0 */\n      gt\n        /* \"GoWorkspace/github.com/hdlabs-ro/sc_base/us-contracts/PairUsdtRont.sol\":6496:6554  if (amount1Out > 0) _safeTransfer(_token1, to, amount1Out) */\n      iszero\n      tag_151\n      jumpi\n        /* \"GoWorkspace/github.com/hdlabs-ro/sc_base/us-contracts/PairUsdtRont.sol\":6516:6554  _safeTransfer(_token1, to, amount1Out) */\n      tag_152\n        /* \"GoWorkspace/github.com/hdlabs-ro/sc_base/us-contracts/PairUsdtRont.sol\":6530:6537  _token1 */\n      dup2\n        /* \"GoWorkspace/github.com/hdlabs-ro/sc_base/us-contracts/PairUsdtRont.sol\":6539:6541  to */\n      dup11\n        /* \"GoWorkspace/github.com/hdlabs-ro/sc_base/us-contracts/PairUsdtRont.sol\":6543:6553  amount1Out */\n      dup13\n        /* \"GoWorkspace/github.com/hdlabs-ro/sc_base/us-contracts/PairUsdtRont.sol\":6516:6529  _safeTransfer */\n      tag_150\n        /* \"GoWorkspace/github.com/hdlabs-ro/sc_base/us-contracts/PairUsdtRont.sol\":6516:6554  _safeTransfer(_token1, to, amount1Out) */\n      jump\t// in\n    tag_152:\n        /* \"GoWorkspace/github.com/hdlabs-ro/sc_base/us-contracts/PairUsdtRont.sol\":6496:6554  if (amount1Out > 0) _safeTransfer(_token1, to, amount1Out) */\n    tag_151:\n        /* \"GoWorkspace/github.com/hdlabs-ro/sc_base/us-contracts/PairUsdtRont.sol\":6710:6717  _token0 */\n      dup2\n        /* \"GoWorkspace/github.com/hdlabs-ro/sc_base/us-contracts/PairUsdtRont.sol\":6705:6728  IERC(_token0).balanceOf */\n      0xffffffffffffffffffffffffffffffffffffffff\n      and\n      0x70a08231\n        /* \"GoWorkspace/github.com/hdlabs-ro/sc_base/us-contracts/PairUsdtRont.sol\":6737:6741  this */\n      address\n        /* \"GoWorkspace/github.com/hdlabs-ro/sc_base/us-contracts/PairUsdtRont.sol\":6705:6743  IERC(_token0).balanceOf(address(this)) */\n      mload(0x40)\n      dup3\n      0xffffffff\n      and\n      0xe0\n      shl\n      dup2\n      mstore\n      0x04\n      add\n      tag_153\n      swap2\n      swap1\n      tag_53\n      jump\t// in\n    tag_153:\n      0x20\n      mload(0x40)\n      dup1\n      dup4\n      sub\n      dup2\n      dup7\n      gas\n      staticcall\n      iszero\n      dup1\n      iszero\n      tag_155\n      jumpi\n      returndatasize\n      0x00\n      dup1\n      returndatacopy\n      revert(0x00, returndatasize)\n    tag_155:\n      pop\n      pop\n      pop\n      pop\n      mload(0x40)\n      returndatasize\n      not(0x1f)\n      0x1f\n      dup3\n      add\n      and\n      dup3\n      add\n      dup1\n      0x40\n      mstore\n      pop\n      dup2\n      add\n      swap1\n      tag_156\n      swap2\n      swap1\n      tag_157\n      jump\t// in\n    tag_156:\n        /* \"GoWorkspace/github.com/hdlabs-ro/sc_base/us-contracts/PairUsdtRont.sol\":6694:6743  balance0 = IERC(_token0).balanceOf(address(this)) */\n      swap4\n      pop\n        /* \"GoWorkspace/github.com/hdlabs-ro/sc_base/us-contracts/PairUsdtRont.sol\":6773:6780  _token1 */\n      dup1\n        /* \"GoWorkspace/github.com/hdlabs-ro/sc_base/us-contracts/PairUsdtRont.sol\":6768:6791  IERC(_token1).balanceOf */\n      0xffffffffffffffffffffffffffffffffffffffff\n      and\n      0x70a08231\n        /* \"GoWorkspace/github.com/hdlabs-ro/sc_base/us-contracts/PairUsdtRont.sol\":6800:6804  this */\n      address\n        /* \"GoWorkspace/github.com/hdlabs-ro/sc_base/us-contracts/PairUsdtRont.sol\":6768:6806  IERC(_token1).balanceOf(address(this)) */\n      mload(0x40)\n      dup3\n      0xffffffff\n      and\n      0xe0\n      shl\n      dup2\n      mstore\n      0x04\n      add\n      tag_158\n      swap2\n      swap1\n      tag_53\n      jump\t// in\n    tag_158:\n      0x20\n      mload(0x40)\n      dup1\n      dup4\n      sub\n      dup2\n      dup7\n      gas\n      staticcall\n      iszero\n      dup1\n      iszero\n      tag_160\n      jumpi\n      returndatasize\n      0x00\n      dup1\n      returndatacopy\n      revert(0x00, returndatasize)\n    tag_160:\n      pop\n      pop\n      pop\n      pop\n      mload(0x40)\n      returndatasize\n      not(0x1f)\n      0x1f\n      dup3\n      add\n      and\n      dup3\n      add\n      dup1\n      0x40\n      mstore\n      pop\n      dup2\n      add\n      swap1\n      tag_161\n      swap2\n      swap1\n      tag_157\n      jump\t// in\n    tag_161:\n        /* \"GoWorkspace/github.com/hdlabs-ro/sc_base/us-contracts/PairUsdtRont.sol\":6757:6806  balance1 = IERC(_token1).balanceOf(address(this)) */\n      swap3\n      pop\n        /* \"GoWorkspace/github.com/hdlabs-ro/sc_base/us-contracts/PairUsdtRont.sol\":6152:6817  {... */\n      pop\n      pop\n        /* \"GoWorkspace/github.com/hdlabs-ro/sc_base/us-contracts/PairUsdtRont.sol\":6826:6843  uint256 amount0In */\n      0x00\n        /* \"GoWorkspace/github.com/hdlabs-ro/sc_base/us-contracts/PairUsdtRont.sol\":6869:6879  amount0Out */\n      dup10\n        /* \"GoWorkspace/github.com/hdlabs-ro/sc_base/us-contracts/PairUsdtRont.sol\":6857:6866  _reserve0 */\n      dup6\n        /* \"GoWorkspace/github.com/hdlabs-ro/sc_base/us-contracts/PairUsdtRont.sol\":6857:6879  _reserve0 - amount0Out */\n      0xffffffffffffffffffffffffffff\n      and\n      tag_162\n      swap2\n      swap1\n      tag_163\n      jump\t// in\n    tag_162:\n        /* \"GoWorkspace/github.com/hdlabs-ro/sc_base/us-contracts/PairUsdtRont.sol\":6846:6854  balance0 */\n      dup4\n        /* \"GoWorkspace/github.com/hdlabs-ro/sc_base/us-contracts/PairUsdtRont.sol\":6846:6879  balance0 > _reserve0 - amount0Out */\n      gt\n        /* \"GoWorkspace/github.com/hdlabs-ro/sc_base/us-contracts/PairUsdtRont.sol\":6846:6945  balance0 > _reserve0 - amount0Out... */\n      tag_164\n      jumpi\n        /* \"GoWorkspace/github.com/hdlabs-ro/sc_base/us-contracts/PairUsdtRont.sol\":6944:6945  0 */\n      0x00\n        /* \"GoWorkspace/github.com/hdlabs-ro/sc_base/us-contracts/PairUsdtRont.sol\":6846:6945  balance0 > _reserve0 - amount0Out... */\n      jump(tag_165)\n    tag_164:\n        /* \"GoWorkspace/github.com/hdlabs-ro/sc_base/us-contracts/PairUsdtRont.sol\":6918:6928  amount0Out */\n      dup10\n        /* \"GoWorkspace/github.com/hdlabs-ro/sc_base/us-contracts/PairUsdtRont.sol\":6906:6915  _reserve0 */\n      dup6\n        /* \"GoWorkspace/github.com/hdlabs-ro/sc_base/us-contracts/PairUsdtRont.sol\":6906:6928  _reserve0 - amount0Out */\n      0xffffffffffffffffffffffffffff\n      and\n      tag_166\n      swap2\n      swap1\n      tag_163\n      jump\t// in\n    tag_166:\n        /* \"GoWorkspace/github.com/hdlabs-ro/sc_base/us-contracts/PairUsdtRont.sol\":6894:6902  balance0 */\n      dup4\n        /* \"GoWorkspace/github.com/hdlabs-ro/sc_base/us-contracts/PairUsdtRont.sol\":6894:6929  balance0 - (_reserve0 - amount0Out) */\n      tag_167\n      swap2\n      swap1\n      tag_163\n      jump\t// in\n    tag_167:\n        /* \"GoWorkspace/github.com/hdlabs-ro/sc_base/us-contracts/PairUsdtRont.sol\":6846:6945  balance0 > _reserve0 - amount0Out... */\n    tag_165:\n        /* \"GoWorkspace/github.com/hdlabs-ro/sc_base/us-contracts/PairUsdtRont.sol\":6826:6945  uint256 amount0In = balance0 > _reserve0 - amount0Out... */\n      swap1\n      pop\n        /* \"GoWorkspace/github.com/hdlabs-ro/sc_base/us-contracts/PairUsdtRont.sol\":6955:6972  uint256 amount1In */\n      0x00\n        /* \"GoWorkspace/github.com/hdlabs-ro/sc_base/us-contracts/PairUsdtRont.sol\":6998:7008  amount1Out */\n      dup10\n        /* \"GoWorkspace/github.com/hdlabs-ro/sc_base/us-contracts/PairUsdtRont.sol\":6986:6995  _reserve1 */\n      dup6\n        /* \"GoWorkspace/github.com/hdlabs-ro/sc_base/us-contracts/PairUsdtRont.sol\":6986:7008  _reserve1 - amount1Out */\n      0xffffffffffffffffffffffffffff\n      and\n      tag_168\n      swap2\n      swap1\n      tag_163\n      jump\t// in\n    tag_168:\n        /* \"GoWorkspace/github.com/hdlabs-ro/sc_base/us-contracts/PairUsdtRont.sol\":6975:6983  balance1 */\n      dup4\n        /* \"GoWorkspace/github.com/hdlabs-ro/sc_base/us-contracts/PairUsdtRont.sol\":6975:7008  balance1 > _reserve1 - amount1Out */\n      gt\n        /* \"GoWorkspace/github.com/hdlabs-ro/sc_base/us-contracts/PairUsdtRont.sol\":6975:7074  balance1 > _reserve1 - amount1Out... */\n      tag_169\n      jumpi\n        /* \"GoWorkspace/github.com/hdlabs-ro/sc_base/us-contracts/PairUsdtRont.sol\":7073:7074  0 */\n      0x00\n        /* \"GoWorkspace/github.com/hdlabs-ro/sc_base/us-contracts/PairUsdtRont.sol\":6975:7074  balance1 > _reserve1 - amount1Out... */\n      jump(tag_170)\n    tag_169:\n        /* \"GoWorkspace/github.com/hdlabs-ro/sc_base/us-contracts/PairUsdtRont.sol\":7047:7057  amount1Out */\n      dup10\n        /* \"GoWorkspace/github.com/hdlabs-ro/sc_base/us-contracts/PairUsdtRont.sol\":7035:7044  _reserve1 */\n      dup6\n        /* \"GoWorkspace/github.com/hdlabs-ro/sc_base/us-contracts/PairUsdtRont.sol\":7035:7057  _reserve1 - amount1Out */\n      0xffffffffffffffffffffffffffff\n      and\n      tag_171\n      swap2\n      swap1\n      tag_163\n      jump\t// in\n    tag_171:\n        /* \"GoWorkspace/github.com/hdlabs-ro/sc_base/us-contracts/PairUsdtRont.sol\":7023:7031  balance1 */\n      dup4\n        /* \"GoWorkspace/github.com/hdlabs-ro/sc_base/us-contracts/PairUsdtRont.sol\":7023:7058  balance1 - (_reserve1 - amount1Out) */\n      tag_172\n      swap2\n      swap1\n      tag_163\n      jump\t// in\n    tag_172:\n        /* \"GoWorkspace/github.com/hdlabs-ro/sc_base/us-contracts/PairUsdtRont.sol\":6975:7074  balance1 > _reserve1 - amount1Out... */\n    tag_170:\n        /* \"GoWorkspace/github.com/hdlabs-ro/sc_base/us-contracts/PairUsdtRont.sol\":6955:7074  uint256 amount1In = balance1 > _reserve1 - amount1Out... */\n      swap1\n      pop\n        /* \"GoWorkspace/github.com/hdlabs-ro/sc_base/us-contracts/PairUsdtRont.sol\":7117:7118  0 */\n      0x00\n        /* \"GoWorkspace/github.com/hdlabs-ro/sc_base/us-contracts/PairUsdtRont.sol\":7105:7114  amount0In */\n      dup3\n        /* \"GoWorkspace/github.com/hdlabs-ro/sc_base/us-contracts/PairUsdtRont.sol\":7105:7118  amount0In > 0 */\n      gt\n        /* \"GoWorkspace/github.com/hdlabs-ro/sc_base/us-contracts/PairUsdtRont.sol\":7105:7135  amount0In > 0 || amount1In > 0 */\n      dup1\n      tag_173\n      jumpi\n      pop\n        /* \"GoWorkspace/github.com/hdlabs-ro/sc_base/us-contracts/PairUsdtRont.sol\":7134:7135  0 */\n      0x00\n        /* \"GoWorkspace/github.com/hdlabs-ro/sc_base/us-contracts/PairUsdtRont.sol\":7122:7131  amount1In */\n      dup2\n        /* \"GoWorkspace/github.com/hdlabs-ro/sc_base/us-contracts/PairUsdtRont.sol\":7122:7135  amount1In > 0 */\n      gt\n        /* \"GoWorkspace/github.com/hdlabs-ro/sc_base/us-contracts/PairUsdtRont.sol\":7105:7135  amount0In > 0 || amount1In > 0 */\n    tag_173:\n        /* \"GoWorkspace/github.com/hdlabs-ro/sc_base/us-contracts/PairUsdtRont.sol\":7084:7200  require(... */\n      tag_174\n      jumpi\n      mload(0x40)\n      0x08c379a000000000000000000000000000000000000000000000000000000000\n      dup2\n      mstore\n      0x04\n      add\n      tag_175\n      swap1\n      tag_176\n      jump\t// in\n    tag_175:\n      mload(0x40)\n      dup1\n      swap2\n      sub\n      swap1\n      revert\n    tag_174:\n        /* \"GoWorkspace/github.com/hdlabs-ro/sc_base/us-contracts/PairUsdtRont.sol\":7300:7324  uint256 balance0Adjusted */\n      0x00\n        /* \"GoWorkspace/github.com/hdlabs-ro/sc_base/us-contracts/PairUsdtRont.sol\":7357:7358  3 */\n      0x03\n        /* \"GoWorkspace/github.com/hdlabs-ro/sc_base/us-contracts/PairUsdtRont.sol\":7345:7354  amount0In */\n      dup4\n        /* \"GoWorkspace/github.com/hdlabs-ro/sc_base/us-contracts/PairUsdtRont.sol\":7345:7358  amount0In * 3 */\n      tag_177\n      swap2\n      swap1\n      tag_178\n      jump\t// in\n    tag_177:\n        /* \"GoWorkspace/github.com/hdlabs-ro/sc_base/us-contracts/PairUsdtRont.sol\":7338:7342  1000 */\n      0x03e8\n        /* \"GoWorkspace/github.com/hdlabs-ro/sc_base/us-contracts/PairUsdtRont.sol\":7327:7335  balance0 */\n      dup7\n        /* \"GoWorkspace/github.com/hdlabs-ro/sc_base/us-contracts/PairUsdtRont.sol\":7327:7342  balance0 * 1000 */\n      tag_179\n      swap2\n      swap1\n      tag_178\n      jump\t// in\n    tag_179:\n        /* \"GoWorkspace/github.com/hdlabs-ro/sc_base/us-contracts/PairUsdtRont.sol\":7327:7358  balance0 * 1000 - amount0In * 3 */\n      tag_180\n      swap2\n      swap1\n      tag_163\n      jump\t// in\n    tag_180:\n        /* \"GoWorkspace/github.com/hdlabs-ro/sc_base/us-contracts/PairUsdtRont.sol\":7300:7358  uint256 balance0Adjusted = balance0 * 1000 - amount0In * 3 */\n      swap1\n      pop\n        /* \"GoWorkspace/github.com/hdlabs-ro/sc_base/us-contracts/PairUsdtRont.sol\":7372:7396  uint256 balance1Adjusted */\n      0x00\n        /* \"GoWorkspace/github.com/hdlabs-ro/sc_base/us-contracts/PairUsdtRont.sol\":7429:7430  3 */\n      0x03\n        /* \"GoWorkspace/github.com/hdlabs-ro/sc_base/us-contracts/PairUsdtRont.sol\":7417:7426  amount1In */\n      dup4\n        /* \"GoWorkspace/github.com/hdlabs-ro/sc_base/us-contracts/PairUsdtRont.sol\":7417:7430  amount1In * 3 */\n      tag_181\n      swap2\n      swap1\n      tag_178\n      jump\t// in\n    tag_181:\n        /* \"GoWorkspace/github.com/hdlabs-ro/sc_base/us-contracts/PairUsdtRont.sol\":7410:7414  1000 */\n      0x03e8\n        /* \"GoWorkspace/github.com/hdlabs-ro/sc_base/us-contracts/PairUsdtRont.sol\":7399:7407  balance1 */\n      dup7\n        /* \"GoWorkspace/github.com/hdlabs-ro/sc_base/us-contracts/PairUsdtRont.sol\":7399:7414  balance1 * 1000 */\n      tag_182\n      swap2\n      swap1\n      tag_178\n      jump\t// in\n    tag_182:\n        /* \"GoWorkspace/github.com/hdlabs-ro/sc_base/us-contracts/PairUsdtRont.sol\":7399:7430  balance1 * 1000 - amount1In * 3 */\n      tag_183\n      swap2\n      swap1\n      tag_163\n      jump\t// in\n    tag_183:\n        /* \"GoWorkspace/github.com/hdlabs-ro/sc_base/us-contracts/PairUsdtRont.sol\":7372:7430  uint256 balance1Adjusted = balance1 * 1000 - amount1In * 3 */\n      swap1\n      pop\n        /* \"GoWorkspace/github.com/hdlabs-ro/sc_base/us-contracts/PairUsdtRont.sol\":7561:7568  1000**2 */\n      0x0f4240\n        /* \"GoWorkspace/github.com/hdlabs-ro/sc_base/us-contracts/PairUsdtRont.sol\":7549:7558  _reserve1 */\n      dup8\n        /* \"GoWorkspace/github.com/hdlabs-ro/sc_base/us-contracts/PairUsdtRont.sol\":7528:7558  uint256(_reserve0) * _reserve1 */\n      0xffffffffffffffffffffffffffff\n      and\n        /* \"GoWorkspace/github.com/hdlabs-ro/sc_base/us-contracts/PairUsdtRont.sol\":7536:7545  _reserve0 */\n      dup10\n        /* \"GoWorkspace/github.com/hdlabs-ro/sc_base/us-contracts/PairUsdtRont.sol\":7528:7546  uint256(_reserve0) */\n      0xffffffffffffffffffffffffffff\n      and\n        /* \"GoWorkspace/github.com/hdlabs-ro/sc_base/us-contracts/PairUsdtRont.sol\":7528:7558  uint256(_reserve0) * _reserve1 */\n      tag_184\n      swap2\n      swap1\n      tag_178\n      jump\t// in\n    tag_184:\n        /* \"GoWorkspace/github.com/hdlabs-ro/sc_base/us-contracts/PairUsdtRont.sol\":7528:7568  uint256(_reserve0) * _reserve1 * 1000**2 */\n      tag_185\n      swap2\n      swap1\n      tag_178\n      jump\t// in\n    tag_185:\n        /* \"GoWorkspace/github.com/hdlabs-ro/sc_base/us-contracts/PairUsdtRont.sol\":7488:7504  balance1Adjusted */\n      dup2\n        /* \"GoWorkspace/github.com/hdlabs-ro/sc_base/us-contracts/PairUsdtRont.sol\":7469:7485  balance0Adjusted */\n      dup4\n        /* \"GoWorkspace/github.com/hdlabs-ro/sc_base/us-contracts/PairUsdtRont.sol\":7469:7504  balance0Adjusted * balance1Adjusted */\n      tag_186\n      swap2\n      swap1\n      tag_178\n      jump\t// in\n    tag_186:\n        /* \"GoWorkspace/github.com/hdlabs-ro/sc_base/us-contracts/PairUsdtRont.sol\":7469:7568  balance0Adjusted * balance1Adjusted >=... */\n      lt\n      iszero\n        /* \"GoWorkspace/github.com/hdlabs-ro/sc_base/us-contracts/PairUsdtRont.sol\":7444:7617  require(... */\n      tag_187\n      jumpi\n      mload(0x40)\n      0x08c379a000000000000000000000000000000000000000000000000000000000\n      dup2\n      mstore\n      0x04\n      add\n      tag_188\n      swap1\n      tag_189\n      jump\t// in\n    tag_188:\n      mload(0x40)\n      dup1\n      swap2\n      sub\n      swap1\n      revert\n    tag_187:\n        /* \"GoWorkspace/github.com/hdlabs-ro/sc_base/us-contracts/PairUsdtRont.sol\":7210:7628  {... */\n      pop\n      pop\n        /* \"GoWorkspace/github.com/hdlabs-ro/sc_base/us-contracts/PairUsdtRont.sol\":7638:7687  _update(balance0, balance1, _reserve0, _reserve1) */\n      tag_190\n        /* \"GoWorkspace/github.com/hdlabs-ro/sc_base/us-contracts/PairUsdtRont.sol\":7646:7654  balance0 */\n      dup5\n        /* \"GoWorkspace/github.com/hdlabs-ro/sc_base/us-contracts/PairUsdtRont.sol\":7656:7664  balance1 */\n      dup5\n        /* \"GoWorkspace/github.com/hdlabs-ro/sc_base/us-contracts/PairUsdtRont.sol\":7666:7675  _reserve0 */\n      dup9\n        /* \"GoWorkspace/github.com/hdlabs-ro/sc_base/us-contracts/PairUsdtRont.sol\":7677:7686  _reserve1 */\n      dup9\n        /* \"GoWorkspace/github.com/hdlabs-ro/sc_base/us-contracts/PairUsdtRont.sol\":7638:7645  _update */\n      tag_191\n        /* \"GoWorkspace/github.com/hdlabs-ro/sc_base/us-contracts/PairUsdtRont.sol\":7638:7687  _update(balance0, balance1, _reserve0, _reserve1) */\n      jump\t// in\n    tag_190:\n        /* \"GoWorkspace/github.com/hdlabs-ro/sc_base/us-contracts/PairUsdtRont.sol\":5708:7694  {... */\n      pop\n      pop\n      pop\n      pop\n      pop\n      pop\n        /* \"GoWorkspace/github.com/hdlabs-ro/sc_base/us-contracts/PairUsdtRont.sol\":1774:1775  1 */\n      0x01\n        /* \"GoWorkspace/github.com/hdlabs-ro/sc_base/us-contracts/PairUsdtRont.sol\":1763:1771  unlocked */\n      0x0c\n        /* \"GoWorkspace/github.com/hdlabs-ro/sc_base/us-contracts/PairUsdtRont.sol\":1763:1775  unlocked = 1 */\n      dup2\n      swap1\n      sstore\n      pop\n        /* \"GoWorkspace/github.com/hdlabs-ro/sc_base/us-contracts/PairUsdtRont.sol\":5569:7694  function swap(... */\n      pop\n      pop\n      pop\n      pop\n      pop\n      jump\t// out\n        /* \"GoWorkspace/github.com/hdlabs-ro/sc_base/us-contracts/PairUsdtRont.sol\":384:430  string public constant name = \"ERC Uniswap V2\" */\n    tag_37:\n      mload(0x40)\n      dup1\n      0x40\n      add\n      0x40\n      mstore\n      dup1\n      0x0e\n      dup2\n      mstore\n      0x20\n      add\n      0x45524320556e6973776170205632000000000000000000000000000000000000\n      dup2\n      mstore\n      pop\n      dup2\n      jump\t// out\n        /* \"GoWorkspace/github.com/hdlabs-ro/sc_base/us-contracts/PairUsdtRont.sol\":2327:2628  function getReserves()... */\n    tag_41:\n        /* \"GoWorkspace/github.com/hdlabs-ro/sc_base/us-contracts/PairUsdtRont.sol\":2408:2425  uint112 _reserve0 */\n      0x00\n        /* \"GoWorkspace/github.com/hdlabs-ro/sc_base/us-contracts/PairUsdtRont.sol\":2439:2456  uint112 _reserve1 */\n      dup1\n        /* \"GoWorkspace/github.com/hdlabs-ro/sc_base/us-contracts/PairUsdtRont.sol\":2470:2496  uint32 _blockTimestampLast */\n      0x00\n        /* \"GoWorkspace/github.com/hdlabs-ro/sc_base/us-contracts/PairUsdtRont.sol\":2533:2541  reserve0 */\n      0x08\n      0x00\n      swap1\n      sload\n      swap1\n      0x0100\n      exp\n      swap1\n      div\n      0xffffffffffffffffffffffffffff\n      and\n        /* \"GoWorkspace/github.com/hdlabs-ro/sc_base/us-contracts/PairUsdtRont.sol\":2521:2541  _reserve0 = reserve0 */\n      swap3\n      pop\n        /* \"GoWorkspace/github.com/hdlabs-ro/sc_base/us-contracts/PairUsdtRont.sol\":2563:2571  reserve1 */\n      0x08\n      0x0e\n      swap1\n      sload\n      swap1\n      0x0100\n      exp\n      swap1\n      div\n      0xffffffffffffffffffffffffffff\n      and\n        /* \"GoWorkspace/github.com/hdlabs-ro/sc_base/us-contracts/PairUsdtRont.sol\":2551:2571  _reserve1 = reserve1 */\n      swap2\n      pop\n        /* \"GoWorkspace/github.com/hdlabs-ro/sc_base/us-contracts/PairUsdtRont.sol\":2603:2621  blockTimestampLast */\n      0x08\n      0x1c\n      swap1\n      sload\n      swap1\n      0x0100\n      exp\n      swap1\n      div\n      0xffffffff\n      and\n        /* \"GoWorkspace/github.com/hdlabs-ro/sc_base/us-contracts/PairUsdtRont.sol\":2581:2621  _blockTimestampLast = blockTimestampLast */\n      swap1\n      pop\n        /* \"GoWorkspace/github.com/hdlabs-ro/sc_base/us-contracts/PairUsdtRont.sol\":2327:2628  function getReserves()... */\n      swap1\n      swap2\n      swap3\n      jump\t// out\n        /* \"GoWorkspace/github.com/hdlabs-ro/sc_base/us-contracts/PairUsdtRont.sol\":11267:11414  function approve(address spender, uint256 value) external returns (bool) {... */\n    tag_47:\n        /* \"GoWorkspace/github.com/hdlabs-ro/sc_base/us-contracts/PairUsdtRont.sol\":11334:11338  bool */\n      0x00\n        /* \"GoWorkspace/github.com/hdlabs-ro/sc_base/us-contracts/PairUsdtRont.sol\":11350:11386  _approve(msg.sender, spender, value) */\n      tag_194\n        /* \"GoWorkspace/github.com/hdlabs-ro/sc_base/us-contracts/PairUsdtRont.sol\":11359:11369  msg.sender */\n      caller\n        /* \"GoWorkspace/github.com/hdlabs-ro/sc_base/us-contracts/PairUsdtRont.sol\":11371:11378  spender */\n      dup5\n        /* \"GoWorkspace/github.com/hdlabs-ro/sc_base/us-contracts/PairUsdtRont.sol\":11380:11385  value */\n      dup5\n        /* \"GoWorkspace/github.com/hdlabs-ro/sc_base/us-contracts/PairUsdtRont.sol\":11350:11358  _approve */\n      tag_195\n        /* \"GoWorkspace/github.com/hdlabs-ro/sc_base/us-contracts/PairUsdtRont.sol\":11350:11386  _approve(msg.sender, spender, value) */\n      jump\t// in\n    tag_194:\n        /* \"GoWorkspace/github.com/hdlabs-ro/sc_base/us-contracts/PairUsdtRont.sol\":11403:11407  true */\n      0x01\n        /* \"GoWorkspace/github.com/hdlabs-ro/sc_base/us-contracts/PairUsdtRont.sol\":11396:11407  return true */\n      swap1\n      pop\n        /* \"GoWorkspace/github.com/hdlabs-ro/sc_base/us-contracts/PairUsdtRont.sol\":11267:11414  function approve(address spender, uint256 value) external returns (bool) {... */\n      swap3\n      swap2\n      pop\n      pop\n      jump\t// out\n        /* \"GoWorkspace/github.com/hdlabs-ro/sc_base/us-contracts/PairUsdtRont.sol\":207:273  address public token0 = 0xD0DA387609Adc13779badAf1315a4904CD40976E */\n    tag_51:\n      0x01\n      0x00\n      swap1\n      sload\n      swap1\n      0x0100\n      exp\n      swap1\n      div\n      0xffffffffffffffffffffffffffffffffffffffff\n      and\n      dup2\n      jump\t// out\n        /* \"GoWorkspace/github.com/hdlabs-ro/sc_base/us-contracts/PairUsdtRont.sol\":527:553  uint256 public totalSupply */\n    tag_55:\n      sload(0x03)\n      dup2\n      jump\t// out\n        /* \"GoWorkspace/github.com/hdlabs-ro/sc_base/us-contracts/PairUsdtRont.sol\":11565:11916  function transferFrom(... */\n    tag_61:\n        /* \"GoWorkspace/github.com/hdlabs-ro/sc_base/us-contracts/PairUsdtRont.sol\":11676:11680  bool */\n      0x00\n        /* \"GoWorkspace/github.com/hdlabs-ro/sc_base/us-contracts/PairUsdtRont.sol\":11727:11761  0xFFFFFFFFFFFFFFFFFFFFFFFFFFFFFFFF */\n      0xffffffffffffffffffffffffffffffff\n        /* \"GoWorkspace/github.com/hdlabs-ro/sc_base/us-contracts/PairUsdtRont.sol\":11696:11705  allowance */\n      0x05\n        /* \"GoWorkspace/github.com/hdlabs-ro/sc_base/us-contracts/PairUsdtRont.sol\":11696:11711  allowance[from] */\n      0x00\n        /* \"GoWorkspace/github.com/hdlabs-ro/sc_base/us-contracts/PairUsdtRont.sol\":11706:11710  from */\n      dup7\n        /* \"GoWorkspace/github.com/hdlabs-ro/sc_base/us-contracts/PairUsdtRont.sol\":11696:11711  allowance[from] */\n      0xffffffffffffffffffffffffffffffffffffffff\n      and\n      0xffffffffffffffffffffffffffffffffffffffff\n      and\n      dup2\n      mstore\n      0x20\n      add\n      swap1\n      dup2\n      mstore\n      0x20\n      add\n      0x00\n      keccak256\n        /* \"GoWorkspace/github.com/hdlabs-ro/sc_base/us-contracts/PairUsdtRont.sol\":11696:11723  allowance[from][msg.sender] */\n      0x00\n        /* \"GoWorkspace/github.com/hdlabs-ro/sc_base/us-contracts/PairUsdtRont.sol\":11712:11722  msg.sender */\n      caller\n        /* \"GoWorkspace/github.com/hdlabs-ro/sc_base/us-contracts/PairUsdtRont.sol\":11696:11723  allowance[from][msg.sender] */\n      0xffffffffffffffffffffffffffffffffffffffff\n      and\n      0xffffffffffffffffffffffffffffffffffffffff\n      and\n      dup2\n      mstore\n      0x20\n      add\n      swap1\n      dup2\n      mstore\n      0x20\n      add\n      0x00\n      keccak256\n      sload\n        /* \"GoWorkspace/github.com/hdlabs-ro/sc_base/us-contracts/PairUsdtRont.sol\":11696:11761  allowance[from][msg.sender] != 0xFFFFFFFFFFFFFFFFFFFFFFFFFFFFFFFF */\n      eq\n        /* \"GoWorkspace/github.com/hdlabs-ro/sc_base/us-contracts/PairUsdtRont.sol\":11692:11853  if (allowance[from][msg.sender] != 0xFFFFFFFFFFFFFFFFFFFFFFFFFFFFFFFF) {... */\n      tag_197\n      jumpi\n        /* \"GoWorkspace/github.com/hdlabs-ro/sc_base/us-contracts/PairUsdtRont.sol\":11837:11842  value */\n      dup2\n        /* \"GoWorkspace/github.com/hdlabs-ro/sc_base/us-contracts/PairUsdtRont.sol\":11807:11816  allowance */\n      0x05\n        /* \"GoWorkspace/github.com/hdlabs-ro/sc_base/us-contracts/PairUsdtRont.sol\":11807:11822  allowance[from] */\n      0x00\n        /* \"GoWorkspace/github.com/hdlabs-ro/sc_base/us-contracts/PairUsdtRont.sol\":11817:11821  from */\n      dup7\n        /* \"GoWorkspace/github.com/hdlabs-ro/sc_base/us-contracts/PairUsdtRont.sol\":11807:11822  allowance[from] */\n      0xffffffffffffffffffffffffffffffffffffffff\n      and\n      0xffffffffffffffffffffffffffffffffffffffff\n      and\n      dup2\n      mstore\n      0x20\n      add\n      swap1\n      dup2\n      mstore\n      0x20\n      add\n      0x00\n      keccak256\n        /* \"GoWorkspace/github.com/hdlabs-ro/sc_base/us-contracts/PairUsdtRont.sol\":11807:11834  allowance[from][msg.sender] */\n      0x00\n        /* \"GoWorkspace/github.com/hdlabs-ro/sc_base/us-contracts/PairUsdtRont.sol\":11823:11833  msg.sender */\n      caller\n        /* \"GoWorkspace/github.com/hdlabs-ro/sc_base/us-contracts/PairUsdtRont.sol\":11807:11834  allowance[from][msg.sender] */\n      0xffffffffffffffffffffffffffffffffffffffff\n      and\n      0xffffffffffffffffffffffffffffffffffffffff\n      and\n      dup2\n      mstore\n      0x20\n      add\n      swap1\n      dup2\n      mstore\n      0x20\n      add\n      0x00\n      keccak256\n      sload\n        /* \"GoWorkspace/github.com/hdlabs-ro/sc_base/us-contracts/PairUsdtRont.sol\":11807:11842  allowance[from][msg.sender] - value */\n      tag_198\n      swap2\n      swap1\n      tag_163\n      jump\t// in\n    tag_198:\n        /* \"GoWorkspace/github.com/hdlabs-ro/sc_base/us-contracts/PairUsdtRont.sol\":11777:11786  allowance */\n      0x05\n        /* \"GoWorkspace/github.com/hdlabs-ro/sc_base/us-contracts/PairUsdtRont.sol\":11777:11792  allowance[from] */\n      0x00\n        /* \"GoWorkspace/github.com/hdlabs-ro/sc_base/us-contracts/PairUsdtRont.sol\":11787:11791  from */\n      dup7\n        /* \"GoWorkspace/github.com/hdlabs-ro/sc_base/us-contracts/PairUsdtRont.sol\":11777:11792  allowance[from] */\n      0xffffffffffffffffffffffffffffffffffffffff\n      and\n      0xffffffffffffffffffffffffffffffffffffffff\n      and\n      dup2\n      mstore\n      0x20\n      add\n      swap1\n      dup2\n      mstore\n      0x20\n      add\n      0x00\n      keccak256\n        /* \"GoWorkspace/github.com/hdlabs-ro/sc_base/us-contracts/PairUsdtRont.sol\":11777:11804  allowance[from][msg.sender] */\n      0x00\n        /* \"GoWorkspace/github.com/hdlabs-ro/sc_base/us-contracts/PairUsdtRont.sol\":11793:11803  msg.sender */\n      caller\n        /* \"GoWorkspace/github.com/hdlabs-ro/sc_base/us-contracts/PairUsdtRont.sol\":11777:11804  allowance[from][msg.sender] */\n      0xffffffffffffffffffffffffffffffffffffffff\n      and\n      0xffffffffffffffffffffffffffffffffffffffff\n      and\n      dup2\n      mstore\n      0x20\n      add\n      swap1\n      dup2\n      mstore\n      0x20\n      add\n      0x00\n      keccak256\n        /* \"GoWorkspace/github.com/hdlabs-ro/sc_base/us-contracts/PairUsdtRont.sol\":11777:11842  allowance[from][msg.sender] = allowance[from][msg.sender] - value */\n      dup2\n      swap1\n      sstore\n      pop\n        /* \"GoWorkspace/github.com/hdlabs-ro/sc_base/us-contracts/PairUsdtRont.sol\":11692:11853  if (allowance[from][msg.sender] != 0xFFFFFFFFFFFFFFFFFFFFFFFFFFFFFFFF) {... */\n    tag_197:\n        /* \"GoWorkspace/github.com/hdlabs-ro/sc_base/us-contracts/PairUsdtRont.sol\":11862:11888  _transfer(from, to, value) */\n      tag_199\n        /* \"GoWorkspace/github.com/hdlabs-ro/sc_base/us-contracts/PairUsdtRont.sol\":11872:11876  from */\n      dup5\n        /* \"GoWorkspace/github.com/hdlabs-ro/sc_base/us-contracts/PairUsdtRont.sol\":11878:11880  to */\n      dup5\n        /* \"GoWorkspace/github.com/hdlabs-ro/sc_base/us-contracts/PairUsdtRont.sol\":11882:11887  value */\n      dup5\n        /* \"GoWorkspace/github.com/hdlabs-ro/sc_base/us-contracts/PairUsdtRont.sol\":11862:11871  _transfer */\n      tag_200\n        /* \"GoWorkspace/github.com/hdlabs-ro/sc_base/us-contracts/PairUsdtRont.sol\":11862:11888  _transfer(from, to, value) */\n      jump\t// in\n    tag_199:\n        /* \"GoWorkspace/github.com/hdlabs-ro/sc_base/us-contracts/PairUsdtRont.sol\":11905:11909  true */\n      0x01\n        /* \"GoWorkspace/github.com/hdlabs-ro/sc_base/us-contracts/PairUsdtRont.sol\":11898:11909  return true */\n      swap1\n      pop\n        /* \"GoWorkspace/github.com/hdlabs-ro/sc_base/us-contracts/PairUsdtRont.sol\":11565:11916  function transferFrom(... */\n      swap4\n      swap3\n      pop\n      pop\n      pop\n      jump\t// out\n        /* \"GoWorkspace/github.com/hdlabs-ro/sc_base/us-contracts/PairUsdtRont.sol\":820:936  bytes32 public constant PERMIT_TYPEHASH =... */\n    tag_64:\n        /* \"GoWorkspace/github.com/hdlabs-ro/sc_base/us-contracts/PairUsdtRont.sol\":870:936  0x6e71edae12b1b97f4d1f60370fef10105fa2faae0126114a169c64845d6126c9 */\n      0x6e71edae12b1b97f4d1f60370fef10105fa2faae0126114a169c64845d6126c9\n        /* \"GoWorkspace/github.com/hdlabs-ro/sc_base/us-contracts/PairUsdtRont.sol\":820:936  bytes32 public constant PERMIT_TYPEHASH =... */\n      0x00\n      shl\n      dup2\n      jump\t// out\n        /* \"GoWorkspace/github.com/hdlabs-ro/sc_base/us-contracts/PairUsdtRont.sol\":486:521  uint8 public constant decimals = 18 */\n    tag_68:\n        /* \"GoWorkspace/github.com/hdlabs-ro/sc_base/us-contracts/PairUsdtRont.sol\":519:521  18 */\n      0x12\n        /* \"GoWorkspace/github.com/hdlabs-ro/sc_base/us-contracts/PairUsdtRont.sol\":486:521  uint8 public constant decimals = 18 */\n      dup2\n      jump\t// out\n        /* \"GoWorkspace/github.com/hdlabs-ro/sc_base/us-contracts/PairUsdtRont.sol\":679:710  bytes32 public DOMAIN_SEPARATOR */\n    tag_72:\n      sload(0x06)\n      dup2\n      jump\t// out\n        /* \"GoWorkspace/github.com/hdlabs-ro/sc_base/us-contracts/PairUsdtRont.sol\":1425:1460  uint256 public price0CumulativeLast */\n    tag_75:\n      sload(0x09)\n      dup2\n      jump\t// out\n        /* \"GoWorkspace/github.com/hdlabs-ro/sc_base/us-contracts/PairUsdtRont.sol\":1466:1501  uint256 public price1CumulativeLast */\n    tag_78:\n      sload(0x0a)\n      dup2\n      jump\t// out\n        /* \"GoWorkspace/github.com/hdlabs-ro/sc_base/us-contracts/PairUsdtRont.sol\":2737:3948  function mint(address to) external lock returns (uint256 liquidity) {... */\n    tag_83:\n        /* \"GoWorkspace/github.com/hdlabs-ro/sc_base/us-contracts/PairUsdtRont.sol\":2786:2803  uint256 liquidity */\n      0x00\n        /* \"GoWorkspace/github.com/hdlabs-ro/sc_base/us-contracts/PairUsdtRont.sol\":1694:1695  1 */\n      0x01\n        /* \"GoWorkspace/github.com/hdlabs-ro/sc_base/us-contracts/PairUsdtRont.sol\":1682:1690  unlocked */\n      sload(0x0c)\n        /* \"GoWorkspace/github.com/hdlabs-ro/sc_base/us-contracts/PairUsdtRont.sol\":1682:1695  unlocked == 1 */\n      eq\n        /* \"GoWorkspace/github.com/hdlabs-ro/sc_base/us-contracts/PairUsdtRont.sol\":1674:1720  require(unlocked == 1, \"PairUsdtRont: LOCKED\") */\n      tag_202\n      jumpi\n      mload(0x40)\n      0x08c379a000000000000000000000000000000000000000000000000000000000\n      dup2\n      mstore\n      0x04\n      add\n      tag_203\n      swap1\n      tag_131\n      jump\t// in\n    tag_203:\n      mload(0x40)\n      dup1\n      swap2\n      sub\n      swap1\n      revert\n    tag_202:\n        /* \"GoWorkspace/github.com/hdlabs-ro/sc_base/us-contracts/PairUsdtRont.sol\":1741:1742  0 */\n      0x00\n        /* \"GoWorkspace/github.com/hdlabs-ro/sc_base/us-contracts/PairUsdtRont.sol\":1730:1738  unlocked */\n      0x0c\n        /* \"GoWorkspace/github.com/hdlabs-ro/sc_base/us-contracts/PairUsdtRont.sol\":1730:1742  unlocked = 0 */\n      dup2\n      swap1\n      sstore\n      pop\n        /* \"GoWorkspace/github.com/hdlabs-ro/sc_base/us-contracts/PairUsdtRont.sol\":2816:2833  uint112 _reserve0 */\n      0x00\n        /* \"GoWorkspace/github.com/hdlabs-ro/sc_base/us-contracts/PairUsdtRont.sol\":2835:2852  uint112 _reserve1 */\n      dup1\n        /* \"GoWorkspace/github.com/hdlabs-ro/sc_base/us-contracts/PairUsdtRont.sol\":2858:2871  getReserves() */\n      tag_205\n        /* \"GoWorkspace/github.com/hdlabs-ro/sc_base/us-contracts/PairUsdtRont.sol\":2858:2869  getReserves */\n      tag_41\n        /* \"GoWorkspace/github.com/hdlabs-ro/sc_base/us-contracts/PairUsdtRont.sol\":2858:2871  getReserves() */\n      jump\t// in\n    tag_205:\n        /* \"GoWorkspace/github.com/hdlabs-ro/sc_base/us-contracts/PairUsdtRont.sol\":2815:2871  (uint112 _reserve0, uint112 _reserve1, ) = getReserves() */\n      pop\n      swap2\n      pop\n      swap2\n      pop\n        /* \"GoWorkspace/github.com/hdlabs-ro/sc_base/us-contracts/PairUsdtRont.sol\":2896:2912  uint256 balance0 */\n      0x00\n        /* \"GoWorkspace/github.com/hdlabs-ro/sc_base/us-contracts/PairUsdtRont.sol\":2920:2926  token0 */\n      0x01\n      0x00\n      swap1\n      sload\n      swap1\n      0x0100\n      exp\n      swap1\n      div\n      0xffffffffffffffffffffffffffffffffffffffff\n      and\n        /* \"GoWorkspace/github.com/hdlabs-ro/sc_base/us-contracts/PairUsdtRont.sol\":2915:2937  IERC(token0).balanceOf */\n      0xffffffffffffffffffffffffffffffffffffffff\n      and\n      0x70a08231\n        /* \"GoWorkspace/github.com/hdlabs-ro/sc_base/us-contracts/PairUsdtRont.sol\":2946:2950  this */\n      address\n        /* \"GoWorkspace/github.com/hdlabs-ro/sc_base/us-contracts/PairUsdtRont.sol\":2915:2952  IERC(token0).balanceOf(address(this)) */\n      mload(0x40)\n      dup3\n      0xffffffff\n      and\n      0xe0\n      shl\n      dup2\n      mstore\n      0x04\n      add\n      tag_206\n      swap2\n      swap1\n      tag_53\n      jump\t// in\n    tag_206:\n      0x20\n      mload(0x40)\n      dup1\n      dup4\n      sub\n      dup2\n      dup7\n      gas\n      staticcall\n      iszero\n      dup1\n      iszero\n      tag_208\n      jumpi\n      returndatasize\n      0x00\n      dup1\n      returndatacopy\n      revert(0x00, returndatasize)\n    tag_208:\n      pop\n      pop\n      pop\n      pop\n      mload(0x40)\n      returndatasize\n      not(0x1f)\n      0x1f\n      dup3\n      add\n      and\n      dup3\n      add\n      dup1\n      0x40\n      mstore\n      pop\n      dup2\n      add\n      swap1\n      tag_209\n      swap2\n      swap1\n      tag_157\n      jump\t// in\n    tag_209:\n        /* \"GoWorkspace/github.com/hdlabs-ro/sc_base/us-contracts/PairUsdtRont.sol\":2896:2952  uint256 balance0 = IERC(token0).balanceOf(address(this)) */\n      swap1\n      pop\n        /* \"GoWorkspace/github.com/hdlabs-ro/sc_base/us-contracts/PairUsdtRont.sol\":2962:2978  uint256 balance1 */\n      0x00\n        /* \"GoWorkspace/github.com/hdlabs-ro/sc_base/us-contracts/PairUsdtRont.sol\":2986:2992  token1 */\n      0x02\n      0x00\n      swap1\n      sload\n      swap1\n      0x0100\n      exp\n      swap1\n      div\n      0xffffffffffffffffffffffffffffffffffffffff\n      and\n        /* \"GoWorkspace/github.com/hdlabs-ro/sc_base/us-contracts/PairUsdtRont.sol\":2981:3003  IERC(token1).balanceOf */\n      0xffffffffffffffffffffffffffffffffffffffff\n      and\n      0x70a08231\n        /* \"GoWorkspace/github.com/hdlabs-ro/sc_base/us-contracts/PairUsdtRont.sol\":3012:3016  this */\n      address\n        /* \"GoWorkspace/github.com/hdlabs-ro/sc_base/us-contracts/PairUsdtRont.sol\":2981:3018  IERC(token1).balanceOf(address(this)) */\n      mload(0x40)\n      dup3\n      0xffffffff\n      and\n      0xe0\n      shl\n      dup2\n      mstore\n      0x04\n      add\n      tag_210\n      swap2\n      swap1\n      tag_53\n      jump\t// in\n    tag_210:\n      0x20\n      mload(0x40)\n      dup1\n      dup4\n      sub\n      dup2\n      dup7\n      gas\n      staticcall\n      iszero\n      dup1\n      iszero\n      tag_212\n      jumpi\n      returndatasize\n      0x00\n      dup1\n      returndatacopy\n      revert(0x00, returndatasize)\n    tag_212:\n      pop\n      pop\n      pop\n      pop\n      mload(0x40)\n      returndatasize\n      not(0x1f)\n      0x1f\n      dup3\n      add\n      and\n      dup3\n      add\n      dup1\n      0x40\n      mstore\n      pop\n      dup2\n      add\n      swap1\n      tag_213\n      swap2\n      swap1\n      tag_157\n      jump\t// in\n    tag_213:\n        /* \"GoWorkspace/github.com/hdlabs-ro/sc_base/us-contracts/PairUsdtRont.sol\":2962:3018  uint256 balance1 = IERC(token1).balanceOf(address(this)) */\n      swap1\n      pop\n        /* \"GoWorkspace/github.com/hdlabs-ro/sc_base/us-contracts/PairUsdtRont.sol\":3028:3043  uint256 amount0 */\n      0x00\n        /* \"GoWorkspace/github.com/hdlabs-ro/sc_base/us-contracts/PairUsdtRont.sol\":3057:3066  _reserve0 */\n      dup5\n        /* \"GoWorkspace/github.com/hdlabs-ro/sc_base/us-contracts/PairUsdtRont.sol\":3046:3066  balance0 - _reserve0 */\n      0xffffffffffffffffffffffffffff\n      and\n        /* \"GoWorkspace/github.com/hdlabs-ro/sc_base/us-contracts/PairUsdtRont.sol\":3046:3054  balance0 */\n      dup4\n        /* \"GoWorkspace/github.com/hdlabs-ro/sc_base/us-contracts/PairUsdtRont.sol\":3046:3066  balance0 - _reserve0 */\n      tag_214\n      swap2\n      swap1\n      tag_163\n      jump\t// in\n    tag_214:\n        /* \"GoWorkspace/github.com/hdlabs-ro/sc_base/us-contracts/PairUsdtRont.sol\":3028:3066  uint256 amount0 = balance0 - _reserve0 */\n      swap1\n      pop\n        /* \"GoWorkspace/github.com/hdlabs-ro/sc_base/us-contracts/PairUsdtRont.sol\":3076:3091  uint256 amount1 */\n      0x00\n        /* \"GoWorkspace/github.com/hdlabs-ro/sc_base/us-contracts/PairUsdtRont.sol\":3105:3114  _reserve1 */\n      dup5\n        /* \"GoWorkspace/github.com/hdlabs-ro/sc_base/us-contracts/PairUsdtRont.sol\":3094:3114  balance1 - _reserve1 */\n      0xffffffffffffffffffffffffffff\n      and\n        /* \"GoWorkspace/github.com/hdlabs-ro/sc_base/us-contracts/PairUsdtRont.sol\":3094:3102  balance1 */\n      dup4\n        /* \"GoWorkspace/github.com/hdlabs-ro/sc_base/us-contracts/PairUsdtRont.sol\":3094:3114  balance1 - _reserve1 */\n      tag_215\n      swap2\n      swap1\n      tag_163\n      jump\t// in\n    tag_215:\n        /* \"GoWorkspace/github.com/hdlabs-ro/sc_base/us-contracts/PairUsdtRont.sol\":3076:3114  uint256 amount1 = balance1 - _reserve1 */\n      swap1\n      pop\n        /* \"GoWorkspace/github.com/hdlabs-ro/sc_base/us-contracts/PairUsdtRont.sol\":3125:3135  bool feeOn */\n      0x00\n        /* \"GoWorkspace/github.com/hdlabs-ro/sc_base/us-contracts/PairUsdtRont.sol\":3138:3168  _mintFee(_reserve0, _reserve1) */\n      tag_216\n        /* \"GoWorkspace/github.com/hdlabs-ro/sc_base/us-contracts/PairUsdtRont.sol\":3147:3156  _reserve0 */\n      dup8\n        /* \"GoWorkspace/github.com/hdlabs-ro/sc_base/us-contracts/PairUsdtRont.sol\":3158:3167  _reserve1 */\n      dup8\n        /* \"GoWorkspace/github.com/hdlabs-ro/sc_base/us-contracts/PairUsdtRont.sol\":3138:3146  _mintFee */\n      tag_217\n        /* \"GoWorkspace/github.com/hdlabs-ro/sc_base/us-contracts/PairUsdtRont.sol\":3138:3168  _mintFee(_reserve0, _reserve1) */\n      jump\t// in\n    tag_216:\n        /* \"GoWorkspace/github.com/hdlabs-ro/sc_base/us-contracts/PairUsdtRont.sol\":3125:3168  bool feeOn = _mintFee(_reserve0, _reserve1) */\n      swap1\n      pop\n        /* \"GoWorkspace/github.com/hdlabs-ro/sc_base/us-contracts/PairUsdtRont.sol\":3178:3198  uint256 _totalSupply */\n      0x00\n        /* \"GoWorkspace/github.com/hdlabs-ro/sc_base/us-contracts/PairUsdtRont.sol\":3201:3212  totalSupply */\n      sload(0x03)\n        /* \"GoWorkspace/github.com/hdlabs-ro/sc_base/us-contracts/PairUsdtRont.sol\":3178:3212  uint256 _totalSupply = totalSupply */\n      swap1\n      pop\n        /* \"GoWorkspace/github.com/hdlabs-ro/sc_base/us-contracts/PairUsdtRont.sol\":3320:3321  0 */\n      0x00\n        /* \"GoWorkspace/github.com/hdlabs-ro/sc_base/us-contracts/PairUsdtRont.sol\":3304:3316  _totalSupply */\n      dup2\n        /* \"GoWorkspace/github.com/hdlabs-ro/sc_base/us-contracts/PairUsdtRont.sol\":3304:3321  _totalSupply == 0 */\n      sub\n        /* \"GoWorkspace/github.com/hdlabs-ro/sc_base/us-contracts/PairUsdtRont.sol\":3300:3676  if (_totalSupply == 0) {... */\n      tag_218\n      jumpi\n        /* \"GoWorkspace/github.com/hdlabs-ro/sc_base/us-contracts/PairUsdtRont.sol\":1047:1048  1 */\n      0x01\n        /* \"GoWorkspace/github.com/hdlabs-ro/sc_base/us-contracts/PairUsdtRont.sol\":3349:3372  sqrt(amount0 * amount1) */\n      tag_219\n        /* \"GoWorkspace/github.com/hdlabs-ro/sc_base/us-contracts/PairUsdtRont.sol\":3364:3371  amount1 */\n      dup5\n        /* \"GoWorkspace/github.com/hdlabs-ro/sc_base/us-contracts/PairUsdtRont.sol\":3354:3361  amount0 */\n      dup7\n        /* \"GoWorkspace/github.com/hdlabs-ro/sc_base/us-contracts/PairUsdtRont.sol\":3354:3371  amount0 * amount1 */\n      tag_220\n      swap2\n      swap1\n      tag_178\n      jump\t// in\n    tag_220:\n        /* \"GoWorkspace/github.com/hdlabs-ro/sc_base/us-contracts/PairUsdtRont.sol\":3349:3353  sqrt */\n      tag_221\n        /* \"GoWorkspace/github.com/hdlabs-ro/sc_base/us-contracts/PairUsdtRont.sol\":3349:3372  sqrt(amount0 * amount1) */\n      jump\t// in\n    tag_219:\n        /* \"GoWorkspace/github.com/hdlabs-ro/sc_base/us-contracts/PairUsdtRont.sol\":3349:3392  sqrt(amount0 * amount1) - MINIMUM_LIQUIDITY */\n      tag_222\n      swap2\n      swap1\n      tag_163\n      jump\t// in\n    tag_222:\n        /* \"GoWorkspace/github.com/hdlabs-ro/sc_base/us-contracts/PairUsdtRont.sol\":3337:3392  liquidity = sqrt(amount0 * amount1) - MINIMUM_LIQUIDITY */\n      swap9\n      pop\n        /* \"GoWorkspace/github.com/hdlabs-ro/sc_base/us-contracts/PairUsdtRont.sol\":3406:3442  _mint(address(0), MINIMUM_LIQUIDITY) */\n      tag_223\n        /* \"GoWorkspace/github.com/hdlabs-ro/sc_base/us-contracts/PairUsdtRont.sol\":3420:3421  0 */\n      0x00\n        /* \"GoWorkspace/github.com/hdlabs-ro/sc_base/us-contracts/PairUsdtRont.sol\":1047:1048  1 */\n      0x01\n        /* \"GoWorkspace/github.com/hdlabs-ro/sc_base/us-contracts/PairUsdtRont.sol\":3406:3411  _mint */\n      tag_224\n        /* \"GoWorkspace/github.com/hdlabs-ro/sc_base/us-contracts/PairUsdtRont.sol\":3406:3442  _mint(address(0), MINIMUM_LIQUIDITY) */\n      jump\t// in\n    tag_223:\n        /* \"GoWorkspace/github.com/hdlabs-ro/sc_base/us-contracts/PairUsdtRont.sol\":3300:3676  if (_totalSupply == 0) {... */\n      jump(tag_225)\n    tag_218:\n        /* \"GoWorkspace/github.com/hdlabs-ro/sc_base/us-contracts/PairUsdtRont.sol\":3540:3665  min(... */\n      tag_226\n        /* \"GoWorkspace/github.com/hdlabs-ro/sc_base/us-contracts/PairUsdtRont.sol\":3588:3597  _reserve0 */\n      dup9\n        /* \"GoWorkspace/github.com/hdlabs-ro/sc_base/us-contracts/PairUsdtRont.sol\":3561:3597  (amount0 * _totalSupply) / _reserve0 */\n      0xffffffffffffffffffffffffffff\n      and\n        /* \"GoWorkspace/github.com/hdlabs-ro/sc_base/us-contracts/PairUsdtRont.sol\":3572:3584  _totalSupply */\n      dup3\n        /* \"GoWorkspace/github.com/hdlabs-ro/sc_base/us-contracts/PairUsdtRont.sol\":3562:3569  amount0 */\n      dup7\n        /* \"GoWorkspace/github.com/hdlabs-ro/sc_base/us-contracts/PairUsdtRont.sol\":3562:3584  amount0 * _totalSupply */\n      tag_227\n      swap2\n      swap1\n      tag_178\n      jump\t// in\n    tag_227:\n        /* \"GoWorkspace/github.com/hdlabs-ro/sc_base/us-contracts/PairUsdtRont.sol\":3561:3597  (amount0 * _totalSupply) / _reserve0 */\n      tag_228\n      swap2\n      swap1\n      tag_229\n      jump\t// in\n    tag_228:\n        /* \"GoWorkspace/github.com/hdlabs-ro/sc_base/us-contracts/PairUsdtRont.sol\":3642:3651  _reserve1 */\n      dup9\n        /* \"GoWorkspace/github.com/hdlabs-ro/sc_base/us-contracts/PairUsdtRont.sol\":3615:3651  (amount1 * _totalSupply) / _reserve1 */\n      0xffffffffffffffffffffffffffff\n      and\n        /* \"GoWorkspace/github.com/hdlabs-ro/sc_base/us-contracts/PairUsdtRont.sol\":3626:3638  _totalSupply */\n      dup4\n        /* \"GoWorkspace/github.com/hdlabs-ro/sc_base/us-contracts/PairUsdtRont.sol\":3616:3623  amount1 */\n      dup7\n        /* \"GoWorkspace/github.com/hdlabs-ro/sc_base/us-contracts/PairUsdtRont.sol\":3616:3638  amount1 * _totalSupply */\n      tag_230\n      swap2\n      swap1\n      tag_178\n      jump\t// in\n    tag_230:\n        /* \"GoWorkspace/github.com/hdlabs-ro/sc_base/us-contracts/PairUsdtRont.sol\":3615:3651  (amount1 * _totalSupply) / _reserve1 */\n      tag_231\n      swap2\n      swap1\n      tag_229\n      jump\t// in\n    tag_231:\n        /* \"GoWorkspace/github.com/hdlabs-ro/sc_base/us-contracts/PairUsdtRont.sol\":3540:3543  min */\n      tag_232\n        /* \"GoWorkspace/github.com/hdlabs-ro/sc_base/us-contracts/PairUsdtRont.sol\":3540:3665  min(... */\n      jump\t// in\n    tag_226:\n        /* \"GoWorkspace/github.com/hdlabs-ro/sc_base/us-contracts/PairUsdtRont.sol\":3528:3665  liquidity = min(... */\n      swap9\n      pop\n        /* \"GoWorkspace/github.com/hdlabs-ro/sc_base/us-contracts/PairUsdtRont.sol\":3300:3676  if (_totalSupply == 0) {... */\n    tag_225:\n        /* \"GoWorkspace/github.com/hdlabs-ro/sc_base/us-contracts/PairUsdtRont.sol\":3705:3706  0 */\n      0x00\n        /* \"GoWorkspace/github.com/hdlabs-ro/sc_base/us-contracts/PairUsdtRont.sol\":3693:3702  liquidity */\n      dup10\n        /* \"GoWorkspace/github.com/hdlabs-ro/sc_base/us-contracts/PairUsdtRont.sol\":3693:3706  liquidity > 0 */\n      gt\n        /* \"GoWorkspace/github.com/hdlabs-ro/sc_base/us-contracts/PairUsdtRont.sol\":3685:3754  require(liquidity > 0, \"PairUsdtRont: INSUFFICIENT_LIQUIDITY_MINTED\") */\n      tag_233\n      jumpi\n      mload(0x40)\n      0x08c379a000000000000000000000000000000000000000000000000000000000\n      dup2\n      mstore\n      0x04\n      add\n      tag_234\n      swap1\n      tag_235\n      jump\t// in\n    tag_234:\n      mload(0x40)\n      dup1\n      swap2\n      sub\n      swap1\n      revert\n    tag_233:\n        /* \"GoWorkspace/github.com/hdlabs-ro/sc_base/us-contracts/PairUsdtRont.sol\":3764:3784  _mint(to, liquidity) */\n      tag_236\n        /* \"GoWorkspace/github.com/hdlabs-ro/sc_base/us-contracts/PairUsdtRont.sol\":3770:3772  to */\n      dup11\n        /* \"GoWorkspace/github.com/hdlabs-ro/sc_base/us-contracts/PairUsdtRont.sol\":3774:3783  liquidity */\n      dup11\n        /* \"GoWorkspace/github.com/hdlabs-ro/sc_base/us-contracts/PairUsdtRont.sol\":3764:3769  _mint */\n      tag_224\n        /* \"GoWorkspace/github.com/hdlabs-ro/sc_base/us-contracts/PairUsdtRont.sol\":3764:3784  _mint(to, liquidity) */\n      jump\t// in\n    tag_236:\n        /* \"GoWorkspace/github.com/hdlabs-ro/sc_base/us-contracts/PairUsdtRont.sol\":3795:3844  _update(balance0, balance1, _reserve0, _reserve1) */\n      tag_237\n        /* \"GoWorkspace/github.com/hdlabs-ro/sc_base/us-contracts/PairUsdtRont.sol\":3803:3811  balance0 */\n      dup7\n        /* \"GoWorkspace/github.com/hdlabs-ro/sc_base/us-contracts/PairUsdtRont.sol\":3813:3821  balance1 */\n      dup7\n        /* \"GoWorkspace/github.com/hdlabs-ro/sc_base/us-contracts/PairUsdtRont.sol\":3823:3832  _reserve0 */\n      dup11\n        /* \"GoWorkspace/github.com/hdlabs-ro/sc_base/us-contracts/PairUsdtRont.sol\":3834:3843  _reserve1 */\n      dup11\n        /* \"GoWorkspace/github.com/hdlabs-ro/sc_base/us-contracts/PairUsdtRont.sol\":3795:3802  _update */\n      tag_191\n        /* \"GoWorkspace/github.com/hdlabs-ro/sc_base/us-contracts/PairUsdtRont.sol\":3795:3844  _update(balance0, balance1, _reserve0, _reserve1) */\n      jump\t// in\n    tag_237:\n        /* \"GoWorkspace/github.com/hdlabs-ro/sc_base/us-contracts/PairUsdtRont.sol\":3858:3863  feeOn */\n      dup2\n        /* \"GoWorkspace/github.com/hdlabs-ro/sc_base/us-contracts/PairUsdtRont.sol\":3854:3901  if (feeOn) kLast = uint256(reserve0) * reserve1 */\n      iszero\n      tag_238\n      jumpi\n        /* \"GoWorkspace/github.com/hdlabs-ro/sc_base/us-contracts/PairUsdtRont.sol\":3893:3901  reserve1 */\n      0x08\n      0x0e\n      swap1\n      sload\n      swap1\n      0x0100\n      exp\n      swap1\n      div\n      0xffffffffffffffffffffffffffff\n      and\n        /* \"GoWorkspace/github.com/hdlabs-ro/sc_base/us-contracts/PairUsdtRont.sol\":3873:3901  uint256(reserve0) * reserve1 */\n      0xffffffffffffffffffffffffffff\n      and\n        /* \"GoWorkspace/github.com/hdlabs-ro/sc_base/us-contracts/PairUsdtRont.sol\":3881:3889  reserve0 */\n      0x08\n      0x00\n      swap1\n      sload\n      swap1\n      0x0100\n      exp\n      swap1\n      div\n      0xffffffffffffffffffffffffffff\n      and\n        /* \"GoWorkspace/github.com/hdlabs-ro/sc_base/us-contracts/PairUsdtRont.sol\":3873:3890  uint256(reserve0) */\n      0xffffffffffffffffffffffffffff\n      and\n        /* \"GoWorkspace/github.com/hdlabs-ro/sc_base/us-contracts/PairUsdtRont.sol\":3873:3901  uint256(reserve0) * reserve1 */\n      tag_239\n      swap2\n      swap1\n      tag_178\n      jump\t// in\n    tag_239:\n        /* \"GoWorkspace/github.com/hdlabs-ro/sc_base/us-contracts/PairUsdtRont.sol\":3865:3870  kLast */\n      0x0b\n        /* \"GoWorkspace/github.com/hdlabs-ro/sc_base/us-contracts/PairUsdtRont.sol\":3865:3901  kLast = uint256(reserve0) * reserve1 */\n      dup2\n      swap1\n      sstore\n      pop\n        /* \"GoWorkspace/github.com/hdlabs-ro/sc_base/us-contracts/PairUsdtRont.sol\":3854:3901  if (feeOn) kLast = uint256(reserve0) * reserve1 */\n    tag_238:\n        /* \"GoWorkspace/github.com/hdlabs-ro/sc_base/us-contracts/PairUsdtRont.sol\":2805:3948  {... */\n      pop\n      pop\n      pop\n      pop\n      pop\n      pop\n      pop\n      pop\n        /* \"GoWorkspace/github.com/hdlabs-ro/sc_base/us-contracts/PairUsdtRont.sol\":1774:1775  1 */\n      0x01\n        /* \"GoWorkspace/github.com/hdlabs-ro/sc_base/us-contracts/PairUsdtRont.sol\":1763:1771  unlocked */\n      0x0c\n        /* \"GoWorkspace/github.com/hdlabs-ro/sc_base/us-contracts/PairUsdtRont.sol\":1763:1775  unlocked = 1 */\n      dup2\n      swap1\n      sstore\n      pop\n        /* \"GoWorkspace/github.com/hdlabs-ro/sc_base/us-contracts/PairUsdtRont.sol\":2737:3948  function mint(address to) external lock returns (uint256 liquidity) {... */\n      swap2\n      swap1\n      pop\n      jump\t// out\n        /* \"GoWorkspace/github.com/hdlabs-ro/sc_base/us-contracts/PairUsdtRont.sol\":559:603  mapping(address => uint256) public balanceOf */\n    tag_87:\n      mstore(0x20, 0x04)\n      dup1\n      0x00\n      mstore\n      keccak256(0x00, 0x40)\n      0x00\n      swap2\n      pop\n      swap1\n      pop\n      sload\n      dup2\n      jump\t// out\n        /* \"GoWorkspace/github.com/hdlabs-ro/sc_base/us-contracts/PairUsdtRont.sol\":1507:1527  uint256 public kLast */\n    tag_90:\n      sload(0x0b)\n      dup2\n      jump\t// out\n        /* \"GoWorkspace/github.com/hdlabs-ro/sc_base/us-contracts/PairUsdtRont.sol\":942:983  mapping(address => uint256) public nonces */\n    tag_94:\n      mstore(0x20, 0x07)\n      dup1\n      0x00\n      mstore\n      keccak256(0x00, 0x40)\n      0x00\n      swap2\n      pop\n      swap1\n      pop\n      sload\n      dup2\n      jump\t// out\n        /* \"GoWorkspace/github.com/hdlabs-ro/sc_base/us-contracts/PairUsdtRont.sol\":4057:5460  function burn(address to)... */\n    tag_98:\n        /* \"GoWorkspace/github.com/hdlabs-ro/sc_base/us-contracts/PairUsdtRont.sol\":4130:4145  uint256 amount0 */\n      0x00\n        /* \"GoWorkspace/github.com/hdlabs-ro/sc_base/us-contracts/PairUsdtRont.sol\":4147:4162  uint256 amount1 */\n      dup1\n        /* \"GoWorkspace/github.com/hdlabs-ro/sc_base/us-contracts/PairUsdtRont.sol\":1694:1695  1 */\n      0x01\n        /* \"GoWorkspace/github.com/hdlabs-ro/sc_base/us-contracts/PairUsdtRont.sol\":1682:1690  unlocked */\n      sload(0x0c)\n        /* \"GoWorkspace/github.com/hdlabs-ro/sc_base/us-contracts/PairUsdtRont.sol\":1682:1695  unlocked == 1 */\n      eq\n        /* \"GoWorkspace/github.com/hdlabs-ro/sc_base/us-contracts/PairUsdtRont.sol\":1674:1720  require(unlocked == 1, \"PairUsdtRont: LOCKED\") */\n      tag_241\n      jumpi\n      mload(0x40)\n      0x08c379a000000000000000000000000000000000000000000000000000000000\n      dup2\n      mstore\n      0x04\n      add\n      tag_242\n      swap1\n      tag_131\n      jump\t// in\n    tag_242:\n      mload(0x40)\n      dup1\n      swap2\n      sub\n      swap1\n      revert\n    tag_241:\n        /* \"GoWorkspace/github.com/hdlabs-ro/sc_base/us-contracts/PairUsdtRont.sol\":1741:1742  0 */\n      0x00\n        /* \"GoWorkspace/github.com/hdlabs-ro/sc_base/us-contracts/PairUsdtRont.sol\":1730:1738  unlocked */\n      0x0c\n        /* \"GoWorkspace/github.com/hdlabs-ro/sc_base/us-contracts/PairUsdtRont.sol\":1730:1742  unlocked = 0 */\n      dup2\n      swap1\n      sstore\n      pop\n        /* \"GoWorkspace/github.com/hdlabs-ro/sc_base/us-contracts/PairUsdtRont.sol\":4179:4196  uint112 _reserve0 */\n      0x00\n        /* \"GoWorkspace/github.com/hdlabs-ro/sc_base/us-contracts/PairUsdtRont.sol\":4198:4215  uint112 _reserve1 */\n      dup1\n        /* \"GoWorkspace/github.com/hdlabs-ro/sc_base/us-contracts/PairUsdtRont.sol\":4221:4234  getReserves() */\n      tag_244\n        /* \"GoWorkspace/github.com/hdlabs-ro/sc_base/us-contracts/PairUsdtRont.sol\":4221:4232  getReserves */\n      tag_41\n        /* \"GoWorkspace/github.com/hdlabs-ro/sc_base/us-contracts/PairUsdtRont.sol\":4221:4234  getReserves() */\n      jump\t// in\n    tag_244:\n        /* \"GoWorkspace/github.com/hdlabs-ro/sc_base/us-contracts/PairUsdtRont.sol\":4178:4234  (uint112 _reserve0, uint112 _reserve1, ) = getReserves() */\n      pop\n      swap2\n      pop\n      swap2\n      pop\n        /* \"GoWorkspace/github.com/hdlabs-ro/sc_base/us-contracts/PairUsdtRont.sol\":4259:4274  address _token0 */\n      0x00\n        /* \"GoWorkspace/github.com/hdlabs-ro/sc_base/us-contracts/PairUsdtRont.sol\":4277:4283  token0 */\n      0x01\n      0x00\n      swap1\n      sload\n      swap1\n      0x0100\n      exp\n      swap1\n      div\n      0xffffffffffffffffffffffffffffffffffffffff\n      and\n        /* \"GoWorkspace/github.com/hdlabs-ro/sc_base/us-contracts/PairUsdtRont.sol\":4259:4283  address _token0 = token0 */\n      swap1\n      pop\n        /* \"GoWorkspace/github.com/hdlabs-ro/sc_base/us-contracts/PairUsdtRont.sol\":4308:4323  address _token1 */\n      0x00\n        /* \"GoWorkspace/github.com/hdlabs-ro/sc_base/us-contracts/PairUsdtRont.sol\":4326:4332  token1 */\n      0x02\n      0x00\n      swap1\n      sload\n      swap1\n      0x0100\n      exp\n      swap1\n      div\n      0xffffffffffffffffffffffffffffffffffffffff\n      and\n        /* \"GoWorkspace/github.com/hdlabs-ro/sc_base/us-contracts/PairUsdtRont.sol\":4308:4332  address _token1 = token1 */\n      swap1\n      pop\n        /* \"GoWorkspace/github.com/hdlabs-ro/sc_base/us-contracts/PairUsdtRont.sol\":4357:4373  uint256 balance0 */\n      0x00\n        /* \"GoWorkspace/github.com/hdlabs-ro/sc_base/us-contracts/PairUsdtRont.sol\":4381:4388  _token0 */\n      dup3\n        /* \"GoWorkspace/github.com/hdlabs-ro/sc_base/us-contracts/PairUsdtRont.sol\":4376:4399  IERC(_token0).balanceOf */\n      0xffffffffffffffffffffffffffffffffffffffff\n      and\n      0x70a08231\n        /* \"GoWorkspace/github.com/hdlabs-ro/sc_base/us-contracts/PairUsdtRont.sol\":4408:4412  this */\n      address\n        /* \"GoWorkspace/github.com/hdlabs-ro/sc_base/us-contracts/PairUsdtRont.sol\":4376:4414  IERC(_token0).balanceOf(address(this)) */\n      mload(0x40)\n      dup3\n      0xffffffff\n      and\n      0xe0\n      shl\n      dup2\n      mstore\n      0x04\n      add\n      tag_245\n      swap2\n      swap1\n      tag_53\n      jump\t// in\n    tag_245:\n      0x20\n      mload(0x40)\n      dup1\n      dup4\n      sub\n      dup2\n      dup7\n      gas\n      staticcall\n      iszero\n      dup1\n      iszero\n      tag_247\n      jumpi\n      returndatasize\n      0x00\n      dup1\n      returndatacopy\n      revert(0x00, returndatasize)\n    tag_247:\n      pop\n      pop\n      pop\n      pop\n      mload(0x40)\n      returndatasize\n      not(0x1f)\n      0x1f\n      dup3\n      add\n      and\n      dup3\n      add\n      dup1\n      0x40\n      mstore\n      pop\n      dup2\n      add\n      swap1\n      tag_248\n      swap2\n      swap1\n      tag_157\n      jump\t// in\n    tag_248:\n        /* \"GoWorkspace/github.com/hdlabs-ro/sc_base/us-contracts/PairUsdtRont.sol\":4357:4414  uint256 balance0 = IERC(_token0).balanceOf(address(this)) */\n      swap1\n      pop\n        /* \"GoWorkspace/github.com/hdlabs-ro/sc_base/us-contracts/PairUsdtRont.sol\":4424:4440  uint256 balance1 */\n      0x00\n        /* \"GoWorkspace/github.com/hdlabs-ro/sc_base/us-contracts/PairUsdtRont.sol\":4448:4455  _token1 */\n      dup3\n        /* \"GoWorkspace/github.com/hdlabs-ro/sc_base/us-contracts/PairUsdtRont.sol\":4443:4466  IERC(_token1).balanceOf */\n      0xffffffffffffffffffffffffffffffffffffffff\n      and\n      0x70a08231\n        /* \"GoWorkspace/github.com/hdlabs-ro/sc_base/us-contracts/PairUsdtRont.sol\":4475:4479  this */\n      address\n        /* \"GoWorkspace/github.com/hdlabs-ro/sc_base/us-contracts/PairUsdtRont.sol\":4443:4481  IERC(_token1).balanceOf(address(this)) */\n      mload(0x40)\n      dup3\n      0xffffffff\n      and\n      0xe0\n      shl\n      dup2\n      mstore\n      0x04\n      add\n      tag_249\n      swap2\n      swap1\n      tag_53\n      jump\t// in\n    tag_249:\n      0x20\n      mload(0x40)\n      dup1\n      dup4\n      sub\n      dup2\n      dup7\n      gas\n      staticcall\n      iszero\n      dup1\n      iszero\n      tag_251\n      jumpi\n      returndatasize\n      0x00\n      dup1\n      returndatacopy\n      revert(0x00, returndatasize)\n    tag_251:\n      pop\n      pop\n      pop\n      pop\n      mload(0x40)\n      returndatasize\n      not(0x1f)\n      0x1f\n      dup3\n      add\n      and\n      dup3\n      add\n      dup1\n      0x40\n      mstore\n      pop\n      dup2\n      add\n      swap1\n      tag_252\n      swap2\n      swap1\n      tag_157\n      jump\t// in\n    tag_252:\n        /* \"GoWorkspace/github.com/hdlabs-ro/sc_base/us-contracts/PairUsdtRont.sol\":4424:4481  uint256 balance1 = IERC(_token1).balanceOf(address(this)) */\n      swap1\n      pop\n        /* \"GoWorkspace/github.com/hdlabs-ro/sc_base/us-contracts/PairUsdtRont.sol\":4491:4508  uint256 liquidity */\n      0x00\n        /* \"GoWorkspace/github.com/hdlabs-ro/sc_base/us-contracts/PairUsdtRont.sol\":4511:4520  balanceOf */\n      0x04\n        /* \"GoWorkspace/github.com/hdlabs-ro/sc_base/us-contracts/PairUsdtRont.sol\":4511:4535  balanceOf[address(this)] */\n      0x00\n        /* \"GoWorkspace/github.com/hdlabs-ro/sc_base/us-contracts/PairUsdtRont.sol\":4529:4533  this */\n      address\n        /* \"GoWorkspace/github.com/hdlabs-ro/sc_base/us-contracts/PairUsdtRont.sol\":4511:4535  balanceOf[address(this)] */\n      0xffffffffffffffffffffffffffffffffffffffff\n      and\n      0xffffffffffffffffffffffffffffffffffffffff\n      and\n      dup2\n      mstore\n      0x20\n      add\n      swap1\n      dup2\n      mstore\n      0x20\n      add\n      0x00\n      keccak256\n      sload\n        /* \"GoWorkspace/github.com/hdlabs-ro/sc_base/us-contracts/PairUsdtRont.sol\":4491:4535  uint256 liquidity = balanceOf[address(this)] */\n      swap1\n      pop\n        /* \"GoWorkspace/github.com/hdlabs-ro/sc_base/us-contracts/PairUsdtRont.sol\":4546:4556  bool feeOn */\n      0x00\n        /* \"GoWorkspace/github.com/hdlabs-ro/sc_base/us-contracts/PairUsdtRont.sol\":4559:4589  _mintFee(_reserve0, _reserve1) */\n      tag_253\n        /* \"GoWorkspace/github.com/hdlabs-ro/sc_base/us-contracts/PairUsdtRont.sol\":4568:4577  _reserve0 */\n      dup9\n        /* \"GoWorkspace/github.com/hdlabs-ro/sc_base/us-contracts/PairUsdtRont.sol\":4579:4588  _reserve1 */\n      dup9\n        /* \"GoWorkspace/github.com/hdlabs-ro/sc_base/us-contracts/PairUsdtRont.sol\":4559:4567  _mintFee */\n      tag_217\n        /* \"GoWorkspace/github.com/hdlabs-ro/sc_base/us-contracts/PairUsdtRont.sol\":4559:4589  _mintFee(_reserve0, _reserve1) */\n      jump\t// in\n    tag_253:\n        /* \"GoWorkspace/github.com/hdlabs-ro/sc_base/us-contracts/PairUsdtRont.sol\":4546:4589  bool feeOn = _mintFee(_reserve0, _reserve1) */\n      swap1\n      pop\n        /* \"GoWorkspace/github.com/hdlabs-ro/sc_base/us-contracts/PairUsdtRont.sol\":4599:4619  uint256 _totalSupply */\n      0x00\n        /* \"GoWorkspace/github.com/hdlabs-ro/sc_base/us-contracts/PairUsdtRont.sol\":4622:4633  totalSupply */\n      sload(0x03)\n        /* \"GoWorkspace/github.com/hdlabs-ro/sc_base/us-contracts/PairUsdtRont.sol\":4599:4633  uint256 _totalSupply = totalSupply */\n      swap1\n      pop\n        /* \"GoWorkspace/github.com/hdlabs-ro/sc_base/us-contracts/PairUsdtRont.sol\":4756:4768  _totalSupply */\n      dup1\n        /* \"GoWorkspace/github.com/hdlabs-ro/sc_base/us-contracts/PairUsdtRont.sol\":4744:4752  balance0 */\n      dup6\n        /* \"GoWorkspace/github.com/hdlabs-ro/sc_base/us-contracts/PairUsdtRont.sol\":4732:4741  liquidity */\n      dup5\n        /* \"GoWorkspace/github.com/hdlabs-ro/sc_base/us-contracts/PairUsdtRont.sol\":4732:4752  liquidity * balance0 */\n      tag_254\n      swap2\n      swap1\n      tag_178\n      jump\t// in\n    tag_254:\n        /* \"GoWorkspace/github.com/hdlabs-ro/sc_base/us-contracts/PairUsdtRont.sol\":4731:4768  (liquidity * balance0) / _totalSupply */\n      tag_255\n      swap2\n      swap1\n      tag_229\n      jump\t// in\n    tag_255:\n        /* \"GoWorkspace/github.com/hdlabs-ro/sc_base/us-contracts/PairUsdtRont.sol\":4721:4768  amount0 = (liquidity * balance0) / _totalSupply */\n      swap11\n      pop\n        /* \"GoWorkspace/github.com/hdlabs-ro/sc_base/us-contracts/PairUsdtRont.sol\":4861:4873  _totalSupply */\n      dup1\n        /* \"GoWorkspace/github.com/hdlabs-ro/sc_base/us-contracts/PairUsdtRont.sol\":4849:4857  balance1 */\n      dup5\n        /* \"GoWorkspace/github.com/hdlabs-ro/sc_base/us-contracts/PairUsdtRont.sol\":4837:4846  liquidity */\n      dup5\n        /* \"GoWorkspace/github.com/hdlabs-ro/sc_base/us-contracts/PairUsdtRont.sol\":4837:4857  liquidity * balance1 */\n      tag_256\n      swap2\n      swap1\n      tag_178\n      jump\t// in\n    tag_256:\n        /* \"GoWorkspace/github.com/hdlabs-ro/sc_base/us-contracts/PairUsdtRont.sol\":4836:4873  (liquidity * balance1) / _totalSupply */\n      tag_257\n      swap2\n      swap1\n      tag_229\n      jump\t// in\n    tag_257:\n        /* \"GoWorkspace/github.com/hdlabs-ro/sc_base/us-contracts/PairUsdtRont.sol\":4826:4873  amount1 = (liquidity * balance1) / _totalSupply */\n      swap10\n      pop\n        /* \"GoWorkspace/github.com/hdlabs-ro/sc_base/us-contracts/PairUsdtRont.sol\":4962:4963  0 */\n      0x00\n        /* \"GoWorkspace/github.com/hdlabs-ro/sc_base/us-contracts/PairUsdtRont.sol\":4952:4959  amount0 */\n      dup12\n        /* \"GoWorkspace/github.com/hdlabs-ro/sc_base/us-contracts/PairUsdtRont.sol\":4952:4963  amount0 > 0 */\n      gt\n        /* \"GoWorkspace/github.com/hdlabs-ro/sc_base/us-contracts/PairUsdtRont.sol\":4952:4978  amount0 > 0 && amount1 > 0 */\n      dup1\n      iszero\n      tag_258\n      jumpi\n      pop\n        /* \"GoWorkspace/github.com/hdlabs-ro/sc_base/us-contracts/PairUsdtRont.sol\":4977:4978  0 */\n      0x00\n        /* \"GoWorkspace/github.com/hdlabs-ro/sc_base/us-contracts/PairUsdtRont.sol\":4967:4974  amount1 */\n      dup11\n        /* \"GoWorkspace/github.com/hdlabs-ro/sc_base/us-contracts/PairUsdtRont.sol\":4967:4978  amount1 > 0 */\n      gt\n        /* \"GoWorkspace/github.com/hdlabs-ro/sc_base/us-contracts/PairUsdtRont.sol\":4952:4978  amount0 > 0 && amount1 > 0 */\n    tag_258:\n        /* \"GoWorkspace/github.com/hdlabs-ro/sc_base/us-contracts/PairUsdtRont.sol\":4931:5047  require(... */\n      tag_259\n      jumpi\n      mload(0x40)\n      0x08c379a000000000000000000000000000000000000000000000000000000000\n      dup2\n      mstore\n      0x04\n      add\n      tag_260\n      swap1\n      tag_261\n      jump\t// in\n    tag_260:\n      mload(0x40)\n      dup1\n      swap2\n      sub\n      swap1\n      revert\n    tag_259:\n        /* \"GoWorkspace/github.com/hdlabs-ro/sc_base/us-contracts/PairUsdtRont.sol\":5057:5088  _burn(address(this), liquidity) */\n      tag_262\n        /* \"GoWorkspace/github.com/hdlabs-ro/sc_base/us-contracts/PairUsdtRont.sol\":5071:5075  this */\n      address\n        /* \"GoWorkspace/github.com/hdlabs-ro/sc_base/us-contracts/PairUsdtRont.sol\":5078:5087  liquidity */\n      dup5\n        /* \"GoWorkspace/github.com/hdlabs-ro/sc_base/us-contracts/PairUsdtRont.sol\":5057:5062  _burn */\n      tag_263\n        /* \"GoWorkspace/github.com/hdlabs-ro/sc_base/us-contracts/PairUsdtRont.sol\":5057:5088  _burn(address(this), liquidity) */\n      jump\t// in\n    tag_262:\n        /* \"GoWorkspace/github.com/hdlabs-ro/sc_base/us-contracts/PairUsdtRont.sol\":5098:5133  _safeTransfer(_token0, to, amount0) */\n      tag_264\n        /* \"GoWorkspace/github.com/hdlabs-ro/sc_base/us-contracts/PairUsdtRont.sol\":5112:5119  _token0 */\n      dup8\n        /* \"GoWorkspace/github.com/hdlabs-ro/sc_base/us-contracts/PairUsdtRont.sol\":5121:5123  to */\n      dup14\n        /* \"GoWorkspace/github.com/hdlabs-ro/sc_base/us-contracts/PairUsdtRont.sol\":5125:5132  amount0 */\n      dup14\n        /* \"GoWorkspace/github.com/hdlabs-ro/sc_base/us-contracts/PairUsdtRont.sol\":5098:5111  _safeTransfer */\n      tag_150\n        /* \"GoWorkspace/github.com/hdlabs-ro/sc_base/us-contracts/PairUsdtRont.sol\":5098:5133  _safeTransfer(_token0, to, amount0) */\n      jump\t// in\n    tag_264:\n        /* \"GoWorkspace/github.com/hdlabs-ro/sc_base/us-contracts/PairUsdtRont.sol\":5143:5178  _safeTransfer(_token1, to, amount1) */\n      tag_265\n        /* \"GoWorkspace/github.com/hdlabs-ro/sc_base/us-contracts/PairUsdtRont.sol\":5157:5164  _token1 */\n      dup7\n        /* \"GoWorkspace/github.com/hdlabs-ro/sc_base/us-contracts/PairUsdtRont.sol\":5166:5168  to */\n      dup14\n        /* \"GoWorkspace/github.com/hdlabs-ro/sc_base/us-contracts/PairUsdtRont.sol\":5170:5177  amount1 */\n      dup13\n        /* \"GoWorkspace/github.com/hdlabs-ro/sc_base/us-contracts/PairUsdtRont.sol\":5143:5156  _safeTransfer */\n      tag_150\n        /* \"GoWorkspace/github.com/hdlabs-ro/sc_base/us-contracts/PairUsdtRont.sol\":5143:5178  _safeTransfer(_token1, to, amount1) */\n      jump\t// in\n    tag_265:\n        /* \"GoWorkspace/github.com/hdlabs-ro/sc_base/us-contracts/PairUsdtRont.sol\":5204:5211  _token0 */\n      dup7\n        /* \"GoWorkspace/github.com/hdlabs-ro/sc_base/us-contracts/PairUsdtRont.sol\":5199:5222  IERC(_token0).balanceOf */\n      0xffffffffffffffffffffffffffffffffffffffff\n      and\n      0x70a08231\n        /* \"GoWorkspace/github.com/hdlabs-ro/sc_base/us-contracts/PairUsdtRont.sol\":5231:5235  this */\n      address\n        /* \"GoWorkspace/github.com/hdlabs-ro/sc_base/us-contracts/PairUsdtRont.sol\":5199:5237  IERC(_token0).balanceOf(address(this)) */\n      mload(0x40)\n      dup3\n      0xffffffff\n      and\n      0xe0\n      shl\n      dup2\n      mstore\n      0x04\n      add\n      tag_266\n      swap2\n      swap1\n      tag_53\n      jump\t// in\n    tag_266:\n      0x20\n      mload(0x40)\n      dup1\n      dup4\n      sub\n      dup2\n      dup7\n      gas\n      staticcall\n      iszero\n      dup1\n      iszero\n      tag_268\n      jumpi\n      returndatasize\n      0x00\n      dup1\n      returndatacopy\n      revert(0x00, returndatasize)\n    tag_268:\n      pop\n      pop\n      pop\n      pop\n      mload(0x40)\n      returndatasize\n      not(0x1f)\n      0x1f\n      dup3\n      add\n      and\n      dup3\n      add\n      dup1\n      0x40\n      mstore\n      pop\n      dup2\n      add\n      swap1\n      tag_269\n      swap2\n      swap1\n      tag_157\n      jump\t// in\n    tag_269:\n        /* \"GoWorkspace/github.com/hdlabs-ro/sc_base/us-contracts/PairUsdtRont.sol\":5188:5237  balance0 = IERC(_token0).balanceOf(address(this)) */\n      swap5\n      pop\n        /* \"GoWorkspace/github.com/hdlabs-ro/sc_base/us-contracts/PairUsdtRont.sol\":5263:5270  _token1 */\n      dup6\n        /* \"GoWorkspace/github.com/hdlabs-ro/sc_base/us-contracts/PairUsdtRont.sol\":5258:5281  IERC(_token1).balanceOf */\n      0xffffffffffffffffffffffffffffffffffffffff\n      and\n      0x70a08231\n        /* \"GoWorkspace/github.com/hdlabs-ro/sc_base/us-contracts/PairUsdtRont.sol\":5290:5294  this */\n      address\n        /* \"GoWorkspace/github.com/hdlabs-ro/sc_base/us-contracts/PairUsdtRont.sol\":5258:5296  IERC(_token1).balanceOf(address(this)) */\n      mload(0x40)\n      dup3\n      0xffffffff\n      and\n      0xe0\n      shl\n      dup2\n      mstore\n      0x04\n      add\n      tag_270\n      swap2\n      swap1\n      tag_53\n      jump\t// in\n    tag_270:\n      0x20\n      mload(0x40)\n      dup1\n      dup4\n      sub\n      dup2\n      dup7\n      gas\n      staticcall\n      iszero\n      dup1\n      iszero\n      tag_272\n      jumpi\n      returndatasize\n      0x00\n      dup1\n      returndatacopy\n      revert(0x00, returndatasize)\n    tag_272:\n      pop\n      pop\n      pop\n      pop\n      mload(0x40)\n      returndatasize\n      not(0x1f)\n      0x1f\n      dup3\n      add\n      and\n      dup3\n      add\n      dup1\n      0x40\n      mstore\n      pop\n      dup2\n      add\n      swap1\n      tag_273\n      swap2\n      swap1\n      tag_157\n      jump\t// in\n    tag_273:\n        /* \"GoWorkspace/github.com/hdlabs-ro/sc_base/us-contracts/PairUsdtRont.sol\":5247:5296  balance1 = IERC(_token1).balanceOf(address(this)) */\n      swap4\n      pop\n        /* \"GoWorkspace/github.com/hdlabs-ro/sc_base/us-contracts/PairUsdtRont.sol\":5307:5356  _update(balance0, balance1, _reserve0, _reserve1) */\n      tag_274\n        /* \"GoWorkspace/github.com/hdlabs-ro/sc_base/us-contracts/PairUsdtRont.sol\":5315:5323  balance0 */\n      dup6\n        /* \"GoWorkspace/github.com/hdlabs-ro/sc_base/us-contracts/PairUsdtRont.sol\":5325:5333  balance1 */\n      dup6\n        /* \"GoWorkspace/github.com/hdlabs-ro/sc_base/us-contracts/PairUsdtRont.sol\":5335:5344  _reserve0 */\n      dup12\n        /* \"GoWorkspace/github.com/hdlabs-ro/sc_base/us-contracts/PairUsdtRont.sol\":5346:5355  _reserve1 */\n      dup12\n        /* \"GoWorkspace/github.com/hdlabs-ro/sc_base/us-contracts/PairUsdtRont.sol\":5307:5314  _update */\n      tag_191\n        /* \"GoWorkspace/github.com/hdlabs-ro/sc_base/us-contracts/PairUsdtRont.sol\":5307:5356  _update(balance0, balance1, _reserve0, _reserve1) */\n      jump\t// in\n    tag_274:\n        /* \"GoWorkspace/github.com/hdlabs-ro/sc_base/us-contracts/PairUsdtRont.sol\":5370:5375  feeOn */\n      dup2\n        /* \"GoWorkspace/github.com/hdlabs-ro/sc_base/us-contracts/PairUsdtRont.sol\":5366:5413  if (feeOn) kLast = uint256(reserve0) * reserve1 */\n      iszero\n      tag_275\n      jumpi\n        /* \"GoWorkspace/github.com/hdlabs-ro/sc_base/us-contracts/PairUsdtRont.sol\":5405:5413  reserve1 */\n      0x08\n      0x0e\n      swap1\n      sload\n      swap1\n      0x0100\n      exp\n      swap1\n      div\n      0xffffffffffffffffffffffffffff\n      and\n        /* \"GoWorkspace/github.com/hdlabs-ro/sc_base/us-contracts/PairUsdtRont.sol\":5385:5413  uint256(reserve0) * reserve1 */\n      0xffffffffffffffffffffffffffff\n      and\n        /* \"GoWorkspace/github.com/hdlabs-ro/sc_base/us-contracts/PairUsdtRont.sol\":5393:5401  reserve0 */\n      0x08\n      0x00\n      swap1\n      sload\n      swap1\n      0x0100\n      exp\n      swap1\n      div\n      0xffffffffffffffffffffffffffff\n      and\n        /* \"GoWorkspace/github.com/hdlabs-ro/sc_base/us-contracts/PairUsdtRont.sol\":5385:5402  uint256(reserve0) */\n      0xffffffffffffffffffffffffffff\n      and\n        /* \"GoWorkspace/github.com/hdlabs-ro/sc_base/us-contracts/PairUsdtRont.sol\":5385:5413  uint256(reserve0) * reserve1 */\n      tag_276\n      swap2\n      swap1\n      tag_178\n      jump\t// in\n    tag_276:\n        /* \"GoWorkspace/github.com/hdlabs-ro/sc_base/us-contracts/PairUsdtRont.sol\":5377:5382  kLast */\n      0x0b\n        /* \"GoWorkspace/github.com/hdlabs-ro/sc_base/us-contracts/PairUsdtRont.sol\":5377:5413  kLast = uint256(reserve0) * reserve1 */\n      dup2\n      swap1\n      sstore\n      pop\n        /* \"GoWorkspace/github.com/hdlabs-ro/sc_base/us-contracts/PairUsdtRont.sol\":5366:5413  if (feeOn) kLast = uint256(reserve0) * reserve1 */\n    tag_275:\n        /* \"GoWorkspace/github.com/hdlabs-ro/sc_base/us-contracts/PairUsdtRont.sol\":4168:5460  {... */\n      pop\n      pop\n      pop\n      pop\n      pop\n      pop\n      pop\n      pop\n      pop\n        /* \"GoWorkspace/github.com/hdlabs-ro/sc_base/us-contracts/PairUsdtRont.sol\":1774:1775  1 */\n      0x01\n        /* \"GoWorkspace/github.com/hdlabs-ro/sc_base/us-contracts/PairUsdtRont.sol\":1763:1771  unlocked */\n      0x0c\n        /* \"GoWorkspace/github.com/hdlabs-ro/sc_base/us-contracts/PairUsdtRont.sol\":1763:1775  unlocked = 1 */\n      dup2\n      swap1\n      sstore\n      pop\n        /* \"GoWorkspace/github.com/hdlabs-ro/sc_base/us-contracts/PairUsdtRont.sol\":4057:5460  function burn(address to)... */\n      swap2\n      pop\n      swap2\n      jump\t// out\n        /* \"GoWorkspace/github.com/hdlabs-ro/sc_base/us-contracts/PairUsdtRont.sol\":436:480  string public constant symbol = \"ERC UNI-V2\" */\n    tag_102:\n      mload(0x40)\n      dup1\n      0x40\n      add\n      0x40\n      mstore\n      dup1\n      0x0a\n      dup2\n      mstore\n      0x20\n      add\n      0x45524320554e492d563200000000000000000000000000000000000000000000\n      dup2\n      mstore\n      pop\n      dup2\n      jump\t// out\n        /* \"GoWorkspace/github.com/hdlabs-ro/sc_base/us-contracts/PairUsdtRont.sol\":11420:11559  function transfer(address to, uint256 value) external returns (bool) {... */\n    tag_106:\n        /* \"GoWorkspace/github.com/hdlabs-ro/sc_base/us-contracts/PairUsdtRont.sol\":11483:11487  bool */\n      0x00\n        /* \"GoWorkspace/github.com/hdlabs-ro/sc_base/us-contracts/PairUsdtRont.sol\":11499:11531  _transfer(msg.sender, to, value) */\n      tag_278\n        /* \"GoWorkspace/github.com/hdlabs-ro/sc_base/us-contracts/PairUsdtRont.sol\":11509:11519  msg.sender */\n      caller\n        /* \"GoWorkspace/github.com/hdlabs-ro/sc_base/us-contracts/PairUsdtRont.sol\":11521:11523  to */\n      dup5\n        /* \"GoWorkspace/github.com/hdlabs-ro/sc_base/us-contracts/PairUsdtRont.sol\":11525:11530  value */\n      dup5\n        /* \"GoWorkspace/github.com/hdlabs-ro/sc_base/us-contracts/PairUsdtRont.sol\":11499:11508  _transfer */\n      tag_200\n        /* \"GoWorkspace/github.com/hdlabs-ro/sc_base/us-contracts/PairUsdtRont.sol\":11499:11531  _transfer(msg.sender, to, value) */\n      jump\t// in\n    tag_278:\n        /* \"GoWorkspace/github.com/hdlabs-ro/sc_base/us-contracts/PairUsdtRont.sol\":11548:11552  true */\n      0x01\n        /* \"GoWorkspace/github.com/hdlabs-ro/sc_base/us-contracts/PairUsdtRont.sol\":11541:11552  return true */\n      swap1\n      pop\n        /* \"GoWorkspace/github.com/hdlabs-ro/sc_base/us-contracts/PairUsdtRont.sol\":11420:11559  function transfer(address to, uint256 value) external returns (bool) {... */\n      swap3\n      swap2\n      pop\n      pop\n      jump\t// out\n        /* \"GoWorkspace/github.com/hdlabs-ro/sc_base/us-contracts/PairUsdtRont.sol\":1003:1048  uint256 public constant MINIMUM_LIQUIDITY = 1 */\n    tag_109:\n        /* \"GoWorkspace/github.com/hdlabs-ro/sc_base/us-contracts/PairUsdtRont.sol\":1047:1048  1 */\n      0x01\n        /* \"GoWorkspace/github.com/hdlabs-ro/sc_base/us-contracts/PairUsdtRont.sol\":1003:1048  uint256 public constant MINIMUM_LIQUIDITY = 1 */\n      dup2\n      jump\t// out\n        /* \"GoWorkspace/github.com/hdlabs-ro/sc_base/us-contracts/PairUsdtRont.sol\":7740:8151  function skim(address to) external lock {... */\n    tag_113:\n        /* \"GoWorkspace/github.com/hdlabs-ro/sc_base/us-contracts/PairUsdtRont.sol\":1694:1695  1 */\n      0x01\n        /* \"GoWorkspace/github.com/hdlabs-ro/sc_base/us-contracts/PairUsdtRont.sol\":1682:1690  unlocked */\n      sload(0x0c)\n        /* \"GoWorkspace/github.com/hdlabs-ro/sc_base/us-contracts/PairUsdtRont.sol\":1682:1695  unlocked == 1 */\n      eq\n        /* \"GoWorkspace/github.com/hdlabs-ro/sc_base/us-contracts/PairUsdtRont.sol\":1674:1720  require(unlocked == 1, \"PairUsdtRont: LOCKED\") */\n      tag_280\n      jumpi\n      mload(0x40)\n      0x08c379a000000000000000000000000000000000000000000000000000000000\n      dup2\n      mstore\n      0x04\n      add\n      tag_281\n      swap1\n      tag_131\n      jump\t// in\n    tag_281:\n      mload(0x40)\n      dup1\n      swap2\n      sub\n      swap1\n      revert\n    tag_280:\n        /* \"GoWorkspace/github.com/hdlabs-ro/sc_base/us-contracts/PairUsdtRont.sol\":1741:1742  0 */\n      0x00\n        /* \"GoWorkspace/github.com/hdlabs-ro/sc_base/us-contracts/PairUsdtRont.sol\":1730:1738  unlocked */\n      0x0c\n        /* \"GoWorkspace/github.com/hdlabs-ro/sc_base/us-contracts/PairUsdtRont.sol\":1730:1742  unlocked = 0 */\n      dup2\n      swap1\n      sstore\n      pop\n        /* \"GoWorkspace/github.com/hdlabs-ro/sc_base/us-contracts/PairUsdtRont.sol\":7790:7805  address _token0 */\n      0x00\n        /* \"GoWorkspace/github.com/hdlabs-ro/sc_base/us-contracts/PairUsdtRont.sol\":7808:7814  token0 */\n      0x01\n      0x00\n      swap1\n      sload\n      swap1\n      0x0100\n      exp\n      swap1\n      div\n      0xffffffffffffffffffffffffffffffffffffffff\n      and\n        /* \"GoWorkspace/github.com/hdlabs-ro/sc_base/us-contracts/PairUsdtRont.sol\":7790:7814  address _token0 = token0 */\n      swap1\n      pop\n        /* \"GoWorkspace/github.com/hdlabs-ro/sc_base/us-contracts/PairUsdtRont.sol\":7839:7854  address _token1 */\n      0x00\n        /* \"GoWorkspace/github.com/hdlabs-ro/sc_base/us-contracts/PairUsdtRont.sol\":7857:7863  token1 */\n      0x02\n      0x00\n      swap1\n      sload\n      swap1\n      0x0100\n      exp\n      swap1\n      div\n      0xffffffffffffffffffffffffffffffffffffffff\n      and\n        /* \"GoWorkspace/github.com/hdlabs-ro/sc_base/us-contracts/PairUsdtRont.sol\":7839:7863  address _token1 = token1 */\n      swap1\n      pop\n        /* \"GoWorkspace/github.com/hdlabs-ro/sc_base/us-contracts/PairUsdtRont.sol\":7888:8011  _safeTransfer(... */\n      tag_283\n        /* \"GoWorkspace/github.com/hdlabs-ro/sc_base/us-contracts/PairUsdtRont.sol\":7915:7922  _token0 */\n      dup3\n        /* \"GoWorkspace/github.com/hdlabs-ro/sc_base/us-contracts/PairUsdtRont.sol\":7936:7938  to */\n      dup5\n        /* \"GoWorkspace/github.com/hdlabs-ro/sc_base/us-contracts/PairUsdtRont.sol\":7993:8001  reserve0 */\n      0x08\n      0x00\n      swap1\n      sload\n      swap1\n      0x0100\n      exp\n      swap1\n      div\n      0xffffffffffffffffffffffffffff\n      and\n        /* \"GoWorkspace/github.com/hdlabs-ro/sc_base/us-contracts/PairUsdtRont.sol\":7952:8001  IERC(_token0).balanceOf(address(this)) - reserve0 */\n      0xffffffffffffffffffffffffffff\n      and\n        /* \"GoWorkspace/github.com/hdlabs-ro/sc_base/us-contracts/PairUsdtRont.sol\":7957:7964  _token0 */\n      dup6\n        /* \"GoWorkspace/github.com/hdlabs-ro/sc_base/us-contracts/PairUsdtRont.sol\":7952:7975  IERC(_token0).balanceOf */\n      0xffffffffffffffffffffffffffffffffffffffff\n      and\n      0x70a08231\n        /* \"GoWorkspace/github.com/hdlabs-ro/sc_base/us-contracts/PairUsdtRont.sol\":7984:7988  this */\n      address\n        /* \"GoWorkspace/github.com/hdlabs-ro/sc_base/us-contracts/PairUsdtRont.sol\":7952:7990  IERC(_token0).balanceOf(address(this)) */\n      mload(0x40)\n      dup3\n      0xffffffff\n      and\n      0xe0\n      shl\n      dup2\n      mstore\n      0x04\n      add\n      tag_284\n      swap2\n      swap1\n      tag_53\n      jump\t// in\n    tag_284:\n      0x20\n      mload(0x40)\n      dup1\n      dup4\n      sub\n      dup2\n      dup7\n      gas\n      staticcall\n      iszero\n      dup1\n      iszero\n      tag_286\n      jumpi\n      returndatasize\n      0x00\n      dup1\n      returndatacopy\n      revert(0x00, returndatasize)\n    tag_286:\n      pop\n      pop\n      pop\n      pop\n      mload(0x40)\n      returndatasize\n      not(0x1f)\n      0x1f\n      dup3\n      add\n      and\n      dup3\n      add\n      dup1\n      0x40\n      mstore\n      pop\n      dup2\n      add\n      swap1\n      tag_287\n      swap2\n      swap1\n      tag_157\n      jump\t// in\n    tag_287:\n        /* \"GoWorkspace/github.com/hdlabs-ro/sc_base/us-contracts/PairUsdtRont.sol\":7952:8001  IERC(_token0).balanceOf(address(this)) - reserve0 */\n      tag_288\n      swap2\n      swap1\n      tag_163\n      jump\t// in\n    tag_288:\n        /* \"GoWorkspace/github.com/hdlabs-ro/sc_base/us-contracts/PairUsdtRont.sol\":7888:7901  _safeTransfer */\n      tag_150\n        /* \"GoWorkspace/github.com/hdlabs-ro/sc_base/us-contracts/PairUsdtRont.sol\":7888:8011  _safeTransfer(... */\n      jump\t// in\n    tag_283:\n        /* \"GoWorkspace/github.com/hdlabs-ro/sc_base/us-contracts/PairUsdtRont.sol\":8021:8144  _safeTransfer(... */\n      tag_289\n        /* \"GoWorkspace/github.com/hdlabs-ro/sc_base/us-contracts/PairUsdtRont.sol\":8048:8055  _token1 */\n      dup2\n        /* \"GoWorkspace/github.com/hdlabs-ro/sc_base/us-contracts/PairUsdtRont.sol\":8069:8071  to */\n      dup5\n        /* \"GoWorkspace/github.com/hdlabs-ro/sc_base/us-contracts/PairUsdtRont.sol\":8126:8134  reserve1 */\n      0x08\n      0x0e\n      swap1\n      sload\n      swap1\n      0x0100\n      exp\n      swap1\n      div\n      0xffffffffffffffffffffffffffff\n      and\n        /* \"GoWorkspace/github.com/hdlabs-ro/sc_base/us-contracts/PairUsdtRont.sol\":8085:8134  IERC(_token1).balanceOf(address(this)) - reserve1 */\n      0xffffffffffffffffffffffffffff\n      and\n        /* \"GoWorkspace/github.com/hdlabs-ro/sc_base/us-contracts/PairUsdtRont.sol\":8090:8097  _token1 */\n      dup5\n        /* \"GoWorkspace/github.com/hdlabs-ro/sc_base/us-contracts/PairUsdtRont.sol\":8085:8108  IERC(_token1).balanceOf */\n      0xffffffffffffffffffffffffffffffffffffffff\n      and\n      0x70a08231\n        /* \"GoWorkspace/github.com/hdlabs-ro/sc_base/us-contracts/PairUsdtRont.sol\":8117:8121  this */\n      address\n        /* \"GoWorkspace/github.com/hdlabs-ro/sc_base/us-contracts/PairUsdtRont.sol\":8085:8123  IERC(_token1).balanceOf(address(this)) */\n      mload(0x40)\n      dup3\n      0xffffffff\n      and\n      0xe0\n      shl\n      dup2\n      mstore\n      0x04\n      add\n      tag_290\n      swap2\n      swap1\n      tag_53\n      jump\t// in\n    tag_290:\n      0x20\n      mload(0x40)\n      dup1\n      dup4\n      sub\n      dup2\n      dup7\n      gas\n      staticcall\n      iszero\n      dup1\n      iszero\n      tag_292\n      jumpi\n      returndatasize\n      0x00\n      dup1\n      returndatacopy\n      revert(0x00, returndatasize)\n    tag_292:\n      pop\n      pop\n      pop\n      pop\n      mload(0x40)\n      returndatasize\n      not(0x1f)\n      0x1f\n      dup3\n      add\n      and\n      dup3\n      add\n      dup1\n      0x40\n      mstore\n      pop\n      dup2\n      add\n      swap1\n      tag_293\n      swap2\n      swap1\n      tag_157\n      jump\t// in\n    tag_293:\n        /* \"GoWorkspace/github.com/hdlabs-ro/sc_base/us-contracts/PairUsdtRont.sol\":8085:8134  IERC(_token1).balanceOf(address(this)) - reserve1 */\n      tag_294\n      swap2\n      swap1\n      tag_163\n      jump\t// in\n    tag_294:\n        /* \"GoWorkspace/github.com/hdlabs-ro/sc_base/us-contracts/PairUsdtRont.sol\":8021:8034  _safeTransfer */\n      tag_150\n        /* \"GoWorkspace/github.com/hdlabs-ro/sc_base/us-contracts/PairUsdtRont.sol\":8021:8144  _safeTransfer(... */\n      jump\t// in\n    tag_289:\n        /* \"GoWorkspace/github.com/hdlabs-ro/sc_base/us-contracts/PairUsdtRont.sol\":7780:8151  {... */\n      pop\n      pop\n        /* \"GoWorkspace/github.com/hdlabs-ro/sc_base/us-contracts/PairUsdtRont.sol\":1774:1775  1 */\n      0x01\n        /* \"GoWorkspace/github.com/hdlabs-ro/sc_base/us-contracts/PairUsdtRont.sol\":1763:1771  unlocked */\n      0x0c\n        /* \"GoWorkspace/github.com/hdlabs-ro/sc_base/us-contracts/PairUsdtRont.sol\":1763:1775  unlocked = 1 */\n      dup2\n      swap1\n      sstore\n      pop\n        /* \"GoWorkspace/github.com/hdlabs-ro/sc_base/us-contracts/PairUsdtRont.sol\":7740:8151  function skim(address to) external lock {... */\n      pop\n      jump\t// out\n        /* \"GoWorkspace/github.com/hdlabs-ro/sc_base/us-contracts/PairUsdtRont.sol\":295:361  address public token1 = 0xD1F9C3397ea04D3dE7F002cB9e63cb49d0DEAA36 */\n    tag_115:\n      0x02\n      0x00\n      swap1\n      sload\n      swap1\n      0x0100\n      exp\n      swap1\n      div\n      0xffffffffffffffffffffffffffffffffffffffff\n      and\n      dup2\n      jump\t// out\n        /* \"GoWorkspace/github.com/hdlabs-ro/sc_base/us-contracts/PairUsdtRont.sol\":11922:12890  function permit(... */\n    tag_120:\n        /* \"GoWorkspace/github.com/hdlabs-ro/sc_base/us-contracts/PairUsdtRont.sol\":12135:12150  block.timestamp */\n      timestamp\n        /* \"GoWorkspace/github.com/hdlabs-ro/sc_base/us-contracts/PairUsdtRont.sol\":12123:12131  deadline */\n      dup5\n        /* \"GoWorkspace/github.com/hdlabs-ro/sc_base/us-contracts/PairUsdtRont.sol\":12123:12150  deadline >= block.timestamp */\n      lt\n      iszero\n        /* \"GoWorkspace/github.com/hdlabs-ro/sc_base/us-contracts/PairUsdtRont.sol\":12115:12173  require(deadline >= block.timestamp, \"UniswapV2: EXPIRED\") */\n      tag_296\n      jumpi\n      mload(0x40)\n      0x08c379a000000000000000000000000000000000000000000000000000000000\n      dup2\n      mstore\n      0x04\n      add\n      tag_297\n      swap1\n      tag_298\n      jump\t// in\n    tag_297:\n      mload(0x40)\n      dup1\n      swap2\n      sub\n      swap1\n      revert\n    tag_296:\n        /* \"GoWorkspace/github.com/hdlabs-ro/sc_base/us-contracts/PairUsdtRont.sol\":12183:12197  bytes32 digest */\n      0x00\n        /* \"GoWorkspace/github.com/hdlabs-ro/sc_base/us-contracts/PairUsdtRont.sol\":12285:12301  DOMAIN_SEPARATOR */\n      sload(0x06)\n        /* \"GoWorkspace/github.com/hdlabs-ro/sc_base/us-contracts/PairUsdtRont.sol\":870:936  0x6e71edae12b1b97f4d1f60370fef10105fa2faae0126114a169c64845d6126c9 */\n      0x6e71edae12b1b97f4d1f60370fef10105fa2faae0126114a169c64845d6126c9\n        /* \"GoWorkspace/github.com/hdlabs-ro/sc_base/us-contracts/PairUsdtRont.sol\":12386:12401  PERMIT_TYPEHASH */\n      0x00\n      shl\n        /* \"GoWorkspace/github.com/hdlabs-ro/sc_base/us-contracts/PairUsdtRont.sol\":12427:12432  owner */\n      dup10\n        /* \"GoWorkspace/github.com/hdlabs-ro/sc_base/us-contracts/PairUsdtRont.sol\":12458:12465  spender */\n      dup10\n        /* \"GoWorkspace/github.com/hdlabs-ro/sc_base/us-contracts/PairUsdtRont.sol\":12491:12496  value */\n      dup10\n        /* \"GoWorkspace/github.com/hdlabs-ro/sc_base/us-contracts/PairUsdtRont.sol\":12522:12528  nonces */\n      0x07\n        /* \"GoWorkspace/github.com/hdlabs-ro/sc_base/us-contracts/PairUsdtRont.sol\":12522:12535  nonces[owner] */\n      0x00\n        /* \"GoWorkspace/github.com/hdlabs-ro/sc_base/us-contracts/PairUsdtRont.sol\":12529:12534  owner */\n      dup15\n        /* \"GoWorkspace/github.com/hdlabs-ro/sc_base/us-contracts/PairUsdtRont.sol\":12522:12535  nonces[owner] */\n      0xffffffffffffffffffffffffffffffffffffffff\n      and\n      0xffffffffffffffffffffffffffffffffffffffff\n      and\n      dup2\n      mstore\n      0x20\n      add\n      swap1\n      dup2\n      mstore\n      0x20\n      add\n      0x00\n      keccak256\n      0x00\n        /* \"GoWorkspace/github.com/hdlabs-ro/sc_base/us-contracts/PairUsdtRont.sol\":12522:12537  nonces[owner]++ */\n      dup2\n      sload\n      dup1\n      swap3\n      swap2\n      swap1\n      tag_299\n      swap1\n      tag_300\n      jump\t// in\n    tag_299:\n      swap2\n      swap1\n      pop\n      sstore\n        /* \"GoWorkspace/github.com/hdlabs-ro/sc_base/us-contracts/PairUsdtRont.sol\":12563:12571  deadline */\n      dup11\n        /* \"GoWorkspace/github.com/hdlabs-ro/sc_base/us-contracts/PairUsdtRont.sol\":12350:12593  abi.encode(... */\n      add(0x20, mload(0x40))\n      tag_301\n      swap7\n      swap6\n      swap5\n      swap4\n      swap3\n      swap2\n      swap1\n      tag_302\n      jump\t// in\n    tag_301:\n      mload(0x40)\n      0x20\n      dup2\n      dup4\n      sub\n      sub\n      dup2\n      mstore\n      swap1\n      0x40\n      mstore\n        /* \"GoWorkspace/github.com/hdlabs-ro/sc_base/us-contracts/PairUsdtRont.sol\":12319:12611  keccak256(... */\n      dup1\n      mload\n      swap1\n      0x20\n      add\n      keccak256\n        /* \"GoWorkspace/github.com/hdlabs-ro/sc_base/us-contracts/PairUsdtRont.sol\":12223:12625  abi.encodePacked(... */\n      add(0x20, mload(0x40))\n      tag_303\n      swap3\n      swap2\n      swap1\n      tag_304\n      jump\t// in\n    tag_303:\n      mload(0x40)\n      0x20\n      dup2\n      dup4\n      sub\n      sub\n      dup2\n      mstore\n      swap1\n      0x40\n      mstore\n        /* \"GoWorkspace/github.com/hdlabs-ro/sc_base/us-contracts/PairUsdtRont.sol\":12200:12635  keccak256(... */\n      dup1\n      mload\n      swap1\n      0x20\n      add\n      keccak256\n        /* \"GoWorkspace/github.com/hdlabs-ro/sc_base/us-contracts/PairUsdtRont.sol\":12183:12635  bytes32 digest = keccak256(... */\n      swap1\n      pop\n        /* \"GoWorkspace/github.com/hdlabs-ro/sc_base/us-contracts/PairUsdtRont.sol\":12645:12669  address recoveredAddress */\n      0x00\n        /* \"GoWorkspace/github.com/hdlabs-ro/sc_base/us-contracts/PairUsdtRont.sol\":12672:12698  ecrecover(digest, v, r, s) */\n      0x01\n        /* \"GoWorkspace/github.com/hdlabs-ro/sc_base/us-contracts/PairUsdtRont.sol\":12682:12688  digest */\n      dup3\n        /* \"GoWorkspace/github.com/hdlabs-ro/sc_base/us-contracts/PairUsdtRont.sol\":12690:12691  v */\n      dup7\n        /* \"GoWorkspace/github.com/hdlabs-ro/sc_base/us-contracts/PairUsdtRont.sol\":12693:12694  r */\n      dup7\n        /* \"GoWorkspace/github.com/hdlabs-ro/sc_base/us-contracts/PairUsdtRont.sol\":12696:12697  s */\n      dup7\n        /* \"GoWorkspace/github.com/hdlabs-ro/sc_base/us-contracts/PairUsdtRont.sol\":12672:12698  ecrecover(digest, v, r, s) */\n      mload(0x40)\n      0x00\n      dup2\n      mstore\n      0x20\n      add\n      0x40\n      mstore\n      mload(0x40)\n      tag_305\n      swap5\n      swap4\n      swap3\n      swap2\n      swap1\n      tag_306\n      jump\t// in\n    tag_305:\n      0x20\n      mload(0x40)\n      0x20\n      dup2\n      sub\n      swap1\n      dup1\n      dup5\n      sub\n      swap1\n      dup6\n      gas\n      staticcall\n      iszero\n      dup1\n      iszero\n      tag_308\n      jumpi\n      returndatasize\n      0x00\n      dup1\n      returndatacopy\n      revert(0x00, returndatasize)\n    tag_308:\n      pop\n      pop\n      pop\n      mload(sub(mload(0x40), 0x20))\n        /* \"GoWorkspace/github.com/hdlabs-ro/sc_base/us-contracts/PairUsdtRont.sol\":12645:12698  address recoveredAddress = ecrecover(digest, v, r, s) */\n      swap1\n      pop\n        /* \"GoWorkspace/github.com/hdlabs-ro/sc_base/us-contracts/PairUsdtRont.sol\":12757:12758  0 */\n      0x00\n        /* \"GoWorkspace/github.com/hdlabs-ro/sc_base/us-contracts/PairUsdtRont.sol\":12729:12759  recoveredAddress != address(0) */\n      0xffffffffffffffffffffffffffffffffffffffff\n      and\n        /* \"GoWorkspace/github.com/hdlabs-ro/sc_base/us-contracts/PairUsdtRont.sol\":12729:12745  recoveredAddress */\n      dup2\n        /* \"GoWorkspace/github.com/hdlabs-ro/sc_base/us-contracts/PairUsdtRont.sol\":12729:12759  recoveredAddress != address(0) */\n      0xffffffffffffffffffffffffffffffffffffffff\n      and\n      eq\n      iszero\n        /* \"GoWorkspace/github.com/hdlabs-ro/sc_base/us-contracts/PairUsdtRont.sol\":12729:12788  recoveredAddress != address(0) && recoveredAddress == owner */\n      dup1\n      iszero\n      tag_309\n      jumpi\n      pop\n        /* \"GoWorkspace/github.com/hdlabs-ro/sc_base/us-contracts/PairUsdtRont.sol\":12783:12788  owner */\n      dup9\n        /* \"GoWorkspace/github.com/hdlabs-ro/sc_base/us-contracts/PairUsdtRont.sol\":12763:12788  recoveredAddress == owner */\n      0xffffffffffffffffffffffffffffffffffffffff\n      and\n        /* \"GoWorkspace/github.com/hdlabs-ro/sc_base/us-contracts/PairUsdtRont.sol\":12763:12779  recoveredAddress */\n      dup2\n        /* \"GoWorkspace/github.com/hdlabs-ro/sc_base/us-contracts/PairUsdtRont.sol\":12763:12788  recoveredAddress == owner */\n      0xffffffffffffffffffffffffffffffffffffffff\n      and\n      eq\n        /* \"GoWorkspace/github.com/hdlabs-ro/sc_base/us-contracts/PairUsdtRont.sol\":12729:12788  recoveredAddress != address(0) && recoveredAddress == owner */\n    tag_309:\n        /* \"GoWorkspace/github.com/hdlabs-ro/sc_base/us-contracts/PairUsdtRont.sol\":12708:12842  require(... */\n      tag_310\n      jumpi\n      mload(0x40)\n      0x08c379a000000000000000000000000000000000000000000000000000000000\n      dup2\n      mstore\n      0x04\n      add\n      tag_311\n      swap1\n      tag_312\n      jump\t// in\n    tag_311:\n      mload(0x40)\n      dup1\n      swap2\n      sub\n      swap1\n      revert\n    tag_310:\n        /* \"GoWorkspace/github.com/hdlabs-ro/sc_base/us-contracts/PairUsdtRont.sol\":12852:12883  _approve(owner, spender, value) */\n      tag_313\n        /* \"GoWorkspace/github.com/hdlabs-ro/sc_base/us-contracts/PairUsdtRont.sol\":12861:12866  owner */\n      dup10\n        /* \"GoWorkspace/github.com/hdlabs-ro/sc_base/us-contracts/PairUsdtRont.sol\":12868:12875  spender */\n      dup10\n        /* \"GoWorkspace/github.com/hdlabs-ro/sc_base/us-contracts/PairUsdtRont.sol\":12877:12882  value */\n      dup10\n        /* \"GoWorkspace/github.com/hdlabs-ro/sc_base/us-contracts/PairUsdtRont.sol\":12852:12860  _approve */\n      tag_195\n        /* \"GoWorkspace/github.com/hdlabs-ro/sc_base/us-contracts/PairUsdtRont.sol\":12852:12883  _approve(owner, spender, value) */\n      jump\t// in\n    tag_313:\n        /* \"GoWorkspace/github.com/hdlabs-ro/sc_base/us-contracts/PairUsdtRont.sol\":12105:12890  {... */\n      pop\n      pop\n        /* \"GoWorkspace/github.com/hdlabs-ro/sc_base/us-contracts/PairUsdtRont.sol\":11922:12890  function permit(... */\n      pop\n      pop\n      pop\n      pop\n      pop\n      pop\n      pop\n      jump\t// out\n        /* \"GoWorkspace/github.com/hdlabs-ro/sc_base/us-contracts/PairUsdtRont.sol\":609:673  mapping(address => mapping(address => uint256)) public allowance */\n    tag_124:\n      mstore(0x20, 0x05)\n      dup2\n      0x00\n      mstore\n      mstore(0x20, keccak256(0x00, 0x40))\n      dup1\n      0x00\n      mstore\n      keccak256(0x00, 0x40)\n      0x00\n      swap2\n      pop\n      swap2\n      pop\n      pop\n      sload\n      dup2\n      jump\t// out\n        /* \"GoWorkspace/github.com/hdlabs-ro/sc_base/us-contracts/PairUsdtRont.sol\":8197:8407  function sync() external lock {... */\n    tag_127:\n        /* \"GoWorkspace/github.com/hdlabs-ro/sc_base/us-contracts/PairUsdtRont.sol\":1694:1695  1 */\n      0x01\n        /* \"GoWorkspace/github.com/hdlabs-ro/sc_base/us-contracts/PairUsdtRont.sol\":1682:1690  unlocked */\n      sload(0x0c)\n        /* \"GoWorkspace/github.com/hdlabs-ro/sc_base/us-contracts/PairUsdtRont.sol\":1682:1695  unlocked == 1 */\n      eq\n        /* \"GoWorkspace/github.com/hdlabs-ro/sc_base/us-contracts/PairUsdtRont.sol\":1674:1720  require(unlocked == 1, \"PairUsdtRont: LOCKED\") */\n      tag_315\n      jumpi\n      mload(0x40)\n      0x08c379a000000000000000000000000000000000000000000000000000000000\n      dup2\n      mstore\n      0x04\n      add\n      tag_316\n      swap1\n      tag_131\n      jump\t// in\n    tag_316:\n      mload(0x40)\n      dup1\n      swap2\n      sub\n      swap1\n      revert\n    tag_315:\n        /* \"GoWorkspace/github.com/hdlabs-ro/sc_base/us-contracts/PairUsdtRont.sol\":1741:1742  0 */\n      0x00\n        /* \"GoWorkspace/github.com/hdlabs-ro/sc_base/us-contracts/PairUsdtRont.sol\":1730:1738  unlocked */\n      0x0c\n        /* \"GoWorkspace/github.com/hdlabs-ro/sc_base/us-contracts/PairUsdtRont.sol\":1730:1742  unlocked = 0 */\n      dup2\n      swap1\n      sstore\n      pop\n        /* \"GoWorkspace/github.com/hdlabs-ro/sc_base/us-contracts/PairUsdtRont.sol\":8237:8400  _update(... */\n      tag_318\n        /* \"GoWorkspace/github.com/hdlabs-ro/sc_base/us-contracts/PairUsdtRont.sol\":8263:8269  token0 */\n      0x01\n      0x00\n      swap1\n      sload\n      swap1\n      0x0100\n      exp\n      swap1\n      div\n      0xffffffffffffffffffffffffffffffffffffffff\n      and\n        /* \"GoWorkspace/github.com/hdlabs-ro/sc_base/us-contracts/PairUsdtRont.sol\":8258:8280  IERC(token0).balanceOf */\n      0xffffffffffffffffffffffffffffffffffffffff\n      and\n      0x70a08231\n        /* \"GoWorkspace/github.com/hdlabs-ro/sc_base/us-contracts/PairUsdtRont.sol\":8289:8293  this */\n      address\n        /* \"GoWorkspace/github.com/hdlabs-ro/sc_base/us-contracts/PairUsdtRont.sol\":8258:8295  IERC(token0).balanceOf(address(this)) */\n      mload(0x40)\n      dup3\n      0xffffffff\n      and\n      0xe0\n      shl\n      dup2\n      mstore\n      0x04\n      add\n      tag_319\n      swap2\n      swap1\n      tag_53\n      jump\t// in\n    tag_319:\n      0x20\n      mload(0x40)\n      dup1\n      dup4\n      sub\n      dup2\n      dup7\n      gas\n      staticcall\n      iszero\n      dup1\n      iszero\n      tag_321\n      jumpi\n      returndatasize\n      0x00\n      dup1\n      returndatacopy\n      revert(0x00, returndatasize)\n    tag_321:\n      pop\n      pop\n      pop\n      pop\n      mload(0x40)\n      returndatasize\n      not(0x1f)\n      0x1f\n      dup3\n      add\n      and\n      dup3\n      add\n      dup1\n      0x40\n      mstore\n      pop\n      dup2\n      add\n      swap1\n      tag_322\n      swap2\n      swap1\n      tag_157\n      jump\t// in\n    tag_322:\n        /* \"GoWorkspace/github.com/hdlabs-ro/sc_base/us-contracts/PairUsdtRont.sol\":8314:8320  token1 */\n      0x02\n      0x00\n      swap1\n      sload\n      swap1\n      0x0100\n      exp\n      swap1\n      div\n      0xffffffffffffffffffffffffffffffffffffffff\n      and\n        /* \"GoWorkspace/github.com/hdlabs-ro/sc_base/us-contracts/PairUsdtRont.sol\":8309:8331  IERC(token1).balanceOf */\n      0xffffffffffffffffffffffffffffffffffffffff\n      and\n      0x70a08231\n        /* \"GoWorkspace/github.com/hdlabs-ro/sc_base/us-contracts/PairUsdtRont.sol\":8340:8344  this */\n      address\n        /* \"GoWorkspace/github.com/hdlabs-ro/sc_base/us-contracts/PairUsdtRont.sol\":8309:8346  IERC(token1).balanceOf(address(this)) */\n      mload(0x40)\n      dup3\n      0xffffffff\n      and\n      0xe0\n      shl\n      dup2\n      mstore\n      0x04\n      add\n      tag_323\n      swap2\n      swap1\n      tag_53\n      jump\t// in\n    tag_323:\n      0x20\n      mload(0x40)\n      dup1\n      dup4\n      sub\n      dup2\n      dup7\n      gas\n      staticcall\n      iszero\n      dup1\n      iszero\n      tag_325\n      jumpi\n      returndatasize\n      0x00\n      dup1\n      returndatacopy\n      revert(0x00, returndatasize)\n    tag_325:\n      pop\n      pop\n      pop\n      pop\n      mload(0x40)\n      returndatasize\n      not(0x1f)\n      0x1f\n      dup3\n      add\n      and\n      dup3\n      add\n      dup1\n      0x40\n      mstore\n      pop\n      dup2\n      add\n      swap1\n      tag_326\n      swap2\n      swap1\n      tag_157\n      jump\t// in\n    tag_326:\n        /* \"GoWorkspace/github.com/hdlabs-ro/sc_base/us-contracts/PairUsdtRont.sol\":8360:8368  reserve0 */\n      0x08\n      0x00\n      swap1\n      sload\n      swap1\n      0x0100\n      exp\n      swap1\n      div\n      0xffffffffffffffffffffffffffff\n      and\n        /* \"GoWorkspace/github.com/hdlabs-ro/sc_base/us-contracts/PairUsdtRont.sol\":8382:8390  reserve1 */\n      0x08\n      0x0e\n      swap1\n      sload\n      swap1\n      0x0100\n      exp\n      swap1\n      div\n      0xffffffffffffffffffffffffffff\n      and\n        /* \"GoWorkspace/github.com/hdlabs-ro/sc_base/us-contracts/PairUsdtRont.sol\":8237:8244  _update */\n      tag_191\n        /* \"GoWorkspace/github.com/hdlabs-ro/sc_base/us-contracts/PairUsdtRont.sol\":8237:8400  _update(... */\n      jump\t// in\n    tag_318:\n        /* \"GoWorkspace/github.com/hdlabs-ro/sc_base/us-contracts/PairUsdtRont.sol\":1774:1775  1 */\n      0x01\n        /* \"GoWorkspace/github.com/hdlabs-ro/sc_base/us-contracts/PairUsdtRont.sol\":1763:1771  unlocked */\n      0x0c\n        /* \"GoWorkspace/github.com/hdlabs-ro/sc_base/us-contracts/PairUsdtRont.sol\":1763:1775  unlocked = 1 */\n      dup2\n      swap1\n      sstore\n      pop\n        /* \"GoWorkspace/github.com/hdlabs-ro/sc_base/us-contracts/PairUsdtRont.sol\":8197:8407  function sync() external lock {... */\n      jump\t// out\n        /* \"GoWorkspace/github.com/hdlabs-ro/sc_base/us-contracts/PairUsdtRont.sol\":8429:8805  function _safeTransfer(... */\n    tag_150:\n        /* \"GoWorkspace/github.com/hdlabs-ro/sc_base/us-contracts/PairUsdtRont.sol\":8543:8555  bool success */\n      0x00\n        /* \"GoWorkspace/github.com/hdlabs-ro/sc_base/us-contracts/PairUsdtRont.sol\":8557:8574  bytes memory data */\n      dup1\n        /* \"GoWorkspace/github.com/hdlabs-ro/sc_base/us-contracts/PairUsdtRont.sol\":8578:8583  token */\n      dup5\n        /* \"GoWorkspace/github.com/hdlabs-ro/sc_base/us-contracts/PairUsdtRont.sol\":8578:8588  token.call */\n      0xffffffffffffffffffffffffffffffffffffffff\n      and\n        /* \"GoWorkspace/github.com/hdlabs-ro/sc_base/us-contracts/PairUsdtRont.sol\":1114:1148  bytes(\"transfer(address,uint256)\") */\n      mload(0x40)\n      dup1\n      0x40\n      add\n      0x40\n      mstore\n      dup1\n      0x19\n      dup2\n      mstore\n      0x20\n      add\n      0x7472616e7366657228616464726573732c75696e743235362900000000000000\n      dup2\n      mstore\n      pop\n        /* \"GoWorkspace/github.com/hdlabs-ro/sc_base/us-contracts/PairUsdtRont.sol\":1104:1149  keccak256(bytes(\"transfer(address,uint256)\")) */\n      dup1\n      mload\n      swap1\n      0x20\n      add\n      keccak256\n        /* \"GoWorkspace/github.com/hdlabs-ro/sc_base/us-contracts/PairUsdtRont.sol\":8635:8637  to */\n      dup6\n        /* \"GoWorkspace/github.com/hdlabs-ro/sc_base/us-contracts/PairUsdtRont.sol\":8639:8644  value */\n      dup6\n        /* \"GoWorkspace/github.com/hdlabs-ro/sc_base/us-contracts/PairUsdtRont.sol\":8602:8645  abi.encodeWithSelector(SELECTOR, to, value) */\n      add(0x24, mload(0x40))\n      tag_328\n      swap3\n      swap2\n      swap1\n      tag_329\n      jump\t// in\n    tag_328:\n      mload(0x40)\n      0x20\n      dup2\n      dup4\n      sub\n      sub\n      dup2\n      mstore\n      swap1\n      0x40\n      mstore\n      swap1\n      not(0xffffffffffffffffffffffffffffffffffffffffffffffffffffffff)\n      and\n      0x20\n      dup3\n      add\n      dup1\n      mload\n      0xffffffffffffffffffffffffffffffffffffffffffffffffffffffff\n      dup4\n      dup2\n      dup4\n      and\n      or\n      dup4\n      mstore\n      pop\n      pop\n      pop\n      pop\n        /* \"GoWorkspace/github.com/hdlabs-ro/sc_base/us-contracts/PairUsdtRont.sol\":8578:8655  token.call(... */\n      mload(0x40)\n      tag_330\n      swap2\n      swap1\n      tag_331\n      jump\t// in\n    tag_330:\n      0x00\n      mload(0x40)\n      dup1\n      dup4\n      sub\n      dup2\n      0x00\n      dup7\n      gas\n      call\n      swap2\n      pop\n      pop\n      returndatasize\n      dup1\n      0x00\n      dup2\n      eq\n      tag_334\n      jumpi\n      mload(0x40)\n      swap2\n      pop\n      and(add(returndatasize, 0x3f), not(0x1f))\n      dup3\n      add\n      0x40\n      mstore\n      returndatasize\n      dup3\n      mstore\n      returndatasize\n      0x00\n      0x20\n      dup5\n      add\n      returndatacopy\n      jump(tag_333)\n    tag_334:\n      0x60\n      swap2\n      pop\n    tag_333:\n      pop\n        /* \"GoWorkspace/github.com/hdlabs-ro/sc_base/us-contracts/PairUsdtRont.sol\":8542:8655  (bool success, bytes memory data) = token.call(... */\n      swap2\n      pop\n      swap2\n      pop\n        /* \"GoWorkspace/github.com/hdlabs-ro/sc_base/us-contracts/PairUsdtRont.sol\":8686:8693  success */\n      dup2\n        /* \"GoWorkspace/github.com/hdlabs-ro/sc_base/us-contracts/PairUsdtRont.sol\":8686:8743  success && (data.length == 0 || abi.decode(data, (bool))) */\n      dup1\n      iszero\n      tag_335\n      jumpi\n      pop\n        /* \"GoWorkspace/github.com/hdlabs-ro/sc_base/us-contracts/PairUsdtRont.sol\":8713:8714  0 */\n      0x00\n        /* \"GoWorkspace/github.com/hdlabs-ro/sc_base/us-contracts/PairUsdtRont.sol\":8698:8702  data */\n      dup2\n        /* \"GoWorkspace/github.com/hdlabs-ro/sc_base/us-contracts/PairUsdtRont.sol\":8698:8709  data.length */\n      mload\n        /* \"GoWorkspace/github.com/hdlabs-ro/sc_base/us-contracts/PairUsdtRont.sol\":8698:8714  data.length == 0 */\n      eq\n        /* \"GoWorkspace/github.com/hdlabs-ro/sc_base/us-contracts/PairUsdtRont.sol\":8698:8742  data.length == 0 || abi.decode(data, (bool)) */\n      dup1\n      tag_336\n      jumpi\n      pop\n        /* \"GoWorkspace/github.com/hdlabs-ro/sc_base/us-contracts/PairUsdtRont.sol\":8729:8733  data */\n      dup1\n        /* \"GoWorkspace/github.com/hdlabs-ro/sc_base/us-contracts/PairUsdtRont.sol\":8718:8742  abi.decode(data, (bool)) */\n      dup1\n      0x20\n      add\n      swap1\n      mload\n      dup2\n      add\n      swap1\n      tag_337\n      swap2\n      swap1\n      tag_338\n      jump\t// in\n    tag_337:\n        /* \"GoWorkspace/github.com/hdlabs-ro/sc_base/us-contracts/PairUsdtRont.sol\":8698:8742  data.length == 0 || abi.decode(data, (bool)) */\n    tag_336:\n        /* \"GoWorkspace/github.com/hdlabs-ro/sc_base/us-contracts/PairUsdtRont.sol\":8686:8743  success && (data.length == 0 || abi.decode(data, (bool))) */\n    tag_335:\n        /* \"GoWorkspace/github.com/hdlabs-ro/sc_base/us-contracts/PairUsdtRont.sol\":8665:8798  require(... */\n      tag_339\n      jumpi\n      mload(0x40)\n      0x08c379a000000000000000000000000000000000000000000000000000000000\n      dup2\n      mstore\n      0x04\n      add\n      tag_340\n      swap1\n      tag_341\n      jump\t// in\n    tag_340:\n      mload(0x40)\n      dup1\n      swap2\n      sub\n      swap1\n      revert\n    tag_339:\n        /* \"GoWorkspace/github.com/hdlabs-ro/sc_base/us-contracts/PairUsdtRont.sol\":8532:8805  {... */\n      pop\n      pop\n        /* \"GoWorkspace/github.com/hdlabs-ro/sc_base/us-contracts/PairUsdtRont.sol\":8429:8805  function _safeTransfer(... */\n      pop\n      pop\n      pop\n      jump\t// out\n        /* \"GoWorkspace/github.com/hdlabs-ro/sc_base/us-contracts/PairUsdtRont.sol\":8887:9687  function _update(... */\n    tag_191:\n        /* \"GoWorkspace/github.com/hdlabs-ro/sc_base/us-contracts/PairUsdtRont.sol\":9034:9055  uint32 blockTimestamp */\n      0x00\n        /* \"GoWorkspace/github.com/hdlabs-ro/sc_base/us-contracts/PairUsdtRont.sol\":9083:9088  2**32 */\n      0x0100000000\n        /* \"GoWorkspace/github.com/hdlabs-ro/sc_base/us-contracts/PairUsdtRont.sol\":9065:9080  block.timestamp */\n      timestamp\n        /* \"GoWorkspace/github.com/hdlabs-ro/sc_base/us-contracts/PairUsdtRont.sol\":9065:9088  block.timestamp % 2**32 */\n      tag_343\n      swap2\n      swap1\n      tag_344\n      jump\t// in\n    tag_343:\n        /* \"GoWorkspace/github.com/hdlabs-ro/sc_base/us-contracts/PairUsdtRont.sol\":9034:9089  uint32 blockTimestamp = uint32(block.timestamp % 2**32) */\n      swap1\n      pop\n        /* \"GoWorkspace/github.com/hdlabs-ro/sc_base/us-contracts/PairUsdtRont.sol\":9099:9117  uint32 timeElapsed */\n      0x00\n        /* \"GoWorkspace/github.com/hdlabs-ro/sc_base/us-contracts/PairUsdtRont.sol\":9137:9155  blockTimestampLast */\n      0x08\n      0x1c\n      swap1\n      sload\n      swap1\n      0x0100\n      exp\n      swap1\n      div\n      0xffffffff\n      and\n        /* \"GoWorkspace/github.com/hdlabs-ro/sc_base/us-contracts/PairUsdtRont.sol\":9120:9134  blockTimestamp */\n      dup3\n        /* \"GoWorkspace/github.com/hdlabs-ro/sc_base/us-contracts/PairUsdtRont.sol\":9120:9155  blockTimestamp - blockTimestampLast */\n      tag_345\n      swap2\n      swap1\n      tag_346\n      jump\t// in\n    tag_345:\n        /* \"GoWorkspace/github.com/hdlabs-ro/sc_base/us-contracts/PairUsdtRont.sol\":9099:9155  uint32 timeElapsed = blockTimestamp - blockTimestampLast */\n      swap1\n      pop\n        /* \"GoWorkspace/github.com/hdlabs-ro/sc_base/us-contracts/PairUsdtRont.sol\":9206:9207  0 */\n      0x00\n        /* \"GoWorkspace/github.com/hdlabs-ro/sc_base/us-contracts/PairUsdtRont.sol\":9192:9203  timeElapsed */\n      dup2\n        /* \"GoWorkspace/github.com/hdlabs-ro/sc_base/us-contracts/PairUsdtRont.sol\":9192:9207  timeElapsed > 0 */\n      0xffffffff\n      and\n      gt\n        /* \"GoWorkspace/github.com/hdlabs-ro/sc_base/us-contracts/PairUsdtRont.sol\":9192:9225  timeElapsed > 0 && _reserve0 != 0 */\n      dup1\n      iszero\n      tag_347\n      jumpi\n      pop\n        /* \"GoWorkspace/github.com/hdlabs-ro/sc_base/us-contracts/PairUsdtRont.sol\":9224:9225  0 */\n      0x00\n        /* \"GoWorkspace/github.com/hdlabs-ro/sc_base/us-contracts/PairUsdtRont.sol\":9211:9220  _reserve0 */\n      dup5\n        /* \"GoWorkspace/github.com/hdlabs-ro/sc_base/us-contracts/PairUsdtRont.sol\":9211:9225  _reserve0 != 0 */\n      0xffffffffffffffffffffffffffff\n      and\n      eq\n      iszero\n        /* \"GoWorkspace/github.com/hdlabs-ro/sc_base/us-contracts/PairUsdtRont.sol\":9192:9225  timeElapsed > 0 && _reserve0 != 0 */\n    tag_347:\n        /* \"GoWorkspace/github.com/hdlabs-ro/sc_base/us-contracts/PairUsdtRont.sol\":9192:9243  timeElapsed > 0 && _reserve0 != 0 && _reserve1 != 0 */\n      dup1\n      iszero\n      tag_348\n      jumpi\n      pop\n        /* \"GoWorkspace/github.com/hdlabs-ro/sc_base/us-contracts/PairUsdtRont.sol\":9242:9243  0 */\n      0x00\n        /* \"GoWorkspace/github.com/hdlabs-ro/sc_base/us-contracts/PairUsdtRont.sol\":9229:9238  _reserve1 */\n      dup4\n        /* \"GoWorkspace/github.com/hdlabs-ro/sc_base/us-contracts/PairUsdtRont.sol\":9229:9243  _reserve1 != 0 */\n      0xffffffffffffffffffffffffffff\n      and\n      eq\n      iszero\n        /* \"GoWorkspace/github.com/hdlabs-ro/sc_base/us-contracts/PairUsdtRont.sol\":9192:9243  timeElapsed > 0 && _reserve0 != 0 && _reserve1 != 0 */\n    tag_348:\n        /* \"GoWorkspace/github.com/hdlabs-ro/sc_base/us-contracts/PairUsdtRont.sol\":9188:9560  if (timeElapsed > 0 && _reserve0 != 0 && _reserve1 != 0) {... */\n      iszero\n      tag_349\n      jumpi\n        /* \"GoWorkspace/github.com/hdlabs-ro/sc_base/us-contracts/PairUsdtRont.sol\":9416:9427  timeElapsed */\n      dup1\n        /* \"GoWorkspace/github.com/hdlabs-ro/sc_base/us-contracts/PairUsdtRont.sol\":9359:9427  uint256(encode(_reserve1) / _reserve0) *... */\n      0xffffffff\n      and\n        /* \"GoWorkspace/github.com/hdlabs-ro/sc_base/us-contracts/PairUsdtRont.sol\":9387:9396  _reserve0 */\n      dup5\n        /* \"GoWorkspace/github.com/hdlabs-ro/sc_base/us-contracts/PairUsdtRont.sol\":9367:9396  encode(_reserve1) / _reserve0 */\n      0xffffffffffffffffffffffffffff\n      and\n        /* \"GoWorkspace/github.com/hdlabs-ro/sc_base/us-contracts/PairUsdtRont.sol\":9367:9384  encode(_reserve1) */\n      tag_350\n        /* \"GoWorkspace/github.com/hdlabs-ro/sc_base/us-contracts/PairUsdtRont.sol\":9374:9383  _reserve1 */\n      dup6\n        /* \"GoWorkspace/github.com/hdlabs-ro/sc_base/us-contracts/PairUsdtRont.sol\":9367:9373  encode */\n      tag_351\n        /* \"GoWorkspace/github.com/hdlabs-ro/sc_base/us-contracts/PairUsdtRont.sol\":9367:9384  encode(_reserve1) */\n      jump\t// in\n    tag_350:\n        /* \"GoWorkspace/github.com/hdlabs-ro/sc_base/us-contracts/PairUsdtRont.sol\":9367:9396  encode(_reserve1) / _reserve0 */\n      tag_352\n      swap2\n      swap1\n      tag_353\n      jump\t// in\n    tag_352:\n        /* \"GoWorkspace/github.com/hdlabs-ro/sc_base/us-contracts/PairUsdtRont.sol\":9359:9397  uint256(encode(_reserve1) / _reserve0) */\n      0xffffffffffffffffffffffffffffffffffffffffffffffffffffffff\n      and\n        /* \"GoWorkspace/github.com/hdlabs-ro/sc_base/us-contracts/PairUsdtRont.sol\":9359:9427  uint256(encode(_reserve1) / _reserve0) *... */\n      tag_354\n      swap2\n      swap1\n      tag_178\n      jump\t// in\n    tag_354:\n        /* \"GoWorkspace/github.com/hdlabs-ro/sc_base/us-contracts/PairUsdtRont.sol\":9319:9339  price0CumulativeLast */\n      0x09\n      0x00\n        /* \"GoWorkspace/github.com/hdlabs-ro/sc_base/us-contracts/PairUsdtRont.sol\":9319:9427  price0CumulativeLast +=... */\n      dup3\n      dup3\n      sload\n      tag_355\n      swap2\n      swap1\n      tag_356\n      jump\t// in\n    tag_355:\n      swap3\n      pop\n      pop\n      dup2\n      swap1\n      sstore\n      pop\n        /* \"GoWorkspace/github.com/hdlabs-ro/sc_base/us-contracts/PairUsdtRont.sol\":9538:9549  timeElapsed */\n      dup1\n        /* \"GoWorkspace/github.com/hdlabs-ro/sc_base/us-contracts/PairUsdtRont.sol\":9481:9549  uint256(encode(_reserve0) / _reserve1) *... */\n      0xffffffff\n      and\n        /* \"GoWorkspace/github.com/hdlabs-ro/sc_base/us-contracts/PairUsdtRont.sol\":9509:9518  _reserve1 */\n      dup4\n        /* \"GoWorkspace/github.com/hdlabs-ro/sc_base/us-contracts/PairUsdtRont.sol\":9489:9518  encode(_reserve0) / _reserve1 */\n      0xffffffffffffffffffffffffffff\n      and\n        /* \"GoWorkspace/github.com/hdlabs-ro/sc_base/us-contracts/PairUsdtRont.sol\":9489:9506  encode(_reserve0) */\n      tag_357\n        /* \"GoWorkspace/github.com/hdlabs-ro/sc_base/us-contracts/PairUsdtRont.sol\":9496:9505  _reserve0 */\n      dup7\n        /* \"GoWorkspace/github.com/hdlabs-ro/sc_base/us-contracts/PairUsdtRont.sol\":9489:9495  encode */\n      tag_351\n        /* \"GoWorkspace/github.com/hdlabs-ro/sc_base/us-contracts/PairUsdtRont.sol\":9489:9506  encode(_reserve0) */\n      jump\t// in\n    tag_357:\n        /* \"GoWorkspace/github.com/hdlabs-ro/sc_base/us-contracts/PairUsdtRont.sol\":9489:9518  encode(_reserve0) / _reserve1 */\n      tag_358\n      swap2\n      swap1\n      tag_353\n      jump\t// in\n    tag_358:\n        /* \"GoWorkspace/github.com/hdlabs-ro/sc_base/us-contracts/PairUsdtRont.sol\":9481:9519  uint256(encode(_reserve0) / _reserve1) */\n      0xffffffffffffffffffffffffffffffffffffffffffffffffffffffff\n      and\n        /* \"GoWorkspace/github.com/hdlabs-ro/sc_base/us-contracts/PairUsdtRont.sol\":9481:9549  uint256(encode(_reserve0) / _reserve1) *... */\n      tag_359\n      swap2\n      swap1\n      tag_178\n      jump\t// in\n    tag_359:\n        /* \"GoWorkspace/github.com/hdlabs-ro/sc_base/us-contracts/PairUsdtRont.sol\":9441:9461  price1CumulativeLast */\n      0x0a\n      0x00\n        /* \"GoWorkspace/github.com/hdlabs-ro/sc_base/us-contracts/PairUsdtRont.sol\":9441:9549  price1CumulativeLast +=... */\n      dup3\n      dup3\n      sload\n      tag_360\n      swap2\n      swap1\n      tag_356\n      jump\t// in\n    tag_360:\n      swap3\n      pop\n      pop\n      dup2\n      swap1\n      sstore\n      pop\n        /* \"GoWorkspace/github.com/hdlabs-ro/sc_base/us-contracts/PairUsdtRont.sol\":9188:9560  if (timeElapsed > 0 && _reserve0 != 0 && _reserve1 != 0) {... */\n    tag_349:\n        /* \"GoWorkspace/github.com/hdlabs-ro/sc_base/us-contracts/PairUsdtRont.sol\":9588:9596  balance0 */\n      dup6\n        /* \"GoWorkspace/github.com/hdlabs-ro/sc_base/us-contracts/PairUsdtRont.sol\":9569:9577  reserve0 */\n      0x08\n      0x00\n        /* \"GoWorkspace/github.com/hdlabs-ro/sc_base/us-contracts/PairUsdtRont.sol\":9569:9597  reserve0 = uint112(balance0) */\n      0x0100\n      exp\n      dup2\n      sload\n      dup2\n      0xffffffffffffffffffffffffffff\n      mul\n      not\n      and\n      swap1\n      dup4\n      0xffffffffffffffffffffffffffff\n      and\n      mul\n      or\n      swap1\n      sstore\n      pop\n        /* \"GoWorkspace/github.com/hdlabs-ro/sc_base/us-contracts/PairUsdtRont.sol\":9626:9634  balance1 */\n      dup5\n        /* \"GoWorkspace/github.com/hdlabs-ro/sc_base/us-contracts/PairUsdtRont.sol\":9607:9615  reserve1 */\n      0x08\n      0x0e\n        /* \"GoWorkspace/github.com/hdlabs-ro/sc_base/us-contracts/PairUsdtRont.sol\":9607:9635  reserve1 = uint112(balance1) */\n      0x0100\n      exp\n      dup2\n      sload\n      dup2\n      0xffffffffffffffffffffffffffff\n      mul\n      not\n      and\n      swap1\n      dup4\n      0xffffffffffffffffffffffffffff\n      and\n      mul\n      or\n      swap1\n      sstore\n      pop\n        /* \"GoWorkspace/github.com/hdlabs-ro/sc_base/us-contracts/PairUsdtRont.sol\":9666:9680  blockTimestamp */\n      dup2\n        /* \"GoWorkspace/github.com/hdlabs-ro/sc_base/us-contracts/PairUsdtRont.sol\":9645:9663  blockTimestampLast */\n      0x08\n      0x1c\n        /* \"GoWorkspace/github.com/hdlabs-ro/sc_base/us-contracts/PairUsdtRont.sol\":9645:9680  blockTimestampLast = blockTimestamp */\n      0x0100\n      exp\n      dup2\n      sload\n      dup2\n      0xffffffff\n      mul\n      not\n      and\n      swap1\n      dup4\n      0xffffffff\n      and\n      mul\n      or\n      swap1\n      sstore\n      pop\n        /* \"GoWorkspace/github.com/hdlabs-ro/sc_base/us-contracts/PairUsdtRont.sol\":9024:9687  {... */\n      pop\n      pop\n        /* \"GoWorkspace/github.com/hdlabs-ro/sc_base/us-contracts/PairUsdtRont.sol\":8887:9687  function _update(... */\n      pop\n      pop\n      pop\n      pop\n      jump\t// out\n        /* \"GoWorkspace/github.com/hdlabs-ro/sc_base/us-contracts/PairUsdtRont.sol\":10899:11052  function _approve(... */\n    tag_195:\n        /* \"GoWorkspace/github.com/hdlabs-ro/sc_base/us-contracts/PairUsdtRont.sol\":11040:11045  value */\n      dup1\n        /* \"GoWorkspace/github.com/hdlabs-ro/sc_base/us-contracts/PairUsdtRont.sol\":11012:11021  allowance */\n      0x05\n        /* \"GoWorkspace/github.com/hdlabs-ro/sc_base/us-contracts/PairUsdtRont.sol\":11012:11028  allowance[owner] */\n      0x00\n        /* \"GoWorkspace/github.com/hdlabs-ro/sc_base/us-contracts/PairUsdtRont.sol\":11022:11027  owner */\n      dup6\n        /* \"GoWorkspace/github.com/hdlabs-ro/sc_base/us-contracts/PairUsdtRont.sol\":11012:11028  allowance[owner] */\n      0xffffffffffffffffffffffffffffffffffffffff\n      and\n      0xffffffffffffffffffffffffffffffffffffffff\n      and\n      dup2\n      mstore\n      0x20\n      add\n      swap1\n      dup2\n      mstore\n      0x20\n      add\n      0x00\n      keccak256\n        /* \"GoWorkspace/github.com/hdlabs-ro/sc_base/us-contracts/PairUsdtRont.sol\":11012:11037  allowance[owner][spender] */\n      0x00\n        /* \"GoWorkspace/github.com/hdlabs-ro/sc_base/us-contracts/PairUsdtRont.sol\":11029:11036  spender */\n      dup5\n        /* \"GoWorkspace/github.com/hdlabs-ro/sc_base/us-contracts/PairUsdtRont.sol\":11012:11037  allowance[owner][spender] */\n      0xffffffffffffffffffffffffffffffffffffffff\n      and\n      0xffffffffffffffffffffffffffffffffffffffff\n      and\n      dup2\n      mstore\n      0x20\n      add\n      swap1\n      dup2\n      mstore\n      0x20\n      add\n      0x00\n      keccak256\n        /* \"GoWorkspace/github.com/hdlabs-ro/sc_base/us-contracts/PairUsdtRont.sol\":11012:11045  allowance[owner][spender] = value */\n      dup2\n      swap1\n      sstore\n      pop\n        /* \"GoWorkspace/github.com/hdlabs-ro/sc_base/us-contracts/PairUsdtRont.sol\":10899:11052  function _approve(... */\n      pop\n      pop\n      pop\n      jump\t// out\n        /* \"GoWorkspace/github.com/hdlabs-ro/sc_base/us-contracts/PairUsdtRont.sol\":11058:11261  function _transfer(... */\n    tag_200:\n        /* \"GoWorkspace/github.com/hdlabs-ro/sc_base/us-contracts/PairUsdtRont.sol\":11202:11207  value */\n      dup1\n        /* \"GoWorkspace/github.com/hdlabs-ro/sc_base/us-contracts/PairUsdtRont.sol\":11184:11193  balanceOf */\n      0x04\n        /* \"GoWorkspace/github.com/hdlabs-ro/sc_base/us-contracts/PairUsdtRont.sol\":11184:11199  balanceOf[from] */\n      0x00\n        /* \"GoWorkspace/github.com/hdlabs-ro/sc_base/us-contracts/PairUsdtRont.sol\":11194:11198  from */\n      dup6\n        /* \"GoWorkspace/github.com/hdlabs-ro/sc_base/us-contracts/PairUsdtRont.sol\":11184:11199  balanceOf[from] */\n      0xffffffffffffffffffffffffffffffffffffffff\n      and\n      0xffffffffffffffffffffffffffffffffffffffff\n      and\n      dup2\n      mstore\n      0x20\n      add\n      swap1\n      dup2\n      mstore\n      0x20\n      add\n      0x00\n      keccak256\n      sload\n        /* \"GoWorkspace/github.com/hdlabs-ro/sc_base/us-contracts/PairUsdtRont.sol\":11184:11207  balanceOf[from] - value */\n      tag_363\n      swap2\n      swap1\n      tag_163\n      jump\t// in\n    tag_363:\n        /* \"GoWorkspace/github.com/hdlabs-ro/sc_base/us-contracts/PairUsdtRont.sol\":11166:11175  balanceOf */\n      0x04\n        /* \"GoWorkspace/github.com/hdlabs-ro/sc_base/us-contracts/PairUsdtRont.sol\":11166:11181  balanceOf[from] */\n      0x00\n        /* \"GoWorkspace/github.com/hdlabs-ro/sc_base/us-contracts/PairUsdtRont.sol\":11176:11180  from */\n      dup6\n        /* \"GoWorkspace/github.com/hdlabs-ro/sc_base/us-contracts/PairUsdtRont.sol\":11166:11181  balanceOf[from] */\n      0xffffffffffffffffffffffffffffffffffffffff\n      and\n      0xffffffffffffffffffffffffffffffffffffffff\n      and\n      dup2\n      mstore\n      0x20\n      add\n      swap1\n      dup2\n      mstore\n      0x20\n      add\n      0x00\n      keccak256\n        /* \"GoWorkspace/github.com/hdlabs-ro/sc_base/us-contracts/PairUsdtRont.sol\":11166:11207  balanceOf[from] = balanceOf[from] - value */\n      dup2\n      swap1\n      sstore\n      pop\n        /* \"GoWorkspace/github.com/hdlabs-ro/sc_base/us-contracts/PairUsdtRont.sol\":11249:11254  value */\n      dup1\n        /* \"GoWorkspace/github.com/hdlabs-ro/sc_base/us-contracts/PairUsdtRont.sol\":11233:11242  balanceOf */\n      0x04\n        /* \"GoWorkspace/github.com/hdlabs-ro/sc_base/us-contracts/PairUsdtRont.sol\":11233:11246  balanceOf[to] */\n      0x00\n        /* \"GoWorkspace/github.com/hdlabs-ro/sc_base/us-contracts/PairUsdtRont.sol\":11243:11245  to */\n      dup5\n        /* \"GoWorkspace/github.com/hdlabs-ro/sc_base/us-contracts/PairUsdtRont.sol\":11233:11246  balanceOf[to] */\n      0xffffffffffffffffffffffffffffffffffffffff\n      and\n      0xffffffffffffffffffffffffffffffffffffffff\n      and\n      dup2\n      mstore\n      0x20\n      add\n      swap1\n      dup2\n      mstore\n      0x20\n      add\n      0x00\n      keccak256\n      sload\n        /* \"GoWorkspace/github.com/hdlabs-ro/sc_base/us-contracts/PairUsdtRont.sol\":11233:11254  balanceOf[to] - value */\n      tag_364\n      swap2\n      swap1\n      tag_163\n      jump\t// in\n    tag_364:\n        /* \"GoWorkspace/github.com/hdlabs-ro/sc_base/us-contracts/PairUsdtRont.sol\":11217:11226  balanceOf */\n      0x04\n        /* \"GoWorkspace/github.com/hdlabs-ro/sc_base/us-contracts/PairUsdtRont.sol\":11217:11230  balanceOf[to] */\n      0x00\n        /* \"GoWorkspace/github.com/hdlabs-ro/sc_base/us-contracts/PairUsdtRont.sol\":11227:11229  to */\n      dup5\n        /* \"GoWorkspace/github.com/hdlabs-ro/sc_base/us-contracts/PairUsdtRont.sol\":11217:11230  balanceOf[to] */\n      0xffffffffffffffffffffffffffffffffffffffff\n      and\n      0xffffffffffffffffffffffffffffffffffffffff\n      and\n      dup2\n      mstore\n      0x20\n      add\n      swap1\n      dup2\n      mstore\n      0x20\n      add\n      0x00\n      keccak256\n        /* \"GoWorkspace/github.com/hdlabs-ro/sc_base/us-contracts/PairUsdtRont.sol\":11217:11254  balanceOf[to] = balanceOf[to] - value */\n      dup2\n      swap1\n      sstore\n      pop\n        /* \"GoWorkspace/github.com/hdlabs-ro/sc_base/us-contracts/PairUsdtRont.sol\":11058:11261  function _transfer(... */\n      pop\n      pop\n      pop\n      jump\t// out\n        /* \"GoWorkspace/github.com/hdlabs-ro/sc_base/us-contracts/PairUsdtRont.sol\":9774:10553  function _mintFee(uint112 _reserve0, uint112 _reserve1)... */\n    tag_217:\n        /* \"GoWorkspace/github.com/hdlabs-ro/sc_base/us-contracts/PairUsdtRont.sol\":9863:9873  bool feeOn */\n      0x00\n        /* \"GoWorkspace/github.com/hdlabs-ro/sc_base/us-contracts/PairUsdtRont.sol\":9914:9915  0 */\n      dup1\n        /* \"GoWorkspace/github.com/hdlabs-ro/sc_base/us-contracts/PairUsdtRont.sol\":9897:9916  feeTo != address(0) */\n      0xffffffffffffffffffffffffffffffffffffffff\n      and\n        /* \"GoWorkspace/github.com/hdlabs-ro/sc_base/us-contracts/PairUsdtRont.sol\":9897:9902  feeTo */\n      0x00\n      dup1\n      sload\n      swap1\n      0x0100\n      exp\n      swap1\n      div\n      0xffffffffffffffffffffffffffffffffffffffff\n      and\n        /* \"GoWorkspace/github.com/hdlabs-ro/sc_base/us-contracts/PairUsdtRont.sol\":9897:9916  feeTo != address(0) */\n      0xffffffffffffffffffffffffffffffffffffffff\n      and\n      eq\n      iszero\n        /* \"GoWorkspace/github.com/hdlabs-ro/sc_base/us-contracts/PairUsdtRont.sol\":9889:9916  feeOn = feeTo != address(0) */\n      swap1\n      pop\n        /* \"GoWorkspace/github.com/hdlabs-ro/sc_base/us-contracts/PairUsdtRont.sol\":9926:9940  uint256 _kLast */\n      0x00\n        /* \"GoWorkspace/github.com/hdlabs-ro/sc_base/us-contracts/PairUsdtRont.sol\":9943:9948  kLast */\n      sload(0x0b)\n        /* \"GoWorkspace/github.com/hdlabs-ro/sc_base/us-contracts/PairUsdtRont.sol\":9926:9948  uint256 _kLast = kLast */\n      swap1\n      pop\n        /* \"GoWorkspace/github.com/hdlabs-ro/sc_base/us-contracts/PairUsdtRont.sol\":9977:9982  feeOn */\n      dup2\n        /* \"GoWorkspace/github.com/hdlabs-ro/sc_base/us-contracts/PairUsdtRont.sol\":9973:10547  if (feeOn) {... */\n      iszero\n      tag_366\n      jumpi\n        /* \"GoWorkspace/github.com/hdlabs-ro/sc_base/us-contracts/PairUsdtRont.sol\":10012:10013  0 */\n      0x00\n        /* \"GoWorkspace/github.com/hdlabs-ro/sc_base/us-contracts/PairUsdtRont.sol\":10002:10008  _kLast */\n      dup2\n        /* \"GoWorkspace/github.com/hdlabs-ro/sc_base/us-contracts/PairUsdtRont.sol\":10002:10013  _kLast != 0 */\n      eq\n        /* \"GoWorkspace/github.com/hdlabs-ro/sc_base/us-contracts/PairUsdtRont.sol\":9998:10480  if (_kLast != 0) {... */\n      tag_367\n      jumpi\n        /* \"GoWorkspace/github.com/hdlabs-ro/sc_base/us-contracts/PairUsdtRont.sol\":10033:10046  uint256 rootK */\n      0x00\n        /* \"GoWorkspace/github.com/hdlabs-ro/sc_base/us-contracts/PairUsdtRont.sol\":10049:10085  sqrt(uint256(_reserve0) * _reserve1) */\n      tag_368\n        /* \"GoWorkspace/github.com/hdlabs-ro/sc_base/us-contracts/PairUsdtRont.sol\":10075:10084  _reserve1 */\n      dup5\n        /* \"GoWorkspace/github.com/hdlabs-ro/sc_base/us-contracts/PairUsdtRont.sol\":10054:10084  uint256(_reserve0) * _reserve1 */\n      0xffffffffffffffffffffffffffff\n      and\n        /* \"GoWorkspace/github.com/hdlabs-ro/sc_base/us-contracts/PairUsdtRont.sol\":10062:10071  _reserve0 */\n      dup7\n        /* \"GoWorkspace/github.com/hdlabs-ro/sc_base/us-contracts/PairUsdtRont.sol\":10054:10072  uint256(_reserve0) */\n      0xffffffffffffffffffffffffffff\n      and\n        /* \"GoWorkspace/github.com/hdlabs-ro/sc_base/us-contracts/PairUsdtRont.sol\":10054:10084  uint256(_reserve0) * _reserve1 */\n      tag_369\n      swap2\n      swap1\n      tag_178\n      jump\t// in\n    tag_369:\n        /* \"GoWorkspace/github.com/hdlabs-ro/sc_base/us-contracts/PairUsdtRont.sol\":10049:10053  sqrt */\n      tag_221\n        /* \"GoWorkspace/github.com/hdlabs-ro/sc_base/us-contracts/PairUsdtRont.sol\":10049:10085  sqrt(uint256(_reserve0) * _reserve1) */\n      jump\t// in\n    tag_368:\n        /* \"GoWorkspace/github.com/hdlabs-ro/sc_base/us-contracts/PairUsdtRont.sol\":10033:10085  uint256 rootK = sqrt(uint256(_reserve0) * _reserve1) */\n      swap1\n      pop\n        /* \"GoWorkspace/github.com/hdlabs-ro/sc_base/us-contracts/PairUsdtRont.sol\":10103:10120  uint256 rootKLast */\n      0x00\n        /* \"GoWorkspace/github.com/hdlabs-ro/sc_base/us-contracts/PairUsdtRont.sol\":10123:10135  sqrt(_kLast) */\n      tag_370\n        /* \"GoWorkspace/github.com/hdlabs-ro/sc_base/us-contracts/PairUsdtRont.sol\":10128:10134  _kLast */\n      dup4\n        /* \"GoWorkspace/github.com/hdlabs-ro/sc_base/us-contracts/PairUsdtRont.sol\":10123:10127  sqrt */\n      tag_221\n        /* \"GoWorkspace/github.com/hdlabs-ro/sc_base/us-contracts/PairUsdtRont.sol\":10123:10135  sqrt(_kLast) */\n      jump\t// in\n    tag_370:\n        /* \"GoWorkspace/github.com/hdlabs-ro/sc_base/us-contracts/PairUsdtRont.sol\":10103:10135  uint256 rootKLast = sqrt(_kLast) */\n      swap1\n      pop\n        /* \"GoWorkspace/github.com/hdlabs-ro/sc_base/us-contracts/PairUsdtRont.sol\":10165:10174  rootKLast */\n      dup1\n        /* \"GoWorkspace/github.com/hdlabs-ro/sc_base/us-contracts/PairUsdtRont.sol\":10157:10162  rootK */\n      dup3\n        /* \"GoWorkspace/github.com/hdlabs-ro/sc_base/us-contracts/PairUsdtRont.sol\":10157:10174  rootK > rootKLast */\n      gt\n        /* \"GoWorkspace/github.com/hdlabs-ro/sc_base/us-contracts/PairUsdtRont.sol\":10153:10466  if (rootK > rootKLast) {... */\n      iszero\n      tag_371\n      jumpi\n        /* \"GoWorkspace/github.com/hdlabs-ro/sc_base/us-contracts/PairUsdtRont.sol\":10198:10215  uint256 numerator */\n      0x00\n        /* \"GoWorkspace/github.com/hdlabs-ro/sc_base/us-contracts/PairUsdtRont.sol\":10241:10250  rootKLast */\n      dup2\n        /* \"GoWorkspace/github.com/hdlabs-ro/sc_base/us-contracts/PairUsdtRont.sol\":10233:10238  rootK */\n      dup4\n        /* \"GoWorkspace/github.com/hdlabs-ro/sc_base/us-contracts/PairUsdtRont.sol\":10233:10250  rootK - rootKLast */\n      tag_372\n      swap2\n      swap1\n      tag_163\n      jump\t// in\n    tag_372:\n        /* \"GoWorkspace/github.com/hdlabs-ro/sc_base/us-contracts/PairUsdtRont.sol\":10218:10229  totalSupply */\n      sload(0x03)\n        /* \"GoWorkspace/github.com/hdlabs-ro/sc_base/us-contracts/PairUsdtRont.sol\":10218:10251  totalSupply * (rootK - rootKLast) */\n      tag_373\n      swap2\n      swap1\n      tag_178\n      jump\t// in\n    tag_373:\n        /* \"GoWorkspace/github.com/hdlabs-ro/sc_base/us-contracts/PairUsdtRont.sol\":10198:10251  uint256 numerator = totalSupply * (rootK - rootKLast) */\n      swap1\n      pop\n        /* \"GoWorkspace/github.com/hdlabs-ro/sc_base/us-contracts/PairUsdtRont.sol\":10273:10292  uint256 denominator */\n      0x00\n        /* \"GoWorkspace/github.com/hdlabs-ro/sc_base/us-contracts/PairUsdtRont.sol\":10309:10318  rootKLast */\n      dup3\n        /* \"GoWorkspace/github.com/hdlabs-ro/sc_base/us-contracts/PairUsdtRont.sol\":10304:10305  5 */\n      0x05\n        /* \"GoWorkspace/github.com/hdlabs-ro/sc_base/us-contracts/PairUsdtRont.sol\":10296:10301  rootK */\n      dup6\n        /* \"GoWorkspace/github.com/hdlabs-ro/sc_base/us-contracts/PairUsdtRont.sol\":10296:10305  rootK * 5 */\n      tag_374\n      swap2\n      swap1\n      tag_178\n      jump\t// in\n    tag_374:\n        /* \"GoWorkspace/github.com/hdlabs-ro/sc_base/us-contracts/PairUsdtRont.sol\":10295:10318  (rootK * 5) + rootKLast */\n      tag_375\n      swap2\n      swap1\n      tag_356\n      jump\t// in\n    tag_375:\n        /* \"GoWorkspace/github.com/hdlabs-ro/sc_base/us-contracts/PairUsdtRont.sol\":10273:10318  uint256 denominator = (rootK * 5) + rootKLast */\n      swap1\n      pop\n        /* \"GoWorkspace/github.com/hdlabs-ro/sc_base/us-contracts/PairUsdtRont.sol\":10340:10357  uint256 liquidity */\n      0x00\n        /* \"GoWorkspace/github.com/hdlabs-ro/sc_base/us-contracts/PairUsdtRont.sol\":10372:10383  denominator */\n      dup2\n        /* \"GoWorkspace/github.com/hdlabs-ro/sc_base/us-contracts/PairUsdtRont.sol\":10360:10369  numerator */\n      dup4\n        /* \"GoWorkspace/github.com/hdlabs-ro/sc_base/us-contracts/PairUsdtRont.sol\":10360:10383  numerator / denominator */\n      tag_376\n      swap2\n      swap1\n      tag_229\n      jump\t// in\n    tag_376:\n        /* \"GoWorkspace/github.com/hdlabs-ro/sc_base/us-contracts/PairUsdtRont.sol\":10340:10383  uint256 liquidity = numerator / denominator */\n      swap1\n      pop\n        /* \"GoWorkspace/github.com/hdlabs-ro/sc_base/us-contracts/PairUsdtRont.sol\":10421:10422  0 */\n      0x00\n        /* \"GoWorkspace/github.com/hdlabs-ro/sc_base/us-contracts/PairUsdtRont.sol\":10409:10418  liquidity */\n      dup2\n        /* \"GoWorkspace/github.com/hdlabs-ro/sc_base/us-contracts/PairUsdtRont.sol\":10409:10422  liquidity > 0 */\n      gt\n        /* \"GoWorkspace/github.com/hdlabs-ro/sc_base/us-contracts/PairUsdtRont.sol\":10405:10447  if (liquidity > 0) _mint(feeTo, liquidity) */\n      iszero\n      tag_377\n      jumpi\n        /* \"GoWorkspace/github.com/hdlabs-ro/sc_base/us-contracts/PairUsdtRont.sol\":10424:10447  _mint(feeTo, liquidity) */\n      tag_378\n        /* \"GoWorkspace/github.com/hdlabs-ro/sc_base/us-contracts/PairUsdtRont.sol\":10430:10435  feeTo */\n      0x00\n      dup1\n      sload\n      swap1\n      0x0100\n      exp\n      swap1\n      div\n      0xffffffffffffffffffffffffffffffffffffffff\n      and\n        /* \"GoWorkspace/github.com/hdlabs-ro/sc_base/us-contracts/PairUsdtRont.sol\":10437:10446  liquidity */\n      dup3\n        /* \"GoWorkspace/github.com/hdlabs-ro/sc_base/us-contracts/PairUsdtRont.sol\":10424:10429  _mint */\n      tag_224\n        /* \"GoWorkspace/github.com/hdlabs-ro/sc_base/us-contracts/PairUsdtRont.sol\":10424:10447  _mint(feeTo, liquidity) */\n      jump\t// in\n    tag_378:\n        /* \"GoWorkspace/github.com/hdlabs-ro/sc_base/us-contracts/PairUsdtRont.sol\":10405:10447  if (liquidity > 0) _mint(feeTo, liquidity) */\n    tag_377:\n        /* \"GoWorkspace/github.com/hdlabs-ro/sc_base/us-contracts/PairUsdtRont.sol\":10176:10466  {... */\n      pop\n      pop\n      pop\n        /* \"GoWorkspace/github.com/hdlabs-ro/sc_base/us-contracts/PairUsdtRont.sol\":10153:10466  if (rootK > rootKLast) {... */\n    tag_371:\n        /* \"GoWorkspace/github.com/hdlabs-ro/sc_base/us-contracts/PairUsdtRont.sol\":10015:10480  {... */\n      pop\n      pop\n        /* \"GoWorkspace/github.com/hdlabs-ro/sc_base/us-contracts/PairUsdtRont.sol\":9998:10480  if (_kLast != 0) {... */\n    tag_367:\n        /* \"GoWorkspace/github.com/hdlabs-ro/sc_base/us-contracts/PairUsdtRont.sol\":9973:10547  if (feeOn) {... */\n      jump(tag_379)\n    tag_366:\n        /* \"GoWorkspace/github.com/hdlabs-ro/sc_base/us-contracts/PairUsdtRont.sol\":10510:10511  0 */\n      0x00\n        /* \"GoWorkspace/github.com/hdlabs-ro/sc_base/us-contracts/PairUsdtRont.sol\":10500:10506  _kLast */\n      dup2\n        /* \"GoWorkspace/github.com/hdlabs-ro/sc_base/us-contracts/PairUsdtRont.sol\":10500:10511  _kLast != 0 */\n      eq\n        /* \"GoWorkspace/github.com/hdlabs-ro/sc_base/us-contracts/PairUsdtRont.sol\":10496:10547  if (_kLast != 0) {... */\n      tag_380\n      jumpi\n        /* \"GoWorkspace/github.com/hdlabs-ro/sc_base/us-contracts/PairUsdtRont.sol\":10535:10536  0 */\n      0x00\n        /* \"GoWorkspace/github.com/hdlabs-ro/sc_base/us-contracts/PairUsdtRont.sol\":10527:10532  kLast */\n      0x0b\n        /* \"GoWorkspace/github.com/hdlabs-ro/sc_base/us-contracts/PairUsdtRont.sol\":10527:10536  kLast = 0 */\n      dup2\n      swap1\n      sstore\n      pop\n        /* \"GoWorkspace/github.com/hdlabs-ro/sc_base/us-contracts/PairUsdtRont.sol\":10496:10547  if (_kLast != 0) {... */\n    tag_380:\n        /* \"GoWorkspace/github.com/hdlabs-ro/sc_base/us-contracts/PairUsdtRont.sol\":9973:10547  if (feeOn) {... */\n    tag_379:\n        /* \"GoWorkspace/github.com/hdlabs-ro/sc_base/us-contracts/PairUsdtRont.sol\":9879:10553  {... */\n      pop\n        /* \"GoWorkspace/github.com/hdlabs-ro/sc_base/us-contracts/PairUsdtRont.sol\":9774:10553  function _mintFee(uint112 _reserve0, uint112 _reserve1)... */\n      swap3\n      swap2\n      pop\n      pop\n      jump\t// out\n        /* \"GoWorkspace/github.com/hdlabs-ro/sc_base/us-contracts/PairUsdtRont.sol\":13139:13440  function sqrt(uint256 y) internal pure returns (uint256 z) {... */\n    tag_221:\n        /* \"GoWorkspace/github.com/hdlabs-ro/sc_base/us-contracts/PairUsdtRont.sol\":13187:13196  uint256 z */\n      0x00\n        /* \"GoWorkspace/github.com/hdlabs-ro/sc_base/us-contracts/PairUsdtRont.sol\":13216:13217  3 */\n      0x03\n        /* \"GoWorkspace/github.com/hdlabs-ro/sc_base/us-contracts/PairUsdtRont.sol\":13212:13213  y */\n      dup3\n        /* \"GoWorkspace/github.com/hdlabs-ro/sc_base/us-contracts/PairUsdtRont.sol\":13212:13217  y > 3 */\n      gt\n        /* \"GoWorkspace/github.com/hdlabs-ro/sc_base/us-contracts/PairUsdtRont.sol\":13208:13434  if (y > 3) {... */\n      iszero\n      tag_382\n      jumpi\n        /* \"GoWorkspace/github.com/hdlabs-ro/sc_base/us-contracts/PairUsdtRont.sol\":13237:13238  y */\n      dup2\n        /* \"GoWorkspace/github.com/hdlabs-ro/sc_base/us-contracts/PairUsdtRont.sol\":13233:13238  z = y */\n      swap1\n      pop\n        /* \"GoWorkspace/github.com/hdlabs-ro/sc_base/us-contracts/PairUsdtRont.sol\":13252:13261  uint256 x */\n      0x00\n        /* \"GoWorkspace/github.com/hdlabs-ro/sc_base/us-contracts/PairUsdtRont.sol\":13272:13273  1 */\n      0x01\n        /* \"GoWorkspace/github.com/hdlabs-ro/sc_base/us-contracts/PairUsdtRont.sol\":13268:13269  2 */\n      0x02\n        /* \"GoWorkspace/github.com/hdlabs-ro/sc_base/us-contracts/PairUsdtRont.sol\":13264:13265  y */\n      dup5\n        /* \"GoWorkspace/github.com/hdlabs-ro/sc_base/us-contracts/PairUsdtRont.sol\":13264:13269  y / 2 */\n      tag_383\n      swap2\n      swap1\n      tag_229\n      jump\t// in\n    tag_383:\n        /* \"GoWorkspace/github.com/hdlabs-ro/sc_base/us-contracts/PairUsdtRont.sol\":13264:13273  y / 2 + 1 */\n      tag_384\n      swap2\n      swap1\n      tag_356\n      jump\t// in\n    tag_384:\n        /* \"GoWorkspace/github.com/hdlabs-ro/sc_base/us-contracts/PairUsdtRont.sol\":13252:13273  uint256 x = y / 2 + 1 */\n      swap1\n      pop\n        /* \"GoWorkspace/github.com/hdlabs-ro/sc_base/us-contracts/PairUsdtRont.sol\":13287:13376  while (x < z) {... */\n    tag_385:\n        /* \"GoWorkspace/github.com/hdlabs-ro/sc_base/us-contracts/PairUsdtRont.sol\":13298:13299  z */\n      dup2\n        /* \"GoWorkspace/github.com/hdlabs-ro/sc_base/us-contracts/PairUsdtRont.sol\":13294:13295  x */\n      dup2\n        /* \"GoWorkspace/github.com/hdlabs-ro/sc_base/us-contracts/PairUsdtRont.sol\":13294:13299  x < z */\n      lt\n        /* \"GoWorkspace/github.com/hdlabs-ro/sc_base/us-contracts/PairUsdtRont.sol\":13287:13376  while (x < z) {... */\n      iszero\n      tag_386\n      jumpi\n        /* \"GoWorkspace/github.com/hdlabs-ro/sc_base/us-contracts/PairUsdtRont.sol\":13323:13324  x */\n      dup1\n        /* \"GoWorkspace/github.com/hdlabs-ro/sc_base/us-contracts/PairUsdtRont.sol\":13319:13324  z = x */\n      swap2\n      pop\n        /* \"GoWorkspace/github.com/hdlabs-ro/sc_base/us-contracts/PairUsdtRont.sol\":13360:13361  2 */\n      0x02\n        /* \"GoWorkspace/github.com/hdlabs-ro/sc_base/us-contracts/PairUsdtRont.sol\":13355:13356  x */\n      dup2\n        /* \"GoWorkspace/github.com/hdlabs-ro/sc_base/us-contracts/PairUsdtRont.sol\":13351:13352  x */\n      dup3\n        /* \"GoWorkspace/github.com/hdlabs-ro/sc_base/us-contracts/PairUsdtRont.sol\":13347:13348  y */\n      dup6\n        /* \"GoWorkspace/github.com/hdlabs-ro/sc_base/us-contracts/PairUsdtRont.sol\":13347:13352  y / x */\n      tag_387\n      swap2\n      swap1\n      tag_229\n      jump\t// in\n    tag_387:\n        /* \"GoWorkspace/github.com/hdlabs-ro/sc_base/us-contracts/PairUsdtRont.sol\":13347:13356  y / x + x */\n      tag_388\n      swap2\n      swap1\n      tag_356\n      jump\t// in\n    tag_388:\n        /* \"GoWorkspace/github.com/hdlabs-ro/sc_base/us-contracts/PairUsdtRont.sol\":13346:13361  (y / x + x) / 2 */\n      tag_389\n      swap2\n      swap1\n      tag_229\n      jump\t// in\n    tag_389:\n        /* \"GoWorkspace/github.com/hdlabs-ro/sc_base/us-contracts/PairUsdtRont.sol\":13342:13361  x = (y / x + x) / 2 */\n      swap1\n      pop\n        /* \"GoWorkspace/github.com/hdlabs-ro/sc_base/us-contracts/PairUsdtRont.sol\":13287:13376  while (x < z) {... */\n      jump(tag_385)\n    tag_386:\n        /* \"GoWorkspace/github.com/hdlabs-ro/sc_base/us-contracts/PairUsdtRont.sol\":13219:13386  {... */\n      pop\n        /* \"GoWorkspace/github.com/hdlabs-ro/sc_base/us-contracts/PairUsdtRont.sol\":13208:13434  if (y > 3) {... */\n      jump(tag_390)\n    tag_382:\n        /* \"GoWorkspace/github.com/hdlabs-ro/sc_base/us-contracts/PairUsdtRont.sol\":13401:13402  0 */\n      0x00\n        /* \"GoWorkspace/github.com/hdlabs-ro/sc_base/us-contracts/PairUsdtRont.sol\":13396:13397  y */\n      dup3\n        /* \"GoWorkspace/github.com/hdlabs-ro/sc_base/us-contracts/PairUsdtRont.sol\":13396:13402  y != 0 */\n      eq\n        /* \"GoWorkspace/github.com/hdlabs-ro/sc_base/us-contracts/PairUsdtRont.sol\":13392:13434  if (y != 0) {... */\n      tag_391\n      jumpi\n        /* \"GoWorkspace/github.com/hdlabs-ro/sc_base/us-contracts/PairUsdtRont.sol\":13422:13423  1 */\n      0x01\n        /* \"GoWorkspace/github.com/hdlabs-ro/sc_base/us-contracts/PairUsdtRont.sol\":13418:13423  z = 1 */\n      swap1\n      pop\n        /* \"GoWorkspace/github.com/hdlabs-ro/sc_base/us-contracts/PairUsdtRont.sol\":13392:13434  if (y != 0) {... */\n    tag_391:\n        /* \"GoWorkspace/github.com/hdlabs-ro/sc_base/us-contracts/PairUsdtRont.sol\":13208:13434  if (y > 3) {... */\n    tag_390:\n        /* \"GoWorkspace/github.com/hdlabs-ro/sc_base/us-contracts/PairUsdtRont.sol\":13139:13440  function sqrt(uint256 y) internal pure returns (uint256 z) {... */\n      swap2\n      swap1\n      pop\n      jump\t// out\n        /* \"GoWorkspace/github.com/hdlabs-ro/sc_base/us-contracts/PairUsdtRont.sol\":10585:10733  function _mint(address to, uint256 value) internal {... */\n    tag_224:\n        /* \"GoWorkspace/github.com/hdlabs-ro/sc_base/us-contracts/PairUsdtRont.sol\":10674:10679  value */\n      dup1\n        /* \"GoWorkspace/github.com/hdlabs-ro/sc_base/us-contracts/PairUsdtRont.sol\":10660:10671  totalSupply */\n      sload(0x03)\n        /* \"GoWorkspace/github.com/hdlabs-ro/sc_base/us-contracts/PairUsdtRont.sol\":10660:10679  totalSupply + value */\n      tag_393\n      swap2\n      swap1\n      tag_356\n      jump\t// in\n    tag_393:\n        /* \"GoWorkspace/github.com/hdlabs-ro/sc_base/us-contracts/PairUsdtRont.sol\":10646:10657  totalSupply */\n      0x03\n        /* \"GoWorkspace/github.com/hdlabs-ro/sc_base/us-contracts/PairUsdtRont.sol\":10646:10679  totalSupply = totalSupply + value */\n      dup2\n      swap1\n      sstore\n      pop\n        /* \"GoWorkspace/github.com/hdlabs-ro/sc_base/us-contracts/PairUsdtRont.sol\":10721:10726  value */\n      dup1\n        /* \"GoWorkspace/github.com/hdlabs-ro/sc_base/us-contracts/PairUsdtRont.sol\":10705:10714  balanceOf */\n      0x04\n        /* \"GoWorkspace/github.com/hdlabs-ro/sc_base/us-contracts/PairUsdtRont.sol\":10705:10718  balanceOf[to] */\n      0x00\n        /* \"GoWorkspace/github.com/hdlabs-ro/sc_base/us-contracts/PairUsdtRont.sol\":10715:10717  to */\n      dup5\n        /* \"GoWorkspace/github.com/hdlabs-ro/sc_base/us-contracts/PairUsdtRont.sol\":10705:10718  balanceOf[to] */\n      0xffffffffffffffffffffffffffffffffffffffff\n      and\n      0xffffffffffffffffffffffffffffffffffffffff\n      and\n      dup2\n      mstore\n      0x20\n      add\n      swap1\n      dup2\n      mstore\n      0x20\n      add\n      0x00\n      keccak256\n      sload\n        /* \"GoWorkspace/github.com/hdlabs-ro/sc_base/us-contracts/PairUsdtRont.sol\":10705:10726  balanceOf[to] + value */\n      tag_394\n      swap2\n      swap1\n      tag_356\n      jump\t// in\n    tag_394:\n        /* \"GoWorkspace/github.com/hdlabs-ro/sc_base/us-contracts/PairUsdtRont.sol\":10689:10698  balanceOf */\n      0x04\n        /* \"GoWorkspace/github.com/hdlabs-ro/sc_base/us-contracts/PairUsdtRont.sol\":10689:10702  balanceOf[to] */\n      0x00\n        /* \"GoWorkspace/github.com/hdlabs-ro/sc_base/us-contracts/PairUsdtRont.sol\":10699:10701  to */\n      dup5\n        /* \"GoWorkspace/github.com/hdlabs-ro/sc_base/us-contracts/PairUsdtRont.sol\":10689:10702  balanceOf[to] */\n      0xffffffffffffffffffffffffffffffffffffffff\n      and\n      0xffffffffffffffffffffffffffffffffffffffff\n      and\n      dup2\n      mstore\n      0x20\n      add\n      swap1\n      dup2\n      mstore\n      0x20\n      add\n      0x00\n      keccak256\n        /* \"GoWorkspace/github.com/hdlabs-ro/sc_base/us-contracts/PairUsdtRont.sol\":10689:10726  balanceOf[to] = balanceOf[to] + value */\n      dup2\n      swap1\n      sstore\n      pop\n        /* \"GoWorkspace/github.com/hdlabs-ro/sc_base/us-contracts/PairUsdtRont.sol\":10585:10733  function _mint(address to, uint256 value) internal {... */\n      pop\n      pop\n      jump\t// out\n        /* \"GoWorkspace/github.com/hdlabs-ro/sc_base/us-contracts/PairUsdtRont.sol\":12921:13024  function min(uint256 x, uint256 y) internal pure returns (uint256 z) {... */\n    tag_232:\n        /* \"GoWorkspace/github.com/hdlabs-ro/sc_base/us-contracts/PairUsdtRont.sol\":12979:12988  uint256 z */\n      0x00\n        /* \"GoWorkspace/github.com/hdlabs-ro/sc_base/us-contracts/PairUsdtRont.sol\":13008:13009  y */\n      dup2\n        /* \"GoWorkspace/github.com/hdlabs-ro/sc_base/us-contracts/PairUsdtRont.sol\":13004:13005  x */\n      dup4\n        /* \"GoWorkspace/github.com/hdlabs-ro/sc_base/us-contracts/PairUsdtRont.sol\":13004:13009  x < y */\n      lt\n        /* \"GoWorkspace/github.com/hdlabs-ro/sc_base/us-contracts/PairUsdtRont.sol\":13004:13017  x < y ? x : y */\n      tag_396\n      jumpi\n        /* \"GoWorkspace/github.com/hdlabs-ro/sc_base/us-contracts/PairUsdtRont.sol\":13016:13017  y */\n      dup2\n        /* \"GoWorkspace/github.com/hdlabs-ro/sc_base/us-contracts/PairUsdtRont.sol\":13004:13017  x < y ? x : y */\n      jump(tag_397)\n    tag_396:\n        /* \"GoWorkspace/github.com/hdlabs-ro/sc_base/us-contracts/PairUsdtRont.sol\":13012:13013  x */\n      dup3\n        /* \"GoWorkspace/github.com/hdlabs-ro/sc_base/us-contracts/PairUsdtRont.sol\":13004:13017  x < y ? x : y */\n    tag_397:\n        /* \"GoWorkspace/github.com/hdlabs-ro/sc_base/us-contracts/PairUsdtRont.sol\":13000:13017  z = x < y ? x : y */\n      swap1\n      pop\n        /* \"GoWorkspace/github.com/hdlabs-ro/sc_base/us-contracts/PairUsdtRont.sol\":12921:13024  function min(uint256 x, uint256 y) internal pure returns (uint256 z) {... */\n      swap3\n      swap2\n      pop\n      pop\n      jump\t// out\n        /* \"GoWorkspace/github.com/hdlabs-ro/sc_base/us-contracts/PairUsdtRont.sol\":10739:10893  function _burn(address from, uint256 value) internal {... */\n    tag_263:\n        /* \"GoWorkspace/github.com/hdlabs-ro/sc_base/us-contracts/PairUsdtRont.sol\":10838:10843  value */\n      dup1\n        /* \"GoWorkspace/github.com/hdlabs-ro/sc_base/us-contracts/PairUsdtRont.sol\":10820:10829  balanceOf */\n      0x04\n        /* \"GoWorkspace/github.com/hdlabs-ro/sc_base/us-contracts/PairUsdtRont.sol\":10820:10835  balanceOf[from] */\n      0x00\n        /* \"GoWorkspace/github.com/hdlabs-ro/sc_base/us-contracts/PairUsdtRont.sol\":10830:10834  from */\n      dup5\n        /* \"GoWorkspace/github.com/hdlabs-ro/sc_base/us-contracts/PairUsdtRont.sol\":10820:10835  balanceOf[from] */\n      0xffffffffffffffffffffffffffffffffffffffff\n      and\n      0xffffffffffffffffffffffffffffffffffffffff\n      and\n      dup2\n      mstore\n      0x20\n      add\n      swap1\n      dup2\n      mstore\n      0x20\n      add\n      0x00\n      keccak256\n      sload\n        /* \"GoWorkspace/github.com/hdlabs-ro/sc_base/us-contracts/PairUsdtRont.sol\":10820:10843  balanceOf[from] - value */\n      tag_399\n      swap2\n      swap1\n      tag_163\n      jump\t// in\n    tag_399:\n        /* \"GoWorkspace/github.com/hdlabs-ro/sc_base/us-contracts/PairUsdtRont.sol\":10802:10811  balanceOf */\n      0x04\n        /* \"GoWorkspace/github.com/hdlabs-ro/sc_base/us-contracts/PairUsdtRont.sol\":10802:10817  balanceOf[from] */\n      0x00\n        /* \"GoWorkspace/github.com/hdlabs-ro/sc_base/us-contracts/PairUsdtRont.sol\":10812:10816  from */\n      dup5\n        /* \"GoWorkspace/github.com/hdlabs-ro/sc_base/us-contracts/PairUsdtRont.sol\":10802:10817  balanceOf[from] */\n      0xffffffffffffffffffffffffffffffffffffffff\n      and\n      0xffffffffffffffffffffffffffffffffffffffff\n      and\n      dup2\n      mstore\n      0x20\n      add\n      swap1\n      dup2\n      mstore\n      0x20\n      add\n      0x00\n      keccak256\n        /* \"GoWorkspace/github.com/hdlabs-ro/sc_base/us-contracts/PairUsdtRont.sol\":10802:10843  balanceOf[from] = balanceOf[from] - value */\n      dup2\n      swap1\n      sstore\n      pop\n        /* \"GoWorkspace/github.com/hdlabs-ro/sc_base/us-contracts/PairUsdtRont.sol\":10881:10886  value */\n      dup1\n        /* \"GoWorkspace/github.com/hdlabs-ro/sc_base/us-contracts/PairUsdtRont.sol\":10867:10878  totalSupply */\n      sload(0x03)\n        /* \"GoWorkspace/github.com/hdlabs-ro/sc_base/us-contracts/PairUsdtRont.sol\":10867:10886  totalSupply - value */\n      tag_400\n      swap2\n      swap1\n      tag_163\n      jump\t// in\n    tag_400:\n        /* \"GoWorkspace/github.com/hdlabs-ro/sc_base/us-contracts/PairUsdtRont.sol\":10853:10864  totalSupply */\n      0x03\n        /* \"GoWorkspace/github.com/hdlabs-ro/sc_base/us-contracts/PairUsdtRont.sol\":10853:10886  totalSupply = totalSupply - value */\n      dup2\n      swap1\n      sstore\n      pop\n        /* \"GoWorkspace/github.com/hdlabs-ro/sc_base/us-contracts/PairUsdtRont.sol\":10739:10893  function _burn(address from, uint256 value) internal {... */\n      pop\n      pop\n      jump\t// out\n        /* \"GoWorkspace/github.com/hdlabs-ro/sc_base/us-contracts/PairUsdtRont.sol\":13485:13605  function encode(uint112 y) internal pure returns (uint224 z) {... */\n    tag_351:\n        /* \"GoWorkspace/github.com/hdlabs-ro/sc_base/us-contracts/PairUsdtRont.sol\":13535:13544  uint224 z */\n      0x00\n        /* \"GoWorkspace/github.com/hdlabs-ro/sc_base/us-contracts/PairUsdtRont.sol\":13573:13579  2**112 */\n      0x010000000000000000000000000000\n        /* \"GoWorkspace/github.com/hdlabs-ro/sc_base/us-contracts/PairUsdtRont.sol\":13568:13569  y */\n      dup3\n        /* \"GoWorkspace/github.com/hdlabs-ro/sc_base/us-contracts/PairUsdtRont.sol\":13560:13570  uint224(y) */\n      0xffffffffffffffffffffffffffff\n      and\n        /* \"GoWorkspace/github.com/hdlabs-ro/sc_base/us-contracts/PairUsdtRont.sol\":13560:13579  uint224(y) * 2**112 */\n      tag_402\n      swap2\n      swap1\n      tag_403\n      jump\t// in\n    tag_402:\n        /* \"GoWorkspace/github.com/hdlabs-ro/sc_base/us-contracts/PairUsdtRont.sol\":13556:13579  z = uint224(y) * 2**112 */\n      swap1\n      pop\n        /* \"GoWorkspace/github.com/hdlabs-ro/sc_base/us-contracts/PairUsdtRont.sol\":13485:13605  function encode(uint112 y) internal pure returns (uint224 z) {... */\n      swap2\n      swap1\n      pop\n      jump\t// out\n        /* \"#utility.yul\":88:205   */\n    tag_405:\n        /* \"#utility.yul\":197:198   */\n      0x00\n        /* \"#utility.yul\":194:195   */\n      dup1\n        /* \"#utility.yul\":187:199   */\n      revert\n        /* \"#utility.yul\":211:328   */\n    tag_406:\n        /* \"#utility.yul\":320:321   */\n      0x00\n        /* \"#utility.yul\":317:318   */\n      dup1\n        /* \"#utility.yul\":310:322   */\n      revert\n        /* \"#utility.yul\":334:411   */\n    tag_407:\n        /* \"#utility.yul\":371:378   */\n      0x00\n        /* \"#utility.yul\":400:405   */\n      dup2\n        /* \"#utility.yul\":389:405   */\n      swap1\n      pop\n        /* \"#utility.yul\":334:411   */\n      swap2\n      swap1\n      pop\n      jump\t// out\n        /* \"#utility.yul\":417:539   */\n    tag_408:\n        /* \"#utility.yul\":490:514   */\n      tag_483\n        /* \"#utility.yul\":508:513   */\n      dup2\n        /* \"#utility.yul\":490:514   */\n      tag_407\n      jump\t// in\n    tag_483:\n        /* \"#utility.yul\":483:488   */\n      dup2\n        /* \"#utility.yul\":480:515   */\n      eq\n        /* \"#utility.yul\":470:533   */\n      tag_484\n      jumpi\n        /* \"#utility.yul\":529:530   */\n      0x00\n        /* \"#utility.yul\":526:527   */\n      dup1\n        /* \"#utility.yul\":519:531   */\n      revert\n        /* \"#utility.yul\":470:533   */\n    tag_484:\n        /* \"#utility.yul\":417:539   */\n      pop\n      jump\t// out\n        /* \"#utility.yul\":545:684   */\n    tag_409:\n        /* \"#utility.yul\":591:596   */\n      0x00\n        /* \"#utility.yul\":629:635   */\n      dup2\n        /* \"#utility.yul\":616:636   */\n      calldataload\n        /* \"#utility.yul\":607:636   */\n      swap1\n      pop\n        /* \"#utility.yul\":645:678   */\n      tag_486\n        /* \"#utility.yul\":672:677   */\n      dup2\n        /* \"#utility.yul\":645:678   */\n      tag_408\n      jump\t// in\n    tag_486:\n        /* \"#utility.yul\":545:684   */\n      swap3\n      swap2\n      pop\n      pop\n      jump\t// out\n        /* \"#utility.yul\":690:816   */\n    tag_410:\n        /* \"#utility.yul\":727:734   */\n      0x00\n        /* \"#utility.yul\":767:809   */\n      0xffffffffffffffffffffffffffffffffffffffff\n        /* \"#utility.yul\":760:765   */\n      dup3\n        /* \"#utility.yul\":756:810   */\n      and\n        /* \"#utility.yul\":745:810   */\n      swap1\n      pop\n        /* \"#utility.yul\":690:816   */\n      swap2\n      swap1\n      pop\n      jump\t// out\n        /* \"#utility.yul\":822:918   */\n    tag_411:\n        /* \"#utility.yul\":859:866   */\n      0x00\n        /* \"#utility.yul\":888:912   */\n      tag_489\n        /* \"#utility.yul\":906:911   */\n      dup3\n        /* \"#utility.yul\":888:912   */\n      tag_410\n      jump\t// in\n    tag_489:\n        /* \"#utility.yul\":877:912   */\n      swap1\n      pop\n        /* \"#utility.yul\":822:918   */\n      swap2\n      swap1\n      pop\n      jump\t// out\n        /* \"#utility.yul\":924:1046   */\n    tag_412:\n        /* \"#utility.yul\":997:1021   */\n      tag_491\n        /* \"#utility.yul\":1015:1020   */\n      dup2\n        /* \"#utility.yul\":997:1021   */\n      tag_411\n      jump\t// in\n    tag_491:\n        /* \"#utility.yul\":990:995   */\n      dup2\n        /* \"#utility.yul\":987:1022   */\n      eq\n        /* \"#utility.yul\":977:1040   */\n      tag_492\n      jumpi\n        /* \"#utility.yul\":1036:1037   */\n      0x00\n        /* \"#utility.yul\":1033:1034   */\n      dup1\n        /* \"#utility.yul\":1026:1038   */\n      revert\n        /* \"#utility.yul\":977:1040   */\n    tag_492:\n        /* \"#utility.yul\":924:1046   */\n      pop\n      jump\t// out\n        /* \"#utility.yul\":1052:1191   */\n    tag_413:\n        /* \"#utility.yul\":1098:1103   */\n      0x00\n        /* \"#utility.yul\":1136:1142   */\n      dup2\n        /* \"#utility.yul\":1123:1143   */\n      calldataload\n        /* \"#utility.yul\":1114:1143   */\n      swap1\n      pop\n        /* \"#utility.yul\":1152:1185   */\n      tag_494\n        /* \"#utility.yul\":1179:1184   */\n      dup2\n        /* \"#utility.yul\":1152:1185   */\n      tag_412\n      jump\t// in\n    tag_494:\n        /* \"#utility.yul\":1052:1191   */\n      swap3\n      swap2\n      pop\n      pop\n      jump\t// out\n        /* \"#utility.yul\":1197:1314   */\n    tag_414:\n        /* \"#utility.yul\":1306:1307   */\n      0x00\n        /* \"#utility.yul\":1303:1304   */\n      dup1\n        /* \"#utility.yul\":1296:1308   */\n      revert\n        /* \"#utility.yul\":1320:1437   */\n    tag_415:\n        /* \"#utility.yul\":1429:1430   */\n      0x00\n        /* \"#utility.yul\":1426:1427   */\n      dup1\n        /* \"#utility.yul\":1419:1431   */\n      revert\n        /* \"#utility.yul\":1443:1560   */\n    tag_416:\n        /* \"#utility.yul\":1552:1553   */\n      0x00\n        /* \"#utility.yul\":1549:1550   */\n      dup1\n        /* \"#utility.yul\":1542:1554   */\n      revert\n        /* \"#utility.yul\":1579:2131   */\n    tag_417:\n        /* \"#utility.yul\":1636:1644   */\n      0x00\n        /* \"#utility.yul\":1646:1652   */\n      dup1\n        /* \"#utility.yul\":1696:1699   */\n      dup4\n        /* \"#utility.yul\":1689:1693   */\n      0x1f\n        /* \"#utility.yul\":1681:1687   */\n      dup5\n        /* \"#utility.yul\":1677:1694   */\n      add\n        /* \"#utility.yul\":1673:1700   */\n      slt\n        /* \"#utility.yul\":1663:1785   */\n      tag_499\n      jumpi\n        /* \"#utility.yul\":1704:1783   */\n      tag_500\n      tag_414\n      jump\t// in\n    tag_500:\n        /* \"#utility.yul\":1663:1785   */\n    tag_499:\n        /* \"#utility.yul\":1817:1823   */\n      dup3\n        /* \"#utility.yul\":1804:1824   */\n      calldataload\n        /* \"#utility.yul\":1794:1824   */\n      swap1\n      pop\n        /* \"#utility.yul\":1847:1865   */\n      0xffffffffffffffff\n        /* \"#utility.yul\":1839:1845   */\n      dup2\n        /* \"#utility.yul\":1836:1866   */\n      gt\n        /* \"#utility.yul\":1833:1950   */\n      iszero\n      tag_501\n      jumpi\n        /* \"#utility.yul\":1869:1948   */\n      tag_502\n      tag_415\n      jump\t// in\n    tag_502:\n        /* \"#utility.yul\":1833:1950   */\n    tag_501:\n        /* \"#utility.yul\":1983:1987   */\n      0x20\n        /* \"#utility.yul\":1975:1981   */\n      dup4\n        /* \"#utility.yul\":1971:1988   */\n      add\n        /* \"#utility.yul\":1959:1988   */\n      swap2\n      pop\n        /* \"#utility.yul\":2037:2040   */\n      dup4\n        /* \"#utility.yul\":2029:2033   */\n      0x01\n        /* \"#utility.yul\":2021:2027   */\n      dup3\n        /* \"#utility.yul\":2017:2034   */\n      mul\n        /* \"#utility.yul\":2007:2015   */\n      dup4\n        /* \"#utility.yul\":2003:2035   */\n      add\n        /* \"#utility.yul\":2000:2041   */\n      gt\n        /* \"#utility.yul\":1997:2125   */\n      iszero\n      tag_503\n      jumpi\n        /* \"#utility.yul\":2044:2123   */\n      tag_504\n      tag_416\n      jump\t// in\n    tag_504:\n        /* \"#utility.yul\":1997:2125   */\n    tag_503:\n        /* \"#utility.yul\":1579:2131   */\n      swap3\n      pop\n      swap3\n      swap1\n      pop\n      jump\t// out\n        /* \"#utility.yul\":2137:3100   */\n    tag_34:\n        /* \"#utility.yul\":2234:2240   */\n      0x00\n        /* \"#utility.yul\":2242:2248   */\n      dup1\n        /* \"#utility.yul\":2250:2256   */\n      0x00\n        /* \"#utility.yul\":2258:2264   */\n      dup1\n        /* \"#utility.yul\":2266:2272   */\n      0x00\n        /* \"#utility.yul\":2315:2318   */\n      0x80\n        /* \"#utility.yul\":2303:2312   */\n      dup7\n        /* \"#utility.yul\":2294:2301   */\n      dup9\n        /* \"#utility.yul\":2290:2313   */\n      sub\n        /* \"#utility.yul\":2286:2319   */\n      slt\n        /* \"#utility.yul\":2283:2403   */\n      iszero\n      tag_506\n      jumpi\n        /* \"#utility.yul\":2322:2401   */\n      tag_507\n      tag_405\n      jump\t// in\n    tag_507:\n        /* \"#utility.yul\":2283:2403   */\n    tag_506:\n        /* \"#utility.yul\":2442:2443   */\n      0x00\n        /* \"#utility.yul\":2467:2520   */\n      tag_508\n        /* \"#utility.yul\":2512:2519   */\n      dup9\n        /* \"#utility.yul\":2503:2509   */\n      dup3\n        /* \"#utility.yul\":2492:2501   */\n      dup10\n        /* \"#utility.yul\":2488:2510   */\n      add\n        /* \"#utility.yul\":2467:2520   */\n      tag_409\n      jump\t// in\n    tag_508:\n        /* \"#utility.yul\":2457:2520   */\n      swap6\n      pop\n        /* \"#utility.yul\":2413:2530   */\n      pop\n        /* \"#utility.yul\":2569:2571   */\n      0x20\n        /* \"#utility.yul\":2595:2648   */\n      tag_509\n        /* \"#utility.yul\":2640:2647   */\n      dup9\n        /* \"#utility.yul\":2631:2637   */\n      dup3\n        /* \"#utility.yul\":2620:2629   */\n      dup10\n        /* \"#utility.yul\":2616:2638   */\n      add\n        /* \"#utility.yul\":2595:2648   */\n      tag_409\n      jump\t// in\n    tag_509:\n        /* \"#utility.yul\":2585:2648   */\n      swap5\n      pop\n        /* \"#utility.yul\":2540:2658   */\n      pop\n        /* \"#utility.yul\":2697:2699   */\n      0x40\n        /* \"#utility.yul\":2723:2776   */\n      tag_510\n        /* \"#utility.yul\":2768:2775   */\n      dup9\n        /* \"#utility.yul\":2759:2765   */\n      dup3\n        /* \"#utility.yul\":2748:2757   */\n      dup10\n        /* \"#utility.yul\":2744:2766   */\n      add\n        /* \"#utility.yul\":2723:2776   */\n      tag_413\n      jump\t// in\n    tag_510:\n        /* \"#utility.yul\":2713:2776   */\n      swap4\n      pop\n        /* \"#utility.yul\":2668:2786   */\n      pop\n        /* \"#utility.yul\":2853:2855   */\n      0x60\n        /* \"#utility.yul\":2842:2851   */\n      dup7\n        /* \"#utility.yul\":2838:2856   */\n      add\n        /* \"#utility.yul\":2825:2857   */\n      calldataload\n        /* \"#utility.yul\":2884:2902   */\n      0xffffffffffffffff\n        /* \"#utility.yul\":2876:2882   */\n      dup2\n        /* \"#utility.yul\":2873:2903   */\n      gt\n        /* \"#utility.yul\":2870:2987   */\n      iszero\n      tag_511\n      jumpi\n        /* \"#utility.yul\":2906:2985   */\n      tag_512\n      tag_406\n      jump\t// in\n    tag_512:\n        /* \"#utility.yul\":2870:2987   */\n    tag_511:\n        /* \"#utility.yul\":3019:3083   */\n      tag_513\n        /* \"#utility.yul\":3075:3082   */\n      dup9\n        /* \"#utility.yul\":3066:3072   */\n      dup3\n        /* \"#utility.yul\":3055:3064   */\n      dup10\n        /* \"#utility.yul\":3051:3073   */\n      add\n        /* \"#utility.yul\":3019:3083   */\n      tag_417\n      jump\t// in\n    tag_513:\n        /* \"#utility.yul\":3001:3083   */\n      swap3\n      pop\n      swap3\n      pop\n        /* \"#utility.yul\":2796:3093   */\n      pop\n        /* \"#utility.yul\":2137:3100   */\n      swap3\n      swap6\n      pop\n      swap3\n      swap6\n      swap1\n      swap4\n      pop\n      jump\t// out\n        /* \"#utility.yul\":3106:3205   */\n    tag_418:\n        /* \"#utility.yul\":3158:3164   */\n      0x00\n        /* \"#utility.yul\":3192:3197   */\n      dup2\n        /* \"#utility.yul\":3186:3198   */\n      mload\n        /* \"#utility.yul\":3176:3198   */\n      swap1\n      pop\n        /* \"#utility.yul\":3106:3205   */\n      swap2\n      swap1\n      pop\n      jump\t// out\n        /* \"#utility.yul\":3211:3380   */\n    tag_419:\n        /* \"#utility.yul\":3295:3306   */\n      0x00\n        /* \"#utility.yul\":3329:3335   */\n      dup3\n        /* \"#utility.yul\":3324:3327   */\n      dup3\n        /* \"#utility.yul\":3317:3336   */\n      mstore\n        /* \"#utility.yul\":3369:3373   */\n      0x20\n        /* \"#utility.yul\":3364:3367   */\n      dup3\n        /* \"#utility.yul\":3360:3374   */\n      add\n        /* \"#utility.yul\":3345:3374   */\n      swap1\n      pop\n        /* \"#utility.yul\":3211:3380   */\n      swap3\n      swap2\n      pop\n      pop\n      jump\t// out\n        /* \"#utility.yul\":3386:3632   */\n    tag_420:\n        /* \"#utility.yul\":3467:3468   */\n      0x00\n        /* \"#utility.yul\":3477:3590   */\n    tag_517:\n        /* \"#utility.yul\":3491:3497   */\n      dup4\n        /* \"#utility.yul\":3488:3489   */\n      dup2\n        /* \"#utility.yul\":3485:3498   */\n      lt\n        /* \"#utility.yul\":3477:3590   */\n      iszero\n      tag_519\n      jumpi\n        /* \"#utility.yul\":3576:3577   */\n      dup1\n        /* \"#utility.yul\":3571:3574   */\n      dup3\n        /* \"#utility.yul\":3567:3578   */\n      add\n        /* \"#utility.yul\":3561:3579   */\n      mload\n        /* \"#utility.yul\":3557:3558   */\n      dup2\n        /* \"#utility.yul\":3552:3555   */\n      dup5\n        /* \"#utility.yul\":3548:3559   */\n      add\n        /* \"#utility.yul\":3541:3580   */\n      mstore\n        /* \"#utility.yul\":3513:3515   */\n      0x20\n        /* \"#utility.yul\":3510:3511   */\n      dup2\n        /* \"#utility.yul\":3506:3516   */\n      add\n        /* \"#utility.yul\":3501:3516   */\n      swap1\n      pop\n        /* \"#utility.yul\":3477:3590   */\n      jump(tag_517)\n    tag_519:\n        /* \"#utility.yul\":3624:3625   */\n      0x00\n        /* \"#utility.yul\":3615:3621   */\n      dup5\n        /* \"#utility.yul\":3610:3613   */\n      dup5\n        /* \"#utility.yul\":3606:3622   */\n      add\n        /* \"#utility.yul\":3599:3626   */\n      mstore\n        /* \"#utility.yul\":3448:3632   */\n      pop\n        /* \"#utility.yul\":3386:3632   */\n      pop\n      pop\n      pop\n      jump\t// out\n        /* \"#utility.yul\":3638:3740   */\n    tag_421:\n        /* \"#utility.yul\":3679:3685   */\n      0x00\n        /* \"#utility.yul\":3730:3732   */\n      0x1f\n        /* \"#utility.yul\":3726:3733   */\n      not\n        /* \"#utility.yul\":3721:3723   */\n      0x1f\n        /* \"#utility.yul\":3714:3719   */\n      dup4\n        /* \"#utility.yul\":3710:3724   */\n      add\n        /* \"#utility.yul\":3706:3734   */\n      and\n        /* \"#utility.yul\":3696:3734   */\n      swap1\n      pop\n        /* \"#utility.yul\":3638:3740   */\n      swap2\n      swap1\n      pop\n      jump\t// out\n        /* \"#utility.yul\":3746:4123   */\n    tag_422:\n        /* \"#utility.yul\":3834:3837   */\n      0x00\n        /* \"#utility.yul\":3862:3901   */\n      tag_522\n        /* \"#utility.yul\":3895:3900   */\n      dup3\n        /* \"#utility.yul\":3862:3901   */\n      tag_418\n      jump\t// in\n    tag_522:\n        /* \"#utility.yul\":3917:3988   */\n      tag_523\n        /* \"#utility.yul\":3981:3987   */\n      dup2\n        /* \"#utility.yul\":3976:3979   */\n      dup6\n        /* \"#utility.yul\":3917:3988   */\n      tag_419\n      jump\t// in\n    tag_523:\n        /* \"#utility.yul\":3910:3988   */\n      swap4\n      pop\n        /* \"#utility.yul\":3997:4062   */\n      tag_524\n        /* \"#utility.yul\":4055:4061   */\n      dup2\n        /* \"#utility.yul\":4050:4053   */\n      dup6\n        /* \"#utility.yul\":4043:4047   */\n      0x20\n        /* \"#utility.yul\":4036:4041   */\n      dup7\n        /* \"#utility.yul\":4032:4048   */\n      add\n        /* \"#utility.yul\":3997:4062   */\n      tag_420\n      jump\t// in\n    tag_524:\n        /* \"#utility.yul\":4087:4116   */\n      tag_525\n        /* \"#utility.yul\":4109:4115   */\n      dup2\n        /* \"#utility.yul\":4087:4116   */\n      tag_421\n      jump\t// in\n    tag_525:\n        /* \"#utility.yul\":4082:4085   */\n      dup5\n        /* \"#utility.yul\":4078:4117   */\n      add\n        /* \"#utility.yul\":4071:4117   */\n      swap2\n      pop\n        /* \"#utility.yul\":3838:4123   */\n      pop\n        /* \"#utility.yul\":3746:4123   */\n      swap3\n      swap2\n      pop\n      pop\n      jump\t// out\n        /* \"#utility.yul\":4129:4442   */\n    tag_39:\n        /* \"#utility.yul\":4242:4246   */\n      0x00\n        /* \"#utility.yul\":4280:4282   */\n      0x20\n        /* \"#utility.yul\":4269:4278   */\n      dup3\n        /* \"#utility.yul\":4265:4283   */\n      add\n        /* \"#utility.yul\":4257:4283   */\n      swap1\n      pop\n        /* \"#utility.yul\":4329:4338   */\n      dup2\n        /* \"#utility.yul\":4323:4327   */\n      dup2\n        /* \"#utility.yul\":4319:4339   */\n      sub\n        /* \"#utility.yul\":4315:4316   */\n      0x00\n        /* \"#utility.yul\":4304:4313   */\n      dup4\n        /* \"#utility.yul\":4300:4317   */\n      add\n        /* \"#utility.yul\":4293:4340   */\n      mstore\n        /* \"#utility.yul\":4357:4435   */\n      tag_527\n        /* \"#utility.yul\":4430:4434   */\n      dup2\n        /* \"#utility.yul\":4421:4427   */\n      dup5\n        /* \"#utility.yul\":4357:4435   */\n      tag_422\n      jump\t// in\n    tag_527:\n        /* \"#utility.yul\":4349:4435   */\n      swap1\n      pop\n        /* \"#utility.yul\":4129:4442   */\n      swap3\n      swap2\n      pop\n      pop\n      jump\t// out\n        /* \"#utility.yul\":4448:4562   */\n    tag_423:\n        /* \"#utility.yul\":4485:4492   */\n      0x00\n        /* \"#utility.yul\":4525:4555   */\n      0xffffffffffffffffffffffffffff\n        /* \"#utility.yul\":4518:4523   */\n      dup3\n        /* \"#utility.yul\":4514:4556   */\n      and\n        /* \"#utility.yul\":4503:4556   */\n      swap1\n      pop\n        /* \"#utility.yul\":4448:4562   */\n      swap2\n      swap1\n      pop\n      jump\t// out\n        /* \"#utility.yul\":4568:4686   */\n    tag_424:\n        /* \"#utility.yul\":4655:4679   */\n      tag_530\n        /* \"#utility.yul\":4673:4678   */\n      dup2\n        /* \"#utility.yul\":4655:4679   */\n      tag_423\n      jump\t// in\n    tag_530:\n        /* \"#utility.yul\":4650:4653   */\n      dup3\n        /* \"#utility.yul\":4643:4680   */\n      mstore\n        /* \"#utility.yul\":4568:4686   */\n      pop\n      pop\n      jump\t// out\n        /* \"#utility.yul\":4692:4785   */\n    tag_425:\n        /* \"#utility.yul\":4728:4735   */\n      0x00\n        /* \"#utility.yul\":4768:4778   */\n      0xffffffff\n        /* \"#utility.yul\":4761:4766   */\n      dup3\n        /* \"#utility.yul\":4757:4779   */\n      and\n        /* \"#utility.yul\":4746:4779   */\n      swap1\n      pop\n        /* \"#utility.yul\":4692:4785   */\n      swap2\n      swap1\n      pop\n      jump\t// out\n        /* \"#utility.yul\":4791:4906   */\n    tag_426:\n        /* \"#utility.yul\":4876:4899   */\n      tag_533\n        /* \"#utility.yul\":4893:4898   */\n      dup2\n        /* \"#utility.yul\":4876:4899   */\n      tag_425\n      jump\t// in\n    tag_533:\n        /* \"#utility.yul\":4871:4874   */\n      dup3\n        /* \"#utility.yul\":4864:4900   */\n      mstore\n        /* \"#utility.yul\":4791:4906   */\n      pop\n      pop\n      jump\t// out\n        /* \"#utility.yul\":4912:5350   */\n    tag_43:\n        /* \"#utility.yul\":5059:5063   */\n      0x00\n        /* \"#utility.yul\":5097:5099   */\n      0x60\n        /* \"#utility.yul\":5086:5095   */\n      dup3\n        /* \"#utility.yul\":5082:5100   */\n      add\n        /* \"#utility.yul\":5074:5100   */\n      swap1\n      pop\n        /* \"#utility.yul\":5110:5181   */\n      tag_535\n        /* \"#utility.yul\":5178:5179   */\n      0x00\n        /* \"#utility.yul\":5167:5176   */\n      dup4\n        /* \"#utility.yul\":5163:5180   */\n      add\n        /* \"#utility.yul\":5154:5160   */\n      dup7\n        /* \"#utility.yul\":5110:5181   */\n      tag_424\n      jump\t// in\n    tag_535:\n        /* \"#utility.yul\":5191:5263   */\n      tag_536\n        /* \"#utility.yul\":5259:5261   */\n      0x20\n        /* \"#utility.yul\":5248:5257   */\n      dup4\n        /* \"#utility.yul\":5244:5262   */\n      add\n        /* \"#utility.yul\":5235:5241   */\n      dup6\n        /* \"#utility.yul\":5191:5263   */\n      tag_424\n      jump\t// in\n    tag_536:\n        /* \"#utility.yul\":5273:5343   */\n      tag_537\n        /* \"#utility.yul\":5339:5341   */\n      0x40\n        /* \"#utility.yul\":5328:5337   */\n      dup4\n        /* \"#utility.yul\":5324:5342   */\n      add\n        /* \"#utility.yul\":5315:5321   */\n      dup5\n        /* \"#utility.yul\":5273:5343   */\n      tag_426\n      jump\t// in\n    tag_537:\n        /* \"#utility.yul\":4912:5350   */\n      swap5\n      swap4\n      pop\n      pop\n      pop\n      pop\n      jump\t// out\n        /* \"#utility.yul\":5356:5830   */\n    tag_46:\n        /* \"#utility.yul\":5424:5430   */\n      0x00\n        /* \"#utility.yul\":5432:5438   */\n      dup1\n        /* \"#utility.yul\":5481:5483   */\n      0x40\n        /* \"#utility.yul\":5469:5478   */\n      dup4\n        /* \"#utility.yul\":5460:5467   */\n      dup6\n        /* \"#utility.yul\":5456:5479   */\n      sub\n        /* \"#utility.yul\":5452:5484   */\n      slt\n        /* \"#utility.yul\":5449:5568   */\n      iszero\n      tag_539\n      jumpi\n        /* \"#utility.yul\":5487:5566   */\n      tag_540\n      tag_405\n      jump\t// in\n    tag_540:\n        /* \"#utility.yul\":5449:5568   */\n    tag_539:\n        /* \"#utility.yul\":5607:5608   */\n      0x00\n        /* \"#utility.yul\":5632:5685   */\n      tag_541\n        /* \"#utility.yul\":5677:5684   */\n      dup6\n        /* \"#utility.yul\":5668:5674   */\n      dup3\n        /* \"#utility.yul\":5657:5666   */\n      dup7\n        /* \"#utility.yul\":5653:5675   */\n      add\n        /* \"#utility.yul\":5632:5685   */\n      tag_413\n      jump\t// in\n    tag_541:\n        /* \"#utility.yul\":5622:5685   */\n      swap3\n      pop\n        /* \"#utility.yul\":5578:5695   */\n      pop\n        /* \"#utility.yul\":5734:5736   */\n      0x20\n        /* \"#utility.yul\":5760:5813   */\n      tag_542\n        /* \"#utility.yul\":5805:5812   */\n      dup6\n        /* \"#utility.yul\":5796:5802   */\n      dup3\n        /* \"#utility.yul\":5785:5794   */\n      dup7\n        /* \"#utility.yul\":5781:5803   */\n      add\n        /* \"#utility.yul\":5760:5813   */\n      tag_409\n      jump\t// in\n    tag_542:\n        /* \"#utility.yul\":5750:5813   */\n      swap2\n      pop\n        /* \"#utility.yul\":5705:5823   */\n      pop\n        /* \"#utility.yul\":5356:5830   */\n      swap3\n      pop\n      swap3\n      swap1\n      pop\n      jump\t// out\n        /* \"#utility.yul\":5836:5926   */\n    tag_427:\n        /* \"#utility.yul\":5870:5877   */\n      0x00\n        /* \"#utility.yul\":5913:5918   */\n      dup2\n        /* \"#utility.yul\":5906:5919   */\n      iszero\n        /* \"#utility.yul\":5899:5920   */\n      iszero\n        /* \"#utility.yul\":5888:5920   */\n      swap1\n      pop\n        /* \"#utility.yul\":5836:5926   */\n      swap2\n      swap1\n      pop\n      jump\t// out\n        /* \"#utility.yul\":5932:6041   */\n    tag_428:\n        /* \"#utility.yul\":6013:6034   */\n      tag_545\n        /* \"#utility.yul\":6028:6033   */\n      dup2\n        /* \"#utility.yul\":6013:6034   */\n      tag_427\n      jump\t// in\n    tag_545:\n        /* \"#utility.yul\":6008:6011   */\n      dup3\n        /* \"#utility.yul\":6001:6035   */\n      mstore\n        /* \"#utility.yul\":5932:6041   */\n      pop\n      pop\n      jump\t// out\n        /* \"#utility.yul\":6047:6257   */\n    tag_49:\n        /* \"#utility.yul\":6134:6138   */\n      0x00\n        /* \"#utility.yul\":6172:6174   */\n      0x20\n        /* \"#utility.yul\":6161:6170   */\n      dup3\n        /* \"#utility.yul\":6157:6175   */\n      add\n        /* \"#utility.yul\":6149:6175   */\n      swap1\n      pop\n        /* \"#utility.yul\":6185:6250   */\n      tag_547\n        /* \"#utility.yul\":6247:6248   */\n      0x00\n        /* \"#utility.yul\":6236:6245   */\n      dup4\n        /* \"#utility.yul\":6232:6249   */\n      add\n        /* \"#utility.yul\":6223:6229   */\n      dup5\n        /* \"#utility.yul\":6185:6250   */\n      tag_428\n      jump\t// in\n    tag_547:\n        /* \"#utility.yul\":6047:6257   */\n      swap3\n      swap2\n      pop\n      pop\n      jump\t// out\n        /* \"#utility.yul\":6263:6381   */\n    tag_429:\n        /* \"#utility.yul\":6350:6374   */\n      tag_549\n        /* \"#utility.yul\":6368:6373   */\n      dup2\n        /* \"#utility.yul\":6350:6374   */\n      tag_411\n      jump\t// in\n    tag_549:\n        /* \"#utility.yul\":6345:6348   */\n      dup3\n        /* \"#utility.yul\":6338:6375   */\n      mstore\n        /* \"#utility.yul\":6263:6381   */\n      pop\n      pop\n      jump\t// out\n        /* \"#utility.yul\":6387:6609   */\n    tag_53:\n        /* \"#utility.yul\":6480:6484   */\n      0x00\n        /* \"#utility.yul\":6518:6520   */\n      0x20\n        /* \"#utility.yul\":6507:6516   */\n      dup3\n        /* \"#utility.yul\":6503:6521   */\n      add\n        /* \"#utility.yul\":6495:6521   */\n      swap1\n      pop\n        /* \"#utility.yul\":6531:6602   */\n      tag_551\n        /* \"#utility.yul\":6599:6600   */\n      0x00\n        /* \"#utility.yul\":6588:6597   */\n      dup4\n        /* \"#utility.yul\":6584:6601   */\n      add\n        /* \"#utility.yul\":6575:6581   */\n      dup5\n        /* \"#utility.yul\":6531:6602   */\n      tag_429\n      jump\t// in\n    tag_551:\n        /* \"#utility.yul\":6387:6609   */\n      swap3\n      swap2\n      pop\n      pop\n      jump\t// out\n        /* \"#utility.yul\":6615:6733   */\n    tag_430:\n        /* \"#utility.yul\":6702:6726   */\n      tag_553\n        /* \"#utility.yul\":6720:6725   */\n      dup2\n        /* \"#utility.yul\":6702:6726   */\n      tag_407\n      jump\t// in\n    tag_553:\n        /* \"#utility.yul\":6697:6700   */\n      dup3\n        /* \"#utility.yul\":6690:6727   */\n      mstore\n        /* \"#utility.yul\":6615:6733   */\n      pop\n      pop\n      jump\t// out\n        /* \"#utility.yul\":6739:6961   */\n    tag_57:\n        /* \"#utility.yul\":6832:6836   */\n      0x00\n        /* \"#utility.yul\":6870:6872   */\n      0x20\n        /* \"#utility.yul\":6859:6868   */\n      dup3\n        /* \"#utility.yul\":6855:6873   */\n      add\n        /* \"#utility.yul\":6847:6873   */\n      swap1\n      pop\n        /* \"#utility.yul\":6883:6954   */\n      tag_555\n        /* \"#utility.yul\":6951:6952   */\n      0x00\n        /* \"#utility.yul\":6940:6949   */\n      dup4\n        /* \"#utility.yul\":6936:6953   */\n      add\n        /* \"#utility.yul\":6927:6933   */\n      dup5\n        /* \"#utility.yul\":6883:6954   */\n      tag_430\n      jump\t// in\n    tag_555:\n        /* \"#utility.yul\":6739:6961   */\n      swap3\n      swap2\n      pop\n      pop\n      jump\t// out\n        /* \"#utility.yul\":6967:7586   */\n    tag_60:\n        /* \"#utility.yul\":7044:7050   */\n      0x00\n        /* \"#utility.yul\":7052:7058   */\n      dup1\n        /* \"#utility.yul\":7060:7066   */\n      0x00\n        /* \"#utility.yul\":7109:7111   */\n      0x60\n        /* \"#utility.yul\":7097:7106   */\n      dup5\n        /* \"#utility.yul\":7088:7095   */\n      dup7\n        /* \"#utility.yul\":7084:7107   */\n      sub\n        /* \"#utility.yul\":7080:7112   */\n      slt\n        /* \"#utility.yul\":7077:7196   */\n      iszero\n      tag_557\n      jumpi\n        /* \"#utility.yul\":7115:7194   */\n      tag_558\n      tag_405\n      jump\t// in\n    tag_558:\n        /* \"#utility.yul\":7077:7196   */\n    tag_557:\n        /* \"#utility.yul\":7235:7236   */\n      0x00\n        /* \"#utility.yul\":7260:7313   */\n      tag_559\n        /* \"#utility.yul\":7305:7312   */\n      dup7\n        /* \"#utility.yul\":7296:7302   */\n      dup3\n        /* \"#utility.yul\":7285:7294   */\n      dup8\n        /* \"#utility.yul\":7281:7303   */\n      add\n        /* \"#utility.yul\":7260:7313   */\n      tag_413\n      jump\t// in\n    tag_559:\n        /* \"#utility.yul\":7250:7313   */\n      swap4\n      pop\n        /* \"#utility.yul\":7206:7323   */\n      pop\n        /* \"#utility.yul\":7362:7364   */\n      0x20\n        /* \"#utility.yul\":7388:7441   */\n      tag_560\n        /* \"#utility.yul\":7433:7440   */\n      dup7\n        /* \"#utility.yul\":7424:7430   */\n      dup3\n        /* \"#utility.yul\":7413:7422   */\n      dup8\n        /* \"#utility.yul\":7409:7431   */\n      add\n        /* \"#utility.yul\":7388:7441   */\n      tag_413\n      jump\t// in\n    tag_560:\n        /* \"#utility.yul\":7378:7441   */\n      swap3\n      pop\n        /* \"#utility.yul\":7333:7451   */\n      pop\n        /* \"#utility.yul\":7490:7492   */\n      0x40\n        /* \"#utility.yul\":7516:7569   */\n      tag_561\n        /* \"#utility.yul\":7561:7568   */\n      dup7\n        /* \"#utility.yul\":7552:7558   */\n      dup3\n        /* \"#utility.yul\":7541:7550   */\n      dup8\n        /* \"#utility.yul\":7537:7559   */\n      add\n        /* \"#utility.yul\":7516:7569   */\n      tag_409\n      jump\t// in\n    tag_561:\n        /* \"#utility.yul\":7506:7569   */\n      swap2\n      pop\n        /* \"#utility.yul\":7461:7579   */\n      pop\n        /* \"#utility.yul\":6967:7586   */\n      swap3\n      pop\n      swap3\n      pop\n      swap3\n      jump\t// out\n        /* \"#utility.yul\":7592:7669   */\n    tag_431:\n        /* \"#utility.yul\":7629:7636   */\n      0x00\n        /* \"#utility.yul\":7658:7663   */\n      dup2\n        /* \"#utility.yul\":7647:7663   */\n      swap1\n      pop\n        /* \"#utility.yul\":7592:7669   */\n      swap2\n      swap1\n      pop\n      jump\t// out\n        /* \"#utility.yul\":7675:7793   */\n    tag_432:\n        /* \"#utility.yul\":7762:7786   */\n      tag_564\n        /* \"#utility.yul\":7780:7785   */\n      dup2\n        /* \"#utility.yul\":7762:7786   */\n      tag_431\n      jump\t// in\n    tag_564:\n        /* \"#utility.yul\":7757:7760   */\n      dup3\n        /* \"#utility.yul\":7750:7787   */\n      mstore\n        /* \"#utility.yul\":7675:7793   */\n      pop\n      pop\n      jump\t// out\n        /* \"#utility.yul\":7799:8021   */\n    tag_66:\n        /* \"#utility.yul\":7892:7896   */\n      0x00\n        /* \"#utility.yul\":7930:7932   */\n      0x20\n        /* \"#utility.yul\":7919:7928   */\n      dup3\n        /* \"#utility.yul\":7915:7933   */\n      add\n        /* \"#utility.yul\":7907:7933   */\n      swap1\n      pop\n        /* \"#utility.yul\":7943:8014   */\n      tag_566\n        /* \"#utility.yul\":8011:8012   */\n      0x00\n        /* \"#utility.yul\":8000:8009   */\n      dup4\n        /* \"#utility.yul\":7996:8013   */\n      add\n        /* \"#utility.yul\":7987:7993   */\n      dup5\n        /* \"#utility.yul\":7943:8014   */\n      tag_432\n      jump\t// in\n    tag_566:\n        /* \"#utility.yul\":7799:8021   */\n      swap3\n      swap2\n      pop\n      pop\n      jump\t// out\n        /* \"#utility.yul\":8027:8113   */\n    tag_433:\n        /* \"#utility.yul\":8062:8069   */\n      0x00\n        /* \"#utility.yul\":8102:8106   */\n      0xff\n        /* \"#utility.yul\":8095:8100   */\n      dup3\n        /* \"#utility.yul\":8091:8107   */\n      and\n        /* \"#utility.yul\":8080:8107   */\n      swap1\n      pop\n        /* \"#utility.yul\":8027:8113   */\n      swap2\n      swap1\n      pop\n      jump\t// out\n        /* \"#utility.yul\":8119:8231   */\n    tag_434:\n        /* \"#utility.yul\":8202:8224   */\n      tag_569\n        /* \"#utility.yul\":8218:8223   */\n      dup2\n        /* \"#utility.yul\":8202:8224   */\n      tag_433\n      jump\t// in\n    tag_569:\n        /* \"#utility.yul\":8197:8200   */\n      dup3\n        /* \"#utility.yul\":8190:8225   */\n      mstore\n        /* \"#utility.yul\":8119:8231   */\n      pop\n      pop\n      jump\t// out\n        /* \"#utility.yul\":8237:8451   */\n    tag_70:\n        /* \"#utility.yul\":8326:8330   */\n      0x00\n        /* \"#utility.yul\":8364:8366   */\n      0x20\n        /* \"#utility.yul\":8353:8362   */\n      dup3\n        /* \"#utility.yul\":8349:8367   */\n      add\n        /* \"#utility.yul\":8341:8367   */\n      swap1\n      pop\n        /* \"#utility.yul\":8377:8444   */\n      tag_571\n        /* \"#utility.yul\":8441:8442   */\n      0x00\n        /* \"#utility.yul\":8430:8439   */\n      dup4\n        /* \"#utility.yul\":8426:8443   */\n      add\n        /* \"#utility.yul\":8417:8423   */\n      dup5\n        /* \"#utility.yul\":8377:8444   */\n      tag_434\n      jump\t// in\n    tag_571:\n        /* \"#utility.yul\":8237:8451   */\n      swap3\n      swap2\n      pop\n      pop\n      jump\t// out\n        /* \"#utility.yul\":8457:8786   */\n    tag_82:\n        /* \"#utility.yul\":8516:8522   */\n      0x00\n        /* \"#utility.yul\":8565:8567   */\n      0x20\n        /* \"#utility.yul\":8553:8562   */\n      dup3\n        /* \"#utility.yul\":8544:8551   */\n      dup5\n        /* \"#utility.yul\":8540:8563   */\n      sub\n        /* \"#utility.yul\":8536:8568   */\n      slt\n        /* \"#utility.yul\":8533:8652   */\n      iszero\n      tag_573\n      jumpi\n        /* \"#utility.yul\":8571:8650   */\n      tag_574\n      tag_405\n      jump\t// in\n    tag_574:\n        /* \"#utility.yul\":8533:8652   */\n    tag_573:\n        /* \"#utility.yul\":8691:8692   */\n      0x00\n        /* \"#utility.yul\":8716:8769   */\n      tag_575\n        /* \"#utility.yul\":8761:8768   */\n      dup5\n        /* \"#utility.yul\":8752:8758   */\n      dup3\n        /* \"#utility.yul\":8741:8750   */\n      dup6\n        /* \"#utility.yul\":8737:8759   */\n      add\n        /* \"#utility.yul\":8716:8769   */\n      tag_413\n      jump\t// in\n    tag_575:\n        /* \"#utility.yul\":8706:8769   */\n      swap2\n      pop\n        /* \"#utility.yul\":8662:8779   */\n      pop\n        /* \"#utility.yul\":8457:8786   */\n      swap3\n      swap2\n      pop\n      pop\n      jump\t// out\n        /* \"#utility.yul\":8792:9124   */\n    tag_100:\n        /* \"#utility.yul\":8913:8917   */\n      0x00\n        /* \"#utility.yul\":8951:8953   */\n      0x40\n        /* \"#utility.yul\":8940:8949   */\n      dup3\n        /* \"#utility.yul\":8936:8954   */\n      add\n        /* \"#utility.yul\":8928:8954   */\n      swap1\n      pop\n        /* \"#utility.yul\":8964:9035   */\n      tag_577\n        /* \"#utility.yul\":9032:9033   */\n      0x00\n        /* \"#utility.yul\":9021:9030   */\n      dup4\n        /* \"#utility.yul\":9017:9034   */\n      add\n        /* \"#utility.yul\":9008:9014   */\n      dup6\n        /* \"#utility.yul\":8964:9035   */\n      tag_430\n      jump\t// in\n    tag_577:\n        /* \"#utility.yul\":9045:9117   */\n      tag_578\n        /* \"#utility.yul\":9113:9115   */\n      0x20\n        /* \"#utility.yul\":9102:9111   */\n      dup4\n        /* \"#utility.yul\":9098:9116   */\n      add\n        /* \"#utility.yul\":9089:9095   */\n      dup5\n        /* \"#utility.yul\":9045:9117   */\n      tag_430\n      jump\t// in\n    tag_578:\n        /* \"#utility.yul\":8792:9124   */\n      swap4\n      swap3\n      pop\n      pop\n      pop\n      jump\t// out\n        /* \"#utility.yul\":9130:9248   */\n    tag_435:\n        /* \"#utility.yul\":9201:9223   */\n      tag_580\n        /* \"#utility.yul\":9217:9222   */\n      dup2\n        /* \"#utility.yul\":9201:9223   */\n      tag_433\n      jump\t// in\n    tag_580:\n        /* \"#utility.yul\":9194:9199   */\n      dup2\n        /* \"#utility.yul\":9191:9224   */\n      eq\n        /* \"#utility.yul\":9181:9242   */\n      tag_581\n      jumpi\n        /* \"#utility.yul\":9238:9239   */\n      0x00\n        /* \"#utility.yul\":9235:9236   */\n      dup1\n        /* \"#utility.yul\":9228:9240   */\n      revert\n        /* \"#utility.yul\":9181:9242   */\n    tag_581:\n        /* \"#utility.yul\":9130:9248   */\n      pop\n      jump\t// out\n        /* \"#utility.yul\":9254:9389   */\n    tag_436:\n        /* \"#utility.yul\":9298:9303   */\n      0x00\n        /* \"#utility.yul\":9336:9342   */\n      dup2\n        /* \"#utility.yul\":9323:9343   */\n      calldataload\n        /* \"#utility.yul\":9314:9343   */\n      swap1\n      pop\n        /* \"#utility.yul\":9352:9383   */\n      tag_583\n        /* \"#utility.yul\":9377:9382   */\n      dup2\n        /* \"#utility.yul\":9352:9383   */\n      tag_435\n      jump\t// in\n    tag_583:\n        /* \"#utility.yul\":9254:9389   */\n      swap3\n      swap2\n      pop\n      pop\n      jump\t// out\n        /* \"#utility.yul\":9395:9517   */\n    tag_437:\n        /* \"#utility.yul\":9468:9492   */\n      tag_585\n        /* \"#utility.yul\":9486:9491   */\n      dup2\n        /* \"#utility.yul\":9468:9492   */\n      tag_431\n      jump\t// in\n    tag_585:\n        /* \"#utility.yul\":9461:9466   */\n      dup2\n        /* \"#utility.yul\":9458:9493   */\n      eq\n        /* \"#utility.yul\":9448:9511   */\n      tag_586\n      jumpi\n        /* \"#utility.yul\":9507:9508   */\n      0x00\n        /* \"#utility.yul\":9504:9505   */\n      dup1\n        /* \"#utility.yul\":9497:9509   */\n      revert\n        /* \"#utility.yul\":9448:9511   */\n    tag_586:\n        /* \"#utility.yul\":9395:9517   */\n      pop\n      jump\t// out\n        /* \"#utility.yul\":9523:9662   */\n    tag_438:\n        /* \"#utility.yul\":9569:9574   */\n      0x00\n        /* \"#utility.yul\":9607:9613   */\n      dup2\n        /* \"#utility.yul\":9594:9614   */\n      calldataload\n        /* \"#utility.yul\":9585:9614   */\n      swap1\n      pop\n        /* \"#utility.yul\":9623:9656   */\n      tag_588\n        /* \"#utility.yul\":9650:9655   */\n      dup2\n        /* \"#utility.yul\":9623:9656   */\n      tag_437\n      jump\t// in\n    tag_588:\n        /* \"#utility.yul\":9523:9662   */\n      swap3\n      swap2\n      pop\n      pop\n      jump\t// out\n        /* \"#utility.yul\":9668:10867   */\n    tag_119:\n        /* \"#utility.yul\":9779:9785   */\n      0x00\n        /* \"#utility.yul\":9787:9793   */\n      dup1\n        /* \"#utility.yul\":9795:9801   */\n      0x00\n        /* \"#utility.yul\":9803:9809   */\n      dup1\n        /* \"#utility.yul\":9811:9817   */\n      0x00\n        /* \"#utility.yul\":9819:9825   */\n      dup1\n        /* \"#utility.yul\":9827:9833   */\n      0x00\n        /* \"#utility.yul\":9876:9879   */\n      0xe0\n        /* \"#utility.yul\":9864:9873   */\n      dup9\n        /* \"#utility.yul\":9855:9862   */\n      dup11\n        /* \"#utility.yul\":9851:9874   */\n      sub\n        /* \"#utility.yul\":9847:9880   */\n      slt\n        /* \"#utility.yul\":9844:9964   */\n      iszero\n      tag_590\n      jumpi\n        /* \"#utility.yul\":9883:9962   */\n      tag_591\n      tag_405\n      jump\t// in\n    tag_591:\n        /* \"#utility.yul\":9844:9964   */\n    tag_590:\n        /* \"#utility.yul\":10003:10004   */\n      0x00\n        /* \"#utility.yul\":10028:10081   */\n      tag_592\n        /* \"#utility.yul\":10073:10080   */\n      dup11\n        /* \"#utility.yul\":10064:10070   */\n      dup3\n        /* \"#utility.yul\":10053:10062   */\n      dup12\n        /* \"#utility.yul\":10049:10071   */\n      add\n        /* \"#utility.yul\":10028:10081   */\n      tag_413\n      jump\t// in\n    tag_592:\n        /* \"#utility.yul\":10018:10081   */\n      swap8\n      pop\n        /* \"#utility.yul\":9974:10091   */\n      pop\n        /* \"#utility.yul\":10130:10132   */\n      0x20\n        /* \"#utility.yul\":10156:10209   */\n      tag_593\n        /* \"#utility.yul\":10201:10208   */\n      dup11\n        /* \"#utility.yul\":10192:10198   */\n      dup3\n        /* \"#utility.yul\":10181:10190   */\n      dup12\n        /* \"#utility.yul\":10177:10199   */\n      add\n        /* \"#utility.yul\":10156:10209   */\n      tag_413\n      jump\t// in\n    tag_593:\n        /* \"#utility.yul\":10146:10209   */\n      swap7\n      pop\n        /* \"#utility.yul\":10101:10219   */\n      pop\n        /* \"#utility.yul\":10258:10260   */\n      0x40\n        /* \"#utility.yul\":10284:10337   */\n      tag_594\n        /* \"#utility.yul\":10329:10336   */\n      dup11\n        /* \"#utility.yul\":10320:10326   */\n      dup3\n        /* \"#utility.yul\":10309:10318   */\n      dup12\n        /* \"#utility.yul\":10305:10327   */\n      add\n        /* \"#utility.yul\":10284:10337   */\n      tag_409\n      jump\t// in\n    tag_594:\n        /* \"#utility.yul\":10274:10337   */\n      swap6\n      pop\n        /* \"#utility.yul\":10229:10347   */\n      pop\n        /* \"#utility.yul\":10386:10388   */\n      0x60\n        /* \"#utility.yul\":10412:10465   */\n      tag_595\n        /* \"#utility.yul\":10457:10464   */\n      dup11\n        /* \"#utility.yul\":10448:10454   */\n      dup3\n        /* \"#utility.yul\":10437:10446   */\n      dup12\n        /* \"#utility.yul\":10433:10455   */\n      add\n        /* \"#utility.yul\":10412:10465   */\n      tag_409\n      jump\t// in\n    tag_595:\n        /* \"#utility.yul\":10402:10465   */\n      swap5\n      pop\n        /* \"#utility.yul\":10357:10475   */\n      pop\n        /* \"#utility.yul\":10514:10517   */\n      0x80\n        /* \"#utility.yul\":10541:10592   */\n      tag_596\n        /* \"#utility.yul\":10584:10591   */\n      dup11\n        /* \"#utility.yul\":10575:10581   */\n      dup3\n        /* \"#utility.yul\":10564:10573   */\n      dup12\n        /* \"#utility.yul\":10560:10582   */\n      add\n        /* \"#utility.yul\":10541:10592   */\n      tag_436\n      jump\t// in\n    tag_596:\n        /* \"#utility.yul\":10531:10592   */\n      swap4\n      pop\n        /* \"#utility.yul\":10485:10602   */\n      pop\n        /* \"#utility.yul\":10641:10644   */\n      0xa0\n        /* \"#utility.yul\":10668:10721   */\n      tag_597\n        /* \"#utility.yul\":10713:10720   */\n      dup11\n        /* \"#utility.yul\":10704:10710   */\n      dup3\n        /* \"#utility.yul\":10693:10702   */\n      dup12\n        /* \"#utility.yul\":10689:10711   */\n      add\n        /* \"#utility.yul\":10668:10721   */\n      tag_438\n      jump\t// in\n    tag_597:\n        /* \"#utility.yul\":10658:10721   */\n      swap3\n      pop\n        /* \"#utility.yul\":10612:10731   */\n      pop\n        /* \"#utility.yul\":10770:10773   */\n      0xc0\n        /* \"#utility.yul\":10797:10850   */\n      tag_598\n        /* \"#utility.yul\":10842:10849   */\n      dup11\n        /* \"#utility.yul\":10833:10839   */\n      dup3\n        /* \"#utility.yul\":10822:10831   */\n      dup12\n        /* \"#utility.yul\":10818:10840   */\n      add\n        /* \"#utility.yul\":10797:10850   */\n      tag_438\n      jump\t// in\n    tag_598:\n        /* \"#utility.yul\":10787:10850   */\n      swap2\n      pop\n        /* \"#utility.yul\":10741:10860   */\n      pop\n        /* \"#utility.yul\":9668:10867   */\n      swap3\n      swap6\n      swap9\n      swap2\n      swap5\n      swap8\n      pop\n      swap3\n      swap6\n      pop\n      jump\t// out\n        /* \"#utility.yul\":10873:11347   */\n    tag_123:\n        /* \"#utility.yul\":10941:10947   */\n      0x00\n        /* \"#utility.yul\":10949:10955   */\n      dup1\n        /* \"#utility.yul\":10998:11000   */\n      0x40\n        /* \"#utility.yul\":10986:10995   */\n      dup4\n        /* \"#utility.yul\":10977:10984   */\n      dup6\n        /* \"#utility.yul\":10973:10996   */\n      sub\n        /* \"#utility.yul\":10969:11001   */\n      slt\n        /* \"#utility.yul\":10966:11085   */\n      iszero\n      tag_600\n      jumpi\n        /* \"#utility.yul\":11004:11083   */\n      tag_601\n      tag_405\n      jump\t// in\n    tag_601:\n        /* \"#utility.yul\":10966:11085   */\n    tag_600:\n        /* \"#utility.yul\":11124:11125   */\n      0x00\n        /* \"#utility.yul\":11149:11202   */\n      tag_602\n        /* \"#utility.yul\":11194:11201   */\n      dup6\n        /* \"#utility.yul\":11185:11191   */\n      dup3\n        /* \"#utility.yul\":11174:11183   */\n      dup7\n        /* \"#utility.yul\":11170:11192   */\n      add\n        /* \"#utility.yul\":11149:11202   */\n      tag_413\n      jump\t// in\n    tag_602:\n        /* \"#utility.yul\":11139:11202   */\n      swap3\n      pop\n        /* \"#utility.yul\":11095:11212   */\n      pop\n        /* \"#utility.yul\":11251:11253   */\n      0x20\n        /* \"#utility.yul\":11277:11330   */\n      tag_603\n        /* \"#utility.yul\":11322:11329   */\n      dup6\n        /* \"#utility.yul\":11313:11319   */\n      dup3\n        /* \"#utility.yul\":11302:11311   */\n      dup7\n        /* \"#utility.yul\":11298:11320   */\n      add\n        /* \"#utility.yul\":11277:11330   */\n      tag_413\n      jump\t// in\n    tag_603:\n        /* \"#utility.yul\":11267:11330   */\n      swap2\n      pop\n        /* \"#utility.yul\":11222:11340   */\n      pop\n        /* \"#utility.yul\":10873:11347   */\n      swap3\n      pop\n      swap3\n      swap1\n      pop\n      jump\t// out\n        /* \"#utility.yul\":11353:11523   */\n    tag_439:\n        /* \"#utility.yul\":11493:11515   */\n      0x5061697255736474526f6e743a204c4f434b4544000000000000000000000000\n        /* \"#utility.yul\":11489:11490   */\n      0x00\n        /* \"#utility.yul\":11481:11487   */\n      dup3\n        /* \"#utility.yul\":11477:11491   */\n      add\n        /* \"#utility.yul\":11470:11516   */\n      mstore\n        /* \"#utility.yul\":11353:11523   */\n      pop\n      jump\t// out\n        /* \"#utility.yul\":11529:11895   */\n    tag_440:\n        /* \"#utility.yul\":11671:11674   */\n      0x00\n        /* \"#utility.yul\":11692:11759   */\n      tag_606\n        /* \"#utility.yul\":11756:11758   */\n      0x14\n        /* \"#utility.yul\":11751:11754   */\n      dup4\n        /* \"#utility.yul\":11692:11759   */\n      tag_419\n      jump\t// in\n    tag_606:\n        /* \"#utility.yul\":11685:11759   */\n      swap2\n      pop\n        /* \"#utility.yul\":11768:11861   */\n      tag_607\n        /* \"#utility.yul\":11857:11860   */\n      dup3\n        /* \"#utility.yul\":11768:11861   */\n      tag_439\n      jump\t// in\n    tag_607:\n        /* \"#utility.yul\":11886:11888   */\n      0x20\n        /* \"#utility.yul\":11881:11884   */\n      dup3\n        /* \"#utility.yul\":11877:11889   */\n      add\n        /* \"#utility.yul\":11870:11889   */\n      swap1\n      pop\n        /* \"#utility.yul\":11529:11895   */\n      swap2\n      swap1\n      pop\n      jump\t// out\n        /* \"#utility.yul\":11901:12320   */\n    tag_131:\n        /* \"#utility.yul\":12067:12071   */\n      0x00\n        /* \"#utility.yul\":12105:12107   */\n      0x20\n        /* \"#utility.yul\":12094:12103   */\n      dup3\n        /* \"#utility.yul\":12090:12108   */\n      add\n        /* \"#utility.yul\":12082:12108   */\n      swap1\n      pop\n        /* \"#utility.yul\":12154:12163   */\n      dup2\n        /* \"#utility.yul\":12148:12152   */\n      dup2\n        /* \"#utility.yul\":12144:12164   */\n      sub\n        /* \"#utility.yul\":12140:12141   */\n      0x00\n        /* \"#utility.yul\":12129:12138   */\n      dup4\n        /* \"#utility.yul\":12125:12142   */\n      add\n        /* \"#utility.yul\":12118:12165   */\n      mstore\n        /* \"#utility.yul\":12182:12313   */\n      tag_609\n        /* \"#utility.yul\":12308:12312   */\n      dup2\n        /* \"#utility.yul\":12182:12313   */\n      tag_440\n      jump\t// in\n    tag_609:\n        /* \"#utility.yul\":12174:12313   */\n      swap1\n      pop\n        /* \"#utility.yul\":11901:12320   */\n      swap2\n      swap1\n      pop\n      jump\t// out\n        /* \"#utility.yul\":12326:12553   */\n    tag_441:\n        /* \"#utility.yul\":12466:12500   */\n      0x5061697255736474526f6e743a20494e53554646494349454e545f4f55545055\n        /* \"#utility.yul\":12462:12463   */\n      0x00\n        /* \"#utility.yul\":12454:12460   */\n      dup3\n        /* \"#utility.yul\":12450:12464   */\n      add\n        /* \"#utility.yul\":12443:12501   */\n      mstore\n        /* \"#utility.yul\":12535:12545   */\n      0x545f414d4f554e54000000000000000000000000000000000000000000000000\n        /* \"#utility.yul\":12530:12532   */\n      0x20\n        /* \"#utility.yul\":12522:12528   */\n      dup3\n        /* \"#utility.yul\":12518:12533   */\n      add\n        /* \"#utility.yul\":12511:12546   */\n      mstore\n        /* \"#utility.yul\":12326:12553   */\n      pop\n      jump\t// out\n        /* \"#utility.yul\":12559:12925   */\n    tag_442:\n        /* \"#utility.yul\":12701:12704   */\n      0x00\n        /* \"#utility.yul\":12722:12789   */\n      tag_612\n        /* \"#utility.yul\":12786:12788   */\n      0x28\n        /* \"#utility.yul\":12781:12784   */\n      dup4\n        /* \"#utility.yul\":12722:12789   */\n      tag_419\n      jump\t// in\n    tag_612:\n        /* \"#utility.yul\":12715:12789   */\n      swap2\n      pop\n        /* \"#utility.yul\":12798:12891   */\n      tag_613\n        /* \"#utility.yul\":12887:12890   */\n      dup3\n        /* \"#utility.yul\":12798:12891   */\n      tag_441\n      jump\t// in\n    tag_613:\n        /* \"#utility.yul\":12916:12918   */\n      0x40\n        /* \"#utility.yul\":12911:12914   */\n      dup3\n        /* \"#utility.yul\":12907:12919   */\n      add\n        /* \"#utility.yul\":12900:12919   */\n      swap1\n      pop\n        /* \"#utility.yul\":12559:12925   */\n      swap2\n      swap1\n      pop\n      jump\t// out\n        /* \"#utility.yul\":12931:13350   */\n    tag_136:\n        /* \"#utility.yul\":13097:13101   */\n      0x00\n        /* \"#utility.yul\":13135:13137   */\n      0x20\n        /* \"#utility.yul\":13124:13133   */\n      dup3\n        /* \"#utility.yul\":13120:13138   */\n      add\n        /* \"#utility.yul\":13112:13138   */\n      swap1\n      pop\n        /* \"#utility.yul\":13184:13193   */\n      dup2\n        /* \"#utility.yul\":13178:13182   */\n      dup2\n        /* \"#utility.yul\":13174:13194   */\n      sub\n        /* \"#utility.yul\":13170:13171   */\n      0x00\n        /* \"#utility.yul\":13159:13168   */\n      dup4\n        /* \"#utility.yul\":13155:13172   */\n      add\n        /* \"#utility.yul\":13148:13195   */\n      mstore\n        /* \"#utility.yul\":13212:13343   */\n      tag_615\n        /* \"#utility.yul\":13338:13342   */\n      dup2\n        /* \"#utility.yul\":13212:13343   */\n      tag_442\n      jump\t// in\n    tag_615:\n        /* \"#utility.yul\":13204:13343   */\n      swap1\n      pop\n        /* \"#utility.yul\":12931:13350   */\n      swap2\n      swap1\n      pop\n      jump\t// out\n        /* \"#utility.yul\":13356:13579   */\n    tag_443:\n        /* \"#utility.yul\":13496:13530   */\n      0x5061697255736474526f6e743a20494e53554646494349454e545f4c49515549\n        /* \"#utility.yul\":13492:13493   */\n      0x00\n        /* \"#utility.yul\":13484:13490   */\n      dup3\n        /* \"#utility.yul\":13480:13494   */\n      add\n        /* \"#utility.yul\":13473:13531   */\n      mstore\n        /* \"#utility.yul\":13565:13571   */\n      0x4449545900000000000000000000000000000000000000000000000000000000\n        /* \"#utility.yul\":13560:13562   */\n      0x20\n        /* \"#utility.yul\":13552:13558   */\n      dup3\n        /* \"#utility.yul\":13548:13563   */\n      add\n        /* \"#utility.yul\":13541:13572   */\n      mstore\n        /* \"#utility.yul\":13356:13579   */\n      pop\n      jump\t// out\n        /* \"#utility.yul\":13585:13951   */\n    tag_444:\n        /* \"#utility.yul\":13727:13730   */\n      0x00\n        /* \"#utility.yul\":13748:13815   */\n      tag_618\n        /* \"#utility.yul\":13812:13814   */\n      0x24\n        /* \"#utility.yul\":13807:13810   */\n      dup4\n        /* \"#utility.yul\":13748:13815   */\n      tag_419\n      jump\t// in\n    tag_618:\n        /* \"#utility.yul\":13741:13815   */\n      swap2\n      pop\n        /* \"#utility.yul\":13824:13917   */\n      tag_619\n        /* \"#utility.yul\":13913:13916   */\n      dup3\n        /* \"#utility.yul\":13824:13917   */\n      tag_443\n      jump\t// in\n    tag_619:\n        /* \"#utility.yul\":13942:13944   */\n      0x40\n        /* \"#utility.yul\":13937:13940   */\n      dup3\n        /* \"#utility.yul\":13933:13945   */\n      add\n        /* \"#utility.yul\":13926:13945   */\n      swap1\n      pop\n        /* \"#utility.yul\":13585:13951   */\n      swap2\n      swap1\n      pop\n      jump\t// out\n        /* \"#utility.yul\":13957:14376   */\n    tag_141:\n        /* \"#utility.yul\":14123:14127   */\n      0x00\n        /* \"#utility.yul\":14161:14163   */\n      0x20\n        /* \"#utility.yul\":14150:14159   */\n      dup3\n        /* \"#utility.yul\":14146:14164   */\n      add\n        /* \"#utility.yul\":14138:14164   */\n      swap1\n      pop\n        /* \"#utility.yul\":14210:14219   */\n      dup2\n        /* \"#utility.yul\":14204:14208   */\n      dup2\n        /* \"#utility.yul\":14200:14220   */\n      sub\n        /* \"#utility.yul\":14196:14197   */\n      0x00\n        /* \"#utility.yul\":14185:14194   */\n      dup4\n        /* \"#utility.yul\":14181:14198   */\n      add\n        /* \"#utility.yul\":14174:14221   */\n      mstore\n        /* \"#utility.yul\":14238:14369   */\n      tag_621\n        /* \"#utility.yul\":14364:14368   */\n      dup2\n        /* \"#utility.yul\":14238:14369   */\n      tag_444\n      jump\t// in\n    tag_621:\n        /* \"#utility.yul\":14230:14369   */\n      swap1\n      pop\n        /* \"#utility.yul\":13957:14376   */\n      swap2\n      swap1\n      pop\n      jump\t// out\n        /* \"#utility.yul\":14382:14529   */\n    tag_445:\n        /* \"#utility.yul\":14483:14494   */\n      0x00\n        /* \"#utility.yul\":14520:14523   */\n      dup2\n        /* \"#utility.yul\":14505:14523   */\n      swap1\n      pop\n        /* \"#utility.yul\":14382:14529   */\n      swap3\n      swap2\n      pop\n      pop\n      jump\t// out\n        /* \"#utility.yul\":14535:14681   */\n    tag_446:\n        /* \"#utility.yul\":14632:14638   */\n      dup3\n        /* \"#utility.yul\":14627:14630   */\n      dup2\n        /* \"#utility.yul\":14622:14625   */\n      dup4\n        /* \"#utility.yul\":14609:14639   */\n      calldatacopy\n        /* \"#utility.yul\":14673:14674   */\n      0x00\n        /* \"#utility.yul\":14664:14670   */\n      dup4\n        /* \"#utility.yul\":14659:14662   */\n      dup4\n        /* \"#utility.yul\":14655:14671   */\n      add\n        /* \"#utility.yul\":14648:14675   */\n      mstore\n        /* \"#utility.yul\":14535:14681   */\n      pop\n      pop\n      pop\n      jump\t// out\n        /* \"#utility.yul\":14709:15036   */\n    tag_447:\n        /* \"#utility.yul\":14823:14826   */\n      0x00\n        /* \"#utility.yul\":14844:14932   */\n      tag_625\n        /* \"#utility.yul\":14925:14931   */\n      dup4\n        /* \"#utility.yul\":14920:14923   */\n      dup6\n        /* \"#utility.yul\":14844:14932   */\n      tag_445\n      jump\t// in\n    tag_625:\n        /* \"#utility.yul\":14837:14932   */\n      swap4\n      pop\n        /* \"#utility.yul\":14942:14998   */\n      tag_626\n        /* \"#utility.yul\":14991:14997   */\n      dup4\n        /* \"#utility.yul\":14986:14989   */\n      dup6\n        /* \"#utility.yul\":14979:14984   */\n      dup5\n        /* \"#utility.yul\":14942:14998   */\n      tag_446\n      jump\t// in\n    tag_626:\n        /* \"#utility.yul\":15023:15029   */\n      dup3\n        /* \"#utility.yul\":15018:15021   */\n      dup5\n        /* \"#utility.yul\":15014:15030   */\n      add\n        /* \"#utility.yul\":15007:15030   */\n      swap1\n      pop\n        /* \"#utility.yul\":14709:15036   */\n      swap4\n      swap3\n      pop\n      pop\n      pop\n      jump\t// out\n        /* \"#utility.yul\":15042:15333   */\n    tag_143:\n        /* \"#utility.yul\":15182:15185   */\n      0x00\n        /* \"#utility.yul\":15204:15307   */\n      tag_628\n        /* \"#utility.yul\":15303:15306   */\n      dup3\n        /* \"#utility.yul\":15294:15300   */\n      dup5\n        /* \"#utility.yul\":15286:15292   */\n      dup7\n        /* \"#utility.yul\":15204:15307   */\n      tag_447\n      jump\t// in\n    tag_628:\n        /* \"#utility.yul\":15197:15307   */\n      swap2\n      pop\n        /* \"#utility.yul\":15324:15327   */\n      dup2\n        /* \"#utility.yul\":15317:15327   */\n      swap1\n      pop\n        /* \"#utility.yul\":15042:15333   */\n      swap4\n      swap3\n      pop\n      pop\n      pop\n      jump\t// out\n        /* \"#utility.yul\":15339:15513   */\n    tag_448:\n        /* \"#utility.yul\":15479:15505   */\n      0x5061697255736474526f6e743a20494e56414c49445f544f0000000000000000\n        /* \"#utility.yul\":15475:15476   */\n      0x00\n        /* \"#utility.yul\":15467:15473   */\n      dup3\n        /* \"#utility.yul\":15463:15477   */\n      add\n        /* \"#utility.yul\":15456:15506   */\n      mstore\n        /* \"#utility.yul\":15339:15513   */\n      pop\n      jump\t// out\n        /* \"#utility.yul\":15519:15885   */\n    tag_449:\n        /* \"#utility.yul\":15661:15664   */\n      0x00\n        /* \"#utility.yul\":15682:15749   */\n      tag_631\n        /* \"#utility.yul\":15746:15748   */\n      0x18\n        /* \"#utility.yul\":15741:15744   */\n      dup4\n        /* \"#utility.yul\":15682:15749   */\n      tag_419\n      jump\t// in\n    tag_631:\n        /* \"#utility.yul\":15675:15749   */\n      swap2\n      pop\n        /* \"#utility.yul\":15758:15851   */\n      tag_632\n        /* \"#utility.yul\":15847:15850   */\n      dup3\n        /* \"#utility.yul\":15758:15851   */\n      tag_448\n      jump\t// in\n    tag_632:\n        /* \"#utility.yul\":15876:15878   */\n      0x20\n        /* \"#utility.yul\":15871:15874   */\n      dup3\n        /* \"#utility.yul\":15867:15879   */\n      add\n        /* \"#utility.yul\":15860:15879   */\n      swap1\n      pop\n        /* \"#utility.yul\":15519:15885   */\n      swap2\n      swap1\n      pop\n      jump\t// out\n        /* \"#utility.yul\":15891:16310   */\n    tag_147:\n        /* \"#utility.yul\":16057:16061   */\n      0x00\n        /* \"#utility.yul\":16095:16097   */\n      0x20\n        /* \"#utility.yul\":16084:16093   */\n      dup3\n        /* \"#utility.yul\":16080:16098   */\n      add\n        /* \"#utility.yul\":16072:16098   */\n      swap1\n      pop\n        /* \"#utility.yul\":16144:16153   */\n      dup2\n        /* \"#utility.yul\":16138:16142   */\n      dup2\n        /* \"#utility.yul\":16134:16154   */\n      sub\n        /* \"#utility.yul\":16130:16131   */\n      0x00\n        /* \"#utility.yul\":16119:16128   */\n      dup4\n        /* \"#utility.yul\":16115:16132   */\n      add\n        /* \"#utility.yul\":16108:16155   */\n      mstore\n        /* \"#utility.yul\":16172:16303   */\n      tag_634\n        /* \"#utility.yul\":16298:16302   */\n      dup2\n        /* \"#utility.yul\":16172:16303   */\n      tag_449\n      jump\t// in\n    tag_634:\n        /* \"#utility.yul\":16164:16303   */\n      swap1\n      pop\n        /* \"#utility.yul\":15891:16310   */\n      swap2\n      swap1\n      pop\n      jump\t// out\n        /* \"#utility.yul\":16316:16459   */\n    tag_450:\n        /* \"#utility.yul\":16373:16378   */\n      0x00\n        /* \"#utility.yul\":16404:16410   */\n      dup2\n        /* \"#utility.yul\":16398:16411   */\n      mload\n        /* \"#utility.yul\":16389:16411   */\n      swap1\n      pop\n        /* \"#utility.yul\":16420:16453   */\n      tag_636\n        /* \"#utility.yul\":16447:16452   */\n      dup2\n        /* \"#utility.yul\":16420:16453   */\n      tag_408\n      jump\t// in\n    tag_636:\n        /* \"#utility.yul\":16316:16459   */\n      swap3\n      swap2\n      pop\n      pop\n      jump\t// out\n        /* \"#utility.yul\":16465:16816   */\n    tag_157:\n        /* \"#utility.yul\":16535:16541   */\n      0x00\n        /* \"#utility.yul\":16584:16586   */\n      0x20\n        /* \"#utility.yul\":16572:16581   */\n      dup3\n        /* \"#utility.yul\":16563:16570   */\n      dup5\n        /* \"#utility.yul\":16559:16582   */\n      sub\n        /* \"#utility.yul\":16555:16587   */\n      slt\n        /* \"#utility.yul\":16552:16671   */\n      iszero\n      tag_638\n      jumpi\n        /* \"#utility.yul\":16590:16669   */\n      tag_639\n      tag_405\n      jump\t// in\n    tag_639:\n        /* \"#utility.yul\":16552:16671   */\n    tag_638:\n        /* \"#utility.yul\":16710:16711   */\n      0x00\n        /* \"#utility.yul\":16735:16799   */\n      tag_640\n        /* \"#utility.yul\":16791:16798   */\n      dup5\n        /* \"#utility.yul\":16782:16788   */\n      dup3\n        /* \"#utility.yul\":16771:16780   */\n      dup6\n        /* \"#utility.yul\":16767:16789   */\n      add\n        /* \"#utility.yul\":16735:16799   */\n      tag_450\n      jump\t// in\n    tag_640:\n        /* \"#utility.yul\":16725:16799   */\n      swap2\n      pop\n        /* \"#utility.yul\":16681:16809   */\n      pop\n        /* \"#utility.yul\":16465:16816   */\n      swap3\n      swap2\n      pop\n      pop\n      jump\t// out\n        /* \"#utility.yul\":16822:17002   */\n    tag_451:\n        /* \"#utility.yul\":16870:16947   */\n      0x4e487b7100000000000000000000000000000000000000000000000000000000\n        /* \"#utility.yul\":16867:16868   */\n      0x00\n        /* \"#utility.yul\":16860:16948   */\n      mstore\n        /* \"#utility.yul\":16967:16971   */\n      0x11\n        /* \"#utility.yul\":16964:16965   */\n      0x04\n        /* \"#utility.yul\":16957:16972   */\n      mstore\n        /* \"#utility.yul\":16991:16995   */\n      0x24\n        /* \"#utility.yul\":16988:16989   */\n      0x00\n        /* \"#utility.yul\":16981:16996   */\n      revert\n        /* \"#utility.yul\":17008:17202   */\n    tag_163:\n        /* \"#utility.yul\":17048:17052   */\n      0x00\n        /* \"#utility.yul\":17068:17088   */\n      tag_643\n        /* \"#utility.yul\":17086:17087   */\n      dup3\n        /* \"#utility.yul\":17068:17088   */\n      tag_407\n      jump\t// in\n    tag_643:\n        /* \"#utility.yul\":17063:17088   */\n      swap2\n      pop\n        /* \"#utility.yul\":17102:17122   */\n      tag_644\n        /* \"#utility.yul\":17120:17121   */\n      dup4\n        /* \"#utility.yul\":17102:17122   */\n      tag_407\n      jump\t// in\n    tag_644:\n        /* \"#utility.yul\":17097:17122   */\n      swap3\n      pop\n        /* \"#utility.yul\":17146:17147   */\n      dup3\n        /* \"#utility.yul\":17143:17144   */\n      dup3\n        /* \"#utility.yul\":17139:17148   */\n      sub\n        /* \"#utility.yul\":17131:17148   */\n      swap1\n      pop\n        /* \"#utility.yul\":17170:17171   */\n      dup2\n        /* \"#utility.yul\":17164:17168   */\n      dup2\n        /* \"#utility.yul\":17161:17172   */\n      gt\n        /* \"#utility.yul\":17158:17195   */\n      iszero\n      tag_645\n      jumpi\n        /* \"#utility.yul\":17175:17193   */\n      tag_646\n      tag_451\n      jump\t// in\n    tag_646:\n        /* \"#utility.yul\":17158:17195   */\n    tag_645:\n        /* \"#utility.yul\":17008:17202   */\n      swap3\n      swap2\n      pop\n      pop\n      jump\t// out\n        /* \"#utility.yul\":17208:17434   */\n    tag_452:\n        /* \"#utility.yul\":17348:17382   */\n      0x5061697255736474526f6e743a20494e53554646494349454e545f494e505554\n        /* \"#utility.yul\":17344:17345   */\n      0x00\n        /* \"#utility.yul\":17336:17342   */\n      dup3\n        /* \"#utility.yul\":17332:17346   */\n      add\n        /* \"#utility.yul\":17325:17383   */\n      mstore\n        /* \"#utility.yul\":17417:17426   */\n      0x5f414d4f554e5400000000000000000000000000000000000000000000000000\n        /* \"#utility.yul\":17412:17414   */\n      0x20\n        /* \"#utility.yul\":17404:17410   */\n      dup3\n        /* \"#utility.yul\":17400:17415   */\n      add\n        /* \"#utility.yul\":17393:17427   */\n      mstore\n        /* \"#utility.yul\":17208:17434   */\n      pop\n      jump\t// out\n        /* \"#utility.yul\":17440:17806   */\n    tag_453:\n        /* \"#utility.yul\":17582:17585   */\n      0x00\n        /* \"#utility.yul\":17603:17670   */\n      tag_649\n        /* \"#utility.yul\":17667:17669   */\n      0x27\n        /* \"#utility.yul\":17662:17665   */\n      dup4\n        /* \"#utility.yul\":17603:17670   */\n      tag_419\n      jump\t// in\n    tag_649:\n        /* \"#utility.yul\":17596:17670   */\n      swap2\n      pop\n        /* \"#utility.yul\":17679:17772   */\n      tag_650\n        /* \"#utility.yul\":17768:17771   */\n      dup3\n        /* \"#utility.yul\":17679:17772   */\n      tag_452\n      jump\t// in\n    tag_650:\n        /* \"#utility.yul\":17797:17799   */\n      0x40\n        /* \"#utility.yul\":17792:17795   */\n      dup3\n        /* \"#utility.yul\":17788:17800   */\n      add\n        /* \"#utility.yul\":17781:17800   */\n      swap1\n      pop\n        /* \"#utility.yul\":17440:17806   */\n      swap2\n      swap1\n      pop\n      jump\t// out\n        /* \"#utility.yul\":17812:18231   */\n    tag_176:\n        /* \"#utility.yul\":17978:17982   */\n      0x00\n        /* \"#utility.yul\":18016:18018   */\n      0x20\n        /* \"#utility.yul\":18005:18014   */\n      dup3\n        /* \"#utility.yul\":18001:18019   */\n      add\n        /* \"#utility.yul\":17993:18019   */\n      swap1\n      pop\n        /* \"#utility.yul\":18065:18074   */\n      dup2\n        /* \"#utility.yul\":18059:18063   */\n      dup2\n        /* \"#utility.yul\":18055:18075   */\n      sub\n        /* \"#utility.yul\":18051:18052   */\n      0x00\n        /* \"#utility.yul\":18040:18049   */\n      dup4\n        /* \"#utility.yul\":18036:18053   */\n      add\n        /* \"#utility.yul\":18029:18076   */\n      mstore\n        /* \"#utility.yul\":18093:18224   */\n      tag_652\n        /* \"#utility.yul\":18219:18223   */\n      dup2\n        /* \"#utility.yul\":18093:18224   */\n      tag_453\n      jump\t// in\n    tag_652:\n        /* \"#utility.yul\":18085:18224   */\n      swap1\n      pop\n        /* \"#utility.yul\":17812:18231   */\n      swap2\n      swap1\n      pop\n      jump\t// out\n        /* \"#utility.yul\":18237:18647   */\n    tag_178:\n        /* \"#utility.yul\":18277:18284   */\n      0x00\n        /* \"#utility.yul\":18300:18320   */\n      tag_654\n        /* \"#utility.yul\":18318:18319   */\n      dup3\n        /* \"#utility.yul\":18300:18320   */\n      tag_407\n      jump\t// in\n    tag_654:\n        /* \"#utility.yul\":18295:18320   */\n      swap2\n      pop\n        /* \"#utility.yul\":18334:18354   */\n      tag_655\n        /* \"#utility.yul\":18352:18353   */\n      dup4\n        /* \"#utility.yul\":18334:18354   */\n      tag_407\n      jump\t// in\n    tag_655:\n        /* \"#utility.yul\":18329:18354   */\n      swap3\n      pop\n        /* \"#utility.yul\":18389:18390   */\n      dup3\n        /* \"#utility.yul\":18386:18387   */\n      dup3\n        /* \"#utility.yul\":18382:18391   */\n      mul\n        /* \"#utility.yul\":18411:18441   */\n      tag_656\n        /* \"#utility.yul\":18429:18440   */\n      dup2\n        /* \"#utility.yul\":18411:18441   */\n      tag_407\n      jump\t// in\n    tag_656:\n        /* \"#utility.yul\":18400:18441   */\n      swap2\n      pop\n        /* \"#utility.yul\":18590:18591   */\n      dup3\n        /* \"#utility.yul\":18581:18588   */\n      dup3\n        /* \"#utility.yul\":18577:18592   */\n      div\n        /* \"#utility.yul\":18574:18575   */\n      dup5\n        /* \"#utility.yul\":18571:18593   */\n      eq\n        /* \"#utility.yul\":18551:18552   */\n      dup4\n        /* \"#utility.yul\":18544:18553   */\n      iszero\n        /* \"#utility.yul\":18524:18607   */\n      or\n        /* \"#utility.yul\":18501:18640   */\n      tag_657\n      jumpi\n        /* \"#utility.yul\":18620:18638   */\n      tag_658\n      tag_451\n      jump\t// in\n    tag_658:\n        /* \"#utility.yul\":18501:18640   */\n    tag_657:\n        /* \"#utility.yul\":18285:18647   */\n      pop\n        /* \"#utility.yul\":18237:18647   */\n      swap3\n      swap2\n      pop\n      pop\n      jump\t// out\n        /* \"#utility.yul\":18653:18818   */\n    tag_454:\n        /* \"#utility.yul\":18793:18810   */\n      0x5061697255736474526f6e743a204b0000000000000000000000000000000000\n        /* \"#utility.yul\":18789:18790   */\n      0x00\n        /* \"#utility.yul\":18781:18787   */\n      dup3\n        /* \"#utility.yul\":18777:18791   */\n      add\n        /* \"#utility.yul\":18770:18811   */\n      mstore\n        /* \"#utility.yul\":18653:18818   */\n      pop\n      jump\t// out\n        /* \"#utility.yul\":18824:19190   */\n    tag_455:\n        /* \"#utility.yul\":18966:18969   */\n      0x00\n        /* \"#utility.yul\":18987:19054   */\n      tag_661\n        /* \"#utility.yul\":19051:19053   */\n      0x0f\n        /* \"#utility.yul\":19046:19049   */\n      dup4\n        /* \"#utility.yul\":18987:19054   */\n      tag_419\n      jump\t// in\n    tag_661:\n        /* \"#utility.yul\":18980:19054   */\n      swap2\n      pop\n        /* \"#utility.yul\":19063:19156   */\n      tag_662\n        /* \"#utility.yul\":19152:19155   */\n      dup3\n        /* \"#utility.yul\":19063:19156   */\n      tag_454\n      jump\t// in\n    tag_662:\n        /* \"#utility.yul\":19181:19183   */\n      0x20\n        /* \"#utility.yul\":19176:19179   */\n      dup3\n        /* \"#utility.yul\":19172:19184   */\n      add\n        /* \"#utility.yul\":19165:19184   */\n      swap1\n      pop\n        /* \"#utility.yul\":18824:19190   */\n      swap2\n      swap1\n      pop\n      jump\t// out\n        /* \"#utility.yul\":19196:19615   */\n    tag_189:\n        /* \"#utility.yul\":19362:19366   */\n      0x00\n        /* \"#utility.yul\":19400:19402   */\n      0x20\n        /* \"#utility.yul\":19389:19398   */\n      dup3\n        /* \"#utility.yul\":19385:19403   */\n      add\n        /* \"#utility.yul\":19377:19403   */\n      swap1\n      pop\n        /* \"#utility.yul\":19449:19458   */\n      dup2\n        /* \"#utility.yul\":19443:19447   */\n      dup2\n        /* \"#utility.yul\":19439:19459   */\n      sub\n        /* \"#utility.yul\":19435:19436   */\n      0x00\n        /* \"#utility.yul\":19424:19433   */\n      dup4\n        /* \"#utility.yul\":19420:19437   */\n      add\n        /* \"#utility.yul\":19413:19460   */\n      mstore\n        /* \"#utility.yul\":19477:19608   */\n      tag_664\n        /* \"#utility.yul\":19603:19607   */\n      dup2\n        /* \"#utility.yul\":19477:19608   */\n      tag_455\n      jump\t// in\n    tag_664:\n        /* \"#utility.yul\":19469:19608   */\n      swap1\n      pop\n        /* \"#utility.yul\":19196:19615   */\n      swap2\n      swap1\n      pop\n      jump\t// out\n        /* \"#utility.yul\":19621:19801   */\n    tag_456:\n        /* \"#utility.yul\":19669:19746   */\n      0x4e487b7100000000000000000000000000000000000000000000000000000000\n        /* \"#utility.yul\":19666:19667   */\n      0x00\n        /* \"#utility.yul\":19659:19747   */\n      mstore\n        /* \"#utility.yul\":19766:19770   */\n      0x12\n        /* \"#utility.yul\":19763:19764   */\n      0x04\n        /* \"#utility.yul\":19756:19771   */\n      mstore\n        /* \"#utility.yul\":19790:19794   */\n      0x24\n        /* \"#utility.yul\":19787:19788   */\n      0x00\n        /* \"#utility.yul\":19780:19795   */\n      revert\n        /* \"#utility.yul\":19807:19992   */\n    tag_229:\n        /* \"#utility.yul\":19847:19848   */\n      0x00\n        /* \"#utility.yul\":19864:19884   */\n      tag_667\n        /* \"#utility.yul\":19882:19883   */\n      dup3\n        /* \"#utility.yul\":19864:19884   */\n      tag_407\n      jump\t// in\n    tag_667:\n        /* \"#utility.yul\":19859:19884   */\n      swap2\n      pop\n        /* \"#utility.yul\":19898:19918   */\n      tag_668\n        /* \"#utility.yul\":19916:19917   */\n      dup4\n        /* \"#utility.yul\":19898:19918   */\n      tag_407\n      jump\t// in\n    tag_668:\n        /* \"#utility.yul\":19893:19918   */\n      swap3\n      pop\n        /* \"#utility.yul\":19937:19938   */\n      dup3\n        /* \"#utility.yul\":19927:19962   */\n      tag_669\n      jumpi\n        /* \"#utility.yul\":19942:19960   */\n      tag_670\n      tag_456\n      jump\t// in\n    tag_670:\n        /* \"#utility.yul\":19927:19962   */\n    tag_669:\n        /* \"#utility.yul\":19984:19985   */\n      dup3\n        /* \"#utility.yul\":19981:19982   */\n      dup3\n        /* \"#utility.yul\":19977:19986   */\n      div\n        /* \"#utility.yul\":19972:19986   */\n      swap1\n      pop\n        /* \"#utility.yul\":19807:19992   */\n      swap3\n      swap2\n      pop\n      pop\n      jump\t// out\n        /* \"#utility.yul\":19998:20228   */\n    tag_457:\n        /* \"#utility.yul\":20138:20172   */\n      0x5061697255736474526f6e743a20494e53554646494349454e545f4c49515549\n        /* \"#utility.yul\":20134:20135   */\n      0x00\n        /* \"#utility.yul\":20126:20132   */\n      dup3\n        /* \"#utility.yul\":20122:20136   */\n      add\n        /* \"#utility.yul\":20115:20173   */\n      mstore\n        /* \"#utility.yul\":20207:20220   */\n      0x444954595f4d494e544544000000000000000000000000000000000000000000\n        /* \"#utility.yul\":20202:20204   */\n      0x20\n        /* \"#utility.yul\":20194:20200   */\n      dup3\n        /* \"#utility.yul\":20190:20205   */\n      add\n        /* \"#utility.yul\":20183:20221   */\n      mstore\n        /* \"#utility.yul\":19998:20228   */\n      pop\n      jump\t// out\n        /* \"#utility.yul\":20234:20600   */\n    tag_458:\n        /* \"#utility.yul\":20376:20379   */\n      0x00\n        /* \"#utility.yul\":20397:20464   */\n      tag_673\n        /* \"#utility.yul\":20461:20463   */\n      0x2b\n        /* \"#utility.yul\":20456:20459   */\n      dup4\n        /* \"#utility.yul\":20397:20464   */\n      tag_419\n      jump\t// in\n    tag_673:\n        /* \"#utility.yul\":20390:20464   */\n      swap2\n      pop\n        /* \"#utility.yul\":20473:20566   */\n      tag_674\n        /* \"#utility.yul\":20562:20565   */\n      dup3\n        /* \"#utility.yul\":20473:20566   */\n      tag_457\n      jump\t// in\n    tag_674:\n        /* \"#utility.yul\":20591:20593   */\n      0x40\n        /* \"#utility.yul\":20586:20589   */\n      dup3\n        /* \"#utility.yul\":20582:20594   */\n      add\n        /* \"#utility.yul\":20575:20594   */\n      swap1\n      pop\n        /* \"#utility.yul\":20234:20600   */\n      swap2\n      swap1\n      pop\n      jump\t// out\n        /* \"#utility.yul\":20606:21025   */\n    tag_235:\n        /* \"#utility.yul\":20772:20776   */\n      0x00\n        /* \"#utility.yul\":20810:20812   */\n      0x20\n        /* \"#utility.yul\":20799:20808   */\n      dup3\n        /* \"#utility.yul\":20795:20813   */\n      add\n        /* \"#utility.yul\":20787:20813   */\n      swap1\n      pop\n        /* \"#utility.yul\":20859:20868   */\n      dup2\n        /* \"#utility.yul\":20853:20857   */\n      dup2\n        /* \"#utility.yul\":20849:20869   */\n      sub\n        /* \"#utility.yul\":20845:20846   */\n      0x00\n        /* \"#utility.yul\":20834:20843   */\n      dup4\n        /* \"#utility.yul\":20830:20847   */\n      add\n        /* \"#utility.yul\":20823:20870   */\n      mstore\n        /* \"#utility.yul\":20887:21018   */\n      tag_676\n        /* \"#utility.yul\":21013:21017   */\n      dup2\n        /* \"#utility.yul\":20887:21018   */\n      tag_458\n      jump\t// in\n    tag_676:\n        /* \"#utility.yul\":20879:21018   */\n      swap1\n      pop\n        /* \"#utility.yul\":20606:21025   */\n      swap2\n      swap1\n      pop\n      jump\t// out\n        /* \"#utility.yul\":21031:21261   */\n    tag_459:\n        /* \"#utility.yul\":21171:21205   */\n      0x5061697255736474526f6e743a20494e53554646494349454e545f4c49515549\n        /* \"#utility.yul\":21167:21168   */\n      0x00\n        /* \"#utility.yul\":21159:21165   */\n      dup3\n        /* \"#utility.yul\":21155:21169   */\n      add\n        /* \"#utility.yul\":21148:21206   */\n      mstore\n        /* \"#utility.yul\":21240:21253   */\n      0x444954595f4255524e4544000000000000000000000000000000000000000000\n        /* \"#utility.yul\":21235:21237   */\n      0x20\n        /* \"#utility.yul\":21227:21233   */\n      dup3\n        /* \"#utility.yul\":21223:21238   */\n      add\n        /* \"#utility.yul\":21216:21254   */\n      mstore\n        /* \"#utility.yul\":21031:21261   */\n      pop\n      jump\t// out\n        /* \"#utility.yul\":21267:21633   */\n    tag_460:\n        /* \"#utility.yul\":21409:21412   */\n      0x00\n        /* \"#utility.yul\":21430:21497   */\n      tag_679\n        /* \"#utility.yul\":21494:21496   */\n      0x2b\n        /* \"#utility.yul\":21489:21492   */\n      dup4\n        /* \"#utility.yul\":21430:21497   */\n      tag_419\n      jump\t// in\n    tag_679:\n        /* \"#utility.yul\":21423:21497   */\n      swap2\n      pop\n        /* \"#utility.yul\":21506:21599   */\n      tag_680\n        /* \"#utility.yul\":21595:21598   */\n      dup3\n        /* \"#utility.yul\":21506:21599   */\n      tag_459\n      jump\t// in\n    tag_680:\n        /* \"#utility.yul\":21624:21626   */\n      0x40\n        /* \"#utility.yul\":21619:21622   */\n      dup3\n        /* \"#utility.yul\":21615:21627   */\n      add\n        /* \"#utility.yul\":21608:21627   */\n      swap1\n      pop\n        /* \"#utility.yul\":21267:21633   */\n      swap2\n      swap1\n      pop\n      jump\t// out\n        /* \"#utility.yul\":21639:22058   */\n    tag_261:\n        /* \"#utility.yul\":21805:21809   */\n      0x00\n        /* \"#utility.yul\":21843:21845   */\n      0x20\n        /* \"#utility.yul\":21832:21841   */\n      dup3\n        /* \"#utility.yul\":21828:21846   */\n      add\n        /* \"#utility.yul\":21820:21846   */\n      swap1\n      pop\n        /* \"#utility.yul\":21892:21901   */\n      dup2\n        /* \"#utility.yul\":21886:21890   */\n      dup2\n        /* \"#utility.yul\":21882:21902   */\n      sub\n        /* \"#utility.yul\":21878:21879   */\n      0x00\n        /* \"#utility.yul\":21867:21876   */\n      dup4\n        /* \"#utility.yul\":21863:21880   */\n      add\n        /* \"#utility.yul\":21856:21903   */\n      mstore\n        /* \"#utility.yul\":21920:22051   */\n      tag_682\n        /* \"#utility.yul\":22046:22050   */\n      dup2\n        /* \"#utility.yul\":21920:22051   */\n      tag_460\n      jump\t// in\n    tag_682:\n        /* \"#utility.yul\":21912:22051   */\n      swap1\n      pop\n        /* \"#utility.yul\":21639:22058   */\n      swap2\n      swap1\n      pop\n      jump\t// out\n        /* \"#utility.yul\":22064:22232   */\n    tag_461:\n        /* \"#utility.yul\":22204:22224   */\n      0x556e697377617056323a20455850495245440000000000000000000000000000\n        /* \"#utility.yul\":22200:22201   */\n      0x00\n        /* \"#utility.yul\":22192:22198   */\n      dup3\n        /* \"#utility.yul\":22188:22202   */\n      add\n        /* \"#utility.yul\":22181:22225   */\n      mstore\n        /* \"#utility.yul\":22064:22232   */\n      pop\n      jump\t// out\n        /* \"#utility.yul\":22238:22604   */\n    tag_462:\n        /* \"#utility.yul\":22380:22383   */\n      0x00\n        /* \"#utility.yul\":22401:22468   */\n      tag_685\n        /* \"#utility.yul\":22465:22467   */\n      0x12\n        /* \"#utility.yul\":22460:22463   */\n      dup4\n        /* \"#utility.yul\":22401:22468   */\n      tag_419\n      jump\t// in\n    tag_685:\n        /* \"#utility.yul\":22394:22468   */\n      swap2\n      pop\n        /* \"#utility.yul\":22477:22570   */\n      tag_686\n        /* \"#utility.yul\":22566:22569   */\n      dup3\n        /* \"#utility.yul\":22477:22570   */\n      tag_461\n      jump\t// in\n    tag_686:\n        /* \"#utility.yul\":22595:22597   */\n      0x20\n        /* \"#utility.yul\":22590:22593   */\n      dup3\n        /* \"#utility.yul\":22586:22598   */\n      add\n        /* \"#utility.yul\":22579:22598   */\n      swap1\n      pop\n        /* \"#utility.yul\":22238:22604   */\n      swap2\n      swap1\n      pop\n      jump\t// out\n        /* \"#utility.yul\":22610:23029   */\n    tag_298:\n        /* \"#utility.yul\":22776:22780   */\n      0x00\n        /* \"#utility.yul\":22814:22816   */\n      0x20\n        /* \"#utility.yul\":22803:22812   */\n      dup3\n        /* \"#utility.yul\":22799:22817   */\n      add\n        /* \"#utility.yul\":22791:22817   */\n      swap1\n      pop\n        /* \"#utility.yul\":22863:22872   */\n      dup2\n        /* \"#utility.yul\":22857:22861   */\n      dup2\n        /* \"#utility.yul\":22853:22873   */\n      sub\n        /* \"#utility.yul\":22849:22850   */\n      0x00\n        /* \"#utility.yul\":22838:22847   */\n      dup4\n        /* \"#utility.yul\":22834:22851   */\n      add\n        /* \"#utility.yul\":22827:22874   */\n      mstore\n        /* \"#utility.yul\":22891:23022   */\n      tag_688\n        /* \"#utility.yul\":23017:23021   */\n      dup2\n        /* \"#utility.yul\":22891:23022   */\n      tag_462\n      jump\t// in\n    tag_688:\n        /* \"#utility.yul\":22883:23022   */\n      swap1\n      pop\n        /* \"#utility.yul\":22610:23029   */\n      swap2\n      swap1\n      pop\n      jump\t// out\n        /* \"#utility.yul\":23035:23268   */\n    tag_300:\n        /* \"#utility.yul\":23074:23077   */\n      0x00\n        /* \"#utility.yul\":23097:23121   */\n      tag_690\n        /* \"#utility.yul\":23115:23120   */\n      dup3\n        /* \"#utility.yul\":23097:23121   */\n      tag_407\n      jump\t// in\n    tag_690:\n        /* \"#utility.yul\":23088:23121   */\n      swap2\n      pop\n        /* \"#utility.yul\":23143:23209   */\n      0xffffffffffffffffffffffffffffffffffffffffffffffffffffffffffffffff\n        /* \"#utility.yul\":23136:23141   */\n      dup3\n        /* \"#utility.yul\":23133:23210   */\n      sub\n        /* \"#utility.yul\":23130:23233   */\n      tag_691\n      jumpi\n        /* \"#utility.yul\":23213:23231   */\n      tag_692\n      tag_451\n      jump\t// in\n    tag_692:\n        /* \"#utility.yul\":23130:23233   */\n    tag_691:\n        /* \"#utility.yul\":23260:23261   */\n      0x01\n        /* \"#utility.yul\":23253:23258   */\n      dup3\n        /* \"#utility.yul\":23249:23262   */\n      add\n        /* \"#utility.yul\":23242:23262   */\n      swap1\n      pop\n        /* \"#utility.yul\":23035:23268   */\n      swap2\n      swap1\n      pop\n      jump\t// out\n        /* \"#utility.yul\":23274:24049   */\n    tag_302:\n        /* \"#utility.yul\":23507:23511   */\n      0x00\n        /* \"#utility.yul\":23545:23548   */\n      0xc0\n        /* \"#utility.yul\":23534:23543   */\n      dup3\n        /* \"#utility.yul\":23530:23549   */\n      add\n        /* \"#utility.yul\":23522:23549   */\n      swap1\n      pop\n        /* \"#utility.yul\":23559:23630   */\n      tag_694\n        /* \"#utility.yul\":23627:23628   */\n      0x00\n        /* \"#utility.yul\":23616:23625   */\n      dup4\n        /* \"#utility.yul\":23612:23629   */\n      add\n        /* \"#utility.yul\":23603:23609   */\n      dup10\n        /* \"#utility.yul\":23559:23630   */\n      tag_432\n      jump\t// in\n    tag_694:\n        /* \"#utility.yul\":23640:23712   */\n      tag_695\n        /* \"#utility.yul\":23708:23710   */\n      0x20\n        /* \"#utility.yul\":23697:23706   */\n      dup4\n        /* \"#utility.yul\":23693:23711   */\n      add\n        /* \"#utility.yul\":23684:23690   */\n      dup9\n        /* \"#utility.yul\":23640:23712   */\n      tag_429\n      jump\t// in\n    tag_695:\n        /* \"#utility.yul\":23722:23794   */\n      tag_696\n        /* \"#utility.yul\":23790:23792   */\n      0x40\n        /* \"#utility.yul\":23779:23788   */\n      dup4\n        /* \"#utility.yul\":23775:23793   */\n      add\n        /* \"#utility.yul\":23766:23772   */\n      dup8\n        /* \"#utility.yul\":23722:23794   */\n      tag_429\n      jump\t// in\n    tag_696:\n        /* \"#utility.yul\":23804:23876   */\n      tag_697\n        /* \"#utility.yul\":23872:23874   */\n      0x60\n        /* \"#utility.yul\":23861:23870   */\n      dup4\n        /* \"#utility.yul\":23857:23875   */\n      add\n        /* \"#utility.yul\":23848:23854   */\n      dup7\n        /* \"#utility.yul\":23804:23876   */\n      tag_430\n      jump\t// in\n    tag_697:\n        /* \"#utility.yul\":23886:23959   */\n      tag_698\n        /* \"#utility.yul\":23954:23957   */\n      0x80\n        /* \"#utility.yul\":23943:23952   */\n      dup4\n        /* \"#utility.yul\":23939:23958   */\n      add\n        /* \"#utility.yul\":23930:23936   */\n      dup6\n        /* \"#utility.yul\":23886:23959   */\n      tag_430\n      jump\t// in\n    tag_698:\n        /* \"#utility.yul\":23969:24042   */\n      tag_699\n        /* \"#utility.yul\":24037:24040   */\n      0xa0\n        /* \"#utility.yul\":24026:24035   */\n      dup4\n        /* \"#utility.yul\":24022:24041   */\n      add\n        /* \"#utility.yul\":24013:24019   */\n      dup5\n        /* \"#utility.yul\":23969:24042   */\n      tag_430\n      jump\t// in\n    tag_699:\n        /* \"#utility.yul\":23274:24049   */\n      swap8\n      swap7\n      pop\n      pop\n      pop\n      pop\n      pop\n      pop\n      pop\n      jump\t// out\n        /* \"#utility.yul\":24055:24203   */\n    tag_463:\n        /* \"#utility.yul\":24157:24168   */\n      0x00\n        /* \"#utility.yul\":24194:24197   */\n      dup2\n        /* \"#utility.yul\":24179:24197   */\n      swap1\n      pop\n        /* \"#utility.yul\":24055:24203   */\n      swap3\n      swap2\n      pop\n      pop\n      jump\t// out\n        /* \"#utility.yul\":24209:24423   */\n    tag_464:\n        /* \"#utility.yul\":24349:24415   */\n      0x1901000000000000000000000000000000000000000000000000000000000000\n        /* \"#utility.yul\":24345:24346   */\n      0x00\n        /* \"#utility.yul\":24337:24343   */\n      dup3\n        /* \"#utility.yul\":24333:24347   */\n      add\n        /* \"#utility.yul\":24326:24416   */\n      mstore\n        /* \"#utility.yul\":24209:24423   */\n      pop\n      jump\t// out\n        /* \"#utility.yul\":24429:24829   */\n    tag_465:\n        /* \"#utility.yul\":24589:24592   */\n      0x00\n        /* \"#utility.yul\":24610:24694   */\n      tag_703\n        /* \"#utility.yul\":24692:24693   */\n      0x02\n        /* \"#utility.yul\":24687:24690   */\n      dup4\n        /* \"#utility.yul\":24610:24694   */\n      tag_463\n      jump\t// in\n    tag_703:\n        /* \"#utility.yul\":24603:24694   */\n      swap2\n      pop\n        /* \"#utility.yul\":24703:24796   */\n      tag_704\n        /* \"#utility.yul\":24792:24795   */\n      dup3\n        /* \"#utility.yul\":24703:24796   */\n      tag_464\n      jump\t// in\n    tag_704:\n        /* \"#utility.yul\":24821:24822   */\n      0x02\n        /* \"#utility.yul\":24816:24819   */\n      dup3\n        /* \"#utility.yul\":24812:24823   */\n      add\n        /* \"#utility.yul\":24805:24823   */\n      swap1\n      pop\n        /* \"#utility.yul\":24429:24829   */\n      swap2\n      swap1\n      pop\n      jump\t// out\n        /* \"#utility.yul\":24835:24914   */\n    tag_466:\n        /* \"#utility.yul\":24874:24881   */\n      0x00\n        /* \"#utility.yul\":24903:24908   */\n      dup2\n        /* \"#utility.yul\":24892:24908   */\n      swap1\n      pop\n        /* \"#utility.yul\":24835:24914   */\n      swap2\n      swap1\n      pop\n      jump\t// out\n        /* \"#utility.yul\":24920:25077   */\n    tag_467:\n        /* \"#utility.yul\":25025:25070   */\n      tag_707\n        /* \"#utility.yul\":25045:25069   */\n      tag_708\n        /* \"#utility.yul\":25063:25068   */\n      dup3\n        /* \"#utility.yul\":25045:25069   */\n      tag_431\n      jump\t// in\n    tag_708:\n        /* \"#utility.yul\":25025:25070   */\n      tag_466\n      jump\t// in\n    tag_707:\n        /* \"#utility.yul\":25020:25023   */\n      dup3\n        /* \"#utility.yul\":25013:25071   */\n      mstore\n        /* \"#utility.yul\":24920:25077   */\n      pop\n      pop\n      jump\t// out\n        /* \"#utility.yul\":25083:25746   */\n    tag_304:\n        /* \"#utility.yul\":25324:25327   */\n      0x00\n        /* \"#utility.yul\":25346:25494   */\n      tag_710\n        /* \"#utility.yul\":25490:25493   */\n      dup3\n        /* \"#utility.yul\":25346:25494   */\n      tag_465\n      jump\t// in\n    tag_710:\n        /* \"#utility.yul\":25339:25494   */\n      swap2\n      pop\n        /* \"#utility.yul\":25504:25579   */\n      tag_711\n        /* \"#utility.yul\":25575:25578   */\n      dup3\n        /* \"#utility.yul\":25566:25572   */\n      dup6\n        /* \"#utility.yul\":25504:25579   */\n      tag_467\n      jump\t// in\n    tag_711:\n        /* \"#utility.yul\":25604:25606   */\n      0x20\n        /* \"#utility.yul\":25599:25602   */\n      dup3\n        /* \"#utility.yul\":25595:25607   */\n      add\n        /* \"#utility.yul\":25588:25607   */\n      swap2\n      pop\n        /* \"#utility.yul\":25617:25692   */\n      tag_712\n        /* \"#utility.yul\":25688:25691   */\n      dup3\n        /* \"#utility.yul\":25679:25685   */\n      dup5\n        /* \"#utility.yul\":25617:25692   */\n      tag_467\n      jump\t// in\n    tag_712:\n        /* \"#utility.yul\":25717:25719   */\n      0x20\n        /* \"#utility.yul\":25712:25715   */\n      dup3\n        /* \"#utility.yul\":25708:25720   */\n      add\n        /* \"#utility.yul\":25701:25720   */\n      swap2\n      pop\n        /* \"#utility.yul\":25737:25740   */\n      dup2\n        /* \"#utility.yul\":25730:25740   */\n      swap1\n      pop\n        /* \"#utility.yul\":25083:25746   */\n      swap4\n      swap3\n      pop\n      pop\n      pop\n      jump\t// out\n        /* \"#utility.yul\":25752:26297   */\n    tag_306:\n        /* \"#utility.yul\":25925:25929   */\n      0x00\n        /* \"#utility.yul\":25963:25966   */\n      0x80\n        /* \"#utility.yul\":25952:25961   */\n      dup3\n        /* \"#utility.yul\":25948:25967   */\n      add\n        /* \"#utility.yul\":25940:25967   */\n      swap1\n      pop\n        /* \"#utility.yul\":25977:26048   */\n      tag_714\n        /* \"#utility.yul\":26045:26046   */\n      0x00\n        /* \"#utility.yul\":26034:26043   */\n      dup4\n        /* \"#utility.yul\":26030:26047   */\n      add\n        /* \"#utility.yul\":26021:26027   */\n      dup8\n        /* \"#utility.yul\":25977:26048   */\n      tag_432\n      jump\t// in\n    tag_714:\n        /* \"#utility.yul\":26058:26126   */\n      tag_715\n        /* \"#utility.yul\":26122:26124   */\n      0x20\n        /* \"#utility.yul\":26111:26120   */\n      dup4\n        /* \"#utility.yul\":26107:26125   */\n      add\n        /* \"#utility.yul\":26098:26104   */\n      dup7\n        /* \"#utility.yul\":26058:26126   */\n      tag_434\n      jump\t// in\n    tag_715:\n        /* \"#utility.yul\":26136:26208   */\n      tag_716\n        /* \"#utility.yul\":26204:26206   */\n      0x40\n        /* \"#utility.yul\":26193:26202   */\n      dup4\n        /* \"#utility.yul\":26189:26207   */\n      add\n        /* \"#utility.yul\":26180:26186   */\n      dup6\n        /* \"#utility.yul\":26136:26208   */\n      tag_432\n      jump\t// in\n    tag_716:\n        /* \"#utility.yul\":26218:26290   */\n      tag_717\n        /* \"#utility.yul\":26286:26288   */\n      0x60\n        /* \"#utility.yul\":26275:26284   */\n      dup4\n        /* \"#utility.yul\":26271:26289   */\n      add\n        /* \"#utility.yul\":26262:26268   */\n      dup5\n        /* \"#utility.yul\":26218:26290   */\n      tag_432\n      jump\t// in\n    tag_717:\n        /* \"#utility.yul\":25752:26297   */\n      swap6\n      swap5\n      pop\n      pop\n      pop\n      pop\n      pop\n      jump\t// out\n        /* \"#utility.yul\":26303:26481   */\n    tag_468:\n        /* \"#utility.yul\":26443:26473   */\n      0x556e697377617056323a20494e56414c49445f5349474e415455524500000000\n        /* \"#utility.yul\":26439:26440   */\n      0x00\n        /* \"#utility.yul\":26431:26437   */\n      dup3\n        /* \"#utility.yul\":26427:26441   */\n      add\n        /* \"#utility.yul\":26420:26474   */\n      mstore\n        /* \"#utility.yul\":26303:26481   */\n      pop\n      jump\t// out\n        /* \"#utility.yul\":26487:26853   */\n    tag_469:\n        /* \"#utility.yul\":26629:26632   */\n      0x00\n        /* \"#utility.yul\":26650:26717   */\n      tag_720\n        /* \"#utility.yul\":26714:26716   */\n      0x1c\n        /* \"#utility.yul\":26709:26712   */\n      dup4\n        /* \"#utility.yul\":26650:26717   */\n      tag_419\n      jump\t// in\n    tag_720:\n        /* \"#utility.yul\":26643:26717   */\n      swap2\n      pop\n        /* \"#utility.yul\":26726:26819   */\n      tag_721\n        /* \"#utility.yul\":26815:26818   */\n      dup3\n        /* \"#utility.yul\":26726:26819   */\n      tag_468\n      jump\t// in\n    tag_721:\n        /* \"#utility.yul\":26844:26846   */\n      0x20\n        /* \"#utility.yul\":26839:26842   */\n      dup3\n        /* \"#utility.yul\":26835:26847   */\n      add\n        /* \"#utility.yul\":26828:26847   */\n      swap1\n      pop\n        /* \"#utility.yul\":26487:26853   */\n      swap2\n      swap1\n      pop\n      jump\t// out\n        /* \"#utility.yul\":26859:27278   */\n    tag_312:\n        /* \"#utility.yul\":27025:27029   */\n      0x00\n        /* \"#utility.yul\":27063:27065   */\n      0x20\n        /* \"#utility.yul\":27052:27061   */\n      dup3\n        /* \"#utility.yul\":27048:27066   */\n      add\n        /* \"#utility.yul\":27040:27066   */\n      swap1\n      pop\n        /* \"#utility.yul\":27112:27121   */\n      dup2\n        /* \"#utility.yul\":27106:27110   */\n      dup2\n        /* \"#utility.yul\":27102:27122   */\n      sub\n        /* \"#utility.yul\":27098:27099   */\n      0x00\n        /* \"#utility.yul\":27087:27096   */\n      dup4\n        /* \"#utility.yul\":27083:27100   */\n      add\n        /* \"#utility.yul\":27076:27123   */\n      mstore\n        /* \"#utility.yul\":27140:27271   */\n      tag_723\n        /* \"#utility.yul\":27266:27270   */\n      dup2\n        /* \"#utility.yul\":27140:27271   */\n      tag_469\n      jump\t// in\n    tag_723:\n        /* \"#utility.yul\":27132:27271   */\n      swap1\n      pop\n        /* \"#utility.yul\":26859:27278   */\n      swap2\n      swap1\n      pop\n      jump\t// out\n        /* \"#utility.yul\":27284:27616   */\n    tag_329:\n        /* \"#utility.yul\":27405:27409   */\n      0x00\n        /* \"#utility.yul\":27443:27445   */\n      0x40\n        /* \"#utility.yul\":27432:27441   */\n      dup3\n        /* \"#utility.yul\":27428:27446   */\n      add\n        /* \"#utility.yul\":27420:27446   */\n      swap1\n      pop\n        /* \"#utility.yul\":27456:27527   */\n      tag_725\n        /* \"#utility.yul\":27524:27525   */\n      0x00\n        /* \"#utility.yul\":27513:27522   */\n      dup4\n        /* \"#utility.yul\":27509:27526   */\n      add\n        /* \"#utility.yul\":27500:27506   */\n      dup6\n        /* \"#utility.yul\":27456:27527   */\n      tag_429\n      jump\t// in\n    tag_725:\n        /* \"#utility.yul\":27537:27609   */\n      tag_726\n        /* \"#utility.yul\":27605:27607   */\n      0x20\n        /* \"#utility.yul\":27594:27603   */\n      dup4\n        /* \"#utility.yul\":27590:27608   */\n      add\n        /* \"#utility.yul\":27581:27587   */\n      dup5\n        /* \"#utility.yul\":27537:27609   */\n      tag_430\n      jump\t// in\n    tag_726:\n        /* \"#utility.yul\":27284:27616   */\n      swap4\n      swap3\n      pop\n      pop\n      pop\n      jump\t// out\n        /* \"#utility.yul\":27622:27720   */\n    tag_470:\n        /* \"#utility.yul\":27673:27679   */\n      0x00\n        /* \"#utility.yul\":27707:27712   */\n      dup2\n        /* \"#utility.yul\":27701:27713   */\n      mload\n        /* \"#utility.yul\":27691:27713   */\n      swap1\n      pop\n        /* \"#utility.yul\":27622:27720   */\n      swap2\n      swap1\n      pop\n      jump\t// out\n        /* \"#utility.yul\":27726:28112   */\n    tag_471:\n        /* \"#utility.yul\":27830:27833   */\n      0x00\n        /* \"#utility.yul\":27858:27896   */\n      tag_729\n        /* \"#utility.yul\":27890:27895   */\n      dup3\n        /* \"#utility.yul\":27858:27896   */\n      tag_470\n      jump\t// in\n    tag_729:\n        /* \"#utility.yul\":27912:28000   */\n      tag_730\n        /* \"#utility.yul\":27993:27999   */\n      dup2\n        /* \"#utility.yul\":27988:27991   */\n      dup6\n        /* \"#utility.yul\":27912:28000   */\n      tag_445\n      jump\t// in\n    tag_730:\n        /* \"#utility.yul\":27905:28000   */\n      swap4\n      pop\n        /* \"#utility.yul\":28009:28074   */\n      tag_731\n        /* \"#utility.yul\":28067:28073   */\n      dup2\n        /* \"#utility.yul\":28062:28065   */\n      dup6\n        /* \"#utility.yul\":28055:28059   */\n      0x20\n        /* \"#utility.yul\":28048:28053   */\n      dup7\n        /* \"#utility.yul\":28044:28060   */\n      add\n        /* \"#utility.yul\":28009:28074   */\n      tag_420\n      jump\t// in\n    tag_731:\n        /* \"#utility.yul\":28099:28105   */\n      dup1\n        /* \"#utility.yul\":28094:28097   */\n      dup5\n        /* \"#utility.yul\":28090:28106   */\n      add\n        /* \"#utility.yul\":28083:28106   */\n      swap2\n      pop\n        /* \"#utility.yul\":27834:28112   */\n      pop\n        /* \"#utility.yul\":27726:28112   */\n      swap3\n      swap2\n      pop\n      pop\n      jump\t// out\n        /* \"#utility.yul\":28118:28389   */\n    tag_331:\n        /* \"#utility.yul\":28248:28251   */\n      0x00\n        /* \"#utility.yul\":28270:28363   */\n      tag_733\n        /* \"#utility.yul\":28359:28362   */\n      dup3\n        /* \"#utility.yul\":28350:28356   */\n      dup5\n        /* \"#utility.yul\":28270:28363   */\n      tag_471\n      jump\t// in\n    tag_733:\n        /* \"#utility.yul\":28263:28363   */\n      swap2\n      pop\n        /* \"#utility.yul\":28380:28383   */\n      dup2\n        /* \"#utility.yul\":28373:28383   */\n      swap1\n      pop\n        /* \"#utility.yul\":28118:28389   */\n      swap3\n      swap2\n      pop\n      pop\n      jump\t// out\n        /* \"#utility.yul\":28395:28511   */\n    tag_472:\n        /* \"#utility.yul\":28465:28486   */\n      tag_735\n        /* \"#utility.yul\":28480:28485   */\n      dup2\n        /* \"#utility.yul\":28465:28486   */\n      tag_427\n      jump\t// in\n    tag_735:\n        /* \"#utility.yul\":28458:28463   */\n      dup2\n        /* \"#utility.yul\":28455:28487   */\n      eq\n        /* \"#utility.yul\":28445:28505   */\n      tag_736\n      jumpi\n        /* \"#utility.yul\":28501:28502   */\n      0x00\n        /* \"#utility.yul\":28498:28499   */\n      dup1\n        /* \"#utility.yul\":28491:28503   */\n      revert\n        /* \"#utility.yul\":28445:28505   */\n    tag_736:\n        /* \"#utility.yul\":28395:28511   */\n      pop\n      jump\t// out\n        /* \"#utility.yul\":28517:28654   */\n    tag_473:\n        /* \"#utility.yul\":28571:28576   */\n      0x00\n        /* \"#utility.yul\":28602:28608   */\n      dup2\n        /* \"#utility.yul\":28596:28609   */\n      mload\n        /* \"#utility.yul\":28587:28609   */\n      swap1\n      pop\n        /* \"#utility.yul\":28618:28648   */\n      tag_738\n        /* \"#utility.yul\":28642:28647   */\n      dup2\n        /* \"#utility.yul\":28618:28648   */\n      tag_472\n      jump\t// in\n    tag_738:\n        /* \"#utility.yul\":28517:28654   */\n      swap3\n      swap2\n      pop\n      pop\n      jump\t// out\n        /* \"#utility.yul\":28660:29005   */\n    tag_338:\n        /* \"#utility.yul\":28727:28733   */\n      0x00\n        /* \"#utility.yul\":28776:28778   */\n      0x20\n        /* \"#utility.yul\":28764:28773   */\n      dup3\n        /* \"#utility.yul\":28755:28762   */\n      dup5\n        /* \"#utility.yul\":28751:28774   */\n      sub\n        /* \"#utility.yul\":28747:28779   */\n      slt\n        /* \"#utility.yul\":28744:28863   */\n      iszero\n      tag_740\n      jumpi\n        /* \"#utility.yul\":28782:28861   */\n      tag_741\n      tag_405\n      jump\t// in\n    tag_741:\n        /* \"#utility.yul\":28744:28863   */\n    tag_740:\n        /* \"#utility.yul\":28902:28903   */\n      0x00\n        /* \"#utility.yul\":28927:28988   */\n      tag_742\n        /* \"#utility.yul\":28980:28987   */\n      dup5\n        /* \"#utility.yul\":28971:28977   */\n      dup3\n        /* \"#utility.yul\":28960:28969   */\n      dup6\n        /* \"#utility.yul\":28956:28978   */\n      add\n        /* \"#utility.yul\":28927:28988   */\n      tag_473\n      jump\t// in\n    tag_742:\n        /* \"#utility.yul\":28917:28988   */\n      swap2\n      pop\n        /* \"#utility.yul\":28873:28998   */\n      pop\n        /* \"#utility.yul\":28660:29005   */\n      swap3\n      swap2\n      pop\n      pop\n      jump\t// out\n        /* \"#utility.yul\":29011:29190   */\n    tag_474:\n        /* \"#utility.yul\":29151:29182   */\n      0x5061697255736474526f6e743a205452414e534645525f4641494c4544000000\n        /* \"#utility.yul\":29147:29148   */\n      0x00\n        /* \"#utility.yul\":29139:29145   */\n      dup3\n        /* \"#utility.yul\":29135:29149   */\n      add\n        /* \"#utility.yul\":29128:29183   */\n      mstore\n        /* \"#utility.yul\":29011:29190   */\n      pop\n      jump\t// out\n        /* \"#utility.yul\":29196:29562   */\n    tag_475:\n        /* \"#utility.yul\":29338:29341   */\n      0x00\n        /* \"#utility.yul\":29359:29426   */\n      tag_745\n        /* \"#utility.yul\":29423:29425   */\n      0x1d\n        /* \"#utility.yul\":29418:29421   */\n      dup4\n        /* \"#utility.yul\":29359:29426   */\n      tag_419\n      jump\t// in\n    tag_745:\n        /* \"#utility.yul\":29352:29426   */\n      swap2\n      pop\n        /* \"#utility.yul\":29435:29528   */\n      tag_746\n        /* \"#utility.yul\":29524:29527   */\n      dup3\n        /* \"#utility.yul\":29435:29528   */\n      tag_474\n      jump\t// in\n    tag_746:\n        /* \"#utility.yul\":29553:29555   */\n      0x20\n        /* \"#utility.yul\":29548:29551   */\n      dup3\n        /* \"#utility.yul\":29544:29556   */\n      add\n        /* \"#utility.yul\":29537:29556   */\n      swap1\n      pop\n        /* \"#utility.yul\":29196:29562   */\n      swap2\n      swap1\n      pop\n      jump\t// out\n        /* \"#utility.yul\":29568:29987   */\n    tag_341:\n        /* \"#utility.yul\":29734:29738   */\n      0x00\n        /* \"#utility.yul\":29772:29774   */\n      0x20\n        /* \"#utility.yul\":29761:29770   */\n      dup3\n        /* \"#utility.yul\":29757:29775   */\n      add\n        /* \"#utility.yul\":29749:29775   */\n      swap1\n      pop\n        /* \"#utility.yul\":29821:29830   */\n      dup2\n        /* \"#utility.yul\":29815:29819   */\n      dup2\n        /* \"#utility.yul\":29811:29831   */\n      sub\n        /* \"#utility.yul\":29807:29808   */\n      0x00\n        /* \"#utility.yul\":29796:29805   */\n      dup4\n        /* \"#utility.yul\":29792:29809   */\n      add\n        /* \"#utility.yul\":29785:29832   */\n      mstore\n        /* \"#utility.yul\":29849:29980   */\n      tag_748\n        /* \"#utility.yul\":29975:29979   */\n      dup2\n        /* \"#utility.yul\":29849:29980   */\n      tag_475\n      jump\t// in\n    tag_748:\n        /* \"#utility.yul\":29841:29980   */\n      swap1\n      pop\n        /* \"#utility.yul\":29568:29987   */\n      swap2\n      swap1\n      pop\n      jump\t// out\n        /* \"#utility.yul\":29993:30169   */\n    tag_344:\n        /* \"#utility.yul\":30025:30026   */\n      0x00\n        /* \"#utility.yul\":30042:30062   */\n      tag_750\n        /* \"#utility.yul\":30060:30061   */\n      dup3\n        /* \"#utility.yul\":30042:30062   */\n      tag_407\n      jump\t// in\n    tag_750:\n        /* \"#utility.yul\":30037:30062   */\n      swap2\n      pop\n        /* \"#utility.yul\":30076:30096   */\n      tag_751\n        /* \"#utility.yul\":30094:30095   */\n      dup4\n        /* \"#utility.yul\":30076:30096   */\n      tag_407\n      jump\t// in\n    tag_751:\n        /* \"#utility.yul\":30071:30096   */\n      swap3\n      pop\n        /* \"#utility.yul\":30115:30116   */\n      dup3\n        /* \"#utility.yul\":30105:30140   */\n      tag_752\n      jumpi\n        /* \"#utility.yul\":30120:30138   */\n      tag_753\n      tag_456\n      jump\t// in\n    tag_753:\n        /* \"#utility.yul\":30105:30140   */\n    tag_752:\n        /* \"#utility.yul\":30161:30162   */\n      dup3\n        /* \"#utility.yul\":30158:30159   */\n      dup3\n        /* \"#utility.yul\":30154:30163   */\n      mod\n        /* \"#utility.yul\":30149:30163   */\n      swap1\n      pop\n        /* \"#utility.yul\":29993:30169   */\n      swap3\n      swap2\n      pop\n      pop\n      jump\t// out\n        /* \"#utility.yul\":30175:30375   */\n    tag_346:\n        /* \"#utility.yul\":30214:30218   */\n      0x00\n        /* \"#utility.yul\":30234:30253   */\n      tag_755\n        /* \"#utility.yul\":30251:30252   */\n      dup3\n        /* \"#utility.yul\":30234:30253   */\n      tag_425\n      jump\t// in\n    tag_755:\n        /* \"#utility.yul\":30229:30253   */\n      swap2\n      pop\n        /* \"#utility.yul\":30267:30286   */\n      tag_756\n        /* \"#utility.yul\":30284:30285   */\n      dup4\n        /* \"#utility.yul\":30267:30286   */\n      tag_425\n      jump\t// in\n    tag_756:\n        /* \"#utility.yul\":30262:30286   */\n      swap3\n      pop\n        /* \"#utility.yul\":30310:30311   */\n      dup3\n        /* \"#utility.yul\":30307:30308   */\n      dup3\n        /* \"#utility.yul\":30303:30312   */\n      sub\n        /* \"#utility.yul\":30295:30312   */\n      swap1\n      pop\n        /* \"#utility.yul\":30334:30344   */\n      0xffffffff\n        /* \"#utility.yul\":30328:30332   */\n      dup2\n        /* \"#utility.yul\":30325:30345   */\n      gt\n        /* \"#utility.yul\":30322:30368   */\n      iszero\n      tag_757\n      jumpi\n        /* \"#utility.yul\":30348:30366   */\n      tag_758\n      tag_451\n      jump\t// in\n    tag_758:\n        /* \"#utility.yul\":30322:30368   */\n    tag_757:\n        /* \"#utility.yul\":30175:30375   */\n      swap3\n      swap2\n      pop\n      pop\n      jump\t// out\n        /* \"#utility.yul\":30381:30523   */\n    tag_476:\n        /* \"#utility.yul\":30418:30425   */\n      0x00\n        /* \"#utility.yul\":30458:30516   */\n      0xffffffffffffffffffffffffffffffffffffffffffffffffffffffff\n        /* \"#utility.yul\":30451:30456   */\n      dup3\n        /* \"#utility.yul\":30447:30517   */\n      and\n        /* \"#utility.yul\":30436:30517   */\n      swap1\n      pop\n        /* \"#utility.yul\":30381:30523   */\n      swap2\n      swap1\n      pop\n      jump\t// out\n        /* \"#utility.yul\":30529:30714   */\n    tag_353:\n        /* \"#utility.yul\":30569:30570   */\n      0x00\n        /* \"#utility.yul\":30586:30606   */\n      tag_761\n        /* \"#utility.yul\":30604:30605   */\n      dup3\n        /* \"#utility.yul\":30586:30606   */\n      tag_476\n      jump\t// in\n    tag_761:\n        /* \"#utility.yul\":30581:30606   */\n      swap2\n      pop\n        /* \"#utility.yul\":30620:30640   */\n      tag_762\n        /* \"#utility.yul\":30638:30639   */\n      dup4\n        /* \"#utility.yul\":30620:30640   */\n      tag_476\n      jump\t// in\n    tag_762:\n        /* \"#utility.yul\":30615:30640   */\n      swap3\n      pop\n        /* \"#utility.yul\":30659:30660   */\n      dup3\n        /* \"#utility.yul\":30649:30684   */\n      tag_763\n      jumpi\n        /* \"#utility.yul\":30664:30682   */\n      tag_764\n      tag_456\n      jump\t// in\n    tag_764:\n        /* \"#utility.yul\":30649:30684   */\n    tag_763:\n        /* \"#utility.yul\":30706:30707   */\n      dup3\n        /* \"#utility.yul\":30703:30704   */\n      dup3\n        /* \"#utility.yul\":30699:30708   */\n      div\n        /* \"#utility.yul\":30694:30708   */\n      swap1\n      pop\n        /* \"#utility.yul\":30529:30714   */\n      swap3\n      swap2\n      pop\n      pop\n      jump\t// out\n        /* \"#utility.yul\":30720:30911   */\n    tag_356:\n        /* \"#utility.yul\":30760:30763   */\n      0x00\n        /* \"#utility.yul\":30779:30799   */\n      tag_766\n        /* \"#utility.yul\":30797:30798   */\n      dup3\n        /* \"#utility.yul\":30779:30799   */\n      tag_407\n      jump\t// in\n    tag_766:\n        /* \"#utility.yul\":30774:30799   */\n      swap2\n      pop\n        /* \"#utility.yul\":30813:30833   */\n      tag_767\n        /* \"#utility.yul\":30831:30832   */\n      dup4\n        /* \"#utility.yul\":30813:30833   */\n      tag_407\n      jump\t// in\n    tag_767:\n        /* \"#utility.yul\":30808:30833   */\n      swap3\n      pop\n        /* \"#utility.yul\":30856:30857   */\n      dup3\n        /* \"#utility.yul\":30853:30854   */\n      dup3\n        /* \"#utility.yul\":30849:30858   */\n      add\n        /* \"#utility.yul\":30842:30858   */\n      swap1\n      pop\n        /* \"#utility.yul\":30877:30880   */\n      dup1\n        /* \"#utility.yul\":30874:30875   */\n      dup3\n        /* \"#utility.yul\":30871:30881   */\n      gt\n        /* \"#utility.yul\":30868:30904   */\n      iszero\n      tag_768\n      jumpi\n        /* \"#utility.yul\":30884:30902   */\n      tag_769\n      tag_451\n      jump\t// in\n    tag_769:\n        /* \"#utility.yul\":30868:30904   */\n    tag_768:\n        /* \"#utility.yul\":30720:30911   */\n      swap3\n      swap2\n      pop\n      pop\n      jump\t// out\n        /* \"#utility.yul\":30917:31327   */\n    tag_403:\n        /* \"#utility.yul\":30957:30964   */\n      0x00\n        /* \"#utility.yul\":30980:31000   */\n      tag_771\n        /* \"#utility.yul\":30998:30999   */\n      dup3\n        /* \"#utility.yul\":30980:31000   */\n      tag_476\n      jump\t// in\n    tag_771:\n        /* \"#utility.yul\":30975:31000   */\n      swap2\n      pop\n        /* \"#utility.yul\":31014:31034   */\n      tag_772\n        /* \"#utility.yul\":31032:31033   */\n      dup4\n        /* \"#utility.yul\":31014:31034   */\n      tag_476\n      jump\t// in\n    tag_772:\n        /* \"#utility.yul\":31009:31034   */\n      swap3\n      pop\n        /* \"#utility.yul\":31069:31070   */\n      dup3\n        /* \"#utility.yul\":31066:31067   */\n      dup3\n        /* \"#utility.yul\":31062:31071   */\n      mul\n        /* \"#utility.yul\":31091:31121   */\n      tag_773\n        /* \"#utility.yul\":31109:31120   */\n      dup2\n        /* \"#utility.yul\":31091:31121   */\n      tag_476\n      jump\t// in\n    tag_773:\n        /* \"#utility.yul\":31080:31121   */\n      swap2\n      pop\n        /* \"#utility.yul\":31270:31271   */\n      dup3\n        /* \"#utility.yul\":31261:31268   */\n      dup3\n        /* \"#utility.yul\":31257:31272   */\n      div\n        /* \"#utility.yul\":31254:31255   */\n      dup5\n        /* \"#utility.yul\":31251:31273   */\n      eq\n        /* \"#utility.yul\":31231:31232   */\n      dup4\n        /* \"#utility.yul\":31224:31233   */\n      iszero\n        /* \"#utility.yul\":31204:31287   */\n      or\n        /* \"#utility.yul\":31181:31320   */\n      tag_774\n      jumpi\n        /* \"#utility.yul\":31300:31318   */\n      tag_775\n      tag_451\n      jump\t// in\n    tag_775:\n        /* \"#utility.yul\":31181:31320   */\n    tag_774:\n        /* \"#utility.yul\":30965:31327   */\n      pop\n        /* \"#utility.yul\":30917:31327   */\n      swap3\n      swap2\n      pop\n      pop\n      jump\t// out\n\n    auxdata: 0xa26469706673582212200e20a4e011b6f81fd4f1054e3e5078275b0bb44ac03605cfd2528e3c23d91b0f64736f6c63430008120033\n}\n",
				"bytecode": {
					"linkReferences": {},
					"object": "6080604052735b38da6a701c568545dcfcb03fcb875f56beddc46000806101000a81548173ffffffffffffffffffffffffffffffffffffffff021916908373ffffffffffffffffffffffffffffffffffffffff16021790555073d0da387609adc13779badaf1315a4904cd40976e600160006101000a81548173ffffffffffffffffffffffffffffffffffffffff021916908373ffffffffffffffffffffffffffffffffffffffff16021790555073d1f9c3397ea04d3de7f002cb9e63cb49d0deaa36600260006101000a81548173ffffffffffffffffffffffffffffffffffffffff021916908373ffffffffffffffffffffffffffffffffffffffff1602179055506001600c553480156200011457600080fd5b5060004690507f8b73c3c69bb8fe3d512ecc4cf759cc79239f7b179b0ffacaa9a75d522b39400f6040518060400160405280600e81526020017f45524320556e6973776170205632000000000000000000000000000000000000815250805190602001206040518060400160405280600181526020017f3100000000000000000000000000000000000000000000000000000000000000815250805190602001208330604051602001620001cd959493929190620002ad565b60405160208183030381529060405280519060200120600681905550604051620001f79062000365565b60405180910390207fcf34ef537ac33ee1ac626ca1587a0a7e8e51561e5514f8cb36afa1c5102b3bab60405160405180910390a2506200037c565b6000819050919050565b620002478162000232565b82525050565b6000819050919050565b62000262816200024d565b82525050565b600073ffffffffffffffffffffffffffffffffffffffff82169050919050565b6000620002958262000268565b9050919050565b620002a78162000288565b82525050565b600060a082019050620002c460008301886200023c565b620002d360208301876200023c565b620002e260408301866200023c565b620002f1606083018562000257565b6200030060808301846200029c565b9695505050505050565b600081905092915050565b7f5061697220555344542d524f4e5420636f6e7472616374206372656174656400600082015250565b60006200034d601f836200030a565b91506200035a8262000315565b601f82019050919050565b600062000372826200033e565b9150819050919050565b6134d4806200038c6000396000f3fe608060405234801561001057600080fd5b50600436106101735760003560e01c80636a627842116100de578063a9059cbb11610097578063d21220a711610071578063d21220a71461046b578063d505accf14610489578063dd62ed3e146104a5578063fff6cae9146104d557610173565b8063a9059cbb14610401578063ba9a7a5614610431578063bc25cf771461044f57610173565b80636a6278421461030457806370a08231146103345780637464fc3d146103645780637ecebe001461038257806389afcb44146103b257806395d89b41146103e357610173565b806323b872dd1161013057806323b872dd1461023e57806330adf81f1461026e578063313ce5671461028c5780633644e515146102aa5780635909c0d5146102c85780635a3d5493146102e657610173565b8063022c0d9f1461017857806306fdde03146101945780630902f1ac146101b2578063095ea7b3146101d25780630dfe16811461020257806318160ddd14610220575b600080fd5b610192600480360381019061018d9190612522565b6104df565b005b61019c610a4b565b6040516101a9919061263a565b60405180910390f35b6101ba610a84565b6040516101c9939291906126a4565b60405180910390f35b6101ec60048036038101906101e791906126db565b610ae1565b6040516101f99190612736565b60405180910390f35b61020a610af8565b6040516102179190612760565b60405180910390f35b610228610b1e565b604051610235919061278a565b60405180910390f35b610258600480360381019061025391906127a5565b610b24565b6040516102659190612736565b60405180910390f35b610276610cd8565b6040516102839190612811565b60405180910390f35b610294610cff565b6040516102a19190612848565b60405180910390f35b6102b2610d04565b6040516102bf9190612811565b60405180910390f35b6102d0610d0a565b6040516102dd919061278a565b60405180910390f35b6102ee610d10565b6040516102fb919061278a565b60405180910390f35b61031e60048036038101906103199190612863565b610d16565b60405161032b919061278a565b60405180910390f35b61034e60048036038101906103499190612863565b61107d565b60405161035b919061278a565b60405180910390f35b61036c611095565b604051610379919061278a565b60405180910390f35b61039c60048036038101906103979190612863565b61109b565b6040516103a9919061278a565b60405180910390f35b6103cc60048036038101906103c79190612863565b6110b3565b6040516103da929190612890565b60405180910390f35b6103eb6114e2565b6040516103f8919061263a565b60405180910390f35b61041b600480360381019061041691906126db565b61151b565b6040516104289190612736565b60405180910390f35b610439611532565b604051610446919061278a565b60405180910390f35b61046960048036038101906104649190612863565b611537565b005b610473611755565b6040516104809190612760565b60405180910390f35b6104a3600480360381019061049e9190612911565b61177b565b005b6104bf60048036038101906104ba91906129b3565b6119a3565b6040516104cc919061278a565b60405180910390f35b6104dd6119c8565b005b6001600c5414610524576040517f08c379a000000000000000000000000000000000000000000000000000000000815260040161051b90612a3f565b60405180910390fd5b6000600c81905550600085118061053b5750600084115b61057a576040517f08c379a000000000000000000000000000000000000000000000000000000000815260040161057190612ad1565b60405180910390fd5b600080610585610a84565b5091509150816dffffffffffffffffffffffffffff16871080156105b85750806dffffffffffffffffffffffffffff1686105b6105f7576040517f08c379a00000000000000000000000000000000000000000000000000000000081526004016105ee90612b63565b60405180910390fd5b8383604051610607929190612bc2565b60405180910390207f532fd6ea96cfb78bb46e09279a26828b8b493de1a2b8b1ee1face527978a15a560405160405180910390a26000806000600160009054906101000a900473ffffffffffffffffffffffffffffffffffffffff1690506000600260009054906101000a900473ffffffffffffffffffffffffffffffffffffffff1690508173ffffffffffffffffffffffffffffffffffffffff168973ffffffffffffffffffffffffffffffffffffffff16141580156106f457508073ffffffffffffffffffffffffffffffffffffffff168973ffffffffffffffffffffffffffffffffffffffff1614155b610733576040517f08c379a000000000000000000000000000000000000000000000000000000000815260040161072a90612c27565b60405180910390fd5b60008b111561074857610747828a8d611b99565b5b60008a111561075d5761075c818a8c611b99565b5b8173ffffffffffffffffffffffffffffffffffffffff166370a08231306040518263ffffffff1660e01b81526004016107969190612760565b602060405180830381865afa1580156107b3573d6000803e3d6000fd5b505050506040513d601f19601f820116820180604052508101906107d79190612c5c565b93508073ffffffffffffffffffffffffffffffffffffffff166370a08231306040518263ffffffff1660e01b81526004016108129190612760565b602060405180830381865afa15801561082f573d6000803e3d6000fd5b505050506040513d601f19601f820116820180604052508101906108539190612c5c565b92505050600089856dffffffffffffffffffffffffffff166108759190612cb8565b83116108825760006108aa565b89856dffffffffffffffffffffffffffff1661089e9190612cb8565b836108a99190612cb8565b5b9050600089856dffffffffffffffffffffffffffff166108ca9190612cb8565b83116108d75760006108ff565b89856dffffffffffffffffffffffffffff166108f39190612cb8565b836108fe9190612cb8565b5b905060008211806109105750600081115b61094f576040517f08c379a000000000000000000000000000000000000000000000000000000000815260040161094690612d5e565b60405180910390fd5b600060038361095e9190612d7e565b6103e88661096c9190612d7e565b6109769190612cb8565b905060006003836109879190612d7e565b6103e8866109959190612d7e565b61099f9190612cb8565b9050620f4240876dffffffffffffffffffffffffffff16896dffffffffffffffffffffffffffff166109d19190612d7e565b6109db9190612d7e565b81836109e79190612d7e565b1015610a28576040517f08c379a0000000000000000000000000000000000000000000000000000000008152600401610a1f90612e0c565b60405180910390fd5b5050610a3684848888611d23565b5050505050506001600c819055505050505050565b6040518060400160405280600e81526020017f45524320556e697377617020563200000000000000000000000000000000000081525081565b6000806000600860009054906101000a90046dffffffffffffffffffffffffffff1692506008600e9054906101000a90046dffffffffffffffffffffffffffff1691506008601c9054906101000a900463ffffffff169050909192565b6000610aee338484611f0d565b6001905092915050565b600160009054906101000a900473ffffffffffffffffffffffffffffffffffffffff1681565b60035481565b60006fffffffffffffffffffffffffffffffff600560008673ffffffffffffffffffffffffffffffffffffffff1673ffffffffffffffffffffffffffffffffffffffff16815260200190815260200160002060003373ffffffffffffffffffffffffffffffffffffffff1673ffffffffffffffffffffffffffffffffffffffff1681526020019081526020016000205414610cc25781600560008673ffffffffffffffffffffffffffffffffffffffff1673ffffffffffffffffffffffffffffffffffffffff16815260200190815260200160002060003373ffffffffffffffffffffffffffffffffffffffff1673ffffffffffffffffffffffffffffffffffffffff16815260200190815260200160002054610c419190612cb8565b600560008673ffffffffffffffffffffffffffffffffffffffff1673ffffffffffffffffffffffffffffffffffffffff16815260200190815260200160002060003373ffffffffffffffffffffffffffffffffffffffff1673ffffffffffffffffffffffffffffffffffffffff168152602001908152602001600020819055505b610ccd848484611f93565b600190509392505050565b7f6e71edae12b1b97f4d1f60370fef10105fa2faae0126114a169c64845d6126c960001b81565b601281565b60065481565b60095481565b600a5481565b60006001600c5414610d5d576040517f08c379a0000000000000000000000000000000000000000000000000000000008152600401610d5490612a3f565b60405180910390fd5b6000600c81905550600080610d70610a84565b50915091506000600160009054906101000a900473ffffffffffffffffffffffffffffffffffffffff1673ffffffffffffffffffffffffffffffffffffffff166370a08231306040518263ffffffff1660e01b8152600401610dd29190612760565b602060405180830381865afa158015610def573d6000803e3d6000fd5b505050506040513d601f19601f82011682018060405250810190610e139190612c5c565b90506000600260009054906101000a900473ffffffffffffffffffffffffffffffffffffffff1673ffffffffffffffffffffffffffffffffffffffff166370a08231306040518263ffffffff1660e01b8152600401610e729190612760565b602060405180830381865afa158015610e8f573d6000803e3d6000fd5b505050506040513d601f19601f82011682018060405250810190610eb39190612c5c565b90506000846dffffffffffffffffffffffffffff1683610ed39190612cb8565b90506000846dffffffffffffffffffffffffffff1683610ef39190612cb8565b90506000610f0187876120b4565b90506000600354905060008103610f45576001610f288486610f239190612d7e565b61220c565b610f329190612cb8565b9850610f4060006001612286565b610f9e565b610f9b886dffffffffffffffffffffffffffff168286610f659190612d7e565b610f6f9190612e5b565b886dffffffffffffffffffffffffffff168386610f8c9190612d7e565b610f969190612e5b565b61232c565b98505b60008911610fe1576040517f08c379a0000000000000000000000000000000000000000000000000000000008152600401610fd890612efe565b60405180910390fd5b610feb8a8a612286565b610ff786868a8a611d23565b8115611068576008600e9054906101000a90046dffffffffffffffffffffffffffff166dffffffffffffffffffffffffffff16600860009054906101000a90046dffffffffffffffffffffffffffff166dffffffffffffffffffffffffffff166110619190612d7e565b600b819055505b50505050505050506001600c81905550919050565b60046020528060005260406000206000915090505481565b600b5481565b60076020528060005260406000206000915090505481565b6000806001600c54146110fb576040517f08c379a00000000000000000000000000000000000000000000000000000000081526004016110f290612a3f565b60405180910390fd5b6000600c8190555060008061110e610a84565b50915091506000600160009054906101000a900473ffffffffffffffffffffffffffffffffffffffff1690506000600260009054906101000a900473ffffffffffffffffffffffffffffffffffffffff16905060008273ffffffffffffffffffffffffffffffffffffffff166370a08231306040518263ffffffff1660e01b815260040161119c9190612760565b602060405180830381865afa1580156111b9573d6000803e3d6000fd5b505050506040513d601f19601f820116820180604052508101906111dd9190612c5c565b905060008273ffffffffffffffffffffffffffffffffffffffff166370a08231306040518263ffffffff1660e01b815260040161121a9190612760565b602060405180830381865afa158015611237573d6000803e3d6000fd5b505050506040513d601f19601f8201168201806040525081019061125b9190612c5c565b90506000600460003073ffffffffffffffffffffffffffffffffffffffff1673ffffffffffffffffffffffffffffffffffffffff16815260200190815260200160002054905060006112ad88886120b4565b9050600060035490508085846112c39190612d7e565b6112cd9190612e5b565b9a508084846112dc9190612d7e565b6112e69190612e5b565b995060008b1180156112f8575060008a115b611337576040517f08c379a000000000000000000000000000000000000000000000000000000000815260040161132e90612f90565b60405180910390fd5b6113413084612345565b61134c878d8d611b99565b611357868d8c611b99565b8673ffffffffffffffffffffffffffffffffffffffff166370a08231306040518263ffffffff1660e01b81526004016113909190612760565b602060405180830381865afa1580156113ad573d6000803e3d6000fd5b505050506040513d601f19601f820116820180604052508101906113d19190612c5c565b94508573ffffffffffffffffffffffffffffffffffffffff166370a08231306040518263ffffffff1660e01b815260040161140c9190612760565b602060405180830381865afa158015611429573d6000803e3d6000fd5b505050506040513d601f19601f8201168201806040525081019061144d9190612c5c565b935061145b85858b8b611d23565b81156114cc576008600e9054906101000a90046dffffffffffffffffffffffffffff166dffffffffffffffffffffffffffff16600860009054906101000a90046dffffffffffffffffffffffffffff166dffffffffffffffffffffffffffff166114c59190612d7e565b600b819055505b5050505050505050506001600c81905550915091565b6040518060400160405280600a81526020017f45524320554e492d56320000000000000000000000000000000000000000000081525081565b6000611528338484611f93565b6001905092915050565b600181565b6001600c541461157c576040517f08c379a000000000000000000000000000000000000000000000000000000000815260040161157390612a3f565b60405180910390fd5b6000600c819055506000600160009054906101000a900473ffffffffffffffffffffffffffffffffffffffff1690506000600260009054906101000a900473ffffffffffffffffffffffffffffffffffffffff16905061168d8284600860009054906101000a90046dffffffffffffffffffffffffffff166dffffffffffffffffffffffffffff168573ffffffffffffffffffffffffffffffffffffffff166370a08231306040518263ffffffff1660e01b815260040161163d9190612760565b602060405180830381865afa15801561165a573d6000803e3d6000fd5b505050506040513d601f19601f8201168201806040525081019061167e9190612c5c565b6116889190612cb8565b611b99565b61174881846008600e9054906101000a90046dffffffffffffffffffffffffffff166dffffffffffffffffffffffffffff168473ffffffffffffffffffffffffffffffffffffffff166370a08231306040518263ffffffff1660e01b81526004016116f89190612760565b602060405180830381865afa158015611715573d6000803e3d6000fd5b505050506040513d601f19601f820116820180604052508101906117399190612c5c565b6117439190612cb8565b611b99565b50506001600c8190555050565b600260009054906101000a900473ffffffffffffffffffffffffffffffffffffffff1681565b428410156117be576040517f08c379a00000000000000000000000000000000000000000000000000000000081526004016117b590612ffc565b60405180910390fd5b60006006547f6e71edae12b1b97f4d1f60370fef10105fa2faae0126114a169c64845d6126c960001b898989600760008e73ffffffffffffffffffffffffffffffffffffffff1673ffffffffffffffffffffffffffffffffffffffff168152602001908152602001600020600081548092919061183a9061301c565b919050558a60405160200161185496959493929190613064565b6040516020818303038152906040528051906020012060405160200161187b92919061313d565b6040516020818303038152906040528051906020012090506000600182868686604051600081526020016040526040516118b89493929190613174565b6020604051602081039080840390855afa1580156118da573d6000803e3d6000fd5b505050602060405103519050600073ffffffffffffffffffffffffffffffffffffffff168173ffffffffffffffffffffffffffffffffffffffff161415801561194e57508873ffffffffffffffffffffffffffffffffffffffff168173ffffffffffffffffffffffffffffffffffffffff16145b61198d576040517f08c379a000000000000000000000000000000000000000000000000000000000815260040161198490613205565b60405180910390fd5b611998898989611f0d565b505050505050505050565b6005602052816000526040600020602052806000526040600020600091509150505481565b6001600c5414611a0d576040517f08c379a0000000000000000000000000000000000000000000000000000000008152600401611a0490612a3f565b60405180910390fd5b6000600c81905550611b8f600160009054906101000a900473ffffffffffffffffffffffffffffffffffffffff1673ffffffffffffffffffffffffffffffffffffffff166370a08231306040518263ffffffff1660e01b8152600401611a739190612760565b602060405180830381865afa158015611a90573d6000803e3d6000fd5b505050506040513d601f19601f82011682018060405250810190611ab49190612c5c565b600260009054906101000a900473ffffffffffffffffffffffffffffffffffffffff1673ffffffffffffffffffffffffffffffffffffffff166370a08231306040518263ffffffff1660e01b8152600401611b0f9190612760565b602060405180830381865afa158015611b2c573d6000803e3d6000fd5b505050506040513d601f19601f82011682018060405250810190611b509190612c5c565b600860009054906101000a90046dffffffffffffffffffffffffffff166008600e9054906101000a90046dffffffffffffffffffffffffffff16611d23565b6001600c81905550565b6000808473ffffffffffffffffffffffffffffffffffffffff166040518060400160405280601981526020017f7472616e7366657228616464726573732c75696e743235362900000000000000815250805190602001208585604051602401611c03929190613225565b604051602081830303815290604052907bffffffffffffffffffffffffffffffffffffffffffffffffffffffff19166020820180517bffffffffffffffffffffffffffffffffffffffffffffffffffffffff8381831617835250505050604051611c6d919061328a565b6000604051808303816000865af19150503d8060008114611caa576040519150601f19603f3d011682016040523d82523d6000602084013e611caf565b606091505b5091509150818015611cdd5750600081511480611cdc575080806020019051810190611cdb91906132cd565b5b5b611d1c576040517f08c379a0000000000000000000000000000000000000000000000000000000008152600401611d1390613346565b60405180910390fd5b5050505050565b600064010000000042611d369190613366565b905060006008601c9054906101000a900463ffffffff1682611d589190613397565b905060008163ffffffff16118015611d8157506000846dffffffffffffffffffffffffffff1614155b8015611d9e57506000836dffffffffffffffffffffffffffff1614155b15611e7a578063ffffffff16846dffffffffffffffffffffffffffff16611dc4856123eb565b611dce91906133f7565b7bffffffffffffffffffffffffffffffffffffffffffffffffffffffff16611df69190612d7e565b60096000828254611e079190613428565b925050819055508063ffffffff16836dffffffffffffffffffffffffffff16611e2f866123eb565b611e3991906133f7565b7bffffffffffffffffffffffffffffffffffffffffffffffffffffffff16611e619190612d7e565b600a6000828254611e729190613428565b925050819055505b85600860006101000a8154816dffffffffffffffffffffffffffff02191690836dffffffffffffffffffffffffffff160217905550846008600e6101000a8154816dffffffffffffffffffffffffffff02191690836dffffffffffffffffffffffffffff160217905550816008601c6101000a81548163ffffffff021916908363ffffffff160217905550505050505050565b80600560008573ffffffffffffffffffffffffffffffffffffffff1673ffffffffffffffffffffffffffffffffffffffff16815260200190815260200160002060008473ffffffffffffffffffffffffffffffffffffffff1673ffffffffffffffffffffffffffffffffffffffff16815260200190815260200160002081905550505050565b80600460008573ffffffffffffffffffffffffffffffffffffffff1673ffffffffffffffffffffffffffffffffffffffff16815260200190815260200160002054611fde9190612cb8565b600460008573ffffffffffffffffffffffffffffffffffffffff1673ffffffffffffffffffffffffffffffffffffffff1681526020019081526020016000208190555080600460008473ffffffffffffffffffffffffffffffffffffffff1673ffffffffffffffffffffffffffffffffffffffff1681526020019081526020016000205461206c9190612cb8565b600460008473ffffffffffffffffffffffffffffffffffffffff1673ffffffffffffffffffffffffffffffffffffffff16815260200190815260200160002081905550505050565b60008073ffffffffffffffffffffffffffffffffffffffff1660008054906101000a900473ffffffffffffffffffffffffffffffffffffffff1673ffffffffffffffffffffffffffffffffffffffff16141590506000600b54905081156121f357600081146121ee576000612153846dffffffffffffffffffffffffffff16866dffffffffffffffffffffffffffff1661214e9190612d7e565b61220c565b905060006121608361220c565b9050808211156121eb57600081836121789190612cb8565b6003546121859190612d7e565b90506000826005856121979190612d7e565b6121a19190613428565b9050600081836121b19190612e5b565b905060008111156121e7576121e660008054906101000a900473ffffffffffffffffffffffffffffffffffffffff1682612286565b5b5050505b50505b612205565b60008114612204576000600b819055505b5b5092915050565b60006003821115612273578190506000600160028461222b9190612e5b565b6122359190613428565b90505b8181101561226d5780915060028182856122529190612e5b565b61225c9190613428565b6122669190612e5b565b9050612238565b50612281565b6000821461228057600190505b5b919050565b806003546122949190613428565b60038190555080600460008473ffffffffffffffffffffffffffffffffffffffff1673ffffffffffffffffffffffffffffffffffffffff168152602001908152602001600020546122e59190613428565b600460008473ffffffffffffffffffffffffffffffffffffffff1673ffffffffffffffffffffffffffffffffffffffff168152602001908152602001600020819055505050565b600081831061233b578161233d565b825b905092915050565b80600460008473ffffffffffffffffffffffffffffffffffffffff1673ffffffffffffffffffffffffffffffffffffffff168152602001908152602001600020546123909190612cb8565b600460008473ffffffffffffffffffffffffffffffffffffffff1673ffffffffffffffffffffffffffffffffffffffff16815260200190815260200160002081905550806003546123e19190612cb8565b6003819055505050565b60006e010000000000000000000000000000826dffffffffffffffffffffffffffff16612418919061345c565b9050919050565b600080fd5b600080fd5b6000819050919050565b61243c81612429565b811461244757600080fd5b50565b60008135905061245981612433565b92915050565b600073ffffffffffffffffffffffffffffffffffffffff82169050919050565b600061248a8261245f565b9050919050565b61249a8161247f565b81146124a557600080fd5b50565b6000813590506124b781612491565b92915050565b600080fd5b600080fd5b600080fd5b60008083601f8401126124e2576124e16124bd565b5b8235905067ffffffffffffffff8111156124ff576124fe6124c2565b5b60208301915083600182028301111561251b5761251a6124c7565b5b9250929050565b60008060008060006080868803121561253e5761253d61241f565b5b600061254c8882890161244a565b955050602061255d8882890161244a565b945050604061256e888289016124a8565b935050606086013567ffffffffffffffff81111561258f5761258e612424565b5b61259b888289016124cc565b92509250509295509295909350565b600081519050919050565b600082825260208201905092915050565b60005b838110156125e45780820151818401526020810190506125c9565b60008484015250505050565b6000601f19601f8301169050919050565b600061260c826125aa565b61261681856125b5565b93506126268185602086016125c6565b61262f816125f0565b840191505092915050565b600060208201905081810360008301526126548184612601565b905092915050565b60006dffffffffffffffffffffffffffff82169050919050565b61267f8161265c565b82525050565b600063ffffffff82169050919050565b61269e81612685565b82525050565b60006060820190506126b96000830186612676565b6126c66020830185612676565b6126d36040830184612695565b949350505050565b600080604083850312156126f2576126f161241f565b5b6000612700858286016124a8565b92505060206127118582860161244a565b9150509250929050565b60008115159050919050565b6127308161271b565b82525050565b600060208201905061274b6000830184612727565b92915050565b61275a8161247f565b82525050565b60006020820190506127756000830184612751565b92915050565b61278481612429565b82525050565b600060208201905061279f600083018461277b565b92915050565b6000806000606084860312156127be576127bd61241f565b5b60006127cc868287016124a8565b93505060206127dd868287016124a8565b92505060406127ee8682870161244a565b9150509250925092565b6000819050919050565b61280b816127f8565b82525050565b60006020820190506128266000830184612802565b92915050565b600060ff82169050919050565b6128428161282c565b82525050565b600060208201905061285d6000830184612839565b92915050565b6000602082840312156128795761287861241f565b5b6000612887848285016124a8565b91505092915050565b60006040820190506128a5600083018561277b565b6128b2602083018461277b565b9392505050565b6128c28161282c565b81146128cd57600080fd5b50565b6000813590506128df816128b9565b92915050565b6128ee816127f8565b81146128f957600080fd5b50565b60008135905061290b816128e5565b92915050565b600080600080600080600060e0888a0312156129305761292f61241f565b5b600061293e8a828b016124a8565b975050602061294f8a828b016124a8565b96505060406129608a828b0161244a565b95505060606129718a828b0161244a565b94505060806129828a828b016128d0565b93505060a06129938a828b016128fc565b92505060c06129a48a828b016128fc565b91505092959891949750929550565b600080604083850312156129ca576129c961241f565b5b60006129d8858286016124a8565b92505060206129e9858286016124a8565b9150509250929050565b7f5061697255736474526f6e743a204c4f434b4544000000000000000000000000600082015250565b6000612a296014836125b5565b9150612a34826129f3565b602082019050919050565b60006020820190508181036000830152612a5881612a1c565b9050919050565b7f5061697255736474526f6e743a20494e53554646494349454e545f4f5554505560008201527f545f414d4f554e54000000000000000000000000000000000000000000000000602082015250565b6000612abb6028836125b5565b9150612ac682612a5f565b604082019050919050565b60006020820190508181036000830152612aea81612aae565b9050919050565b7f5061697255736474526f6e743a20494e53554646494349454e545f4c4951554960008201527f4449545900000000000000000000000000000000000000000000000000000000602082015250565b6000612b4d6024836125b5565b9150612b5882612af1565b604082019050919050565b60006020820190508181036000830152612b7c81612b40565b9050919050565b600081905092915050565b82818337600083830152505050565b6000612ba98385612b83565b9350612bb6838584612b8e565b82840190509392505050565b6000612bcf828486612b9d565b91508190509392505050565b7f5061697255736474526f6e743a20494e56414c49445f544f0000000000000000600082015250565b6000612c116018836125b5565b9150612c1c82612bdb565b602082019050919050565b60006020820190508181036000830152612c4081612c04565b9050919050565b600081519050612c5681612433565b92915050565b600060208284031215612c7257612c7161241f565b5b6000612c8084828501612c47565b91505092915050565b7f4e487b7100000000000000000000000000000000000000000000000000000000600052601160045260246000fd5b6000612cc382612429565b9150612cce83612429565b9250828203905081811115612ce657612ce5612c89565b5b92915050565b7f5061697255736474526f6e743a20494e53554646494349454e545f494e50555460008201527f5f414d4f554e5400000000000000000000000000000000000000000000000000602082015250565b6000612d486027836125b5565b9150612d5382612cec565b604082019050919050565b60006020820190508181036000830152612d7781612d3b565b9050919050565b6000612d8982612429565b9150612d9483612429565b9250828202612da281612429565b91508282048414831517612db957612db8612c89565b5b5092915050565b7f5061697255736474526f6e743a204b0000000000000000000000000000000000600082015250565b6000612df6600f836125b5565b9150612e0182612dc0565b602082019050919050565b60006020820190508181036000830152612e2581612de9565b9050919050565b7f4e487b7100000000000000000000000000000000000000000000000000000000600052601260045260246000fd5b6000612e6682612429565b9150612e7183612429565b925082612e8157612e80612e2c565b5b828204905092915050565b7f5061697255736474526f6e743a20494e53554646494349454e545f4c4951554960008201527f444954595f4d494e544544000000000000000000000000000000000000000000602082015250565b6000612ee8602b836125b5565b9150612ef382612e8c565b604082019050919050565b60006020820190508181036000830152612f1781612edb565b9050919050565b7f5061697255736474526f6e743a20494e53554646494349454e545f4c4951554960008201527f444954595f4255524e4544000000000000000000000000000000000000000000602082015250565b6000612f7a602b836125b5565b9150612f8582612f1e565b604082019050919050565b60006020820190508181036000830152612fa981612f6d565b9050919050565b7f556e697377617056323a20455850495245440000000000000000000000000000600082015250565b6000612fe66012836125b5565b9150612ff182612fb0565b602082019050919050565b6000602082019050818103600083015261301581612fd9565b9050919050565b600061302782612429565b91507fffffffffffffffffffffffffffffffffffffffffffffffffffffffffffffffff820361305957613058612c89565b5b600182019050919050565b600060c0820190506130796000830189612802565b6130866020830188612751565b6130936040830187612751565b6130a0606083018661277b565b6130ad608083018561277b565b6130ba60a083018461277b565b979650505050505050565b600081905092915050565b7f1901000000000000000000000000000000000000000000000000000000000000600082015250565b60006131066002836130c5565b9150613111826130d0565b600282019050919050565b6000819050919050565b613137613132826127f8565b61311c565b82525050565b6000613148826130f9565b91506131548285613126565b6020820191506131648284613126565b6020820191508190509392505050565b60006080820190506131896000830187612802565b6131966020830186612839565b6131a36040830185612802565b6131b06060830184612802565b95945050505050565b7f556e697377617056323a20494e56414c49445f5349474e415455524500000000600082015250565b60006131ef601c836125b5565b91506131fa826131b9565b602082019050919050565b6000602082019050818103600083015261321e816131e2565b9050919050565b600060408201905061323a6000830185612751565b613247602083018461277b565b9392505050565b600081519050919050565b60006132648261324e565b61326e8185612b83565b935061327e8185602086016125c6565b80840191505092915050565b60006132968284613259565b915081905092915050565b6132aa8161271b565b81146132b557600080fd5b50565b6000815190506132c7816132a1565b92915050565b6000602082840312156132e3576132e261241f565b5b60006132f1848285016132b8565b91505092915050565b7f5061697255736474526f6e743a205452414e534645525f4641494c4544000000600082015250565b6000613330601d836125b5565b915061333b826132fa565b602082019050919050565b6000602082019050818103600083015261335f81613323565b9050919050565b600061337182612429565b915061337c83612429565b92508261338c5761338b612e2c565b5b828206905092915050565b60006133a282612685565b91506133ad83612685565b9250828203905063ffffffff8111156133c9576133c8612c89565b5b92915050565b60007bffffffffffffffffffffffffffffffffffffffffffffffffffffffff82169050919050565b6000613402826133cf565b915061340d836133cf565b92508261341d5761341c612e2c565b5b828204905092915050565b600061343382612429565b915061343e83612429565b925082820190508082111561345657613455612c89565b5b92915050565b6000613467826133cf565b9150613472836133cf565b9250828202613480816133cf565b9150828204841483151761349757613496612c89565b5b509291505056fea26469706673582212200e20a4e011b6f81fd4f1054e3e5078275b0bb44ac03605cfd2528e3c23d91b0f64736f6c63430008120033",
					"opcodes": "PUSH1 0x80 PUSH1 0x40 MSTORE PUSH20 0x5B38DA6A701C568545DCFCB03FCB875F56BEDDC4 PUSH1 0x0 DUP1 PUSH2 0x100 EXP DUP2 SLOAD DUP2 PUSH20 0xFFFFFFFFFFFFFFFFFFFFFFFFFFFFFFFFFFFFFFFF MUL NOT AND SWAP1 DUP4 PUSH20 0xFFFFFFFFFFFFFFFFFFFFFFFFFFFFFFFFFFFFFFFF AND MUL OR SWAP1 SSTORE POP PUSH20 0xD0DA387609ADC13779BADAF1315A4904CD40976E PUSH1 0x1 PUSH1 0x0 PUSH2 0x100 EXP DUP2 SLOAD DUP2 PUSH20 0xFFFFFFFFFFFFFFFFFFFFFFFFFFFFFFFFFFFFFFFF MUL NOT AND SWAP1 DUP4 PUSH20 0xFFFFFFFFFFFFFFFFFFFFFFFFFFFFFFFFFFFFFFFF AND MUL OR SWAP1 SSTORE POP PUSH20 0xD1F9C3397EA04D3DE7F002CB9E63CB49D0DEAA36 PUSH1 0x2 PUSH1 0x0 PUSH2 0x100 EXP DUP2 SLOAD DUP2 PUSH20 0xFFFFFFFFFFFFFFFFFFFFFFFFFFFFFFFFFFFFFFFF MUL NOT AND SWAP1 DUP4 PUSH20 0xFFFFFFFFFFFFFFFFFFFFFFFFFFFFFFFFFFFFFFFF AND MUL OR SWAP1 SSTORE POP PUSH1 0x1 PUSH1 0xC SSTORE CALLVALUE DUP1 ISZERO PUSH3 0x114 JUMPI PUSH1 0x0 DUP1 REVERT JUMPDEST POP PUSH1 0x0 CHAINID SWAP1 POP PUSH32 0x8B73C3C69BB8FE3D512ECC4CF759CC79239F7B179B0FFACAA9A75D522B39400F PUSH1 0x40 MLOAD DUP1 PUSH1 0x40 ADD PUSH1 0x40 MSTORE DUP1 PUSH1 0xE DUP2 MSTORE PUSH1 0x20 ADD PUSH32 0x45524320556E6973776170205632000000000000000000000000000000000000 DUP2 MSTORE POP DUP1 MLOAD SWAP1 PUSH1 0x20 ADD KECCAK256 PUSH1 0x40 MLOAD DUP1 PUSH1 0x40 ADD PUSH1 0x40 MSTORE DUP1 PUSH1 0x1 DUP2 MSTORE PUSH1 0x20 ADD PUSH32 0x3100000000000000000000000000000000000000000000000000000000000000 DUP2 MSTORE POP DUP1 MLOAD SWAP1 PUSH1 0x20 ADD KECCAK256 DUP4 ADDRESS PUSH1 0x40 MLOAD PUSH1 0x20 ADD PUSH3 0x1CD SWAP6 SWAP5 SWAP4 SWAP3 SWAP2 SWAP1 PUSH3 0x2AD JUMP JUMPDEST PUSH1 0x40 MLOAD PUSH1 0x20 DUP2 DUP4 SUB SUB DUP2 MSTORE SWAP1 PUSH1 0x40 MSTORE DUP1 MLOAD SWAP1 PUSH1 0x20 ADD KECCAK256 PUSH1 0x6 DUP2 SWAP1 SSTORE POP PUSH1 0x40 MLOAD PUSH3 0x1F7 SWAP1 PUSH3 0x365 JUMP JUMPDEST PUSH1 0x40 MLOAD DUP1 SWAP2 SUB SWAP1 KECCAK256 PUSH32 0xCF34EF537AC33EE1AC626CA1587A0A7E8E51561E5514F8CB36AFA1C5102B3BAB PUSH1 0x40 MLOAD PUSH1 0x40 MLOAD DUP1 SWAP2 SUB SWAP1 LOG2 POP PUSH3 0x37C JUMP JUMPDEST PUSH1 0x0 DUP2 SWAP1 POP SWAP2 SWAP1 POP JUMP JUMPDEST PUSH3 0x247 DUP2 PUSH3 0x232 JUMP JUMPDEST DUP3 MSTORE POP POP JUMP JUMPDEST PUSH1 0x0 DUP2 SWAP1 POP SWAP2 SWAP1 POP JUMP JUMPDEST PUSH3 0x262 DUP2 PUSH3 0x24D JUMP JUMPDEST DUP3 MSTORE POP POP JUMP JUMPDEST PUSH1 0x0 PUSH20 0xFFFFFFFFFFFFFFFFFFFFFFFFFFFFFFFFFFFFFFFF DUP3 AND SWAP1 POP SWAP2 SWAP1 POP JUMP JUMPDEST PUSH1 0x0 PUSH3 0x295 DUP3 PUSH3 0x268 JUMP JUMPDEST SWAP1 POP SWAP2 SWAP1 POP JUMP JUMPDEST PUSH3 0x2A7 DUP2 PUSH3 0x288 JUMP JUMPDEST DUP3 MSTORE POP POP JUMP JUMPDEST PUSH1 0x0 PUSH1 0xA0 DUP3 ADD SWAP1 POP PUSH3 0x2C4 PUSH1 0x0 DUP4 ADD DUP9 PUSH3 0x23C JUMP JUMPDEST PUSH3 0x2D3 PUSH1 0x20 DUP4 ADD DUP8 PUSH3 0x23C JUMP JUMPDEST PUSH3 0x2E2 PUSH1 0x40 DUP4 ADD DUP7 PUSH3 0x23C JUMP JUMPDEST PUSH3 0x2F1 PUSH1 0x60 DUP4 ADD DUP6 PUSH3 0x257 JUMP JUMPDEST PUSH3 0x300 PUSH1 0x80 DUP4 ADD DUP5 PUSH3 0x29C JUMP JUMPDEST SWAP7 SWAP6 POP POP POP POP POP POP JUMP JUMPDEST PUSH1 0x0 DUP2 SWAP1 POP SWAP3 SWAP2 POP POP JUMP JUMPDEST PUSH32 0x5061697220555344542D524F4E5420636F6E7472616374206372656174656400 PUSH1 0x0 DUP3 ADD MSTORE POP JUMP JUMPDEST PUSH1 0x0 PUSH3 0x34D PUSH1 0x1F DUP4 PUSH3 0x30A JUMP JUMPDEST SWAP2 POP PUSH3 0x35A DUP3 PUSH3 0x315 JUMP JUMPDEST PUSH1 0x1F DUP3 ADD SWAP1 POP SWAP2 SWAP1 POP JUMP JUMPDEST PUSH1 0x0 PUSH3 0x372 DUP3 PUSH3 0x33E JUMP JUMPDEST SWAP2 POP DUP2 SWAP1 POP SWAP2 SWAP1 POP JUMP JUMPDEST PUSH2 0x34D4 DUP1 PUSH3 0x38C PUSH1 0x0 CODECOPY PUSH1 0x0 RETURN INVALID PUSH1 0x80 PUSH1 0x40 MSTORE CALLVALUE DUP1 ISZERO PUSH2 0x10 JUMPI PUSH1 0x0 DUP1 REVERT JUMPDEST POP PUSH1 0x4 CALLDATASIZE LT PUSH2 0x173 JUMPI PUSH1 0x0 CALLDATALOAD PUSH1 0xE0 SHR DUP1 PUSH4 0x6A627842 GT PUSH2 0xDE JUMPI DUP1 PUSH4 0xA9059CBB GT PUSH2 0x97 JUMPI DUP1 PUSH4 0xD21220A7 GT PUSH2 0x71 JUMPI DUP1 PUSH4 0xD21220A7 EQ PUSH2 0x46B JUMPI DUP1 PUSH4 0xD505ACCF EQ PUSH2 0x489 JUMPI DUP1 PUSH4 0xDD62ED3E EQ PUSH2 0x4A5 JUMPI DUP1 PUSH4 0xFFF6CAE9 EQ PUSH2 0x4D5 JUMPI PUSH2 0x173 JUMP JUMPDEST DUP1 PUSH4 0xA9059CBB EQ PUSH2 0x401 JUMPI DUP1 PUSH4 0xBA9A7A56 EQ PUSH2 0x431 JUMPI DUP1 PUSH4 0xBC25CF77 EQ PUSH2 0x44F JUMPI PUSH2 0x173 JUMP JUMPDEST DUP1 PUSH4 0x6A627842 EQ PUSH2 0x304 JUMPI DUP1 PUSH4 0x70A08231 EQ PUSH2 0x334 JUMPI DUP1 PUSH4 0x7464FC3D EQ PUSH2 0x364 JUMPI DUP1 PUSH4 0x7ECEBE00 EQ PUSH2 0x382 JUMPI DUP1 PUSH4 0x89AFCB44 EQ PUSH2 0x3B2 JUMPI DUP1 PUSH4 0x95D89B41 EQ PUSH2 0x3E3 JUMPI PUSH2 0x173 JUMP JUMPDEST DUP1 PUSH4 0x23B872DD GT PUSH2 0x130 JUMPI DUP1 PUSH4 0x23B872DD EQ PUSH2 0x23E JUMPI DUP1 PUSH4 0x30ADF81F EQ PUSH2 0x26E JUMPI DUP1 PUSH4 0x313CE567 EQ PUSH2 0x28C JUMPI DUP1 PUSH4 0x3644E515 EQ PUSH2 0x2AA JUMPI DUP1 PUSH4 0x5909C0D5 EQ PUSH2 0x2C8 JUMPI DUP1 PUSH4 0x5A3D5493 EQ PUSH2 0x2E6 JUMPI PUSH2 0x173 JUMP JUMPDEST DUP1 PUSH4 0x22C0D9F EQ PUSH2 0x178 JUMPI DUP1 PUSH4 0x6FDDE03 EQ PUSH2 0x194 JUMPI DUP1 PUSH4 0x902F1AC EQ PUSH2 0x1B2 JUMPI DUP1 PUSH4 0x95EA7B3 EQ PUSH2 0x1D2 JUMPI DUP1 PUSH4 0xDFE1681 EQ PUSH2 0x202 JUMPI DUP1 PUSH4 0x18160DDD EQ PUSH2 0x220 JUMPI JUMPDEST PUSH1 0x0 DUP1 REVERT JUMPDEST PUSH2 0x192 PUSH1 0x4 DUP1 CALLDATASIZE SUB DUP2 ADD SWAP1 PUSH2 0x18D SWAP2 SWAP1 PUSH2 0x2522 JUMP JUMPDEST PUSH2 0x4DF JUMP JUMPDEST STOP JUMPDEST PUSH2 0x19C PUSH2 0xA4B JUMP JUMPDEST PUSH1 0x40 MLOAD PUSH2 0x1A9 SWAP2 SWAP1 PUSH2 0x263A JUMP JUMPDEST PUSH1 0x40 MLOAD DUP1 SWAP2 SUB SWAP1 RETURN JUMPDEST PUSH2 0x1BA PUSH2 0xA84 JUMP JUMPDEST PUSH1 0x40 MLOAD PUSH2 0x1C9 SWAP4 SWAP3 SWAP2 SWAP1 PUSH2 0x26A4 JUMP JUMPDEST PUSH1 0x40 MLOAD DUP1 SWAP2 SUB SWAP1 RETURN JUMPDEST PUSH2 0x1EC PUSH1 0x4 DUP1 CALLDATASIZE SUB DUP2 ADD SWAP1 PUSH2 0x1E7 SWAP2 SWAP1 PUSH2 0x26DB JUMP JUMPDEST PUSH2 0xAE1 JUMP JUMPDEST PUSH1 0x40 MLOAD PUSH2 0x1F9 SWAP2 SWAP1 PUSH2 0x2736 JUMP JUMPDEST PUSH1 0x40 MLOAD DUP1 SWAP2 SUB SWAP1 RETURN JUMPDEST PUSH2 0x20A PUSH2 0xAF8 JUMP JUMPDEST PUSH1 0x40 MLOAD PUSH2 0x217 SWAP2 SWAP1 PUSH2 0x2760 JUMP JUMPDEST PUSH1 0x40 MLOAD DUP1 SWAP2 SUB SWAP1 RETURN JUMPDEST PUSH2 0x228 PUSH2 0xB1E JUMP JUMPDEST PUSH1 0x40 MLOAD PUSH2 0x235 SWAP2 SWAP1 PUSH2 0x278A JUMP JUMPDEST PUSH1 0x40 MLOAD DUP1 SWAP2 SUB SWAP1 RETURN JUMPDEST PUSH2 0x258 PUSH1 0x4 DUP1 CALLDATASIZE SUB DUP2 ADD SWAP1 PUSH2 0x253 SWAP2 SWAP1 PUSH2 0x27A5 JUMP JUMPDEST PUSH2 0xB24 JUMP JUMPDEST PUSH1 0x40 MLOAD PUSH2 0x265 SWAP2 SWAP1 PUSH2 0x2736 JUMP JUMPDEST PUSH1 0x40 MLOAD DUP1 SWAP2 SUB SWAP1 RETURN JUMPDEST PUSH2 0x276 PUSH2 0xCD8 JUMP JUMPDEST PUSH1 0x40 MLOAD PUSH2 0x283 SWAP2 SWAP1 PUSH2 0x2811 JUMP JUMPDEST PUSH1 0x40 MLOAD DUP1 SWAP2 SUB SWAP1 RETURN JUMPDEST PUSH2 0x294 PUSH2 0xCFF JUMP JUMPDEST PUSH1 0x40 MLOAD PUSH2 0x2A1 SWAP2 SWAP1 PUSH2 0x2848 JUMP JUMPDEST PUSH1 0x40 MLOAD DUP1 SWAP2 SUB SWAP1 RETURN JUMPDEST PUSH2 0x2B2 PUSH2 0xD04 JUMP JUMPDEST PUSH1 0x40 MLOAD PUSH2 0x2BF SWAP2 SWAP1 PUSH2 0x2811 JUMP JUMPDEST PUSH1 0x40 MLOAD DUP1 SWAP2 SUB SWAP1 RETURN JUMPDEST PUSH2 0x2D0 PUSH2 0xD0A JUMP JUMPDEST PUSH1 0x40 MLOAD PUSH2 0x2DD SWAP2 SWAP1 PUSH2 0x278A JUMP JUMPDEST PUSH1 0x40 MLOAD DUP1 SWAP2 SUB SWAP1 RETURN JUMPDEST PUSH2 0x2EE PUSH2 0xD10 JUMP JUMPDEST PUSH1 0x40 MLOAD PUSH2 0x2FB SWAP2 SWAP1 PUSH2 0x278A JUMP JUMPDEST PUSH1 0x40 MLOAD DUP1 SWAP2 SUB SWAP1 RETURN JUMPDEST PUSH2 0x31E PUSH1 0x4 DUP1 CALLDATASIZE SUB DUP2 ADD SWAP1 PUSH2 0x319 SWAP2 SWAP1 PUSH2 0x2863 JUMP JUMPDEST PUSH2 0xD16 JUMP JUMPDEST PUSH1 0x40 MLOAD PUSH2 0x32B SWAP2 SWAP1 PUSH2 0x278A JUMP JUMPDEST PUSH1 0x40 MLOAD DUP1 SWAP2 SUB SWAP1 RETURN JUMPDEST PUSH2 0x34E PUSH1 0x4 DUP1 CALLDATASIZE SUB DUP2 ADD SWAP1 PUSH2 0x349 SWAP2 SWAP1 PUSH2 0x2863 JUMP JUMPDEST PUSH2 0x107D JUMP JUMPDEST PUSH1 0x40 MLOAD PUSH2 0x35B SWAP2 SWAP1 PUSH2 0x278A JUMP JUMPDEST PUSH1 0x40 MLOAD DUP1 SWAP2 SUB SWAP1 RETURN JUMPDEST PUSH2 0x36C PUSH2 0x1095 JUMP JUMPDEST PUSH1 0x40 MLOAD PUSH2 0x379 SWAP2 SWAP1 PUSH2 0x278A JUMP JUMPDEST PUSH1 0x40 MLOAD DUP1 SWAP2 SUB SWAP1 RETURN JUMPDEST PUSH2 0x39C PUSH1 0x4 DUP1 CALLDATASIZE SUB DUP2 ADD SWAP1 PUSH2 0x397 SWAP2 SWAP1 PUSH2 0x2863 JUMP JUMPDEST PUSH2 0x109B JUMP JUMPDEST PUSH1 0x40 MLOAD PUSH2 0x3A9 SWAP2 SWAP1 PUSH2 0x278A JUMP JUMPDEST PUSH1 0x40 MLOAD DUP1 SWAP2 SUB SWAP1 RETURN JUMPDEST PUSH2 0x3CC PUSH1 0x4 DUP1 CALLDATASIZE SUB DUP2 ADD SWAP1 PUSH2 0x3C7 SWAP2 SWAP1 PUSH2 0x2863 JUMP JUMPDEST PUSH2 0x10B3 JUMP JUMPDEST PUSH1 0x40 MLOAD PUSH2 0x3DA SWAP3 SWAP2 SWAP1 PUSH2 0x2890 JUMP JUMPDEST PUSH1 0x40 MLOAD DUP1 SWAP2 SUB SWAP1 RETURN JUMPDEST PUSH2 0x3EB PUSH2 0x14E2 JUMP JUMPDEST PUSH1 0x40 MLOAD PUSH2 0x3F8 SWAP2 SWAP1 PUSH2 0x263A JUMP JUMPDEST PUSH1 0x40 MLOAD DUP1 SWAP2 SUB SWAP1 RETURN JUMPDEST PUSH2 0x41B PUSH1 0x4 DUP1 CALLDATASIZE SUB DUP2 ADD SWAP1 PUSH2 0x416 SWAP2 SWAP1 PUSH2 0x26DB JUMP JUMPDEST PUSH2 0x151B JUMP JUMPDEST PUSH1 0x40 MLOAD PUSH2 0x428 SWAP2 SWAP1 PUSH2 0x2736 JUMP JUMPDEST PUSH1 0x40 MLOAD DUP1 SWAP2 SUB SWAP1 RETURN JUMPDEST PUSH2 0x439 PUSH2 0x1532 JUMP JUMPDEST PUSH1 0x40 MLOAD PUSH2 0x446 SWAP2 SWAP1 PUSH2 0x278A JUMP JUMPDEST PUSH1 0x40 MLOAD DUP1 SWAP2 SUB SWAP1 RETURN JUMPDEST PUSH2 0x469 PUSH1 0x4 DUP1 CALLDATASIZE SUB DUP2 ADD SWAP1 PUSH2 0x464 SWAP2 SWAP1 PUSH2 0x2863 JUMP JUMPDEST PUSH2 0x1537 JUMP JUMPDEST STOP JUMPDEST PUSH2 0x473 PUSH2 0x1755 JUMP JUMPDEST PUSH1 0x40 MLOAD PUSH2 0x480 SWAP2 SWAP1 PUSH2 0x2760 JUMP JUMPDEST PUSH1 0x40 MLOAD DUP1 SWAP2 SUB SWAP1 RETURN JUMPDEST PUSH2 0x4A3 PUSH1 0x4 DUP1 CALLDATASIZE SUB DUP2 ADD SWAP1 PUSH2 0x49E SWAP2 SWAP1 PUSH2 0x2911 JUMP JUMPDEST PUSH2 0x177B JUMP JUMPDEST STOP JUMPDEST PUSH2 0x4BF PUSH1 0x4 DUP1 CALLDATASIZE SUB DUP2 ADD SWAP1 PUSH2 0x4BA SWAP2 SWAP1 PUSH2 0x29B3 JUMP JUMPDEST PUSH2 0x19A3 JUMP JUMPDEST PUSH1 0x40 MLOAD PUSH2 0x4CC SWAP2 SWAP1 PUSH2 0x278A JUMP JUMPDEST PUSH1 0x40 MLOAD DUP1 SWAP2 SUB SWAP1 RETURN JUMPDEST PUSH2 0x4DD PUSH2 0x19C8 JUMP JUMPDEST STOP JUMPDEST PUSH1 0x1 PUSH1 0xC SLOAD EQ PUSH2 0x524 JUMPI PUSH1 0x40 MLOAD PUSH32 0x8C379A000000000000000000000000000000000000000000000000000000000 DUP2 MSTORE PUSH1 0x4 ADD PUSH2 0x51B SWAP1 PUSH2 0x2A3F JUMP JUMPDEST PUSH1 0x40 MLOAD DUP1 SWAP2 SUB SWAP1 REVERT JUMPDEST PUSH1 0x0 PUSH1 0xC DUP2 SWAP1 SSTORE POP PUSH1 0x0 DUP6 GT DUP1 PUSH2 0x53B JUMPI POP PUSH1 0x0 DUP5 GT JUMPDEST PUSH2 0x57A JUMPI PUSH1 0x40 MLOAD PUSH32 0x8C379A000000000000000000000000000000000000000000000000000000000 DUP2 MSTORE PUSH1 0x4 ADD PUSH2 0x571 SWAP1 PUSH2 0x2AD1 JUMP JUMPDEST PUSH1 0x40 MLOAD DUP1 SWAP2 SUB SWAP1 REVERT JUMPDEST PUSH1 0x0 DUP1 PUSH2 0x585 PUSH2 0xA84 JUMP JUMPDEST POP SWAP2 POP SWAP2 POP DUP2 PUSH14 0xFFFFFFFFFFFFFFFFFFFFFFFFFFFF AND DUP8 LT DUP1 ISZERO PUSH2 0x5B8 JUMPI POP DUP1 PUSH14 0xFFFFFFFFFFFFFFFFFFFFFFFFFFFF AND DUP7 LT JUMPDEST PUSH2 0x5F7 JUMPI PUSH1 0x40 MLOAD PUSH32 0x8C379A000000000000000000000000000000000000000000000000000000000 DUP2 MSTORE PUSH1 0x4 ADD PUSH2 0x5EE SWAP1 PUSH2 0x2B63 JUMP JUMPDEST PUSH1 0x40 MLOAD DUP1 SWAP2 SUB SWAP1 REVERT JUMPDEST DUP4 DUP4 PUSH1 0x40 MLOAD PUSH2 0x607 SWAP3 SWAP2 SWAP1 PUSH2 0x2BC2 JUMP JUMPDEST PUSH1 0x40 MLOAD DUP1 SWAP2 SUB SWAP1 KECCAK256 PUSH32 0x532FD6EA96CFB78BB46E09279A26828B8B493DE1A2B8B1EE1FACE527978A15A5 PUSH1 0x40 MLOAD PUSH1 0x40 MLOAD DUP1 SWAP2 SUB SWAP1 LOG2 PUSH1 0x0 DUP1 PUSH1 0x0 PUSH1 0x1 PUSH1 0x0 SWAP1 SLOAD SWAP1 PUSH2 0x100 EXP SWAP1 DIV PUSH20 0xFFFFFFFFFFFFFFFFFFFFFFFFFFFFFFFFFFFFFFFF AND SWAP1 POP PUSH1 0x0 PUSH1 0x2 PUSH1 0x0 SWAP1 SLOAD SWAP1 PUSH2 0x100 EXP SWAP1 DIV PUSH20 0xFFFFFFFFFFFFFFFFFFFFFFFFFFFFFFFFFFFFFFFF AND SWAP1 POP DUP2 PUSH20 0xFFFFFFFFFFFFFFFFFFFFFFFFFFFFFFFFFFFFFFFF AND DUP10 PUSH20 0xFFFFFFFFFFFFFFFFFFFFFFFFFFFFFFFFFFFFFFFF AND EQ ISZERO DUP1 ISZERO PUSH2 0x6F4 JUMPI POP DUP1 PUSH20 0xFFFFFFFFFFFFFFFFFFFFFFFFFFFFFFFFFFFFFFFF AND DUP10 PUSH20 0xFFFFFFFFFFFFFFFFFFFFFFFFFFFFFFFFFFFFFFFF AND EQ ISZERO JUMPDEST PUSH2 0x733 JUMPI PUSH1 0x40 MLOAD PUSH32 0x8C379A000000000000000000000000000000000000000000000000000000000 DUP2 MSTORE PUSH1 0x4 ADD PUSH2 0x72A SWAP1 PUSH2 0x2C27 JUMP JUMPDEST PUSH1 0x40 MLOAD DUP1 SWAP2 SUB SWAP1 REVERT JUMPDEST PUSH1 0x0 DUP12 GT ISZERO PUSH2 0x748 JUMPI PUSH2 0x747 DUP3 DUP11 DUP14 PUSH2 0x1B99 JUMP JUMPDEST JUMPDEST PUSH1 0x0 DUP11 GT ISZERO PUSH2 0x75D JUMPI PUSH2 0x75C DUP2 DUP11 DUP13 PUSH2 0x1B99 JUMP JUMPDEST JUMPDEST DUP2 PUSH20 0xFFFFFFFFFFFFFFFFFFFFFFFFFFFFFFFFFFFFFFFF AND PUSH4 0x70A08231 ADDRESS PUSH1 0x40 MLOAD DUP3 PUSH4 0xFFFFFFFF AND PUSH1 0xE0 SHL DUP2 MSTORE PUSH1 0x4 ADD PUSH2 0x796 SWAP2 SWAP1 PUSH2 0x2760 JUMP JUMPDEST PUSH1 0x20 PUSH1 0x40 MLOAD DUP1 DUP4 SUB DUP2 DUP7 GAS STATICCALL ISZERO DUP1 ISZERO PUSH2 0x7B3 JUMPI RETURNDATASIZE PUSH1 0x0 DUP1 RETURNDATACOPY RETURNDATASIZE PUSH1 0x0 REVERT JUMPDEST POP POP POP POP PUSH1 0x40 MLOAD RETURNDATASIZE PUSH1 0x1F NOT PUSH1 0x1F DUP3 ADD AND DUP3 ADD DUP1 PUSH1 0x40 MSTORE POP DUP2 ADD SWAP1 PUSH2 0x7D7 SWAP2 SWAP1 PUSH2 0x2C5C JUMP JUMPDEST SWAP4 POP DUP1 PUSH20 0xFFFFFFFFFFFFFFFFFFFFFFFFFFFFFFFFFFFFFFFF AND PUSH4 0x70A08231 ADDRESS PUSH1 0x40 MLOAD DUP3 PUSH4 0xFFFFFFFF AND PUSH1 0xE0 SHL DUP2 MSTORE PUSH1 0x4 ADD PUSH2 0x812 SWAP2 SWAP1 PUSH2 0x2760 JUMP JUMPDEST PUSH1 0x20 PUSH1 0x40 MLOAD DUP1 DUP4 SUB DUP2 DUP7 GAS STATICCALL ISZERO DUP1 ISZERO PUSH2 0x82F JUMPI RETURNDATASIZE PUSH1 0x0 DUP1 RETURNDATACOPY RETURNDATASIZE PUSH1 0x0 REVERT JUMPDEST POP POP POP POP PUSH1 0x40 MLOAD RETURNDATASIZE PUSH1 0x1F NOT PUSH1 0x1F DUP3 ADD AND DUP3 ADD DUP1 PUSH1 0x40 MSTORE POP DUP2 ADD SWAP1 PUSH2 0x853 SWAP2 SWAP1 PUSH2 0x2C5C JUMP JUMPDEST SWAP3 POP POP POP PUSH1 0x0 DUP10 DUP6 PUSH14 0xFFFFFFFFFFFFFFFFFFFFFFFFFFFF AND PUSH2 0x875 SWAP2 SWAP1 PUSH2 0x2CB8 JUMP JUMPDEST DUP4 GT PUSH2 0x882 JUMPI PUSH1 0x0 PUSH2 0x8AA JUMP JUMPDEST DUP10 DUP6 PUSH14 0xFFFFFFFFFFFFFFFFFFFFFFFFFFFF AND PUSH2 0x89E SWAP2 SWAP1 PUSH2 0x2CB8 JUMP JUMPDEST DUP4 PUSH2 0x8A9 SWAP2 SWAP1 PUSH2 0x2CB8 JUMP JUMPDEST JUMPDEST SWAP1 POP PUSH1 0x0 DUP10 DUP6 PUSH14 0xFFFFFFFFFFFFFFFFFFFFFFFFFFFF AND PUSH2 0x8CA SWAP2 SWAP1 PUSH2 0x2CB8 JUMP JUMPDEST DUP4 GT PUSH2 0x8D7 JUMPI PUSH1 0x0 PUSH2 0x8FF JUMP JUMPDEST DUP10 DUP6 PUSH14 0xFFFFFFFFFFFFFFFFFFFFFFFFFFFF AND PUSH2 0x8F3 SWAP2 SWAP1 PUSH2 0x2CB8 JUMP JUMPDEST DUP4 PUSH2 0x8FE SWAP2 SWAP1 PUSH2 0x2CB8 JUMP JUMPDEST JUMPDEST SWAP1 POP PUSH1 0x0 DUP3 GT DUP1 PUSH2 0x910 JUMPI POP PUSH1 0x0 DUP2 GT JUMPDEST PUSH2 0x94F JUMPI PUSH1 0x40 MLOAD PUSH32 0x8C379A000000000000000000000000000000000000000000000000000000000 DUP2 MSTORE PUSH1 0x4 ADD PUSH2 0x946 SWAP1 PUSH2 0x2D5E JUMP JUMPDEST PUSH1 0x40 MLOAD DUP1 SWAP2 SUB SWAP1 REVERT JUMPDEST PUSH1 0x0 PUSH1 0x3 DUP4 PUSH2 0x95E SWAP2 SWAP1 PUSH2 0x2D7E JUMP JUMPDEST PUSH2 0x3E8 DUP7 PUSH2 0x96C SWAP2 SWAP1 PUSH2 0x2D7E JUMP JUMPDEST PUSH2 0x976 SWAP2 SWAP1 PUSH2 0x2CB8 JUMP JUMPDEST SWAP1 POP PUSH1 0x0 PUSH1 0x3 DUP4 PUSH2 0x987 SWAP2 SWAP1 PUSH2 0x2D7E JUMP JUMPDEST PUSH2 0x3E8 DUP7 PUSH2 0x995 SWAP2 SWAP1 PUSH2 0x2D7E JUMP JUMPDEST PUSH2 0x99F SWAP2 SWAP1 PUSH2 0x2CB8 JUMP JUMPDEST SWAP1 POP PUSH3 0xF4240 DUP8 PUSH14 0xFFFFFFFFFFFFFFFFFFFFFFFFFFFF AND DUP10 PUSH14 0xFFFFFFFFFFFFFFFFFFFFFFFFFFFF AND PUSH2 0x9D1 SWAP2 SWAP1 PUSH2 0x2D7E JUMP JUMPDEST PUSH2 0x9DB SWAP2 SWAP1 PUSH2 0x2D7E JUMP JUMPDEST DUP2 DUP4 PUSH2 0x9E7 SWAP2 SWAP1 PUSH2 0x2D7E JUMP JUMPDEST LT ISZERO PUSH2 0xA28 JUMPI PUSH1 0x40 MLOAD PUSH32 0x8C379A000000000000000000000000000000000000000000000000000000000 DUP2 MSTORE PUSH1 0x4 ADD PUSH2 0xA1F SWAP1 PUSH2 0x2E0C JUMP JUMPDEST PUSH1 0x40 MLOAD DUP1 SWAP2 SUB SWAP1 REVERT JUMPDEST POP POP PUSH2 0xA36 DUP5 DUP5 DUP9 DUP9 PUSH2 0x1D23 JUMP JUMPDEST POP POP POP POP POP POP PUSH1 0x1 PUSH1 0xC DUP2 SWAP1 SSTORE POP POP POP POP POP POP JUMP JUMPDEST PUSH1 0x40 MLOAD DUP1 PUSH1 0x40 ADD PUSH1 0x40 MSTORE DUP1 PUSH1 0xE DUP2 MSTORE PUSH1 0x20 ADD PUSH32 0x45524320556E6973776170205632000000000000000000000000000000000000 DUP2 MSTORE POP DUP2 JUMP JUMPDEST PUSH1 0x0 DUP1 PUSH1 0x0 PUSH1 0x8 PUSH1 0x0 SWAP1 SLOAD SWAP1 PUSH2 0x100 EXP SWAP1 DIV PUSH14 0xFFFFFFFFFFFFFFFFFFFFFFFFFFFF AND SWAP3 POP PUSH1 0x8 PUSH1 0xE SWAP1 SLOAD SWAP1 PUSH2 0x100 EXP SWAP1 DIV PUSH14 0xFFFFFFFFFFFFFFFFFFFFFFFFFFFF AND SWAP2 POP PUSH1 0x8 PUSH1 0x1C SWAP1 SLOAD SWAP1 PUSH2 0x100 EXP SWAP1 DIV PUSH4 0xFFFFFFFF AND SWAP1 POP SWAP1 SWAP2 SWAP3 JUMP JUMPDEST PUSH1 0x0 PUSH2 0xAEE CALLER DUP5 DUP5 PUSH2 0x1F0D JUMP JUMPDEST PUSH1 0x1 SWAP1 POP SWAP3 SWAP2 POP POP JUMP JUMPDEST PUSH1 0x1 PUSH1 0x0 SWAP1 SLOAD SWAP1 PUSH2 0x100 EXP SWAP1 DIV PUSH20 0xFFFFFFFFFFFFFFFFFFFFFFFFFFFFFFFFFFFFFFFF AND DUP2 JUMP JUMPDEST PUSH1 0x3 SLOAD DUP2 JUMP JUMPDEST PUSH1 0x0 PUSH16 0xFFFFFFFFFFFFFFFFFFFFFFFFFFFFFFFF PUSH1 0x5 PUSH1 0x0 DUP7 PUSH20 0xFFFFFFFFFFFFFFFFFFFFFFFFFFFFFFFFFFFFFFFF AND PUSH20 0xFFFFFFFFFFFFFFFFFFFFFFFFFFFFFFFFFFFFFFFF AND DUP2 MSTORE PUSH1 0x20 ADD SWAP1 DUP2 MSTORE PUSH1 0x20 ADD PUSH1 0x0 KECCAK256 PUSH1 0x0 CALLER PUSH20 0xFFFFFFFFFFFFFFFFFFFFFFFFFFFFFFFFFFFFFFFF AND PUSH20 0xFFFFFFFFFFFFFFFFFFFFFFFFFFFFFFFFFFFFFFFF AND DUP2 MSTORE PUSH1 0x20 ADD SWAP1 DUP2 MSTORE PUSH1 0x20 ADD PUSH1 0x0 KECCAK256 SLOAD EQ PUSH2 0xCC2 JUMPI DUP2 PUSH1 0x5 PUSH1 0x0 DUP7 PUSH20 0xFFFFFFFFFFFFFFFFFFFFFFFFFFFFFFFFFFFFFFFF AND PUSH20 0xFFFFFFFFFFFFFFFFFFFFFFFFFFFFFFFFFFFFFFFF AND DUP2 MSTORE PUSH1 0x20 ADD SWAP1 DUP2 MSTORE PUSH1 0x20 ADD PUSH1 0x0 KECCAK256 PUSH1 0x0 CALLER PUSH20 0xFFFFFFFFFFFFFFFFFFFFFFFFFFFFFFFFFFFFFFFF AND PUSH20 0xFFFFFFFFFFFFFFFFFFFFFFFFFFFFFFFFFFFFFFFF AND DUP2 MSTORE PUSH1 0x20 ADD SWAP1 DUP2 MSTORE PUSH1 0x20 ADD PUSH1 0x0 KECCAK256 SLOAD PUSH2 0xC41 SWAP2 SWAP1 PUSH2 0x2CB8 JUMP JUMPDEST PUSH1 0x5 PUSH1 0x0 DUP7 PUSH20 0xFFFFFFFFFFFFFFFFFFFFFFFFFFFFFFFFFFFFFFFF AND PUSH20 0xFFFFFFFFFFFFFFFFFFFFFFFFFFFFFFFFFFFFFFFF AND DUP2 MSTORE PUSH1 0x20 ADD SWAP1 DUP2 MSTORE PUSH1 0x20 ADD PUSH1 0x0 KECCAK256 PUSH1 0x0 CALLER PUSH20 0xFFFFFFFFFFFFFFFFFFFFFFFFFFFFFFFFFFFFFFFF AND PUSH20 0xFFFFFFFFFFFFFFFFFFFFFFFFFFFFFFFFFFFFFFFF AND DUP2 MSTORE PUSH1 0x20 ADD SWAP1 DUP2 MSTORE PUSH1 0x20 ADD PUSH1 0x0 KECCAK256 DUP2 SWAP1 SSTORE POP JUMPDEST PUSH2 0xCCD DUP5 DUP5 DUP5 PUSH2 0x1F93 JUMP JUMPDEST PUSH1 0x1 SWAP1 POP SWAP4 SWAP3 POP POP POP JUMP JUMPDEST PUSH32 0x6E71EDAE12B1B97F4D1F60370FEF10105FA2FAAE0126114A169C64845D6126C9 PUSH1 0x0 SHL DUP2 JUMP JUMPDEST PUSH1 0x12 DUP2 JUMP JUMPDEST PUSH1 0x6 SLOAD DUP2 JUMP JUMPDEST PUSH1 0x9 SLOAD DUP2 JUMP JUMPDEST PUSH1 0xA SLOAD DUP2 JUMP JUMPDEST PUSH1 0x0 PUSH1 0x1 PUSH1 0xC SLOAD EQ PUSH2 0xD5D JUMPI PUSH1 0x40 MLOAD PUSH32 0x8C379A000000000000000000000000000000000000000000000000000000000 DUP2 MSTORE PUSH1 0x4 ADD PUSH2 0xD54 SWAP1 PUSH2 0x2A3F JUMP JUMPDEST PUSH1 0x40 MLOAD DUP1 SWAP2 SUB SWAP1 REVERT JUMPDEST PUSH1 0x0 PUSH1 0xC DUP2 SWAP1 SSTORE POP PUSH1 0x0 DUP1 PUSH2 0xD70 PUSH2 0xA84 JUMP JUMPDEST POP SWAP2 POP SWAP2 POP PUSH1 0x0 PUSH1 0x1 PUSH1 0x0 SWAP1 SLOAD SWAP1 PUSH2 0x100 EXP SWAP1 DIV PUSH20 0xFFFFFFFFFFFFFFFFFFFFFFFFFFFFFFFFFFFFFFFF AND PUSH20 0xFFFFFFFFFFFFFFFFFFFFFFFFFFFFFFFFFFFFFFFF AND PUSH4 0x70A08231 ADDRESS PUSH1 0x40 MLOAD DUP3 PUSH4 0xFFFFFFFF AND PUSH1 0xE0 SHL DUP2 MSTORE PUSH1 0x4 ADD PUSH2 0xDD2 SWAP2 SWAP1 PUSH2 0x2760 JUMP JUMPDEST PUSH1 0x20 PUSH1 0x40 MLOAD DUP1 DUP4 SUB DUP2 DUP7 GAS STATICCALL ISZERO DUP1 ISZERO PUSH2 0xDEF JUMPI RETURNDATASIZE PUSH1 0x0 DUP1 RETURNDATACOPY RETURNDATASIZE PUSH1 0x0 REVERT JUMPDEST POP POP POP POP PUSH1 0x40 MLOAD RETURNDATASIZE PUSH1 0x1F NOT PUSH1 0x1F DUP3 ADD AND DUP3 ADD DUP1 PUSH1 0x40 MSTORE POP DUP2 ADD SWAP1 PUSH2 0xE13 SWAP2 SWAP1 PUSH2 0x2C5C JUMP JUMPDEST SWAP1 POP PUSH1 0x0 PUSH1 0x2 PUSH1 0x0 SWAP1 SLOAD SWAP1 PUSH2 0x100 EXP SWAP1 DIV PUSH20 0xFFFFFFFFFFFFFFFFFFFFFFFFFFFFFFFFFFFFFFFF AND PUSH20 0xFFFFFFFFFFFFFFFFFFFFFFFFFFFFFFFFFFFFFFFF AND PUSH4 0x70A08231 ADDRESS PUSH1 0x40 MLOAD DUP3 PUSH4 0xFFFFFFFF AND PUSH1 0xE0 SHL DUP2 MSTORE PUSH1 0x4 ADD PUSH2 0xE72 SWAP2 SWAP1 PUSH2 0x2760 JUMP JUMPDEST PUSH1 0x20 PUSH1 0x40 MLOAD DUP1 DUP4 SUB DUP2 DUP7 GAS STATICCALL ISZERO DUP1 ISZERO PUSH2 0xE8F JUMPI RETURNDATASIZE PUSH1 0x0 DUP1 RETURNDATACOPY RETURNDATASIZE PUSH1 0x0 REVERT JUMPDEST POP POP POP POP PUSH1 0x40 MLOAD RETURNDATASIZE PUSH1 0x1F NOT PUSH1 0x1F DUP3 ADD AND DUP3 ADD DUP1 PUSH1 0x40 MSTORE POP DUP2 ADD SWAP1 PUSH2 0xEB3 SWAP2 SWAP1 PUSH2 0x2C5C JUMP JUMPDEST SWAP1 POP PUSH1 0x0 DUP5 PUSH14 0xFFFFFFFFFFFFFFFFFFFFFFFFFFFF AND DUP4 PUSH2 0xED3 SWAP2 SWAP1 PUSH2 0x2CB8 JUMP JUMPDEST SWAP1 POP PUSH1 0x0 DUP5 PUSH14 0xFFFFFFFFFFFFFFFFFFFFFFFFFFFF AND DUP4 PUSH2 0xEF3 SWAP2 SWAP1 PUSH2 0x2CB8 JUMP JUMPDEST SWAP1 POP PUSH1 0x0 PUSH2 0xF01 DUP8 DUP8 PUSH2 0x20B4 JUMP JUMPDEST SWAP1 POP PUSH1 0x0 PUSH1 0x3 SLOAD SWAP1 POP PUSH1 0x0 DUP2 SUB PUSH2 0xF45 JUMPI PUSH1 0x1 PUSH2 0xF28 DUP5 DUP7 PUSH2 0xF23 SWAP2 SWAP1 PUSH2 0x2D7E JUMP JUMPDEST PUSH2 0x220C JUMP JUMPDEST PUSH2 0xF32 SWAP2 SWAP1 PUSH2 0x2CB8 JUMP JUMPDEST SWAP9 POP PUSH2 0xF40 PUSH1 0x0 PUSH1 0x1 PUSH2 0x2286 JUMP JUMPDEST PUSH2 0xF9E JUMP JUMPDEST PUSH2 0xF9B DUP9 PUSH14 0xFFFFFFFFFFFFFFFFFFFFFFFFFFFF AND DUP3 DUP7 PUSH2 0xF65 SWAP2 SWAP1 PUSH2 0x2D7E JUMP JUMPDEST PUSH2 0xF6F SWAP2 SWAP1 PUSH2 0x2E5B JUMP JUMPDEST DUP9 PUSH14 0xFFFFFFFFFFFFFFFFFFFFFFFFFFFF AND DUP4 DUP7 PUSH2 0xF8C SWAP2 SWAP1 PUSH2 0x2D7E JUMP JUMPDEST PUSH2 0xF96 SWAP2 SWAP1 PUSH2 0x2E5B JUMP JUMPDEST PUSH2 0x232C JUMP JUMPDEST SWAP9 POP JUMPDEST PUSH1 0x0 DUP10 GT PUSH2 0xFE1 JUMPI PUSH1 0x40 MLOAD PUSH32 0x8C379A000000000000000000000000000000000000000000000000000000000 DUP2 MSTORE PUSH1 0x4 ADD PUSH2 0xFD8 SWAP1 PUSH2 0x2EFE JUMP JUMPDEST PUSH1 0x40 MLOAD DUP1 SWAP2 SUB SWAP1 REVERT JUMPDEST PUSH2 0xFEB DUP11 DUP11 PUSH2 0x2286 JUMP JUMPDEST PUSH2 0xFF7 DUP7 DUP7 DUP11 DUP11 PUSH2 0x1D23 JUMP JUMPDEST DUP2 ISZERO PUSH2 0x1068 JUMPI PUSH1 0x8 PUSH1 0xE SWAP1 SLOAD SWAP1 PUSH2 0x100 EXP SWAP1 DIV PUSH14 0xFFFFFFFFFFFFFFFFFFFFFFFFFFFF AND PUSH14 0xFFFFFFFFFFFFFFFFFFFFFFFFFFFF AND PUSH1 0x8 PUSH1 0x0 SWAP1 SLOAD SWAP1 PUSH2 0x100 EXP SWAP1 DIV PUSH14 0xFFFFFFFFFFFFFFFFFFFFFFFFFFFF AND PUSH14 0xFFFFFFFFFFFFFFFFFFFFFFFFFFFF AND PUSH2 0x1061 SWAP2 SWAP1 PUSH2 0x2D7E JUMP JUMPDEST PUSH1 0xB DUP2 SWAP1 SSTORE POP JUMPDEST POP POP POP POP POP POP POP POP PUSH1 0x1 PUSH1 0xC DUP2 SWAP1 SSTORE POP SWAP2 SWAP1 POP JUMP JUMPDEST PUSH1 0x4 PUSH1 0x20 MSTORE DUP1 PUSH1 0x0 MSTORE PUSH1 0x40 PUSH1 0x0 KECCAK256 PUSH1 0x0 SWAP2 POP SWAP1 POP SLOAD DUP2 JUMP JUMPDEST PUSH1 0xB SLOAD DUP2 JUMP JUMPDEST PUSH1 0x7 PUSH1 0x20 MSTORE DUP1 PUSH1 0x0 MSTORE PUSH1 0x40 PUSH1 0x0 KECCAK256 PUSH1 0x0 SWAP2 POP SWAP1 POP SLOAD DUP2 JUMP JUMPDEST PUSH1 0x0 DUP1 PUSH1 0x1 PUSH1 0xC SLOAD EQ PUSH2 0x10FB JUMPI PUSH1 0x40 MLOAD PUSH32 0x8C379A000000000000000000000000000000000000000000000000000000000 DUP2 MSTORE PUSH1 0x4 ADD PUSH2 0x10F2 SWAP1 PUSH2 0x2A3F JUMP JUMPDEST PUSH1 0x40 MLOAD DUP1 SWAP2 SUB SWAP1 REVERT JUMPDEST PUSH1 0x0 PUSH1 0xC DUP2 SWAP1 SSTORE POP PUSH1 0x0 DUP1 PUSH2 0x110E PUSH2 0xA84 JUMP JUMPDEST POP SWAP2 POP SWAP2 POP PUSH1 0x0 PUSH1 0x1 PUSH1 0x0 SWAP1 SLOAD SWAP1 PUSH2 0x100 EXP SWAP1 DIV PUSH20 0xFFFFFFFFFFFFFFFFFFFFFFFFFFFFFFFFFFFFFFFF AND SWAP1 POP PUSH1 0x0 PUSH1 0x2 PUSH1 0x0 SWAP1 SLOAD SWAP1 PUSH2 0x100 EXP SWAP1 DIV PUSH20 0xFFFFFFFFFFFFFFFFFFFFFFFFFFFFFFFFFFFFFFFF AND SWAP1 POP PUSH1 0x0 DUP3 PUSH20 0xFFFFFFFFFFFFFFFFFFFFFFFFFFFFFFFFFFFFFFFF AND PUSH4 0x70A08231 ADDRESS PUSH1 0x40 MLOAD DUP3 PUSH4 0xFFFFFFFF AND PUSH1 0xE0 SHL DUP2 MSTORE PUSH1 0x4 ADD PUSH2 0x119C SWAP2 SWAP1 PUSH2 0x2760 JUMP JUMPDEST PUSH1 0x20 PUSH1 0x40 MLOAD DUP1 DUP4 SUB DUP2 DUP7 GAS STATICCALL ISZERO DUP1 ISZERO PUSH2 0x11B9 JUMPI RETURNDATASIZE PUSH1 0x0 DUP1 RETURNDATACOPY RETURNDATASIZE PUSH1 0x0 REVERT JUMPDEST POP POP POP POP PUSH1 0x40 MLOAD RETURNDATASIZE PUSH1 0x1F NOT PUSH1 0x1F DUP3 ADD AND DUP3 ADD DUP1 PUSH1 0x40 MSTORE POP DUP2 ADD SWAP1 PUSH2 0x11DD SWAP2 SWAP1 PUSH2 0x2C5C JUMP JUMPDEST SWAP1 POP PUSH1 0x0 DUP3 PUSH20 0xFFFFFFFFFFFFFFFFFFFFFFFFFFFFFFFFFFFFFFFF AND PUSH4 0x70A08231 ADDRESS PUSH1 0x40 MLOAD DUP3 PUSH4 0xFFFFFFFF AND PUSH1 0xE0 SHL DUP2 MSTORE PUSH1 0x4 ADD PUSH2 0x121A SWAP2 SWAP1 PUSH2 0x2760 JUMP JUMPDEST PUSH1 0x20 PUSH1 0x40 MLOAD DUP1 DUP4 SUB DUP2 DUP7 GAS STATICCALL ISZERO DUP1 ISZERO PUSH2 0x1237 JUMPI RETURNDATASIZE PUSH1 0x0 DUP1 RETURNDATACOPY RETURNDATASIZE PUSH1 0x0 REVERT JUMPDEST POP POP POP POP PUSH1 0x40 MLOAD RETURNDATASIZE PUSH1 0x1F NOT PUSH1 0x1F DUP3 ADD AND DUP3 ADD DUP1 PUSH1 0x40 MSTORE POP DUP2 ADD SWAP1 PUSH2 0x125B SWAP2 SWAP1 PUSH2 0x2C5C JUMP JUMPDEST SWAP1 POP PUSH1 0x0 PUSH1 0x4 PUSH1 0x0 ADDRESS PUSH20 0xFFFFFFFFFFFFFFFFFFFFFFFFFFFFFFFFFFFFFFFF AND PUSH20 0xFFFFFFFFFFFFFFFFFFFFFFFFFFFFFFFFFFFFFFFF AND DUP2 MSTORE PUSH1 0x20 ADD SWAP1 DUP2 MSTORE PUSH1 0x20 ADD PUSH1 0x0 KECCAK256 SLOAD SWAP1 POP PUSH1 0x0 PUSH2 0x12AD DUP9 DUP9 PUSH2 0x20B4 JUMP JUMPDEST SWAP1 POP PUSH1 0x0 PUSH1 0x3 SLOAD SWAP1 POP DUP1 DUP6 DUP5 PUSH2 0x12C3 SWAP2 SWAP1 PUSH2 0x2D7E JUMP JUMPDEST PUSH2 0x12CD SWAP2 SWAP1 PUSH2 0x2E5B JUMP JUMPDEST SWAP11 POP DUP1 DUP5 DUP5 PUSH2 0x12DC SWAP2 SWAP1 PUSH2 0x2D7E JUMP JUMPDEST PUSH2 0x12E6 SWAP2 SWAP1 PUSH2 0x2E5B JUMP JUMPDEST SWAP10 POP PUSH1 0x0 DUP12 GT DUP1 ISZERO PUSH2 0x12F8 JUMPI POP PUSH1 0x0 DUP11 GT JUMPDEST PUSH2 0x1337 JUMPI PUSH1 0x40 MLOAD PUSH32 0x8C379A000000000000000000000000000000000000000000000000000000000 DUP2 MSTORE PUSH1 0x4 ADD PUSH2 0x132E SWAP1 PUSH2 0x2F90 JUMP JUMPDEST PUSH1 0x40 MLOAD DUP1 SWAP2 SUB SWAP1 REVERT JUMPDEST PUSH2 0x1341 ADDRESS DUP5 PUSH2 0x2345 JUMP JUMPDEST PUSH2 0x134C DUP8 DUP14 DUP14 PUSH2 0x1B99 JUMP JUMPDEST PUSH2 0x1357 DUP7 DUP14 DUP13 PUSH2 0x1B99 JUMP JUMPDEST DUP7 PUSH20 0xFFFFFFFFFFFFFFFFFFFFFFFFFFFFFFFFFFFFFFFF AND PUSH4 0x70A08231 ADDRESS PUSH1 0x40 MLOAD DUP3 PUSH4 0xFFFFFFFF AND PUSH1 0xE0 SHL DUP2 MSTORE PUSH1 0x4 ADD PUSH2 0x1390 SWAP2 SWAP1 PUSH2 0x2760 JUMP JUMPDEST PUSH1 0x20 PUSH1 0x40 MLOAD DUP1 DUP4 SUB DUP2 DUP7 GAS STATICCALL ISZERO DUP1 ISZERO PUSH2 0x13AD JUMPI RETURNDATASIZE PUSH1 0x0 DUP1 RETURNDATACOPY RETURNDATASIZE PUSH1 0x0 REVERT JUMPDEST POP POP POP POP PUSH1 0x40 MLOAD RETURNDATASIZE PUSH1 0x1F NOT PUSH1 0x1F DUP3 ADD AND DUP3 ADD DUP1 PUSH1 0x40 MSTORE POP DUP2 ADD SWAP1 PUSH2 0x13D1 SWAP2 SWAP1 PUSH2 0x2C5C JUMP JUMPDEST SWAP5 POP DUP6 PUSH20 0xFFFFFFFFFFFFFFFFFFFFFFFFFFFFFFFFFFFFFFFF AND PUSH4 0x70A08231 ADDRESS PUSH1 0x40 MLOAD DUP3 PUSH4 0xFFFFFFFF AND PUSH1 0xE0 SHL DUP2 MSTORE PUSH1 0x4 ADD PUSH2 0x140C SWAP2 SWAP1 PUSH2 0x2760 JUMP JUMPDEST PUSH1 0x20 PUSH1 0x40 MLOAD DUP1 DUP4 SUB DUP2 DUP7 GAS STATICCALL ISZERO DUP1 ISZERO PUSH2 0x1429 JUMPI RETURNDATASIZE PUSH1 0x0 DUP1 RETURNDATACOPY RETURNDATASIZE PUSH1 0x0 REVERT JUMPDEST POP POP POP POP PUSH1 0x40 MLOAD RETURNDATASIZE PUSH1 0x1F NOT PUSH1 0x1F DUP3 ADD AND DUP3 ADD DUP1 PUSH1 0x40 MSTORE POP DUP2 ADD SWAP1 PUSH2 0x144D SWAP2 SWAP1 PUSH2 0x2C5C JUMP JUMPDEST SWAP4 POP PUSH2 0x145B DUP6 DUP6 DUP12 DUP12 PUSH2 0x1D23 JUMP JUMPDEST DUP2 ISZERO PUSH2 0x14CC JUMPI PUSH1 0x8 PUSH1 0xE SWAP1 SLOAD SWAP1 PUSH2 0x100 EXP SWAP1 DIV PUSH14 0xFFFFFFFFFFFFFFFFFFFFFFFFFFFF AND PUSH14 0xFFFFFFFFFFFFFFFFFFFFFFFFFFFF AND PUSH1 0x8 PUSH1 0x0 SWAP1 SLOAD SWAP1 PUSH2 0x100 EXP SWAP1 DIV PUSH14 0xFFFFFFFFFFFFFFFFFFFFFFFFFFFF AND PUSH14 0xFFFFFFFFFFFFFFFFFFFFFFFFFFFF AND PUSH2 0x14C5 SWAP2 SWAP1 PUSH2 0x2D7E JUMP JUMPDEST PUSH1 0xB DUP2 SWAP1 SSTORE POP JUMPDEST POP POP POP POP POP POP POP POP POP PUSH1 0x1 PUSH1 0xC DUP2 SWAP1 SSTORE POP SWAP2 POP SWAP2 JUMP JUMPDEST PUSH1 0x40 MLOAD DUP1 PUSH1 0x40 ADD PUSH1 0x40 MSTORE DUP1 PUSH1 0xA DUP2 MSTORE PUSH1 0x20 ADD PUSH32 0x45524320554E492D563200000000000000000000000000000000000000000000 DUP2 MSTORE POP DUP2 JUMP JUMPDEST PUSH1 0x0 PUSH2 0x1528 CALLER DUP5 DUP5 PUSH2 0x1F93 JUMP JUMPDEST PUSH1 0x1 SWAP1 POP SWAP3 SWAP2 POP POP JUMP JUMPDEST PUSH1 0x1 DUP2 JUMP JUMPDEST PUSH1 0x1 PUSH1 0xC SLOAD EQ PUSH2 0x157C JUMPI PUSH1 0x40 MLOAD PUSH32 0x8C379A000000000000000000000000000000000000000000000000000000000 DUP2 MSTORE PUSH1 0x4 ADD PUSH2 0x1573 SWAP1 PUSH2 0x2A3F JUMP JUMPDEST PUSH1 0x40 MLOAD DUP1 SWAP2 SUB SWAP1 REVERT JUMPDEST PUSH1 0x0 PUSH1 0xC DUP2 SWAP1 SSTORE POP PUSH1 0x0 PUSH1 0x1 PUSH1 0x0 SWAP1 SLOAD SWAP1 PUSH2 0x100 EXP SWAP1 DIV PUSH20 0xFFFFFFFFFFFFFFFFFFFFFFFFFFFFFFFFFFFFFFFF AND SWAP1 POP PUSH1 0x0 PUSH1 0x2 PUSH1 0x0 SWAP1 SLOAD SWAP1 PUSH2 0x100 EXP SWAP1 DIV PUSH20 0xFFFFFFFFFFFFFFFFFFFFFFFFFFFFFFFFFFFFFFFF AND SWAP1 POP PUSH2 0x168D DUP3 DUP5 PUSH1 0x8 PUSH1 0x0 SWAP1 SLOAD SWAP1 PUSH2 0x100 EXP SWAP1 DIV PUSH14 0xFFFFFFFFFFFFFFFFFFFFFFFFFFFF AND PUSH14 0xFFFFFFFFFFFFFFFFFFFFFFFFFFFF AND DUP6 PUSH20 0xFFFFFFFFFFFFFFFFFFFFFFFFFFFFFFFFFFFFFFFF AND PUSH4 0x70A08231 ADDRESS PUSH1 0x40 MLOAD DUP3 PUSH4 0xFFFFFFFF AND PUSH1 0xE0 SHL DUP2 MSTORE PUSH1 0x4 ADD PUSH2 0x163D SWAP2 SWAP1 PUSH2 0x2760 JUMP JUMPDEST PUSH1 0x20 PUSH1 0x40 MLOAD DUP1 DUP4 SUB DUP2 DUP7 GAS STATICCALL ISZERO DUP1 ISZERO PUSH2 0x165A JUMPI RETURNDATASIZE PUSH1 0x0 DUP1 RETURNDATACOPY RETURNDATASIZE PUSH1 0x0 REVERT JUMPDEST POP POP POP POP PUSH1 0x40 MLOAD RETURNDATASIZE PUSH1 0x1F NOT PUSH1 0x1F DUP3 ADD AND DUP3 ADD DUP1 PUSH1 0x40 MSTORE POP DUP2 ADD SWAP1 PUSH2 0x167E SWAP2 SWAP1 PUSH2 0x2C5C JUMP JUMPDEST PUSH2 0x1688 SWAP2 SWAP1 PUSH2 0x2CB8 JUMP JUMPDEST PUSH2 0x1B99 JUMP JUMPDEST PUSH2 0x1748 DUP2 DUP5 PUSH1 0x8 PUSH1 0xE SWAP1 SLOAD SWAP1 PUSH2 0x100 EXP SWAP1 DIV PUSH14 0xFFFFFFFFFFFFFFFFFFFFFFFFFFFF AND PUSH14 0xFFFFFFFFFFFFFFFFFFFFFFFFFFFF AND DUP5 PUSH20 0xFFFFFFFFFFFFFFFFFFFFFFFFFFFFFFFFFFFFFFFF AND PUSH4 0x70A08231 ADDRESS PUSH1 0x40 MLOAD DUP3 PUSH4 0xFFFFFFFF AND PUSH1 0xE0 SHL DUP2 MSTORE PUSH1 0x4 ADD PUSH2 0x16F8 SWAP2 SWAP1 PUSH2 0x2760 JUMP JUMPDEST PUSH1 0x20 PUSH1 0x40 MLOAD DUP1 DUP4 SUB DUP2 DUP7 GAS STATICCALL ISZERO DUP1 ISZERO PUSH2 0x1715 JUMPI RETURNDATASIZE PUSH1 0x0 DUP1 RETURNDATACOPY RETURNDATASIZE PUSH1 0x0 REVERT JUMPDEST POP POP POP POP PUSH1 0x40 MLOAD RETURNDATASIZE PUSH1 0x1F NOT PUSH1 0x1F DUP3 ADD AND DUP3 ADD DUP1 PUSH1 0x40 MSTORE POP DUP2 ADD SWAP1 PUSH2 0x1739 SWAP2 SWAP1 PUSH2 0x2C5C JUMP JUMPDEST PUSH2 0x1743 SWAP2 SWAP1 PUSH2 0x2CB8 JUMP JUMPDEST PUSH2 0x1B99 JUMP JUMPDEST POP POP PUSH1 0x1 PUSH1 0xC DUP2 SWAP1 SSTORE POP POP JUMP JUMPDEST PUSH1 0x2 PUSH1 0x0 SWAP1 SLOAD SWAP1 PUSH2 0x100 EXP SWAP1 DIV PUSH20 0xFFFFFFFFFFFFFFFFFFFFFFFFFFFFFFFFFFFFFFFF AND DUP2 JUMP JUMPDEST TIMESTAMP DUP5 LT ISZERO PUSH2 0x17BE JUMPI PUSH1 0x40 MLOAD PUSH32 0x8C379A000000000000000000000000000000000000000000000000000000000 DUP2 MSTORE PUSH1 0x4 ADD PUSH2 0x17B5 SWAP1 PUSH2 0x2FFC JUMP JUMPDEST PUSH1 0x40 MLOAD DUP1 SWAP2 SUB SWAP1 REVERT JUMPDEST PUSH1 0x0 PUSH1 0x6 SLOAD PUSH32 0x6E71EDAE12B1B97F4D1F60370FEF10105FA2FAAE0126114A169C64845D6126C9 PUSH1 0x0 SHL DUP10 DUP10 DUP10 PUSH1 0x7 PUSH1 0x0 DUP15 PUSH20 0xFFFFFFFFFFFFFFFFFFFFFFFFFFFFFFFFFFFFFFFF AND PUSH20 0xFFFFFFFFFFFFFFFFFFFFFFFFFFFFFFFFFFFFFFFF AND DUP2 MSTORE PUSH1 0x20 ADD SWAP1 DUP2 MSTORE PUSH1 0x20 ADD PUSH1 0x0 KECCAK256 PUSH1 0x0 DUP2 SLOAD DUP1 SWAP3 SWAP2 SWAP1 PUSH2 0x183A SWAP1 PUSH2 0x301C JUMP JUMPDEST SWAP2 SWAP1 POP SSTORE DUP11 PUSH1 0x40 MLOAD PUSH1 0x20 ADD PUSH2 0x1854 SWAP7 SWAP6 SWAP5 SWAP4 SWAP3 SWAP2 SWAP1 PUSH2 0x3064 JUMP JUMPDEST PUSH1 0x40 MLOAD PUSH1 0x20 DUP2 DUP4 SUB SUB DUP2 MSTORE SWAP1 PUSH1 0x40 MSTORE DUP1 MLOAD SWAP1 PUSH1 0x20 ADD KECCAK256 PUSH1 0x40 MLOAD PUSH1 0x20 ADD PUSH2 0x187B SWAP3 SWAP2 SWAP1 PUSH2 0x313D JUMP JUMPDEST PUSH1 0x40 MLOAD PUSH1 0x20 DUP2 DUP4 SUB SUB DUP2 MSTORE SWAP1 PUSH1 0x40 MSTORE DUP1 MLOAD SWAP1 PUSH1 0x20 ADD KECCAK256 SWAP1 POP PUSH1 0x0 PUSH1 0x1 DUP3 DUP7 DUP7 DUP7 PUSH1 0x40 MLOAD PUSH1 0x0 DUP2 MSTORE PUSH1 0x20 ADD PUSH1 0x40 MSTORE PUSH1 0x40 MLOAD PUSH2 0x18B8 SWAP5 SWAP4 SWAP3 SWAP2 SWAP1 PUSH2 0x3174 JUMP JUMPDEST PUSH1 0x20 PUSH1 0x40 MLOAD PUSH1 0x20 DUP2 SUB SWAP1 DUP1 DUP5 SUB SWAP1 DUP6 GAS STATICCALL ISZERO DUP1 ISZERO PUSH2 0x18DA JUMPI RETURNDATASIZE PUSH1 0x0 DUP1 RETURNDATACOPY RETURNDATASIZE PUSH1 0x0 REVERT JUMPDEST POP POP POP PUSH1 0x20 PUSH1 0x40 MLOAD SUB MLOAD SWAP1 POP PUSH1 0x0 PUSH20 0xFFFFFFFFFFFFFFFFFFFFFFFFFFFFFFFFFFFFFFFF AND DUP2 PUSH20 0xFFFFFFFFFFFFFFFFFFFFFFFFFFFFFFFFFFFFFFFF AND EQ ISZERO DUP1 ISZERO PUSH2 0x194E JUMPI POP DUP9 PUSH20 0xFFFFFFFFFFFFFFFFFFFFFFFFFFFFFFFFFFFFFFFF AND DUP2 PUSH20 0xFFFFFFFFFFFFFFFFFFFFFFFFFFFFFFFFFFFFFFFF AND EQ JUMPDEST PUSH2 0x198D JUMPI PUSH1 0x40 MLOAD PUSH32 0x8C379A000000000000000000000000000000000000000000000000000000000 DUP2 MSTORE PUSH1 0x4 ADD PUSH2 0x1984 SWAP1 PUSH2 0x3205 JUMP JUMPDEST PUSH1 0x40 MLOAD DUP1 SWAP2 SUB SWAP1 REVERT JUMPDEST PUSH2 0x1998 DUP10 DUP10 DUP10 PUSH2 0x1F0D JUMP JUMPDEST POP POP POP POP POP POP POP POP POP JUMP JUMPDEST PUSH1 0x5 PUSH1 0x20 MSTORE DUP2 PUSH1 0x0 MSTORE PUSH1 0x40 PUSH1 0x0 KECCAK256 PUSH1 0x20 MSTORE DUP1 PUSH1 0x0 MSTORE PUSH1 0x40 PUSH1 0x0 KECCAK256 PUSH1 0x0 SWAP2 POP SWAP2 POP POP SLOAD DUP2 JUMP JUMPDEST PUSH1 0x1 PUSH1 0xC SLOAD EQ PUSH2 0x1A0D JUMPI PUSH1 0x40 MLOAD PUSH32 0x8C379A000000000000000000000000000000000000000000000000000000000 DUP2 MSTORE PUSH1 0x4 ADD PUSH2 0x1A04 SWAP1 PUSH2 0x2A3F JUMP JUMPDEST PUSH1 0x40 MLOAD DUP1 SWAP2 SUB SWAP1 REVERT JUMPDEST PUSH1 0x0 PUSH1 0xC DUP2 SWAP1 SSTORE POP PUSH2 0x1B8F PUSH1 0x1 PUSH1 0x0 SWAP1 SLOAD SWAP1 PUSH2 0x100 EXP SWAP1 DIV PUSH20 0xFFFFFFFFFFFFFFFFFFFFFFFFFFFFFFFFFFFFFFFF AND PUSH20 0xFFFFFFFFFFFFFFFFFFFFFFFFFFFFFFFFFFFFFFFF AND PUSH4 0x70A08231 ADDRESS PUSH1 0x40 MLOAD DUP3 PUSH4 0xFFFFFFFF AND PUSH1 0xE0 SHL DUP2 MSTORE PUSH1 0x4 ADD PUSH2 0x1A73 SWAP2 SWAP1 PUSH2 0x2760 JUMP JUMPDEST PUSH1 0x20 PUSH1 0x40 MLOAD DUP1 DUP4 SUB DUP2 DUP7 GAS STATICCALL ISZERO DUP1 ISZERO PUSH2 0x1A90 JUMPI RETURNDATASIZE PUSH1 0x0 DUP1 RETURNDATACOPY RETURNDATASIZE PUSH1 0x0 REVERT JUMPDEST POP POP POP POP PUSH1 0x40 MLOAD RETURNDATASIZE PUSH1 0x1F NOT PUSH1 0x1F DUP3 ADD AND DUP3 ADD DUP1 PUSH1 0x40 MSTORE POP DUP2 ADD SWAP1 PUSH2 0x1AB4 SWAP2 SWAP1 PUSH2 0x2C5C JUMP JUMPDEST PUSH1 0x2 PUSH1 0x0 SWAP1 SLOAD SWAP1 PUSH2 0x100 EXP SWAP1 DIV PUSH20 0xFFFFFFFFFFFFFFFFFFFFFFFFFFFFFFFFFFFFFFFF AND PUSH20 0xFFFFFFFFFFFFFFFFFFFFFFFFFFFFFFFFFFFFFFFF AND PUSH4 0x70A08231 ADDRESS PUSH1 0x40 MLOAD DUP3 PUSH4 0xFFFFFFFF AND PUSH1 0xE0 SHL DUP2 MSTORE PUSH1 0x4 ADD PUSH2 0x1B0F SWAP2 SWAP1 PUSH2 0x2760 JUMP JUMPDEST PUSH1 0x20 PUSH1 0x40 MLOAD DUP1 DUP4 SUB DUP2 DUP7 GAS STATICCALL ISZERO DUP1 ISZERO PUSH2 0x1B2C JUMPI RETURNDATASIZE PUSH1 0x0 DUP1 RETURNDATACOPY RETURNDATASIZE PUSH1 0x0 REVERT JUMPDEST POP POP POP POP PUSH1 0x40 MLOAD RETURNDATASIZE PUSH1 0x1F NOT PUSH1 0x1F DUP3 ADD AND DUP3 ADD DUP1 PUSH1 0x40 MSTORE POP DUP2 ADD SWAP1 PUSH2 0x1B50 SWAP2 SWAP1 PUSH2 0x2C5C JUMP JUMPDEST PUSH1 0x8 PUSH1 0x0 SWAP1 SLOAD SWAP1 PUSH2 0x100 EXP SWAP1 DIV PUSH14 0xFFFFFFFFFFFFFFFFFFFFFFFFFFFF AND PUSH1 0x8 PUSH1 0xE SWAP1 SLOAD SWAP1 PUSH2 0x100 EXP SWAP1 DIV PUSH14 0xFFFFFFFFFFFFFFFFFFFFFFFFFFFF AND PUSH2 0x1D23 JUMP JUMPDEST PUSH1 0x1 PUSH1 0xC DUP2 SWAP1 SSTORE POP JUMP JUMPDEST PUSH1 0x0 DUP1 DUP5 PUSH20 0xFFFFFFFFFFFFFFFFFFFFFFFFFFFFFFFFFFFFFFFF AND PUSH1 0x40 MLOAD DUP1 PUSH1 0x40 ADD PUSH1 0x40 MSTORE DUP1 PUSH1 0x19 DUP2 MSTORE PUSH1 0x20 ADD PUSH32 0x7472616E7366657228616464726573732C75696E743235362900000000000000 DUP2 MSTORE POP DUP1 MLOAD SWAP1 PUSH1 0x20 ADD KECCAK256 DUP6 DUP6 PUSH1 0x40 MLOAD PUSH1 0x24 ADD PUSH2 0x1C03 SWAP3 SWAP2 SWAP1 PUSH2 0x3225 JUMP JUMPDEST PUSH1 0x40 MLOAD PUSH1 0x20 DUP2 DUP4 SUB SUB DUP2 MSTORE SWAP1 PUSH1 0x40 MSTORE SWAP1 PUSH28 0xFFFFFFFFFFFFFFFFFFFFFFFFFFFFFFFFFFFFFFFFFFFFFFFFFFFFFFFF NOT AND PUSH1 0x20 DUP3 ADD DUP1 MLOAD PUSH28 0xFFFFFFFFFFFFFFFFFFFFFFFFFFFFFFFFFFFFFFFFFFFFFFFFFFFFFFFF DUP4 DUP2 DUP4 AND OR DUP4 MSTORE POP POP POP POP PUSH1 0x40 MLOAD PUSH2 0x1C6D SWAP2 SWAP1 PUSH2 0x328A JUMP JUMPDEST PUSH1 0x0 PUSH1 0x40 MLOAD DUP1 DUP4 SUB DUP2 PUSH1 0x0 DUP7 GAS CALL SWAP2 POP POP RETURNDATASIZE DUP1 PUSH1 0x0 DUP2 EQ PUSH2 0x1CAA JUMPI PUSH1 0x40 MLOAD SWAP2 POP PUSH1 0x1F NOT PUSH1 0x3F RETURNDATASIZE ADD AND DUP3 ADD PUSH1 0x40 MSTORE RETURNDATASIZE DUP3 MSTORE RETURNDATASIZE PUSH1 0x0 PUSH1 0x20 DUP5 ADD RETURNDATACOPY PUSH2 0x1CAF JUMP JUMPDEST PUSH1 0x60 SWAP2 POP JUMPDEST POP SWAP2 POP SWAP2 POP DUP2 DUP1 ISZERO PUSH2 0x1CDD JUMPI POP PUSH1 0x0 DUP2 MLOAD EQ DUP1 PUSH2 0x1CDC JUMPI POP DUP1 DUP1 PUSH1 0x20 ADD SWAP1 MLOAD DUP2 ADD SWAP1 PUSH2 0x1CDB SWAP2 SWAP1 PUSH2 0x32CD JUMP JUMPDEST JUMPDEST JUMPDEST PUSH2 0x1D1C JUMPI PUSH1 0x40 MLOAD PUSH32 0x8C379A000000000000000000000000000000000000000000000000000000000 DUP2 MSTORE PUSH1 0x4 ADD PUSH2 0x1D13 SWAP1 PUSH2 0x3346 JUMP JUMPDEST PUSH1 0x40 MLOAD DUP1 SWAP2 SUB SWAP1 REVERT JUMPDEST POP POP POP POP POP JUMP JUMPDEST PUSH1 0x0 PUSH5 0x100000000 TIMESTAMP PUSH2 0x1D36 SWAP2 SWAP1 PUSH2 0x3366 JUMP JUMPDEST SWAP1 POP PUSH1 0x0 PUSH1 0x8 PUSH1 0x1C SWAP1 SLOAD SWAP1 PUSH2 0x100 EXP SWAP1 DIV PUSH4 0xFFFFFFFF AND DUP3 PUSH2 0x1D58 SWAP2 SWAP1 PUSH2 0x3397 JUMP JUMPDEST SWAP1 POP PUSH1 0x0 DUP2 PUSH4 0xFFFFFFFF AND GT DUP1 ISZERO PUSH2 0x1D81 JUMPI POP PUSH1 0x0 DUP5 PUSH14 0xFFFFFFFFFFFFFFFFFFFFFFFFFFFF AND EQ ISZERO JUMPDEST DUP1 ISZERO PUSH2 0x1D9E JUMPI POP PUSH1 0x0 DUP4 PUSH14 0xFFFFFFFFFFFFFFFFFFFFFFFFFFFF AND EQ ISZERO JUMPDEST ISZERO PUSH2 0x1E7A JUMPI DUP1 PUSH4 0xFFFFFFFF AND DUP5 PUSH14 0xFFFFFFFFFFFFFFFFFFFFFFFFFFFF AND PUSH2 0x1DC4 DUP6 PUSH2 0x23EB JUMP JUMPDEST PUSH2 0x1DCE SWAP2 SWAP1 PUSH2 0x33F7 JUMP JUMPDEST PUSH28 0xFFFFFFFFFFFFFFFFFFFFFFFFFFFFFFFFFFFFFFFFFFFFFFFFFFFFFFFF AND PUSH2 0x1DF6 SWAP2 SWAP1 PUSH2 0x2D7E JUMP JUMPDEST PUSH1 0x9 PUSH1 0x0 DUP3 DUP3 SLOAD PUSH2 0x1E07 SWAP2 SWAP1 PUSH2 0x3428 JUMP JUMPDEST SWAP3 POP POP DUP2 SWAP1 SSTORE POP DUP1 PUSH4 0xFFFFFFFF AND DUP4 PUSH14 0xFFFFFFFFFFFFFFFFFFFFFFFFFFFF AND PUSH2 0x1E2F DUP7 PUSH2 0x23EB JUMP JUMPDEST PUSH2 0x1E39 SWAP2 SWAP1 PUSH2 0x33F7 JUMP JUMPDEST PUSH28 0xFFFFFFFFFFFFFFFFFFFFFFFFFFFFFFFFFFFFFFFFFFFFFFFFFFFFFFFF AND PUSH2 0x1E61 SWAP2 SWAP1 PUSH2 0x2D7E JUMP JUMPDEST PUSH1 0xA PUSH1 0x0 DUP3 DUP3 SLOAD PUSH2 0x1E72 SWAP2 SWAP1 PUSH2 0x3428 JUMP JUMPDEST SWAP3 POP POP DUP2 SWAP1 SSTORE POP JUMPDEST DUP6 PUSH1 0x8 PUSH1 0x0 PUSH2 0x100 EXP DUP2 SLOAD DUP2 PUSH14 0xFFFFFFFFFFFFFFFFFFFFFFFFFFFF MUL NOT AND SWAP1 DUP4 PUSH14 0xFFFFFFFFFFFFFFFFFFFFFFFFFFFF AND MUL OR SWAP1 SSTORE POP DUP5 PUSH1 0x8 PUSH1 0xE PUSH2 0x100 EXP DUP2 SLOAD DUP2 PUSH14 0xFFFFFFFFFFFFFFFFFFFFFFFFFFFF MUL NOT AND SWAP1 DUP4 PUSH14 0xFFFFFFFFFFFFFFFFFFFFFFFFFFFF AND MUL OR SWAP1 SSTORE POP DUP2 PUSH1 0x8 PUSH1 0x1C PUSH2 0x100 EXP DUP2 SLOAD DUP2 PUSH4 0xFFFFFFFF MUL NOT AND SWAP1 DUP4 PUSH4 0xFFFFFFFF AND MUL OR SWAP1 SSTORE POP POP POP POP POP POP POP JUMP JUMPDEST DUP1 PUSH1 0x5 PUSH1 0x0 DUP6 PUSH20 0xFFFFFFFFFFFFFFFFFFFFFFFFFFFFFFFFFFFFFFFF AND PUSH20 0xFFFFFFFFFFFFFFFFFFFFFFFFFFFFFFFFFFFFFFFF AND DUP2 MSTORE PUSH1 0x20 ADD SWAP1 DUP2 MSTORE PUSH1 0x20 ADD PUSH1 0x0 KECCAK256 PUSH1 0x0 DUP5 PUSH20 0xFFFFFFFFFFFFFFFFFFFFFFFFFFFFFFFFFFFFFFFF AND PUSH20 0xFFFFFFFFFFFFFFFFFFFFFFFFFFFFFFFFFFFFFFFF AND DUP2 MSTORE PUSH1 0x20 ADD SWAP1 DUP2 MSTORE PUSH1 0x20 ADD PUSH1 0x0 KECCAK256 DUP2 SWAP1 SSTORE POP POP POP POP JUMP JUMPDEST DUP1 PUSH1 0x4 PUSH1 0x0 DUP6 PUSH20 0xFFFFFFFFFFFFFFFFFFFFFFFFFFFFFFFFFFFFFFFF AND PUSH20 0xFFFFFFFFFFFFFFFFFFFFFFFFFFFFFFFFFFFFFFFF AND DUP2 MSTORE PUSH1 0x20 ADD SWAP1 DUP2 MSTORE PUSH1 0x20 ADD PUSH1 0x0 KECCAK256 SLOAD PUSH2 0x1FDE SWAP2 SWAP1 PUSH2 0x2CB8 JUMP JUMPDEST PUSH1 0x4 PUSH1 0x0 DUP6 PUSH20 0xFFFFFFFFFFFFFFFFFFFFFFFFFFFFFFFFFFFFFFFF AND PUSH20 0xFFFFFFFFFFFFFFFFFFFFFFFFFFFFFFFFFFFFFFFF AND DUP2 MSTORE PUSH1 0x20 ADD SWAP1 DUP2 MSTORE PUSH1 0x20 ADD PUSH1 0x0 KECCAK256 DUP2 SWAP1 SSTORE POP DUP1 PUSH1 0x4 PUSH1 0x0 DUP5 PUSH20 0xFFFFFFFFFFFFFFFFFFFFFFFFFFFFFFFFFFFFFFFF AND PUSH20 0xFFFFFFFFFFFFFFFFFFFFFFFFFFFFFFFFFFFFFFFF AND DUP2 MSTORE PUSH1 0x20 ADD SWAP1 DUP2 MSTORE PUSH1 0x20 ADD PUSH1 0x0 KECCAK256 SLOAD PUSH2 0x206C SWAP2 SWAP1 PUSH2 0x2CB8 JUMP JUMPDEST PUSH1 0x4 PUSH1 0x0 DUP5 PUSH20 0xFFFFFFFFFFFFFFFFFFFFFFFFFFFFFFFFFFFFFFFF AND PUSH20 0xFFFFFFFFFFFFFFFFFFFFFFFFFFFFFFFFFFFFFFFF AND DUP2 MSTORE PUSH1 0x20 ADD SWAP1 DUP2 MSTORE PUSH1 0x20 ADD PUSH1 0x0 KECCAK256 DUP2 SWAP1 SSTORE POP POP POP POP JUMP JUMPDEST PUSH1 0x0 DUP1 PUSH20 0xFFFFFFFFFFFFFFFFFFFFFFFFFFFFFFFFFFFFFFFF AND PUSH1 0x0 DUP1 SLOAD SWAP1 PUSH2 0x100 EXP SWAP1 DIV PUSH20 0xFFFFFFFFFFFFFFFFFFFFFFFFFFFFFFFFFFFFFFFF AND PUSH20 0xFFFFFFFFFFFFFFFFFFFFFFFFFFFFFFFFFFFFFFFF AND EQ ISZERO SWAP1 POP PUSH1 0x0 PUSH1 0xB SLOAD SWAP1 POP DUP2 ISZERO PUSH2 0x21F3 JUMPI PUSH1 0x0 DUP2 EQ PUSH2 0x21EE JUMPI PUSH1 0x0 PUSH2 0x2153 DUP5 PUSH14 0xFFFFFFFFFFFFFFFFFFFFFFFFFFFF AND DUP7 PUSH14 0xFFFFFFFFFFFFFFFFFFFFFFFFFFFF AND PUSH2 0x214E SWAP2 SWAP1 PUSH2 0x2D7E JUMP JUMPDEST PUSH2 0x220C JUMP JUMPDEST SWAP1 POP PUSH1 0x0 PUSH2 0x2160 DUP4 PUSH2 0x220C JUMP JUMPDEST SWAP1 POP DUP1 DUP3 GT ISZERO PUSH2 0x21EB JUMPI PUSH1 0x0 DUP2 DUP4 PUSH2 0x2178 SWAP2 SWAP1 PUSH2 0x2CB8 JUMP JUMPDEST PUSH1 0x3 SLOAD PUSH2 0x2185 SWAP2 SWAP1 PUSH2 0x2D7E JUMP JUMPDEST SWAP1 POP PUSH1 0x0 DUP3 PUSH1 0x5 DUP6 PUSH2 0x2197 SWAP2 SWAP1 PUSH2 0x2D7E JUMP JUMPDEST PUSH2 0x21A1 SWAP2 SWAP1 PUSH2 0x3428 JUMP JUMPDEST SWAP1 POP PUSH1 0x0 DUP2 DUP4 PUSH2 0x21B1 SWAP2 SWAP1 PUSH2 0x2E5B JUMP JUMPDEST SWAP1 POP PUSH1 0x0 DUP2 GT ISZERO PUSH2 0x21E7 JUMPI PUSH2 0x21E6 PUSH1 0x0 DUP1 SLOAD SWAP1 PUSH2 0x100 EXP SWAP1 DIV PUSH20 0xFFFFFFFFFFFFFFFFFFFFFFFFFFFFFFFFFFFFFFFF AND DUP3 PUSH2 0x2286 JUMP JUMPDEST JUMPDEST POP POP POP JUMPDEST POP POP JUMPDEST PUSH2 0x2205 JUMP JUMPDEST PUSH1 0x0 DUP2 EQ PUSH2 0x2204 JUMPI PUSH1 0x0 PUSH1 0xB DUP2 SWAP1 SSTORE POP JUMPDEST JUMPDEST POP SWAP3 SWAP2 POP POP JUMP JUMPDEST PUSH1 0x0 PUSH1 0x3 DUP3 GT ISZERO PUSH2 0x2273 JUMPI DUP2 SWAP1 POP PUSH1 0x0 PUSH1 0x1 PUSH1 0x2 DUP5 PUSH2 0x222B SWAP2 SWAP1 PUSH2 0x2E5B JUMP JUMPDEST PUSH2 0x2235 SWAP2 SWAP1 PUSH2 0x3428 JUMP JUMPDEST SWAP1 POP JUMPDEST DUP2 DUP2 LT ISZERO PUSH2 0x226D JUMPI DUP1 SWAP2 POP PUSH1 0x2 DUP2 DUP3 DUP6 PUSH2 0x2252 SWAP2 SWAP1 PUSH2 0x2E5B JUMP JUMPDEST PUSH2 0x225C SWAP2 SWAP1 PUSH2 0x3428 JUMP JUMPDEST PUSH2 0x2266 SWAP2 SWAP1 PUSH2 0x2E5B JUMP JUMPDEST SWAP1 POP PUSH2 0x2238 JUMP JUMPDEST POP PUSH2 0x2281 JUMP JUMPDEST PUSH1 0x0 DUP3 EQ PUSH2 0x2280 JUMPI PUSH1 0x1 SWAP1 POP JUMPDEST JUMPDEST SWAP2 SWAP1 POP JUMP JUMPDEST DUP1 PUSH1 0x3 SLOAD PUSH2 0x2294 SWAP2 SWAP1 PUSH2 0x3428 JUMP JUMPDEST PUSH1 0x3 DUP2 SWAP1 SSTORE POP DUP1 PUSH1 0x4 PUSH1 0x0 DUP5 PUSH20 0xFFFFFFFFFFFFFFFFFFFFFFFFFFFFFFFFFFFFFFFF AND PUSH20 0xFFFFFFFFFFFFFFFFFFFFFFFFFFFFFFFFFFFFFFFF AND DUP2 MSTORE PUSH1 0x20 ADD SWAP1 DUP2 MSTORE PUSH1 0x20 ADD PUSH1 0x0 KECCAK256 SLOAD PUSH2 0x22E5 SWAP2 SWAP1 PUSH2 0x3428 JUMP JUMPDEST PUSH1 0x4 PUSH1 0x0 DUP5 PUSH20 0xFFFFFFFFFFFFFFFFFFFFFFFFFFFFFFFFFFFFFFFF AND PUSH20 0xFFFFFFFFFFFFFFFFFFFFFFFFFFFFFFFFFFFFFFFF AND DUP2 MSTORE PUSH1 0x20 ADD SWAP1 DUP2 MSTORE PUSH1 0x20 ADD PUSH1 0x0 KECCAK256 DUP2 SWAP1 SSTORE POP POP POP JUMP JUMPDEST PUSH1 0x0 DUP2 DUP4 LT PUSH2 0x233B JUMPI DUP2 PUSH2 0x233D JUMP JUMPDEST DUP3 JUMPDEST SWAP1 POP SWAP3 SWAP2 POP POP JUMP JUMPDEST DUP1 PUSH1 0x4 PUSH1 0x0 DUP5 PUSH20 0xFFFFFFFFFFFFFFFFFFFFFFFFFFFFFFFFFFFFFFFF AND PUSH20 0xFFFFFFFFFFFFFFFFFFFFFFFFFFFFFFFFFFFFFFFF AND DUP2 MSTORE PUSH1 0x20 ADD SWAP1 DUP2 MSTORE PUSH1 0x20 ADD PUSH1 0x0 KECCAK256 SLOAD PUSH2 0x2390 SWAP2 SWAP1 PUSH2 0x2CB8 JUMP JUMPDEST PUSH1 0x4 PUSH1 0x0 DUP5 PUSH20 0xFFFFFFFFFFFFFFFFFFFFFFFFFFFFFFFFFFFFFFFF AND PUSH20 0xFFFFFFFFFFFFFFFFFFFFFFFFFFFFFFFFFFFFFFFF AND DUP2 MSTORE PUSH1 0x20 ADD SWAP1 DUP2 MSTORE PUSH1 0x20 ADD PUSH1 0x0 KECCAK256 DUP2 SWAP1 SSTORE POP DUP1 PUSH1 0x3 SLOAD PUSH2 0x23E1 SWAP2 SWAP1 PUSH2 0x2CB8 JUMP JUMPDEST PUSH1 0x3 DUP2 SWAP1 SSTORE POP POP POP JUMP JUMPDEST PUSH1 0x0 PUSH15 0x10000000000000000000000000000 DUP3 PUSH14 0xFFFFFFFFFFFFFFFFFFFFFFFFFFFF AND PUSH2 0x2418 SWAP2 SWAP1 PUSH2 0x345C JUMP JUMPDEST SWAP1 POP SWAP2 SWAP1 POP JUMP JUMPDEST PUSH1 0x0 DUP1 REVERT JUMPDEST PUSH1 0x0 DUP1 REVERT JUMPDEST PUSH1 0x0 DUP2 SWAP1 POP SWAP2 SWAP1 POP JUMP JUMPDEST PUSH2 0x243C DUP2 PUSH2 0x2429 JUMP JUMPDEST DUP2 EQ PUSH2 0x2447 JUMPI PUSH1 0x0 DUP1 REVERT JUMPDEST POP JUMP JUMPDEST PUSH1 0x0 DUP2 CALLDATALOAD SWAP1 POP PUSH2 0x2459 DUP2 PUSH2 0x2433 JUMP JUMPDEST SWAP3 SWAP2 POP POP JUMP JUMPDEST PUSH1 0x0 PUSH20 0xFFFFFFFFFFFFFFFFFFFFFFFFFFFFFFFFFFFFFFFF DUP3 AND SWAP1 POP SWAP2 SWAP1 POP JUMP JUMPDEST PUSH1 0x0 PUSH2 0x248A DUP3 PUSH2 0x245F JUMP JUMPDEST SWAP1 POP SWAP2 SWAP1 POP JUMP JUMPDEST PUSH2 0x249A DUP2 PUSH2 0x247F JUMP JUMPDEST DUP2 EQ PUSH2 0x24A5 JUMPI PUSH1 0x0 DUP1 REVERT JUMPDEST POP JUMP JUMPDEST PUSH1 0x0 DUP2 CALLDATALOAD SWAP1 POP PUSH2 0x24B7 DUP2 PUSH2 0x2491 JUMP JUMPDEST SWAP3 SWAP2 POP POP JUMP JUMPDEST PUSH1 0x0 DUP1 REVERT JUMPDEST PUSH1 0x0 DUP1 REVERT JUMPDEST PUSH1 0x0 DUP1 REVERT JUMPDEST PUSH1 0x0 DUP1 DUP4 PUSH1 0x1F DUP5 ADD SLT PUSH2 0x24E2 JUMPI PUSH2 0x24E1 PUSH2 0x24BD JUMP JUMPDEST JUMPDEST DUP3 CALLDATALOAD SWAP1 POP PUSH8 0xFFFFFFFFFFFFFFFF DUP2 GT ISZERO PUSH2 0x24FF JUMPI PUSH2 0x24FE PUSH2 0x24C2 JUMP JUMPDEST JUMPDEST PUSH1 0x20 DUP4 ADD SWAP2 POP DUP4 PUSH1 0x1 DUP3 MUL DUP4 ADD GT ISZERO PUSH2 0x251B JUMPI PUSH2 0x251A PUSH2 0x24C7 JUMP JUMPDEST JUMPDEST SWAP3 POP SWAP3 SWAP1 POP JUMP JUMPDEST PUSH1 0x0 DUP1 PUSH1 0x0 DUP1 PUSH1 0x0 PUSH1 0x80 DUP7 DUP9 SUB SLT ISZERO PUSH2 0x253E JUMPI PUSH2 0x253D PUSH2 0x241F JUMP JUMPDEST JUMPDEST PUSH1 0x0 PUSH2 0x254C DUP9 DUP3 DUP10 ADD PUSH2 0x244A JUMP JUMPDEST SWAP6 POP POP PUSH1 0x20 PUSH2 0x255D DUP9 DUP3 DUP10 ADD PUSH2 0x244A JUMP JUMPDEST SWAP5 POP POP PUSH1 0x40 PUSH2 0x256E DUP9 DUP3 DUP10 ADD PUSH2 0x24A8 JUMP JUMPDEST SWAP4 POP POP PUSH1 0x60 DUP7 ADD CALLDATALOAD PUSH8 0xFFFFFFFFFFFFFFFF DUP2 GT ISZERO PUSH2 0x258F JUMPI PUSH2 0x258E PUSH2 0x2424 JUMP JUMPDEST JUMPDEST PUSH2 0x259B DUP9 DUP3 DUP10 ADD PUSH2 0x24CC JUMP JUMPDEST SWAP3 POP SWAP3 POP POP SWAP3 SWAP6 POP SWAP3 SWAP6 SWAP1 SWAP4 POP JUMP JUMPDEST PUSH1 0x0 DUP2 MLOAD SWAP1 POP SWAP2 SWAP1 POP JUMP JUMPDEST PUSH1 0x0 DUP3 DUP3 MSTORE PUSH1 0x20 DUP3 ADD SWAP1 POP SWAP3 SWAP2 POP POP JUMP JUMPDEST PUSH1 0x0 JUMPDEST DUP4 DUP2 LT ISZERO PUSH2 0x25E4 JUMPI DUP1 DUP3 ADD MLOAD DUP2 DUP5 ADD MSTORE PUSH1 0x20 DUP2 ADD SWAP1 POP PUSH2 0x25C9 JUMP JUMPDEST PUSH1 0x0 DUP5 DUP5 ADD MSTORE POP POP POP POP JUMP JUMPDEST PUSH1 0x0 PUSH1 0x1F NOT PUSH1 0x1F DUP4 ADD AND SWAP1 POP SWAP2 SWAP1 POP JUMP JUMPDEST PUSH1 0x0 PUSH2 0x260C DUP3 PUSH2 0x25AA JUMP JUMPDEST PUSH2 0x2616 DUP2 DUP6 PUSH2 0x25B5 JUMP JUMPDEST SWAP4 POP PUSH2 0x2626 DUP2 DUP6 PUSH1 0x20 DUP7 ADD PUSH2 0x25C6 JUMP JUMPDEST PUSH2 0x262F DUP2 PUSH2 0x25F0 JUMP JUMPDEST DUP5 ADD SWAP2 POP POP SWAP3 SWAP2 POP POP JUMP JUMPDEST PUSH1 0x0 PUSH1 0x20 DUP3 ADD SWAP1 POP DUP2 DUP2 SUB PUSH1 0x0 DUP4 ADD MSTORE PUSH2 0x2654 DUP2 DUP5 PUSH2 0x2601 JUMP JUMPDEST SWAP1 POP SWAP3 SWAP2 POP POP JUMP JUMPDEST PUSH1 0x0 PUSH14 0xFFFFFFFFFFFFFFFFFFFFFFFFFFFF DUP3 AND SWAP1 POP SWAP2 SWAP1 POP JUMP JUMPDEST PUSH2 0x267F DUP2 PUSH2 0x265C JUMP JUMPDEST DUP3 MSTORE POP POP JUMP JUMPDEST PUSH1 0x0 PUSH4 0xFFFFFFFF DUP3 AND SWAP1 POP SWAP2 SWAP1 POP JUMP JUMPDEST PUSH2 0x269E DUP2 PUSH2 0x2685 JUMP JUMPDEST DUP3 MSTORE POP POP JUMP JUMPDEST PUSH1 0x0 PUSH1 0x60 DUP3 ADD SWAP1 POP PUSH2 0x26B9 PUSH1 0x0 DUP4 ADD DUP7 PUSH2 0x2676 JUMP JUMPDEST PUSH2 0x26C6 PUSH1 0x20 DUP4 ADD DUP6 PUSH2 0x2676 JUMP JUMPDEST PUSH2 0x26D3 PUSH1 0x40 DUP4 ADD DUP5 PUSH2 0x2695 JUMP JUMPDEST SWAP5 SWAP4 POP POP POP POP JUMP JUMPDEST PUSH1 0x0 DUP1 PUSH1 0x40 DUP4 DUP6 SUB SLT ISZERO PUSH2 0x26F2 JUMPI PUSH2 0x26F1 PUSH2 0x241F JUMP JUMPDEST JUMPDEST PUSH1 0x0 PUSH2 0x2700 DUP6 DUP3 DUP7 ADD PUSH2 0x24A8 JUMP JUMPDEST SWAP3 POP POP PUSH1 0x20 PUSH2 0x2711 DUP6 DUP3 DUP7 ADD PUSH2 0x244A JUMP JUMPDEST SWAP2 POP POP SWAP3 POP SWAP3 SWAP1 POP JUMP JUMPDEST PUSH1 0x0 DUP2 ISZERO ISZERO SWAP1 POP SWAP2 SWAP1 POP JUMP JUMPDEST PUSH2 0x2730 DUP2 PUSH2 0x271B JUMP JUMPDEST DUP3 MSTORE POP POP JUMP JUMPDEST PUSH1 0x0 PUSH1 0x20 DUP3 ADD SWAP1 POP PUSH2 0x274B PUSH1 0x0 DUP4 ADD DUP5 PUSH2 0x2727 JUMP JUMPDEST SWAP3 SWAP2 POP POP JUMP JUMPDEST PUSH2 0x275A DUP2 PUSH2 0x247F JUMP JUMPDEST DUP3 MSTORE POP POP JUMP JUMPDEST PUSH1 0x0 PUSH1 0x20 DUP3 ADD SWAP1 POP PUSH2 0x2775 PUSH1 0x0 DUP4 ADD DUP5 PUSH2 0x2751 JUMP JUMPDEST SWAP3 SWAP2 POP POP JUMP JUMPDEST PUSH2 0x2784 DUP2 PUSH2 0x2429 JUMP JUMPDEST DUP3 MSTORE POP POP JUMP JUMPDEST PUSH1 0x0 PUSH1 0x20 DUP3 ADD SWAP1 POP PUSH2 0x279F PUSH1 0x0 DUP4 ADD DUP5 PUSH2 0x277B JUMP JUMPDEST SWAP3 SWAP2 POP POP JUMP JUMPDEST PUSH1 0x0 DUP1 PUSH1 0x0 PUSH1 0x60 DUP5 DUP7 SUB SLT ISZERO PUSH2 0x27BE JUMPI PUSH2 0x27BD PUSH2 0x241F JUMP JUMPDEST JUMPDEST PUSH1 0x0 PUSH2 0x27CC DUP7 DUP3 DUP8 ADD PUSH2 0x24A8 JUMP JUMPDEST SWAP4 POP POP PUSH1 0x20 PUSH2 0x27DD DUP7 DUP3 DUP8 ADD PUSH2 0x24A8 JUMP JUMPDEST SWAP3 POP POP PUSH1 0x40 PUSH2 0x27EE DUP7 DUP3 DUP8 ADD PUSH2 0x244A JUMP JUMPDEST SWAP2 POP POP SWAP3 POP SWAP3 POP SWAP3 JUMP JUMPDEST PUSH1 0x0 DUP2 SWAP1 POP SWAP2 SWAP1 POP JUMP JUMPDEST PUSH2 0x280B DUP2 PUSH2 0x27F8 JUMP JUMPDEST DUP3 MSTORE POP POP JUMP JUMPDEST PUSH1 0x0 PUSH1 0x20 DUP3 ADD SWAP1 POP PUSH2 0x2826 PUSH1 0x0 DUP4 ADD DUP5 PUSH2 0x2802 JUMP JUMPDEST SWAP3 SWAP2 POP POP JUMP JUMPDEST PUSH1 0x0 PUSH1 0xFF DUP3 AND SWAP1 POP SWAP2 SWAP1 POP JUMP JUMPDEST PUSH2 0x2842 DUP2 PUSH2 0x282C JUMP JUMPDEST DUP3 MSTORE POP POP JUMP JUMPDEST PUSH1 0x0 PUSH1 0x20 DUP3 ADD SWAP1 POP PUSH2 0x285D PUSH1 0x0 DUP4 ADD DUP5 PUSH2 0x2839 JUMP JUMPDEST SWAP3 SWAP2 POP POP JUMP JUMPDEST PUSH1 0x0 PUSH1 0x20 DUP3 DUP5 SUB SLT ISZERO PUSH2 0x2879 JUMPI PUSH2 0x2878 PUSH2 0x241F JUMP JUMPDEST JUMPDEST PUSH1 0x0 PUSH2 0x2887 DUP5 DUP3 DUP6 ADD PUSH2 0x24A8 JUMP JUMPDEST SWAP2 POP POP SWAP3 SWAP2 POP POP JUMP JUMPDEST PUSH1 0x0 PUSH1 0x40 DUP3 ADD SWAP1 POP PUSH2 0x28A5 PUSH1 0x0 DUP4 ADD DUP6 PUSH2 0x277B JUMP JUMPDEST PUSH2 0x28B2 PUSH1 0x20 DUP4 ADD DUP5 PUSH2 0x277B JUMP JUMPDEST SWAP4 SWAP3 POP POP POP JUMP JUMPDEST PUSH2 0x28C2 DUP2 PUSH2 0x282C JUMP JUMPDEST DUP2 EQ PUSH2 0x28CD JUMPI PUSH1 0x0 DUP1 REVERT JUMPDEST POP JUMP JUMPDEST PUSH1 0x0 DUP2 CALLDATALOAD SWAP1 POP PUSH2 0x28DF DUP2 PUSH2 0x28B9 JUMP JUMPDEST SWAP3 SWAP2 POP POP JUMP JUMPDEST PUSH2 0x28EE DUP2 PUSH2 0x27F8 JUMP JUMPDEST DUP2 EQ PUSH2 0x28F9 JUMPI PUSH1 0x0 DUP1 REVERT JUMPDEST POP JUMP JUMPDEST PUSH1 0x0 DUP2 CALLDATALOAD SWAP1 POP PUSH2 0x290B DUP2 PUSH2 0x28E5 JUMP JUMPDEST SWAP3 SWAP2 POP POP JUMP JUMPDEST PUSH1 0x0 DUP1 PUSH1 0x0 DUP1 PUSH1 0x0 DUP1 PUSH1 0x0 PUSH1 0xE0 DUP9 DUP11 SUB SLT ISZERO PUSH2 0x2930 JUMPI PUSH2 0x292F PUSH2 0x241F JUMP JUMPDEST JUMPDEST PUSH1 0x0 PUSH2 0x293E DUP11 DUP3 DUP12 ADD PUSH2 0x24A8 JUMP JUMPDEST SWAP8 POP POP PUSH1 0x20 PUSH2 0x294F DUP11 DUP3 DUP12 ADD PUSH2 0x24A8 JUMP JUMPDEST SWAP7 POP POP PUSH1 0x40 PUSH2 0x2960 DUP11 DUP3 DUP12 ADD PUSH2 0x244A JUMP JUMPDEST SWAP6 POP POP PUSH1 0x60 PUSH2 0x2971 DUP11 DUP3 DUP12 ADD PUSH2 0x244A JUMP JUMPDEST SWAP5 POP POP PUSH1 0x80 PUSH2 0x2982 DUP11 DUP3 DUP12 ADD PUSH2 0x28D0 JUMP JUMPDEST SWAP4 POP POP PUSH1 0xA0 PUSH2 0x2993 DUP11 DUP3 DUP12 ADD PUSH2 0x28FC JUMP JUMPDEST SWAP3 POP POP PUSH1 0xC0 PUSH2 0x29A4 DUP11 DUP3 DUP12 ADD PUSH2 0x28FC JUMP JUMPDEST SWAP2 POP POP SWAP3 SWAP6 SWAP9 SWAP2 SWAP5 SWAP8 POP SWAP3 SWAP6 POP JUMP JUMPDEST PUSH1 0x0 DUP1 PUSH1 0x40 DUP4 DUP6 SUB SLT ISZERO PUSH2 0x29CA JUMPI PUSH2 0x29C9 PUSH2 0x241F JUMP JUMPDEST JUMPDEST PUSH1 0x0 PUSH2 0x29D8 DUP6 DUP3 DUP7 ADD PUSH2 0x24A8 JUMP JUMPDEST SWAP3 POP POP PUSH1 0x20 PUSH2 0x29E9 DUP6 DUP3 DUP7 ADD PUSH2 0x24A8 JUMP JUMPDEST SWAP2 POP POP SWAP3 POP SWAP3 SWAP1 POP JUMP JUMPDEST PUSH32 0x5061697255736474526F6E743A204C4F434B4544000000000000000000000000 PUSH1 0x0 DUP3 ADD MSTORE POP JUMP JUMPDEST PUSH1 0x0 PUSH2 0x2A29 PUSH1 0x14 DUP4 PUSH2 0x25B5 JUMP JUMPDEST SWAP2 POP PUSH2 0x2A34 DUP3 PUSH2 0x29F3 JUMP JUMPDEST PUSH1 0x20 DUP3 ADD SWAP1 POP SWAP2 SWAP1 POP JUMP JUMPDEST PUSH1 0x0 PUSH1 0x20 DUP3 ADD SWAP1 POP DUP2 DUP2 SUB PUSH1 0x0 DUP4 ADD MSTORE PUSH2 0x2A58 DUP2 PUSH2 0x2A1C JUMP JUMPDEST SWAP1 POP SWAP2 SWAP1 POP JUMP JUMPDEST PUSH32 0x5061697255736474526F6E743A20494E53554646494349454E545F4F55545055 PUSH1 0x0 DUP3 ADD MSTORE PUSH32 0x545F414D4F554E54000000000000000000000000000000000000000000000000 PUSH1 0x20 DUP3 ADD MSTORE POP JUMP JUMPDEST PUSH1 0x0 PUSH2 0x2ABB PUSH1 0x28 DUP4 PUSH2 0x25B5 JUMP JUMPDEST SWAP2 POP PUSH2 0x2AC6 DUP3 PUSH2 0x2A5F JUMP JUMPDEST PUSH1 0x40 DUP3 ADD SWAP1 POP SWAP2 SWAP1 POP JUMP JUMPDEST PUSH1 0x0 PUSH1 0x20 DUP3 ADD SWAP1 POP DUP2 DUP2 SUB PUSH1 0x0 DUP4 ADD MSTORE PUSH2 0x2AEA DUP2 PUSH2 0x2AAE JUMP JUMPDEST SWAP1 POP SWAP2 SWAP1 POP JUMP JUMPDEST PUSH32 0x5061697255736474526F6E743A20494E53554646494349454E545F4C49515549 PUSH1 0x0 DUP3 ADD MSTORE PUSH32 0x4449545900000000000000000000000000000000000000000000000000000000 PUSH1 0x20 DUP3 ADD MSTORE POP JUMP JUMPDEST PUSH1 0x0 PUSH2 0x2B4D PUSH1 0x24 DUP4 PUSH2 0x25B5 JUMP JUMPDEST SWAP2 POP PUSH2 0x2B58 DUP3 PUSH2 0x2AF1 JUMP JUMPDEST PUSH1 0x40 DUP3 ADD SWAP1 POP SWAP2 SWAP1 POP JUMP JUMPDEST PUSH1 0x0 PUSH1 0x20 DUP3 ADD SWAP1 POP DUP2 DUP2 SUB PUSH1 0x0 DUP4 ADD MSTORE PUSH2 0x2B7C DUP2 PUSH2 0x2B40 JUMP JUMPDEST SWAP1 POP SWAP2 SWAP1 POP JUMP JUMPDEST PUSH1 0x0 DUP2 SWAP1 POP SWAP3 SWAP2 POP POP JUMP JUMPDEST DUP3 DUP2 DUP4 CALLDATACOPY PUSH1 0x0 DUP4 DUP4 ADD MSTORE POP POP POP JUMP JUMPDEST PUSH1 0x0 PUSH2 0x2BA9 DUP4 DUP6 PUSH2 0x2B83 JUMP JUMPDEST SWAP4 POP PUSH2 0x2BB6 DUP4 DUP6 DUP5 PUSH2 0x2B8E JUMP JUMPDEST DUP3 DUP5 ADD SWAP1 POP SWAP4 SWAP3 POP POP POP JUMP JUMPDEST PUSH1 0x0 PUSH2 0x2BCF DUP3 DUP5 DUP7 PUSH2 0x2B9D JUMP JUMPDEST SWAP2 POP DUP2 SWAP1 POP SWAP4 SWAP3 POP POP POP JUMP JUMPDEST PUSH32 0x5061697255736474526F6E743A20494E56414C49445F544F0000000000000000 PUSH1 0x0 DUP3 ADD MSTORE POP JUMP JUMPDEST PUSH1 0x0 PUSH2 0x2C11 PUSH1 0x18 DUP4 PUSH2 0x25B5 JUMP JUMPDEST SWAP2 POP PUSH2 0x2C1C DUP3 PUSH2 0x2BDB JUMP JUMPDEST PUSH1 0x20 DUP3 ADD SWAP1 POP SWAP2 SWAP1 POP JUMP JUMPDEST PUSH1 0x0 PUSH1 0x20 DUP3 ADD SWAP1 POP DUP2 DUP2 SUB PUSH1 0x0 DUP4 ADD MSTORE PUSH2 0x2C40 DUP2 PUSH2 0x2C04 JUMP JUMPDEST SWAP1 POP SWAP2 SWAP1 POP JUMP JUMPDEST PUSH1 0x0 DUP2 MLOAD SWAP1 POP PUSH2 0x2C56 DUP2 PUSH2 0x2433 JUMP JUMPDEST SWAP3 SWAP2 POP POP JUMP JUMPDEST PUSH1 0x0 PUSH1 0x20 DUP3 DUP5 SUB SLT ISZERO PUSH2 0x2C72 JUMPI PUSH2 0x2C71 PUSH2 0x241F JUMP JUMPDEST JUMPDEST PUSH1 0x0 PUSH2 0x2C80 DUP5 DUP3 DUP6 ADD PUSH2 0x2C47 JUMP JUMPDEST SWAP2 POP POP SWAP3 SWAP2 POP POP JUMP JUMPDEST PUSH32 0x4E487B7100000000000000000000000000000000000000000000000000000000 PUSH1 0x0 MSTORE PUSH1 0x11 PUSH1 0x4 MSTORE PUSH1 0x24 PUSH1 0x0 REVERT JUMPDEST PUSH1 0x0 PUSH2 0x2CC3 DUP3 PUSH2 0x2429 JUMP JUMPDEST SWAP2 POP PUSH2 0x2CCE DUP4 PUSH2 0x2429 JUMP JUMPDEST SWAP3 POP DUP3 DUP3 SUB SWAP1 POP DUP2 DUP2 GT ISZERO PUSH2 0x2CE6 JUMPI PUSH2 0x2CE5 PUSH2 0x2C89 JUMP JUMPDEST JUMPDEST SWAP3 SWAP2 POP POP JUMP JUMPDEST PUSH32 0x5061697255736474526F6E743A20494E53554646494349454E545F494E505554 PUSH1 0x0 DUP3 ADD MSTORE PUSH32 0x5F414D4F554E5400000000000000000000000000000000000000000000000000 PUSH1 0x20 DUP3 ADD MSTORE POP JUMP JUMPDEST PUSH1 0x0 PUSH2 0x2D48 PUSH1 0x27 DUP4 PUSH2 0x25B5 JUMP JUMPDEST SWAP2 POP PUSH2 0x2D53 DUP3 PUSH2 0x2CEC JUMP JUMPDEST PUSH1 0x40 DUP3 ADD SWAP1 POP SWAP2 SWAP1 POP JUMP JUMPDEST PUSH1 0x0 PUSH1 0x20 DUP3 ADD SWAP1 POP DUP2 DUP2 SUB PUSH1 0x0 DUP4 ADD MSTORE PUSH2 0x2D77 DUP2 PUSH2 0x2D3B JUMP JUMPDEST SWAP1 POP SWAP2 SWAP1 POP JUMP JUMPDEST PUSH1 0x0 PUSH2 0x2D89 DUP3 PUSH2 0x2429 JUMP JUMPDEST SWAP2 POP PUSH2 0x2D94 DUP4 PUSH2 0x2429 JUMP JUMPDEST SWAP3 POP DUP3 DUP3 MUL PUSH2 0x2DA2 DUP2 PUSH2 0x2429 JUMP JUMPDEST SWAP2 POP DUP3 DUP3 DIV DUP5 EQ DUP4 ISZERO OR PUSH2 0x2DB9 JUMPI PUSH2 0x2DB8 PUSH2 0x2C89 JUMP JUMPDEST JUMPDEST POP SWAP3 SWAP2 POP POP JUMP JUMPDEST PUSH32 0x5061697255736474526F6E743A204B0000000000000000000000000000000000 PUSH1 0x0 DUP3 ADD MSTORE POP JUMP JUMPDEST PUSH1 0x0 PUSH2 0x2DF6 PUSH1 0xF DUP4 PUSH2 0x25B5 JUMP JUMPDEST SWAP2 POP PUSH2 0x2E01 DUP3 PUSH2 0x2DC0 JUMP JUMPDEST PUSH1 0x20 DUP3 ADD SWAP1 POP SWAP2 SWAP1 POP JUMP JUMPDEST PUSH1 0x0 PUSH1 0x20 DUP3 ADD SWAP1 POP DUP2 DUP2 SUB PUSH1 0x0 DUP4 ADD MSTORE PUSH2 0x2E25 DUP2 PUSH2 0x2DE9 JUMP JUMPDEST SWAP1 POP SWAP2 SWAP1 POP JUMP JUMPDEST PUSH32 0x4E487B7100000000000000000000000000000000000000000000000000000000 PUSH1 0x0 MSTORE PUSH1 0x12 PUSH1 0x4 MSTORE PUSH1 0x24 PUSH1 0x0 REVERT JUMPDEST PUSH1 0x0 PUSH2 0x2E66 DUP3 PUSH2 0x2429 JUMP JUMPDEST SWAP2 POP PUSH2 0x2E71 DUP4 PUSH2 0x2429 JUMP JUMPDEST SWAP3 POP DUP3 PUSH2 0x2E81 JUMPI PUSH2 0x2E80 PUSH2 0x2E2C JUMP JUMPDEST JUMPDEST DUP3 DUP3 DIV SWAP1 POP SWAP3 SWAP2 POP POP JUMP JUMPDEST PUSH32 0x5061697255736474526F6E743A20494E53554646494349454E545F4C49515549 PUSH1 0x0 DUP3 ADD MSTORE PUSH32 0x444954595F4D494E544544000000000000000000000000000000000000000000 PUSH1 0x20 DUP3 ADD MSTORE POP JUMP JUMPDEST PUSH1 0x0 PUSH2 0x2EE8 PUSH1 0x2B DUP4 PUSH2 0x25B5 JUMP JUMPDEST SWAP2 POP PUSH2 0x2EF3 DUP3 PUSH2 0x2E8C JUMP JUMPDEST PUSH1 0x40 DUP3 ADD SWAP1 POP SWAP2 SWAP1 POP JUMP JUMPDEST PUSH1 0x0 PUSH1 0x20 DUP3 ADD SWAP1 POP DUP2 DUP2 SUB PUSH1 0x0 DUP4 ADD MSTORE PUSH2 0x2F17 DUP2 PUSH2 0x2EDB JUMP JUMPDEST SWAP1 POP SWAP2 SWAP1 POP JUMP JUMPDEST PUSH32 0x5061697255736474526F6E743A20494E53554646494349454E545F4C49515549 PUSH1 0x0 DUP3 ADD MSTORE PUSH32 0x444954595F4255524E4544000000000000000000000000000000000000000000 PUSH1 0x20 DUP3 ADD MSTORE POP JUMP JUMPDEST PUSH1 0x0 PUSH2 0x2F7A PUSH1 0x2B DUP4 PUSH2 0x25B5 JUMP JUMPDEST SWAP2 POP PUSH2 0x2F85 DUP3 PUSH2 0x2F1E JUMP JUMPDEST PUSH1 0x40 DUP3 ADD SWAP1 POP SWAP2 SWAP1 POP JUMP JUMPDEST PUSH1 0x0 PUSH1 0x20 DUP3 ADD SWAP1 POP DUP2 DUP2 SUB PUSH1 0x0 DUP4 ADD MSTORE PUSH2 0x2FA9 DUP2 PUSH2 0x2F6D JUMP JUMPDEST SWAP1 POP SWAP2 SWAP1 POP JUMP JUMPDEST PUSH32 0x556E697377617056323A20455850495245440000000000000000000000000000 PUSH1 0x0 DUP3 ADD MSTORE POP JUMP JUMPDEST PUSH1 0x0 PUSH2 0x2FE6 PUSH1 0x12 DUP4 PUSH2 0x25B5 JUMP JUMPDEST SWAP2 POP PUSH2 0x2FF1 DUP3 PUSH2 0x2FB0 JUMP JUMPDEST PUSH1 0x20 DUP3 ADD SWAP1 POP SWAP2 SWAP1 POP JUMP JUMPDEST PUSH1 0x0 PUSH1 0x20 DUP3 ADD SWAP1 POP DUP2 DUP2 SUB PUSH1 0x0 DUP4 ADD MSTORE PUSH2 0x3015 DUP2 PUSH2 0x2FD9 JUMP JUMPDEST SWAP1 POP SWAP2 SWAP1 POP JUMP JUMPDEST PUSH1 0x0 PUSH2 0x3027 DUP3 PUSH2 0x2429 JUMP JUMPDEST SWAP2 POP PUSH32 0xFFFFFFFFFFFFFFFFFFFFFFFFFFFFFFFFFFFFFFFFFFFFFFFFFFFFFFFFFFFFFFFF DUP3 SUB PUSH2 0x3059 JUMPI PUSH2 0x3058 PUSH2 0x2C89 JUMP JUMPDEST JUMPDEST PUSH1 0x1 DUP3 ADD SWAP1 POP SWAP2 SWAP1 POP JUMP JUMPDEST PUSH1 0x0 PUSH1 0xC0 DUP3 ADD SWAP1 POP PUSH2 0x3079 PUSH1 0x0 DUP4 ADD DUP10 PUSH2 0x2802 JUMP JUMPDEST PUSH2 0x3086 PUSH1 0x20 DUP4 ADD DUP9 PUSH2 0x2751 JUMP JUMPDEST PUSH2 0x3093 PUSH1 0x40 DUP4 ADD DUP8 PUSH2 0x2751 JUMP JUMPDEST PUSH2 0x30A0 PUSH1 0x60 DUP4 ADD DUP7 PUSH2 0x277B JUMP JUMPDEST PUSH2 0x30AD PUSH1 0x80 DUP4 ADD DUP6 PUSH2 0x277B JUMP JUMPDEST PUSH2 0x30BA PUSH1 0xA0 DUP4 ADD DUP5 PUSH2 0x277B JUMP JUMPDEST SWAP8 SWAP7 POP POP POP POP POP POP POP JUMP JUMPDEST PUSH1 0x0 DUP2 SWAP1 POP SWAP3 SWAP2 POP POP JUMP JUMPDEST PUSH32 0x1901000000000000000000000000000000000000000000000000000000000000 PUSH1 0x0 DUP3 ADD MSTORE POP JUMP JUMPDEST PUSH1 0x0 PUSH2 0x3106 PUSH1 0x2 DUP4 PUSH2 0x30C5 JUMP JUMPDEST SWAP2 POP PUSH2 0x3111 DUP3 PUSH2 0x30D0 JUMP JUMPDEST PUSH1 0x2 DUP3 ADD SWAP1 POP SWAP2 SWAP1 POP JUMP JUMPDEST PUSH1 0x0 DUP2 SWAP1 POP SWAP2 SWAP1 POP JUMP JUMPDEST PUSH2 0x3137 PUSH2 0x3132 DUP3 PUSH2 0x27F8 JUMP JUMPDEST PUSH2 0x311C JUMP JUMPDEST DUP3 MSTORE POP POP JUMP JUMPDEST PUSH1 0x0 PUSH2 0x3148 DUP3 PUSH2 0x30F9 JUMP JUMPDEST SWAP2 POP PUSH2 0x3154 DUP3 DUP6 PUSH2 0x3126 JUMP JUMPDEST PUSH1 0x20 DUP3 ADD SWAP2 POP PUSH2 0x3164 DUP3 DUP5 PUSH2 0x3126 JUMP JUMPDEST PUSH1 0x20 DUP3 ADD SWAP2 POP DUP2 SWAP1 POP SWAP4 SWAP3 POP POP POP JUMP JUMPDEST PUSH1 0x0 PUSH1 0x80 DUP3 ADD SWAP1 POP PUSH2 0x3189 PUSH1 0x0 DUP4 ADD DUP8 PUSH2 0x2802 JUMP JUMPDEST PUSH2 0x3196 PUSH1 0x20 DUP4 ADD DUP7 PUSH2 0x2839 JUMP JUMPDEST PUSH2 0x31A3 PUSH1 0x40 DUP4 ADD DUP6 PUSH2 0x2802 JUMP JUMPDEST PUSH2 0x31B0 PUSH1 0x60 DUP4 ADD DUP5 PUSH2 0x2802 JUMP JUMPDEST SWAP6 SWAP5 POP POP POP POP POP JUMP JUMPDEST PUSH32 0x556E697377617056323A20494E56414C49445F5349474E415455524500000000 PUSH1 0x0 DUP3 ADD MSTORE POP JUMP JUMPDEST PUSH1 0x0 PUSH2 0x31EF PUSH1 0x1C DUP4 PUSH2 0x25B5 JUMP JUMPDEST SWAP2 POP PUSH2 0x31FA DUP3 PUSH2 0x31B9 JUMP JUMPDEST PUSH1 0x20 DUP3 ADD SWAP1 POP SWAP2 SWAP1 POP JUMP JUMPDEST PUSH1 0x0 PUSH1 0x20 DUP3 ADD SWAP1 POP DUP2 DUP2 SUB PUSH1 0x0 DUP4 ADD MSTORE PUSH2 0x321E DUP2 PUSH2 0x31E2 JUMP JUMPDEST SWAP1 POP SWAP2 SWAP1 POP JUMP JUMPDEST PUSH1 0x0 PUSH1 0x40 DUP3 ADD SWAP1 POP PUSH2 0x323A PUSH1 0x0 DUP4 ADD DUP6 PUSH2 0x2751 JUMP JUMPDEST PUSH2 0x3247 PUSH1 0x20 DUP4 ADD DUP5 PUSH2 0x277B JUMP JUMPDEST SWAP4 SWAP3 POP POP POP JUMP JUMPDEST PUSH1 0x0 DUP2 MLOAD SWAP1 POP SWAP2 SWAP1 POP JUMP JUMPDEST PUSH1 0x0 PUSH2 0x3264 DUP3 PUSH2 0x324E JUMP JUMPDEST PUSH2 0x326E DUP2 DUP6 PUSH2 0x2B83 JUMP JUMPDEST SWAP4 POP PUSH2 0x327E DUP2 DUP6 PUSH1 0x20 DUP7 ADD PUSH2 0x25C6 JUMP JUMPDEST DUP1 DUP5 ADD SWAP2 POP POP SWAP3 SWAP2 POP POP JUMP JUMPDEST PUSH1 0x0 PUSH2 0x3296 DUP3 DUP5 PUSH2 0x3259 JUMP JUMPDEST SWAP2 POP DUP2 SWAP1 POP SWAP3 SWAP2 POP POP JUMP JUMPDEST PUSH2 0x32AA DUP2 PUSH2 0x271B JUMP JUMPDEST DUP2 EQ PUSH2 0x32B5 JUMPI PUSH1 0x0 DUP1 REVERT JUMPDEST POP JUMP JUMPDEST PUSH1 0x0 DUP2 MLOAD SWAP1 POP PUSH2 0x32C7 DUP2 PUSH2 0x32A1 JUMP JUMPDEST SWAP3 SWAP2 POP POP JUMP JUMPDEST PUSH1 0x0 PUSH1 0x20 DUP3 DUP5 SUB SLT ISZERO PUSH2 0x32E3 JUMPI PUSH2 0x32E2 PUSH2 0x241F JUMP JUMPDEST JUMPDEST PUSH1 0x0 PUSH2 0x32F1 DUP5 DUP3 DUP6 ADD PUSH2 0x32B8 JUMP JUMPDEST SWAP2 POP POP SWAP3 SWAP2 POP POP JUMP JUMPDEST PUSH32 0x5061697255736474526F6E743A205452414E534645525F4641494C4544000000 PUSH1 0x0 DUP3 ADD MSTORE POP JUMP JUMPDEST PUSH1 0x0 PUSH2 0x3330 PUSH1 0x1D DUP4 PUSH2 0x25B5 JUMP JUMPDEST SWAP2 POP PUSH2 0x333B DUP3 PUSH2 0x32FA JUMP JUMPDEST PUSH1 0x20 DUP3 ADD SWAP1 POP SWAP2 SWAP1 POP JUMP JUMPDEST PUSH1 0x0 PUSH1 0x20 DUP3 ADD SWAP1 POP DUP2 DUP2 SUB PUSH1 0x0 DUP4 ADD MSTORE PUSH2 0x335F DUP2 PUSH2 0x3323 JUMP JUMPDEST SWAP1 POP SWAP2 SWAP1 POP JUMP JUMPDEST PUSH1 0x0 PUSH2 0x3371 DUP3 PUSH2 0x2429 JUMP JUMPDEST SWAP2 POP PUSH2 0x337C DUP4 PUSH2 0x2429 JUMP JUMPDEST SWAP3 POP DUP3 PUSH2 0x338C JUMPI PUSH2 0x338B PUSH2 0x2E2C JUMP JUMPDEST JUMPDEST DUP3 DUP3 MOD SWAP1 POP SWAP3 SWAP2 POP POP JUMP JUMPDEST PUSH1 0x0 PUSH2 0x33A2 DUP3 PUSH2 0x2685 JUMP JUMPDEST SWAP2 POP PUSH2 0x33AD DUP4 PUSH2 0x2685 JUMP JUMPDEST SWAP3 POP DUP3 DUP3 SUB SWAP1 POP PUSH4 0xFFFFFFFF DUP2 GT ISZERO PUSH2 0x33C9 JUMPI PUSH2 0x33C8 PUSH2 0x2C89 JUMP JUMPDEST JUMPDEST SWAP3 SWAP2 POP POP JUMP JUMPDEST PUSH1 0x0 PUSH28 0xFFFFFFFFFFFFFFFFFFFFFFFFFFFFFFFFFFFFFFFFFFFFFFFFFFFFFFFF DUP3 AND SWAP1 POP SWAP2 SWAP1 POP JUMP JUMPDEST PUSH1 0x0 PUSH2 0x3402 DUP3 PUSH2 0x33CF JUMP JUMPDEST SWAP2 POP PUSH2 0x340D DUP4 PUSH2 0x33CF JUMP JUMPDEST SWAP3 POP DUP3 PUSH2 0x341D JUMPI PUSH2 0x341C PUSH2 0x2E2C JUMP JUMPDEST JUMPDEST DUP3 DUP3 DIV SWAP1 POP SWAP3 SWAP2 POP POP JUMP JUMPDEST PUSH1 0x0 PUSH2 0x3433 DUP3 PUSH2 0x2429 JUMP JUMPDEST SWAP2 POP PUSH2 0x343E DUP4 PUSH2 0x2429 JUMP JUMPDEST SWAP3 POP DUP3 DUP3 ADD SWAP1 POP DUP1 DUP3 GT ISZERO PUSH2 0x3456 JUMPI PUSH2 0x3455 PUSH2 0x2C89 JUMP JUMPDEST JUMPDEST SWAP3 SWAP2 POP POP JUMP JUMPDEST PUSH1 0x0 PUSH2 0x3467 DUP3 PUSH2 0x33CF JUMP JUMPDEST SWAP2 POP PUSH2 0x3472 DUP4 PUSH2 0x33CF JUMP JUMPDEST SWAP3 POP DUP3 DUP3 MUL PUSH2 0x3480 DUP2 PUSH2 0x33CF JUMP JUMPDEST SWAP2 POP DUP3 DUP3 DIV DUP5 EQ DUP4 ISZERO OR PUSH2 0x3497 JUMPI PUSH2 0x3496 PUSH2 0x2C89 JUMP JUMPDEST JUMPDEST POP SWAP3 SWAP2 POP POP JUMP INVALID LOG2 PUSH5 0x6970667358 0x22 SLT KECCAK256 0xE KECCAK256 LOG4 0xE0 GT 0xB6 0xF8 0x1F 0xD4 CALL SDIV 0x4E RETURNDATACOPY POP PUSH25 0x275B0BB44AC03605CFD2528E3C23D91B0F64736F6C63430008 SLT STOP CALLER "
				},
				"gasEstimates": {
					"creation": {
						"codeDepositCost": "2704800",
						"executionCost": "infinite",
						"totalCost": "infinite"
					},
					"external": {
						"DOMAIN_SEPARATOR()": "2518",
						"MINIMUM_LIQUIDITY()": "396",
						"PERMIT_TYPEHASH()": "380",
						"allowance(address,address)": "infinite",
						"approve(address,uint256)": "23252",
						"balanceOf(address)": "2859",
						"burn(address)": "infinite",
						"decimals()": "402",
						"getReserves()": "infinite",
						"kLast()": "2496",
						"mint(address)": "infinite",
						"name()": "infinite",
						"nonces(address)": "2903",
						"permit(address,address,uint256,uint256,uint8,bytes32,bytes32)": "infinite",
						"price0CumulativeLast()": "2540",
						"price1CumulativeLast()": "2562",
						"skim(address)": "infinite",
						"swap(uint256,uint256,address,bytes)": "infinite",
						"symbol()": "infinite",
						"sync()": "infinite",
						"token0()": "2626",
						"token1()": "2558",
						"totalSupply()": "2563",
						"transfer(address,uint256)": "infinite",
						"transferFrom(address,address,uint256)": "infinite"
					},
					"internal": {
						"_approve(address,address,uint256)": "22315",
						"_burn(address,uint256)": "infinite",
						"_mint(address,uint256)": "infinite",
						"_mintFee(uint112,uint112)": "infinite",
						"_safeTransfer(address,address,uint256)": "infinite",
						"_transfer(address,address,uint256)": "infinite",
						"_update(uint256,uint256,uint112,uint112)": "infinite",
						"encode(uint112)": "infinite",
						"min(uint256,uint256)": "64",
						"sqrt(uint256)": "infinite"
					}
				},
				"methodIdentifiers": {
					"DOMAIN_SEPARATOR()": "3644e515",
					"MINIMUM_LIQUIDITY()": "ba9a7a56",
					"PERMIT_TYPEHASH()": "30adf81f",
					"allowance(address,address)": "dd62ed3e",
					"approve(address,uint256)": "095ea7b3",
					"balanceOf(address)": "70a08231",
					"burn(address)": "89afcb44",
					"decimals()": "313ce567",
					"getReserves()": "0902f1ac",
					"kLast()": "7464fc3d",
					"mint(address)": "6a627842",
					"name()": "06fdde03",
					"nonces(address)": "7ecebe00",
					"permit(address,address,uint256,uint256,uint8,bytes32,bytes32)": "d505accf",
					"price0CumulativeLast()": "5909c0d5",
					"price1CumulativeLast()": "5a3d5493",
					"skim(address)": "bc25cf77",
					"swap(uint256,uint256,address,bytes)": "022c0d9f",
					"symbol()": "95d89b41",
					"sync()": "fff6cae9",
					"token0()": "0dfe1681",
					"token1()": "d21220a7",
					"totalSupply()": "18160ddd",
					"transfer(address,uint256)": "a9059cbb",
					"transferFrom(address,address,uint256)": "23b872dd"
				}
			},
			"storageLayout": {
				"storage": [
					{
						"astId": 104,
						"contract": "GoWorkspace/github.com/hdlabs-ro/sc_base/us-contracts/PairUsdtRont.sol:PairUsdtRont",
						"label": "feeTo",
						"offset": 0,
						"slot": "0",
						"type": "t_address"
					},
					{
						"astId": 107,
						"contract": "GoWorkspace/github.com/hdlabs-ro/sc_base/us-contracts/PairUsdtRont.sol:PairUsdtRont",
						"label": "token0",
						"offset": 0,
						"slot": "1",
						"type": "t_address"
					},
					{
						"astId": 110,
						"contract": "GoWorkspace/github.com/hdlabs-ro/sc_base/us-contracts/PairUsdtRont.sol:PairUsdtRont",
						"label": "token1",
						"offset": 0,
						"slot": "2",
						"type": "t_address"
					},
					{
						"astId": 121,
						"contract": "GoWorkspace/github.com/hdlabs-ro/sc_base/us-contracts/PairUsdtRont.sol:PairUsdtRont",
						"label": "totalSupply",
						"offset": 0,
						"slot": "3",
						"type": "t_uint256"
					},
					{
						"astId": 125,
						"contract": "GoWorkspace/github.com/hdlabs-ro/sc_base/us-contracts/PairUsdtRont.sol:PairUsdtRont",
						"label": "balanceOf",
						"offset": 0,
						"slot": "4",
						"type": "t_mapping(t_address,t_uint256)"
					},
					{
						"astId": 131,
						"contract": "GoWorkspace/github.com/hdlabs-ro/sc_base/us-contracts/PairUsdtRont.sol:PairUsdtRont",
						"label": "allowance",
						"offset": 0,
						"slot": "5",
						"type": "t_mapping(t_address,t_mapping(t_address,t_uint256))"
					},
					{
						"astId": 133,
						"contract": "GoWorkspace/github.com/hdlabs-ro/sc_base/us-contracts/PairUsdtRont.sol:PairUsdtRont",
						"label": "DOMAIN_SEPARATOR",
						"offset": 0,
						"slot": "6",
						"type": "t_bytes32"
					},
					{
						"astId": 140,
						"contract": "GoWorkspace/github.com/hdlabs-ro/sc_base/us-contracts/PairUsdtRont.sol:PairUsdtRont",
						"label": "nonces",
						"offset": 0,
						"slot": "7",
						"type": "t_mapping(t_address,t_uint256)"
					},
					{
						"astId": 156,
						"contract": "GoWorkspace/github.com/hdlabs-ro/sc_base/us-contracts/PairUsdtRont.sol:PairUsdtRont",
						"label": "reserve0",
						"offset": 0,
						"slot": "8",
						"type": "t_uint112"
					},
					{
						"astId": 158,
						"contract": "GoWorkspace/github.com/hdlabs-ro/sc_base/us-contracts/PairUsdtRont.sol:PairUsdtRont",
						"label": "reserve1",
						"offset": 14,
						"slot": "8",
						"type": "t_uint112"
					},
					{
						"astId": 160,
						"contract": "GoWorkspace/github.com/hdlabs-ro/sc_base/us-contracts/PairUsdtRont.sol:PairUsdtRont",
						"label": "blockTimestampLast",
						"offset": 28,
						"slot": "8",
						"type": "t_uint32"
					},
					{
						"astId": 162,
						"contract": "GoWorkspace/github.com/hdlabs-ro/sc_base/us-contracts/PairUsdtRont.sol:PairUsdtRont",
						"label": "price0CumulativeLast",
						"offset": 0,
						"slot": "9",
						"type": "t_uint256"
					},
					{
						"astId": 164,
						"contract": "GoWorkspace/github.com/hdlabs-ro/sc_base/us-contracts/PairUsdtRont.sol:PairUsdtRont",
						"label": "price1CumulativeLast",
						"offset": 0,
						"slot": "10",
						"type": "t_uint256"
					},
					{
						"astId": 166,
						"contract": "GoWorkspace/github.com/hdlabs-ro/sc_base/us-contracts/PairUsdtRont.sol:PairUsdtRont",
						"label": "kLast",
						"offset": 0,
						"slot": "11",
						"type": "t_uint256"
					},
					{
						"astId": 169,
						"contract": "GoWorkspace/github.com/hdlabs-ro/sc_base/us-contracts/PairUsdtRont.sol:PairUsdtRont",
						"label": "unlocked",
						"offset": 0,
						"slot": "12",
						"type": "t_uint256"
					}
				],
				"types": {
					"t_address": {
						"encoding": "inplace",
						"label": "address",
						"numberOfBytes": "20"
					},
					"t_bytes32": {
						"encoding": "inplace",
						"label": "bytes32",
						"numberOfBytes": "32"
					},
					"t_mapping(t_address,t_mapping(t_address,t_uint256))": {
						"encoding": "mapping",
						"key": "t_address",
						"label": "mapping(address => mapping(address => uint256))",
						"numberOfBytes": "32",
						"value": "t_mapping(t_address,t_uint256)"
					},
					"t_mapping(t_address,t_uint256)": {
						"encoding": "mapping",
						"key": "t_address",
						"label": "mapping(address => uint256)",
						"numberOfBytes": "32",
						"value": "t_uint256"
					},
					"t_uint112": {
						"encoding": "inplace",
						"label": "uint112",
						"numberOfBytes": "14"
					},
					"t_uint256": {
						"encoding": "inplace",
						"label": "uint256",
						"numberOfBytes": "32"
					},
					"t_uint32": {
						"encoding": "inplace",
						"label": "uint32",
						"numberOfBytes": "4"
					}
				}
			},
			"userdoc": {
				"kind": "user",
				"methods": {},
				"version": 1
			}
		}
	}
}