{
	"us-contracts/UniswapV2Pair.sol": {
		"UniswapV2Pair": {
			"abi": [
				{
					"inputs": [],
					"payable": false,
					"stateMutability": "nonpayable",
					"type": "constructor"
				},
				{
					"anonymous": false,
					"inputs": [
						{
							"indexed": true,
							"internalType": "address",
							"name": "owner",
							"type": "address"
						},
						{
							"indexed": true,
							"internalType": "address",
							"name": "spender",
							"type": "address"
						},
						{
							"indexed": false,
							"internalType": "uint256",
							"name": "value",
							"type": "uint256"
						}
					],
					"name": "Approval",
					"type": "event"
				},
				{
					"anonymous": false,
					"inputs": [
						{
							"indexed": true,
							"internalType": "address",
							"name": "sender",
							"type": "address"
						},
						{
							"indexed": false,
							"internalType": "uint256",
							"name": "amount0",
							"type": "uint256"
						},
						{
							"indexed": false,
							"internalType": "uint256",
							"name": "amount1",
							"type": "uint256"
						},
						{
							"indexed": true,
							"internalType": "address",
							"name": "to",
							"type": "address"
						}
					],
					"name": "Burn",
					"type": "event"
				},
				{
					"anonymous": false,
					"inputs": [
						{
							"indexed": true,
							"internalType": "address",
							"name": "sender",
							"type": "address"
						},
						{
							"indexed": false,
							"internalType": "uint256",
							"name": "amount0",
							"type": "uint256"
						},
						{
							"indexed": false,
							"internalType": "uint256",
							"name": "amount1",
							"type": "uint256"
						}
					],
					"name": "Mint",
					"type": "event"
				},
				{
					"anonymous": false,
					"inputs": [
						{
							"indexed": true,
							"internalType": "address",
							"name": "sender",
							"type": "address"
						},
						{
							"indexed": false,
							"internalType": "uint256",
							"name": "amount0In",
							"type": "uint256"
						},
						{
							"indexed": false,
							"internalType": "uint256",
							"name": "amount1In",
							"type": "uint256"
						},
						{
							"indexed": false,
							"internalType": "uint256",
							"name": "amount0Out",
							"type": "uint256"
						},
						{
							"indexed": false,
							"internalType": "uint256",
							"name": "amount1Out",
							"type": "uint256"
						},
						{
							"indexed": true,
							"internalType": "address",
							"name": "to",
							"type": "address"
						}
					],
					"name": "Swap",
					"type": "event"
				},
				{
					"anonymous": false,
					"inputs": [
						{
							"indexed": false,
							"internalType": "uint112",
							"name": "reserve0",
							"type": "uint112"
						},
						{
							"indexed": false,
							"internalType": "uint112",
							"name": "reserve1",
							"type": "uint112"
						}
					],
					"name": "Sync",
					"type": "event"
				},
				{
					"anonymous": false,
					"inputs": [
						{
							"indexed": true,
							"internalType": "address",
							"name": "from",
							"type": "address"
						},
						{
							"indexed": true,
							"internalType": "address",
							"name": "to",
							"type": "address"
						},
						{
							"indexed": false,
							"internalType": "uint256",
							"name": "value",
							"type": "uint256"
						}
					],
					"name": "Transfer",
					"type": "event"
				},
				{
					"constant": true,
					"inputs": [],
					"name": "DOMAIN_SEPARATOR",
					"outputs": [
						{
							"internalType": "bytes32",
							"name": "",
							"type": "bytes32"
						}
					],
					"payable": false,
					"stateMutability": "view",
					"type": "function"
				},
				{
					"constant": true,
					"inputs": [],
					"name": "MINIMUM_LIQUIDITY",
					"outputs": [
						{
							"internalType": "uint256",
							"name": "",
							"type": "uint256"
						}
					],
					"payable": false,
					"stateMutability": "view",
					"type": "function"
				},
				{
					"constant": true,
					"inputs": [],
					"name": "PERMIT_TYPEHASH",
					"outputs": [
						{
							"internalType": "bytes32",
							"name": "",
							"type": "bytes32"
						}
					],
					"payable": false,
					"stateMutability": "view",
					"type": "function"
				},
				{
					"constant": true,
					"inputs": [
						{
							"internalType": "address",
							"name": "",
							"type": "address"
						},
						{
							"internalType": "address",
							"name": "",
							"type": "address"
						}
					],
					"name": "allowance",
					"outputs": [
						{
							"internalType": "uint256",
							"name": "",
							"type": "uint256"
						}
					],
					"payable": false,
					"stateMutability": "view",
					"type": "function"
				},
				{
					"constant": false,
					"inputs": [
						{
							"internalType": "address",
							"name": "spender",
							"type": "address"
						},
						{
							"internalType": "uint256",
							"name": "value",
							"type": "uint256"
						}
					],
					"name": "approve",
					"outputs": [
						{
							"internalType": "bool",
							"name": "",
							"type": "bool"
						}
					],
					"payable": false,
					"stateMutability": "nonpayable",
					"type": "function"
				},
				{
					"constant": true,
					"inputs": [
						{
							"internalType": "address",
							"name": "",
							"type": "address"
						}
					],
					"name": "balanceOf",
					"outputs": [
						{
							"internalType": "uint256",
							"name": "",
							"type": "uint256"
						}
					],
					"payable": false,
					"stateMutability": "view",
					"type": "function"
				},
				{
					"constant": false,
					"inputs": [
						{
							"internalType": "address",
							"name": "to",
							"type": "address"
						}
					],
					"name": "burn",
					"outputs": [
						{
							"internalType": "uint256",
							"name": "amount0",
							"type": "uint256"
						},
						{
							"internalType": "uint256",
							"name": "amount1",
							"type": "uint256"
						}
					],
					"payable": false,
					"stateMutability": "nonpayable",
					"type": "function"
				},
				{
					"constant": true,
					"inputs": [],
					"name": "decimals",
					"outputs": [
						{
							"internalType": "uint8",
							"name": "",
							"type": "uint8"
						}
					],
					"payable": false,
					"stateMutability": "view",
					"type": "function"
				},
				{
					"constant": true,
					"inputs": [],
					"name": "factory",
					"outputs": [
						{
							"internalType": "address",
							"name": "",
							"type": "address"
						}
					],
					"payable": false,
					"stateMutability": "view",
					"type": "function"
				},
				{
					"constant": true,
					"inputs": [],
					"name": "getReserves",
					"outputs": [
						{
							"internalType": "uint112",
							"name": "_reserve0",
							"type": "uint112"
						},
						{
							"internalType": "uint112",
							"name": "_reserve1",
							"type": "uint112"
						},
						{
							"internalType": "uint32",
							"name": "_blockTimestampLast",
							"type": "uint32"
						}
					],
					"payable": false,
					"stateMutability": "view",
					"type": "function"
				},
				{
					"constant": false,
					"inputs": [
						{
							"internalType": "address",
							"name": "_token0",
							"type": "address"
						},
						{
							"internalType": "address",
							"name": "_token1",
							"type": "address"
						}
					],
					"name": "initialize",
					"outputs": [],
					"payable": false,
					"stateMutability": "nonpayable",
					"type": "function"
				},
				{
					"constant": true,
					"inputs": [],
					"name": "kLast",
					"outputs": [
						{
							"internalType": "uint256",
							"name": "",
							"type": "uint256"
						}
					],
					"payable": false,
					"stateMutability": "view",
					"type": "function"
				},
				{
					"constant": false,
					"inputs": [
						{
							"internalType": "address",
							"name": "to",
							"type": "address"
						}
					],
					"name": "mint",
					"outputs": [
						{
							"internalType": "uint256",
							"name": "liquidity",
							"type": "uint256"
						}
					],
					"payable": false,
					"stateMutability": "nonpayable",
					"type": "function"
				},
				{
					"constant": true,
					"inputs": [],
					"name": "name",
					"outputs": [
						{
							"internalType": "string",
							"name": "",
							"type": "string"
						}
					],
					"payable": false,
					"stateMutability": "view",
					"type": "function"
				},
				{
					"constant": true,
					"inputs": [
						{
							"internalType": "address",
							"name": "",
							"type": "address"
						}
					],
					"name": "nonces",
					"outputs": [
						{
							"internalType": "uint256",
							"name": "",
							"type": "uint256"
						}
					],
					"payable": false,
					"stateMutability": "view",
					"type": "function"
				},
				{
					"constant": false,
					"inputs": [
						{
							"internalType": "address",
							"name": "owner",
							"type": "address"
						},
						{
							"internalType": "address",
							"name": "spender",
							"type": "address"
						},
						{
							"internalType": "uint256",
							"name": "value",
							"type": "uint256"
						},
						{
							"internalType": "uint256",
							"name": "deadline",
							"type": "uint256"
						},
						{
							"internalType": "uint8",
							"name": "v",
							"type": "uint8"
						},
						{
							"internalType": "bytes32",
							"name": "r",
							"type": "bytes32"
						},
						{
							"internalType": "bytes32",
							"name": "s",
							"type": "bytes32"
						}
					],
					"name": "permit",
					"outputs": [],
					"payable": false,
					"stateMutability": "nonpayable",
					"type": "function"
				},
				{
					"constant": true,
					"inputs": [],
					"name": "price0CumulativeLast",
					"outputs": [
						{
							"internalType": "uint256",
							"name": "",
							"type": "uint256"
						}
					],
					"payable": false,
					"stateMutability": "view",
					"type": "function"
				},
				{
					"constant": true,
					"inputs": [],
					"name": "price1CumulativeLast",
					"outputs": [
						{
							"internalType": "uint256",
							"name": "",
							"type": "uint256"
						}
					],
					"payable": false,
					"stateMutability": "view",
					"type": "function"
				},
				{
					"constant": false,
					"inputs": [
						{
							"internalType": "address",
							"name": "to",
							"type": "address"
						}
					],
					"name": "skim",
					"outputs": [],
					"payable": false,
					"stateMutability": "nonpayable",
					"type": "function"
				},
				{
					"constant": false,
					"inputs": [
						{
							"internalType": "uint256",
							"name": "amount0Out",
							"type": "uint256"
						},
						{
							"internalType": "uint256",
							"name": "amount1Out",
							"type": "uint256"
						},
						{
							"internalType": "address",
							"name": "to",
							"type": "address"
						},
						{
							"internalType": "bytes",
							"name": "data",
							"type": "bytes"
						}
					],
					"name": "swap",
					"outputs": [],
					"payable": false,
					"stateMutability": "nonpayable",
					"type": "function"
				},
				{
					"constant": true,
					"inputs": [],
					"name": "symbol",
					"outputs": [
						{
							"internalType": "string",
							"name": "",
							"type": "string"
						}
					],
					"payable": false,
					"stateMutability": "view",
					"type": "function"
				},
				{
					"constant": false,
					"inputs": [],
					"name": "sync",
					"outputs": [],
					"payable": false,
					"stateMutability": "nonpayable",
					"type": "function"
				},
				{
					"constant": true,
					"inputs": [],
					"name": "token0",
					"outputs": [
						{
							"internalType": "address",
							"name": "",
							"type": "address"
						}
					],
					"payable": false,
					"stateMutability": "view",
					"type": "function"
				},
				{
					"constant": true,
					"inputs": [],
					"name": "token1",
					"outputs": [
						{
							"internalType": "address",
							"name": "",
							"type": "address"
						}
					],
					"payable": false,
					"stateMutability": "view",
					"type": "function"
				},
				{
					"constant": true,
					"inputs": [],
					"name": "totalSupply",
					"outputs": [
						{
							"internalType": "uint256",
							"name": "",
							"type": "uint256"
						}
					],
					"payable": false,
					"stateMutability": "view",
					"type": "function"
				},
				{
					"constant": false,
					"inputs": [
						{
							"internalType": "address",
							"name": "to",
							"type": "address"
						},
						{
							"internalType": "uint256",
							"name": "value",
							"type": "uint256"
						}
					],
					"name": "transfer",
					"outputs": [
						{
							"internalType": "bool",
							"name": "",
							"type": "bool"
						}
					],
					"payable": false,
					"stateMutability": "nonpayable",
					"type": "function"
				},
				{
					"constant": false,
					"inputs": [
						{
							"internalType": "address",
							"name": "from",
							"type": "address"
						},
						{
							"internalType": "address",
							"name": "to",
							"type": "address"
						},
						{
							"internalType": "uint256",
							"name": "value",
							"type": "uint256"
						}
					],
					"name": "transferFrom",
					"outputs": [
						{
							"internalType": "bool",
							"name": "",
							"type": "bool"
						}
					],
					"payable": false,
					"stateMutability": "nonpayable",
					"type": "function"
				}
			],
			"devdoc": {
				"methods": {}
			},
			"evm": {
				"assembly": "    /* \"us-contracts/UniswapV2Pair.sol\":290:10910  contract UniswapV2Pair is IUniswapV2Pair, UniswapV2ERC20 {... */\n  mstore(0x40, 0x80)\n    /* \"us-contracts/UniswapV2Pair.sol\":1144:1145  1 */\n  0x01\n    /* \"us-contracts/UniswapV2Pair.sol\":1117:1145  uint256 private unlocked = 1 */\n  0x0c\n  sstore\n    /* \"us-contracts/UniswapV2Pair.sol\":2425:2483  constructor() public {... */\n  callvalue\n    /* \"--CODEGEN--\":8:17   */\n  dup1\n    /* \"--CODEGEN--\":5:7   */\n  iszero\n  tag_1\n  jumpi\n    /* \"--CODEGEN--\":30:31   */\n  0x00\n    /* \"--CODEGEN--\":27:28   */\n  dup1\n    /* \"--CODEGEN--\":20:32   */\n  revert\n    /* \"--CODEGEN--\":5:7   */\ntag_1:\n    /* \"us-contracts/UniswapV2Pair.sol\":2425:2483  constructor() public {... */\n  pop\n    /* \"us-contracts/UniswapV2ERC20.sol\":950:962  uint chainId */\n  0x00\n    /* \"us-contracts/UniswapV2ERC20.sol\":1006:1013  chainid */\n  chainid\n    /* \"us-contracts/UniswapV2ERC20.sol\":995:1013  chainId := chainid */\n  swap1\n  pop\n    /* \"us-contracts/UniswapV2ERC20.sol\":1102:1197  keccak256('EIP712Domain(string name,string version,uint256 chainId,address verifyingContract)') */\n  mload(0x40)\n  dup1\n  dup1\n  data_8b73c3c69bb8fe3d512ecc4cf759cc79239f7b179b0ffacaa9a75d522b39400f\n  0x52\n  swap2\n  codecopy\n  0x52\n  add\n  swap1\n  pop\n  mload(0x40)\n  dup1\n  swap2\n  sub\n  swap1\n  keccak256\n    /* \"us-contracts/UniswapV2ERC20.sol\":1231:1235  name */\n  mload(0x40)\n  dup1\n  0x40\n  add\n  0x40\n  mstore\n  dup1\n  0x0a\n  dup2\n  mstore\n  0x20\n  add\n  0x556e697377617020563200000000000000000000000000000000000000000000\n  dup2\n  mstore\n  pop\n    /* \"us-contracts/UniswapV2ERC20.sol\":1215:1237  keccak256(bytes(name)) */\n  dup1\n  mload\n  swap1\n  0x20\n  add\n  keccak256\n    /* \"us-contracts/UniswapV2ERC20.sol\":1265:1275  bytes('1') */\n  mload(0x40)\n  dup1\n  0x40\n  add\n  0x40\n  mstore\n  dup1\n  0x01\n  dup2\n  mstore\n  0x20\n  add\n  0x3100000000000000000000000000000000000000000000000000000000000000\n  dup2\n  mstore\n  pop\n    /* \"us-contracts/UniswapV2ERC20.sol\":1255:1276  keccak256(bytes('1')) */\n  dup1\n  mload\n  swap1\n  0x20\n  add\n  keccak256\n    /* \"us-contracts/UniswapV2ERC20.sol\":1294:1301  chainId */\n  dup4\n    /* \"us-contracts/UniswapV2ERC20.sol\":1327:1331  this */\n  address\n    /* \"us-contracts/UniswapV2ERC20.sol\":1074:1346  abi.encode(... */\n  add(0x20, mload(0x40))\n  dup1\n  dup7\n  dup2\n  mstore\n  0x20\n  add\n  dup6\n  dup2\n  mstore\n  0x20\n  add\n  dup5\n  dup2\n  mstore\n  0x20\n  add\n  dup4\n  dup2\n  mstore\n  0x20\n  add\n  dup3\n  0xffffffffffffffffffffffffffffffffffffffff\n  and\n  0xffffffffffffffffffffffffffffffffffffffff\n  and\n  dup2\n  mstore\n  0x20\n  add\n  swap6\n  pop\n  pop\n  pop\n  pop\n  pop\n  pop\n  mload(0x40)\n    /* \"--CODEGEN--\":49:53   */\n  0x20\n    /* \"--CODEGEN--\":39:46   */\n  dup2\n    /* \"--CODEGEN--\":30:37   */\n  dup4\n    /* \"--CODEGEN--\":26:47   */\n  sub\n    /* \"--CODEGEN--\":22:54   */\n  sub\n    /* \"--CODEGEN--\":13:20   */\n  dup2\n    /* \"--CODEGEN--\":6:55   */\n  mstore\n    /* \"us-contracts/UniswapV2ERC20.sol\":1074:1346  abi.encode(... */\n  swap1\n  0x40\n  mstore\n    /* \"us-contracts/UniswapV2ERC20.sol\":1051:1356  keccak256(... */\n  dup1\n  mload\n  swap1\n  0x20\n  add\n  keccak256\n    /* \"us-contracts/UniswapV2ERC20.sol\":1032:1048  DOMAIN_SEPARATOR */\n  0x03\n    /* \"us-contracts/UniswapV2ERC20.sol\":1032:1356  DOMAIN_SEPARATOR = keccak256(... */\n  dup2\n  swap1\n  sstore\n  pop\n    /* \"us-contracts/UniswapV2ERC20.sol\":919:1363  constructor() public {... */\n  pop\n    /* \"us-contracts/UniswapV2Pair.sol\":2466:2476  msg.sender */\n  caller\n    /* \"us-contracts/UniswapV2Pair.sol\":2456:2463  factory */\n  0x05\n  0x00\n    /* \"us-contracts/UniswapV2Pair.sol\":2456:2476  factory = msg.sender */\n  0x0100\n  exp\n  dup2\n  sload\n  dup2\n  0xffffffffffffffffffffffffffffffffffffffff\n  mul\n  not\n  and\n  swap1\n  dup4\n  0xffffffffffffffffffffffffffffffffffffffff\n  and\n  mul\n  or\n  swap1\n  sstore\n  pop\n    /* \"us-contracts/UniswapV2Pair.sol\":290:10910  contract UniswapV2Pair is IUniswapV2Pair, UniswapV2ERC20 {... */\n  dataSize(sub_0)\n  dup1\n  dataOffset(sub_0)\n  0x00\n  codecopy\n  0x00\n  return\nstop\ndata_8b73c3c69bb8fe3d512ecc4cf759cc79239f7b179b0ffacaa9a75d522b39400f 454950373132446f6d61696e28737472696e67206e616d652c737472696e672076657273696f6e2c75696e7432353620636861696e49642c6164647265737320766572696679696e67436f6e747261637429\n\nsub_0: assembly {\n        /* \"us-contracts/UniswapV2Pair.sol\":290:10910  contract UniswapV2Pair is IUniswapV2Pair, UniswapV2ERC20 {... */\n      mstore(0x40, 0x80)\n      callvalue\n        /* \"--CODEGEN--\":8:17   */\n      dup1\n        /* \"--CODEGEN--\":5:7   */\n      iszero\n      tag_1\n      jumpi\n        /* \"--CODEGEN--\":30:31   */\n      0x00\n        /* \"--CODEGEN--\":27:28   */\n      dup1\n        /* \"--CODEGEN--\":20:32   */\n      revert\n        /* \"--CODEGEN--\":5:7   */\n    tag_1:\n        /* \"us-contracts/UniswapV2Pair.sol\":290:10910  contract UniswapV2Pair is IUniswapV2Pair, UniswapV2ERC20 {... */\n      pop\n      jumpi(tag_2, lt(calldatasize, 0x04))\n      shr(0xe0, calldataload(0x00))\n      dup1\n      0x6a627842\n      gt\n      tag_30\n      jumpi\n      dup1\n      0xba9a7a56\n      gt\n      tag_31\n      jumpi\n      dup1\n      0xd21220a7\n      gt\n      tag_32\n      jumpi\n      dup1\n      0xd21220a7\n      eq\n      tag_26\n      jumpi\n      dup1\n      0xd505accf\n      eq\n      tag_27\n      jumpi\n      dup1\n      0xdd62ed3e\n      eq\n      tag_28\n      jumpi\n      dup1\n      0xfff6cae9\n      eq\n      tag_29\n      jumpi\n      jump(tag_2)\n    tag_32:\n      dup1\n      0xba9a7a56\n      eq\n      tag_23\n      jumpi\n      dup1\n      0xbc25cf77\n      eq\n      tag_24\n      jumpi\n      dup1\n      0xc45a0155\n      eq\n      tag_25\n      jumpi\n      jump(tag_2)\n    tag_31:\n      dup1\n      0x7ecebe00\n      gt\n      tag_33\n      jumpi\n      dup1\n      0x7ecebe00\n      eq\n      tag_19\n      jumpi\n      dup1\n      0x89afcb44\n      eq\n      tag_20\n      jumpi\n      dup1\n      0x95d89b41\n      eq\n      tag_21\n      jumpi\n      dup1\n      0xa9059cbb\n      eq\n      tag_22\n      jumpi\n      jump(tag_2)\n    tag_33:\n      dup1\n      0x6a627842\n      eq\n      tag_16\n      jumpi\n      dup1\n      0x70a08231\n      eq\n      tag_17\n      jumpi\n      dup1\n      0x7464fc3d\n      eq\n      tag_18\n      jumpi\n      jump(tag_2)\n    tag_30:\n      dup1\n      0x23b872dd\n      gt\n      tag_34\n      jumpi\n      dup1\n      0x3644e515\n      gt\n      tag_35\n      jumpi\n      dup1\n      0x3644e515\n      eq\n      tag_12\n      jumpi\n      dup1\n      0x485cc955\n      eq\n      tag_13\n      jumpi\n      dup1\n      0x5909c0d5\n      eq\n      tag_14\n      jumpi\n      dup1\n      0x5a3d5493\n      eq\n      tag_15\n      jumpi\n      jump(tag_2)\n    tag_35:\n      dup1\n      0x23b872dd\n      eq\n      tag_9\n      jumpi\n      dup1\n      0x30adf81f\n      eq\n      tag_10\n      jumpi\n      dup1\n      0x313ce567\n      eq\n      tag_11\n      jumpi\n      jump(tag_2)\n    tag_34:\n      dup1\n      0x022c0d9f\n      eq\n      tag_3\n      jumpi\n      dup1\n      0x06fdde03\n      eq\n      tag_4\n      jumpi\n      dup1\n      0x0902f1ac\n      eq\n      tag_5\n      jumpi\n      dup1\n      0x095ea7b3\n      eq\n      tag_6\n      jumpi\n      dup1\n      0x0dfe1681\n      eq\n      tag_7\n      jumpi\n      dup1\n      0x18160ddd\n      eq\n      tag_8\n      jumpi\n    tag_2:\n      0x00\n      dup1\n      revert\n        /* \"us-contracts/UniswapV2Pair.sol\":7856:10181  function swap(... */\n    tag_3:\n      tag_36\n      0x04\n      dup1\n      calldatasize\n      sub\n        /* \"--CODEGEN--\":13:16   */\n      0x80\n        /* \"--CODEGEN--\":8:11   */\n      dup2\n        /* \"--CODEGEN--\":5:17   */\n      lt\n        /* \"--CODEGEN--\":2:4   */\n      iszero\n      tag_37\n      jumpi\n        /* \"--CODEGEN--\":30:31   */\n      0x00\n        /* \"--CODEGEN--\":27:28   */\n      dup1\n        /* \"--CODEGEN--\":20:32   */\n      revert\n        /* \"--CODEGEN--\":2:4   */\n    tag_37:\n        /* \"us-contracts/UniswapV2Pair.sol\":7856:10181  function swap(... */\n      dup2\n      add\n      swap1\n      dup1\n      dup1\n      calldataload\n      swap1\n      0x20\n      add\n      swap1\n      swap3\n      swap2\n      swap1\n      dup1\n      calldataload\n      swap1\n      0x20\n      add\n      swap1\n      swap3\n      swap2\n      swap1\n      dup1\n      calldataload\n      0xffffffffffffffffffffffffffffffffffffffff\n      and\n      swap1\n      0x20\n      add\n      swap1\n      swap3\n      swap2\n      swap1\n      dup1\n      calldataload\n      swap1\n      0x20\n      add\n      swap1\n        /* \"--CODEGEN--\":21:32   */\n      0x0100000000\n        /* \"--CODEGEN--\":8:19   */\n      dup2\n        /* \"--CODEGEN--\":5:33   */\n      gt\n        /* \"--CODEGEN--\":2:4   */\n      iszero\n      tag_38\n      jumpi\n        /* \"--CODEGEN--\":46:47   */\n      0x00\n        /* \"--CODEGEN--\":43:44   */\n      dup1\n        /* \"--CODEGEN--\":36:48   */\n      revert\n        /* \"--CODEGEN--\":2:4   */\n    tag_38:\n        /* \"us-contracts/UniswapV2Pair.sol\":7856:10181  function swap(... */\n      dup3\n      add\n        /* \"--CODEGEN--\":35:44   */\n      dup4\n        /* \"--CODEGEN--\":28:32   */\n      0x20\n        /* \"--CODEGEN--\":12:26   */\n      dup3\n        /* \"--CODEGEN--\":8:33   */\n      add\n        /* \"--CODEGEN--\":5:45   */\n      gt\n        /* \"--CODEGEN--\":2:4   */\n      iszero\n      tag_39\n      jumpi\n        /* \"--CODEGEN--\":58:59   */\n      0x00\n        /* \"--CODEGEN--\":55:56   */\n      dup1\n        /* \"--CODEGEN--\":48:60   */\n      revert\n        /* \"--CODEGEN--\":2:4   */\n    tag_39:\n        /* \"us-contracts/UniswapV2Pair.sol\":7856:10181  function swap(... */\n      dup1\n      calldataload\n      swap1\n      0x20\n      add\n      swap2\n        /* \"--CODEGEN--\":100:109   */\n      dup5\n        /* \"--CODEGEN--\":95:96   */\n      0x01\n        /* \"--CODEGEN--\":81:93   */\n      dup4\n        /* \"--CODEGEN--\":77:97   */\n      mul\n        /* \"--CODEGEN--\":67:75   */\n      dup5\n        /* \"--CODEGEN--\":63:98   */\n      add\n        /* \"--CODEGEN--\":60:110   */\n      gt\n        /* \"--CODEGEN--\":39:50   */\n      0x0100000000\n        /* \"--CODEGEN--\":25:37   */\n      dup4\n        /* \"--CODEGEN--\":22:51   */\n      gt\n        /* \"--CODEGEN--\":11:118   */\n      or\n        /* \"--CODEGEN--\":8:10   */\n      iszero\n      tag_40\n      jumpi\n        /* \"--CODEGEN--\":131:132   */\n      0x00\n        /* \"--CODEGEN--\":128:129   */\n      dup1\n        /* \"--CODEGEN--\":121:133   */\n      revert\n        /* \"--CODEGEN--\":8:10   */\n    tag_40:\n        /* \"us-contracts/UniswapV2Pair.sol\":7856:10181  function swap(... */\n      swap1\n      swap2\n      swap3\n      swap4\n      swap2\n      swap3\n      swap4\n      swap1\n      pop\n      pop\n      pop\n      tag_41\n      jump\t// in\n    tag_36:\n      stop\n        /* \"us-contracts/UniswapV2ERC20.sol\":184:226  string public constant name = 'Uniswap V2' */\n    tag_4:\n      tag_42\n      tag_43\n      jump\t// in\n    tag_42:\n      mload(0x40)\n      dup1\n      dup1\n      0x20\n      add\n      dup3\n      dup2\n      sub\n      dup3\n      mstore\n      dup4\n      dup2\n      dup2\n      mload\n      dup2\n      mstore\n      0x20\n      add\n      swap2\n      pop\n      dup1\n      mload\n      swap1\n      0x20\n      add\n      swap1\n      dup1\n      dup4\n      dup4\n        /* \"--CODEGEN--\":23:24   */\n      0x00\n        /* \"--CODEGEN--\":8:108   */\n    tag_44:\n        /* \"--CODEGEN--\":33:36   */\n      dup4\n        /* \"--CODEGEN--\":30:31   */\n      dup2\n        /* \"--CODEGEN--\":27:37   */\n      lt\n        /* \"--CODEGEN--\":8:108   */\n      iszero\n      tag_46\n      jumpi\n        /* \"--CODEGEN--\":99:100   */\n      dup1\n        /* \"--CODEGEN--\":94:97   */\n      dup3\n        /* \"--CODEGEN--\":90:101   */\n      add\n        /* \"--CODEGEN--\":84:102   */\n      mload\n        /* \"--CODEGEN--\":80:81   */\n      dup2\n        /* \"--CODEGEN--\":75:78   */\n      dup5\n        /* \"--CODEGEN--\":71:82   */\n      add\n        /* \"--CODEGEN--\":64:103   */\n      mstore\n        /* \"--CODEGEN--\":52:54   */\n      0x20\n        /* \"--CODEGEN--\":49:50   */\n      dup2\n        /* \"--CODEGEN--\":45:55   */\n      add\n        /* \"--CODEGEN--\":40:55   */\n      swap1\n      pop\n        /* \"--CODEGEN--\":8:108   */\n      jump(tag_44)\n    tag_46:\n        /* \"--CODEGEN--\":12:26   */\n      pop\n        /* \"us-contracts/UniswapV2ERC20.sol\":184:226  string public constant name = 'Uniswap V2' */\n      pop\n      pop\n      pop\n      swap1\n      pop\n      swap1\n      dup2\n      add\n      swap1\n      0x1f\n      and\n      dup1\n      iszero\n      tag_47\n      jumpi\n      dup1\n      dup3\n      sub\n      dup1\n      mload\n      0x01\n      dup4\n      0x20\n      sub\n      0x0100\n      exp\n      sub\n      not\n      and\n      dup2\n      mstore\n      0x20\n      add\n      swap2\n      pop\n    tag_47:\n      pop\n      swap3\n      pop\n      pop\n      pop\n      mload(0x40)\n      dup1\n      swap2\n      sub\n      swap1\n      return\n        /* \"us-contracts/UniswapV2Pair.sol\":1288:1589  function getReserves()... */\n    tag_5:\n      tag_48\n      tag_49\n      jump\t// in\n    tag_48:\n      mload(0x40)\n      dup1\n      dup5\n      0xffffffffffffffffffffffffffff\n      and\n      0xffffffffffffffffffffffffffff\n      and\n      dup2\n      mstore\n      0x20\n      add\n      dup4\n      0xffffffffffffffffffffffffffff\n      and\n      0xffffffffffffffffffffffffffff\n      and\n      dup2\n      mstore\n      0x20\n      add\n      dup3\n      0xffffffff\n      and\n      0xffffffff\n      and\n      dup2\n      mstore\n      0x20\n      add\n      swap4\n      pop\n      pop\n      pop\n      pop\n      mload(0x40)\n      dup1\n      swap2\n      sub\n      swap1\n      return\n        /* \"us-contracts/UniswapV2ERC20.sol\":2177:2321  function approve(address spender, uint value) external returns (bool) {... */\n    tag_6:\n      tag_50\n      0x04\n      dup1\n      calldatasize\n      sub\n        /* \"--CODEGEN--\":13:15   */\n      0x40\n        /* \"--CODEGEN--\":8:11   */\n      dup2\n        /* \"--CODEGEN--\":5:16   */\n      lt\n        /* \"--CODEGEN--\":2:4   */\n      iszero\n      tag_51\n      jumpi\n        /* \"--CODEGEN--\":29:30   */\n      0x00\n        /* \"--CODEGEN--\":26:27   */\n      dup1\n        /* \"--CODEGEN--\":19:31   */\n      revert\n        /* \"--CODEGEN--\":2:4   */\n    tag_51:\n        /* \"us-contracts/UniswapV2ERC20.sol\":2177:2321  function approve(address spender, uint value) external returns (bool) {... */\n      dup2\n      add\n      swap1\n      dup1\n      dup1\n      calldataload\n      0xffffffffffffffffffffffffffffffffffffffff\n      and\n      swap1\n      0x20\n      add\n      swap1\n      swap3\n      swap2\n      swap1\n      dup1\n      calldataload\n      swap1\n      0x20\n      add\n      swap1\n      swap3\n      swap2\n      swap1\n      pop\n      pop\n      pop\n      tag_52\n      jump\t// in\n    tag_50:\n      mload(0x40)\n      dup1\n      dup3\n      iszero\n      iszero\n      iszero\n      iszero\n      dup2\n      mstore\n      0x20\n      add\n      swap2\n      pop\n      pop\n      mload(0x40)\n      dup1\n      swap2\n      sub\n      swap1\n      return\n        /* \"us-contracts/UniswapV2Pair.sol\":605:626  address public token0 */\n    tag_7:\n      tag_53\n      tag_54\n      jump\t// in\n    tag_53:\n      mload(0x40)\n      dup1\n      dup3\n      0xffffffffffffffffffffffffffffffffffffffff\n      and\n      0xffffffffffffffffffffffffffffffffffffffff\n      and\n      dup2\n      mstore\n      0x20\n      add\n      swap2\n      pop\n      pop\n      mload(0x40)\n      dup1\n      swap2\n      sub\n      swap1\n      return\n        /* \"us-contracts/UniswapV2ERC20.sol\":319:343  uint  public totalSupply */\n    tag_8:\n      tag_55\n      tag_56\n      jump\t// in\n    tag_55:\n      mload(0x40)\n      dup1\n      dup3\n      dup2\n      mstore\n      0x20\n      add\n      swap2\n      pop\n      pop\n      mload(0x40)\n      dup1\n      swap2\n      sub\n      swap1\n      return\n        /* \"us-contracts/UniswapV2ERC20.sol\":2469:2764  function transferFrom(address from, address to, uint value) external returns (bool) {... */\n    tag_9:\n      tag_57\n      0x04\n      dup1\n      calldatasize\n      sub\n        /* \"--CODEGEN--\":13:15   */\n      0x60\n        /* \"--CODEGEN--\":8:11   */\n      dup2\n        /* \"--CODEGEN--\":5:16   */\n      lt\n        /* \"--CODEGEN--\":2:4   */\n      iszero\n      tag_58\n      jumpi\n        /* \"--CODEGEN--\":29:30   */\n      0x00\n        /* \"--CODEGEN--\":26:27   */\n      dup1\n        /* \"--CODEGEN--\":19:31   */\n      revert\n        /* \"--CODEGEN--\":2:4   */\n    tag_58:\n        /* \"us-contracts/UniswapV2ERC20.sol\":2469:2764  function transferFrom(address from, address to, uint value) external returns (bool) {... */\n      dup2\n      add\n      swap1\n      dup1\n      dup1\n      calldataload\n      0xffffffffffffffffffffffffffffffffffffffff\n      and\n      swap1\n      0x20\n      add\n      swap1\n      swap3\n      swap2\n      swap1\n      dup1\n      calldataload\n      0xffffffffffffffffffffffffffffffffffffffff\n      and\n      swap1\n      0x20\n      add\n      swap1\n      swap3\n      swap2\n      swap1\n      dup1\n      calldataload\n      swap1\n      0x20\n      add\n      swap1\n      swap3\n      swap2\n      swap1\n      pop\n      pop\n      pop\n      tag_59\n      jump\t// in\n    tag_57:\n      mload(0x40)\n      dup1\n      dup3\n      iszero\n      iszero\n      iszero\n      iszero\n      dup2\n      mstore\n      0x20\n      add\n      swap2\n      pop\n      pop\n      mload(0x40)\n      dup1\n      swap2\n      sub\n      swap1\n      return\n        /* \"us-contracts/UniswapV2ERC20.sol\":605:713  bytes32 public constant PERMIT_TYPEHASH = 0x6e71edae12b1b97f4d1f60370fef10105fa2faae0126114a169c64845d6126c9 */\n    tag_10:\n      tag_60\n      tag_61\n      jump\t// in\n    tag_60:\n      mload(0x40)\n      dup1\n      dup3\n      dup2\n      mstore\n      0x20\n      add\n      swap2\n      pop\n      pop\n      mload(0x40)\n      dup1\n      swap2\n      sub\n      swap1\n      return\n        /* \"us-contracts/UniswapV2ERC20.sol\":278:313  uint8 public constant decimals = 18 */\n    tag_11:\n      tag_62\n      tag_63\n      jump\t// in\n    tag_62:\n      mload(0x40)\n      dup1\n      dup3\n      0xff\n      and\n      0xff\n      and\n      dup2\n      mstore\n      0x20\n      add\n      swap2\n      pop\n      pop\n      mload(0x40)\n      dup1\n      swap2\n      sub\n      swap1\n      return\n        /* \"us-contracts/UniswapV2ERC20.sol\":464:495  bytes32 public DOMAIN_SEPARATOR */\n    tag_12:\n      tag_64\n      tag_65\n      jump\t// in\n    tag_64:\n      mload(0x40)\n      dup1\n      dup3\n      dup2\n      mstore\n      0x20\n      add\n      swap2\n      pop\n      pop\n      mload(0x40)\n      dup1\n      swap2\n      sub\n      swap1\n      return\n        /* \"us-contracts/UniswapV2Pair.sol\":2545:2751  function initialize(address _token0, address _token1) external {... */\n    tag_13:\n      tag_66\n      0x04\n      dup1\n      calldatasize\n      sub\n        /* \"--CODEGEN--\":13:15   */\n      0x40\n        /* \"--CODEGEN--\":8:11   */\n      dup2\n        /* \"--CODEGEN--\":5:16   */\n      lt\n        /* \"--CODEGEN--\":2:4   */\n      iszero\n      tag_67\n      jumpi\n        /* \"--CODEGEN--\":29:30   */\n      0x00\n        /* \"--CODEGEN--\":26:27   */\n      dup1\n        /* \"--CODEGEN--\":19:31   */\n      revert\n        /* \"--CODEGEN--\":2:4   */\n    tag_67:\n        /* \"us-contracts/UniswapV2Pair.sol\":2545:2751  function initialize(address _token0, address _token1) external {... */\n      dup2\n      add\n      swap1\n      dup1\n      dup1\n      calldataload\n      0xffffffffffffffffffffffffffffffffffffffff\n      and\n      swap1\n      0x20\n      add\n      swap1\n      swap3\n      swap2\n      swap1\n      dup1\n      calldataload\n      0xffffffffffffffffffffffffffffffffffffffff\n      and\n      swap1\n      0x20\n      add\n      swap1\n      swap3\n      swap2\n      swap1\n      pop\n      pop\n      pop\n      tag_68\n      jump\t// in\n    tag_66:\n      stop\n        /* \"us-contracts/UniswapV2Pair.sol\":928:963  uint256 public price0CumulativeLast */\n    tag_14:\n      tag_69\n      tag_70\n      jump\t// in\n    tag_69:\n      mload(0x40)\n      dup1\n      dup3\n      dup2\n      mstore\n      0x20\n      add\n      swap2\n      pop\n      pop\n      mload(0x40)\n      dup1\n      swap2\n      sub\n      swap1\n      return\n        /* \"us-contracts/UniswapV2Pair.sol\":969:1004  uint256 public price1CumulativeLast */\n    tag_15:\n      tag_71\n      tag_72\n      jump\t// in\n    tag_71:\n      mload(0x40)\n      dup1\n      dup3\n      dup2\n      mstore\n      0x20\n      add\n      swap2\n      pop\n      pop\n      mload(0x40)\n      dup1\n      swap2\n      sub\n      swap1\n      return\n        /* \"us-contracts/UniswapV2Pair.sol\":4884:6172  function mint(address to) external lock returns (uint256 liquidity) {... */\n    tag_16:\n      tag_73\n      0x04\n      dup1\n      calldatasize\n      sub\n        /* \"--CODEGEN--\":13:15   */\n      0x20\n        /* \"--CODEGEN--\":8:11   */\n      dup2\n        /* \"--CODEGEN--\":5:16   */\n      lt\n        /* \"--CODEGEN--\":2:4   */\n      iszero\n      tag_74\n      jumpi\n        /* \"--CODEGEN--\":29:30   */\n      0x00\n        /* \"--CODEGEN--\":26:27   */\n      dup1\n        /* \"--CODEGEN--\":19:31   */\n      revert\n        /* \"--CODEGEN--\":2:4   */\n    tag_74:\n        /* \"us-contracts/UniswapV2Pair.sol\":4884:6172  function mint(address to) external lock returns (uint256 liquidity) {... */\n      dup2\n      add\n      swap1\n      dup1\n      dup1\n      calldataload\n      0xffffffffffffffffffffffffffffffffffffffff\n      and\n      swap1\n      0x20\n      add\n      swap1\n      swap3\n      swap2\n      swap1\n      pop\n      pop\n      pop\n      tag_75\n      jump\t// in\n    tag_73:\n      mload(0x40)\n      dup1\n      dup3\n      dup2\n      mstore\n      0x20\n      add\n      swap2\n      pop\n      pop\n      mload(0x40)\n      dup1\n      swap2\n      sub\n      swap1\n      return\n        /* \"us-contracts/UniswapV2ERC20.sol\":349:390  mapping(address => uint) public balanceOf */\n    tag_17:\n      tag_76\n      0x04\n      dup1\n      calldatasize\n      sub\n        /* \"--CODEGEN--\":13:15   */\n      0x20\n        /* \"--CODEGEN--\":8:11   */\n      dup2\n        /* \"--CODEGEN--\":5:16   */\n      lt\n        /* \"--CODEGEN--\":2:4   */\n      iszero\n      tag_77\n      jumpi\n        /* \"--CODEGEN--\":29:30   */\n      0x00\n        /* \"--CODEGEN--\":26:27   */\n      dup1\n        /* \"--CODEGEN--\":19:31   */\n      revert\n        /* \"--CODEGEN--\":2:4   */\n    tag_77:\n        /* \"us-contracts/UniswapV2ERC20.sol\":349:390  mapping(address => uint) public balanceOf */\n      dup2\n      add\n      swap1\n      dup1\n      dup1\n      calldataload\n      0xffffffffffffffffffffffffffffffffffffffff\n      and\n      swap1\n      0x20\n      add\n      swap1\n      swap3\n      swap2\n      swap1\n      pop\n      pop\n      pop\n      tag_78\n      jump\t// in\n    tag_76:\n      mload(0x40)\n      dup1\n      dup3\n      dup2\n      mstore\n      0x20\n      add\n      swap2\n      pop\n      pop\n      mload(0x40)\n      dup1\n      swap2\n      sub\n      swap1\n      return\n        /* \"us-contracts/UniswapV2Pair.sol\":1010:1030  uint256 public kLast */\n    tag_18:\n      tag_79\n      tag_80\n      jump\t// in\n    tag_79:\n      mload(0x40)\n      dup1\n      dup3\n      dup2\n      mstore\n      0x20\n      add\n      swap2\n      pop\n      pop\n      mload(0x40)\n      dup1\n      swap2\n      sub\n      swap1\n      return\n        /* \"us-contracts/UniswapV2ERC20.sol\":719:757  mapping(address => uint) public nonces */\n    tag_19:\n      tag_81\n      0x04\n      dup1\n      calldatasize\n      sub\n        /* \"--CODEGEN--\":13:15   */\n      0x20\n        /* \"--CODEGEN--\":8:11   */\n      dup2\n        /* \"--CODEGEN--\":5:16   */\n      lt\n        /* \"--CODEGEN--\":2:4   */\n      iszero\n      tag_82\n      jumpi\n        /* \"--CODEGEN--\":29:30   */\n      0x00\n        /* \"--CODEGEN--\":26:27   */\n      dup1\n        /* \"--CODEGEN--\":19:31   */\n      revert\n        /* \"--CODEGEN--\":2:4   */\n    tag_82:\n        /* \"us-contracts/UniswapV2ERC20.sol\":719:757  mapping(address => uint) public nonces */\n      dup2\n      add\n      swap1\n      dup1\n      dup1\n      calldataload\n      0xffffffffffffffffffffffffffffffffffffffff\n      and\n      swap1\n      0x20\n      add\n      swap1\n      swap3\n      swap2\n      swap1\n      pop\n      pop\n      pop\n      tag_83\n      jump\t// in\n    tag_81:\n      mload(0x40)\n      dup1\n      dup3\n      dup2\n      mstore\n      0x20\n      add\n      swap2\n      pop\n      pop\n      mload(0x40)\n      dup1\n      swap2\n      sub\n      swap1\n      return\n        /* \"us-contracts/UniswapV2Pair.sol\":6281:7747  function burn(address to)... */\n    tag_20:\n      tag_84\n      0x04\n      dup1\n      calldatasize\n      sub\n        /* \"--CODEGEN--\":13:15   */\n      0x20\n        /* \"--CODEGEN--\":8:11   */\n      dup2\n        /* \"--CODEGEN--\":5:16   */\n      lt\n        /* \"--CODEGEN--\":2:4   */\n      iszero\n      tag_85\n      jumpi\n        /* \"--CODEGEN--\":29:30   */\n      0x00\n        /* \"--CODEGEN--\":26:27   */\n      dup1\n        /* \"--CODEGEN--\":19:31   */\n      revert\n        /* \"--CODEGEN--\":2:4   */\n    tag_85:\n        /* \"us-contracts/UniswapV2Pair.sol\":6281:7747  function burn(address to)... */\n      dup2\n      add\n      swap1\n      dup1\n      dup1\n      calldataload\n      0xffffffffffffffffffffffffffffffffffffffff\n      and\n      swap1\n      0x20\n      add\n      swap1\n      swap3\n      swap2\n      swap1\n      pop\n      pop\n      pop\n      tag_86\n      jump\t// in\n    tag_84:\n      mload(0x40)\n      dup1\n      dup4\n      dup2\n      mstore\n      0x20\n      add\n      dup3\n      dup2\n      mstore\n      0x20\n      add\n      swap3\n      pop\n      pop\n      pop\n      mload(0x40)\n      dup1\n      swap2\n      sub\n      swap1\n      return\n        /* \"us-contracts/UniswapV2ERC20.sol\":232:272  string public constant symbol = 'UNI-V2' */\n    tag_21:\n      tag_87\n      tag_88\n      jump\t// in\n    tag_87:\n      mload(0x40)\n      dup1\n      dup1\n      0x20\n      add\n      dup3\n      dup2\n      sub\n      dup3\n      mstore\n      dup4\n      dup2\n      dup2\n      mload\n      dup2\n      mstore\n      0x20\n      add\n      swap2\n      pop\n      dup1\n      mload\n      swap1\n      0x20\n      add\n      swap1\n      dup1\n      dup4\n      dup4\n        /* \"--CODEGEN--\":23:24   */\n      0x00\n        /* \"--CODEGEN--\":8:108   */\n    tag_89:\n        /* \"--CODEGEN--\":33:36   */\n      dup4\n        /* \"--CODEGEN--\":30:31   */\n      dup2\n        /* \"--CODEGEN--\":27:37   */\n      lt\n        /* \"--CODEGEN--\":8:108   */\n      iszero\n      tag_91\n      jumpi\n        /* \"--CODEGEN--\":99:100   */\n      dup1\n        /* \"--CODEGEN--\":94:97   */\n      dup3\n        /* \"--CODEGEN--\":90:101   */\n      add\n        /* \"--CODEGEN--\":84:102   */\n      mload\n        /* \"--CODEGEN--\":80:81   */\n      dup2\n        /* \"--CODEGEN--\":75:78   */\n      dup5\n        /* \"--CODEGEN--\":71:82   */\n      add\n        /* \"--CODEGEN--\":64:103   */\n      mstore\n        /* \"--CODEGEN--\":52:54   */\n      0x20\n        /* \"--CODEGEN--\":49:50   */\n      dup2\n        /* \"--CODEGEN--\":45:55   */\n      add\n        /* \"--CODEGEN--\":40:55   */\n      swap1\n      pop\n        /* \"--CODEGEN--\":8:108   */\n      jump(tag_89)\n    tag_91:\n        /* \"--CODEGEN--\":12:26   */\n      pop\n        /* \"us-contracts/UniswapV2ERC20.sol\":232:272  string public constant symbol = 'UNI-V2' */\n      pop\n      pop\n      pop\n      swap1\n      pop\n      swap1\n      dup2\n      add\n      swap1\n      0x1f\n      and\n      dup1\n      iszero\n      tag_92\n      jumpi\n      dup1\n      dup3\n      sub\n      dup1\n      mload\n      0x01\n      dup4\n      0x20\n      sub\n      0x0100\n      exp\n      sub\n      not\n      and\n      dup2\n      mstore\n      0x20\n      add\n      swap2\n      pop\n    tag_92:\n      pop\n      swap3\n      pop\n      pop\n      pop\n      mload(0x40)\n      dup1\n      swap2\n      sub\n      swap1\n      return\n        /* \"us-contracts/UniswapV2ERC20.sol\":2327:2463  function transfer(address to, uint value) external returns (bool) {... */\n    tag_22:\n      tag_93\n      0x04\n      dup1\n      calldatasize\n      sub\n        /* \"--CODEGEN--\":13:15   */\n      0x40\n        /* \"--CODEGEN--\":8:11   */\n      dup2\n        /* \"--CODEGEN--\":5:16   */\n      lt\n        /* \"--CODEGEN--\":2:4   */\n      iszero\n      tag_94\n      jumpi\n        /* \"--CODEGEN--\":29:30   */\n      0x00\n        /* \"--CODEGEN--\":26:27   */\n      dup1\n        /* \"--CODEGEN--\":19:31   */\n      revert\n        /* \"--CODEGEN--\":2:4   */\n    tag_94:\n        /* \"us-contracts/UniswapV2ERC20.sol\":2327:2463  function transfer(address to, uint value) external returns (bool) {... */\n      dup2\n      add\n      swap1\n      dup1\n      dup1\n      calldataload\n      0xffffffffffffffffffffffffffffffffffffffff\n      and\n      swap1\n      0x20\n      add\n      swap1\n      swap3\n      swap2\n      swap1\n      dup1\n      calldataload\n      swap1\n      0x20\n      add\n      swap1\n      swap3\n      swap2\n      swap1\n      pop\n      pop\n      pop\n      tag_95\n      jump\t// in\n    tag_93:\n      mload(0x40)\n      dup1\n      dup3\n      iszero\n      iszero\n      iszero\n      iszero\n      dup2\n      mstore\n      0x20\n      add\n      swap2\n      pop\n      pop\n      mload(0x40)\n      dup1\n      swap2\n      sub\n      swap1\n      return\n        /* \"us-contracts/UniswapV2Pair.sol\":419:468  uint256 public constant MINIMUM_LIQUIDITY = 10**3 */\n    tag_23:\n      tag_96\n      tag_97\n      jump\t// in\n    tag_96:\n      mload(0x40)\n      dup1\n      dup3\n      dup2\n      mstore\n      0x20\n      add\n      swap2\n      pop\n      pop\n      mload(0x40)\n      dup1\n      swap2\n      sub\n      swap1\n      return\n        /* \"us-contracts/UniswapV2Pair.sol\":10227:10648  function skim(address to) external lock {... */\n    tag_24:\n      tag_98\n      0x04\n      dup1\n      calldatasize\n      sub\n        /* \"--CODEGEN--\":13:15   */\n      0x20\n        /* \"--CODEGEN--\":8:11   */\n      dup2\n        /* \"--CODEGEN--\":5:16   */\n      lt\n        /* \"--CODEGEN--\":2:4   */\n      iszero\n      tag_99\n      jumpi\n        /* \"--CODEGEN--\":29:30   */\n      0x00\n        /* \"--CODEGEN--\":26:27   */\n      dup1\n        /* \"--CODEGEN--\":19:31   */\n      revert\n        /* \"--CODEGEN--\":2:4   */\n    tag_99:\n        /* \"us-contracts/UniswapV2Pair.sol\":10227:10648  function skim(address to) external lock {... */\n      dup2\n      add\n      swap1\n      dup1\n      dup1\n      calldataload\n      0xffffffffffffffffffffffffffffffffffffffff\n      and\n      swap1\n      0x20\n      add\n      swap1\n      swap3\n      swap2\n      swap1\n      pop\n      pop\n      pop\n      tag_100\n      jump\t// in\n    tag_98:\n      stop\n        /* \"us-contracts/UniswapV2Pair.sol\":577:599  address public factory */\n    tag_25:\n      tag_101\n      tag_102\n      jump\t// in\n    tag_101:\n      mload(0x40)\n      dup1\n      dup3\n      0xffffffffffffffffffffffffffffffffffffffff\n      and\n      0xffffffffffffffffffffffffffffffffffffffff\n      and\n      dup2\n      mstore\n      0x20\n      add\n      swap2\n      pop\n      pop\n      mload(0x40)\n      dup1\n      swap2\n      sub\n      swap1\n      return\n        /* \"us-contracts/UniswapV2Pair.sol\":632:653  address public token1 */\n    tag_26:\n      tag_103\n      tag_104\n      jump\t// in\n    tag_103:\n      mload(0x40)\n      dup1\n      dup3\n      0xffffffffffffffffffffffffffffffffffffffff\n      and\n      0xffffffffffffffffffffffffffffffffffffffff\n      and\n      dup2\n      mstore\n      0x20\n      add\n      swap2\n      pop\n      pop\n      mload(0x40)\n      dup1\n      swap2\n      sub\n      swap1\n      return\n        /* \"us-contracts/UniswapV2ERC20.sol\":2770:3432  function permit(address owner, address spender, uint value, uint deadline, uint8 v, bytes32 r, bytes32 s) external {... */\n    tag_27:\n      tag_105\n      0x04\n      dup1\n      calldatasize\n      sub\n        /* \"--CODEGEN--\":13:16   */\n      0xe0\n        /* \"--CODEGEN--\":8:11   */\n      dup2\n        /* \"--CODEGEN--\":5:17   */\n      lt\n        /* \"--CODEGEN--\":2:4   */\n      iszero\n      tag_106\n      jumpi\n        /* \"--CODEGEN--\":30:31   */\n      0x00\n        /* \"--CODEGEN--\":27:28   */\n      dup1\n        /* \"--CODEGEN--\":20:32   */\n      revert\n        /* \"--CODEGEN--\":2:4   */\n    tag_106:\n        /* \"us-contracts/UniswapV2ERC20.sol\":2770:3432  function permit(address owner, address spender, uint value, uint deadline, uint8 v, bytes32 r, bytes32 s) external {... */\n      dup2\n      add\n      swap1\n      dup1\n      dup1\n      calldataload\n      0xffffffffffffffffffffffffffffffffffffffff\n      and\n      swap1\n      0x20\n      add\n      swap1\n      swap3\n      swap2\n      swap1\n      dup1\n      calldataload\n      0xffffffffffffffffffffffffffffffffffffffff\n      and\n      swap1\n      0x20\n      add\n      swap1\n      swap3\n      swap2\n      swap1\n      dup1\n      calldataload\n      swap1\n      0x20\n      add\n      swap1\n      swap3\n      swap2\n      swap1\n      dup1\n      calldataload\n      swap1\n      0x20\n      add\n      swap1\n      swap3\n      swap2\n      swap1\n      dup1\n      calldataload\n      0xff\n      and\n      swap1\n      0x20\n      add\n      swap1\n      swap3\n      swap2\n      swap1\n      dup1\n      calldataload\n      swap1\n      0x20\n      add\n      swap1\n      swap3\n      swap2\n      swap1\n      dup1\n      calldataload\n      swap1\n      0x20\n      add\n      swap1\n      swap3\n      swap2\n      swap1\n      pop\n      pop\n      pop\n      tag_107\n      jump\t// in\n    tag_105:\n      stop\n        /* \"us-contracts/UniswapV2ERC20.sol\":396:457  mapping(address => mapping(address => uint)) public allowance */\n    tag_28:\n      tag_108\n      0x04\n      dup1\n      calldatasize\n      sub\n        /* \"--CODEGEN--\":13:15   */\n      0x40\n        /* \"--CODEGEN--\":8:11   */\n      dup2\n        /* \"--CODEGEN--\":5:16   */\n      lt\n        /* \"--CODEGEN--\":2:4   */\n      iszero\n      tag_109\n      jumpi\n        /* \"--CODEGEN--\":29:30   */\n      0x00\n        /* \"--CODEGEN--\":26:27   */\n      dup1\n        /* \"--CODEGEN--\":19:31   */\n      revert\n        /* \"--CODEGEN--\":2:4   */\n    tag_109:\n        /* \"us-contracts/UniswapV2ERC20.sol\":396:457  mapping(address => mapping(address => uint)) public allowance */\n      dup2\n      add\n      swap1\n      dup1\n      dup1\n      calldataload\n      0xffffffffffffffffffffffffffffffffffffffff\n      and\n      swap1\n      0x20\n      add\n      swap1\n      swap3\n      swap2\n      swap1\n      dup1\n      calldataload\n      0xffffffffffffffffffffffffffffffffffffffff\n      and\n      swap1\n      0x20\n      add\n      swap1\n      swap3\n      swap2\n      swap1\n      pop\n      pop\n      pop\n      tag_110\n      jump\t// in\n    tag_108:\n      mload(0x40)\n      dup1\n      dup3\n      dup2\n      mstore\n      0x20\n      add\n      swap2\n      pop\n      pop\n      mload(0x40)\n      dup1\n      swap2\n      sub\n      swap1\n      return\n        /* \"us-contracts/UniswapV2Pair.sol\":10694:10908  function sync() external lock {... */\n    tag_29:\n      tag_111\n      tag_112\n      jump\t// in\n    tag_111:\n      stop\n        /* \"us-contracts/UniswapV2Pair.sol\":7856:10181  function swap(... */\n    tag_41:\n        /* \"us-contracts/UniswapV2Pair.sol\":1197:1198  1 */\n      0x01\n        /* \"us-contracts/UniswapV2Pair.sol\":1185:1193  unlocked */\n      sload(0x0c)\n        /* \"us-contracts/UniswapV2Pair.sol\":1185:1198  unlocked == 1 */\n      eq\n        /* \"us-contracts/UniswapV2Pair.sol\":1177:1220  require(unlocked == 1, \"UniswapV2: LOCKED\") */\n      tag_114\n      jumpi\n      mload(0x40)\n      0x08c379a000000000000000000000000000000000000000000000000000000000\n      dup2\n      mstore\n      0x04\n      add\n      dup1\n      dup1\n      0x20\n      add\n      dup3\n      dup2\n      sub\n      dup3\n      mstore\n      0x11\n      dup2\n      mstore\n      0x20\n      add\n      dup1\n      0x556e697377617056323a204c4f434b4544000000000000000000000000000000\n      dup2\n      mstore\n      pop\n      0x20\n      add\n      swap2\n      pop\n      pop\n      mload(0x40)\n      dup1\n      swap2\n      sub\n      swap1\n      revert\n    tag_114:\n        /* \"us-contracts/UniswapV2Pair.sol\":1241:1242  0 */\n      0x00\n        /* \"us-contracts/UniswapV2Pair.sol\":1230:1238  unlocked */\n      0x0c\n        /* \"us-contracts/UniswapV2Pair.sol\":1230:1242  unlocked = 0 */\n      dup2\n      swap1\n      sstore\n      pop\n        /* \"us-contracts/UniswapV2Pair.sol\":8039:8040  0 */\n      0x00\n        /* \"us-contracts/UniswapV2Pair.sol\":8026:8036  amount0Out */\n      dup6\n        /* \"us-contracts/UniswapV2Pair.sol\":8026:8040  amount0Out > 0 */\n      gt\n        /* \"us-contracts/UniswapV2Pair.sol\":8026:8058  amount0Out > 0 || amount1Out > 0 */\n      dup1\n      tag_116\n      jumpi\n      pop\n        /* \"us-contracts/UniswapV2Pair.sol\":8057:8058  0 */\n      0x00\n        /* \"us-contracts/UniswapV2Pair.sol\":8044:8054  amount1Out */\n      dup5\n        /* \"us-contracts/UniswapV2Pair.sol\":8044:8058  amount1Out > 0 */\n      gt\n        /* \"us-contracts/UniswapV2Pair.sol\":8026:8058  amount0Out > 0 || amount1Out > 0 */\n    tag_116:\n        /* \"us-contracts/UniswapV2Pair.sol\":8005:8121  require(... */\n      tag_117\n      jumpi\n      mload(0x40)\n      0x08c379a000000000000000000000000000000000000000000000000000000000\n      dup2\n      mstore\n      0x04\n      add\n      dup1\n      dup1\n      0x20\n      add\n      dup3\n      dup2\n      sub\n      dup3\n      mstore\n      0x25\n      dup2\n      mstore\n      0x20\n      add\n      dup1\n      data_05339493da7e2cbe77e17beadf6b91132eb307939495f5f1797bf88d95539e83\n      0x25\n      swap2\n      codecopy\n      0x40\n      add\n      swap2\n      pop\n      pop\n      mload(0x40)\n      dup1\n      swap2\n      sub\n      swap1\n      revert\n    tag_117:\n        /* \"us-contracts/UniswapV2Pair.sol\":8132:8149  uint112 _reserve0 */\n      0x00\n        /* \"us-contracts/UniswapV2Pair.sol\":8151:8168  uint112 _reserve1 */\n      dup1\n        /* \"us-contracts/UniswapV2Pair.sol\":8174:8187  getReserves() */\n      tag_118\n        /* \"us-contracts/UniswapV2Pair.sol\":8174:8185  getReserves */\n      tag_49\n        /* \"us-contracts/UniswapV2Pair.sol\":8174:8187  getReserves() */\n      jump\t// in\n    tag_118:\n        /* \"us-contracts/UniswapV2Pair.sol\":8131:8187  (uint112 _reserve0, uint112 _reserve1, ) = getReserves() */\n      pop\n      swap2\n      pop\n      swap2\n      pop\n        /* \"us-contracts/UniswapV2Pair.sol\":8246:8255  _reserve0 */\n      dup2\n        /* \"us-contracts/UniswapV2Pair.sol\":8233:8255  amount0Out < _reserve0 */\n      0xffffffffffffffffffffffffffff\n      and\n        /* \"us-contracts/UniswapV2Pair.sol\":8233:8243  amount0Out */\n      dup8\n        /* \"us-contracts/UniswapV2Pair.sol\":8233:8255  amount0Out < _reserve0 */\n      lt\n        /* \"us-contracts/UniswapV2Pair.sol\":8233:8281  amount0Out < _reserve0 && amount1Out < _reserve1 */\n      dup1\n      iszero\n      tag_119\n      jumpi\n      pop\n        /* \"us-contracts/UniswapV2Pair.sol\":8272:8281  _reserve1 */\n      dup1\n        /* \"us-contracts/UniswapV2Pair.sol\":8259:8281  amount1Out < _reserve1 */\n      0xffffffffffffffffffffffffffff\n      and\n        /* \"us-contracts/UniswapV2Pair.sol\":8259:8269  amount1Out */\n      dup7\n        /* \"us-contracts/UniswapV2Pair.sol\":8259:8281  amount1Out < _reserve1 */\n      lt\n        /* \"us-contracts/UniswapV2Pair.sol\":8233:8281  amount0Out < _reserve0 && amount1Out < _reserve1 */\n    tag_119:\n        /* \"us-contracts/UniswapV2Pair.sol\":8212:8340  require(... */\n      tag_120\n      jumpi\n      mload(0x40)\n      0x08c379a000000000000000000000000000000000000000000000000000000000\n      dup2\n      mstore\n      0x04\n      add\n      dup1\n      dup1\n      0x20\n      add\n      dup3\n      dup2\n      sub\n      dup3\n      mstore\n      0x21\n      dup2\n      mstore\n      0x20\n      add\n      dup1\n      data_3f354ef449b2a9b081220ce21f57691008110b653edc191d8288e60cef58bb5f\n      0x21\n      swap2\n      codecopy\n      0x40\n      add\n      swap2\n      pop\n      pop\n      mload(0x40)\n      dup1\n      swap2\n      sub\n      swap1\n      revert\n    tag_120:\n        /* \"us-contracts/UniswapV2Pair.sol\":8351:8367  uint256 balance0 */\n      0x00\n        /* \"us-contracts/UniswapV2Pair.sol\":8377:8393  uint256 balance1 */\n      dup1\n        /* \"us-contracts/UniswapV2Pair.sol\":8484:8499  address _token0 */\n      0x00\n        /* \"us-contracts/UniswapV2Pair.sol\":8502:8508  token0 */\n      0x06\n      0x00\n      swap1\n      sload\n      swap1\n      0x0100\n      exp\n      swap1\n      div\n      0xffffffffffffffffffffffffffffffffffffffff\n      and\n        /* \"us-contracts/UniswapV2Pair.sol\":8484:8508  address _token0 = token0 */\n      swap1\n      pop\n        /* \"us-contracts/UniswapV2Pair.sol\":8522:8537  address _token1 */\n      0x00\n        /* \"us-contracts/UniswapV2Pair.sol\":8540:8546  token1 */\n      0x07\n      0x00\n      swap1\n      sload\n      swap1\n      0x0100\n      exp\n      swap1\n      div\n      0xffffffffffffffffffffffffffffffffffffffff\n      and\n        /* \"us-contracts/UniswapV2Pair.sol\":8522:8546  address _token1 = token1 */\n      swap1\n      pop\n        /* \"us-contracts/UniswapV2Pair.sol\":8574:8581  _token0 */\n      dup2\n        /* \"us-contracts/UniswapV2Pair.sol\":8568:8581  to != _token0 */\n      0xffffffffffffffffffffffffffffffffffffffff\n      and\n        /* \"us-contracts/UniswapV2Pair.sol\":8568:8570  to */\n      dup10\n        /* \"us-contracts/UniswapV2Pair.sol\":8568:8581  to != _token0 */\n      0xffffffffffffffffffffffffffffffffffffffff\n      and\n      eq\n      iszero\n        /* \"us-contracts/UniswapV2Pair.sol\":8568:8598  to != _token0 && to != _token1 */\n      dup1\n      iszero\n      tag_121\n      jumpi\n      pop\n        /* \"us-contracts/UniswapV2Pair.sol\":8591:8598  _token1 */\n      dup1\n        /* \"us-contracts/UniswapV2Pair.sol\":8585:8598  to != _token1 */\n      0xffffffffffffffffffffffffffffffffffffffff\n      and\n        /* \"us-contracts/UniswapV2Pair.sol\":8585:8587  to */\n      dup10\n        /* \"us-contracts/UniswapV2Pair.sol\":8585:8598  to != _token1 */\n      0xffffffffffffffffffffffffffffffffffffffff\n      and\n      eq\n      iszero\n        /* \"us-contracts/UniswapV2Pair.sol\":8568:8598  to != _token0 && to != _token1 */\n    tag_121:\n        /* \"us-contracts/UniswapV2Pair.sol\":8560:8624  require(to != _token0 && to != _token1, \"UniswapV2: INVALID_TO\") */\n      tag_122\n      jumpi\n      mload(0x40)\n      0x08c379a000000000000000000000000000000000000000000000000000000000\n      dup2\n      mstore\n      0x04\n      add\n      dup1\n      dup1\n      0x20\n      add\n      dup3\n      dup2\n      sub\n      dup3\n      mstore\n      0x15\n      dup2\n      mstore\n      0x20\n      add\n      dup1\n      0x556e697377617056323a20494e56414c49445f544f0000000000000000000000\n      dup2\n      mstore\n      pop\n      0x20\n      add\n      swap2\n      pop\n      pop\n      mload(0x40)\n      dup1\n      swap2\n      sub\n      swap1\n      revert\n    tag_122:\n        /* \"us-contracts/UniswapV2Pair.sol\":8655:8656  0 */\n      0x00\n        /* \"us-contracts/UniswapV2Pair.sol\":8642:8652  amount0Out */\n      dup12\n        /* \"us-contracts/UniswapV2Pair.sol\":8642:8656  amount0Out > 0 */\n      gt\n        /* \"us-contracts/UniswapV2Pair.sol\":8638:8696  if (amount0Out > 0) _safeTransfer(_token0, to, amount0Out) */\n      iszero\n      tag_123\n      jumpi\n        /* \"us-contracts/UniswapV2Pair.sol\":8658:8696  _safeTransfer(_token0, to, amount0Out) */\n      tag_124\n        /* \"us-contracts/UniswapV2Pair.sol\":8672:8679  _token0 */\n      dup3\n        /* \"us-contracts/UniswapV2Pair.sol\":8681:8683  to */\n      dup11\n        /* \"us-contracts/UniswapV2Pair.sol\":8685:8695  amount0Out */\n      dup14\n        /* \"us-contracts/UniswapV2Pair.sol\":8658:8671  _safeTransfer */\n      tag_125\n        /* \"us-contracts/UniswapV2Pair.sol\":8658:8696  _safeTransfer(_token0, to, amount0Out) */\n      jump\t// in\n    tag_124:\n        /* \"us-contracts/UniswapV2Pair.sol\":8638:8696  if (amount0Out > 0) _safeTransfer(_token0, to, amount0Out) */\n    tag_123:\n        /* \"us-contracts/UniswapV2Pair.sol\":8761:8762  0 */\n      0x00\n        /* \"us-contracts/UniswapV2Pair.sol\":8748:8758  amount1Out */\n      dup11\n        /* \"us-contracts/UniswapV2Pair.sol\":8748:8762  amount1Out > 0 */\n      gt\n        /* \"us-contracts/UniswapV2Pair.sol\":8744:8802  if (amount1Out > 0) _safeTransfer(_token1, to, amount1Out) */\n      iszero\n      tag_126\n      jumpi\n        /* \"us-contracts/UniswapV2Pair.sol\":8764:8802  _safeTransfer(_token1, to, amount1Out) */\n      tag_127\n        /* \"us-contracts/UniswapV2Pair.sol\":8778:8785  _token1 */\n      dup2\n        /* \"us-contracts/UniswapV2Pair.sol\":8787:8789  to */\n      dup11\n        /* \"us-contracts/UniswapV2Pair.sol\":8791:8801  amount1Out */\n      dup13\n        /* \"us-contracts/UniswapV2Pair.sol\":8764:8777  _safeTransfer */\n      tag_125\n        /* \"us-contracts/UniswapV2Pair.sol\":8764:8802  _safeTransfer(_token1, to, amount1Out) */\n      jump\t// in\n    tag_127:\n        /* \"us-contracts/UniswapV2Pair.sol\":8744:8802  if (amount1Out > 0) _safeTransfer(_token1, to, amount1Out) */\n    tag_126:\n        /* \"us-contracts/UniswapV2Pair.sol\":8868:8869  0 */\n      0x00\n        /* \"us-contracts/UniswapV2Pair.sol\":8854:8858  data */\n      dup9\n      dup9\n        /* \"us-contracts/UniswapV2Pair.sol\":8854:8865  data.length */\n      swap1\n      pop\n        /* \"us-contracts/UniswapV2Pair.sol\":8854:8869  data.length > 0 */\n      gt\n        /* \"us-contracts/UniswapV2Pair.sol\":8850:9061  if (data.length > 0)... */\n      iszero\n      tag_128\n      jumpi\n        /* \"us-contracts/UniswapV2Pair.sol\":8904:8906  to */\n      dup9\n        /* \"us-contracts/UniswapV2Pair.sol\":8887:8921  IUniswapV2Callee(to).uniswapV2Call */\n      0xffffffffffffffffffffffffffffffffffffffff\n      and\n      0x10d1e85c\n        /* \"us-contracts/UniswapV2Pair.sol\":8943:8953  msg.sender */\n      caller\n        /* \"us-contracts/UniswapV2Pair.sol\":8975:8985  amount0Out */\n      dup14\n        /* \"us-contracts/UniswapV2Pair.sol\":9007:9017  amount1Out */\n      dup14\n        /* \"us-contracts/UniswapV2Pair.sol\":9039:9043  data */\n      dup13\n      dup13\n        /* \"us-contracts/UniswapV2Pair.sol\":8887:9061  IUniswapV2Callee(to).uniswapV2Call(... */\n      mload(0x40)\n      dup7\n      0xffffffff\n      and\n      0xe0\n      shl\n      dup2\n      mstore\n      0x04\n      add\n      dup1\n      dup7\n      0xffffffffffffffffffffffffffffffffffffffff\n      and\n      0xffffffffffffffffffffffffffffffffffffffff\n      and\n      dup2\n      mstore\n      0x20\n      add\n      dup6\n      dup2\n      mstore\n      0x20\n      add\n      dup5\n      dup2\n      mstore\n      0x20\n      add\n      dup1\n      0x20\n      add\n      dup3\n      dup2\n      sub\n      dup3\n      mstore\n      dup5\n      dup5\n      dup3\n      dup2\n      dup2\n      mstore\n      0x20\n      add\n      swap3\n      pop\n        /* \"--CODEGEN--\":30:33   */\n      dup1\n        /* \"--CODEGEN--\":22:28   */\n      dup3\n        /* \"--CODEGEN--\":14:20   */\n      dup5\n        /* \"--CODEGEN--\":1:34   */\n      calldatacopy\n        /* \"--CODEGEN--\":99:100   */\n      0x00\n        /* \"--CODEGEN--\":93:96   */\n      dup2\n        /* \"--CODEGEN--\":85:91   */\n      dup5\n        /* \"--CODEGEN--\":81:97   */\n      add\n        /* \"--CODEGEN--\":74:101   */\n      mstore\n        /* \"--CODEGEN--\":137:141   */\n      0x1f\n        /* \"--CODEGEN--\":133:142   */\n      not\n        /* \"--CODEGEN--\":126:130   */\n      0x1f\n        /* \"--CODEGEN--\":121:124   */\n      dup3\n        /* \"--CODEGEN--\":117:131   */\n      add\n        /* \"--CODEGEN--\":113:143   */\n      and\n        /* \"--CODEGEN--\":106:143   */\n      swap1\n      pop\n        /* \"--CODEGEN--\":169:172   */\n      dup1\n        /* \"--CODEGEN--\":161:167   */\n      dup4\n        /* \"--CODEGEN--\":157:173   */\n      add\n        /* \"--CODEGEN--\":147:173   */\n      swap3\n      pop\n        /* \"us-contracts/UniswapV2Pair.sol\":8887:9061  IUniswapV2Callee(to).uniswapV2Call(... */\n      pop\n      pop\n      swap7\n      pop\n      pop\n      pop\n      pop\n      pop\n      pop\n      pop\n      0x00\n      mload(0x40)\n      dup1\n      dup4\n      sub\n      dup2\n      0x00\n      dup8\n      dup1\n      extcodesize\n      iszero\n        /* \"--CODEGEN--\":8:17   */\n      dup1\n        /* \"--CODEGEN--\":5:7   */\n      iszero\n      tag_129\n      jumpi\n        /* \"--CODEGEN--\":30:31   */\n      0x00\n        /* \"--CODEGEN--\":27:28   */\n      dup1\n        /* \"--CODEGEN--\":20:32   */\n      revert\n        /* \"--CODEGEN--\":5:7   */\n    tag_129:\n        /* \"us-contracts/UniswapV2Pair.sol\":8887:9061  IUniswapV2Callee(to).uniswapV2Call(... */\n      pop\n      gas\n      call\n      iszero\n        /* \"--CODEGEN--\":8:17   */\n      dup1\n        /* \"--CODEGEN--\":5:7   */\n      iszero\n      tag_130\n      jumpi\n        /* \"--CODEGEN--\":45:61   */\n      returndatasize\n        /* \"--CODEGEN--\":42:43   */\n      0x00\n        /* \"--CODEGEN--\":39:40   */\n      dup1\n        /* \"--CODEGEN--\":24:62   */\n      returndatacopy\n        /* \"--CODEGEN--\":77:93   */\n      returndatasize\n        /* \"--CODEGEN--\":74:75   */\n      0x00\n        /* \"--CODEGEN--\":67:94   */\n      revert\n        /* \"--CODEGEN--\":5:7   */\n    tag_130:\n        /* \"us-contracts/UniswapV2Pair.sol\":8887:9061  IUniswapV2Callee(to).uniswapV2Call(... */\n      pop\n      pop\n      pop\n      pop\n        /* \"us-contracts/UniswapV2Pair.sol\":8850:9061  if (data.length > 0)... */\n    tag_128:\n        /* \"us-contracts/UniswapV2Pair.sol\":9093:9100  _token0 */\n      dup2\n        /* \"us-contracts/UniswapV2Pair.sol\":9086:9111  IERC20(_token0).balanceOf */\n      0xffffffffffffffffffffffffffffffffffffffff\n      and\n      0x70a08231\n        /* \"us-contracts/UniswapV2Pair.sol\":9120:9124  this */\n      address\n        /* \"us-contracts/UniswapV2Pair.sol\":9086:9126  IERC20(_token0).balanceOf(address(this)) */\n      mload(0x40)\n      dup3\n      0xffffffff\n      and\n      0xe0\n      shl\n      dup2\n      mstore\n      0x04\n      add\n      dup1\n      dup3\n      0xffffffffffffffffffffffffffffffffffffffff\n      and\n      0xffffffffffffffffffffffffffffffffffffffff\n      and\n      dup2\n      mstore\n      0x20\n      add\n      swap2\n      pop\n      pop\n      0x20\n      mload(0x40)\n      dup1\n      dup4\n      sub\n      dup2\n      dup7\n      dup1\n      extcodesize\n      iszero\n        /* \"--CODEGEN--\":8:17   */\n      dup1\n        /* \"--CODEGEN--\":5:7   */\n      iszero\n      tag_131\n      jumpi\n        /* \"--CODEGEN--\":30:31   */\n      0x00\n        /* \"--CODEGEN--\":27:28   */\n      dup1\n        /* \"--CODEGEN--\":20:32   */\n      revert\n        /* \"--CODEGEN--\":5:7   */\n    tag_131:\n        /* \"us-contracts/UniswapV2Pair.sol\":9086:9126  IERC20(_token0).balanceOf(address(this)) */\n      pop\n      gas\n      staticcall\n      iszero\n        /* \"--CODEGEN--\":8:17   */\n      dup1\n        /* \"--CODEGEN--\":5:7   */\n      iszero\n      tag_132\n      jumpi\n        /* \"--CODEGEN--\":45:61   */\n      returndatasize\n        /* \"--CODEGEN--\":42:43   */\n      0x00\n        /* \"--CODEGEN--\":39:40   */\n      dup1\n        /* \"--CODEGEN--\":24:62   */\n      returndatacopy\n        /* \"--CODEGEN--\":77:93   */\n      returndatasize\n        /* \"--CODEGEN--\":74:75   */\n      0x00\n        /* \"--CODEGEN--\":67:94   */\n      revert\n        /* \"--CODEGEN--\":5:7   */\n    tag_132:\n        /* \"us-contracts/UniswapV2Pair.sol\":9086:9126  IERC20(_token0).balanceOf(address(this)) */\n      pop\n      pop\n      pop\n      pop\n      mload(0x40)\n      returndatasize\n        /* \"--CODEGEN--\":13:15   */\n      0x20\n        /* \"--CODEGEN--\":8:11   */\n      dup2\n        /* \"--CODEGEN--\":5:16   */\n      lt\n        /* \"--CODEGEN--\":2:4   */\n      iszero\n      tag_133\n      jumpi\n        /* \"--CODEGEN--\":29:30   */\n      0x00\n        /* \"--CODEGEN--\":26:27   */\n      dup1\n        /* \"--CODEGEN--\":19:31   */\n      revert\n        /* \"--CODEGEN--\":2:4   */\n    tag_133:\n        /* \"us-contracts/UniswapV2Pair.sol\":9086:9126  IERC20(_token0).balanceOf(address(this)) */\n      dup2\n      add\n      swap1\n      dup1\n      dup1\n      mload\n      swap1\n      0x20\n      add\n      swap1\n      swap3\n      swap2\n      swap1\n      pop\n      pop\n      pop\n        /* \"us-contracts/UniswapV2Pair.sol\":9075:9126  balance0 = IERC20(_token0).balanceOf(address(this)) */\n      swap4\n      pop\n        /* \"us-contracts/UniswapV2Pair.sol\":9158:9165  _token1 */\n      dup1\n        /* \"us-contracts/UniswapV2Pair.sol\":9151:9176  IERC20(_token1).balanceOf */\n      0xffffffffffffffffffffffffffffffffffffffff\n      and\n      0x70a08231\n        /* \"us-contracts/UniswapV2Pair.sol\":9185:9189  this */\n      address\n        /* \"us-contracts/UniswapV2Pair.sol\":9151:9191  IERC20(_token1).balanceOf(address(this)) */\n      mload(0x40)\n      dup3\n      0xffffffff\n      and\n      0xe0\n      shl\n      dup2\n      mstore\n      0x04\n      add\n      dup1\n      dup3\n      0xffffffffffffffffffffffffffffffffffffffff\n      and\n      0xffffffffffffffffffffffffffffffffffffffff\n      and\n      dup2\n      mstore\n      0x20\n      add\n      swap2\n      pop\n      pop\n      0x20\n      mload(0x40)\n      dup1\n      dup4\n      sub\n      dup2\n      dup7\n      dup1\n      extcodesize\n      iszero\n        /* \"--CODEGEN--\":8:17   */\n      dup1\n        /* \"--CODEGEN--\":5:7   */\n      iszero\n      tag_134\n      jumpi\n        /* \"--CODEGEN--\":30:31   */\n      0x00\n        /* \"--CODEGEN--\":27:28   */\n      dup1\n        /* \"--CODEGEN--\":20:32   */\n      revert\n        /* \"--CODEGEN--\":5:7   */\n    tag_134:\n        /* \"us-contracts/UniswapV2Pair.sol\":9151:9191  IERC20(_token1).balanceOf(address(this)) */\n      pop\n      gas\n      staticcall\n      iszero\n        /* \"--CODEGEN--\":8:17   */\n      dup1\n        /* \"--CODEGEN--\":5:7   */\n      iszero\n      tag_135\n      jumpi\n        /* \"--CODEGEN--\":45:61   */\n      returndatasize\n        /* \"--CODEGEN--\":42:43   */\n      0x00\n        /* \"--CODEGEN--\":39:40   */\n      dup1\n        /* \"--CODEGEN--\":24:62   */\n      returndatacopy\n        /* \"--CODEGEN--\":77:93   */\n      returndatasize\n        /* \"--CODEGEN--\":74:75   */\n      0x00\n        /* \"--CODEGEN--\":67:94   */\n      revert\n        /* \"--CODEGEN--\":5:7   */\n    tag_135:\n        /* \"us-contracts/UniswapV2Pair.sol\":9151:9191  IERC20(_token1).balanceOf(address(this)) */\n      pop\n      pop\n      pop\n      pop\n      mload(0x40)\n      returndatasize\n        /* \"--CODEGEN--\":13:15   */\n      0x20\n        /* \"--CODEGEN--\":8:11   */\n      dup2\n        /* \"--CODEGEN--\":5:16   */\n      lt\n        /* \"--CODEGEN--\":2:4   */\n      iszero\n      tag_136\n      jumpi\n        /* \"--CODEGEN--\":29:30   */\n      0x00\n        /* \"--CODEGEN--\":26:27   */\n      dup1\n        /* \"--CODEGEN--\":19:31   */\n      revert\n        /* \"--CODEGEN--\":2:4   */\n    tag_136:\n        /* \"us-contracts/UniswapV2Pair.sol\":9151:9191  IERC20(_token1).balanceOf(address(this)) */\n      dup2\n      add\n      swap1\n      dup1\n      dup1\n      mload\n      swap1\n      0x20\n      add\n      swap1\n      swap3\n      swap2\n      swap1\n      pop\n      pop\n      pop\n        /* \"us-contracts/UniswapV2Pair.sol\":9140:9191  balance1 = IERC20(_token1).balanceOf(address(this)) */\n      swap3\n      pop\n        /* \"us-contracts/UniswapV2Pair.sol\":1252:1253  _ */\n      pop\n      pop\n        /* \"us-contracts/UniswapV2Pair.sol\":9211:9228  uint256 amount0In */\n      0x00\n        /* \"us-contracts/UniswapV2Pair.sol\":9254:9264  amount0Out */\n      dup10\n        /* \"us-contracts/UniswapV2Pair.sol\":9242:9251  _reserve0 */\n      dup6\n        /* \"us-contracts/UniswapV2Pair.sol\":9242:9264  _reserve0 - amount0Out */\n      0xffffffffffffffffffffffffffff\n      and\n      sub\n        /* \"us-contracts/UniswapV2Pair.sol\":9231:9239  balance0 */\n      dup4\n        /* \"us-contracts/UniswapV2Pair.sol\":9231:9264  balance0 > _reserve0 - amount0Out */\n      gt\n        /* \"us-contracts/UniswapV2Pair.sol\":9231:9330  balance0 > _reserve0 - amount0Out... */\n      tag_137\n      jumpi\n        /* \"us-contracts/UniswapV2Pair.sol\":9329:9330  0 */\n      0x00\n        /* \"us-contracts/UniswapV2Pair.sol\":9231:9330  balance0 > _reserve0 - amount0Out... */\n      jump(tag_138)\n    tag_137:\n        /* \"us-contracts/UniswapV2Pair.sol\":9303:9313  amount0Out */\n      dup10\n        /* \"us-contracts/UniswapV2Pair.sol\":9291:9300  _reserve0 */\n      dup6\n        /* \"us-contracts/UniswapV2Pair.sol\":9291:9313  _reserve0 - amount0Out */\n      0xffffffffffffffffffffffffffff\n      and\n      sub\n        /* \"us-contracts/UniswapV2Pair.sol\":9279:9287  balance0 */\n      dup4\n        /* \"us-contracts/UniswapV2Pair.sol\":9279:9314  balance0 - (_reserve0 - amount0Out) */\n      sub\n        /* \"us-contracts/UniswapV2Pair.sol\":9231:9330  balance0 > _reserve0 - amount0Out... */\n    tag_138:\n        /* \"us-contracts/UniswapV2Pair.sol\":9211:9330  uint256 amount0In = balance0 > _reserve0 - amount0Out... */\n      swap1\n      pop\n        /* \"us-contracts/UniswapV2Pair.sol\":9340:9357  uint256 amount1In */\n      0x00\n        /* \"us-contracts/UniswapV2Pair.sol\":9383:9393  amount1Out */\n      dup10\n        /* \"us-contracts/UniswapV2Pair.sol\":9371:9380  _reserve1 */\n      dup6\n        /* \"us-contracts/UniswapV2Pair.sol\":9371:9393  _reserve1 - amount1Out */\n      0xffffffffffffffffffffffffffff\n      and\n      sub\n        /* \"us-contracts/UniswapV2Pair.sol\":9360:9368  balance1 */\n      dup4\n        /* \"us-contracts/UniswapV2Pair.sol\":9360:9393  balance1 > _reserve1 - amount1Out */\n      gt\n        /* \"us-contracts/UniswapV2Pair.sol\":9360:9459  balance1 > _reserve1 - amount1Out... */\n      tag_139\n      jumpi\n        /* \"us-contracts/UniswapV2Pair.sol\":9458:9459  0 */\n      0x00\n        /* \"us-contracts/UniswapV2Pair.sol\":9360:9459  balance1 > _reserve1 - amount1Out... */\n      jump(tag_140)\n    tag_139:\n        /* \"us-contracts/UniswapV2Pair.sol\":9432:9442  amount1Out */\n      dup10\n        /* \"us-contracts/UniswapV2Pair.sol\":9420:9429  _reserve1 */\n      dup6\n        /* \"us-contracts/UniswapV2Pair.sol\":9420:9442  _reserve1 - amount1Out */\n      0xffffffffffffffffffffffffffff\n      and\n      sub\n        /* \"us-contracts/UniswapV2Pair.sol\":9408:9416  balance1 */\n      dup4\n        /* \"us-contracts/UniswapV2Pair.sol\":9408:9443  balance1 - (_reserve1 - amount1Out) */\n      sub\n        /* \"us-contracts/UniswapV2Pair.sol\":9360:9459  balance1 > _reserve1 - amount1Out... */\n    tag_140:\n        /* \"us-contracts/UniswapV2Pair.sol\":9340:9459  uint256 amount1In = balance1 > _reserve1 - amount1Out... */\n      swap1\n      pop\n        /* \"us-contracts/UniswapV2Pair.sol\":9502:9503  0 */\n      0x00\n        /* \"us-contracts/UniswapV2Pair.sol\":9490:9499  amount0In */\n      dup3\n        /* \"us-contracts/UniswapV2Pair.sol\":9490:9503  amount0In > 0 */\n      gt\n        /* \"us-contracts/UniswapV2Pair.sol\":9490:9520  amount0In > 0 || amount1In > 0 */\n      dup1\n      tag_141\n      jumpi\n      pop\n        /* \"us-contracts/UniswapV2Pair.sol\":9519:9520  0 */\n      0x00\n        /* \"us-contracts/UniswapV2Pair.sol\":9507:9516  amount1In */\n      dup2\n        /* \"us-contracts/UniswapV2Pair.sol\":9507:9520  amount1In > 0 */\n      gt\n        /* \"us-contracts/UniswapV2Pair.sol\":9490:9520  amount0In > 0 || amount1In > 0 */\n    tag_141:\n        /* \"us-contracts/UniswapV2Pair.sol\":9469:9582  require(... */\n      tag_142\n      jumpi\n      mload(0x40)\n      0x08c379a000000000000000000000000000000000000000000000000000000000\n      dup2\n      mstore\n      0x04\n      add\n      dup1\n      dup1\n      0x20\n      add\n      dup3\n      dup2\n      sub\n      dup3\n      mstore\n      0x24\n      dup2\n      mstore\n      0x20\n      add\n      dup1\n      data_10e2efc32d8a31d3b2c11a545b3ed09c2dbabc58ef6de4033929d0002e425b67\n      0x24\n      swap2\n      codecopy\n      0x40\n      add\n      swap2\n      pop\n      pop\n      mload(0x40)\n      dup1\n      swap2\n      sub\n      swap1\n      revert\n    tag_142:\n        /* \"us-contracts/UniswapV2Pair.sol\":9682:9706  uint256 balance0Adjusted */\n      0x00\n        /* \"us-contracts/UniswapV2Pair.sol\":9709:9749  balance0.mul(1000).sub(amount0In.mul(3)) */\n      tag_143\n        /* \"us-contracts/UniswapV2Pair.sol\":9732:9748  amount0In.mul(3) */\n      tag_144\n        /* \"us-contracts/UniswapV2Pair.sol\":9746:9747  3 */\n      0x03\n        /* \"us-contracts/UniswapV2Pair.sol\":9732:9741  amount0In */\n      dup6\n        /* \"us-contracts/UniswapV2Pair.sol\":9732:9745  amount0In.mul */\n      tag_145\n      swap1\n        /* \"us-contracts/UniswapV2Pair.sol\":9732:9748  amount0In.mul(3) */\n      swap2\n      swap1\n      0xffffffff\n      and\n      jump\t// in\n    tag_144:\n        /* \"us-contracts/UniswapV2Pair.sol\":9709:9727  balance0.mul(1000) */\n      tag_146\n        /* \"us-contracts/UniswapV2Pair.sol\":9722:9726  1000 */\n      0x03e8\n        /* \"us-contracts/UniswapV2Pair.sol\":9709:9717  balance0 */\n      dup9\n        /* \"us-contracts/UniswapV2Pair.sol\":9709:9721  balance0.mul */\n      tag_145\n      swap1\n        /* \"us-contracts/UniswapV2Pair.sol\":9709:9727  balance0.mul(1000) */\n      swap2\n      swap1\n      0xffffffff\n      and\n      jump\t// in\n    tag_146:\n        /* \"us-contracts/UniswapV2Pair.sol\":9709:9731  balance0.mul(1000).sub */\n      tag_147\n      swap1\n        /* \"us-contracts/UniswapV2Pair.sol\":9709:9749  balance0.mul(1000).sub(amount0In.mul(3)) */\n      swap2\n      swap1\n      0xffffffff\n      and\n      jump\t// in\n    tag_143:\n        /* \"us-contracts/UniswapV2Pair.sol\":9682:9749  uint256 balance0Adjusted = balance0.mul(1000).sub(amount0In.mul(3)) */\n      swap1\n      pop\n        /* \"us-contracts/UniswapV2Pair.sol\":9763:9787  uint256 balance1Adjusted */\n      0x00\n        /* \"us-contracts/UniswapV2Pair.sol\":9790:9830  balance1.mul(1000).sub(amount1In.mul(3)) */\n      tag_148\n        /* \"us-contracts/UniswapV2Pair.sol\":9813:9829  amount1In.mul(3) */\n      tag_149\n        /* \"us-contracts/UniswapV2Pair.sol\":9827:9828  3 */\n      0x03\n        /* \"us-contracts/UniswapV2Pair.sol\":9813:9822  amount1In */\n      dup6\n        /* \"us-contracts/UniswapV2Pair.sol\":9813:9826  amount1In.mul */\n      tag_145\n      swap1\n        /* \"us-contracts/UniswapV2Pair.sol\":9813:9829  amount1In.mul(3) */\n      swap2\n      swap1\n      0xffffffff\n      and\n      jump\t// in\n    tag_149:\n        /* \"us-contracts/UniswapV2Pair.sol\":9790:9808  balance1.mul(1000) */\n      tag_150\n        /* \"us-contracts/UniswapV2Pair.sol\":9803:9807  1000 */\n      0x03e8\n        /* \"us-contracts/UniswapV2Pair.sol\":9790:9798  balance1 */\n      dup9\n        /* \"us-contracts/UniswapV2Pair.sol\":9790:9802  balance1.mul */\n      tag_145\n      swap1\n        /* \"us-contracts/UniswapV2Pair.sol\":9790:9808  balance1.mul(1000) */\n      swap2\n      swap1\n      0xffffffff\n      and\n      jump\t// in\n    tag_150:\n        /* \"us-contracts/UniswapV2Pair.sol\":9790:9812  balance1.mul(1000).sub */\n      tag_147\n      swap1\n        /* \"us-contracts/UniswapV2Pair.sol\":9790:9830  balance1.mul(1000).sub(amount1In.mul(3)) */\n      swap2\n      swap1\n      0xffffffff\n      and\n      jump\t// in\n    tag_148:\n        /* \"us-contracts/UniswapV2Pair.sol\":9763:9830  uint256 balance1Adjusted = balance1.mul(1000).sub(amount1In.mul(3)) */\n      swap1\n      pop\n        /* \"us-contracts/UniswapV2Pair.sol\":9931:9977  uint256(_reserve0).mul(_reserve1).mul(1000**2) */\n      tag_151\n        /* \"us-contracts/UniswapV2Pair.sol\":9969:9976  1000**2 */\n      0x0f4240\n        /* \"us-contracts/UniswapV2Pair.sol\":9931:9964  uint256(_reserve0).mul(_reserve1) */\n      tag_152\n        /* \"us-contracts/UniswapV2Pair.sol\":9954:9963  _reserve1 */\n      dup10\n        /* \"us-contracts/UniswapV2Pair.sol\":9931:9964  uint256(_reserve0).mul(_reserve1) */\n      0xffffffffffffffffffffffffffff\n      and\n        /* \"us-contracts/UniswapV2Pair.sol\":9939:9948  _reserve0 */\n      dup12\n        /* \"us-contracts/UniswapV2Pair.sol\":9931:9949  uint256(_reserve0) */\n      0xffffffffffffffffffffffffffff\n      and\n        /* \"us-contracts/UniswapV2Pair.sol\":9931:9953  uint256(_reserve0).mul */\n      tag_145\n      swap1\n        /* \"us-contracts/UniswapV2Pair.sol\":9931:9964  uint256(_reserve0).mul(_reserve1) */\n      swap2\n      swap1\n      0xffffffff\n      and\n      jump\t// in\n    tag_152:\n        /* \"us-contracts/UniswapV2Pair.sol\":9931:9968  uint256(_reserve0).mul(_reserve1).mul */\n      tag_145\n      swap1\n        /* \"us-contracts/UniswapV2Pair.sol\":9931:9977  uint256(_reserve0).mul(_reserve1).mul(1000**2) */\n      swap2\n      swap1\n      0xffffffff\n      and\n      jump\t// in\n    tag_151:\n        /* \"us-contracts/UniswapV2Pair.sol\":9869:9907  balance0Adjusted.mul(balance1Adjusted) */\n      tag_153\n        /* \"us-contracts/UniswapV2Pair.sol\":9890:9906  balance1Adjusted */\n      dup3\n        /* \"us-contracts/UniswapV2Pair.sol\":9869:9885  balance0Adjusted */\n      dup5\n        /* \"us-contracts/UniswapV2Pair.sol\":9869:9889  balance0Adjusted.mul */\n      tag_145\n      swap1\n        /* \"us-contracts/UniswapV2Pair.sol\":9869:9907  balance0Adjusted.mul(balance1Adjusted) */\n      swap2\n      swap1\n      0xffffffff\n      and\n      jump\t// in\n    tag_153:\n        /* \"us-contracts/UniswapV2Pair.sol\":9869:9977  balance0Adjusted.mul(balance1Adjusted) >=... */\n      lt\n      iszero\n        /* \"us-contracts/UniswapV2Pair.sol\":9844:10023  require(... */\n      tag_154\n      jumpi\n      mload(0x40)\n      0x08c379a000000000000000000000000000000000000000000000000000000000\n      dup2\n      mstore\n      0x04\n      add\n      dup1\n      dup1\n      0x20\n      add\n      dup3\n      dup2\n      sub\n      dup3\n      mstore\n      0x0c\n      dup2\n      mstore\n      0x20\n      add\n      dup1\n      0x556e697377617056323a204b0000000000000000000000000000000000000000\n      dup2\n      mstore\n      pop\n      0x20\n      add\n      swap2\n      pop\n      pop\n      mload(0x40)\n      dup1\n      swap2\n      sub\n      swap1\n      revert\n    tag_154:\n        /* \"us-contracts/UniswapV2Pair.sol\":1252:1253  _ */\n      pop\n      pop\n        /* \"us-contracts/UniswapV2Pair.sol\":10044:10093  _update(balance0, balance1, _reserve0, _reserve1) */\n      tag_155\n        /* \"us-contracts/UniswapV2Pair.sol\":10052:10060  balance0 */\n      dup5\n        /* \"us-contracts/UniswapV2Pair.sol\":10062:10070  balance1 */\n      dup5\n        /* \"us-contracts/UniswapV2Pair.sol\":10072:10081  _reserve0 */\n      dup9\n        /* \"us-contracts/UniswapV2Pair.sol\":10083:10092  _reserve1 */\n      dup9\n        /* \"us-contracts/UniswapV2Pair.sol\":10044:10051  _update */\n      tag_156\n        /* \"us-contracts/UniswapV2Pair.sol\":10044:10093  _update(balance0, balance1, _reserve0, _reserve1) */\n      jump\t// in\n    tag_155:\n        /* \"us-contracts/UniswapV2Pair.sol\":10171:10173  to */\n      dup9\n        /* \"us-contracts/UniswapV2Pair.sol\":10108:10174  Swap(msg.sender, amount0In, amount1In, amount0Out, amount1Out, to) */\n      0xffffffffffffffffffffffffffffffffffffffff\n      and\n        /* \"us-contracts/UniswapV2Pair.sol\":10113:10123  msg.sender */\n      caller\n        /* \"us-contracts/UniswapV2Pair.sol\":10108:10174  Swap(msg.sender, amount0In, amount1In, amount0Out, amount1Out, to) */\n      0xffffffffffffffffffffffffffffffffffffffff\n      and\n      0xd78ad95fa46c994b6551d0da85fc275fe613ce37657fb8d5e3d130840159d822\n        /* \"us-contracts/UniswapV2Pair.sol\":10125:10134  amount0In */\n      dup5\n        /* \"us-contracts/UniswapV2Pair.sol\":10136:10145  amount1In */\n      dup5\n        /* \"us-contracts/UniswapV2Pair.sol\":10147:10157  amount0Out */\n      dup16\n        /* \"us-contracts/UniswapV2Pair.sol\":10159:10169  amount1Out */\n      dup16\n        /* \"us-contracts/UniswapV2Pair.sol\":10108:10174  Swap(msg.sender, amount0In, amount1In, amount0Out, amount1Out, to) */\n      mload(0x40)\n      dup1\n      dup6\n      dup2\n      mstore\n      0x20\n      add\n      dup5\n      dup2\n      mstore\n      0x20\n      add\n      dup4\n      dup2\n      mstore\n      0x20\n      add\n      dup3\n      dup2\n      mstore\n      0x20\n      add\n      swap5\n      pop\n      pop\n      pop\n      pop\n      pop\n      mload(0x40)\n      dup1\n      swap2\n      sub\n      swap1\n      log3\n        /* \"us-contracts/UniswapV2Pair.sol\":1252:1253  _ */\n      pop\n      pop\n      pop\n      pop\n      pop\n      pop\n        /* \"us-contracts/UniswapV2Pair.sol\":1274:1275  1 */\n      0x01\n        /* \"us-contracts/UniswapV2Pair.sol\":1263:1271  unlocked */\n      0x0c\n        /* \"us-contracts/UniswapV2Pair.sol\":1263:1275  unlocked = 1 */\n      dup2\n      swap1\n      sstore\n      pop\n        /* \"us-contracts/UniswapV2Pair.sol\":7856:10181  function swap(... */\n      pop\n      pop\n      pop\n      pop\n      pop\n      jump\t// out\n        /* \"us-contracts/UniswapV2ERC20.sol\":184:226  string public constant name = 'Uniswap V2' */\n    tag_43:\n      mload(0x40)\n      dup1\n      0x40\n      add\n      0x40\n      mstore\n      dup1\n      0x0a\n      dup2\n      mstore\n      0x20\n      add\n      0x556e697377617020563200000000000000000000000000000000000000000000\n      dup2\n      mstore\n      pop\n      dup2\n      jump\t// out\n        /* \"us-contracts/UniswapV2Pair.sol\":1288:1589  function getReserves()... */\n    tag_49:\n        /* \"us-contracts/UniswapV2Pair.sol\":1369:1386  uint112 _reserve0 */\n      0x00\n        /* \"us-contracts/UniswapV2Pair.sol\":1400:1417  uint112 _reserve1 */\n      dup1\n        /* \"us-contracts/UniswapV2Pair.sol\":1431:1457  uint32 _blockTimestampLast */\n      0x00\n        /* \"us-contracts/UniswapV2Pair.sol\":1494:1502  reserve0 */\n      0x08\n      0x00\n      swap1\n      sload\n      swap1\n      0x0100\n      exp\n      swap1\n      div\n      0xffffffffffffffffffffffffffff\n      and\n        /* \"us-contracts/UniswapV2Pair.sol\":1482:1502  _reserve0 = reserve0 */\n      swap3\n      pop\n        /* \"us-contracts/UniswapV2Pair.sol\":1524:1532  reserve1 */\n      0x08\n      0x0e\n      swap1\n      sload\n      swap1\n      0x0100\n      exp\n      swap1\n      div\n      0xffffffffffffffffffffffffffff\n      and\n        /* \"us-contracts/UniswapV2Pair.sol\":1512:1532  _reserve1 = reserve1 */\n      swap2\n      pop\n        /* \"us-contracts/UniswapV2Pair.sol\":1564:1582  blockTimestampLast */\n      0x08\n      0x1c\n      swap1\n      sload\n      swap1\n      0x0100\n      exp\n      swap1\n      div\n      0xffffffff\n      and\n        /* \"us-contracts/UniswapV2Pair.sol\":1542:1582  _blockTimestampLast = blockTimestampLast */\n      swap1\n      pop\n        /* \"us-contracts/UniswapV2Pair.sol\":1288:1589  function getReserves()... */\n      swap1\n      swap2\n      swap3\n      jump\t// out\n        /* \"us-contracts/UniswapV2ERC20.sol\":2177:2321  function approve(address spender, uint value) external returns (bool) {... */\n    tag_52:\n        /* \"us-contracts/UniswapV2ERC20.sol\":2241:2245  bool */\n      0x00\n        /* \"us-contracts/UniswapV2ERC20.sol\":2257:2293  _approve(msg.sender, spender, value) */\n      tag_159\n        /* \"us-contracts/UniswapV2ERC20.sol\":2266:2276  msg.sender */\n      caller\n        /* \"us-contracts/UniswapV2ERC20.sol\":2278:2285  spender */\n      dup5\n        /* \"us-contracts/UniswapV2ERC20.sol\":2287:2292  value */\n      dup5\n        /* \"us-contracts/UniswapV2ERC20.sol\":2257:2265  _approve */\n      tag_160\n        /* \"us-contracts/UniswapV2ERC20.sol\":2257:2293  _approve(msg.sender, spender, value) */\n      jump\t// in\n    tag_159:\n        /* \"us-contracts/UniswapV2ERC20.sol\":2310:2314  true */\n      0x01\n        /* \"us-contracts/UniswapV2ERC20.sol\":2303:2314  return true */\n      swap1\n      pop\n        /* \"us-contracts/UniswapV2ERC20.sol\":2177:2321  function approve(address spender, uint value) external returns (bool) {... */\n      swap3\n      swap2\n      pop\n      pop\n      jump\t// out\n        /* \"us-contracts/UniswapV2Pair.sol\":605:626  address public token0 */\n    tag_54:\n      0x06\n      0x00\n      swap1\n      sload\n      swap1\n      0x0100\n      exp\n      swap1\n      div\n      0xffffffffffffffffffffffffffffffffffffffff\n      and\n      dup2\n      jump\t// out\n        /* \"us-contracts/UniswapV2ERC20.sol\":319:343  uint  public totalSupply */\n    tag_56:\n      sload(0x00)\n      dup2\n      jump\t// out\n        /* \"us-contracts/UniswapV2ERC20.sol\":2469:2764  function transferFrom(address from, address to, uint value) external returns (bool) {... */\n    tag_59:\n        /* \"us-contracts/UniswapV2ERC20.sol\":2547:2551  bool */\n      0x00\n        /* \"us-contracts/UniswapV2ERC20.sol\":2603:2605  -1 */\n      0xffffffffffffffffffffffffffffffffffffffffffffffffffffffffffffffff\n        /* \"us-contracts/UniswapV2ERC20.sol\":2567:2576  allowance */\n      0x02\n        /* \"us-contracts/UniswapV2ERC20.sol\":2567:2582  allowance[from] */\n      0x00\n        /* \"us-contracts/UniswapV2ERC20.sol\":2577:2581  from */\n      dup7\n        /* \"us-contracts/UniswapV2ERC20.sol\":2567:2582  allowance[from] */\n      0xffffffffffffffffffffffffffffffffffffffff\n      and\n      0xffffffffffffffffffffffffffffffffffffffff\n      and\n      dup2\n      mstore\n      0x20\n      add\n      swap1\n      dup2\n      mstore\n      0x20\n      add\n      0x00\n      keccak256\n        /* \"us-contracts/UniswapV2ERC20.sol\":2567:2594  allowance[from][msg.sender] */\n      0x00\n        /* \"us-contracts/UniswapV2ERC20.sol\":2583:2593  msg.sender */\n      caller\n        /* \"us-contracts/UniswapV2ERC20.sol\":2567:2594  allowance[from][msg.sender] */\n      0xffffffffffffffffffffffffffffffffffffffff\n      and\n      0xffffffffffffffffffffffffffffffffffffffff\n      and\n      dup2\n      mstore\n      0x20\n      add\n      swap1\n      dup2\n      mstore\n      0x20\n      add\n      0x00\n      keccak256\n      sload\n        /* \"us-contracts/UniswapV2ERC20.sol\":2567:2606  allowance[from][msg.sender] != uint(-1) */\n      eq\n        /* \"us-contracts/UniswapV2ERC20.sol\":2563:2701  if (allowance[from][msg.sender] != uint(-1)) {... */\n      tag_162\n      jumpi\n        /* \"us-contracts/UniswapV2ERC20.sol\":2652:2690  allowance[from][msg.sender].sub(value) */\n      tag_163\n        /* \"us-contracts/UniswapV2ERC20.sol\":2684:2689  value */\n      dup3\n        /* \"us-contracts/UniswapV2ERC20.sol\":2652:2661  allowance */\n      0x02\n        /* \"us-contracts/UniswapV2ERC20.sol\":2652:2667  allowance[from] */\n      0x00\n        /* \"us-contracts/UniswapV2ERC20.sol\":2662:2666  from */\n      dup8\n        /* \"us-contracts/UniswapV2ERC20.sol\":2652:2667  allowance[from] */\n      0xffffffffffffffffffffffffffffffffffffffff\n      and\n      0xffffffffffffffffffffffffffffffffffffffff\n      and\n      dup2\n      mstore\n      0x20\n      add\n      swap1\n      dup2\n      mstore\n      0x20\n      add\n      0x00\n      keccak256\n        /* \"us-contracts/UniswapV2ERC20.sol\":2652:2679  allowance[from][msg.sender] */\n      0x00\n        /* \"us-contracts/UniswapV2ERC20.sol\":2668:2678  msg.sender */\n      caller\n        /* \"us-contracts/UniswapV2ERC20.sol\":2652:2679  allowance[from][msg.sender] */\n      0xffffffffffffffffffffffffffffffffffffffff\n      and\n      0xffffffffffffffffffffffffffffffffffffffff\n      and\n      dup2\n      mstore\n      0x20\n      add\n      swap1\n      dup2\n      mstore\n      0x20\n      add\n      0x00\n      keccak256\n      sload\n        /* \"us-contracts/UniswapV2ERC20.sol\":2652:2683  allowance[from][msg.sender].sub */\n      tag_147\n      swap1\n        /* \"us-contracts/UniswapV2ERC20.sol\":2652:2690  allowance[from][msg.sender].sub(value) */\n      swap2\n      swap1\n      0xffffffff\n      and\n      jump\t// in\n    tag_163:\n        /* \"us-contracts/UniswapV2ERC20.sol\":2622:2631  allowance */\n      0x02\n        /* \"us-contracts/UniswapV2ERC20.sol\":2622:2637  allowance[from] */\n      0x00\n        /* \"us-contracts/UniswapV2ERC20.sol\":2632:2636  from */\n      dup7\n        /* \"us-contracts/UniswapV2ERC20.sol\":2622:2637  allowance[from] */\n      0xffffffffffffffffffffffffffffffffffffffff\n      and\n      0xffffffffffffffffffffffffffffffffffffffff\n      and\n      dup2\n      mstore\n      0x20\n      add\n      swap1\n      dup2\n      mstore\n      0x20\n      add\n      0x00\n      keccak256\n        /* \"us-contracts/UniswapV2ERC20.sol\":2622:2649  allowance[from][msg.sender] */\n      0x00\n        /* \"us-contracts/UniswapV2ERC20.sol\":2638:2648  msg.sender */\n      caller\n        /* \"us-contracts/UniswapV2ERC20.sol\":2622:2649  allowance[from][msg.sender] */\n      0xffffffffffffffffffffffffffffffffffffffff\n      and\n      0xffffffffffffffffffffffffffffffffffffffff\n      and\n      dup2\n      mstore\n      0x20\n      add\n      swap1\n      dup2\n      mstore\n      0x20\n      add\n      0x00\n      keccak256\n        /* \"us-contracts/UniswapV2ERC20.sol\":2622:2690  allowance[from][msg.sender] = allowance[from][msg.sender].sub(value) */\n      dup2\n      swap1\n      sstore\n      pop\n        /* \"us-contracts/UniswapV2ERC20.sol\":2563:2701  if (allowance[from][msg.sender] != uint(-1)) {... */\n    tag_162:\n        /* \"us-contracts/UniswapV2ERC20.sol\":2710:2736  _transfer(from, to, value) */\n      tag_164\n        /* \"us-contracts/UniswapV2ERC20.sol\":2720:2724  from */\n      dup5\n        /* \"us-contracts/UniswapV2ERC20.sol\":2726:2728  to */\n      dup5\n        /* \"us-contracts/UniswapV2ERC20.sol\":2730:2735  value */\n      dup5\n        /* \"us-contracts/UniswapV2ERC20.sol\":2710:2719  _transfer */\n      tag_165\n        /* \"us-contracts/UniswapV2ERC20.sol\":2710:2736  _transfer(from, to, value) */\n      jump\t// in\n    tag_164:\n        /* \"us-contracts/UniswapV2ERC20.sol\":2753:2757  true */\n      0x01\n        /* \"us-contracts/UniswapV2ERC20.sol\":2746:2757  return true */\n      swap1\n      pop\n        /* \"us-contracts/UniswapV2ERC20.sol\":2469:2764  function transferFrom(address from, address to, uint value) external returns (bool) {... */\n      swap4\n      swap3\n      pop\n      pop\n      pop\n      jump\t// out\n        /* \"us-contracts/UniswapV2ERC20.sol\":605:713  bytes32 public constant PERMIT_TYPEHASH = 0x6e71edae12b1b97f4d1f60370fef10105fa2faae0126114a169c64845d6126c9 */\n    tag_61:\n        /* \"us-contracts/UniswapV2ERC20.sol\":647:713  0x6e71edae12b1b97f4d1f60370fef10105fa2faae0126114a169c64845d6126c9 */\n      0x6e71edae12b1b97f4d1f60370fef10105fa2faae0126114a169c64845d6126c9\n        /* \"us-contracts/UniswapV2ERC20.sol\":605:713  bytes32 public constant PERMIT_TYPEHASH = 0x6e71edae12b1b97f4d1f60370fef10105fa2faae0126114a169c64845d6126c9 */\n      0x00\n      shl\n      dup2\n      jump\t// out\n        /* \"us-contracts/UniswapV2ERC20.sol\":278:313  uint8 public constant decimals = 18 */\n    tag_63:\n        /* \"us-contracts/UniswapV2ERC20.sol\":311:313  18 */\n      0x12\n        /* \"us-contracts/UniswapV2ERC20.sol\":278:313  uint8 public constant decimals = 18 */\n      dup2\n      jump\t// out\n        /* \"us-contracts/UniswapV2ERC20.sol\":464:495  bytes32 public DOMAIN_SEPARATOR */\n    tag_65:\n      sload(0x03)\n      dup2\n      jump\t// out\n        /* \"us-contracts/UniswapV2Pair.sol\":2545:2751  function initialize(address _token0, address _token1) external {... */\n    tag_68:\n        /* \"us-contracts/UniswapV2Pair.sol\":2640:2647  factory */\n      0x05\n      0x00\n      swap1\n      sload\n      swap1\n      0x0100\n      exp\n      swap1\n      div\n      0xffffffffffffffffffffffffffffffffffffffff\n      and\n        /* \"us-contracts/UniswapV2Pair.sol\":2626:2647  msg.sender == factory */\n      0xffffffffffffffffffffffffffffffffffffffff\n      and\n        /* \"us-contracts/UniswapV2Pair.sol\":2626:2636  msg.sender */\n      caller\n        /* \"us-contracts/UniswapV2Pair.sol\":2626:2647  msg.sender == factory */\n      0xffffffffffffffffffffffffffffffffffffffff\n      and\n      eq\n        /* \"us-contracts/UniswapV2Pair.sol\":2618:2672  require(msg.sender == factory, \"UniswapV2: FORBIDDEN\") */\n      tag_167\n      jumpi\n      mload(0x40)\n      0x08c379a000000000000000000000000000000000000000000000000000000000\n      dup2\n      mstore\n      0x04\n      add\n      dup1\n      dup1\n      0x20\n      add\n      dup3\n      dup2\n      sub\n      dup3\n      mstore\n      0x14\n      dup2\n      mstore\n      0x20\n      add\n      dup1\n      0x556e697377617056323a20464f5242494444454e000000000000000000000000\n      dup2\n      mstore\n      pop\n      0x20\n      add\n      swap2\n      pop\n      pop\n      mload(0x40)\n      dup1\n      swap2\n      sub\n      swap1\n      revert\n    tag_167:\n        /* \"us-contracts/UniswapV2Pair.sol\":2711:2718  _token0 */\n      dup2\n        /* \"us-contracts/UniswapV2Pair.sol\":2702:2708  token0 */\n      0x06\n      0x00\n        /* \"us-contracts/UniswapV2Pair.sol\":2702:2718  token0 = _token0 */\n      0x0100\n      exp\n      dup2\n      sload\n      dup2\n      0xffffffffffffffffffffffffffffffffffffffff\n      mul\n      not\n      and\n      swap1\n      dup4\n      0xffffffffffffffffffffffffffffffffffffffff\n      and\n      mul\n      or\n      swap1\n      sstore\n      pop\n        /* \"us-contracts/UniswapV2Pair.sol\":2737:2744  _token1 */\n      dup1\n        /* \"us-contracts/UniswapV2Pair.sol\":2728:2734  token1 */\n      0x07\n      0x00\n        /* \"us-contracts/UniswapV2Pair.sol\":2728:2744  token1 = _token1 */\n      0x0100\n      exp\n      dup2\n      sload\n      dup2\n      0xffffffffffffffffffffffffffffffffffffffff\n      mul\n      not\n      and\n      swap1\n      dup4\n      0xffffffffffffffffffffffffffffffffffffffff\n      and\n      mul\n      or\n      swap1\n      sstore\n      pop\n        /* \"us-contracts/UniswapV2Pair.sol\":2545:2751  function initialize(address _token0, address _token1) external {... */\n      pop\n      pop\n      jump\t// out\n        /* \"us-contracts/UniswapV2Pair.sol\":928:963  uint256 public price0CumulativeLast */\n    tag_70:\n      sload(0x09)\n      dup2\n      jump\t// out\n        /* \"us-contracts/UniswapV2Pair.sol\":969:1004  uint256 public price1CumulativeLast */\n    tag_72:\n      sload(0x0a)\n      dup2\n      jump\t// out\n        /* \"us-contracts/UniswapV2Pair.sol\":4884:6172  function mint(address to) external lock returns (uint256 liquidity) {... */\n    tag_75:\n        /* \"us-contracts/UniswapV2Pair.sol\":4933:4950  uint256 liquidity */\n      0x00\n        /* \"us-contracts/UniswapV2Pair.sol\":1197:1198  1 */\n      0x01\n        /* \"us-contracts/UniswapV2Pair.sol\":1185:1193  unlocked */\n      sload(0x0c)\n        /* \"us-contracts/UniswapV2Pair.sol\":1185:1198  unlocked == 1 */\n      eq\n        /* \"us-contracts/UniswapV2Pair.sol\":1177:1220  require(unlocked == 1, \"UniswapV2: LOCKED\") */\n      tag_169\n      jumpi\n      mload(0x40)\n      0x08c379a000000000000000000000000000000000000000000000000000000000\n      dup2\n      mstore\n      0x04\n      add\n      dup1\n      dup1\n      0x20\n      add\n      dup3\n      dup2\n      sub\n      dup3\n      mstore\n      0x11\n      dup2\n      mstore\n      0x20\n      add\n      dup1\n      0x556e697377617056323a204c4f434b4544000000000000000000000000000000\n      dup2\n      mstore\n      pop\n      0x20\n      add\n      swap2\n      pop\n      pop\n      mload(0x40)\n      dup1\n      swap2\n      sub\n      swap1\n      revert\n    tag_169:\n        /* \"us-contracts/UniswapV2Pair.sol\":1241:1242  0 */\n      0x00\n        /* \"us-contracts/UniswapV2Pair.sol\":1230:1238  unlocked */\n      0x0c\n        /* \"us-contracts/UniswapV2Pair.sol\":1230:1242  unlocked = 0 */\n      dup2\n      swap1\n      sstore\n      pop\n        /* \"us-contracts/UniswapV2Pair.sol\":4963:4980  uint112 _reserve0 */\n      0x00\n        /* \"us-contracts/UniswapV2Pair.sol\":4982:4999  uint112 _reserve1 */\n      dup1\n        /* \"us-contracts/UniswapV2Pair.sol\":5005:5018  getReserves() */\n      tag_171\n        /* \"us-contracts/UniswapV2Pair.sol\":5005:5016  getReserves */\n      tag_49\n        /* \"us-contracts/UniswapV2Pair.sol\":5005:5018  getReserves() */\n      jump\t// in\n    tag_171:\n        /* \"us-contracts/UniswapV2Pair.sol\":4962:5018  (uint112 _reserve0, uint112 _reserve1, ) = getReserves() */\n      pop\n      swap2\n      pop\n      swap2\n      pop\n        /* \"us-contracts/UniswapV2Pair.sol\":5043:5059  uint256 balance0 */\n      0x00\n        /* \"us-contracts/UniswapV2Pair.sol\":5069:5075  token0 */\n      0x06\n      0x00\n      swap1\n      sload\n      swap1\n      0x0100\n      exp\n      swap1\n      div\n      0xffffffffffffffffffffffffffffffffffffffff\n      and\n        /* \"us-contracts/UniswapV2Pair.sol\":5062:5086  IERC20(token0).balanceOf */\n      0xffffffffffffffffffffffffffffffffffffffff\n      and\n      0x70a08231\n        /* \"us-contracts/UniswapV2Pair.sol\":5095:5099  this */\n      address\n        /* \"us-contracts/UniswapV2Pair.sol\":5062:5101  IERC20(token0).balanceOf(address(this)) */\n      mload(0x40)\n      dup3\n      0xffffffff\n      and\n      0xe0\n      shl\n      dup2\n      mstore\n      0x04\n      add\n      dup1\n      dup3\n      0xffffffffffffffffffffffffffffffffffffffff\n      and\n      0xffffffffffffffffffffffffffffffffffffffff\n      and\n      dup2\n      mstore\n      0x20\n      add\n      swap2\n      pop\n      pop\n      0x20\n      mload(0x40)\n      dup1\n      dup4\n      sub\n      dup2\n      dup7\n      dup1\n      extcodesize\n      iszero\n        /* \"--CODEGEN--\":8:17   */\n      dup1\n        /* \"--CODEGEN--\":5:7   */\n      iszero\n      tag_172\n      jumpi\n        /* \"--CODEGEN--\":30:31   */\n      0x00\n        /* \"--CODEGEN--\":27:28   */\n      dup1\n        /* \"--CODEGEN--\":20:32   */\n      revert\n        /* \"--CODEGEN--\":5:7   */\n    tag_172:\n        /* \"us-contracts/UniswapV2Pair.sol\":5062:5101  IERC20(token0).balanceOf(address(this)) */\n      pop\n      gas\n      staticcall\n      iszero\n        /* \"--CODEGEN--\":8:17   */\n      dup1\n        /* \"--CODEGEN--\":5:7   */\n      iszero\n      tag_173\n      jumpi\n        /* \"--CODEGEN--\":45:61   */\n      returndatasize\n        /* \"--CODEGEN--\":42:43   */\n      0x00\n        /* \"--CODEGEN--\":39:40   */\n      dup1\n        /* \"--CODEGEN--\":24:62   */\n      returndatacopy\n        /* \"--CODEGEN--\":77:93   */\n      returndatasize\n        /* \"--CODEGEN--\":74:75   */\n      0x00\n        /* \"--CODEGEN--\":67:94   */\n      revert\n        /* \"--CODEGEN--\":5:7   */\n    tag_173:\n        /* \"us-contracts/UniswapV2Pair.sol\":5062:5101  IERC20(token0).balanceOf(address(this)) */\n      pop\n      pop\n      pop\n      pop\n      mload(0x40)\n      returndatasize\n        /* \"--CODEGEN--\":13:15   */\n      0x20\n        /* \"--CODEGEN--\":8:11   */\n      dup2\n        /* \"--CODEGEN--\":5:16   */\n      lt\n        /* \"--CODEGEN--\":2:4   */\n      iszero\n      tag_174\n      jumpi\n        /* \"--CODEGEN--\":29:30   */\n      0x00\n        /* \"--CODEGEN--\":26:27   */\n      dup1\n        /* \"--CODEGEN--\":19:31   */\n      revert\n        /* \"--CODEGEN--\":2:4   */\n    tag_174:\n        /* \"us-contracts/UniswapV2Pair.sol\":5062:5101  IERC20(token0).balanceOf(address(this)) */\n      dup2\n      add\n      swap1\n      dup1\n      dup1\n      mload\n      swap1\n      0x20\n      add\n      swap1\n      swap3\n      swap2\n      swap1\n      pop\n      pop\n      pop\n        /* \"us-contracts/UniswapV2Pair.sol\":5043:5101  uint256 balance0 = IERC20(token0).balanceOf(address(this)) */\n      swap1\n      pop\n        /* \"us-contracts/UniswapV2Pair.sol\":5111:5127  uint256 balance1 */\n      0x00\n        /* \"us-contracts/UniswapV2Pair.sol\":5137:5143  token1 */\n      0x07\n      0x00\n      swap1\n      sload\n      swap1\n      0x0100\n      exp\n      swap1\n      div\n      0xffffffffffffffffffffffffffffffffffffffff\n      and\n        /* \"us-contracts/UniswapV2Pair.sol\":5130:5154  IERC20(token1).balanceOf */\n      0xffffffffffffffffffffffffffffffffffffffff\n      and\n      0x70a08231\n        /* \"us-contracts/UniswapV2Pair.sol\":5163:5167  this */\n      address\n        /* \"us-contracts/UniswapV2Pair.sol\":5130:5169  IERC20(token1).balanceOf(address(this)) */\n      mload(0x40)\n      dup3\n      0xffffffff\n      and\n      0xe0\n      shl\n      dup2\n      mstore\n      0x04\n      add\n      dup1\n      dup3\n      0xffffffffffffffffffffffffffffffffffffffff\n      and\n      0xffffffffffffffffffffffffffffffffffffffff\n      and\n      dup2\n      mstore\n      0x20\n      add\n      swap2\n      pop\n      pop\n      0x20\n      mload(0x40)\n      dup1\n      dup4\n      sub\n      dup2\n      dup7\n      dup1\n      extcodesize\n      iszero\n        /* \"--CODEGEN--\":8:17   */\n      dup1\n        /* \"--CODEGEN--\":5:7   */\n      iszero\n      tag_175\n      jumpi\n        /* \"--CODEGEN--\":30:31   */\n      0x00\n        /* \"--CODEGEN--\":27:28   */\n      dup1\n        /* \"--CODEGEN--\":20:32   */\n      revert\n        /* \"--CODEGEN--\":5:7   */\n    tag_175:\n        /* \"us-contracts/UniswapV2Pair.sol\":5130:5169  IERC20(token1).balanceOf(address(this)) */\n      pop\n      gas\n      staticcall\n      iszero\n        /* \"--CODEGEN--\":8:17   */\n      dup1\n        /* \"--CODEGEN--\":5:7   */\n      iszero\n      tag_176\n      jumpi\n        /* \"--CODEGEN--\":45:61   */\n      returndatasize\n        /* \"--CODEGEN--\":42:43   */\n      0x00\n        /* \"--CODEGEN--\":39:40   */\n      dup1\n        /* \"--CODEGEN--\":24:62   */\n      returndatacopy\n        /* \"--CODEGEN--\":77:93   */\n      returndatasize\n        /* \"--CODEGEN--\":74:75   */\n      0x00\n        /* \"--CODEGEN--\":67:94   */\n      revert\n        /* \"--CODEGEN--\":5:7   */\n    tag_176:\n        /* \"us-contracts/UniswapV2Pair.sol\":5130:5169  IERC20(token1).balanceOf(address(this)) */\n      pop\n      pop\n      pop\n      pop\n      mload(0x40)\n      returndatasize\n        /* \"--CODEGEN--\":13:15   */\n      0x20\n        /* \"--CODEGEN--\":8:11   */\n      dup2\n        /* \"--CODEGEN--\":5:16   */\n      lt\n        /* \"--CODEGEN--\":2:4   */\n      iszero\n      tag_177\n      jumpi\n        /* \"--CODEGEN--\":29:30   */\n      0x00\n        /* \"--CODEGEN--\":26:27   */\n      dup1\n        /* \"--CODEGEN--\":19:31   */\n      revert\n        /* \"--CODEGEN--\":2:4   */\n    tag_177:\n        /* \"us-contracts/UniswapV2Pair.sol\":5130:5169  IERC20(token1).balanceOf(address(this)) */\n      dup2\n      add\n      swap1\n      dup1\n      dup1\n      mload\n      swap1\n      0x20\n      add\n      swap1\n      swap3\n      swap2\n      swap1\n      pop\n      pop\n      pop\n        /* \"us-contracts/UniswapV2Pair.sol\":5111:5169  uint256 balance1 = IERC20(token1).balanceOf(address(this)) */\n      swap1\n      pop\n        /* \"us-contracts/UniswapV2Pair.sol\":5179:5194  uint256 amount0 */\n      0x00\n        /* \"us-contracts/UniswapV2Pair.sol\":5197:5220  balance0.sub(_reserve0) */\n      tag_178\n        /* \"us-contracts/UniswapV2Pair.sol\":5210:5219  _reserve0 */\n      dup6\n        /* \"us-contracts/UniswapV2Pair.sol\":5197:5220  balance0.sub(_reserve0) */\n      0xffffffffffffffffffffffffffff\n      and\n        /* \"us-contracts/UniswapV2Pair.sol\":5197:5205  balance0 */\n      dup5\n        /* \"us-contracts/UniswapV2Pair.sol\":5197:5209  balance0.sub */\n      tag_147\n      swap1\n        /* \"us-contracts/UniswapV2Pair.sol\":5197:5220  balance0.sub(_reserve0) */\n      swap2\n      swap1\n      0xffffffff\n      and\n      jump\t// in\n    tag_178:\n        /* \"us-contracts/UniswapV2Pair.sol\":5179:5220  uint256 amount0 = balance0.sub(_reserve0) */\n      swap1\n      pop\n        /* \"us-contracts/UniswapV2Pair.sol\":5230:5245  uint256 amount1 */\n      0x00\n        /* \"us-contracts/UniswapV2Pair.sol\":5248:5271  balance1.sub(_reserve1) */\n      tag_179\n        /* \"us-contracts/UniswapV2Pair.sol\":5261:5270  _reserve1 */\n      dup6\n        /* \"us-contracts/UniswapV2Pair.sol\":5248:5271  balance1.sub(_reserve1) */\n      0xffffffffffffffffffffffffffff\n      and\n        /* \"us-contracts/UniswapV2Pair.sol\":5248:5256  balance1 */\n      dup5\n        /* \"us-contracts/UniswapV2Pair.sol\":5248:5260  balance1.sub */\n      tag_147\n      swap1\n        /* \"us-contracts/UniswapV2Pair.sol\":5248:5271  balance1.sub(_reserve1) */\n      swap2\n      swap1\n      0xffffffff\n      and\n      jump\t// in\n    tag_179:\n        /* \"us-contracts/UniswapV2Pair.sol\":5230:5271  uint256 amount1 = balance1.sub(_reserve1) */\n      swap1\n      pop\n        /* \"us-contracts/UniswapV2Pair.sol\":5282:5292  bool feeOn */\n      0x00\n        /* \"us-contracts/UniswapV2Pair.sol\":5295:5325  _mintFee(_reserve0, _reserve1) */\n      tag_180\n        /* \"us-contracts/UniswapV2Pair.sol\":5304:5313  _reserve0 */\n      dup8\n        /* \"us-contracts/UniswapV2Pair.sol\":5315:5324  _reserve1 */\n      dup8\n        /* \"us-contracts/UniswapV2Pair.sol\":5295:5303  _mintFee */\n      tag_181\n        /* \"us-contracts/UniswapV2Pair.sol\":5295:5325  _mintFee(_reserve0, _reserve1) */\n      jump\t// in\n    tag_180:\n        /* \"us-contracts/UniswapV2Pair.sol\":5282:5325  bool feeOn = _mintFee(_reserve0, _reserve1) */\n      swap1\n      pop\n        /* \"us-contracts/UniswapV2Pair.sol\":5335:5355  uint256 _totalSupply */\n      0x00\n        /* \"us-contracts/UniswapV2Pair.sol\":5358:5369  totalSupply */\n      dup1\n      sload\n        /* \"us-contracts/UniswapV2Pair.sol\":5335:5369  uint256 _totalSupply = totalSupply */\n      swap1\n      pop\n        /* \"us-contracts/UniswapV2Pair.sol\":5477:5478  0 */\n      0x00\n        /* \"us-contracts/UniswapV2Pair.sol\":5461:5473  _totalSupply */\n      dup2\n        /* \"us-contracts/UniswapV2Pair.sol\":5461:5478  _totalSupply == 0 */\n      eq\n        /* \"us-contracts/UniswapV2Pair.sol\":5457:5851  if (_totalSupply == 0) {... */\n      iszero\n      tag_182\n      jumpi\n        /* \"us-contracts/UniswapV2Pair.sol\":5506:5560  Math.sqrt(amount0.mul(amount1)).sub(MINIMUM_LIQUIDITY) */\n      tag_183\n        /* \"us-contracts/UniswapV2Pair.sol\":463:468  10**3 */\n      0x03e8\n        /* \"us-contracts/UniswapV2Pair.sol\":5506:5537  Math.sqrt(amount0.mul(amount1)) */\n      tag_184\n        /* \"us-contracts/UniswapV2Pair.sol\":5516:5536  amount0.mul(amount1) */\n      tag_185\n        /* \"us-contracts/UniswapV2Pair.sol\":5528:5535  amount1 */\n      dup7\n        /* \"us-contracts/UniswapV2Pair.sol\":5516:5523  amount0 */\n      dup9\n        /* \"us-contracts/UniswapV2Pair.sol\":5516:5527  amount0.mul */\n      tag_145\n      swap1\n        /* \"us-contracts/UniswapV2Pair.sol\":5516:5536  amount0.mul(amount1) */\n      swap2\n      swap1\n      0xffffffff\n      and\n      jump\t// in\n    tag_185:\n        /* \"us-contracts/UniswapV2Pair.sol\":5506:5515  Math.sqrt */\n      tag_186\n        /* \"us-contracts/UniswapV2Pair.sol\":5506:5537  Math.sqrt(amount0.mul(amount1)) */\n      jump\t// in\n    tag_184:\n        /* \"us-contracts/UniswapV2Pair.sol\":5506:5541  Math.sqrt(amount0.mul(amount1)).sub */\n      tag_147\n      swap1\n        /* \"us-contracts/UniswapV2Pair.sol\":5506:5560  Math.sqrt(amount0.mul(amount1)).sub(MINIMUM_LIQUIDITY) */\n      swap2\n      swap1\n      0xffffffff\n      and\n      jump\t// in\n    tag_183:\n        /* \"us-contracts/UniswapV2Pair.sol\":5494:5560  liquidity = Math.sqrt(amount0.mul(amount1)).sub(MINIMUM_LIQUIDITY) */\n      swap9\n      pop\n        /* \"us-contracts/UniswapV2Pair.sol\":5574:5610  _mint(address(0), MINIMUM_LIQUIDITY) */\n      tag_187\n        /* \"us-contracts/UniswapV2Pair.sol\":5588:5589  0 */\n      0x00\n        /* \"us-contracts/UniswapV2Pair.sol\":463:468  10**3 */\n      0x03e8\n        /* \"us-contracts/UniswapV2Pair.sol\":5574:5579  _mint */\n      tag_188\n        /* \"us-contracts/UniswapV2Pair.sol\":5574:5610  _mint(address(0), MINIMUM_LIQUIDITY) */\n      jump\t// in\n    tag_187:\n        /* \"us-contracts/UniswapV2Pair.sol\":5457:5851  if (_totalSupply == 0) {... */\n      jump(tag_189)\n    tag_182:\n        /* \"us-contracts/UniswapV2Pair.sol\":5708:5840  Math.min(... */\n      tag_190\n        /* \"us-contracts/UniswapV2Pair.sol\":5762:5771  _reserve0 */\n      dup9\n        /* \"us-contracts/UniswapV2Pair.sol\":5734:5771  amount0.mul(_totalSupply) / _reserve0 */\n      0xffffffffffffffffffffffffffff\n      and\n        /* \"us-contracts/UniswapV2Pair.sol\":5734:5759  amount0.mul(_totalSupply) */\n      tag_191\n        /* \"us-contracts/UniswapV2Pair.sol\":5746:5758  _totalSupply */\n      dup4\n        /* \"us-contracts/UniswapV2Pair.sol\":5734:5741  amount0 */\n      dup8\n        /* \"us-contracts/UniswapV2Pair.sol\":5734:5745  amount0.mul */\n      tag_145\n      swap1\n        /* \"us-contracts/UniswapV2Pair.sol\":5734:5759  amount0.mul(_totalSupply) */\n      swap2\n      swap1\n      0xffffffff\n      and\n      jump\t// in\n    tag_191:\n        /* \"us-contracts/UniswapV2Pair.sol\":5734:5771  amount0.mul(_totalSupply) / _reserve0 */\n      dup2\n      tag_192\n      jumpi\n      invalid\n    tag_192:\n      div\n        /* \"us-contracts/UniswapV2Pair.sol\":5817:5826  _reserve1 */\n      dup9\n        /* \"us-contracts/UniswapV2Pair.sol\":5789:5826  amount1.mul(_totalSupply) / _reserve1 */\n      0xffffffffffffffffffffffffffff\n      and\n        /* \"us-contracts/UniswapV2Pair.sol\":5789:5814  amount1.mul(_totalSupply) */\n      tag_193\n        /* \"us-contracts/UniswapV2Pair.sol\":5801:5813  _totalSupply */\n      dup5\n        /* \"us-contracts/UniswapV2Pair.sol\":5789:5796  amount1 */\n      dup8\n        /* \"us-contracts/UniswapV2Pair.sol\":5789:5800  amount1.mul */\n      tag_145\n      swap1\n        /* \"us-contracts/UniswapV2Pair.sol\":5789:5814  amount1.mul(_totalSupply) */\n      swap2\n      swap1\n      0xffffffff\n      and\n      jump\t// in\n    tag_193:\n        /* \"us-contracts/UniswapV2Pair.sol\":5789:5826  amount1.mul(_totalSupply) / _reserve1 */\n      dup2\n      tag_194\n      jumpi\n      invalid\n    tag_194:\n      div\n        /* \"us-contracts/UniswapV2Pair.sol\":5708:5716  Math.min */\n      tag_195\n        /* \"us-contracts/UniswapV2Pair.sol\":5708:5840  Math.min(... */\n      jump\t// in\n    tag_190:\n        /* \"us-contracts/UniswapV2Pair.sol\":5696:5840  liquidity = Math.min(... */\n      swap9\n      pop\n        /* \"us-contracts/UniswapV2Pair.sol\":5457:5851  if (_totalSupply == 0) {... */\n    tag_189:\n        /* \"us-contracts/UniswapV2Pair.sol\":5880:5881  0 */\n      0x00\n        /* \"us-contracts/UniswapV2Pair.sol\":5868:5877  liquidity */\n      dup10\n        /* \"us-contracts/UniswapV2Pair.sol\":5868:5881  liquidity > 0 */\n      gt\n        /* \"us-contracts/UniswapV2Pair.sol\":5860:5926  require(liquidity > 0, \"UniswapV2: INSUFFICIENT_LIQUIDITY_MINTED\") */\n      tag_196\n      jumpi\n      mload(0x40)\n      0x08c379a000000000000000000000000000000000000000000000000000000000\n      dup2\n      mstore\n      0x04\n      add\n      dup1\n      dup1\n      0x20\n      add\n      dup3\n      dup2\n      sub\n      dup3\n      mstore\n      0x28\n      dup2\n      mstore\n      0x20\n      add\n      dup1\n      data_6591c9f5bf1fefaad109b76a20e25c857b696080c952191f86220f001a83663e\n      0x28\n      swap2\n      codecopy\n      0x40\n      add\n      swap2\n      pop\n      pop\n      mload(0x40)\n      dup1\n      swap2\n      sub\n      swap1\n      revert\n    tag_196:\n        /* \"us-contracts/UniswapV2Pair.sol\":5936:5956  _mint(to, liquidity) */\n      tag_197\n        /* \"us-contracts/UniswapV2Pair.sol\":5942:5944  to */\n      dup11\n        /* \"us-contracts/UniswapV2Pair.sol\":5946:5955  liquidity */\n      dup11\n        /* \"us-contracts/UniswapV2Pair.sol\":5936:5941  _mint */\n      tag_188\n        /* \"us-contracts/UniswapV2Pair.sol\":5936:5956  _mint(to, liquidity) */\n      jump\t// in\n    tag_197:\n        /* \"us-contracts/UniswapV2Pair.sol\":5967:6016  _update(balance0, balance1, _reserve0, _reserve1) */\n      tag_198\n        /* \"us-contracts/UniswapV2Pair.sol\":5975:5983  balance0 */\n      dup7\n        /* \"us-contracts/UniswapV2Pair.sol\":5985:5993  balance1 */\n      dup7\n        /* \"us-contracts/UniswapV2Pair.sol\":5995:6004  _reserve0 */\n      dup11\n        /* \"us-contracts/UniswapV2Pair.sol\":6006:6015  _reserve1 */\n      dup11\n        /* \"us-contracts/UniswapV2Pair.sol\":5967:5974  _update */\n      tag_156\n        /* \"us-contracts/UniswapV2Pair.sol\":5967:6016  _update(balance0, balance1, _reserve0, _reserve1) */\n      jump\t// in\n    tag_198:\n        /* \"us-contracts/UniswapV2Pair.sol\":6030:6035  feeOn */\n      dup2\n        /* \"us-contracts/UniswapV2Pair.sol\":6026:6076  if (feeOn) kLast = uint256(reserve0).mul(reserve1) */\n      iszero\n      tag_199\n      jumpi\n        /* \"us-contracts/UniswapV2Pair.sol\":6045:6076  uint256(reserve0).mul(reserve1) */\n      tag_200\n        /* \"us-contracts/UniswapV2Pair.sol\":6067:6075  reserve1 */\n      0x08\n      0x0e\n      swap1\n      sload\n      swap1\n      0x0100\n      exp\n      swap1\n      div\n      0xffffffffffffffffffffffffffff\n      and\n        /* \"us-contracts/UniswapV2Pair.sol\":6045:6076  uint256(reserve0).mul(reserve1) */\n      0xffffffffffffffffffffffffffff\n      and\n        /* \"us-contracts/UniswapV2Pair.sol\":6053:6061  reserve0 */\n      0x08\n      0x00\n      swap1\n      sload\n      swap1\n      0x0100\n      exp\n      swap1\n      div\n      0xffffffffffffffffffffffffffff\n      and\n        /* \"us-contracts/UniswapV2Pair.sol\":6045:6062  uint256(reserve0) */\n      0xffffffffffffffffffffffffffff\n      and\n        /* \"us-contracts/UniswapV2Pair.sol\":6045:6066  uint256(reserve0).mul */\n      tag_145\n      swap1\n        /* \"us-contracts/UniswapV2Pair.sol\":6045:6076  uint256(reserve0).mul(reserve1) */\n      swap2\n      swap1\n      0xffffffff\n      and\n      jump\t// in\n    tag_200:\n        /* \"us-contracts/UniswapV2Pair.sol\":6037:6042  kLast */\n      0x0b\n        /* \"us-contracts/UniswapV2Pair.sol\":6037:6076  kLast = uint256(reserve0).mul(reserve1) */\n      dup2\n      swap1\n      sstore\n      pop\n        /* \"us-contracts/UniswapV2Pair.sol\":6026:6076  if (feeOn) kLast = uint256(reserve0).mul(reserve1) */\n    tag_199:\n        /* \"us-contracts/UniswapV2Pair.sol\":6136:6146  msg.sender */\n      caller\n        /* \"us-contracts/UniswapV2Pair.sol\":6131:6165  Mint(msg.sender, amount0, amount1) */\n      0xffffffffffffffffffffffffffffffffffffffff\n      and\n      0x4c209b5fc8ad50758f13e2e1088ba56a560dff690a1c6fef26394f4c03821c4f\n        /* \"us-contracts/UniswapV2Pair.sol\":6148:6155  amount0 */\n      dup6\n        /* \"us-contracts/UniswapV2Pair.sol\":6157:6164  amount1 */\n      dup6\n        /* \"us-contracts/UniswapV2Pair.sol\":6131:6165  Mint(msg.sender, amount0, amount1) */\n      mload(0x40)\n      dup1\n      dup4\n      dup2\n      mstore\n      0x20\n      add\n      dup3\n      dup2\n      mstore\n      0x20\n      add\n      swap3\n      pop\n      pop\n      pop\n      mload(0x40)\n      dup1\n      swap2\n      sub\n      swap1\n      log2\n        /* \"us-contracts/UniswapV2Pair.sol\":1252:1253  _ */\n      pop\n      pop\n      pop\n      pop\n      pop\n      pop\n      pop\n      pop\n        /* \"us-contracts/UniswapV2Pair.sol\":1274:1275  1 */\n      0x01\n        /* \"us-contracts/UniswapV2Pair.sol\":1263:1271  unlocked */\n      0x0c\n        /* \"us-contracts/UniswapV2Pair.sol\":1263:1275  unlocked = 1 */\n      dup2\n      swap1\n      sstore\n      pop\n        /* \"us-contracts/UniswapV2Pair.sol\":4884:6172  function mint(address to) external lock returns (uint256 liquidity) {... */\n      swap2\n      swap1\n      pop\n      jump\t// out\n        /* \"us-contracts/UniswapV2ERC20.sol\":349:390  mapping(address => uint) public balanceOf */\n    tag_78:\n      mstore(0x20, 0x01)\n      dup1\n      0x00\n      mstore\n      keccak256(0x00, 0x40)\n      0x00\n      swap2\n      pop\n      swap1\n      pop\n      sload\n      dup2\n      jump\t// out\n        /* \"us-contracts/UniswapV2Pair.sol\":1010:1030  uint256 public kLast */\n    tag_80:\n      sload(0x0b)\n      dup2\n      jump\t// out\n        /* \"us-contracts/UniswapV2ERC20.sol\":719:757  mapping(address => uint) public nonces */\n    tag_83:\n      mstore(0x20, 0x04)\n      dup1\n      0x00\n      mstore\n      keccak256(0x00, 0x40)\n      0x00\n      swap2\n      pop\n      swap1\n      pop\n      sload\n      dup2\n      jump\t// out\n        /* \"us-contracts/UniswapV2Pair.sol\":6281:7747  function burn(address to)... */\n    tag_86:\n        /* \"us-contracts/UniswapV2Pair.sol\":6354:6369  uint256 amount0 */\n      0x00\n        /* \"us-contracts/UniswapV2Pair.sol\":6371:6386  uint256 amount1 */\n      dup1\n        /* \"us-contracts/UniswapV2Pair.sol\":1197:1198  1 */\n      0x01\n        /* \"us-contracts/UniswapV2Pair.sol\":1185:1193  unlocked */\n      sload(0x0c)\n        /* \"us-contracts/UniswapV2Pair.sol\":1185:1198  unlocked == 1 */\n      eq\n        /* \"us-contracts/UniswapV2Pair.sol\":1177:1220  require(unlocked == 1, \"UniswapV2: LOCKED\") */\n      tag_202\n      jumpi\n      mload(0x40)\n      0x08c379a000000000000000000000000000000000000000000000000000000000\n      dup2\n      mstore\n      0x04\n      add\n      dup1\n      dup1\n      0x20\n      add\n      dup3\n      dup2\n      sub\n      dup3\n      mstore\n      0x11\n      dup2\n      mstore\n      0x20\n      add\n      dup1\n      0x556e697377617056323a204c4f434b4544000000000000000000000000000000\n      dup2\n      mstore\n      pop\n      0x20\n      add\n      swap2\n      pop\n      pop\n      mload(0x40)\n      dup1\n      swap2\n      sub\n      swap1\n      revert\n    tag_202:\n        /* \"us-contracts/UniswapV2Pair.sol\":1241:1242  0 */\n      0x00\n        /* \"us-contracts/UniswapV2Pair.sol\":1230:1238  unlocked */\n      0x0c\n        /* \"us-contracts/UniswapV2Pair.sol\":1230:1242  unlocked = 0 */\n      dup2\n      swap1\n      sstore\n      pop\n        /* \"us-contracts/UniswapV2Pair.sol\":6403:6420  uint112 _reserve0 */\n      0x00\n        /* \"us-contracts/UniswapV2Pair.sol\":6422:6439  uint112 _reserve1 */\n      dup1\n        /* \"us-contracts/UniswapV2Pair.sol\":6445:6458  getReserves() */\n      tag_204\n        /* \"us-contracts/UniswapV2Pair.sol\":6445:6456  getReserves */\n      tag_49\n        /* \"us-contracts/UniswapV2Pair.sol\":6445:6458  getReserves() */\n      jump\t// in\n    tag_204:\n        /* \"us-contracts/UniswapV2Pair.sol\":6402:6458  (uint112 _reserve0, uint112 _reserve1, ) = getReserves() */\n      pop\n      swap2\n      pop\n      swap2\n      pop\n        /* \"us-contracts/UniswapV2Pair.sol\":6483:6498  address _token0 */\n      0x00\n        /* \"us-contracts/UniswapV2Pair.sol\":6501:6507  token0 */\n      0x06\n      0x00\n      swap1\n      sload\n      swap1\n      0x0100\n      exp\n      swap1\n      div\n      0xffffffffffffffffffffffffffffffffffffffff\n      and\n        /* \"us-contracts/UniswapV2Pair.sol\":6483:6507  address _token0 = token0 */\n      swap1\n      pop\n        /* \"us-contracts/UniswapV2Pair.sol\":6532:6547  address _token1 */\n      0x00\n        /* \"us-contracts/UniswapV2Pair.sol\":6550:6556  token1 */\n      0x07\n      0x00\n      swap1\n      sload\n      swap1\n      0x0100\n      exp\n      swap1\n      div\n      0xffffffffffffffffffffffffffffffffffffffff\n      and\n        /* \"us-contracts/UniswapV2Pair.sol\":6532:6556  address _token1 = token1 */\n      swap1\n      pop\n        /* \"us-contracts/UniswapV2Pair.sol\":6581:6597  uint256 balance0 */\n      0x00\n        /* \"us-contracts/UniswapV2Pair.sol\":6607:6614  _token0 */\n      dup3\n        /* \"us-contracts/UniswapV2Pair.sol\":6600:6625  IERC20(_token0).balanceOf */\n      0xffffffffffffffffffffffffffffffffffffffff\n      and\n      0x70a08231\n        /* \"us-contracts/UniswapV2Pair.sol\":6634:6638  this */\n      address\n        /* \"us-contracts/UniswapV2Pair.sol\":6600:6640  IERC20(_token0).balanceOf(address(this)) */\n      mload(0x40)\n      dup3\n      0xffffffff\n      and\n      0xe0\n      shl\n      dup2\n      mstore\n      0x04\n      add\n      dup1\n      dup3\n      0xffffffffffffffffffffffffffffffffffffffff\n      and\n      0xffffffffffffffffffffffffffffffffffffffff\n      and\n      dup2\n      mstore\n      0x20\n      add\n      swap2\n      pop\n      pop\n      0x20\n      mload(0x40)\n      dup1\n      dup4\n      sub\n      dup2\n      dup7\n      dup1\n      extcodesize\n      iszero\n        /* \"--CODEGEN--\":8:17   */\n      dup1\n        /* \"--CODEGEN--\":5:7   */\n      iszero\n      tag_205\n      jumpi\n        /* \"--CODEGEN--\":30:31   */\n      0x00\n        /* \"--CODEGEN--\":27:28   */\n      dup1\n        /* \"--CODEGEN--\":20:32   */\n      revert\n        /* \"--CODEGEN--\":5:7   */\n    tag_205:\n        /* \"us-contracts/UniswapV2Pair.sol\":6600:6640  IERC20(_token0).balanceOf(address(this)) */\n      pop\n      gas\n      staticcall\n      iszero\n        /* \"--CODEGEN--\":8:17   */\n      dup1\n        /* \"--CODEGEN--\":5:7   */\n      iszero\n      tag_206\n      jumpi\n        /* \"--CODEGEN--\":45:61   */\n      returndatasize\n        /* \"--CODEGEN--\":42:43   */\n      0x00\n        /* \"--CODEGEN--\":39:40   */\n      dup1\n        /* \"--CODEGEN--\":24:62   */\n      returndatacopy\n        /* \"--CODEGEN--\":77:93   */\n      returndatasize\n        /* \"--CODEGEN--\":74:75   */\n      0x00\n        /* \"--CODEGEN--\":67:94   */\n      revert\n        /* \"--CODEGEN--\":5:7   */\n    tag_206:\n        /* \"us-contracts/UniswapV2Pair.sol\":6600:6640  IERC20(_token0).balanceOf(address(this)) */\n      pop\n      pop\n      pop\n      pop\n      mload(0x40)\n      returndatasize\n        /* \"--CODEGEN--\":13:15   */\n      0x20\n        /* \"--CODEGEN--\":8:11   */\n      dup2\n        /* \"--CODEGEN--\":5:16   */\n      lt\n        /* \"--CODEGEN--\":2:4   */\n      iszero\n      tag_207\n      jumpi\n        /* \"--CODEGEN--\":29:30   */\n      0x00\n        /* \"--CODEGEN--\":26:27   */\n      dup1\n        /* \"--CODEGEN--\":19:31   */\n      revert\n        /* \"--CODEGEN--\":2:4   */\n    tag_207:\n        /* \"us-contracts/UniswapV2Pair.sol\":6600:6640  IERC20(_token0).balanceOf(address(this)) */\n      dup2\n      add\n      swap1\n      dup1\n      dup1\n      mload\n      swap1\n      0x20\n      add\n      swap1\n      swap3\n      swap2\n      swap1\n      pop\n      pop\n      pop\n        /* \"us-contracts/UniswapV2Pair.sol\":6581:6640  uint256 balance0 = IERC20(_token0).balanceOf(address(this)) */\n      swap1\n      pop\n        /* \"us-contracts/UniswapV2Pair.sol\":6650:6666  uint256 balance1 */\n      0x00\n        /* \"us-contracts/UniswapV2Pair.sol\":6676:6683  _token1 */\n      dup3\n        /* \"us-contracts/UniswapV2Pair.sol\":6669:6694  IERC20(_token1).balanceOf */\n      0xffffffffffffffffffffffffffffffffffffffff\n      and\n      0x70a08231\n        /* \"us-contracts/UniswapV2Pair.sol\":6703:6707  this */\n      address\n        /* \"us-contracts/UniswapV2Pair.sol\":6669:6709  IERC20(_token1).balanceOf(address(this)) */\n      mload(0x40)\n      dup3\n      0xffffffff\n      and\n      0xe0\n      shl\n      dup2\n      mstore\n      0x04\n      add\n      dup1\n      dup3\n      0xffffffffffffffffffffffffffffffffffffffff\n      and\n      0xffffffffffffffffffffffffffffffffffffffff\n      and\n      dup2\n      mstore\n      0x20\n      add\n      swap2\n      pop\n      pop\n      0x20\n      mload(0x40)\n      dup1\n      dup4\n      sub\n      dup2\n      dup7\n      dup1\n      extcodesize\n      iszero\n        /* \"--CODEGEN--\":8:17   */\n      dup1\n        /* \"--CODEGEN--\":5:7   */\n      iszero\n      tag_208\n      jumpi\n        /* \"--CODEGEN--\":30:31   */\n      0x00\n        /* \"--CODEGEN--\":27:28   */\n      dup1\n        /* \"--CODEGEN--\":20:32   */\n      revert\n        /* \"--CODEGEN--\":5:7   */\n    tag_208:\n        /* \"us-contracts/UniswapV2Pair.sol\":6669:6709  IERC20(_token1).balanceOf(address(this)) */\n      pop\n      gas\n      staticcall\n      iszero\n        /* \"--CODEGEN--\":8:17   */\n      dup1\n        /* \"--CODEGEN--\":5:7   */\n      iszero\n      tag_209\n      jumpi\n        /* \"--CODEGEN--\":45:61   */\n      returndatasize\n        /* \"--CODEGEN--\":42:43   */\n      0x00\n        /* \"--CODEGEN--\":39:40   */\n      dup1\n        /* \"--CODEGEN--\":24:62   */\n      returndatacopy\n        /* \"--CODEGEN--\":77:93   */\n      returndatasize\n        /* \"--CODEGEN--\":74:75   */\n      0x00\n        /* \"--CODEGEN--\":67:94   */\n      revert\n        /* \"--CODEGEN--\":5:7   */\n    tag_209:\n        /* \"us-contracts/UniswapV2Pair.sol\":6669:6709  IERC20(_token1).balanceOf(address(this)) */\n      pop\n      pop\n      pop\n      pop\n      mload(0x40)\n      returndatasize\n        /* \"--CODEGEN--\":13:15   */\n      0x20\n        /* \"--CODEGEN--\":8:11   */\n      dup2\n        /* \"--CODEGEN--\":5:16   */\n      lt\n        /* \"--CODEGEN--\":2:4   */\n      iszero\n      tag_210\n      jumpi\n        /* \"--CODEGEN--\":29:30   */\n      0x00\n        /* \"--CODEGEN--\":26:27   */\n      dup1\n        /* \"--CODEGEN--\":19:31   */\n      revert\n        /* \"--CODEGEN--\":2:4   */\n    tag_210:\n        /* \"us-contracts/UniswapV2Pair.sol\":6669:6709  IERC20(_token1).balanceOf(address(this)) */\n      dup2\n      add\n      swap1\n      dup1\n      dup1\n      mload\n      swap1\n      0x20\n      add\n      swap1\n      swap3\n      swap2\n      swap1\n      pop\n      pop\n      pop\n        /* \"us-contracts/UniswapV2Pair.sol\":6650:6709  uint256 balance1 = IERC20(_token1).balanceOf(address(this)) */\n      swap1\n      pop\n        /* \"us-contracts/UniswapV2Pair.sol\":6719:6736  uint256 liquidity */\n      0x00\n        /* \"us-contracts/UniswapV2Pair.sol\":6739:6748  balanceOf */\n      0x01\n        /* \"us-contracts/UniswapV2Pair.sol\":6739:6763  balanceOf[address(this)] */\n      0x00\n        /* \"us-contracts/UniswapV2Pair.sol\":6757:6761  this */\n      address\n        /* \"us-contracts/UniswapV2Pair.sol\":6739:6763  balanceOf[address(this)] */\n      0xffffffffffffffffffffffffffffffffffffffff\n      and\n      0xffffffffffffffffffffffffffffffffffffffff\n      and\n      dup2\n      mstore\n      0x20\n      add\n      swap1\n      dup2\n      mstore\n      0x20\n      add\n      0x00\n      keccak256\n      sload\n        /* \"us-contracts/UniswapV2Pair.sol\":6719:6763  uint256 liquidity = balanceOf[address(this)] */\n      swap1\n      pop\n        /* \"us-contracts/UniswapV2Pair.sol\":6774:6784  bool feeOn */\n      0x00\n        /* \"us-contracts/UniswapV2Pair.sol\":6787:6817  _mintFee(_reserve0, _reserve1) */\n      tag_211\n        /* \"us-contracts/UniswapV2Pair.sol\":6796:6805  _reserve0 */\n      dup9\n        /* \"us-contracts/UniswapV2Pair.sol\":6807:6816  _reserve1 */\n      dup9\n        /* \"us-contracts/UniswapV2Pair.sol\":6787:6795  _mintFee */\n      tag_181\n        /* \"us-contracts/UniswapV2Pair.sol\":6787:6817  _mintFee(_reserve0, _reserve1) */\n      jump\t// in\n    tag_211:\n        /* \"us-contracts/UniswapV2Pair.sol\":6774:6817  bool feeOn = _mintFee(_reserve0, _reserve1) */\n      swap1\n      pop\n        /* \"us-contracts/UniswapV2Pair.sol\":6827:6847  uint256 _totalSupply */\n      0x00\n        /* \"us-contracts/UniswapV2Pair.sol\":6850:6861  totalSupply */\n      dup1\n      sload\n        /* \"us-contracts/UniswapV2Pair.sol\":6827:6861  uint256 _totalSupply = totalSupply */\n      swap1\n      pop\n        /* \"us-contracts/UniswapV2Pair.sol\":6985:6997  _totalSupply */\n      dup1\n        /* \"us-contracts/UniswapV2Pair.sol\":6959:6982  liquidity.mul(balance0) */\n      tag_212\n        /* \"us-contracts/UniswapV2Pair.sol\":6973:6981  balance0 */\n      dup7\n        /* \"us-contracts/UniswapV2Pair.sol\":6959:6968  liquidity */\n      dup6\n        /* \"us-contracts/UniswapV2Pair.sol\":6959:6972  liquidity.mul */\n      tag_145\n      swap1\n        /* \"us-contracts/UniswapV2Pair.sol\":6959:6982  liquidity.mul(balance0) */\n      swap2\n      swap1\n      0xffffffff\n      and\n      jump\t// in\n    tag_212:\n        /* \"us-contracts/UniswapV2Pair.sol\":6959:6997  liquidity.mul(balance0) / _totalSupply */\n      dup2\n      tag_213\n      jumpi\n      invalid\n    tag_213:\n      div\n        /* \"us-contracts/UniswapV2Pair.sol\":6949:6997  amount0 = liquidity.mul(balance0) / _totalSupply */\n      swap11\n      pop\n        /* \"us-contracts/UniswapV2Pair.sol\":7091:7103  _totalSupply */\n      dup1\n        /* \"us-contracts/UniswapV2Pair.sol\":7065:7088  liquidity.mul(balance1) */\n      tag_214\n        /* \"us-contracts/UniswapV2Pair.sol\":7079:7087  balance1 */\n      dup6\n        /* \"us-contracts/UniswapV2Pair.sol\":7065:7074  liquidity */\n      dup6\n        /* \"us-contracts/UniswapV2Pair.sol\":7065:7078  liquidity.mul */\n      tag_145\n      swap1\n        /* \"us-contracts/UniswapV2Pair.sol\":7065:7088  liquidity.mul(balance1) */\n      swap2\n      swap1\n      0xffffffff\n      and\n      jump\t// in\n    tag_214:\n        /* \"us-contracts/UniswapV2Pair.sol\":7065:7103  liquidity.mul(balance1) / _totalSupply */\n      dup2\n      tag_215\n      jumpi\n      invalid\n    tag_215:\n      div\n        /* \"us-contracts/UniswapV2Pair.sol\":7055:7103  amount1 = liquidity.mul(balance1) / _totalSupply */\n      swap10\n      pop\n        /* \"us-contracts/UniswapV2Pair.sol\":7192:7193  0 */\n      0x00\n        /* \"us-contracts/UniswapV2Pair.sol\":7182:7189  amount0 */\n      dup12\n        /* \"us-contracts/UniswapV2Pair.sol\":7182:7193  amount0 > 0 */\n      gt\n        /* \"us-contracts/UniswapV2Pair.sol\":7182:7208  amount0 > 0 && amount1 > 0 */\n      dup1\n      iszero\n      tag_216\n      jumpi\n      pop\n        /* \"us-contracts/UniswapV2Pair.sol\":7207:7208  0 */\n      0x00\n        /* \"us-contracts/UniswapV2Pair.sol\":7197:7204  amount1 */\n      dup11\n        /* \"us-contracts/UniswapV2Pair.sol\":7197:7208  amount1 > 0 */\n      gt\n        /* \"us-contracts/UniswapV2Pair.sol\":7182:7208  amount0 > 0 && amount1 > 0 */\n    tag_216:\n        /* \"us-contracts/UniswapV2Pair.sol\":7161:7274  require(... */\n      tag_217\n      jumpi\n      mload(0x40)\n      0x08c379a000000000000000000000000000000000000000000000000000000000\n      dup2\n      mstore\n      0x04\n      add\n      dup1\n      dup1\n      0x20\n      add\n      dup3\n      dup2\n      sub\n      dup3\n      mstore\n      0x28\n      dup2\n      mstore\n      0x20\n      add\n      dup1\n      data_57ebfb4dd8b5082cdba0f23c17077e3b0ecb9782a51e0e9a15e9bc8c4b30c562\n      0x28\n      swap2\n      codecopy\n      0x40\n      add\n      swap2\n      pop\n      pop\n      mload(0x40)\n      dup1\n      swap2\n      sub\n      swap1\n      revert\n    tag_217:\n        /* \"us-contracts/UniswapV2Pair.sol\":7284:7315  _burn(address(this), liquidity) */\n      tag_218\n        /* \"us-contracts/UniswapV2Pair.sol\":7298:7302  this */\n      address\n        /* \"us-contracts/UniswapV2Pair.sol\":7305:7314  liquidity */\n      dup5\n        /* \"us-contracts/UniswapV2Pair.sol\":7284:7289  _burn */\n      tag_219\n        /* \"us-contracts/UniswapV2Pair.sol\":7284:7315  _burn(address(this), liquidity) */\n      jump\t// in\n    tag_218:\n        /* \"us-contracts/UniswapV2Pair.sol\":7325:7360  _safeTransfer(_token0, to, amount0) */\n      tag_220\n        /* \"us-contracts/UniswapV2Pair.sol\":7339:7346  _token0 */\n      dup8\n        /* \"us-contracts/UniswapV2Pair.sol\":7348:7350  to */\n      dup14\n        /* \"us-contracts/UniswapV2Pair.sol\":7352:7359  amount0 */\n      dup14\n        /* \"us-contracts/UniswapV2Pair.sol\":7325:7338  _safeTransfer */\n      tag_125\n        /* \"us-contracts/UniswapV2Pair.sol\":7325:7360  _safeTransfer(_token0, to, amount0) */\n      jump\t// in\n    tag_220:\n        /* \"us-contracts/UniswapV2Pair.sol\":7370:7405  _safeTransfer(_token1, to, amount1) */\n      tag_221\n        /* \"us-contracts/UniswapV2Pair.sol\":7384:7391  _token1 */\n      dup7\n        /* \"us-contracts/UniswapV2Pair.sol\":7393:7395  to */\n      dup14\n        /* \"us-contracts/UniswapV2Pair.sol\":7397:7404  amount1 */\n      dup13\n        /* \"us-contracts/UniswapV2Pair.sol\":7370:7383  _safeTransfer */\n      tag_125\n        /* \"us-contracts/UniswapV2Pair.sol\":7370:7405  _safeTransfer(_token1, to, amount1) */\n      jump\t// in\n    tag_221:\n        /* \"us-contracts/UniswapV2Pair.sol\":7433:7440  _token0 */\n      dup7\n        /* \"us-contracts/UniswapV2Pair.sol\":7426:7451  IERC20(_token0).balanceOf */\n      0xffffffffffffffffffffffffffffffffffffffff\n      and\n      0x70a08231\n        /* \"us-contracts/UniswapV2Pair.sol\":7460:7464  this */\n      address\n        /* \"us-contracts/UniswapV2Pair.sol\":7426:7466  IERC20(_token0).balanceOf(address(this)) */\n      mload(0x40)\n      dup3\n      0xffffffff\n      and\n      0xe0\n      shl\n      dup2\n      mstore\n      0x04\n      add\n      dup1\n      dup3\n      0xffffffffffffffffffffffffffffffffffffffff\n      and\n      0xffffffffffffffffffffffffffffffffffffffff\n      and\n      dup2\n      mstore\n      0x20\n      add\n      swap2\n      pop\n      pop\n      0x20\n      mload(0x40)\n      dup1\n      dup4\n      sub\n      dup2\n      dup7\n      dup1\n      extcodesize\n      iszero\n        /* \"--CODEGEN--\":8:17   */\n      dup1\n        /* \"--CODEGEN--\":5:7   */\n      iszero\n      tag_222\n      jumpi\n        /* \"--CODEGEN--\":30:31   */\n      0x00\n        /* \"--CODEGEN--\":27:28   */\n      dup1\n        /* \"--CODEGEN--\":20:32   */\n      revert\n        /* \"--CODEGEN--\":5:7   */\n    tag_222:\n        /* \"us-contracts/UniswapV2Pair.sol\":7426:7466  IERC20(_token0).balanceOf(address(this)) */\n      pop\n      gas\n      staticcall\n      iszero\n        /* \"--CODEGEN--\":8:17   */\n      dup1\n        /* \"--CODEGEN--\":5:7   */\n      iszero\n      tag_223\n      jumpi\n        /* \"--CODEGEN--\":45:61   */\n      returndatasize\n        /* \"--CODEGEN--\":42:43   */\n      0x00\n        /* \"--CODEGEN--\":39:40   */\n      dup1\n        /* \"--CODEGEN--\":24:62   */\n      returndatacopy\n        /* \"--CODEGEN--\":77:93   */\n      returndatasize\n        /* \"--CODEGEN--\":74:75   */\n      0x00\n        /* \"--CODEGEN--\":67:94   */\n      revert\n        /* \"--CODEGEN--\":5:7   */\n    tag_223:\n        /* \"us-contracts/UniswapV2Pair.sol\":7426:7466  IERC20(_token0).balanceOf(address(this)) */\n      pop\n      pop\n      pop\n      pop\n      mload(0x40)\n      returndatasize\n        /* \"--CODEGEN--\":13:15   */\n      0x20\n        /* \"--CODEGEN--\":8:11   */\n      dup2\n        /* \"--CODEGEN--\":5:16   */\n      lt\n        /* \"--CODEGEN--\":2:4   */\n      iszero\n      tag_224\n      jumpi\n        /* \"--CODEGEN--\":29:30   */\n      0x00\n        /* \"--CODEGEN--\":26:27   */\n      dup1\n        /* \"--CODEGEN--\":19:31   */\n      revert\n        /* \"--CODEGEN--\":2:4   */\n    tag_224:\n        /* \"us-contracts/UniswapV2Pair.sol\":7426:7466  IERC20(_token0).balanceOf(address(this)) */\n      dup2\n      add\n      swap1\n      dup1\n      dup1\n      mload\n      swap1\n      0x20\n      add\n      swap1\n      swap3\n      swap2\n      swap1\n      pop\n      pop\n      pop\n        /* \"us-contracts/UniswapV2Pair.sol\":7415:7466  balance0 = IERC20(_token0).balanceOf(address(this)) */\n      swap5\n      pop\n        /* \"us-contracts/UniswapV2Pair.sol\":7494:7501  _token1 */\n      dup6\n        /* \"us-contracts/UniswapV2Pair.sol\":7487:7512  IERC20(_token1).balanceOf */\n      0xffffffffffffffffffffffffffffffffffffffff\n      and\n      0x70a08231\n        /* \"us-contracts/UniswapV2Pair.sol\":7521:7525  this */\n      address\n        /* \"us-contracts/UniswapV2Pair.sol\":7487:7527  IERC20(_token1).balanceOf(address(this)) */\n      mload(0x40)\n      dup3\n      0xffffffff\n      and\n      0xe0\n      shl\n      dup2\n      mstore\n      0x04\n      add\n      dup1\n      dup3\n      0xffffffffffffffffffffffffffffffffffffffff\n      and\n      0xffffffffffffffffffffffffffffffffffffffff\n      and\n      dup2\n      mstore\n      0x20\n      add\n      swap2\n      pop\n      pop\n      0x20\n      mload(0x40)\n      dup1\n      dup4\n      sub\n      dup2\n      dup7\n      dup1\n      extcodesize\n      iszero\n        /* \"--CODEGEN--\":8:17   */\n      dup1\n        /* \"--CODEGEN--\":5:7   */\n      iszero\n      tag_225\n      jumpi\n        /* \"--CODEGEN--\":30:31   */\n      0x00\n        /* \"--CODEGEN--\":27:28   */\n      dup1\n        /* \"--CODEGEN--\":20:32   */\n      revert\n        /* \"--CODEGEN--\":5:7   */\n    tag_225:\n        /* \"us-contracts/UniswapV2Pair.sol\":7487:7527  IERC20(_token1).balanceOf(address(this)) */\n      pop\n      gas\n      staticcall\n      iszero\n        /* \"--CODEGEN--\":8:17   */\n      dup1\n        /* \"--CODEGEN--\":5:7   */\n      iszero\n      tag_226\n      jumpi\n        /* \"--CODEGEN--\":45:61   */\n      returndatasize\n        /* \"--CODEGEN--\":42:43   */\n      0x00\n        /* \"--CODEGEN--\":39:40   */\n      dup1\n        /* \"--CODEGEN--\":24:62   */\n      returndatacopy\n        /* \"--CODEGEN--\":77:93   */\n      returndatasize\n        /* \"--CODEGEN--\":74:75   */\n      0x00\n        /* \"--CODEGEN--\":67:94   */\n      revert\n        /* \"--CODEGEN--\":5:7   */\n    tag_226:\n        /* \"us-contracts/UniswapV2Pair.sol\":7487:7527  IERC20(_token1).balanceOf(address(this)) */\n      pop\n      pop\n      pop\n      pop\n      mload(0x40)\n      returndatasize\n        /* \"--CODEGEN--\":13:15   */\n      0x20\n        /* \"--CODEGEN--\":8:11   */\n      dup2\n        /* \"--CODEGEN--\":5:16   */\n      lt\n        /* \"--CODEGEN--\":2:4   */\n      iszero\n      tag_227\n      jumpi\n        /* \"--CODEGEN--\":29:30   */\n      0x00\n        /* \"--CODEGEN--\":26:27   */\n      dup1\n        /* \"--CODEGEN--\":19:31   */\n      revert\n        /* \"--CODEGEN--\":2:4   */\n    tag_227:\n        /* \"us-contracts/UniswapV2Pair.sol\":7487:7527  IERC20(_token1).balanceOf(address(this)) */\n      dup2\n      add\n      swap1\n      dup1\n      dup1\n      mload\n      swap1\n      0x20\n      add\n      swap1\n      swap3\n      swap2\n      swap1\n      pop\n      pop\n      pop\n        /* \"us-contracts/UniswapV2Pair.sol\":7476:7527  balance1 = IERC20(_token1).balanceOf(address(this)) */\n      swap4\n      pop\n        /* \"us-contracts/UniswapV2Pair.sol\":7538:7587  _update(balance0, balance1, _reserve0, _reserve1) */\n      tag_228\n        /* \"us-contracts/UniswapV2Pair.sol\":7546:7554  balance0 */\n      dup6\n        /* \"us-contracts/UniswapV2Pair.sol\":7556:7564  balance1 */\n      dup6\n        /* \"us-contracts/UniswapV2Pair.sol\":7566:7575  _reserve0 */\n      dup12\n        /* \"us-contracts/UniswapV2Pair.sol\":7577:7586  _reserve1 */\n      dup12\n        /* \"us-contracts/UniswapV2Pair.sol\":7538:7545  _update */\n      tag_156\n        /* \"us-contracts/UniswapV2Pair.sol\":7538:7587  _update(balance0, balance1, _reserve0, _reserve1) */\n      jump\t// in\n    tag_228:\n        /* \"us-contracts/UniswapV2Pair.sol\":7601:7606  feeOn */\n      dup2\n        /* \"us-contracts/UniswapV2Pair.sol\":7597:7647  if (feeOn) kLast = uint256(reserve0).mul(reserve1) */\n      iszero\n      tag_229\n      jumpi\n        /* \"us-contracts/UniswapV2Pair.sol\":7616:7647  uint256(reserve0).mul(reserve1) */\n      tag_230\n        /* \"us-contracts/UniswapV2Pair.sol\":7638:7646  reserve1 */\n      0x08\n      0x0e\n      swap1\n      sload\n      swap1\n      0x0100\n      exp\n      swap1\n      div\n      0xffffffffffffffffffffffffffff\n      and\n        /* \"us-contracts/UniswapV2Pair.sol\":7616:7647  uint256(reserve0).mul(reserve1) */\n      0xffffffffffffffffffffffffffff\n      and\n        /* \"us-contracts/UniswapV2Pair.sol\":7624:7632  reserve0 */\n      0x08\n      0x00\n      swap1\n      sload\n      swap1\n      0x0100\n      exp\n      swap1\n      div\n      0xffffffffffffffffffffffffffff\n      and\n        /* \"us-contracts/UniswapV2Pair.sol\":7616:7633  uint256(reserve0) */\n      0xffffffffffffffffffffffffffff\n      and\n        /* \"us-contracts/UniswapV2Pair.sol\":7616:7637  uint256(reserve0).mul */\n      tag_145\n      swap1\n        /* \"us-contracts/UniswapV2Pair.sol\":7616:7647  uint256(reserve0).mul(reserve1) */\n      swap2\n      swap1\n      0xffffffff\n      and\n      jump\t// in\n    tag_230:\n        /* \"us-contracts/UniswapV2Pair.sol\":7608:7613  kLast */\n      0x0b\n        /* \"us-contracts/UniswapV2Pair.sol\":7608:7647  kLast = uint256(reserve0).mul(reserve1) */\n      dup2\n      swap1\n      sstore\n      pop\n        /* \"us-contracts/UniswapV2Pair.sol\":7597:7647  if (feeOn) kLast = uint256(reserve0).mul(reserve1) */\n    tag_229:\n        /* \"us-contracts/UniswapV2Pair.sol\":7737:7739  to */\n      dup12\n        /* \"us-contracts/UniswapV2Pair.sol\":7702:7740  Burn(msg.sender, amount0, amount1, to) */\n      0xffffffffffffffffffffffffffffffffffffffff\n      and\n        /* \"us-contracts/UniswapV2Pair.sol\":7707:7717  msg.sender */\n      caller\n        /* \"us-contracts/UniswapV2Pair.sol\":7702:7740  Burn(msg.sender, amount0, amount1, to) */\n      0xffffffffffffffffffffffffffffffffffffffff\n      and\n      0xdccd412f0b1252819cb1fd330b93224ca42612892bb3f4f789976e6d81936496\n        /* \"us-contracts/UniswapV2Pair.sol\":7719:7726  amount0 */\n      dup14\n        /* \"us-contracts/UniswapV2Pair.sol\":7728:7735  amount1 */\n      dup14\n        /* \"us-contracts/UniswapV2Pair.sol\":7702:7740  Burn(msg.sender, amount0, amount1, to) */\n      mload(0x40)\n      dup1\n      dup4\n      dup2\n      mstore\n      0x20\n      add\n      dup3\n      dup2\n      mstore\n      0x20\n      add\n      swap3\n      pop\n      pop\n      pop\n      mload(0x40)\n      dup1\n      swap2\n      sub\n      swap1\n      log3\n        /* \"us-contracts/UniswapV2Pair.sol\":1252:1253  _ */\n      pop\n      pop\n      pop\n      pop\n      pop\n      pop\n      pop\n      pop\n      pop\n        /* \"us-contracts/UniswapV2Pair.sol\":1274:1275  1 */\n      0x01\n        /* \"us-contracts/UniswapV2Pair.sol\":1263:1271  unlocked */\n      0x0c\n        /* \"us-contracts/UniswapV2Pair.sol\":1263:1275  unlocked = 1 */\n      dup2\n      swap1\n      sstore\n      pop\n        /* \"us-contracts/UniswapV2Pair.sol\":6281:7747  function burn(address to)... */\n      swap2\n      pop\n      swap2\n      jump\t// out\n        /* \"us-contracts/UniswapV2ERC20.sol\":232:272  string public constant symbol = 'UNI-V2' */\n    tag_88:\n      mload(0x40)\n      dup1\n      0x40\n      add\n      0x40\n      mstore\n      dup1\n      0x06\n      dup2\n      mstore\n      0x20\n      add\n      0x554e492d56320000000000000000000000000000000000000000000000000000\n      dup2\n      mstore\n      pop\n      dup2\n      jump\t// out\n        /* \"us-contracts/UniswapV2ERC20.sol\":2327:2463  function transfer(address to, uint value) external returns (bool) {... */\n    tag_95:\n        /* \"us-contracts/UniswapV2ERC20.sol\":2387:2391  bool */\n      0x00\n        /* \"us-contracts/UniswapV2ERC20.sol\":2403:2435  _transfer(msg.sender, to, value) */\n      tag_232\n        /* \"us-contracts/UniswapV2ERC20.sol\":2413:2423  msg.sender */\n      caller\n        /* \"us-contracts/UniswapV2ERC20.sol\":2425:2427  to */\n      dup5\n        /* \"us-contracts/UniswapV2ERC20.sol\":2429:2434  value */\n      dup5\n        /* \"us-contracts/UniswapV2ERC20.sol\":2403:2412  _transfer */\n      tag_165\n        /* \"us-contracts/UniswapV2ERC20.sol\":2403:2435  _transfer(msg.sender, to, value) */\n      jump\t// in\n    tag_232:\n        /* \"us-contracts/UniswapV2ERC20.sol\":2452:2456  true */\n      0x01\n        /* \"us-contracts/UniswapV2ERC20.sol\":2445:2456  return true */\n      swap1\n      pop\n        /* \"us-contracts/UniswapV2ERC20.sol\":2327:2463  function transfer(address to, uint value) external returns (bool) {... */\n      swap3\n      swap2\n      pop\n      pop\n      jump\t// out\n        /* \"us-contracts/UniswapV2Pair.sol\":419:468  uint256 public constant MINIMUM_LIQUIDITY = 10**3 */\n    tag_97:\n        /* \"us-contracts/UniswapV2Pair.sol\":463:468  10**3 */\n      0x03e8\n        /* \"us-contracts/UniswapV2Pair.sol\":419:468  uint256 public constant MINIMUM_LIQUIDITY = 10**3 */\n      dup2\n      jump\t// out\n        /* \"us-contracts/UniswapV2Pair.sol\":10227:10648  function skim(address to) external lock {... */\n    tag_100:\n        /* \"us-contracts/UniswapV2Pair.sol\":1197:1198  1 */\n      0x01\n        /* \"us-contracts/UniswapV2Pair.sol\":1185:1193  unlocked */\n      sload(0x0c)\n        /* \"us-contracts/UniswapV2Pair.sol\":1185:1198  unlocked == 1 */\n      eq\n        /* \"us-contracts/UniswapV2Pair.sol\":1177:1220  require(unlocked == 1, \"UniswapV2: LOCKED\") */\n      tag_234\n      jumpi\n      mload(0x40)\n      0x08c379a000000000000000000000000000000000000000000000000000000000\n      dup2\n      mstore\n      0x04\n      add\n      dup1\n      dup1\n      0x20\n      add\n      dup3\n      dup2\n      sub\n      dup3\n      mstore\n      0x11\n      dup2\n      mstore\n      0x20\n      add\n      dup1\n      0x556e697377617056323a204c4f434b4544000000000000000000000000000000\n      dup2\n      mstore\n      pop\n      0x20\n      add\n      swap2\n      pop\n      pop\n      mload(0x40)\n      dup1\n      swap2\n      sub\n      swap1\n      revert\n    tag_234:\n        /* \"us-contracts/UniswapV2Pair.sol\":1241:1242  0 */\n      0x00\n        /* \"us-contracts/UniswapV2Pair.sol\":1230:1238  unlocked */\n      0x0c\n        /* \"us-contracts/UniswapV2Pair.sol\":1230:1242  unlocked = 0 */\n      dup2\n      swap1\n      sstore\n      pop\n        /* \"us-contracts/UniswapV2Pair.sol\":10277:10292  address _token0 */\n      0x00\n        /* \"us-contracts/UniswapV2Pair.sol\":10295:10301  token0 */\n      0x06\n      0x00\n      swap1\n      sload\n      swap1\n      0x0100\n      exp\n      swap1\n      div\n      0xffffffffffffffffffffffffffffffffffffffff\n      and\n        /* \"us-contracts/UniswapV2Pair.sol\":10277:10301  address _token0 = token0 */\n      swap1\n      pop\n        /* \"us-contracts/UniswapV2Pair.sol\":10326:10341  address _token1 */\n      0x00\n        /* \"us-contracts/UniswapV2Pair.sol\":10344:10350  token1 */\n      0x07\n      0x00\n      swap1\n      sload\n      swap1\n      0x0100\n      exp\n      swap1\n      div\n      0xffffffffffffffffffffffffffffffffffffffff\n      and\n        /* \"us-contracts/UniswapV2Pair.sol\":10326:10350  address _token1 = token1 */\n      swap1\n      pop\n        /* \"us-contracts/UniswapV2Pair.sol\":10375:10503  _safeTransfer(... */\n      tag_236\n        /* \"us-contracts/UniswapV2Pair.sol\":10402:10409  _token0 */\n      dup3\n        /* \"us-contracts/UniswapV2Pair.sol\":10423:10425  to */\n      dup5\n        /* \"us-contracts/UniswapV2Pair.sol\":10439:10493  IERC20(_token0).balanceOf(address(this)).sub(reserve0) */\n      tag_237\n        /* \"us-contracts/UniswapV2Pair.sol\":10484:10492  reserve0 */\n      0x08\n      0x00\n      swap1\n      sload\n      swap1\n      0x0100\n      exp\n      swap1\n      div\n      0xffffffffffffffffffffffffffff\n      and\n        /* \"us-contracts/UniswapV2Pair.sol\":10439:10493  IERC20(_token0).balanceOf(address(this)).sub(reserve0) */\n      0xffffffffffffffffffffffffffff\n      and\n        /* \"us-contracts/UniswapV2Pair.sol\":10446:10453  _token0 */\n      dup7\n        /* \"us-contracts/UniswapV2Pair.sol\":10439:10464  IERC20(_token0).balanceOf */\n      0xffffffffffffffffffffffffffffffffffffffff\n      and\n      0x70a08231\n        /* \"us-contracts/UniswapV2Pair.sol\":10473:10477  this */\n      address\n        /* \"us-contracts/UniswapV2Pair.sol\":10439:10479  IERC20(_token0).balanceOf(address(this)) */\n      mload(0x40)\n      dup3\n      0xffffffff\n      and\n      0xe0\n      shl\n      dup2\n      mstore\n      0x04\n      add\n      dup1\n      dup3\n      0xffffffffffffffffffffffffffffffffffffffff\n      and\n      0xffffffffffffffffffffffffffffffffffffffff\n      and\n      dup2\n      mstore\n      0x20\n      add\n      swap2\n      pop\n      pop\n      0x20\n      mload(0x40)\n      dup1\n      dup4\n      sub\n      dup2\n      dup7\n      dup1\n      extcodesize\n      iszero\n        /* \"--CODEGEN--\":8:17   */\n      dup1\n        /* \"--CODEGEN--\":5:7   */\n      iszero\n      tag_238\n      jumpi\n        /* \"--CODEGEN--\":30:31   */\n      0x00\n        /* \"--CODEGEN--\":27:28   */\n      dup1\n        /* \"--CODEGEN--\":20:32   */\n      revert\n        /* \"--CODEGEN--\":5:7   */\n    tag_238:\n        /* \"us-contracts/UniswapV2Pair.sol\":10439:10479  IERC20(_token0).balanceOf(address(this)) */\n      pop\n      gas\n      staticcall\n      iszero\n        /* \"--CODEGEN--\":8:17   */\n      dup1\n        /* \"--CODEGEN--\":5:7   */\n      iszero\n      tag_239\n      jumpi\n        /* \"--CODEGEN--\":45:61   */\n      returndatasize\n        /* \"--CODEGEN--\":42:43   */\n      0x00\n        /* \"--CODEGEN--\":39:40   */\n      dup1\n        /* \"--CODEGEN--\":24:62   */\n      returndatacopy\n        /* \"--CODEGEN--\":77:93   */\n      returndatasize\n        /* \"--CODEGEN--\":74:75   */\n      0x00\n        /* \"--CODEGEN--\":67:94   */\n      revert\n        /* \"--CODEGEN--\":5:7   */\n    tag_239:\n        /* \"us-contracts/UniswapV2Pair.sol\":10439:10479  IERC20(_token0).balanceOf(address(this)) */\n      pop\n      pop\n      pop\n      pop\n      mload(0x40)\n      returndatasize\n        /* \"--CODEGEN--\":13:15   */\n      0x20\n        /* \"--CODEGEN--\":8:11   */\n      dup2\n        /* \"--CODEGEN--\":5:16   */\n      lt\n        /* \"--CODEGEN--\":2:4   */\n      iszero\n      tag_240\n      jumpi\n        /* \"--CODEGEN--\":29:30   */\n      0x00\n        /* \"--CODEGEN--\":26:27   */\n      dup1\n        /* \"--CODEGEN--\":19:31   */\n      revert\n        /* \"--CODEGEN--\":2:4   */\n    tag_240:\n        /* \"us-contracts/UniswapV2Pair.sol\":10439:10479  IERC20(_token0).balanceOf(address(this)) */\n      dup2\n      add\n      swap1\n      dup1\n      dup1\n      mload\n      swap1\n      0x20\n      add\n      swap1\n      swap3\n      swap2\n      swap1\n      pop\n      pop\n      pop\n        /* \"us-contracts/UniswapV2Pair.sol\":10439:10483  IERC20(_token0).balanceOf(address(this)).sub */\n      tag_147\n      swap1\n        /* \"us-contracts/UniswapV2Pair.sol\":10439:10493  IERC20(_token0).balanceOf(address(this)).sub(reserve0) */\n      swap2\n      swap1\n      0xffffffff\n      and\n      jump\t// in\n    tag_237:\n        /* \"us-contracts/UniswapV2Pair.sol\":10375:10388  _safeTransfer */\n      tag_125\n        /* \"us-contracts/UniswapV2Pair.sol\":10375:10503  _safeTransfer(... */\n      jump\t// in\n    tag_236:\n        /* \"us-contracts/UniswapV2Pair.sol\":10513:10641  _safeTransfer(... */\n      tag_241\n        /* \"us-contracts/UniswapV2Pair.sol\":10540:10547  _token1 */\n      dup2\n        /* \"us-contracts/UniswapV2Pair.sol\":10561:10563  to */\n      dup5\n        /* \"us-contracts/UniswapV2Pair.sol\":10577:10631  IERC20(_token1).balanceOf(address(this)).sub(reserve1) */\n      tag_242\n        /* \"us-contracts/UniswapV2Pair.sol\":10622:10630  reserve1 */\n      0x08\n      0x0e\n      swap1\n      sload\n      swap1\n      0x0100\n      exp\n      swap1\n      div\n      0xffffffffffffffffffffffffffff\n      and\n        /* \"us-contracts/UniswapV2Pair.sol\":10577:10631  IERC20(_token1).balanceOf(address(this)).sub(reserve1) */\n      0xffffffffffffffffffffffffffff\n      and\n        /* \"us-contracts/UniswapV2Pair.sol\":10584:10591  _token1 */\n      dup6\n        /* \"us-contracts/UniswapV2Pair.sol\":10577:10602  IERC20(_token1).balanceOf */\n      0xffffffffffffffffffffffffffffffffffffffff\n      and\n      0x70a08231\n        /* \"us-contracts/UniswapV2Pair.sol\":10611:10615  this */\n      address\n        /* \"us-contracts/UniswapV2Pair.sol\":10577:10617  IERC20(_token1).balanceOf(address(this)) */\n      mload(0x40)\n      dup3\n      0xffffffff\n      and\n      0xe0\n      shl\n      dup2\n      mstore\n      0x04\n      add\n      dup1\n      dup3\n      0xffffffffffffffffffffffffffffffffffffffff\n      and\n      0xffffffffffffffffffffffffffffffffffffffff\n      and\n      dup2\n      mstore\n      0x20\n      add\n      swap2\n      pop\n      pop\n      0x20\n      mload(0x40)\n      dup1\n      dup4\n      sub\n      dup2\n      dup7\n      dup1\n      extcodesize\n      iszero\n        /* \"--CODEGEN--\":8:17   */\n      dup1\n        /* \"--CODEGEN--\":5:7   */\n      iszero\n      tag_243\n      jumpi\n        /* \"--CODEGEN--\":30:31   */\n      0x00\n        /* \"--CODEGEN--\":27:28   */\n      dup1\n        /* \"--CODEGEN--\":20:32   */\n      revert\n        /* \"--CODEGEN--\":5:7   */\n    tag_243:\n        /* \"us-contracts/UniswapV2Pair.sol\":10577:10617  IERC20(_token1).balanceOf(address(this)) */\n      pop\n      gas\n      staticcall\n      iszero\n        /* \"--CODEGEN--\":8:17   */\n      dup1\n        /* \"--CODEGEN--\":5:7   */\n      iszero\n      tag_244\n      jumpi\n        /* \"--CODEGEN--\":45:61   */\n      returndatasize\n        /* \"--CODEGEN--\":42:43   */\n      0x00\n        /* \"--CODEGEN--\":39:40   */\n      dup1\n        /* \"--CODEGEN--\":24:62   */\n      returndatacopy\n        /* \"--CODEGEN--\":77:93   */\n      returndatasize\n        /* \"--CODEGEN--\":74:75   */\n      0x00\n        /* \"--CODEGEN--\":67:94   */\n      revert\n        /* \"--CODEGEN--\":5:7   */\n    tag_244:\n        /* \"us-contracts/UniswapV2Pair.sol\":10577:10617  IERC20(_token1).balanceOf(address(this)) */\n      pop\n      pop\n      pop\n      pop\n      mload(0x40)\n      returndatasize\n        /* \"--CODEGEN--\":13:15   */\n      0x20\n        /* \"--CODEGEN--\":8:11   */\n      dup2\n        /* \"--CODEGEN--\":5:16   */\n      lt\n        /* \"--CODEGEN--\":2:4   */\n      iszero\n      tag_245\n      jumpi\n        /* \"--CODEGEN--\":29:30   */\n      0x00\n        /* \"--CODEGEN--\":26:27   */\n      dup1\n        /* \"--CODEGEN--\":19:31   */\n      revert\n        /* \"--CODEGEN--\":2:4   */\n    tag_245:\n        /* \"us-contracts/UniswapV2Pair.sol\":10577:10617  IERC20(_token1).balanceOf(address(this)) */\n      dup2\n      add\n      swap1\n      dup1\n      dup1\n      mload\n      swap1\n      0x20\n      add\n      swap1\n      swap3\n      swap2\n      swap1\n      pop\n      pop\n      pop\n        /* \"us-contracts/UniswapV2Pair.sol\":10577:10621  IERC20(_token1).balanceOf(address(this)).sub */\n      tag_147\n      swap1\n        /* \"us-contracts/UniswapV2Pair.sol\":10577:10631  IERC20(_token1).balanceOf(address(this)).sub(reserve1) */\n      swap2\n      swap1\n      0xffffffff\n      and\n      jump\t// in\n    tag_242:\n        /* \"us-contracts/UniswapV2Pair.sol\":10513:10526  _safeTransfer */\n      tag_125\n        /* \"us-contracts/UniswapV2Pair.sol\":10513:10641  _safeTransfer(... */\n      jump\t// in\n    tag_241:\n        /* \"us-contracts/UniswapV2Pair.sol\":1252:1253  _ */\n      pop\n      pop\n        /* \"us-contracts/UniswapV2Pair.sol\":1274:1275  1 */\n      0x01\n        /* \"us-contracts/UniswapV2Pair.sol\":1263:1271  unlocked */\n      0x0c\n        /* \"us-contracts/UniswapV2Pair.sol\":1263:1275  unlocked = 1 */\n      dup2\n      swap1\n      sstore\n      pop\n        /* \"us-contracts/UniswapV2Pair.sol\":10227:10648  function skim(address to) external lock {... */\n      pop\n      jump\t// out\n        /* \"us-contracts/UniswapV2Pair.sol\":577:599  address public factory */\n    tag_102:\n      0x05\n      0x00\n      swap1\n      sload\n      swap1\n      0x0100\n      exp\n      swap1\n      div\n      0xffffffffffffffffffffffffffffffffffffffff\n      and\n      dup2\n      jump\t// out\n        /* \"us-contracts/UniswapV2Pair.sol\":632:653  address public token1 */\n    tag_104:\n      0x07\n      0x00\n      swap1\n      sload\n      swap1\n      0x0100\n      exp\n      swap1\n      div\n      0xffffffffffffffffffffffffffffffffffffffff\n      and\n      dup2\n      jump\t// out\n        /* \"us-contracts/UniswapV2ERC20.sol\":2770:3432  function permit(address owner, address spender, uint value, uint deadline, uint8 v, bytes32 r, bytes32 s) external {... */\n    tag_107:\n        /* \"us-contracts/UniswapV2ERC20.sol\":2915:2930  block.timestamp */\n      timestamp\n        /* \"us-contracts/UniswapV2ERC20.sol\":2903:2911  deadline */\n      dup5\n        /* \"us-contracts/UniswapV2ERC20.sol\":2903:2930  deadline >= block.timestamp */\n      lt\n      iszero\n        /* \"us-contracts/UniswapV2ERC20.sol\":2895:2953  require(deadline >= block.timestamp, 'UniswapV2: EXPIRED') */\n      tag_247\n      jumpi\n      mload(0x40)\n      0x08c379a000000000000000000000000000000000000000000000000000000000\n      dup2\n      mstore\n      0x04\n      add\n      dup1\n      dup1\n      0x20\n      add\n      dup3\n      dup2\n      sub\n      dup3\n      mstore\n      0x12\n      dup2\n      mstore\n      0x20\n      add\n      dup1\n      0x556e697377617056323a20455850495245440000000000000000000000000000\n      dup2\n      mstore\n      pop\n      0x20\n      add\n      swap2\n      pop\n      pop\n      mload(0x40)\n      dup1\n      swap2\n      sub\n      swap1\n      revert\n    tag_247:\n        /* \"us-contracts/UniswapV2ERC20.sol\":2963:2977  bytes32 digest */\n      0x00\n        /* \"us-contracts/UniswapV2ERC20.sol\":3065:3081  DOMAIN_SEPARATOR */\n      sload(0x03)\n        /* \"us-contracts/UniswapV2ERC20.sol\":647:713  0x6e71edae12b1b97f4d1f60370fef10105fa2faae0126114a169c64845d6126c9 */\n      0x6e71edae12b1b97f4d1f60370fef10105fa2faae0126114a169c64845d6126c9\n        /* \"us-contracts/UniswapV2ERC20.sol\":3120:3135  PERMIT_TYPEHASH */\n      0x00\n      shl\n        /* \"us-contracts/UniswapV2ERC20.sol\":3137:3142  owner */\n      dup10\n        /* \"us-contracts/UniswapV2ERC20.sol\":3144:3151  spender */\n      dup10\n        /* \"us-contracts/UniswapV2ERC20.sol\":3153:3158  value */\n      dup10\n        /* \"us-contracts/UniswapV2ERC20.sol\":3160:3166  nonces */\n      0x04\n        /* \"us-contracts/UniswapV2ERC20.sol\":3160:3173  nonces[owner] */\n      0x00\n        /* \"us-contracts/UniswapV2ERC20.sol\":3167:3172  owner */\n      dup15\n        /* \"us-contracts/UniswapV2ERC20.sol\":3160:3173  nonces[owner] */\n      0xffffffffffffffffffffffffffffffffffffffff\n      and\n      0xffffffffffffffffffffffffffffffffffffffff\n      and\n      dup2\n      mstore\n      0x20\n      add\n      swap1\n      dup2\n      mstore\n      0x20\n      add\n      0x00\n      keccak256\n      0x00\n        /* \"us-contracts/UniswapV2ERC20.sol\":3160:3175  nonces[owner]++ */\n      dup2\n      sload\n      dup1\n      swap3\n      swap2\n      swap1\n      0x01\n      add\n      swap2\n      swap1\n      pop\n      sstore\n        /* \"us-contracts/UniswapV2ERC20.sol\":3177:3185  deadline */\n      dup11\n        /* \"us-contracts/UniswapV2ERC20.sol\":3109:3186  abi.encode(PERMIT_TYPEHASH, owner, spender, value, nonces[owner]++, deadline) */\n      add(0x20, mload(0x40))\n      dup1\n      dup8\n      dup2\n      mstore\n      0x20\n      add\n      dup7\n      0xffffffffffffffffffffffffffffffffffffffff\n      and\n      0xffffffffffffffffffffffffffffffffffffffff\n      and\n      dup2\n      mstore\n      0x20\n      add\n      dup6\n      0xffffffffffffffffffffffffffffffffffffffff\n      and\n      0xffffffffffffffffffffffffffffffffffffffff\n      and\n      dup2\n      mstore\n      0x20\n      add\n      dup5\n      dup2\n      mstore\n      0x20\n      add\n      dup4\n      dup2\n      mstore\n      0x20\n      add\n      dup3\n      dup2\n      mstore\n      0x20\n      add\n      swap7\n      pop\n      pop\n      pop\n      pop\n      pop\n      pop\n      pop\n      mload(0x40)\n        /* \"--CODEGEN--\":49:53   */\n      0x20\n        /* \"--CODEGEN--\":39:46   */\n      dup2\n        /* \"--CODEGEN--\":30:37   */\n      dup4\n        /* \"--CODEGEN--\":26:47   */\n      sub\n        /* \"--CODEGEN--\":22:54   */\n      sub\n        /* \"--CODEGEN--\":13:20   */\n      dup2\n        /* \"--CODEGEN--\":6:55   */\n      mstore\n        /* \"us-contracts/UniswapV2ERC20.sol\":3109:3186  abi.encode(PERMIT_TYPEHASH, owner, spender, value, nonces[owner]++, deadline) */\n      swap1\n      0x40\n      mstore\n        /* \"us-contracts/UniswapV2ERC20.sol\":3099:3187  keccak256(abi.encode(PERMIT_TYPEHASH, owner, spender, value, nonces[owner]++, deadline)) */\n      dup1\n      mload\n      swap1\n      0x20\n      add\n      keccak256\n        /* \"us-contracts/UniswapV2ERC20.sol\":3003:3201  abi.encodePacked(... */\n      add(0x20, mload(0x40))\n      dup1\n      dup1\n      0x1901000000000000000000000000000000000000000000000000000000000000\n      dup2\n      mstore\n      pop\n      0x02\n      add\n      dup4\n      dup2\n      mstore\n      0x20\n      add\n      dup3\n      dup2\n      mstore\n      0x20\n      add\n      swap3\n      pop\n      pop\n      pop\n      mload(0x40)\n        /* \"--CODEGEN--\":49:53   */\n      0x20\n        /* \"--CODEGEN--\":39:46   */\n      dup2\n        /* \"--CODEGEN--\":30:37   */\n      dup4\n        /* \"--CODEGEN--\":26:47   */\n      sub\n        /* \"--CODEGEN--\":22:54   */\n      sub\n        /* \"--CODEGEN--\":13:20   */\n      dup2\n        /* \"--CODEGEN--\":6:55   */\n      mstore\n        /* \"us-contracts/UniswapV2ERC20.sol\":3003:3201  abi.encodePacked(... */\n      swap1\n      0x40\n      mstore\n        /* \"us-contracts/UniswapV2ERC20.sol\":2980:3211  keccak256(... */\n      dup1\n      mload\n      swap1\n      0x20\n      add\n      keccak256\n        /* \"us-contracts/UniswapV2ERC20.sol\":2963:3211  bytes32 digest = keccak256(... */\n      swap1\n      pop\n        /* \"us-contracts/UniswapV2ERC20.sol\":3221:3245  address recoveredAddress */\n      0x00\n        /* \"us-contracts/UniswapV2ERC20.sol\":3248:3274  ecrecover(digest, v, r, s) */\n      0x01\n        /* \"us-contracts/UniswapV2ERC20.sol\":3258:3264  digest */\n      dup3\n        /* \"us-contracts/UniswapV2ERC20.sol\":3266:3267  v */\n      dup7\n        /* \"us-contracts/UniswapV2ERC20.sol\":3269:3270  r */\n      dup7\n        /* \"us-contracts/UniswapV2ERC20.sol\":3272:3273  s */\n      dup7\n        /* \"us-contracts/UniswapV2ERC20.sol\":3248:3274  ecrecover(digest, v, r, s) */\n      mload(0x40)\n      0x00\n      dup2\n      mstore\n      0x20\n      add\n      0x40\n      mstore\n      mload(0x40)\n      dup1\n      dup6\n      dup2\n      mstore\n      0x20\n      add\n      dup5\n      0xff\n      and\n      0xff\n      and\n      dup2\n      mstore\n      0x20\n      add\n      dup4\n      dup2\n      mstore\n      0x20\n      add\n      dup3\n      dup2\n      mstore\n      0x20\n      add\n      swap5\n      pop\n      pop\n      pop\n      pop\n      pop\n      0x20\n      mload(0x40)\n      0x20\n      dup2\n      sub\n      swap1\n      dup1\n      dup5\n      sub\n      swap1\n      dup6\n      gas\n      staticcall\n      iszero\n        /* \"--CODEGEN--\":8:17   */\n      dup1\n        /* \"--CODEGEN--\":5:7   */\n      iszero\n      tag_248\n      jumpi\n        /* \"--CODEGEN--\":45:61   */\n      returndatasize\n        /* \"--CODEGEN--\":42:43   */\n      0x00\n        /* \"--CODEGEN--\":39:40   */\n      dup1\n        /* \"--CODEGEN--\":24:62   */\n      returndatacopy\n        /* \"--CODEGEN--\":77:93   */\n      returndatasize\n        /* \"--CODEGEN--\":74:75   */\n      0x00\n        /* \"--CODEGEN--\":67:94   */\n      revert\n        /* \"--CODEGEN--\":5:7   */\n    tag_248:\n        /* \"us-contracts/UniswapV2ERC20.sol\":3248:3274  ecrecover(digest, v, r, s) */\n      pop\n      pop\n      pop\n      mload(sub(mload(0x40), 0x20))\n        /* \"us-contracts/UniswapV2ERC20.sol\":3221:3274  address recoveredAddress = ecrecover(digest, v, r, s) */\n      swap1\n      pop\n        /* \"us-contracts/UniswapV2ERC20.sol\":3320:3321  0 */\n      0x00\n        /* \"us-contracts/UniswapV2ERC20.sol\":3292:3322  recoveredAddress != address(0) */\n      0xffffffffffffffffffffffffffffffffffffffff\n      and\n        /* \"us-contracts/UniswapV2ERC20.sol\":3292:3308  recoveredAddress */\n      dup2\n        /* \"us-contracts/UniswapV2ERC20.sol\":3292:3322  recoveredAddress != address(0) */\n      0xffffffffffffffffffffffffffffffffffffffff\n      and\n      eq\n      iszero\n        /* \"us-contracts/UniswapV2ERC20.sol\":3292:3351  recoveredAddress != address(0) && recoveredAddress == owner */\n      dup1\n      iszero\n      tag_249\n      jumpi\n      pop\n        /* \"us-contracts/UniswapV2ERC20.sol\":3346:3351  owner */\n      dup9\n        /* \"us-contracts/UniswapV2ERC20.sol\":3326:3351  recoveredAddress == owner */\n      0xffffffffffffffffffffffffffffffffffffffff\n      and\n        /* \"us-contracts/UniswapV2ERC20.sol\":3326:3342  recoveredAddress */\n      dup2\n        /* \"us-contracts/UniswapV2ERC20.sol\":3326:3351  recoveredAddress == owner */\n      0xffffffffffffffffffffffffffffffffffffffff\n      and\n      eq\n        /* \"us-contracts/UniswapV2ERC20.sol\":3292:3351  recoveredAddress != address(0) && recoveredAddress == owner */\n    tag_249:\n        /* \"us-contracts/UniswapV2ERC20.sol\":3284:3384  require(recoveredAddress != address(0) && recoveredAddress == owner, 'UniswapV2: INVALID_SIGNATURE') */\n      tag_250\n      jumpi\n      mload(0x40)\n      0x08c379a000000000000000000000000000000000000000000000000000000000\n      dup2\n      mstore\n      0x04\n      add\n      dup1\n      dup1\n      0x20\n      add\n      dup3\n      dup2\n      sub\n      dup3\n      mstore\n      0x1c\n      dup2\n      mstore\n      0x20\n      add\n      dup1\n      0x556e697377617056323a20494e56414c49445f5349474e415455524500000000\n      dup2\n      mstore\n      pop\n      0x20\n      add\n      swap2\n      pop\n      pop\n      mload(0x40)\n      dup1\n      swap2\n      sub\n      swap1\n      revert\n    tag_250:\n        /* \"us-contracts/UniswapV2ERC20.sol\":3394:3425  _approve(owner, spender, value) */\n      tag_251\n        /* \"us-contracts/UniswapV2ERC20.sol\":3403:3408  owner */\n      dup10\n        /* \"us-contracts/UniswapV2ERC20.sol\":3410:3417  spender */\n      dup10\n        /* \"us-contracts/UniswapV2ERC20.sol\":3419:3424  value */\n      dup10\n        /* \"us-contracts/UniswapV2ERC20.sol\":3394:3402  _approve */\n      tag_160\n        /* \"us-contracts/UniswapV2ERC20.sol\":3394:3425  _approve(owner, spender, value) */\n      jump\t// in\n    tag_251:\n        /* \"us-contracts/UniswapV2ERC20.sol\":2770:3432  function permit(address owner, address spender, uint value, uint deadline, uint8 v, bytes32 r, bytes32 s) external {... */\n      pop\n      pop\n      pop\n      pop\n      pop\n      pop\n      pop\n      pop\n      pop\n      jump\t// out\n        /* \"us-contracts/UniswapV2ERC20.sol\":396:457  mapping(address => mapping(address => uint)) public allowance */\n    tag_110:\n      mstore(0x20, 0x02)\n      dup2\n      0x00\n      mstore\n      mstore(0x20, keccak256(0x00, 0x40))\n      dup1\n      0x00\n      mstore\n      keccak256(0x00, 0x40)\n      0x00\n      swap2\n      pop\n      swap2\n      pop\n      pop\n      sload\n      dup2\n      jump\t// out\n        /* \"us-contracts/UniswapV2Pair.sol\":10694:10908  function sync() external lock {... */\n    tag_112:\n        /* \"us-contracts/UniswapV2Pair.sol\":1197:1198  1 */\n      0x01\n        /* \"us-contracts/UniswapV2Pair.sol\":1185:1193  unlocked */\n      sload(0x0c)\n        /* \"us-contracts/UniswapV2Pair.sol\":1185:1198  unlocked == 1 */\n      eq\n        /* \"us-contracts/UniswapV2Pair.sol\":1177:1220  require(unlocked == 1, \"UniswapV2: LOCKED\") */\n      tag_253\n      jumpi\n      mload(0x40)\n      0x08c379a000000000000000000000000000000000000000000000000000000000\n      dup2\n      mstore\n      0x04\n      add\n      dup1\n      dup1\n      0x20\n      add\n      dup3\n      dup2\n      sub\n      dup3\n      mstore\n      0x11\n      dup2\n      mstore\n      0x20\n      add\n      dup1\n      0x556e697377617056323a204c4f434b4544000000000000000000000000000000\n      dup2\n      mstore\n      pop\n      0x20\n      add\n      swap2\n      pop\n      pop\n      mload(0x40)\n      dup1\n      swap2\n      sub\n      swap1\n      revert\n    tag_253:\n        /* \"us-contracts/UniswapV2Pair.sol\":1241:1242  0 */\n      0x00\n        /* \"us-contracts/UniswapV2Pair.sol\":1230:1238  unlocked */\n      0x0c\n        /* \"us-contracts/UniswapV2Pair.sol\":1230:1242  unlocked = 0 */\n      dup2\n      swap1\n      sstore\n      pop\n        /* \"us-contracts/UniswapV2Pair.sol\":10734:10901  _update(... */\n      tag_255\n        /* \"us-contracts/UniswapV2Pair.sol\":10762:10768  token0 */\n      0x06\n      0x00\n      swap1\n      sload\n      swap1\n      0x0100\n      exp\n      swap1\n      div\n      0xffffffffffffffffffffffffffffffffffffffff\n      and\n        /* \"us-contracts/UniswapV2Pair.sol\":10755:10779  IERC20(token0).balanceOf */\n      0xffffffffffffffffffffffffffffffffffffffff\n      and\n      0x70a08231\n        /* \"us-contracts/UniswapV2Pair.sol\":10788:10792  this */\n      address\n        /* \"us-contracts/UniswapV2Pair.sol\":10755:10794  IERC20(token0).balanceOf(address(this)) */\n      mload(0x40)\n      dup3\n      0xffffffff\n      and\n      0xe0\n      shl\n      dup2\n      mstore\n      0x04\n      add\n      dup1\n      dup3\n      0xffffffffffffffffffffffffffffffffffffffff\n      and\n      0xffffffffffffffffffffffffffffffffffffffff\n      and\n      dup2\n      mstore\n      0x20\n      add\n      swap2\n      pop\n      pop\n      0x20\n      mload(0x40)\n      dup1\n      dup4\n      sub\n      dup2\n      dup7\n      dup1\n      extcodesize\n      iszero\n        /* \"--CODEGEN--\":8:17   */\n      dup1\n        /* \"--CODEGEN--\":5:7   */\n      iszero\n      tag_256\n      jumpi\n        /* \"--CODEGEN--\":30:31   */\n      0x00\n        /* \"--CODEGEN--\":27:28   */\n      dup1\n        /* \"--CODEGEN--\":20:32   */\n      revert\n        /* \"--CODEGEN--\":5:7   */\n    tag_256:\n        /* \"us-contracts/UniswapV2Pair.sol\":10755:10794  IERC20(token0).balanceOf(address(this)) */\n      pop\n      gas\n      staticcall\n      iszero\n        /* \"--CODEGEN--\":8:17   */\n      dup1\n        /* \"--CODEGEN--\":5:7   */\n      iszero\n      tag_257\n      jumpi\n        /* \"--CODEGEN--\":45:61   */\n      returndatasize\n        /* \"--CODEGEN--\":42:43   */\n      0x00\n        /* \"--CODEGEN--\":39:40   */\n      dup1\n        /* \"--CODEGEN--\":24:62   */\n      returndatacopy\n        /* \"--CODEGEN--\":77:93   */\n      returndatasize\n        /* \"--CODEGEN--\":74:75   */\n      0x00\n        /* \"--CODEGEN--\":67:94   */\n      revert\n        /* \"--CODEGEN--\":5:7   */\n    tag_257:\n        /* \"us-contracts/UniswapV2Pair.sol\":10755:10794  IERC20(token0).balanceOf(address(this)) */\n      pop\n      pop\n      pop\n      pop\n      mload(0x40)\n      returndatasize\n        /* \"--CODEGEN--\":13:15   */\n      0x20\n        /* \"--CODEGEN--\":8:11   */\n      dup2\n        /* \"--CODEGEN--\":5:16   */\n      lt\n        /* \"--CODEGEN--\":2:4   */\n      iszero\n      tag_258\n      jumpi\n        /* \"--CODEGEN--\":29:30   */\n      0x00\n        /* \"--CODEGEN--\":26:27   */\n      dup1\n        /* \"--CODEGEN--\":19:31   */\n      revert\n        /* \"--CODEGEN--\":2:4   */\n    tag_258:\n        /* \"us-contracts/UniswapV2Pair.sol\":10755:10794  IERC20(token0).balanceOf(address(this)) */\n      dup2\n      add\n      swap1\n      dup1\n      dup1\n      mload\n      swap1\n      0x20\n      add\n      swap1\n      swap3\n      swap2\n      swap1\n      pop\n      pop\n      pop\n        /* \"us-contracts/UniswapV2Pair.sol\":10815:10821  token1 */\n      0x07\n      0x00\n      swap1\n      sload\n      swap1\n      0x0100\n      exp\n      swap1\n      div\n      0xffffffffffffffffffffffffffffffffffffffff\n      and\n        /* \"us-contracts/UniswapV2Pair.sol\":10808:10832  IERC20(token1).balanceOf */\n      0xffffffffffffffffffffffffffffffffffffffff\n      and\n      0x70a08231\n        /* \"us-contracts/UniswapV2Pair.sol\":10841:10845  this */\n      address\n        /* \"us-contracts/UniswapV2Pair.sol\":10808:10847  IERC20(token1).balanceOf(address(this)) */\n      mload(0x40)\n      dup3\n      0xffffffff\n      and\n      0xe0\n      shl\n      dup2\n      mstore\n      0x04\n      add\n      dup1\n      dup3\n      0xffffffffffffffffffffffffffffffffffffffff\n      and\n      0xffffffffffffffffffffffffffffffffffffffff\n      and\n      dup2\n      mstore\n      0x20\n      add\n      swap2\n      pop\n      pop\n      0x20\n      mload(0x40)\n      dup1\n      dup4\n      sub\n      dup2\n      dup7\n      dup1\n      extcodesize\n      iszero\n        /* \"--CODEGEN--\":8:17   */\n      dup1\n        /* \"--CODEGEN--\":5:7   */\n      iszero\n      tag_259\n      jumpi\n        /* \"--CODEGEN--\":30:31   */\n      0x00\n        /* \"--CODEGEN--\":27:28   */\n      dup1\n        /* \"--CODEGEN--\":20:32   */\n      revert\n        /* \"--CODEGEN--\":5:7   */\n    tag_259:\n        /* \"us-contracts/UniswapV2Pair.sol\":10808:10847  IERC20(token1).balanceOf(address(this)) */\n      pop\n      gas\n      staticcall\n      iszero\n        /* \"--CODEGEN--\":8:17   */\n      dup1\n        /* \"--CODEGEN--\":5:7   */\n      iszero\n      tag_260\n      jumpi\n        /* \"--CODEGEN--\":45:61   */\n      returndatasize\n        /* \"--CODEGEN--\":42:43   */\n      0x00\n        /* \"--CODEGEN--\":39:40   */\n      dup1\n        /* \"--CODEGEN--\":24:62   */\n      returndatacopy\n        /* \"--CODEGEN--\":77:93   */\n      returndatasize\n        /* \"--CODEGEN--\":74:75   */\n      0x00\n        /* \"--CODEGEN--\":67:94   */\n      revert\n        /* \"--CODEGEN--\":5:7   */\n    tag_260:\n        /* \"us-contracts/UniswapV2Pair.sol\":10808:10847  IERC20(token1).balanceOf(address(this)) */\n      pop\n      pop\n      pop\n      pop\n      mload(0x40)\n      returndatasize\n        /* \"--CODEGEN--\":13:15   */\n      0x20\n        /* \"--CODEGEN--\":8:11   */\n      dup2\n        /* \"--CODEGEN--\":5:16   */\n      lt\n        /* \"--CODEGEN--\":2:4   */\n      iszero\n      tag_261\n      jumpi\n        /* \"--CODEGEN--\":29:30   */\n      0x00\n        /* \"--CODEGEN--\":26:27   */\n      dup1\n        /* \"--CODEGEN--\":19:31   */\n      revert\n        /* \"--CODEGEN--\":2:4   */\n    tag_261:\n        /* \"us-contracts/UniswapV2Pair.sol\":10808:10847  IERC20(token1).balanceOf(address(this)) */\n      dup2\n      add\n      swap1\n      dup1\n      dup1\n      mload\n      swap1\n      0x20\n      add\n      swap1\n      swap3\n      swap2\n      swap1\n      pop\n      pop\n      pop\n        /* \"us-contracts/UniswapV2Pair.sol\":10861:10869  reserve0 */\n      0x08\n      0x00\n      swap1\n      sload\n      swap1\n      0x0100\n      exp\n      swap1\n      div\n      0xffffffffffffffffffffffffffff\n      and\n        /* \"us-contracts/UniswapV2Pair.sol\":10883:10891  reserve1 */\n      0x08\n      0x0e\n      swap1\n      sload\n      swap1\n      0x0100\n      exp\n      swap1\n      div\n      0xffffffffffffffffffffffffffff\n      and\n        /* \"us-contracts/UniswapV2Pair.sol\":10734:10741  _update */\n      tag_156\n        /* \"us-contracts/UniswapV2Pair.sol\":10734:10901  _update(... */\n      jump\t// in\n    tag_255:\n        /* \"us-contracts/UniswapV2Pair.sol\":1274:1275  1 */\n      0x01\n        /* \"us-contracts/UniswapV2Pair.sol\":1263:1271  unlocked */\n      0x0c\n        /* \"us-contracts/UniswapV2Pair.sol\":1263:1275  unlocked = 1 */\n      dup2\n      swap1\n      sstore\n      pop\n        /* \"us-contracts/UniswapV2Pair.sol\":10694:10908  function sync() external lock {... */\n      jump\t// out\n        /* \"us-contracts/UniswapV2Pair.sol\":1595:1968  function _safeTransfer(... */\n    tag_125:\n        /* \"us-contracts/UniswapV2Pair.sol\":1709:1721  bool success */\n      0x00\n        /* \"us-contracts/UniswapV2Pair.sol\":1723:1740  bytes memory data */\n      0x60\n        /* \"us-contracts/UniswapV2Pair.sol\":1744:1749  token */\n      dup5\n        /* \"us-contracts/UniswapV2Pair.sol\":1744:1754  token.call */\n      0xffffffffffffffffffffffffffffffffffffffff\n      and\n        /* \"us-contracts/UniswapV2Pair.sol\":534:568  bytes(\"transfer(address,uint256)\") */\n      mload(0x40)\n      dup1\n      0x40\n      add\n      0x40\n      mstore\n      dup1\n      0x19\n      dup2\n      mstore\n      0x20\n      add\n      0x7472616e7366657228616464726573732c75696e743235362900000000000000\n      dup2\n      mstore\n      pop\n        /* \"us-contracts/UniswapV2Pair.sol\":524:569  keccak256(bytes(\"transfer(address,uint256)\")) */\n      dup1\n      mload\n      swap1\n      0x20\n      add\n      keccak256\n        /* \"us-contracts/UniswapV2Pair.sol\":1801:1803  to */\n      dup6\n        /* \"us-contracts/UniswapV2Pair.sol\":1805:1810  value */\n      dup6\n        /* \"us-contracts/UniswapV2Pair.sol\":1768:1811  abi.encodeWithSelector(SELECTOR, to, value) */\n      add(0x24, mload(0x40))\n      dup1\n      dup4\n      0xffffffffffffffffffffffffffffffffffffffff\n      and\n      0xffffffffffffffffffffffffffffffffffffffff\n      and\n      dup2\n      mstore\n      0x20\n      add\n      dup3\n      dup2\n      mstore\n      0x20\n      add\n      swap3\n      pop\n      pop\n      pop\n      mload(0x40)\n        /* \"--CODEGEN--\":49:53   */\n      0x20\n        /* \"--CODEGEN--\":39:46   */\n      dup2\n        /* \"--CODEGEN--\":30:37   */\n      dup4\n        /* \"--CODEGEN--\":26:47   */\n      sub\n        /* \"--CODEGEN--\":22:54   */\n      sub\n        /* \"--CODEGEN--\":13:20   */\n      dup2\n        /* \"--CODEGEN--\":6:55   */\n      mstore\n        /* \"us-contracts/UniswapV2Pair.sol\":1768:1811  abi.encodeWithSelector(SELECTOR, to, value) */\n      swap1\n      0x40\n      mstore\n      swap1\n      not(0xffffffffffffffffffffffffffffffffffffffffffffffffffffffff)\n      and\n        /* \"--CODEGEN--\":38:42   */\n      0x20\n        /* \"--CODEGEN--\":29:36   */\n      dup3\n        /* \"--CODEGEN--\":25:43   */\n      add\n        /* \"--CODEGEN--\":67:77   */\n      dup1\n        /* \"--CODEGEN--\":61:78   */\n      mload\n        /* \"--CODEGEN--\":96:154   */\n      0xffffffffffffffffffffffffffffffffffffffffffffffffffffffff\n        /* \"--CODEGEN--\":199:207   */\n      dup4\n        /* \"--CODEGEN--\":192:196   */\n      dup2\n        /* \"--CODEGEN--\":186:190   */\n      dup4\n        /* \"--CODEGEN--\":182:197   */\n      and\n        /* \"--CODEGEN--\":179:208   */\n      or\n        /* \"--CODEGEN--\":167:177   */\n      dup4\n        /* \"--CODEGEN--\":160:209   */\n      mstore\n        /* \"--CODEGEN--\":0:215   */\n      pop\n      pop\n      pop\n        /* \"us-contracts/UniswapV2Pair.sol\":1768:1811  abi.encodeWithSelector(SELECTOR, to, value) */\n      pop\n        /* \"us-contracts/UniswapV2Pair.sol\":1744:1821  token.call(... */\n      mload(0x40)\n      dup1\n      dup3\n      dup1\n      mload\n      swap1\n      0x20\n      add\n      swap1\n      dup1\n      dup4\n      dup4\n        /* \"--CODEGEN--\":36:189   */\n    tag_263:\n        /* \"--CODEGEN--\":66:68   */\n      0x20\n        /* \"--CODEGEN--\":61:64   */\n      dup4\n        /* \"--CODEGEN--\":58:69   */\n      lt\n        /* \"--CODEGEN--\":36:189   */\n      tag_265\n      jumpi\n        /* \"--CODEGEN--\":182:185   */\n      dup1\n        /* \"--CODEGEN--\":176:186   */\n      mload\n        /* \"--CODEGEN--\":171:174   */\n      dup3\n        /* \"--CODEGEN--\":164:187   */\n      mstore\n        /* \"--CODEGEN--\":98:100   */\n      0x20\n        /* \"--CODEGEN--\":93:96   */\n      dup3\n        /* \"--CODEGEN--\":89:101   */\n      add\n        /* \"--CODEGEN--\":82:101   */\n      swap2\n      pop\n        /* \"--CODEGEN--\":123:125   */\n      0x20\n        /* \"--CODEGEN--\":118:121   */\n      dup2\n        /* \"--CODEGEN--\":114:126   */\n      add\n        /* \"--CODEGEN--\":107:126   */\n      swap1\n      pop\n        /* \"--CODEGEN--\":148:150   */\n      0x20\n        /* \"--CODEGEN--\":143:146   */\n      dup4\n        /* \"--CODEGEN--\":139:151   */\n      sub\n        /* \"--CODEGEN--\":132:151   */\n      swap3\n      pop\n        /* \"--CODEGEN--\":36:189   */\n      jump(tag_263)\n    tag_265:\n        /* \"--CODEGEN--\":274:275   */\n      0x01\n        /* \"--CODEGEN--\":267:270   */\n      dup4\n        /* \"--CODEGEN--\":263:265   */\n      0x20\n        /* \"--CODEGEN--\":259:271   */\n      sub\n        /* \"--CODEGEN--\":254:257   */\n      0x0100\n        /* \"--CODEGEN--\":250:272   */\n      exp\n        /* \"--CODEGEN--\":246:276   */\n      sub\n        /* \"--CODEGEN--\":315:319   */\n      dup1\n        /* \"--CODEGEN--\":311:320   */\n      not\n        /* \"--CODEGEN--\":305:308   */\n      dup3\n        /* \"--CODEGEN--\":299:309   */\n      mload\n        /* \"--CODEGEN--\":295:321   */\n      and\n        /* \"--CODEGEN--\":356:360   */\n      dup2\n        /* \"--CODEGEN--\":350:353   */\n      dup5\n        /* \"--CODEGEN--\":344:354   */\n      mload\n        /* \"--CODEGEN--\":340:361   */\n      and\n        /* \"--CODEGEN--\":389:396   */\n      dup1\n        /* \"--CODEGEN--\":380:387   */\n      dup3\n        /* \"--CODEGEN--\":377:397   */\n      or\n        /* \"--CODEGEN--\":372:375   */\n      dup6\n        /* \"--CODEGEN--\":365:398   */\n      mstore\n        /* \"--CODEGEN--\":3:402   */\n      pop\n      pop\n      pop\n        /* \"us-contracts/UniswapV2Pair.sol\":1744:1821  token.call(... */\n      pop\n      pop\n      pop\n      swap1\n      pop\n      add\n      swap2\n      pop\n      pop\n      0x00\n      mload(0x40)\n      dup1\n      dup4\n      sub\n      dup2\n      0x00\n      dup7\n      gas\n      call\n      swap2\n      pop\n      pop\n      returndatasize\n        /* \"--CODEGEN--\":14:15   */\n      dup1\n        /* \"--CODEGEN--\":21:22   */\n      0x00\n        /* \"--CODEGEN--\":16:47   */\n      dup2\n      eq\n      tag_267\n      jumpi\n        /* \"--CODEGEN--\":75:79   */\n      0x40\n        /* \"--CODEGEN--\":69:80   */\n      mload\n        /* \"--CODEGEN--\":64:80   */\n      swap2\n      pop\n        /* \"--CODEGEN--\":144:148   */\n      0x1f\n        /* \"--CODEGEN--\":140:149   */\n      not\n        /* \"--CODEGEN--\":133:137   */\n      0x3f\n        /* \"--CODEGEN--\":115:131   */\n      returndatasize\n        /* \"--CODEGEN--\":111:138   */\n      add\n        /* \"--CODEGEN--\":107:150   */\n      and\n        /* \"--CODEGEN--\":104:105   */\n      dup3\n        /* \"--CODEGEN--\":100:151   */\n      add\n        /* \"--CODEGEN--\":94:98   */\n      0x40\n        /* \"--CODEGEN--\":87:152   */\n      mstore\n        /* \"--CODEGEN--\":169:185   */\n      returndatasize\n        /* \"--CODEGEN--\":166:167   */\n      dup3\n        /* \"--CODEGEN--\":159:186   */\n      mstore\n        /* \"--CODEGEN--\":225:241   */\n      returndatasize\n        /* \"--CODEGEN--\":222:223   */\n      0x00\n        /* \"--CODEGEN--\":215:219   */\n      0x20\n        /* \"--CODEGEN--\":212:213   */\n      dup5\n        /* \"--CODEGEN--\":208:220   */\n      add\n        /* \"--CODEGEN--\":193:242   */\n      returndatacopy\n        /* \"--CODEGEN--\":7:249   */\n      jump(tag_266)\n        /* \"--CODEGEN--\":16:47   */\n    tag_267:\n        /* \"--CODEGEN--\":36:40   */\n      0x60\n        /* \"--CODEGEN--\":31:40   */\n      swap2\n      pop\n        /* \"--CODEGEN--\":7:249   */\n    tag_266:\n      pop\n        /* \"us-contracts/UniswapV2Pair.sol\":1708:1821  (bool success, bytes memory data) = token.call(... */\n      swap2\n      pop\n      swap2\n      pop\n        /* \"us-contracts/UniswapV2Pair.sol\":1852:1859  success */\n      dup2\n        /* \"us-contracts/UniswapV2Pair.sol\":1852:1909  success && (data.length == 0 || abi.decode(data, (bool))) */\n      dup1\n      iszero\n      tag_268\n      jumpi\n      pop\n        /* \"us-contracts/UniswapV2Pair.sol\":1879:1880  0 */\n      0x00\n        /* \"us-contracts/UniswapV2Pair.sol\":1864:1868  data */\n      dup2\n        /* \"us-contracts/UniswapV2Pair.sol\":1864:1875  data.length */\n      mload\n        /* \"us-contracts/UniswapV2Pair.sol\":1864:1880  data.length == 0 */\n      eq\n        /* \"us-contracts/UniswapV2Pair.sol\":1864:1908  data.length == 0 || abi.decode(data, (bool)) */\n      dup1\n      tag_269\n      jumpi\n      pop\n        /* \"us-contracts/UniswapV2Pair.sol\":1895:1899  data */\n      dup1\n        /* \"us-contracts/UniswapV2Pair.sol\":1884:1908  abi.decode(data, (bool)) */\n      dup1\n      0x20\n      add\n      swap1\n      mload\n        /* \"--CODEGEN--\":13:15   */\n      0x20\n        /* \"--CODEGEN--\":8:11   */\n      dup2\n        /* \"--CODEGEN--\":5:16   */\n      lt\n        /* \"--CODEGEN--\":2:4   */\n      iszero\n      tag_270\n      jumpi\n        /* \"--CODEGEN--\":29:30   */\n      0x00\n        /* \"--CODEGEN--\":26:27   */\n      dup1\n        /* \"--CODEGEN--\":19:31   */\n      revert\n        /* \"--CODEGEN--\":2:4   */\n    tag_270:\n        /* \"us-contracts/UniswapV2Pair.sol\":1884:1908  abi.decode(data, (bool)) */\n      dup2\n      add\n      swap1\n      dup1\n      dup1\n      mload\n      swap1\n      0x20\n      add\n      swap1\n      swap3\n      swap2\n      swap1\n      pop\n      pop\n      pop\n        /* \"us-contracts/UniswapV2Pair.sol\":1864:1908  data.length == 0 || abi.decode(data, (bool)) */\n    tag_269:\n        /* \"us-contracts/UniswapV2Pair.sol\":1852:1909  success && (data.length == 0 || abi.decode(data, (bool))) */\n    tag_268:\n        /* \"us-contracts/UniswapV2Pair.sol\":1831:1961  require(... */\n      tag_271\n      jumpi\n      mload(0x40)\n      0x08c379a000000000000000000000000000000000000000000000000000000000\n      dup2\n      mstore\n      0x04\n      add\n      dup1\n      dup1\n      0x20\n      add\n      dup3\n      dup2\n      sub\n      dup3\n      mstore\n      0x1a\n      dup2\n      mstore\n      0x20\n      add\n      dup1\n      0x556e697377617056323a205452414e534645525f4641494c4544000000000000\n      dup2\n      mstore\n      pop\n      0x20\n      add\n      swap2\n      pop\n      pop\n      mload(0x40)\n      dup1\n      swap2\n      sub\n      swap1\n      revert\n    tag_271:\n        /* \"us-contracts/UniswapV2Pair.sol\":1595:1968  function _safeTransfer(... */\n      pop\n      pop\n      pop\n      pop\n      pop\n      jump\t// out\n        /* \"us-contracts/libraries/SafeMath.sol\":420:560  function mul(uint x, uint y) internal pure returns (uint z) {... */\n    tag_145:\n        /* \"us-contracts/libraries/SafeMath.sol\":472:478  uint z */\n      0x00\n        /* \"us-contracts/libraries/SafeMath.sol\":503:504  0 */\n      dup1\n        /* \"us-contracts/libraries/SafeMath.sol\":498:499  y */\n      dup3\n        /* \"us-contracts/libraries/SafeMath.sol\":498:504  y == 0 */\n      eq\n        /* \"us-contracts/libraries/SafeMath.sol\":498:528  y == 0 || (z = x * y) / y == x */\n      dup1\n      tag_273\n      jumpi\n      pop\n        /* \"us-contracts/libraries/SafeMath.sol\":527:528  x */\n      dup3\n        /* \"us-contracts/libraries/SafeMath.sol\":522:523  y */\n      dup3\n        /* \"us-contracts/libraries/SafeMath.sol\":517:518  y */\n      dup4\n        /* \"us-contracts/libraries/SafeMath.sol\":513:514  x */\n      dup6\n        /* \"us-contracts/libraries/SafeMath.sol\":513:518  x * y */\n      mul\n        /* \"us-contracts/libraries/SafeMath.sol\":509:518  z = x * y */\n      swap3\n      pop\n      dup3\n        /* \"us-contracts/libraries/SafeMath.sol\":508:523  (z = x * y) / y */\n      dup2\n      tag_274\n      jumpi\n      invalid\n    tag_274:\n      div\n        /* \"us-contracts/libraries/SafeMath.sol\":508:528  (z = x * y) / y == x */\n      eq\n        /* \"us-contracts/libraries/SafeMath.sol\":498:528  y == 0 || (z = x * y) / y == x */\n    tag_273:\n        /* \"us-contracts/libraries/SafeMath.sol\":490:553  require(y == 0 || (z = x * y) / y == x, 'ds-math-mul-overflow') */\n      tag_275\n      jumpi\n      mload(0x40)\n      0x08c379a000000000000000000000000000000000000000000000000000000000\n      dup2\n      mstore\n      0x04\n      add\n      dup1\n      dup1\n      0x20\n      add\n      dup3\n      dup2\n      sub\n      dup3\n      mstore\n      0x14\n      dup2\n      mstore\n      0x20\n      add\n      dup1\n      0x64732d6d6174682d6d756c2d6f766572666c6f77000000000000000000000000\n      dup2\n      mstore\n      pop\n      0x20\n      add\n      swap2\n      pop\n      pop\n      mload(0x40)\n      dup1\n      swap2\n      sub\n      swap1\n      revert\n    tag_275:\n        /* \"us-contracts/libraries/SafeMath.sol\":420:560  function mul(uint x, uint y) internal pure returns (uint z) {... */\n      swap3\n      swap2\n      pop\n      pop\n      jump\t// out\n        /* \"us-contracts/libraries/SafeMath.sol\":287:414  function sub(uint x, uint y) internal pure returns (uint z) {... */\n    tag_147:\n        /* \"us-contracts/libraries/SafeMath.sol\":339:345  uint z */\n      0x00\n        /* \"us-contracts/libraries/SafeMath.sol\":380:381  x */\n      dup3\n        /* \"us-contracts/libraries/SafeMath.sol\":374:375  y */\n      dup3\n        /* \"us-contracts/libraries/SafeMath.sol\":370:371  x */\n      dup5\n        /* \"us-contracts/libraries/SafeMath.sol\":370:375  x - y */\n      sub\n        /* \"us-contracts/libraries/SafeMath.sol\":366:375  z = x - y */\n      swap2\n      pop\n      dup2\n        /* \"us-contracts/libraries/SafeMath.sol\":365:381  (z = x - y) <= x */\n      gt\n      iszero\n        /* \"us-contracts/libraries/SafeMath.sol\":357:407  require((z = x - y) <= x, 'ds-math-sub-underflow') */\n      tag_277\n      jumpi\n      mload(0x40)\n      0x08c379a000000000000000000000000000000000000000000000000000000000\n      dup2\n      mstore\n      0x04\n      add\n      dup1\n      dup1\n      0x20\n      add\n      dup3\n      dup2\n      sub\n      dup3\n      mstore\n      0x15\n      dup2\n      mstore\n      0x20\n      add\n      dup1\n      0x64732d6d6174682d7375622d756e646572666c6f770000000000000000000000\n      dup2\n      mstore\n      pop\n      0x20\n      add\n      swap2\n      pop\n      pop\n      mload(0x40)\n      dup1\n      swap2\n      sub\n      swap1\n      revert\n    tag_277:\n        /* \"us-contracts/libraries/SafeMath.sol\":287:414  function sub(uint x, uint y) internal pure returns (uint z) {... */\n      swap3\n      swap2\n      pop\n      pop\n      jump\t// out\n        /* \"us-contracts/UniswapV2Pair.sol\":2833:3828  function _update(... */\n    tag_156:\n        /* \"us-contracts/UniswapV2Pair.sol\":3021:3023  -1 */\n      0xffffffffffffffffffffffffffffffffffffffffffffffffffffffffffffffff\n        /* \"us-contracts/UniswapV2Pair.sol\":3001:3024  balance0 <= uint112(-1) */\n      0xffffffffffffffffffffffffffff\n      and\n        /* \"us-contracts/UniswapV2Pair.sol\":3001:3009  balance0 */\n      dup5\n        /* \"us-contracts/UniswapV2Pair.sol\":3001:3024  balance0 <= uint112(-1) */\n      gt\n      iszero\n        /* \"us-contracts/UniswapV2Pair.sol\":3001:3051  balance0 <= uint112(-1) && balance1 <= uint112(-1) */\n      dup1\n      iszero\n      tag_279\n      jumpi\n      pop\n        /* \"us-contracts/UniswapV2Pair.sol\":3048:3050  -1 */\n      0xffffffffffffffffffffffffffffffffffffffffffffffffffffffffffffffff\n        /* \"us-contracts/UniswapV2Pair.sol\":3028:3051  balance1 <= uint112(-1) */\n      0xffffffffffffffffffffffffffff\n      and\n        /* \"us-contracts/UniswapV2Pair.sol\":3028:3036  balance1 */\n      dup4\n        /* \"us-contracts/UniswapV2Pair.sol\":3028:3051  balance1 <= uint112(-1) */\n      gt\n      iszero\n        /* \"us-contracts/UniswapV2Pair.sol\":3001:3051  balance0 <= uint112(-1) && balance1 <= uint112(-1) */\n    tag_279:\n        /* \"us-contracts/UniswapV2Pair.sol\":2980:3096  require(... */\n      tag_280\n      jumpi\n      mload(0x40)\n      0x08c379a000000000000000000000000000000000000000000000000000000000\n      dup2\n      mstore\n      0x04\n      add\n      dup1\n      dup1\n      0x20\n      add\n      dup3\n      dup2\n      sub\n      dup3\n      mstore\n      0x13\n      dup2\n      mstore\n      0x20\n      add\n      dup1\n      0x556e697377617056323a204f564552464c4f5700000000000000000000000000\n      dup2\n      mstore\n      pop\n      0x20\n      add\n      swap2\n      pop\n      pop\n      mload(0x40)\n      dup1\n      swap2\n      sub\n      swap1\n      revert\n    tag_280:\n        /* \"us-contracts/UniswapV2Pair.sol\":3106:3127  uint32 blockTimestamp */\n      0x00\n        /* \"us-contracts/UniswapV2Pair.sol\":3155:3160  2**32 */\n      0x0100000000\n        /* \"us-contracts/UniswapV2Pair.sol\":3137:3152  block.timestamp */\n      timestamp\n        /* \"us-contracts/UniswapV2Pair.sol\":3137:3160  block.timestamp % 2**32 */\n      dup2\n      tag_281\n      jumpi\n      invalid\n    tag_281:\n      mod\n        /* \"us-contracts/UniswapV2Pair.sol\":3106:3161  uint32 blockTimestamp = uint32(block.timestamp % 2**32) */\n      swap1\n      pop\n        /* \"us-contracts/UniswapV2Pair.sol\":3171:3189  uint32 timeElapsed */\n      0x00\n        /* \"us-contracts/UniswapV2Pair.sol\":3209:3227  blockTimestampLast */\n      0x08\n      0x1c\n      swap1\n      sload\n      swap1\n      0x0100\n      exp\n      swap1\n      div\n      0xffffffff\n      and\n        /* \"us-contracts/UniswapV2Pair.sol\":3192:3206  blockTimestamp */\n      dup3\n        /* \"us-contracts/UniswapV2Pair.sol\":3192:3227  blockTimestamp - blockTimestampLast */\n      sub\n        /* \"us-contracts/UniswapV2Pair.sol\":3171:3227  uint32 timeElapsed = blockTimestamp - blockTimestampLast */\n      swap1\n      pop\n        /* \"us-contracts/UniswapV2Pair.sol\":3278:3279  0 */\n      0x00\n        /* \"us-contracts/UniswapV2Pair.sol\":3264:3275  timeElapsed */\n      dup2\n        /* \"us-contracts/UniswapV2Pair.sol\":3264:3279  timeElapsed > 0 */\n      0xffffffff\n      and\n      gt\n        /* \"us-contracts/UniswapV2Pair.sol\":3264:3297  timeElapsed > 0 && _reserve0 != 0 */\n      dup1\n      iszero\n      tag_282\n      jumpi\n      pop\n        /* \"us-contracts/UniswapV2Pair.sol\":3296:3297  0 */\n      0x00\n        /* \"us-contracts/UniswapV2Pair.sol\":3283:3292  _reserve0 */\n      dup5\n        /* \"us-contracts/UniswapV2Pair.sol\":3283:3297  _reserve0 != 0 */\n      0xffffffffffffffffffffffffffff\n      and\n      eq\n      iszero\n        /* \"us-contracts/UniswapV2Pair.sol\":3264:3297  timeElapsed > 0 && _reserve0 != 0 */\n    tag_282:\n        /* \"us-contracts/UniswapV2Pair.sol\":3264:3315  timeElapsed > 0 && _reserve0 != 0 && _reserve1 != 0 */\n      dup1\n      iszero\n      tag_283\n      jumpi\n      pop\n        /* \"us-contracts/UniswapV2Pair.sol\":3314:3315  0 */\n      0x00\n        /* \"us-contracts/UniswapV2Pair.sol\":3301:3310  _reserve1 */\n      dup4\n        /* \"us-contracts/UniswapV2Pair.sol\":3301:3315  _reserve1 != 0 */\n      0xffffffffffffffffffffffffffff\n      and\n      eq\n      iszero\n        /* \"us-contracts/UniswapV2Pair.sol\":3264:3315  timeElapsed > 0 && _reserve0 != 0 && _reserve1 != 0 */\n    tag_283:\n        /* \"us-contracts/UniswapV2Pair.sol\":3260:3662  if (timeElapsed > 0 && _reserve0 != 0 && _reserve1 != 0) {... */\n      iszero\n      tag_284\n      jumpi\n        /* \"us-contracts/UniswapV2Pair.sol\":3503:3514  timeElapsed */\n      dup1\n        /* \"us-contracts/UniswapV2Pair.sol\":3431:3514  uint256(UQ112x112.encode(_reserve1).uqdiv(_reserve0)) *... */\n      0xffffffff\n      and\n        /* \"us-contracts/UniswapV2Pair.sol\":3439:3483  UQ112x112.encode(_reserve1).uqdiv(_reserve0) */\n      tag_285\n        /* \"us-contracts/UniswapV2Pair.sol\":3473:3482  _reserve0 */\n      dup6\n        /* \"us-contracts/UniswapV2Pair.sol\":3439:3466  UQ112x112.encode(_reserve1) */\n      tag_286\n        /* \"us-contracts/UniswapV2Pair.sol\":3456:3465  _reserve1 */\n      dup7\n        /* \"us-contracts/UniswapV2Pair.sol\":3439:3455  UQ112x112.encode */\n      tag_287\n        /* \"us-contracts/UniswapV2Pair.sol\":3439:3466  UQ112x112.encode(_reserve1) */\n      jump\t// in\n    tag_286:\n        /* \"us-contracts/UniswapV2Pair.sol\":3439:3472  UQ112x112.encode(_reserve1).uqdiv */\n      0xffffffffffffffffffffffffffffffffffffffffffffffffffffffff\n      and\n      tag_288\n      swap1\n        /* \"us-contracts/UniswapV2Pair.sol\":3439:3483  UQ112x112.encode(_reserve1).uqdiv(_reserve0) */\n      swap2\n      swap1\n      0xffffffff\n      and\n      jump\t// in\n    tag_285:\n        /* \"us-contracts/UniswapV2Pair.sol\":3431:3484  uint256(UQ112x112.encode(_reserve1).uqdiv(_reserve0)) */\n      0xffffffffffffffffffffffffffffffffffffffffffffffffffffffff\n      and\n        /* \"us-contracts/UniswapV2Pair.sol\":3431:3514  uint256(UQ112x112.encode(_reserve1).uqdiv(_reserve0)) *... */\n      mul\n        /* \"us-contracts/UniswapV2Pair.sol\":3391:3411  price0CumulativeLast */\n      0x09\n      0x00\n        /* \"us-contracts/UniswapV2Pair.sol\":3391:3514  price0CumulativeLast +=... */\n      dup3\n      dup3\n      sload\n      add\n      swap3\n      pop\n      pop\n      dup2\n      swap1\n      sstore\n      pop\n        /* \"us-contracts/UniswapV2Pair.sol\":3640:3651  timeElapsed */\n      dup1\n        /* \"us-contracts/UniswapV2Pair.sol\":3568:3651  uint256(UQ112x112.encode(_reserve0).uqdiv(_reserve1)) *... */\n      0xffffffff\n      and\n        /* \"us-contracts/UniswapV2Pair.sol\":3576:3620  UQ112x112.encode(_reserve0).uqdiv(_reserve1) */\n      tag_289\n        /* \"us-contracts/UniswapV2Pair.sol\":3610:3619  _reserve1 */\n      dup5\n        /* \"us-contracts/UniswapV2Pair.sol\":3576:3603  UQ112x112.encode(_reserve0) */\n      tag_290\n        /* \"us-contracts/UniswapV2Pair.sol\":3593:3602  _reserve0 */\n      dup8\n        /* \"us-contracts/UniswapV2Pair.sol\":3576:3592  UQ112x112.encode */\n      tag_287\n        /* \"us-contracts/UniswapV2Pair.sol\":3576:3603  UQ112x112.encode(_reserve0) */\n      jump\t// in\n    tag_290:\n        /* \"us-contracts/UniswapV2Pair.sol\":3576:3609  UQ112x112.encode(_reserve0).uqdiv */\n      0xffffffffffffffffffffffffffffffffffffffffffffffffffffffff\n      and\n      tag_288\n      swap1\n        /* \"us-contracts/UniswapV2Pair.sol\":3576:3620  UQ112x112.encode(_reserve0).uqdiv(_reserve1) */\n      swap2\n      swap1\n      0xffffffff\n      and\n      jump\t// in\n    tag_289:\n        /* \"us-contracts/UniswapV2Pair.sol\":3568:3621  uint256(UQ112x112.encode(_reserve0).uqdiv(_reserve1)) */\n      0xffffffffffffffffffffffffffffffffffffffffffffffffffffffff\n      and\n        /* \"us-contracts/UniswapV2Pair.sol\":3568:3651  uint256(UQ112x112.encode(_reserve0).uqdiv(_reserve1)) *... */\n      mul\n        /* \"us-contracts/UniswapV2Pair.sol\":3528:3548  price1CumulativeLast */\n      0x0a\n      0x00\n        /* \"us-contracts/UniswapV2Pair.sol\":3528:3651  price1CumulativeLast +=... */\n      dup3\n      dup3\n      sload\n      add\n      swap3\n      pop\n      pop\n      dup2\n      swap1\n      sstore\n      pop\n        /* \"us-contracts/UniswapV2Pair.sol\":3260:3662  if (timeElapsed > 0 && _reserve0 != 0 && _reserve1 != 0) {... */\n    tag_284:\n        /* \"us-contracts/UniswapV2Pair.sol\":3690:3698  balance0 */\n      dup6\n        /* \"us-contracts/UniswapV2Pair.sol\":3671:3679  reserve0 */\n      0x08\n      0x00\n        /* \"us-contracts/UniswapV2Pair.sol\":3671:3699  reserve0 = uint112(balance0) */\n      0x0100\n      exp\n      dup2\n      sload\n      dup2\n      0xffffffffffffffffffffffffffff\n      mul\n      not\n      and\n      swap1\n      dup4\n      0xffffffffffffffffffffffffffff\n      and\n      mul\n      or\n      swap1\n      sstore\n      pop\n        /* \"us-contracts/UniswapV2Pair.sol\":3728:3736  balance1 */\n      dup5\n        /* \"us-contracts/UniswapV2Pair.sol\":3709:3717  reserve1 */\n      0x08\n      0x0e\n        /* \"us-contracts/UniswapV2Pair.sol\":3709:3737  reserve1 = uint112(balance1) */\n      0x0100\n      exp\n      dup2\n      sload\n      dup2\n      0xffffffffffffffffffffffffffff\n      mul\n      not\n      and\n      swap1\n      dup4\n      0xffffffffffffffffffffffffffff\n      and\n      mul\n      or\n      swap1\n      sstore\n      pop\n        /* \"us-contracts/UniswapV2Pair.sol\":3768:3782  blockTimestamp */\n      dup2\n        /* \"us-contracts/UniswapV2Pair.sol\":3747:3765  blockTimestampLast */\n      0x08\n      0x1c\n        /* \"us-contracts/UniswapV2Pair.sol\":3747:3782  blockTimestampLast = blockTimestamp */\n      0x0100\n      exp\n      dup2\n      sload\n      dup2\n      0xffffffff\n      mul\n      not\n      and\n      swap1\n      dup4\n      0xffffffff\n      and\n      mul\n      or\n      swap1\n      sstore\n      pop\n        /* \"us-contracts/UniswapV2Pair.sol\":3797:3821  Sync(reserve0, reserve1) */\n      0x1c411e9a96e071241c2f21f7726b17ae89e3cab4c78be50e062b03a9fffbbad1\n        /* \"us-contracts/UniswapV2Pair.sol\":3802:3810  reserve0 */\n      0x08\n      0x00\n      swap1\n      sload\n      swap1\n      0x0100\n      exp\n      swap1\n      div\n      0xffffffffffffffffffffffffffff\n      and\n        /* \"us-contracts/UniswapV2Pair.sol\":3812:3820  reserve1 */\n      0x08\n      0x0e\n      swap1\n      sload\n      swap1\n      0x0100\n      exp\n      swap1\n      div\n      0xffffffffffffffffffffffffffff\n      and\n        /* \"us-contracts/UniswapV2Pair.sol\":3797:3821  Sync(reserve0, reserve1) */\n      mload(0x40)\n      dup1\n      dup4\n      0xffffffffffffffffffffffffffff\n      and\n      0xffffffffffffffffffffffffffff\n      and\n      dup2\n      mstore\n      0x20\n      add\n      dup3\n      0xffffffffffffffffffffffffffff\n      and\n      0xffffffffffffffffffffffffffff\n      and\n      dup2\n      mstore\n      0x20\n      add\n      swap3\n      pop\n      pop\n      pop\n      mload(0x40)\n      dup1\n      swap2\n      sub\n      swap1\n      log1\n        /* \"us-contracts/UniswapV2Pair.sol\":2833:3828  function _update(... */\n      pop\n      pop\n      pop\n      pop\n      pop\n      pop\n      jump\t// out\n        /* \"us-contracts/UniswapV2ERC20.sol\":1783:1949  function _approve(address owner, address spender, uint value) private {... */\n    tag_160:\n        /* \"us-contracts/UniswapV2ERC20.sol\":1891:1896  value */\n      dup1\n        /* \"us-contracts/UniswapV2ERC20.sol\":1863:1872  allowance */\n      0x02\n        /* \"us-contracts/UniswapV2ERC20.sol\":1863:1879  allowance[owner] */\n      0x00\n        /* \"us-contracts/UniswapV2ERC20.sol\":1873:1878  owner */\n      dup6\n        /* \"us-contracts/UniswapV2ERC20.sol\":1863:1879  allowance[owner] */\n      0xffffffffffffffffffffffffffffffffffffffff\n      and\n      0xffffffffffffffffffffffffffffffffffffffff\n      and\n      dup2\n      mstore\n      0x20\n      add\n      swap1\n      dup2\n      mstore\n      0x20\n      add\n      0x00\n      keccak256\n        /* \"us-contracts/UniswapV2ERC20.sol\":1863:1888  allowance[owner][spender] */\n      0x00\n        /* \"us-contracts/UniswapV2ERC20.sol\":1880:1887  spender */\n      dup5\n        /* \"us-contracts/UniswapV2ERC20.sol\":1863:1888  allowance[owner][spender] */\n      0xffffffffffffffffffffffffffffffffffffffff\n      and\n      0xffffffffffffffffffffffffffffffffffffffff\n      and\n      dup2\n      mstore\n      0x20\n      add\n      swap1\n      dup2\n      mstore\n      0x20\n      add\n      0x00\n      keccak256\n        /* \"us-contracts/UniswapV2ERC20.sol\":1863:1896  allowance[owner][spender] = value */\n      dup2\n      swap1\n      sstore\n      pop\n        /* \"us-contracts/UniswapV2ERC20.sol\":1927:1934  spender */\n      dup2\n        /* \"us-contracts/UniswapV2ERC20.sol\":1911:1942  Approval(owner, spender, value) */\n      0xffffffffffffffffffffffffffffffffffffffff\n      and\n        /* \"us-contracts/UniswapV2ERC20.sol\":1920:1925  owner */\n      dup4\n        /* \"us-contracts/UniswapV2ERC20.sol\":1911:1942  Approval(owner, spender, value) */\n      0xffffffffffffffffffffffffffffffffffffffff\n      and\n      0x8c5be1e5ebec7d5bd14f71427d1e84f3dd0314c0f7b2291e5b200ac8c7c3b925\n        /* \"us-contracts/UniswapV2ERC20.sol\":1936:1941  value */\n      dup4\n        /* \"us-contracts/UniswapV2ERC20.sol\":1911:1942  Approval(owner, spender, value) */\n      mload(0x40)\n      dup1\n      dup3\n      dup2\n      mstore\n      0x20\n      add\n      swap2\n      pop\n      pop\n      mload(0x40)\n      dup1\n      swap2\n      sub\n      swap1\n      log3\n        /* \"us-contracts/UniswapV2ERC20.sol\":1783:1949  function _approve(address owner, address spender, uint value) private {... */\n      pop\n      pop\n      pop\n      jump\t// out\n        /* \"us-contracts/UniswapV2ERC20.sol\":1955:2171  function _transfer(address from, address to, uint value) private {... */\n    tag_165:\n        /* \"us-contracts/UniswapV2ERC20.sol\":2048:2074  balanceOf[from].sub(value) */\n      tag_293\n        /* \"us-contracts/UniswapV2ERC20.sol\":2068:2073  value */\n      dup2\n        /* \"us-contracts/UniswapV2ERC20.sol\":2048:2057  balanceOf */\n      0x01\n        /* \"us-contracts/UniswapV2ERC20.sol\":2048:2063  balanceOf[from] */\n      0x00\n        /* \"us-contracts/UniswapV2ERC20.sol\":2058:2062  from */\n      dup7\n        /* \"us-contracts/UniswapV2ERC20.sol\":2048:2063  balanceOf[from] */\n      0xffffffffffffffffffffffffffffffffffffffff\n      and\n      0xffffffffffffffffffffffffffffffffffffffff\n      and\n      dup2\n      mstore\n      0x20\n      add\n      swap1\n      dup2\n      mstore\n      0x20\n      add\n      0x00\n      keccak256\n      sload\n        /* \"us-contracts/UniswapV2ERC20.sol\":2048:2067  balanceOf[from].sub */\n      tag_147\n      swap1\n        /* \"us-contracts/UniswapV2ERC20.sol\":2048:2074  balanceOf[from].sub(value) */\n      swap2\n      swap1\n      0xffffffff\n      and\n      jump\t// in\n    tag_293:\n        /* \"us-contracts/UniswapV2ERC20.sol\":2030:2039  balanceOf */\n      0x01\n        /* \"us-contracts/UniswapV2ERC20.sol\":2030:2045  balanceOf[from] */\n      0x00\n        /* \"us-contracts/UniswapV2ERC20.sol\":2040:2044  from */\n      dup6\n        /* \"us-contracts/UniswapV2ERC20.sol\":2030:2045  balanceOf[from] */\n      0xffffffffffffffffffffffffffffffffffffffff\n      and\n      0xffffffffffffffffffffffffffffffffffffffff\n      and\n      dup2\n      mstore\n      0x20\n      add\n      swap1\n      dup2\n      mstore\n      0x20\n      add\n      0x00\n      keccak256\n        /* \"us-contracts/UniswapV2ERC20.sol\":2030:2074  balanceOf[from] = balanceOf[from].sub(value) */\n      dup2\n      swap1\n      sstore\n      pop\n        /* \"us-contracts/UniswapV2ERC20.sol\":2100:2124  balanceOf[to].add(value) */\n      tag_294\n        /* \"us-contracts/UniswapV2ERC20.sol\":2118:2123  value */\n      dup2\n        /* \"us-contracts/UniswapV2ERC20.sol\":2100:2109  balanceOf */\n      0x01\n        /* \"us-contracts/UniswapV2ERC20.sol\":2100:2113  balanceOf[to] */\n      0x00\n        /* \"us-contracts/UniswapV2ERC20.sol\":2110:2112  to */\n      dup6\n        /* \"us-contracts/UniswapV2ERC20.sol\":2100:2113  balanceOf[to] */\n      0xffffffffffffffffffffffffffffffffffffffff\n      and\n      0xffffffffffffffffffffffffffffffffffffffff\n      and\n      dup2\n      mstore\n      0x20\n      add\n      swap1\n      dup2\n      mstore\n      0x20\n      add\n      0x00\n      keccak256\n      sload\n        /* \"us-contracts/UniswapV2ERC20.sol\":2100:2117  balanceOf[to].add */\n      tag_295\n      swap1\n        /* \"us-contracts/UniswapV2ERC20.sol\":2100:2124  balanceOf[to].add(value) */\n      swap2\n      swap1\n      0xffffffff\n      and\n      jump\t// in\n    tag_294:\n        /* \"us-contracts/UniswapV2ERC20.sol\":2084:2093  balanceOf */\n      0x01\n        /* \"us-contracts/UniswapV2ERC20.sol\":2084:2097  balanceOf[to] */\n      0x00\n        /* \"us-contracts/UniswapV2ERC20.sol\":2094:2096  to */\n      dup5\n        /* \"us-contracts/UniswapV2ERC20.sol\":2084:2097  balanceOf[to] */\n      0xffffffffffffffffffffffffffffffffffffffff\n      and\n      0xffffffffffffffffffffffffffffffffffffffff\n      and\n      dup2\n      mstore\n      0x20\n      add\n      swap1\n      dup2\n      mstore\n      0x20\n      add\n      0x00\n      keccak256\n        /* \"us-contracts/UniswapV2ERC20.sol\":2084:2124  balanceOf[to] = balanceOf[to].add(value) */\n      dup2\n      swap1\n      sstore\n      pop\n        /* \"us-contracts/UniswapV2ERC20.sol\":2154:2156  to */\n      dup2\n        /* \"us-contracts/UniswapV2ERC20.sol\":2139:2164  Transfer(from, to, value) */\n      0xffffffffffffffffffffffffffffffffffffffff\n      and\n        /* \"us-contracts/UniswapV2ERC20.sol\":2148:2152  from */\n      dup4\n        /* \"us-contracts/UniswapV2ERC20.sol\":2139:2164  Transfer(from, to, value) */\n      0xffffffffffffffffffffffffffffffffffffffff\n      and\n      0xddf252ad1be2c89b69c2b068fc378daa952ba7f163c4a11628f55a4df523b3ef\n        /* \"us-contracts/UniswapV2ERC20.sol\":2158:2163  value */\n      dup4\n        /* \"us-contracts/UniswapV2ERC20.sol\":2139:2164  Transfer(from, to, value) */\n      mload(0x40)\n      dup1\n      dup3\n      dup2\n      mstore\n      0x20\n      add\n      swap2\n      pop\n      pop\n      mload(0x40)\n      dup1\n      swap2\n      sub\n      swap1\n      log3\n        /* \"us-contracts/UniswapV2ERC20.sol\":1955:2171  function _transfer(address from, address to, uint value) private {... */\n      pop\n      pop\n      pop\n      jump\t// out\n        /* \"us-contracts/UniswapV2Pair.sol\":3915:4775  function _mintFee(uint112 _reserve0, uint112 _reserve1)... */\n    tag_181:\n        /* \"us-contracts/UniswapV2Pair.sol\":4004:4014  bool feeOn */\n      0x00\n        /* \"us-contracts/UniswapV2Pair.sol\":4030:4043  address feeTo */\n      dup1\n        /* \"us-contracts/UniswapV2Pair.sol\":4064:4071  factory */\n      0x05\n      0x00\n      swap1\n      sload\n      swap1\n      0x0100\n      exp\n      swap1\n      div\n      0xffffffffffffffffffffffffffffffffffffffff\n      and\n        /* \"us-contracts/UniswapV2Pair.sol\":4046:4078  IUniswapV2Factory(factory).feeTo */\n      0xffffffffffffffffffffffffffffffffffffffff\n      and\n      0x017e7e58\n        /* \"us-contracts/UniswapV2Pair.sol\":4046:4080  IUniswapV2Factory(factory).feeTo() */\n      mload(0x40)\n      dup2\n      0xffffffff\n      and\n      0xe0\n      shl\n      dup2\n      mstore\n      0x04\n      add\n      0x20\n      mload(0x40)\n      dup1\n      dup4\n      sub\n      dup2\n      dup7\n      dup1\n      extcodesize\n      iszero\n        /* \"--CODEGEN--\":8:17   */\n      dup1\n        /* \"--CODEGEN--\":5:7   */\n      iszero\n      tag_297\n      jumpi\n        /* \"--CODEGEN--\":30:31   */\n      0x00\n        /* \"--CODEGEN--\":27:28   */\n      dup1\n        /* \"--CODEGEN--\":20:32   */\n      revert\n        /* \"--CODEGEN--\":5:7   */\n    tag_297:\n        /* \"us-contracts/UniswapV2Pair.sol\":4046:4080  IUniswapV2Factory(factory).feeTo() */\n      pop\n      gas\n      staticcall\n      iszero\n        /* \"--CODEGEN--\":8:17   */\n      dup1\n        /* \"--CODEGEN--\":5:7   */\n      iszero\n      tag_298\n      jumpi\n        /* \"--CODEGEN--\":45:61   */\n      returndatasize\n        /* \"--CODEGEN--\":42:43   */\n      0x00\n        /* \"--CODEGEN--\":39:40   */\n      dup1\n        /* \"--CODEGEN--\":24:62   */\n      returndatacopy\n        /* \"--CODEGEN--\":77:93   */\n      returndatasize\n        /* \"--CODEGEN--\":74:75   */\n      0x00\n        /* \"--CODEGEN--\":67:94   */\n      revert\n        /* \"--CODEGEN--\":5:7   */\n    tag_298:\n        /* \"us-contracts/UniswapV2Pair.sol\":4046:4080  IUniswapV2Factory(factory).feeTo() */\n      pop\n      pop\n      pop\n      pop\n      mload(0x40)\n      returndatasize\n        /* \"--CODEGEN--\":13:15   */\n      0x20\n        /* \"--CODEGEN--\":8:11   */\n      dup2\n        /* \"--CODEGEN--\":5:16   */\n      lt\n        /* \"--CODEGEN--\":2:4   */\n      iszero\n      tag_299\n      jumpi\n        /* \"--CODEGEN--\":29:30   */\n      0x00\n        /* \"--CODEGEN--\":26:27   */\n      dup1\n        /* \"--CODEGEN--\":19:31   */\n      revert\n        /* \"--CODEGEN--\":2:4   */\n    tag_299:\n        /* \"us-contracts/UniswapV2Pair.sol\":4046:4080  IUniswapV2Factory(factory).feeTo() */\n      dup2\n      add\n      swap1\n      dup1\n      dup1\n      mload\n      swap1\n      0x20\n      add\n      swap1\n      swap3\n      swap2\n      swap1\n      pop\n      pop\n      pop\n        /* \"us-contracts/UniswapV2Pair.sol\":4030:4080  address feeTo = IUniswapV2Factory(factory).feeTo() */\n      swap1\n      pop\n        /* \"us-contracts/UniswapV2Pair.sol\":4115:4116  0 */\n      0x00\n        /* \"us-contracts/UniswapV2Pair.sol\":4098:4117  feeTo != address(0) */\n      0xffffffffffffffffffffffffffffffffffffffff\n      and\n        /* \"us-contracts/UniswapV2Pair.sol\":4098:4103  feeTo */\n      dup2\n        /* \"us-contracts/UniswapV2Pair.sol\":4098:4117  feeTo != address(0) */\n      0xffffffffffffffffffffffffffffffffffffffff\n      and\n      eq\n      iszero\n        /* \"us-contracts/UniswapV2Pair.sol\":4090:4117  feeOn = feeTo != address(0) */\n      swap2\n      pop\n        /* \"us-contracts/UniswapV2Pair.sol\":4127:4141  uint256 _kLast */\n      0x00\n        /* \"us-contracts/UniswapV2Pair.sol\":4144:4149  kLast */\n      sload(0x0b)\n        /* \"us-contracts/UniswapV2Pair.sol\":4127:4149  uint256 _kLast = kLast */\n      swap1\n      pop\n        /* \"us-contracts/UniswapV2Pair.sol\":4178:4183  feeOn */\n      dup3\n        /* \"us-contracts/UniswapV2Pair.sol\":4174:4769  if (feeOn) {... */\n      iszero\n      tag_300\n      jumpi\n        /* \"us-contracts/UniswapV2Pair.sol\":4213:4214  0 */\n      0x00\n        /* \"us-contracts/UniswapV2Pair.sol\":4203:4209  _kLast */\n      dup2\n        /* \"us-contracts/UniswapV2Pair.sol\":4203:4214  _kLast != 0 */\n      eq\n        /* \"us-contracts/UniswapV2Pair.sol\":4199:4702  if (_kLast != 0) {... */\n      tag_301\n      jumpi\n        /* \"us-contracts/UniswapV2Pair.sol\":4234:4247  uint256 rootK */\n      0x00\n        /* \"us-contracts/UniswapV2Pair.sol\":4250:4294  Math.sqrt(uint256(_reserve0).mul(_reserve1)) */\n      tag_302\n        /* \"us-contracts/UniswapV2Pair.sol\":4260:4293  uint256(_reserve0).mul(_reserve1) */\n      tag_303\n        /* \"us-contracts/UniswapV2Pair.sol\":4283:4292  _reserve1 */\n      dup7\n        /* \"us-contracts/UniswapV2Pair.sol\":4260:4293  uint256(_reserve0).mul(_reserve1) */\n      0xffffffffffffffffffffffffffff\n      and\n        /* \"us-contracts/UniswapV2Pair.sol\":4268:4277  _reserve0 */\n      dup9\n        /* \"us-contracts/UniswapV2Pair.sol\":4260:4278  uint256(_reserve0) */\n      0xffffffffffffffffffffffffffff\n      and\n        /* \"us-contracts/UniswapV2Pair.sol\":4260:4282  uint256(_reserve0).mul */\n      tag_145\n      swap1\n        /* \"us-contracts/UniswapV2Pair.sol\":4260:4293  uint256(_reserve0).mul(_reserve1) */\n      swap2\n      swap1\n      0xffffffff\n      and\n      jump\t// in\n    tag_303:\n        /* \"us-contracts/UniswapV2Pair.sol\":4250:4259  Math.sqrt */\n      tag_186\n        /* \"us-contracts/UniswapV2Pair.sol\":4250:4294  Math.sqrt(uint256(_reserve0).mul(_reserve1)) */\n      jump\t// in\n    tag_302:\n        /* \"us-contracts/UniswapV2Pair.sol\":4234:4294  uint256 rootK = Math.sqrt(uint256(_reserve0).mul(_reserve1)) */\n      swap1\n      pop\n        /* \"us-contracts/UniswapV2Pair.sol\":4312:4329  uint256 rootKLast */\n      0x00\n        /* \"us-contracts/UniswapV2Pair.sol\":4332:4349  Math.sqrt(_kLast) */\n      tag_304\n        /* \"us-contracts/UniswapV2Pair.sol\":4342:4348  _kLast */\n      dup4\n        /* \"us-contracts/UniswapV2Pair.sol\":4332:4341  Math.sqrt */\n      tag_186\n        /* \"us-contracts/UniswapV2Pair.sol\":4332:4349  Math.sqrt(_kLast) */\n      jump\t// in\n    tag_304:\n        /* \"us-contracts/UniswapV2Pair.sol\":4312:4349  uint256 rootKLast = Math.sqrt(_kLast) */\n      swap1\n      pop\n        /* \"us-contracts/UniswapV2Pair.sol\":4379:4388  rootKLast */\n      dup1\n        /* \"us-contracts/UniswapV2Pair.sol\":4371:4376  rootK */\n      dup3\n        /* \"us-contracts/UniswapV2Pair.sol\":4371:4388  rootK > rootKLast */\n      gt\n        /* \"us-contracts/UniswapV2Pair.sol\":4367:4688  if (rootK > rootKLast) {... */\n      iszero\n      tag_305\n      jumpi\n        /* \"us-contracts/UniswapV2Pair.sol\":4412:4429  uint256 numerator */\n      0x00\n        /* \"us-contracts/UniswapV2Pair.sol\":4432:4469  totalSupply.mul(rootK.sub(rootKLast)) */\n      tag_306\n        /* \"us-contracts/UniswapV2Pair.sol\":4448:4468  rootK.sub(rootKLast) */\n      tag_307\n        /* \"us-contracts/UniswapV2Pair.sol\":4458:4467  rootKLast */\n      dup4\n        /* \"us-contracts/UniswapV2Pair.sol\":4448:4453  rootK */\n      dup6\n        /* \"us-contracts/UniswapV2Pair.sol\":4448:4457  rootK.sub */\n      tag_147\n      swap1\n        /* \"us-contracts/UniswapV2Pair.sol\":4448:4468  rootK.sub(rootKLast) */\n      swap2\n      swap1\n      0xffffffff\n      and\n      jump\t// in\n    tag_307:\n        /* \"us-contracts/UniswapV2Pair.sol\":4432:4443  totalSupply */\n      sload(0x00)\n        /* \"us-contracts/UniswapV2Pair.sol\":4432:4447  totalSupply.mul */\n      tag_145\n      swap1\n        /* \"us-contracts/UniswapV2Pair.sol\":4432:4469  totalSupply.mul(rootK.sub(rootKLast)) */\n      swap2\n      swap1\n      0xffffffff\n      and\n      jump\t// in\n    tag_306:\n        /* \"us-contracts/UniswapV2Pair.sol\":4412:4469  uint256 numerator = totalSupply.mul(rootK.sub(rootKLast)) */\n      swap1\n      pop\n        /* \"us-contracts/UniswapV2Pair.sol\":4491:4510  uint256 denominator */\n      0x00\n        /* \"us-contracts/UniswapV2Pair.sol\":4513:4540  rootK.mul(5).add(rootKLast) */\n      tag_308\n        /* \"us-contracts/UniswapV2Pair.sol\":4530:4539  rootKLast */\n      dup4\n        /* \"us-contracts/UniswapV2Pair.sol\":4513:4525  rootK.mul(5) */\n      tag_309\n        /* \"us-contracts/UniswapV2Pair.sol\":4523:4524  5 */\n      0x05\n        /* \"us-contracts/UniswapV2Pair.sol\":4513:4518  rootK */\n      dup8\n        /* \"us-contracts/UniswapV2Pair.sol\":4513:4522  rootK.mul */\n      tag_145\n      swap1\n        /* \"us-contracts/UniswapV2Pair.sol\":4513:4525  rootK.mul(5) */\n      swap2\n      swap1\n      0xffffffff\n      and\n      jump\t// in\n    tag_309:\n        /* \"us-contracts/UniswapV2Pair.sol\":4513:4529  rootK.mul(5).add */\n      tag_295\n      swap1\n        /* \"us-contracts/UniswapV2Pair.sol\":4513:4540  rootK.mul(5).add(rootKLast) */\n      swap2\n      swap1\n      0xffffffff\n      and\n      jump\t// in\n    tag_308:\n        /* \"us-contracts/UniswapV2Pair.sol\":4491:4540  uint256 denominator = rootK.mul(5).add(rootKLast) */\n      swap1\n      pop\n        /* \"us-contracts/UniswapV2Pair.sol\":4562:4579  uint256 liquidity */\n      0x00\n        /* \"us-contracts/UniswapV2Pair.sol\":4594:4605  denominator */\n      dup2\n        /* \"us-contracts/UniswapV2Pair.sol\":4582:4591  numerator */\n      dup4\n        /* \"us-contracts/UniswapV2Pair.sol\":4582:4605  numerator / denominator */\n      dup2\n      tag_310\n      jumpi\n      invalid\n    tag_310:\n      div\n        /* \"us-contracts/UniswapV2Pair.sol\":4562:4605  uint256 liquidity = numerator / denominator */\n      swap1\n      pop\n        /* \"us-contracts/UniswapV2Pair.sol\":4643:4644  0 */\n      0x00\n        /* \"us-contracts/UniswapV2Pair.sol\":4631:4640  liquidity */\n      dup2\n        /* \"us-contracts/UniswapV2Pair.sol\":4631:4644  liquidity > 0 */\n      gt\n        /* \"us-contracts/UniswapV2Pair.sol\":4627:4669  if (liquidity > 0) _mint(feeTo, liquidity) */\n      iszero\n      tag_311\n      jumpi\n        /* \"us-contracts/UniswapV2Pair.sol\":4646:4669  _mint(feeTo, liquidity) */\n      tag_312\n        /* \"us-contracts/UniswapV2Pair.sol\":4652:4657  feeTo */\n      dup8\n        /* \"us-contracts/UniswapV2Pair.sol\":4659:4668  liquidity */\n      dup3\n        /* \"us-contracts/UniswapV2Pair.sol\":4646:4651  _mint */\n      tag_188\n        /* \"us-contracts/UniswapV2Pair.sol\":4646:4669  _mint(feeTo, liquidity) */\n      jump\t// in\n    tag_312:\n        /* \"us-contracts/UniswapV2Pair.sol\":4627:4669  if (liquidity > 0) _mint(feeTo, liquidity) */\n    tag_311:\n        /* \"us-contracts/UniswapV2Pair.sol\":4367:4688  if (rootK > rootKLast) {... */\n      pop\n      pop\n      pop\n    tag_305:\n        /* \"us-contracts/UniswapV2Pair.sol\":4199:4702  if (_kLast != 0) {... */\n      pop\n      pop\n    tag_301:\n        /* \"us-contracts/UniswapV2Pair.sol\":4174:4769  if (feeOn) {... */\n      jump(tag_313)\n    tag_300:\n        /* \"us-contracts/UniswapV2Pair.sol\":4732:4733  0 */\n      0x00\n        /* \"us-contracts/UniswapV2Pair.sol\":4722:4728  _kLast */\n      dup2\n        /* \"us-contracts/UniswapV2Pair.sol\":4722:4733  _kLast != 0 */\n      eq\n        /* \"us-contracts/UniswapV2Pair.sol\":4718:4769  if (_kLast != 0) {... */\n      tag_314\n      jumpi\n        /* \"us-contracts/UniswapV2Pair.sol\":4757:4758  0 */\n      0x00\n        /* \"us-contracts/UniswapV2Pair.sol\":4749:4754  kLast */\n      0x0b\n        /* \"us-contracts/UniswapV2Pair.sol\":4749:4758  kLast = 0 */\n      dup2\n      swap1\n      sstore\n      pop\n        /* \"us-contracts/UniswapV2Pair.sol\":4718:4769  if (_kLast != 0) {... */\n    tag_314:\n        /* \"us-contracts/UniswapV2Pair.sol\":4174:4769  if (feeOn) {... */\n    tag_313:\n        /* \"us-contracts/UniswapV2Pair.sol\":3915:4775  function _mintFee(uint112 _reserve0, uint112 _reserve1)... */\n      pop\n      pop\n      swap3\n      swap2\n      pop\n      pop\n      jump\t// out\n        /* \"us-contracts/libraries/Math.sol\":307:599  function sqrt(uint y) internal pure returns (uint z) {... */\n    tag_186:\n        /* \"us-contracts/libraries/Math.sol\":352:358  uint z */\n      0x00\n        /* \"us-contracts/libraries/Math.sol\":378:379  3 */\n      0x03\n        /* \"us-contracts/libraries/Math.sol\":374:375  y */\n      dup3\n        /* \"us-contracts/libraries/Math.sol\":374:379  y > 3 */\n      gt\n        /* \"us-contracts/libraries/Math.sol\":370:593  if (y > 3) {... */\n      iszero\n      tag_316\n      jumpi\n        /* \"us-contracts/libraries/Math.sol\":399:400  y */\n      dup2\n        /* \"us-contracts/libraries/Math.sol\":395:400  z = y */\n      swap1\n      pop\n        /* \"us-contracts/libraries/Math.sol\":414:420  uint x */\n      0x00\n        /* \"us-contracts/libraries/Math.sol\":431:432  1 */\n      0x01\n        /* \"us-contracts/libraries/Math.sol\":427:428  2 */\n      0x02\n        /* \"us-contracts/libraries/Math.sol\":423:424  y */\n      dup5\n        /* \"us-contracts/libraries/Math.sol\":423:428  y / 2 */\n      dup2\n      tag_317\n      jumpi\n      invalid\n    tag_317:\n      div\n        /* \"us-contracts/libraries/Math.sol\":423:432  y / 2 + 1 */\n      add\n        /* \"us-contracts/libraries/Math.sol\":414:432  uint x = y / 2 + 1 */\n      swap1\n      pop\n        /* \"us-contracts/libraries/Math.sol\":446:535  while (x < z) {... */\n    tag_318:\n        /* \"us-contracts/libraries/Math.sol\":457:458  z */\n      dup2\n        /* \"us-contracts/libraries/Math.sol\":453:454  x */\n      dup2\n        /* \"us-contracts/libraries/Math.sol\":453:458  x < z */\n      lt\n        /* \"us-contracts/libraries/Math.sol\":446:535  while (x < z) {... */\n      iszero\n      tag_319\n      jumpi\n        /* \"us-contracts/libraries/Math.sol\":482:483  x */\n      dup1\n        /* \"us-contracts/libraries/Math.sol\":478:483  z = x */\n      swap2\n      pop\n        /* \"us-contracts/libraries/Math.sol\":519:520  2 */\n      0x02\n        /* \"us-contracts/libraries/Math.sol\":514:515  x */\n      dup2\n        /* \"us-contracts/libraries/Math.sol\":510:511  x */\n      dup3\n        /* \"us-contracts/libraries/Math.sol\":506:507  y */\n      dup6\n        /* \"us-contracts/libraries/Math.sol\":506:511  y / x */\n      dup2\n      tag_320\n      jumpi\n      invalid\n    tag_320:\n      div\n        /* \"us-contracts/libraries/Math.sol\":506:515  y / x + x */\n      add\n        /* \"us-contracts/libraries/Math.sol\":505:520  (y / x + x) / 2 */\n      dup2\n      tag_321\n      jumpi\n      invalid\n    tag_321:\n      div\n        /* \"us-contracts/libraries/Math.sol\":501:520  x = (y / x + x) / 2 */\n      swap1\n      pop\n        /* \"us-contracts/libraries/Math.sol\":446:535  while (x < z) {... */\n      jump(tag_318)\n    tag_319:\n        /* \"us-contracts/libraries/Math.sol\":370:593  if (y > 3) {... */\n      pop\n      jump(tag_322)\n    tag_316:\n        /* \"us-contracts/libraries/Math.sol\":560:561  0 */\n      0x00\n        /* \"us-contracts/libraries/Math.sol\":555:556  y */\n      dup3\n        /* \"us-contracts/libraries/Math.sol\":555:561  y != 0 */\n      eq\n        /* \"us-contracts/libraries/Math.sol\":551:593  if (y != 0) {... */\n      tag_323\n      jumpi\n        /* \"us-contracts/libraries/Math.sol\":581:582  1 */\n      0x01\n        /* \"us-contracts/libraries/Math.sol\":577:582  z = 1 */\n      swap1\n      pop\n        /* \"us-contracts/libraries/Math.sol\":551:593  if (y != 0) {... */\n    tag_323:\n        /* \"us-contracts/libraries/Math.sol\":370:593  if (y > 3) {... */\n    tag_322:\n        /* \"us-contracts/libraries/Math.sol\":307:599  function sqrt(uint y) internal pure returns (uint z) {... */\n      swap2\n      swap1\n      pop\n      jump\t// out\n        /* \"us-contracts/UniswapV2ERC20.sol\":1369:1566  function _mint(address to, uint value) internal {... */\n    tag_188:\n        /* \"us-contracts/UniswapV2ERC20.sol\":1441:1463  totalSupply.add(value) */\n      tag_325\n        /* \"us-contracts/UniswapV2ERC20.sol\":1457:1462  value */\n      dup2\n        /* \"us-contracts/UniswapV2ERC20.sol\":1441:1452  totalSupply */\n      sload(0x00)\n        /* \"us-contracts/UniswapV2ERC20.sol\":1441:1456  totalSupply.add */\n      tag_295\n      swap1\n        /* \"us-contracts/UniswapV2ERC20.sol\":1441:1463  totalSupply.add(value) */\n      swap2\n      swap1\n      0xffffffff\n      and\n      jump\t// in\n    tag_325:\n        /* \"us-contracts/UniswapV2ERC20.sol\":1427:1438  totalSupply */\n      0x00\n        /* \"us-contracts/UniswapV2ERC20.sol\":1427:1463  totalSupply = totalSupply.add(value) */\n      dup2\n      swap1\n      sstore\n      pop\n        /* \"us-contracts/UniswapV2ERC20.sol\":1489:1513  balanceOf[to].add(value) */\n      tag_326\n        /* \"us-contracts/UniswapV2ERC20.sol\":1507:1512  value */\n      dup2\n        /* \"us-contracts/UniswapV2ERC20.sol\":1489:1498  balanceOf */\n      0x01\n        /* \"us-contracts/UniswapV2ERC20.sol\":1489:1502  balanceOf[to] */\n      0x00\n        /* \"us-contracts/UniswapV2ERC20.sol\":1499:1501  to */\n      dup6\n        /* \"us-contracts/UniswapV2ERC20.sol\":1489:1502  balanceOf[to] */\n      0xffffffffffffffffffffffffffffffffffffffff\n      and\n      0xffffffffffffffffffffffffffffffffffffffff\n      and\n      dup2\n      mstore\n      0x20\n      add\n      swap1\n      dup2\n      mstore\n      0x20\n      add\n      0x00\n      keccak256\n      sload\n        /* \"us-contracts/UniswapV2ERC20.sol\":1489:1506  balanceOf[to].add */\n      tag_295\n      swap1\n        /* \"us-contracts/UniswapV2ERC20.sol\":1489:1513  balanceOf[to].add(value) */\n      swap2\n      swap1\n      0xffffffff\n      and\n      jump\t// in\n    tag_326:\n        /* \"us-contracts/UniswapV2ERC20.sol\":1473:1482  balanceOf */\n      0x01\n        /* \"us-contracts/UniswapV2ERC20.sol\":1473:1486  balanceOf[to] */\n      0x00\n        /* \"us-contracts/UniswapV2ERC20.sol\":1483:1485  to */\n      dup5\n        /* \"us-contracts/UniswapV2ERC20.sol\":1473:1486  balanceOf[to] */\n      0xffffffffffffffffffffffffffffffffffffffff\n      and\n      0xffffffffffffffffffffffffffffffffffffffff\n      and\n      dup2\n      mstore\n      0x20\n      add\n      swap1\n      dup2\n      mstore\n      0x20\n      add\n      0x00\n      keccak256\n        /* \"us-contracts/UniswapV2ERC20.sol\":1473:1513  balanceOf[to] = balanceOf[to].add(value) */\n      dup2\n      swap1\n      sstore\n      pop\n        /* \"us-contracts/UniswapV2ERC20.sol\":1549:1551  to */\n      dup2\n        /* \"us-contracts/UniswapV2ERC20.sol\":1528:1559  Transfer(address(0), to, value) */\n      0xffffffffffffffffffffffffffffffffffffffff\n      and\n        /* \"us-contracts/UniswapV2ERC20.sol\":1545:1546  0 */\n      0x00\n        /* \"us-contracts/UniswapV2ERC20.sol\":1528:1559  Transfer(address(0), to, value) */\n      0xffffffffffffffffffffffffffffffffffffffff\n      and\n      0xddf252ad1be2c89b69c2b068fc378daa952ba7f163c4a11628f55a4df523b3ef\n        /* \"us-contracts/UniswapV2ERC20.sol\":1553:1558  value */\n      dup4\n        /* \"us-contracts/UniswapV2ERC20.sol\":1528:1559  Transfer(address(0), to, value) */\n      mload(0x40)\n      dup1\n      dup3\n      dup2\n      mstore\n      0x20\n      add\n      swap2\n      pop\n      pop\n      mload(0x40)\n      dup1\n      swap2\n      sub\n      swap1\n      log3\n        /* \"us-contracts/UniswapV2ERC20.sol\":1369:1566  function _mint(address to, uint value) internal {... */\n      pop\n      pop\n      jump\t// out\n        /* \"us-contracts/libraries/Math.sol\":98:192  function min(uint x, uint y) internal pure returns (uint z) {... */\n    tag_195:\n        /* \"us-contracts/libraries/Math.sol\":150:156  uint z */\n      0x00\n        /* \"us-contracts/libraries/Math.sol\":176:177  y */\n      dup2\n        /* \"us-contracts/libraries/Math.sol\":172:173  x */\n      dup4\n        /* \"us-contracts/libraries/Math.sol\":172:177  x < y */\n      lt\n        /* \"us-contracts/libraries/Math.sol\":172:185  x < y ? x : y */\n      tag_328\n      jumpi\n        /* \"us-contracts/libraries/Math.sol\":184:185  y */\n      dup2\n        /* \"us-contracts/libraries/Math.sol\":172:185  x < y ? x : y */\n      jump(tag_329)\n    tag_328:\n        /* \"us-contracts/libraries/Math.sol\":180:181  x */\n      dup3\n        /* \"us-contracts/libraries/Math.sol\":172:185  x < y ? x : y */\n    tag_329:\n        /* \"us-contracts/libraries/Math.sol\":168:185  z = x < y ? x : y */\n      swap1\n      pop\n        /* \"us-contracts/libraries/Math.sol\":98:192  function min(uint x, uint y) internal pure returns (uint z) {... */\n      swap3\n      swap2\n      pop\n      pop\n      jump\t// out\n        /* \"us-contracts/UniswapV2ERC20.sol\":1572:1777  function _burn(address from, uint value) internal {... */\n    tag_219:\n        /* \"us-contracts/UniswapV2ERC20.sol\":1650:1676  balanceOf[from].sub(value) */\n      tag_331\n        /* \"us-contracts/UniswapV2ERC20.sol\":1670:1675  value */\n      dup2\n        /* \"us-contracts/UniswapV2ERC20.sol\":1650:1659  balanceOf */\n      0x01\n        /* \"us-contracts/UniswapV2ERC20.sol\":1650:1665  balanceOf[from] */\n      0x00\n        /* \"us-contracts/UniswapV2ERC20.sol\":1660:1664  from */\n      dup6\n        /* \"us-contracts/UniswapV2ERC20.sol\":1650:1665  balanceOf[from] */\n      0xffffffffffffffffffffffffffffffffffffffff\n      and\n      0xffffffffffffffffffffffffffffffffffffffff\n      and\n      dup2\n      mstore\n      0x20\n      add\n      swap1\n      dup2\n      mstore\n      0x20\n      add\n      0x00\n      keccak256\n      sload\n        /* \"us-contracts/UniswapV2ERC20.sol\":1650:1669  balanceOf[from].sub */\n      tag_147\n      swap1\n        /* \"us-contracts/UniswapV2ERC20.sol\":1650:1676  balanceOf[from].sub(value) */\n      swap2\n      swap1\n      0xffffffff\n      and\n      jump\t// in\n    tag_331:\n        /* \"us-contracts/UniswapV2ERC20.sol\":1632:1641  balanceOf */\n      0x01\n        /* \"us-contracts/UniswapV2ERC20.sol\":1632:1647  balanceOf[from] */\n      0x00\n        /* \"us-contracts/UniswapV2ERC20.sol\":1642:1646  from */\n      dup5\n        /* \"us-contracts/UniswapV2ERC20.sol\":1632:1647  balanceOf[from] */\n      0xffffffffffffffffffffffffffffffffffffffff\n      and\n      0xffffffffffffffffffffffffffffffffffffffff\n      and\n      dup2\n      mstore\n      0x20\n      add\n      swap1\n      dup2\n      mstore\n      0x20\n      add\n      0x00\n      keccak256\n        /* \"us-contracts/UniswapV2ERC20.sol\":1632:1676  balanceOf[from] = balanceOf[from].sub(value) */\n      dup2\n      swap1\n      sstore\n      pop\n        /* \"us-contracts/UniswapV2ERC20.sol\":1700:1722  totalSupply.sub(value) */\n      tag_332\n        /* \"us-contracts/UniswapV2ERC20.sol\":1716:1721  value */\n      dup2\n        /* \"us-contracts/UniswapV2ERC20.sol\":1700:1711  totalSupply */\n      sload(0x00)\n        /* \"us-contracts/UniswapV2ERC20.sol\":1700:1715  totalSupply.sub */\n      tag_147\n      swap1\n        /* \"us-contracts/UniswapV2ERC20.sol\":1700:1722  totalSupply.sub(value) */\n      swap2\n      swap1\n      0xffffffff\n      and\n      jump\t// in\n    tag_332:\n        /* \"us-contracts/UniswapV2ERC20.sol\":1686:1697  totalSupply */\n      0x00\n        /* \"us-contracts/UniswapV2ERC20.sol\":1686:1722  totalSupply = totalSupply.sub(value) */\n      dup2\n      swap1\n      sstore\n      pop\n        /* \"us-contracts/UniswapV2ERC20.sol\":1760:1761  0 */\n      0x00\n        /* \"us-contracts/UniswapV2ERC20.sol\":1737:1770  Transfer(from, address(0), value) */\n      0xffffffffffffffffffffffffffffffffffffffff\n      and\n        /* \"us-contracts/UniswapV2ERC20.sol\":1746:1750  from */\n      dup3\n        /* \"us-contracts/UniswapV2ERC20.sol\":1737:1770  Transfer(from, address(0), value) */\n      0xffffffffffffffffffffffffffffffffffffffff\n      and\n      0xddf252ad1be2c89b69c2b068fc378daa952ba7f163c4a11628f55a4df523b3ef\n        /* \"us-contracts/UniswapV2ERC20.sol\":1764:1769  value */\n      dup4\n        /* \"us-contracts/UniswapV2ERC20.sol\":1737:1770  Transfer(from, address(0), value) */\n      mload(0x40)\n      dup1\n      dup3\n      dup2\n      mstore\n      0x20\n      add\n      swap2\n      pop\n      pop\n      mload(0x40)\n      dup1\n      swap2\n      sub\n      swap1\n      log3\n        /* \"us-contracts/UniswapV2ERC20.sol\":1572:1777  function _burn(address from, uint value) internal {... */\n      pop\n      pop\n      jump\t// out\n        /* \"us-contracts/libraries/UQ112x112.sol\":283:401  function encode(uint112 y) internal pure returns (uint224 z) {... */\n    tag_287:\n        /* \"us-contracts/libraries/UQ112x112.sol\":333:342  uint224 z */\n      0x00\n        /* \"us-contracts/libraries/UQ112x112.sol\":231:237  2**112 */\n      0x010000000000000000000000000000\n        /* \"us-contracts/libraries/UQ112x112.sol\":366:367  y */\n      dup3\n        /* \"us-contracts/libraries/UQ112x112.sol\":358:368  uint224(y) */\n      0xffffffffffffffffffffffffffff\n      and\n        /* \"us-contracts/libraries/UQ112x112.sol\":358:375  uint224(y) * Q112 */\n      mul\n        /* \"us-contracts/libraries/UQ112x112.sol\":354:375  z = uint224(y) * Q112 */\n      swap1\n      pop\n        /* \"us-contracts/libraries/UQ112x112.sol\":283:401  function encode(uint112 y) internal pure returns (uint224 z) {... */\n      swap2\n      swap1\n      pop\n      jump\t// out\n        /* \"us-contracts/libraries/UQ112x112.sol\":469:575  function uqdiv(uint224 x, uint112 y) internal pure returns (uint224 z) {... */\n    tag_288:\n        /* \"us-contracts/libraries/UQ112x112.sol\":529:538  uint224 z */\n      0x00\n        /* \"us-contracts/libraries/UQ112x112.sol\":566:567  y */\n      dup2\n        /* \"us-contracts/libraries/UQ112x112.sol\":558:568  uint224(y) */\n      0xffffffffffffffffffffffffffff\n      and\n        /* \"us-contracts/libraries/UQ112x112.sol\":554:568  x / uint224(y) */\n      0xffffffffffffffffffffffffffffffffffffffffffffffffffffffff\n      and\n        /* \"us-contracts/libraries/UQ112x112.sol\":554:555  x */\n      dup4\n        /* \"us-contracts/libraries/UQ112x112.sol\":554:568  x / uint224(y) */\n      0xffffffffffffffffffffffffffffffffffffffffffffffffffffffff\n      and\n      dup2\n      tag_335\n      jumpi\n      invalid\n    tag_335:\n      div\n        /* \"us-contracts/libraries/UQ112x112.sol\":550:568  z = x / uint224(y) */\n      swap1\n      pop\n        /* \"us-contracts/libraries/UQ112x112.sol\":469:575  function uqdiv(uint224 x, uint112 y) internal pure returns (uint224 z) {... */\n      swap3\n      swap2\n      pop\n      pop\n      jump\t// out\n        /* \"us-contracts/libraries/SafeMath.sol\":155:281  function add(uint x, uint y) internal pure returns (uint z) {... */\n    tag_295:\n        /* \"us-contracts/libraries/SafeMath.sol\":207:213  uint z */\n      0x00\n        /* \"us-contracts/libraries/SafeMath.sol\":248:249  x */\n      dup3\n        /* \"us-contracts/libraries/SafeMath.sol\":242:243  y */\n      dup3\n        /* \"us-contracts/libraries/SafeMath.sol\":238:239  x */\n      dup5\n        /* \"us-contracts/libraries/SafeMath.sol\":238:243  x + y */\n      add\n        /* \"us-contracts/libraries/SafeMath.sol\":234:243  z = x + y */\n      swap2\n      pop\n      dup2\n        /* \"us-contracts/libraries/SafeMath.sol\":233:249  (z = x + y) >= x */\n      lt\n      iszero\n        /* \"us-contracts/libraries/SafeMath.sol\":225:274  require((z = x + y) >= x, 'ds-math-add-overflow') */\n      tag_337\n      jumpi\n      mload(0x40)\n      0x08c379a000000000000000000000000000000000000000000000000000000000\n      dup2\n      mstore\n      0x04\n      add\n      dup1\n      dup1\n      0x20\n      add\n      dup3\n      dup2\n      sub\n      dup3\n      mstore\n      0x14\n      dup2\n      mstore\n      0x20\n      add\n      dup1\n      0x64732d6d6174682d6164642d6f766572666c6f77000000000000000000000000\n      dup2\n      mstore\n      pop\n      0x20\n      add\n      swap2\n      pop\n      pop\n      mload(0x40)\n      dup1\n      swap2\n      sub\n      swap1\n      revert\n    tag_337:\n        /* \"us-contracts/libraries/SafeMath.sol\":155:281  function add(uint x, uint y) internal pure returns (uint z) {... */\n      swap3\n      swap2\n      pop\n      pop\n      jump\t// out\n    stop\n    data_05339493da7e2cbe77e17beadf6b91132eb307939495f5f1797bf88d95539e83 556e697377617056323a20494e53554646494349454e545f4f55545055545f414d4f554e54\n    data_10e2efc32d8a31d3b2c11a545b3ed09c2dbabc58ef6de4033929d0002e425b67 556e697377617056323a20494e53554646494349454e545f494e5055545f414d4f554e54\n    data_3f354ef449b2a9b081220ce21f57691008110b653edc191d8288e60cef58bb5f 556e697377617056323a20494e53554646494349454e545f4c4951554944495459\n    data_57ebfb4dd8b5082cdba0f23c17077e3b0ecb9782a51e0e9a15e9bc8c4b30c562 556e697377617056323a20494e53554646494349454e545f4c49515549444954595f4255524e4544\n    data_6591c9f5bf1fefaad109b76a20e25c857b696080c952191f86220f001a83663e 556e697377617056323a20494e53554646494349454e545f4c49515549444954595f4d494e544544\n\n    auxdata: 0xa265627a7a72315820436c952957deeaec41573d6785844fb88315c188169b90b71f1b00956a83762064736f6c63430005100032\n}\n",
				"bytecode": {
					"linkReferences": {},
					"object": "60806040526001600c5534801561001557600080fd5b5060004690506040518080613bdf60529139605201905060405180910390206040518060400160405280600a81526020017f556e697377617020563200000000000000000000000000000000000000000000815250805190602001206040518060400160405280600181526020017f3100000000000000000000000000000000000000000000000000000000000000815250805190602001208330604051602001808681526020018581526020018481526020018381526020018273ffffffffffffffffffffffffffffffffffffffff1673ffffffffffffffffffffffffffffffffffffffff16815260200195505050505050604051602081830303815290604052805190602001206003819055505033600560006101000a81548173ffffffffffffffffffffffffffffffffffffffff021916908373ffffffffffffffffffffffffffffffffffffffff160217905550613a6a806101756000396000f3fe608060405234801561001057600080fd5b50600436106101a95760003560e01c80636a627842116100f9578063ba9a7a5611610097578063d21220a711610071578063d21220a7146108c4578063d505accf1461090e578063dd62ed3e146109a7578063fff6cae914610a1f576101a9565b8063ba9a7a5614610818578063bc25cf7714610836578063c45a01551461087a576101a9565b80637ecebe00116100d35780637ecebe001461067857806389afcb44146106d057806395d89b411461072f578063a9059cbb146107b2576101a9565b80636a627842146105aa57806370a08231146106025780637464fc3d1461065a576101a9565b806323b872dd116101665780633644e515116101405780633644e515146104ec578063485cc9551461050a5780635909c0d51461056e5780635a3d54931461058c576101a9565b806323b872dd1461042457806330adf81f146104aa578063313ce567146104c8576101a9565b8063022c0d9f146101ae57806306fdde031461025b5780630902f1ac146102de578063095ea7b3146103565780630dfe1681146103bc57806318160ddd14610406575b600080fd5b610259600480360360808110156101c457600080fd5b810190808035906020019092919080359060200190929190803573ffffffffffffffffffffffffffffffffffffffff1690602001909291908035906020019064010000000081111561021557600080fd5b82018360208201111561022757600080fd5b8035906020019184600183028401116401000000008311171561024957600080fd5b9091929391929390505050610a29565b005b610263611216565b6040518080602001828103825283818151815260200191508051906020019080838360005b838110156102a3578082015181840152602081019050610288565b50505050905090810190601f1680156102d05780820380516001836020036101000a031916815260200191505b509250505060405180910390f35b6102e661124f565b60405180846dffffffffffffffffffffffffffff166dffffffffffffffffffffffffffff168152602001836dffffffffffffffffffffffffffff166dffffffffffffffffffffffffffff1681526020018263ffffffff1663ffffffff168152602001935050505060405180910390f35b6103a26004803603604081101561036c57600080fd5b81019080803573ffffffffffffffffffffffffffffffffffffffff169060200190929190803590602001909291905050506112ac565b604051808215151515815260200191505060405180910390f35b6103c46112c3565b604051808273ffffffffffffffffffffffffffffffffffffffff1673ffffffffffffffffffffffffffffffffffffffff16815260200191505060405180910390f35b61040e6112e9565b6040518082815260200191505060405180910390f35b6104906004803603606081101561043a57600080fd5b81019080803573ffffffffffffffffffffffffffffffffffffffff169060200190929190803573ffffffffffffffffffffffffffffffffffffffff169060200190929190803590602001909291905050506112ef565b604051808215151515815260200191505060405180910390f35b6104b26114ba565b6040518082815260200191505060405180910390f35b6104d06114e1565b604051808260ff1660ff16815260200191505060405180910390f35b6104f46114e6565b6040518082815260200191505060405180910390f35b61056c6004803603604081101561052057600080fd5b81019080803573ffffffffffffffffffffffffffffffffffffffff169060200190929190803573ffffffffffffffffffffffffffffffffffffffff1690602001909291905050506114ec565b005b610576611635565b6040518082815260200191505060405180910390f35b61059461163b565b6040518082815260200191505060405180910390f35b6105ec600480360360208110156105c057600080fd5b81019080803573ffffffffffffffffffffffffffffffffffffffff169060200190929190505050611641565b6040518082815260200191505060405180910390f35b6106446004803603602081101561061857600080fd5b81019080803573ffffffffffffffffffffffffffffffffffffffff169060200190929190505050611af2565b6040518082815260200191505060405180910390f35b610662611b0a565b6040518082815260200191505060405180910390f35b6106ba6004803603602081101561068e57600080fd5b81019080803573ffffffffffffffffffffffffffffffffffffffff169060200190929190505050611b10565b6040518082815260200191505060405180910390f35b610712600480360360208110156106e657600080fd5b81019080803573ffffffffffffffffffffffffffffffffffffffff169060200190929190505050611b28565b604051808381526020018281526020019250505060405180910390f35b610737612115565b6040518080602001828103825283818151815260200191508051906020019080838360005b8381101561077757808201518184015260208101905061075c565b50505050905090810190601f1680156107a45780820380516001836020036101000a031916815260200191505b509250505060405180910390f35b6107fe600480360360408110156107c857600080fd5b81019080803573ffffffffffffffffffffffffffffffffffffffff1690602001909291908035906020019092919050505061214e565b604051808215151515815260200191505060405180910390f35b610820612165565b6040518082815260200191505060405180910390f35b6108786004803603602081101561084c57600080fd5b81019080803573ffffffffffffffffffffffffffffffffffffffff16906020019092919050505061216b565b005b610882612446565b604051808273ffffffffffffffffffffffffffffffffffffffff1673ffffffffffffffffffffffffffffffffffffffff16815260200191505060405180910390f35b6108cc61246c565b604051808273ffffffffffffffffffffffffffffffffffffffff1673ffffffffffffffffffffffffffffffffffffffff16815260200191505060405180910390f35b6109a5600480360360e081101561092457600080fd5b81019080803573ffffffffffffffffffffffffffffffffffffffff169060200190929190803573ffffffffffffffffffffffffffffffffffffffff1690602001909291908035906020019092919080359060200190929190803560ff1690602001909291908035906020019092919080359060200190929190505050612492565b005b610a09600480360360408110156109bd57600080fd5b81019080803573ffffffffffffffffffffffffffffffffffffffff169060200190929190803573ffffffffffffffffffffffffffffffffffffffff1690602001909291905050506127d6565b6040518082815260200191505060405180910390f35b610a276127fb565b005b6001600c5414610aa1576040517f08c379a00000000000000000000000000000000000000000000000000000000081526004018080602001828103825260118152602001807f556e697377617056323a204c4f434b454400000000000000000000000000000081525060200191505060405180910390fd5b6000600c819055506000851180610ab85750600084115b610b0d576040517f08c379a000000000000000000000000000000000000000000000000000000000815260040180806020018281038252602581526020018061397c6025913960400191505060405180910390fd5b600080610b1861124f565b5091509150816dffffffffffffffffffffffffffff1687108015610b4b5750806dffffffffffffffffffffffffffff1686105b610ba0576040517f08c379a00000000000000000000000000000000000000000000000000000000081526004018080602001828103825260218152602001806139c56021913960400191505060405180910390fd5b6000806000600660009054906101000a900473ffffffffffffffffffffffffffffffffffffffff1690506000600760009054906101000a900473ffffffffffffffffffffffffffffffffffffffff1690508173ffffffffffffffffffffffffffffffffffffffff168973ffffffffffffffffffffffffffffffffffffffff1614158015610c5957508073ffffffffffffffffffffffffffffffffffffffff168973ffffffffffffffffffffffffffffffffffffffff1614155b610ccb576040517f08c379a00000000000000000000000000000000000000000000000000000000081526004018080602001828103825260158152602001807f556e697377617056323a20494e56414c49445f544f000000000000000000000081525060200191505060405180910390fd5b60008b1115610ce057610cdf828a8d612a7b565b5b60008a1115610cf557610cf4818a8c612a7b565b5b6000888890501115610ddd578873ffffffffffffffffffffffffffffffffffffffff166310d1e85c338d8d8c8c6040518663ffffffff1660e01b8152600401808673ffffffffffffffffffffffffffffffffffffffff1673ffffffffffffffffffffffffffffffffffffffff168152602001858152602001848152602001806020018281038252848482818152602001925080828437600081840152601f19601f8201169050808301925050509650505050505050600060405180830381600087803b158015610dc457600080fd5b505af1158015610dd8573d6000803e3d6000fd5b505050505b8173ffffffffffffffffffffffffffffffffffffffff166370a08231306040518263ffffffff1660e01b8152600401808273ffffffffffffffffffffffffffffffffffffffff1673ffffffffffffffffffffffffffffffffffffffff16815260200191505060206040518083038186803b158015610e5a57600080fd5b505afa158015610e6e573d6000803e3d6000fd5b505050506040513d6020811015610e8457600080fd5b810190808051906020019092919050505093508073ffffffffffffffffffffffffffffffffffffffff166370a08231306040518263ffffffff1660e01b8152600401808273ffffffffffffffffffffffffffffffffffffffff1673ffffffffffffffffffffffffffffffffffffffff16815260200191505060206040518083038186803b158015610f1457600080fd5b505afa158015610f28573d6000803e3d6000fd5b505050506040513d6020811015610f3e57600080fd5b810190808051906020019092919050505092505050600089856dffffffffffffffffffffffffffff16038311610f75576000610f8b565b89856dffffffffffffffffffffffffffff160383035b9050600089856dffffffffffffffffffffffffffff16038311610faf576000610fc5565b89856dffffffffffffffffffffffffffff160383035b90506000821180610fd65750600081115b61102b576040517f08c379a00000000000000000000000000000000000000000000000000000000081526004018080602001828103825260248152602001806139a16024913960400191505060405180910390fd5b6000611067611044600385612cc890919063ffffffff16565b6110596103e888612cc890919063ffffffff16565b612d5d90919063ffffffff16565b905060006110a5611082600385612cc890919063ffffffff16565b6110976103e888612cc890919063ffffffff16565b612d5d90919063ffffffff16565b90506110ef620f42406110e1896dffffffffffffffffffffffffffff168b6dffffffffffffffffffffffffffff16612cc890919063ffffffff16565b612cc890919063ffffffff16565b6111028284612cc890919063ffffffff16565b1015611176576040517f08c379a000000000000000000000000000000000000000000000000000000000815260040180806020018281038252600c8152602001807f556e697377617056323a204b000000000000000000000000000000000000000081525060200191505060405180910390fd5b505061118484848888612de0565b8873ffffffffffffffffffffffffffffffffffffffff163373ffffffffffffffffffffffffffffffffffffffff167fd78ad95fa46c994b6551d0da85fc275fe613ce37657fb8d5e3d130840159d82284848f8f6040518085815260200184815260200183815260200182815260200194505050505060405180910390a35050505050506001600c819055505050505050565b6040518060400160405280600a81526020017f556e69737761702056320000000000000000000000000000000000000000000081525081565b6000806000600860009054906101000a90046dffffffffffffffffffffffffffff1692506008600e9054906101000a90046dffffffffffffffffffffffffffff1691506008601c9054906101000a900463ffffffff169050909192565b60006112b933848461315e565b6001905092915050565b600660009054906101000a900473ffffffffffffffffffffffffffffffffffffffff1681565b60005481565b60007fffffffffffffffffffffffffffffffffffffffffffffffffffffffffffffffff600260008673ffffffffffffffffffffffffffffffffffffffff1673ffffffffffffffffffffffffffffffffffffffff16815260200190815260200160002060003373ffffffffffffffffffffffffffffffffffffffff1673ffffffffffffffffffffffffffffffffffffffff16815260200190815260200160002054146114a45761142382600260008773ffffffffffffffffffffffffffffffffffffffff1673ffffffffffffffffffffffffffffffffffffffff16815260200190815260200160002060003373ffffffffffffffffffffffffffffffffffffffff1673ffffffffffffffffffffffffffffffffffffffff16815260200190815260200160002054612d5d90919063ffffffff16565b600260008673ffffffffffffffffffffffffffffffffffffffff1673ffffffffffffffffffffffffffffffffffffffff16815260200190815260200160002060003373ffffffffffffffffffffffffffffffffffffffff1673ffffffffffffffffffffffffffffffffffffffff168152602001908152602001600020819055505b6114af848484613249565b600190509392505050565b7f6e71edae12b1b97f4d1f60370fef10105fa2faae0126114a169c64845d6126c960001b81565b601281565b60035481565b600560009054906101000a900473ffffffffffffffffffffffffffffffffffffffff1673ffffffffffffffffffffffffffffffffffffffff163373ffffffffffffffffffffffffffffffffffffffff16146115af576040517f08c379a00000000000000000000000000000000000000000000000000000000081526004018080602001828103825260148152602001807f556e697377617056323a20464f5242494444454e00000000000000000000000081525060200191505060405180910390fd5b81600660006101000a81548173ffffffffffffffffffffffffffffffffffffffff021916908373ffffffffffffffffffffffffffffffffffffffff16021790555080600760006101000a81548173ffffffffffffffffffffffffffffffffffffffff021916908373ffffffffffffffffffffffffffffffffffffffff1602179055505050565b60095481565b600a5481565b60006001600c54146116bb576040517f08c379a00000000000000000000000000000000000000000000000000000000081526004018080602001828103825260118152602001807f556e697377617056323a204c4f434b454400000000000000000000000000000081525060200191505060405180910390fd5b6000600c819055506000806116ce61124f565b50915091506000600660009054906101000a900473ffffffffffffffffffffffffffffffffffffffff1673ffffffffffffffffffffffffffffffffffffffff166370a08231306040518263ffffffff1660e01b8152600401808273ffffffffffffffffffffffffffffffffffffffff1673ffffffffffffffffffffffffffffffffffffffff16815260200191505060206040518083038186803b15801561177457600080fd5b505afa158015611788573d6000803e3d6000fd5b505050506040513d602081101561179e57600080fd5b810190808051906020019092919050505090506000600760009054906101000a900473ffffffffffffffffffffffffffffffffffffffff1673ffffffffffffffffffffffffffffffffffffffff166370a08231306040518263ffffffff1660e01b8152600401808273ffffffffffffffffffffffffffffffffffffffff1673ffffffffffffffffffffffffffffffffffffffff16815260200191505060206040518083038186803b15801561185257600080fd5b505afa158015611866573d6000803e3d6000fd5b505050506040513d602081101561187c57600080fd5b8101908080519060200190929190505050905060006118b4856dffffffffffffffffffffffffffff1684612d5d90919063ffffffff16565b905060006118db856dffffffffffffffffffffffffffff1684612d5d90919063ffffffff16565b905060006118e987876133dd565b9050600080549050600081141561193d576119296103e861191b6119168688612cc890919063ffffffff16565b6135be565b612d5d90919063ffffffff16565b985061193860006103e8613620565b6119a0565b61199d886dffffffffffffffffffffffffffff166119648387612cc890919063ffffffff16565b8161196b57fe5b04886dffffffffffffffffffffffffffff166119908487612cc890919063ffffffff16565b8161199757fe5b0461373a565b98505b600089116119f9576040517f08c379a0000000000000000000000000000000000000000000000000000000008152600401808060200182810382526028815260200180613a0e6028913960400191505060405180910390fd5b611a038a8a613620565b611a0f86868a8a612de0565b8115611a8757611a806008600e9054906101000a90046dffffffffffffffffffffffffffff166dffffffffffffffffffffffffffff16600860009054906101000a90046dffffffffffffffffffffffffffff166dffffffffffffffffffffffffffff16612cc890919063ffffffff16565b600b819055505b3373ffffffffffffffffffffffffffffffffffffffff167f4c209b5fc8ad50758f13e2e1088ba56a560dff690a1c6fef26394f4c03821c4f8585604051808381526020018281526020019250505060405180910390a250505050505050506001600c81905550919050565b60016020528060005260406000206000915090505481565b600b5481565b60046020528060005260406000206000915090505481565b6000806001600c5414611ba3576040517f08c379a00000000000000000000000000000000000000000000000000000000081526004018080602001828103825260118152602001807f556e697377617056323a204c4f434b454400000000000000000000000000000081525060200191505060405180910390fd5b6000600c81905550600080611bb661124f565b50915091506000600660009054906101000a900473ffffffffffffffffffffffffffffffffffffffff1690506000600760009054906101000a900473ffffffffffffffffffffffffffffffffffffffff16905060008273ffffffffffffffffffffffffffffffffffffffff166370a08231306040518263ffffffff1660e01b8152600401808273ffffffffffffffffffffffffffffffffffffffff1673ffffffffffffffffffffffffffffffffffffffff16815260200191505060206040518083038186803b158015611c8857600080fd5b505afa158015611c9c573d6000803e3d6000fd5b505050506040513d6020811015611cb257600080fd5b8101908080519060200190929190505050905060008273ffffffffffffffffffffffffffffffffffffffff166370a08231306040518263ffffffff1660e01b8152600401808273ffffffffffffffffffffffffffffffffffffffff1673ffffffffffffffffffffffffffffffffffffffff16815260200191505060206040518083038186803b158015611d4457600080fd5b505afa158015611d58573d6000803e3d6000fd5b505050506040513d6020811015611d6e57600080fd5b810190808051906020019092919050505090506000600160003073ffffffffffffffffffffffffffffffffffffffff1673ffffffffffffffffffffffffffffffffffffffff1681526020019081526020016000205490506000611dd188886133dd565b905060008054905080611ded8685612cc890919063ffffffff16565b81611df457fe5b049a5080611e0b8585612cc890919063ffffffff16565b81611e1257fe5b04995060008b118015611e25575060008a115b611e7a576040517f08c379a00000000000000000000000000000000000000000000000000000000081526004018080602001828103825260288152602001806139e66028913960400191505060405180910390fd5b611e843084613753565b611e8f878d8d612a7b565b611e9a868d8c612a7b565b8673ffffffffffffffffffffffffffffffffffffffff166370a08231306040518263ffffffff1660e01b8152600401808273ffffffffffffffffffffffffffffffffffffffff1673ffffffffffffffffffffffffffffffffffffffff16815260200191505060206040518083038186803b158015611f1757600080fd5b505afa158015611f2b573d6000803e3d6000fd5b505050506040513d6020811015611f4157600080fd5b810190808051906020019092919050505094508573ffffffffffffffffffffffffffffffffffffffff166370a08231306040518263ffffffff1660e01b8152600401808273ffffffffffffffffffffffffffffffffffffffff1673ffffffffffffffffffffffffffffffffffffffff16815260200191505060206040518083038186803b158015611fd157600080fd5b505afa158015611fe5573d6000803e3d6000fd5b505050506040513d6020811015611ffb57600080fd5b8101908080519060200190929190505050935061201a85858b8b612de0565b81156120925761208b6008600e9054906101000a90046dffffffffffffffffffffffffffff166dffffffffffffffffffffffffffff16600860009054906101000a90046dffffffffffffffffffffffffffff166dffffffffffffffffffffffffffff16612cc890919063ffffffff16565b600b819055505b8b73ffffffffffffffffffffffffffffffffffffffff163373ffffffffffffffffffffffffffffffffffffffff167fdccd412f0b1252819cb1fd330b93224ca42612892bb3f4f789976e6d819364968d8d604051808381526020018281526020019250505060405180910390a35050505050505050506001600c81905550915091565b6040518060400160405280600681526020017f554e492d5632000000000000000000000000000000000000000000000000000081525081565b600061215b338484613249565b6001905092915050565b6103e881565b6001600c54146121e3576040517f08c379a00000000000000000000000000000000000000000000000000000000081526004018080602001828103825260118152602001807f556e697377617056323a204c4f434b454400000000000000000000000000000081525060200191505060405180910390fd5b6000600c819055506000600660009054906101000a900473ffffffffffffffffffffffffffffffffffffffff1690506000600760009054906101000a900473ffffffffffffffffffffffffffffffffffffffff1690506123398284612334600860009054906101000a90046dffffffffffffffffffffffffffff166dffffffffffffffffffffffffffff168673ffffffffffffffffffffffffffffffffffffffff166370a08231306040518263ffffffff1660e01b8152600401808273ffffffffffffffffffffffffffffffffffffffff1673ffffffffffffffffffffffffffffffffffffffff16815260200191505060206040518083038186803b1580156122eb57600080fd5b505afa1580156122ff573d6000803e3d6000fd5b505050506040513d602081101561231557600080fd5b8101908080519060200190929190505050612d5d90919063ffffffff16565b612a7b565b61243981846124346008600e9054906101000a90046dffffffffffffffffffffffffffff166dffffffffffffffffffffffffffff168573ffffffffffffffffffffffffffffffffffffffff166370a08231306040518263ffffffff1660e01b8152600401808273ffffffffffffffffffffffffffffffffffffffff1673ffffffffffffffffffffffffffffffffffffffff16815260200191505060206040518083038186803b1580156123eb57600080fd5b505afa1580156123ff573d6000803e3d6000fd5b505050506040513d602081101561241557600080fd5b8101908080519060200190929190505050612d5d90919063ffffffff16565b612a7b565b50506001600c8190555050565b600560009054906101000a900473ffffffffffffffffffffffffffffffffffffffff1681565b600760009054906101000a900473ffffffffffffffffffffffffffffffffffffffff1681565b42841015612508576040517f08c379a00000000000000000000000000000000000000000000000000000000081526004018080602001828103825260128152602001807f556e697377617056323a2045585049524544000000000000000000000000000081525060200191505060405180910390fd5b60006003547f6e71edae12b1b97f4d1f60370fef10105fa2faae0126114a169c64845d6126c960001b898989600460008e73ffffffffffffffffffffffffffffffffffffffff1673ffffffffffffffffffffffffffffffffffffffff1681526020019081526020016000206000815480929190600101919050558a604051602001808781526020018673ffffffffffffffffffffffffffffffffffffffff1673ffffffffffffffffffffffffffffffffffffffff1681526020018573ffffffffffffffffffffffffffffffffffffffff1673ffffffffffffffffffffffffffffffffffffffff16815260200184815260200183815260200182815260200196505050505050506040516020818303038152906040528051906020012060405160200180807f190100000000000000000000000000000000000000000000000000000000000081525060020183815260200182815260200192505050604051602081830303815290604052805190602001209050600060018286868660405160008152602001604052604051808581526020018460ff1660ff1681526020018381526020018281526020019450505050506020604051602081039080840390855afa1580156126da573d6000803e3d6000fd5b505050602060405103519050600073ffffffffffffffffffffffffffffffffffffffff168173ffffffffffffffffffffffffffffffffffffffff161415801561274e57508873ffffffffffffffffffffffffffffffffffffffff168173ffffffffffffffffffffffffffffffffffffffff16145b6127c0576040517f08c379a000000000000000000000000000000000000000000000000000000000815260040180806020018281038252601c8152602001807f556e697377617056323a20494e56414c49445f5349474e41545552450000000081525060200191505060405180910390fd5b6127cb89898961315e565b505050505050505050565b6002602052816000526040600020602052806000526040600020600091509150505481565b6001600c5414612873576040517f08c379a00000000000000000000000000000000000000000000000000000000081526004018080602001828103825260118152602001807f556e697377617056323a204c4f434b454400000000000000000000000000000081525060200191505060405180910390fd5b6000600c81905550612a71600660009054906101000a900473ffffffffffffffffffffffffffffffffffffffff1673ffffffffffffffffffffffffffffffffffffffff166370a08231306040518263ffffffff1660e01b8152600401808273ffffffffffffffffffffffffffffffffffffffff1673ffffffffffffffffffffffffffffffffffffffff16815260200191505060206040518083038186803b15801561291d57600080fd5b505afa158015612931573d6000803e3d6000fd5b505050506040513d602081101561294757600080fd5b8101908080519060200190929190505050600760009054906101000a900473ffffffffffffffffffffffffffffffffffffffff1673ffffffffffffffffffffffffffffffffffffffff166370a08231306040518263ffffffff1660e01b8152600401808273ffffffffffffffffffffffffffffffffffffffff1673ffffffffffffffffffffffffffffffffffffffff16815260200191505060206040518083038186803b1580156129f757600080fd5b505afa158015612a0b573d6000803e3d6000fd5b505050506040513d6020811015612a2157600080fd5b8101908080519060200190929190505050600860009054906101000a90046dffffffffffffffffffffffffffff166008600e9054906101000a90046dffffffffffffffffffffffffffff16612de0565b6001600c81905550565b600060608473ffffffffffffffffffffffffffffffffffffffff166040518060400160405280601981526020017f7472616e7366657228616464726573732c75696e743235362900000000000000815250805190602001208585604051602401808373ffffffffffffffffffffffffffffffffffffffff1673ffffffffffffffffffffffffffffffffffffffff16815260200182815260200192505050604051602081830303815290604052907bffffffffffffffffffffffffffffffffffffffffffffffffffffffff19166020820180517bffffffffffffffffffffffffffffffffffffffffffffffffffffffff83818316178352505050506040518082805190602001908083835b60208310612ba85780518252602082019150602081019050602083039250612b85565b6001836020036101000a0380198251168184511680821785525050505050509050019150506000604051808303816000865af19150503d8060008114612c0a576040519150601f19603f3d011682016040523d82523d6000602084013e612c0f565b606091505b5091509150818015612c4f5750600081511480612c4e5750808060200190516020811015612c3c57600080fd5b81019080805190602001909291905050505b5b612cc1576040517f08c379a000000000000000000000000000000000000000000000000000000000815260040180806020018281038252601a8152602001807f556e697377617056323a205452414e534645525f4641494c454400000000000081525060200191505060405180910390fd5b5050505050565b600080821480612ce55750828283850292508281612ce257fe5b04145b612d57576040517f08c379a00000000000000000000000000000000000000000000000000000000081526004018080602001828103825260148152602001807f64732d6d6174682d6d756c2d6f766572666c6f7700000000000000000000000081525060200191505060405180910390fd5b92915050565b6000828284039150811115612dda576040517f08c379a00000000000000000000000000000000000000000000000000000000081526004018080602001828103825260158152602001807f64732d6d6174682d7375622d756e646572666c6f77000000000000000000000081525060200191505060405180910390fd5b92915050565b7fffffffffffffffffffffffffffffffffffffffffffffffffffffffffffffffff6dffffffffffffffffffffffffffff168411158015612e5057507fffffffffffffffffffffffffffffffffffffffffffffffffffffffffffffffff6dffffffffffffffffffffffffffff168311155b612ec2576040517f08c379a00000000000000000000000000000000000000000000000000000000081526004018080602001828103825260138152602001807f556e697377617056323a204f564552464c4f570000000000000000000000000081525060200191505060405180910390fd5b60006401000000004281612ed257fe5b06905060006008601c9054906101000a900463ffffffff168203905060008163ffffffff16118015612f1557506000846dffffffffffffffffffffffffffff1614155b8015612f3257506000836dffffffffffffffffffffffffffff1614155b15613014578063ffffffff16612f7785612f4b8661386d565b7bffffffffffffffffffffffffffffffffffffffffffffffffffffffff1661389890919063ffffffff16565b7bffffffffffffffffffffffffffffffffffffffffffffffffffffffff16026009600082825401925050819055508063ffffffff16612fe584612fb98761386d565b7bffffffffffffffffffffffffffffffffffffffffffffffffffffffff1661389890919063ffffffff16565b7bffffffffffffffffffffffffffffffffffffffffffffffffffffffff1602600a600082825401925050819055505b85600860006101000a8154816dffffffffffffffffffffffffffff02191690836dffffffffffffffffffffffffffff160217905550846008600e6101000a8154816dffffffffffffffffffffffffffff02191690836dffffffffffffffffffffffffffff160217905550816008601c6101000a81548163ffffffff021916908363ffffffff1602179055507f1c411e9a96e071241c2f21f7726b17ae89e3cab4c78be50e062b03a9fffbbad1600860009054906101000a90046dffffffffffffffffffffffffffff166008600e9054906101000a90046dffffffffffffffffffffffffffff1660405180836dffffffffffffffffffffffffffff166dffffffffffffffffffffffffffff168152602001826dffffffffffffffffffffffffffff166dffffffffffffffffffffffffffff1681526020019250505060405180910390a1505050505050565b80600260008573ffffffffffffffffffffffffffffffffffffffff1673ffffffffffffffffffffffffffffffffffffffff16815260200190815260200160002060008473ffffffffffffffffffffffffffffffffffffffff1673ffffffffffffffffffffffffffffffffffffffff168152602001908152602001600020819055508173ffffffffffffffffffffffffffffffffffffffff168373ffffffffffffffffffffffffffffffffffffffff167f8c5be1e5ebec7d5bd14f71427d1e84f3dd0314c0f7b2291e5b200ac8c7c3b925836040518082815260200191505060405180910390a3505050565b61329b81600160008673ffffffffffffffffffffffffffffffffffffffff1673ffffffffffffffffffffffffffffffffffffffff16815260200190815260200160002054612d5d90919063ffffffff16565b600160008573ffffffffffffffffffffffffffffffffffffffff1673ffffffffffffffffffffffffffffffffffffffff1681526020019081526020016000208190555061333081600160008573ffffffffffffffffffffffffffffffffffffffff1673ffffffffffffffffffffffffffffffffffffffff168152602001908152602001600020546138f890919063ffffffff16565b600160008473ffffffffffffffffffffffffffffffffffffffff1673ffffffffffffffffffffffffffffffffffffffff168152602001908152602001600020819055508173ffffffffffffffffffffffffffffffffffffffff168373ffffffffffffffffffffffffffffffffffffffff167fddf252ad1be2c89b69c2b068fc378daa952ba7f163c4a11628f55a4df523b3ef836040518082815260200191505060405180910390a3505050565b600080600560009054906101000a900473ffffffffffffffffffffffffffffffffffffffff1673ffffffffffffffffffffffffffffffffffffffff1663017e7e586040518163ffffffff1660e01b815260040160206040518083038186803b15801561344857600080fd5b505afa15801561345c573d6000803e3d6000fd5b505050506040513d602081101561347257600080fd5b81019080805190602001909291905050509050600073ffffffffffffffffffffffffffffffffffffffff168173ffffffffffffffffffffffffffffffffffffffff16141591506000600b54905082156135a4576000811461359f57600061350a613505866dffffffffffffffffffffffffffff16886dffffffffffffffffffffffffffff16612cc890919063ffffffff16565b6135be565b90506000613517836135be565b90508082111561359c57600061354a6135398385612d5d90919063ffffffff16565b600054612cc890919063ffffffff16565b9050600061357483613566600587612cc890919063ffffffff16565b6138f890919063ffffffff16565b9050600081838161358157fe5b0490506000811115613598576135978782613620565b5b5050505b50505b6135b6565b600081146135b5576000600b819055505b5b505092915050565b6000600382111561360d5781905060006001600284816135da57fe5b040190505b81811015613607578091506002818285816135f657fe5b0401816135ff57fe5b0490506135df565b5061361b565b6000821461361a57600190505b5b919050565b613635816000546138f890919063ffffffff16565b60008190555061368d81600160008573ffffffffffffffffffffffffffffffffffffffff1673ffffffffffffffffffffffffffffffffffffffff168152602001908152602001600020546138f890919063ffffffff16565b600160008473ffffffffffffffffffffffffffffffffffffffff1673ffffffffffffffffffffffffffffffffffffffff168152602001908152602001600020819055508173ffffffffffffffffffffffffffffffffffffffff16600073ffffffffffffffffffffffffffffffffffffffff167fddf252ad1be2c89b69c2b068fc378daa952ba7f163c4a11628f55a4df523b3ef836040518082815260200191505060405180910390a35050565b6000818310613749578161374b565b825b905092915050565b6137a581600160008573ffffffffffffffffffffffffffffffffffffffff1673ffffffffffffffffffffffffffffffffffffffff16815260200190815260200160002054612d5d90919063ffffffff16565b600160008473ffffffffffffffffffffffffffffffffffffffff1673ffffffffffffffffffffffffffffffffffffffff168152602001908152602001600020819055506137fd81600054612d5d90919063ffffffff16565b600081905550600073ffffffffffffffffffffffffffffffffffffffff168273ffffffffffffffffffffffffffffffffffffffff167fddf252ad1be2c89b69c2b068fc378daa952ba7f163c4a11628f55a4df523b3ef836040518082815260200191505060405180910390a35050565b60006e010000000000000000000000000000826dffffffffffffffffffffffffffff16029050919050565b6000816dffffffffffffffffffffffffffff167bffffffffffffffffffffffffffffffffffffffffffffffffffffffff16837bffffffffffffffffffffffffffffffffffffffffffffffffffffffff16816138ef57fe5b04905092915050565b6000828284019150811015613975576040517f08c379a00000000000000000000000000000000000000000000000000000000081526004018080602001828103825260148152602001807f64732d6d6174682d6164642d6f766572666c6f7700000000000000000000000081525060200191505060405180910390fd5b9291505056fe556e697377617056323a20494e53554646494349454e545f4f55545055545f414d4f554e54556e697377617056323a20494e53554646494349454e545f494e5055545f414d4f554e54556e697377617056323a20494e53554646494349454e545f4c4951554944495459556e697377617056323a20494e53554646494349454e545f4c49515549444954595f4255524e4544556e697377617056323a20494e53554646494349454e545f4c49515549444954595f4d494e544544a265627a7a72315820436c952957deeaec41573d6785844fb88315c188169b90b71f1b00956a83762064736f6c63430005100032454950373132446f6d61696e28737472696e67206e616d652c737472696e672076657273696f6e2c75696e7432353620636861696e49642c6164647265737320766572696679696e67436f6e747261637429",
					"opcodes": "PUSH1 0x80 PUSH1 0x40 MSTORE PUSH1 0x1 PUSH1 0xC SSTORE CALLVALUE DUP1 ISZERO PUSH2 0x15 JUMPI PUSH1 0x0 DUP1 REVERT JUMPDEST POP PUSH1 0x0 CHAINID SWAP1 POP PUSH1 0x40 MLOAD DUP1 DUP1 PUSH2 0x3BDF PUSH1 0x52 SWAP2 CODECOPY PUSH1 0x52 ADD SWAP1 POP PUSH1 0x40 MLOAD DUP1 SWAP2 SUB SWAP1 KECCAK256 PUSH1 0x40 MLOAD DUP1 PUSH1 0x40 ADD PUSH1 0x40 MSTORE DUP1 PUSH1 0xA DUP2 MSTORE PUSH1 0x20 ADD PUSH32 0x556E697377617020563200000000000000000000000000000000000000000000 DUP2 MSTORE POP DUP1 MLOAD SWAP1 PUSH1 0x20 ADD KECCAK256 PUSH1 0x40 MLOAD DUP1 PUSH1 0x40 ADD PUSH1 0x40 MSTORE DUP1 PUSH1 0x1 DUP2 MSTORE PUSH1 0x20 ADD PUSH32 0x3100000000000000000000000000000000000000000000000000000000000000 DUP2 MSTORE POP DUP1 MLOAD SWAP1 PUSH1 0x20 ADD KECCAK256 DUP4 ADDRESS PUSH1 0x40 MLOAD PUSH1 0x20 ADD DUP1 DUP7 DUP2 MSTORE PUSH1 0x20 ADD DUP6 DUP2 MSTORE PUSH1 0x20 ADD DUP5 DUP2 MSTORE PUSH1 0x20 ADD DUP4 DUP2 MSTORE PUSH1 0x20 ADD DUP3 PUSH20 0xFFFFFFFFFFFFFFFFFFFFFFFFFFFFFFFFFFFFFFFF AND PUSH20 0xFFFFFFFFFFFFFFFFFFFFFFFFFFFFFFFFFFFFFFFF AND DUP2 MSTORE PUSH1 0x20 ADD SWAP6 POP POP POP POP POP POP PUSH1 0x40 MLOAD PUSH1 0x20 DUP2 DUP4 SUB SUB DUP2 MSTORE SWAP1 PUSH1 0x40 MSTORE DUP1 MLOAD SWAP1 PUSH1 0x20 ADD KECCAK256 PUSH1 0x3 DUP2 SWAP1 SSTORE POP POP CALLER PUSH1 0x5 PUSH1 0x0 PUSH2 0x100 EXP DUP2 SLOAD DUP2 PUSH20 0xFFFFFFFFFFFFFFFFFFFFFFFFFFFFFFFFFFFFFFFF MUL NOT AND SWAP1 DUP4 PUSH20 0xFFFFFFFFFFFFFFFFFFFFFFFFFFFFFFFFFFFFFFFF AND MUL OR SWAP1 SSTORE POP PUSH2 0x3A6A DUP1 PUSH2 0x175 PUSH1 0x0 CODECOPY PUSH1 0x0 RETURN INVALID PUSH1 0x80 PUSH1 0x40 MSTORE CALLVALUE DUP1 ISZERO PUSH2 0x10 JUMPI PUSH1 0x0 DUP1 REVERT JUMPDEST POP PUSH1 0x4 CALLDATASIZE LT PUSH2 0x1A9 JUMPI PUSH1 0x0 CALLDATALOAD PUSH1 0xE0 SHR DUP1 PUSH4 0x6A627842 GT PUSH2 0xF9 JUMPI DUP1 PUSH4 0xBA9A7A56 GT PUSH2 0x97 JUMPI DUP1 PUSH4 0xD21220A7 GT PUSH2 0x71 JUMPI DUP1 PUSH4 0xD21220A7 EQ PUSH2 0x8C4 JUMPI DUP1 PUSH4 0xD505ACCF EQ PUSH2 0x90E JUMPI DUP1 PUSH4 0xDD62ED3E EQ PUSH2 0x9A7 JUMPI DUP1 PUSH4 0xFFF6CAE9 EQ PUSH2 0xA1F JUMPI PUSH2 0x1A9 JUMP JUMPDEST DUP1 PUSH4 0xBA9A7A56 EQ PUSH2 0x818 JUMPI DUP1 PUSH4 0xBC25CF77 EQ PUSH2 0x836 JUMPI DUP1 PUSH4 0xC45A0155 EQ PUSH2 0x87A JUMPI PUSH2 0x1A9 JUMP JUMPDEST DUP1 PUSH4 0x7ECEBE00 GT PUSH2 0xD3 JUMPI DUP1 PUSH4 0x7ECEBE00 EQ PUSH2 0x678 JUMPI DUP1 PUSH4 0x89AFCB44 EQ PUSH2 0x6D0 JUMPI DUP1 PUSH4 0x95D89B41 EQ PUSH2 0x72F JUMPI DUP1 PUSH4 0xA9059CBB EQ PUSH2 0x7B2 JUMPI PUSH2 0x1A9 JUMP JUMPDEST DUP1 PUSH4 0x6A627842 EQ PUSH2 0x5AA JUMPI DUP1 PUSH4 0x70A08231 EQ PUSH2 0x602 JUMPI DUP1 PUSH4 0x7464FC3D EQ PUSH2 0x65A JUMPI PUSH2 0x1A9 JUMP JUMPDEST DUP1 PUSH4 0x23B872DD GT PUSH2 0x166 JUMPI DUP1 PUSH4 0x3644E515 GT PUSH2 0x140 JUMPI DUP1 PUSH4 0x3644E515 EQ PUSH2 0x4EC JUMPI DUP1 PUSH4 0x485CC955 EQ PUSH2 0x50A JUMPI DUP1 PUSH4 0x5909C0D5 EQ PUSH2 0x56E JUMPI DUP1 PUSH4 0x5A3D5493 EQ PUSH2 0x58C JUMPI PUSH2 0x1A9 JUMP JUMPDEST DUP1 PUSH4 0x23B872DD EQ PUSH2 0x424 JUMPI DUP1 PUSH4 0x30ADF81F EQ PUSH2 0x4AA JUMPI DUP1 PUSH4 0x313CE567 EQ PUSH2 0x4C8 JUMPI PUSH2 0x1A9 JUMP JUMPDEST DUP1 PUSH4 0x22C0D9F EQ PUSH2 0x1AE JUMPI DUP1 PUSH4 0x6FDDE03 EQ PUSH2 0x25B JUMPI DUP1 PUSH4 0x902F1AC EQ PUSH2 0x2DE JUMPI DUP1 PUSH4 0x95EA7B3 EQ PUSH2 0x356 JUMPI DUP1 PUSH4 0xDFE1681 EQ PUSH2 0x3BC JUMPI DUP1 PUSH4 0x18160DDD EQ PUSH2 0x406 JUMPI JUMPDEST PUSH1 0x0 DUP1 REVERT JUMPDEST PUSH2 0x259 PUSH1 0x4 DUP1 CALLDATASIZE SUB PUSH1 0x80 DUP2 LT ISZERO PUSH2 0x1C4 JUMPI PUSH1 0x0 DUP1 REVERT JUMPDEST DUP2 ADD SWAP1 DUP1 DUP1 CALLDATALOAD SWAP1 PUSH1 0x20 ADD SWAP1 SWAP3 SWAP2 SWAP1 DUP1 CALLDATALOAD SWAP1 PUSH1 0x20 ADD SWAP1 SWAP3 SWAP2 SWAP1 DUP1 CALLDATALOAD PUSH20 0xFFFFFFFFFFFFFFFFFFFFFFFFFFFFFFFFFFFFFFFF AND SWAP1 PUSH1 0x20 ADD SWAP1 SWAP3 SWAP2 SWAP1 DUP1 CALLDATALOAD SWAP1 PUSH1 0x20 ADD SWAP1 PUSH5 0x100000000 DUP2 GT ISZERO PUSH2 0x215 JUMPI PUSH1 0x0 DUP1 REVERT JUMPDEST DUP3 ADD DUP4 PUSH1 0x20 DUP3 ADD GT ISZERO PUSH2 0x227 JUMPI PUSH1 0x0 DUP1 REVERT JUMPDEST DUP1 CALLDATALOAD SWAP1 PUSH1 0x20 ADD SWAP2 DUP5 PUSH1 0x1 DUP4 MUL DUP5 ADD GT PUSH5 0x100000000 DUP4 GT OR ISZERO PUSH2 0x249 JUMPI PUSH1 0x0 DUP1 REVERT JUMPDEST SWAP1 SWAP2 SWAP3 SWAP4 SWAP2 SWAP3 SWAP4 SWAP1 POP POP POP PUSH2 0xA29 JUMP JUMPDEST STOP JUMPDEST PUSH2 0x263 PUSH2 0x1216 JUMP JUMPDEST PUSH1 0x40 MLOAD DUP1 DUP1 PUSH1 0x20 ADD DUP3 DUP2 SUB DUP3 MSTORE DUP4 DUP2 DUP2 MLOAD DUP2 MSTORE PUSH1 0x20 ADD SWAP2 POP DUP1 MLOAD SWAP1 PUSH1 0x20 ADD SWAP1 DUP1 DUP4 DUP4 PUSH1 0x0 JUMPDEST DUP4 DUP2 LT ISZERO PUSH2 0x2A3 JUMPI DUP1 DUP3 ADD MLOAD DUP2 DUP5 ADD MSTORE PUSH1 0x20 DUP2 ADD SWAP1 POP PUSH2 0x288 JUMP JUMPDEST POP POP POP POP SWAP1 POP SWAP1 DUP2 ADD SWAP1 PUSH1 0x1F AND DUP1 ISZERO PUSH2 0x2D0 JUMPI DUP1 DUP3 SUB DUP1 MLOAD PUSH1 0x1 DUP4 PUSH1 0x20 SUB PUSH2 0x100 EXP SUB NOT AND DUP2 MSTORE PUSH1 0x20 ADD SWAP2 POP JUMPDEST POP SWAP3 POP POP POP PUSH1 0x40 MLOAD DUP1 SWAP2 SUB SWAP1 RETURN JUMPDEST PUSH2 0x2E6 PUSH2 0x124F JUMP JUMPDEST PUSH1 0x40 MLOAD DUP1 DUP5 PUSH14 0xFFFFFFFFFFFFFFFFFFFFFFFFFFFF AND PUSH14 0xFFFFFFFFFFFFFFFFFFFFFFFFFFFF AND DUP2 MSTORE PUSH1 0x20 ADD DUP4 PUSH14 0xFFFFFFFFFFFFFFFFFFFFFFFFFFFF AND PUSH14 0xFFFFFFFFFFFFFFFFFFFFFFFFFFFF AND DUP2 MSTORE PUSH1 0x20 ADD DUP3 PUSH4 0xFFFFFFFF AND PUSH4 0xFFFFFFFF AND DUP2 MSTORE PUSH1 0x20 ADD SWAP4 POP POP POP POP PUSH1 0x40 MLOAD DUP1 SWAP2 SUB SWAP1 RETURN JUMPDEST PUSH2 0x3A2 PUSH1 0x4 DUP1 CALLDATASIZE SUB PUSH1 0x40 DUP2 LT ISZERO PUSH2 0x36C JUMPI PUSH1 0x0 DUP1 REVERT JUMPDEST DUP2 ADD SWAP1 DUP1 DUP1 CALLDATALOAD PUSH20 0xFFFFFFFFFFFFFFFFFFFFFFFFFFFFFFFFFFFFFFFF AND SWAP1 PUSH1 0x20 ADD SWAP1 SWAP3 SWAP2 SWAP1 DUP1 CALLDATALOAD SWAP1 PUSH1 0x20 ADD SWAP1 SWAP3 SWAP2 SWAP1 POP POP POP PUSH2 0x12AC JUMP JUMPDEST PUSH1 0x40 MLOAD DUP1 DUP3 ISZERO ISZERO ISZERO ISZERO DUP2 MSTORE PUSH1 0x20 ADD SWAP2 POP POP PUSH1 0x40 MLOAD DUP1 SWAP2 SUB SWAP1 RETURN JUMPDEST PUSH2 0x3C4 PUSH2 0x12C3 JUMP JUMPDEST PUSH1 0x40 MLOAD DUP1 DUP3 PUSH20 0xFFFFFFFFFFFFFFFFFFFFFFFFFFFFFFFFFFFFFFFF AND PUSH20 0xFFFFFFFFFFFFFFFFFFFFFFFFFFFFFFFFFFFFFFFF AND DUP2 MSTORE PUSH1 0x20 ADD SWAP2 POP POP PUSH1 0x40 MLOAD DUP1 SWAP2 SUB SWAP1 RETURN JUMPDEST PUSH2 0x40E PUSH2 0x12E9 JUMP JUMPDEST PUSH1 0x40 MLOAD DUP1 DUP3 DUP2 MSTORE PUSH1 0x20 ADD SWAP2 POP POP PUSH1 0x40 MLOAD DUP1 SWAP2 SUB SWAP1 RETURN JUMPDEST PUSH2 0x490 PUSH1 0x4 DUP1 CALLDATASIZE SUB PUSH1 0x60 DUP2 LT ISZERO PUSH2 0x43A JUMPI PUSH1 0x0 DUP1 REVERT JUMPDEST DUP2 ADD SWAP1 DUP1 DUP1 CALLDATALOAD PUSH20 0xFFFFFFFFFFFFFFFFFFFFFFFFFFFFFFFFFFFFFFFF AND SWAP1 PUSH1 0x20 ADD SWAP1 SWAP3 SWAP2 SWAP1 DUP1 CALLDATALOAD PUSH20 0xFFFFFFFFFFFFFFFFFFFFFFFFFFFFFFFFFFFFFFFF AND SWAP1 PUSH1 0x20 ADD SWAP1 SWAP3 SWAP2 SWAP1 DUP1 CALLDATALOAD SWAP1 PUSH1 0x20 ADD SWAP1 SWAP3 SWAP2 SWAP1 POP POP POP PUSH2 0x12EF JUMP JUMPDEST PUSH1 0x40 MLOAD DUP1 DUP3 ISZERO ISZERO ISZERO ISZERO DUP2 MSTORE PUSH1 0x20 ADD SWAP2 POP POP PUSH1 0x40 MLOAD DUP1 SWAP2 SUB SWAP1 RETURN JUMPDEST PUSH2 0x4B2 PUSH2 0x14BA JUMP JUMPDEST PUSH1 0x40 MLOAD DUP1 DUP3 DUP2 MSTORE PUSH1 0x20 ADD SWAP2 POP POP PUSH1 0x40 MLOAD DUP1 SWAP2 SUB SWAP1 RETURN JUMPDEST PUSH2 0x4D0 PUSH2 0x14E1 JUMP JUMPDEST PUSH1 0x40 MLOAD DUP1 DUP3 PUSH1 0xFF AND PUSH1 0xFF AND DUP2 MSTORE PUSH1 0x20 ADD SWAP2 POP POP PUSH1 0x40 MLOAD DUP1 SWAP2 SUB SWAP1 RETURN JUMPDEST PUSH2 0x4F4 PUSH2 0x14E6 JUMP JUMPDEST PUSH1 0x40 MLOAD DUP1 DUP3 DUP2 MSTORE PUSH1 0x20 ADD SWAP2 POP POP PUSH1 0x40 MLOAD DUP1 SWAP2 SUB SWAP1 RETURN JUMPDEST PUSH2 0x56C PUSH1 0x4 DUP1 CALLDATASIZE SUB PUSH1 0x40 DUP2 LT ISZERO PUSH2 0x520 JUMPI PUSH1 0x0 DUP1 REVERT JUMPDEST DUP2 ADD SWAP1 DUP1 DUP1 CALLDATALOAD PUSH20 0xFFFFFFFFFFFFFFFFFFFFFFFFFFFFFFFFFFFFFFFF AND SWAP1 PUSH1 0x20 ADD SWAP1 SWAP3 SWAP2 SWAP1 DUP1 CALLDATALOAD PUSH20 0xFFFFFFFFFFFFFFFFFFFFFFFFFFFFFFFFFFFFFFFF AND SWAP1 PUSH1 0x20 ADD SWAP1 SWAP3 SWAP2 SWAP1 POP POP POP PUSH2 0x14EC JUMP JUMPDEST STOP JUMPDEST PUSH2 0x576 PUSH2 0x1635 JUMP JUMPDEST PUSH1 0x40 MLOAD DUP1 DUP3 DUP2 MSTORE PUSH1 0x20 ADD SWAP2 POP POP PUSH1 0x40 MLOAD DUP1 SWAP2 SUB SWAP1 RETURN JUMPDEST PUSH2 0x594 PUSH2 0x163B JUMP JUMPDEST PUSH1 0x40 MLOAD DUP1 DUP3 DUP2 MSTORE PUSH1 0x20 ADD SWAP2 POP POP PUSH1 0x40 MLOAD DUP1 SWAP2 SUB SWAP1 RETURN JUMPDEST PUSH2 0x5EC PUSH1 0x4 DUP1 CALLDATASIZE SUB PUSH1 0x20 DUP2 LT ISZERO PUSH2 0x5C0 JUMPI PUSH1 0x0 DUP1 REVERT JUMPDEST DUP2 ADD SWAP1 DUP1 DUP1 CALLDATALOAD PUSH20 0xFFFFFFFFFFFFFFFFFFFFFFFFFFFFFFFFFFFFFFFF AND SWAP1 PUSH1 0x20 ADD SWAP1 SWAP3 SWAP2 SWAP1 POP POP POP PUSH2 0x1641 JUMP JUMPDEST PUSH1 0x40 MLOAD DUP1 DUP3 DUP2 MSTORE PUSH1 0x20 ADD SWAP2 POP POP PUSH1 0x40 MLOAD DUP1 SWAP2 SUB SWAP1 RETURN JUMPDEST PUSH2 0x644 PUSH1 0x4 DUP1 CALLDATASIZE SUB PUSH1 0x20 DUP2 LT ISZERO PUSH2 0x618 JUMPI PUSH1 0x0 DUP1 REVERT JUMPDEST DUP2 ADD SWAP1 DUP1 DUP1 CALLDATALOAD PUSH20 0xFFFFFFFFFFFFFFFFFFFFFFFFFFFFFFFFFFFFFFFF AND SWAP1 PUSH1 0x20 ADD SWAP1 SWAP3 SWAP2 SWAP1 POP POP POP PUSH2 0x1AF2 JUMP JUMPDEST PUSH1 0x40 MLOAD DUP1 DUP3 DUP2 MSTORE PUSH1 0x20 ADD SWAP2 POP POP PUSH1 0x40 MLOAD DUP1 SWAP2 SUB SWAP1 RETURN JUMPDEST PUSH2 0x662 PUSH2 0x1B0A JUMP JUMPDEST PUSH1 0x40 MLOAD DUP1 DUP3 DUP2 MSTORE PUSH1 0x20 ADD SWAP2 POP POP PUSH1 0x40 MLOAD DUP1 SWAP2 SUB SWAP1 RETURN JUMPDEST PUSH2 0x6BA PUSH1 0x4 DUP1 CALLDATASIZE SUB PUSH1 0x20 DUP2 LT ISZERO PUSH2 0x68E JUMPI PUSH1 0x0 DUP1 REVERT JUMPDEST DUP2 ADD SWAP1 DUP1 DUP1 CALLDATALOAD PUSH20 0xFFFFFFFFFFFFFFFFFFFFFFFFFFFFFFFFFFFFFFFF AND SWAP1 PUSH1 0x20 ADD SWAP1 SWAP3 SWAP2 SWAP1 POP POP POP PUSH2 0x1B10 JUMP JUMPDEST PUSH1 0x40 MLOAD DUP1 DUP3 DUP2 MSTORE PUSH1 0x20 ADD SWAP2 POP POP PUSH1 0x40 MLOAD DUP1 SWAP2 SUB SWAP1 RETURN JUMPDEST PUSH2 0x712 PUSH1 0x4 DUP1 CALLDATASIZE SUB PUSH1 0x20 DUP2 LT ISZERO PUSH2 0x6E6 JUMPI PUSH1 0x0 DUP1 REVERT JUMPDEST DUP2 ADD SWAP1 DUP1 DUP1 CALLDATALOAD PUSH20 0xFFFFFFFFFFFFFFFFFFFFFFFFFFFFFFFFFFFFFFFF AND SWAP1 PUSH1 0x20 ADD SWAP1 SWAP3 SWAP2 SWAP1 POP POP POP PUSH2 0x1B28 JUMP JUMPDEST PUSH1 0x40 MLOAD DUP1 DUP4 DUP2 MSTORE PUSH1 0x20 ADD DUP3 DUP2 MSTORE PUSH1 0x20 ADD SWAP3 POP POP POP PUSH1 0x40 MLOAD DUP1 SWAP2 SUB SWAP1 RETURN JUMPDEST PUSH2 0x737 PUSH2 0x2115 JUMP JUMPDEST PUSH1 0x40 MLOAD DUP1 DUP1 PUSH1 0x20 ADD DUP3 DUP2 SUB DUP3 MSTORE DUP4 DUP2 DUP2 MLOAD DUP2 MSTORE PUSH1 0x20 ADD SWAP2 POP DUP1 MLOAD SWAP1 PUSH1 0x20 ADD SWAP1 DUP1 DUP4 DUP4 PUSH1 0x0 JUMPDEST DUP4 DUP2 LT ISZERO PUSH2 0x777 JUMPI DUP1 DUP3 ADD MLOAD DUP2 DUP5 ADD MSTORE PUSH1 0x20 DUP2 ADD SWAP1 POP PUSH2 0x75C JUMP JUMPDEST POP POP POP POP SWAP1 POP SWAP1 DUP2 ADD SWAP1 PUSH1 0x1F AND DUP1 ISZERO PUSH2 0x7A4 JUMPI DUP1 DUP3 SUB DUP1 MLOAD PUSH1 0x1 DUP4 PUSH1 0x20 SUB PUSH2 0x100 EXP SUB NOT AND DUP2 MSTORE PUSH1 0x20 ADD SWAP2 POP JUMPDEST POP SWAP3 POP POP POP PUSH1 0x40 MLOAD DUP1 SWAP2 SUB SWAP1 RETURN JUMPDEST PUSH2 0x7FE PUSH1 0x4 DUP1 CALLDATASIZE SUB PUSH1 0x40 DUP2 LT ISZERO PUSH2 0x7C8 JUMPI PUSH1 0x0 DUP1 REVERT JUMPDEST DUP2 ADD SWAP1 DUP1 DUP1 CALLDATALOAD PUSH20 0xFFFFFFFFFFFFFFFFFFFFFFFFFFFFFFFFFFFFFFFF AND SWAP1 PUSH1 0x20 ADD SWAP1 SWAP3 SWAP2 SWAP1 DUP1 CALLDATALOAD SWAP1 PUSH1 0x20 ADD SWAP1 SWAP3 SWAP2 SWAP1 POP POP POP PUSH2 0x214E JUMP JUMPDEST PUSH1 0x40 MLOAD DUP1 DUP3 ISZERO ISZERO ISZERO ISZERO DUP2 MSTORE PUSH1 0x20 ADD SWAP2 POP POP PUSH1 0x40 MLOAD DUP1 SWAP2 SUB SWAP1 RETURN JUMPDEST PUSH2 0x820 PUSH2 0x2165 JUMP JUMPDEST PUSH1 0x40 MLOAD DUP1 DUP3 DUP2 MSTORE PUSH1 0x20 ADD SWAP2 POP POP PUSH1 0x40 MLOAD DUP1 SWAP2 SUB SWAP1 RETURN JUMPDEST PUSH2 0x878 PUSH1 0x4 DUP1 CALLDATASIZE SUB PUSH1 0x20 DUP2 LT ISZERO PUSH2 0x84C JUMPI PUSH1 0x0 DUP1 REVERT JUMPDEST DUP2 ADD SWAP1 DUP1 DUP1 CALLDATALOAD PUSH20 0xFFFFFFFFFFFFFFFFFFFFFFFFFFFFFFFFFFFFFFFF AND SWAP1 PUSH1 0x20 ADD SWAP1 SWAP3 SWAP2 SWAP1 POP POP POP PUSH2 0x216B JUMP JUMPDEST STOP JUMPDEST PUSH2 0x882 PUSH2 0x2446 JUMP JUMPDEST PUSH1 0x40 MLOAD DUP1 DUP3 PUSH20 0xFFFFFFFFFFFFFFFFFFFFFFFFFFFFFFFFFFFFFFFF AND PUSH20 0xFFFFFFFFFFFFFFFFFFFFFFFFFFFFFFFFFFFFFFFF AND DUP2 MSTORE PUSH1 0x20 ADD SWAP2 POP POP PUSH1 0x40 MLOAD DUP1 SWAP2 SUB SWAP1 RETURN JUMPDEST PUSH2 0x8CC PUSH2 0x246C JUMP JUMPDEST PUSH1 0x40 MLOAD DUP1 DUP3 PUSH20 0xFFFFFFFFFFFFFFFFFFFFFFFFFFFFFFFFFFFFFFFF AND PUSH20 0xFFFFFFFFFFFFFFFFFFFFFFFFFFFFFFFFFFFFFFFF AND DUP2 MSTORE PUSH1 0x20 ADD SWAP2 POP POP PUSH1 0x40 MLOAD DUP1 SWAP2 SUB SWAP1 RETURN JUMPDEST PUSH2 0x9A5 PUSH1 0x4 DUP1 CALLDATASIZE SUB PUSH1 0xE0 DUP2 LT ISZERO PUSH2 0x924 JUMPI PUSH1 0x0 DUP1 REVERT JUMPDEST DUP2 ADD SWAP1 DUP1 DUP1 CALLDATALOAD PUSH20 0xFFFFFFFFFFFFFFFFFFFFFFFFFFFFFFFFFFFFFFFF AND SWAP1 PUSH1 0x20 ADD SWAP1 SWAP3 SWAP2 SWAP1 DUP1 CALLDATALOAD PUSH20 0xFFFFFFFFFFFFFFFFFFFFFFFFFFFFFFFFFFFFFFFF AND SWAP1 PUSH1 0x20 ADD SWAP1 SWAP3 SWAP2 SWAP1 DUP1 CALLDATALOAD SWAP1 PUSH1 0x20 ADD SWAP1 SWAP3 SWAP2 SWAP1 DUP1 CALLDATALOAD SWAP1 PUSH1 0x20 ADD SWAP1 SWAP3 SWAP2 SWAP1 DUP1 CALLDATALOAD PUSH1 0xFF AND SWAP1 PUSH1 0x20 ADD SWAP1 SWAP3 SWAP2 SWAP1 DUP1 CALLDATALOAD SWAP1 PUSH1 0x20 ADD SWAP1 SWAP3 SWAP2 SWAP1 DUP1 CALLDATALOAD SWAP1 PUSH1 0x20 ADD SWAP1 SWAP3 SWAP2 SWAP1 POP POP POP PUSH2 0x2492 JUMP JUMPDEST STOP JUMPDEST PUSH2 0xA09 PUSH1 0x4 DUP1 CALLDATASIZE SUB PUSH1 0x40 DUP2 LT ISZERO PUSH2 0x9BD JUMPI PUSH1 0x0 DUP1 REVERT JUMPDEST DUP2 ADD SWAP1 DUP1 DUP1 CALLDATALOAD PUSH20 0xFFFFFFFFFFFFFFFFFFFFFFFFFFFFFFFFFFFFFFFF AND SWAP1 PUSH1 0x20 ADD SWAP1 SWAP3 SWAP2 SWAP1 DUP1 CALLDATALOAD PUSH20 0xFFFFFFFFFFFFFFFFFFFFFFFFFFFFFFFFFFFFFFFF AND SWAP1 PUSH1 0x20 ADD SWAP1 SWAP3 SWAP2 SWAP1 POP POP POP PUSH2 0x27D6 JUMP JUMPDEST PUSH1 0x40 MLOAD DUP1 DUP3 DUP2 MSTORE PUSH1 0x20 ADD SWAP2 POP POP PUSH1 0x40 MLOAD DUP1 SWAP2 SUB SWAP1 RETURN JUMPDEST PUSH2 0xA27 PUSH2 0x27FB JUMP JUMPDEST STOP JUMPDEST PUSH1 0x1 PUSH1 0xC SLOAD EQ PUSH2 0xAA1 JUMPI PUSH1 0x40 MLOAD PUSH32 0x8C379A000000000000000000000000000000000000000000000000000000000 DUP2 MSTORE PUSH1 0x4 ADD DUP1 DUP1 PUSH1 0x20 ADD DUP3 DUP2 SUB DUP3 MSTORE PUSH1 0x11 DUP2 MSTORE PUSH1 0x20 ADD DUP1 PUSH32 0x556E697377617056323A204C4F434B4544000000000000000000000000000000 DUP2 MSTORE POP PUSH1 0x20 ADD SWAP2 POP POP PUSH1 0x40 MLOAD DUP1 SWAP2 SUB SWAP1 REVERT JUMPDEST PUSH1 0x0 PUSH1 0xC DUP2 SWAP1 SSTORE POP PUSH1 0x0 DUP6 GT DUP1 PUSH2 0xAB8 JUMPI POP PUSH1 0x0 DUP5 GT JUMPDEST PUSH2 0xB0D JUMPI PUSH1 0x40 MLOAD PUSH32 0x8C379A000000000000000000000000000000000000000000000000000000000 DUP2 MSTORE PUSH1 0x4 ADD DUP1 DUP1 PUSH1 0x20 ADD DUP3 DUP2 SUB DUP3 MSTORE PUSH1 0x25 DUP2 MSTORE PUSH1 0x20 ADD DUP1 PUSH2 0x397C PUSH1 0x25 SWAP2 CODECOPY PUSH1 0x40 ADD SWAP2 POP POP PUSH1 0x40 MLOAD DUP1 SWAP2 SUB SWAP1 REVERT JUMPDEST PUSH1 0x0 DUP1 PUSH2 0xB18 PUSH2 0x124F JUMP JUMPDEST POP SWAP2 POP SWAP2 POP DUP2 PUSH14 0xFFFFFFFFFFFFFFFFFFFFFFFFFFFF AND DUP8 LT DUP1 ISZERO PUSH2 0xB4B JUMPI POP DUP1 PUSH14 0xFFFFFFFFFFFFFFFFFFFFFFFFFFFF AND DUP7 LT JUMPDEST PUSH2 0xBA0 JUMPI PUSH1 0x40 MLOAD PUSH32 0x8C379A000000000000000000000000000000000000000000000000000000000 DUP2 MSTORE PUSH1 0x4 ADD DUP1 DUP1 PUSH1 0x20 ADD DUP3 DUP2 SUB DUP3 MSTORE PUSH1 0x21 DUP2 MSTORE PUSH1 0x20 ADD DUP1 PUSH2 0x39C5 PUSH1 0x21 SWAP2 CODECOPY PUSH1 0x40 ADD SWAP2 POP POP PUSH1 0x40 MLOAD DUP1 SWAP2 SUB SWAP1 REVERT JUMPDEST PUSH1 0x0 DUP1 PUSH1 0x0 PUSH1 0x6 PUSH1 0x0 SWAP1 SLOAD SWAP1 PUSH2 0x100 EXP SWAP1 DIV PUSH20 0xFFFFFFFFFFFFFFFFFFFFFFFFFFFFFFFFFFFFFFFF AND SWAP1 POP PUSH1 0x0 PUSH1 0x7 PUSH1 0x0 SWAP1 SLOAD SWAP1 PUSH2 0x100 EXP SWAP1 DIV PUSH20 0xFFFFFFFFFFFFFFFFFFFFFFFFFFFFFFFFFFFFFFFF AND SWAP1 POP DUP2 PUSH20 0xFFFFFFFFFFFFFFFFFFFFFFFFFFFFFFFFFFFFFFFF AND DUP10 PUSH20 0xFFFFFFFFFFFFFFFFFFFFFFFFFFFFFFFFFFFFFFFF AND EQ ISZERO DUP1 ISZERO PUSH2 0xC59 JUMPI POP DUP1 PUSH20 0xFFFFFFFFFFFFFFFFFFFFFFFFFFFFFFFFFFFFFFFF AND DUP10 PUSH20 0xFFFFFFFFFFFFFFFFFFFFFFFFFFFFFFFFFFFFFFFF AND EQ ISZERO JUMPDEST PUSH2 0xCCB JUMPI PUSH1 0x40 MLOAD PUSH32 0x8C379A000000000000000000000000000000000000000000000000000000000 DUP2 MSTORE PUSH1 0x4 ADD DUP1 DUP1 PUSH1 0x20 ADD DUP3 DUP2 SUB DUP3 MSTORE PUSH1 0x15 DUP2 MSTORE PUSH1 0x20 ADD DUP1 PUSH32 0x556E697377617056323A20494E56414C49445F544F0000000000000000000000 DUP2 MSTORE POP PUSH1 0x20 ADD SWAP2 POP POP PUSH1 0x40 MLOAD DUP1 SWAP2 SUB SWAP1 REVERT JUMPDEST PUSH1 0x0 DUP12 GT ISZERO PUSH2 0xCE0 JUMPI PUSH2 0xCDF DUP3 DUP11 DUP14 PUSH2 0x2A7B JUMP JUMPDEST JUMPDEST PUSH1 0x0 DUP11 GT ISZERO PUSH2 0xCF5 JUMPI PUSH2 0xCF4 DUP2 DUP11 DUP13 PUSH2 0x2A7B JUMP JUMPDEST JUMPDEST PUSH1 0x0 DUP9 DUP9 SWAP1 POP GT ISZERO PUSH2 0xDDD JUMPI DUP9 PUSH20 0xFFFFFFFFFFFFFFFFFFFFFFFFFFFFFFFFFFFFFFFF AND PUSH4 0x10D1E85C CALLER DUP14 DUP14 DUP13 DUP13 PUSH1 0x40 MLOAD DUP7 PUSH4 0xFFFFFFFF AND PUSH1 0xE0 SHL DUP2 MSTORE PUSH1 0x4 ADD DUP1 DUP7 PUSH20 0xFFFFFFFFFFFFFFFFFFFFFFFFFFFFFFFFFFFFFFFF AND PUSH20 0xFFFFFFFFFFFFFFFFFFFFFFFFFFFFFFFFFFFFFFFF AND DUP2 MSTORE PUSH1 0x20 ADD DUP6 DUP2 MSTORE PUSH1 0x20 ADD DUP5 DUP2 MSTORE PUSH1 0x20 ADD DUP1 PUSH1 0x20 ADD DUP3 DUP2 SUB DUP3 MSTORE DUP5 DUP5 DUP3 DUP2 DUP2 MSTORE PUSH1 0x20 ADD SWAP3 POP DUP1 DUP3 DUP5 CALLDATACOPY PUSH1 0x0 DUP2 DUP5 ADD MSTORE PUSH1 0x1F NOT PUSH1 0x1F DUP3 ADD AND SWAP1 POP DUP1 DUP4 ADD SWAP3 POP POP POP SWAP7 POP POP POP POP POP POP POP PUSH1 0x0 PUSH1 0x40 MLOAD DUP1 DUP4 SUB DUP2 PUSH1 0x0 DUP8 DUP1 EXTCODESIZE ISZERO DUP1 ISZERO PUSH2 0xDC4 JUMPI PUSH1 0x0 DUP1 REVERT JUMPDEST POP GAS CALL ISZERO DUP1 ISZERO PUSH2 0xDD8 JUMPI RETURNDATASIZE PUSH1 0x0 DUP1 RETURNDATACOPY RETURNDATASIZE PUSH1 0x0 REVERT JUMPDEST POP POP POP POP JUMPDEST DUP2 PUSH20 0xFFFFFFFFFFFFFFFFFFFFFFFFFFFFFFFFFFFFFFFF AND PUSH4 0x70A08231 ADDRESS PUSH1 0x40 MLOAD DUP3 PUSH4 0xFFFFFFFF AND PUSH1 0xE0 SHL DUP2 MSTORE PUSH1 0x4 ADD DUP1 DUP3 PUSH20 0xFFFFFFFFFFFFFFFFFFFFFFFFFFFFFFFFFFFFFFFF AND PUSH20 0xFFFFFFFFFFFFFFFFFFFFFFFFFFFFFFFFFFFFFFFF AND DUP2 MSTORE PUSH1 0x20 ADD SWAP2 POP POP PUSH1 0x20 PUSH1 0x40 MLOAD DUP1 DUP4 SUB DUP2 DUP7 DUP1 EXTCODESIZE ISZERO DUP1 ISZERO PUSH2 0xE5A JUMPI PUSH1 0x0 DUP1 REVERT JUMPDEST POP GAS STATICCALL ISZERO DUP1 ISZERO PUSH2 0xE6E JUMPI RETURNDATASIZE PUSH1 0x0 DUP1 RETURNDATACOPY RETURNDATASIZE PUSH1 0x0 REVERT JUMPDEST POP POP POP POP PUSH1 0x40 MLOAD RETURNDATASIZE PUSH1 0x20 DUP2 LT ISZERO PUSH2 0xE84 JUMPI PUSH1 0x0 DUP1 REVERT JUMPDEST DUP2 ADD SWAP1 DUP1 DUP1 MLOAD SWAP1 PUSH1 0x20 ADD SWAP1 SWAP3 SWAP2 SWAP1 POP POP POP SWAP4 POP DUP1 PUSH20 0xFFFFFFFFFFFFFFFFFFFFFFFFFFFFFFFFFFFFFFFF AND PUSH4 0x70A08231 ADDRESS PUSH1 0x40 MLOAD DUP3 PUSH4 0xFFFFFFFF AND PUSH1 0xE0 SHL DUP2 MSTORE PUSH1 0x4 ADD DUP1 DUP3 PUSH20 0xFFFFFFFFFFFFFFFFFFFFFFFFFFFFFFFFFFFFFFFF AND PUSH20 0xFFFFFFFFFFFFFFFFFFFFFFFFFFFFFFFFFFFFFFFF AND DUP2 MSTORE PUSH1 0x20 ADD SWAP2 POP POP PUSH1 0x20 PUSH1 0x40 MLOAD DUP1 DUP4 SUB DUP2 DUP7 DUP1 EXTCODESIZE ISZERO DUP1 ISZERO PUSH2 0xF14 JUMPI PUSH1 0x0 DUP1 REVERT JUMPDEST POP GAS STATICCALL ISZERO DUP1 ISZERO PUSH2 0xF28 JUMPI RETURNDATASIZE PUSH1 0x0 DUP1 RETURNDATACOPY RETURNDATASIZE PUSH1 0x0 REVERT JUMPDEST POP POP POP POP PUSH1 0x40 MLOAD RETURNDATASIZE PUSH1 0x20 DUP2 LT ISZERO PUSH2 0xF3E JUMPI PUSH1 0x0 DUP1 REVERT JUMPDEST DUP2 ADD SWAP1 DUP1 DUP1 MLOAD SWAP1 PUSH1 0x20 ADD SWAP1 SWAP3 SWAP2 SWAP1 POP POP POP SWAP3 POP POP POP PUSH1 0x0 DUP10 DUP6 PUSH14 0xFFFFFFFFFFFFFFFFFFFFFFFFFFFF AND SUB DUP4 GT PUSH2 0xF75 JUMPI PUSH1 0x0 PUSH2 0xF8B JUMP JUMPDEST DUP10 DUP6 PUSH14 0xFFFFFFFFFFFFFFFFFFFFFFFFFFFF AND SUB DUP4 SUB JUMPDEST SWAP1 POP PUSH1 0x0 DUP10 DUP6 PUSH14 0xFFFFFFFFFFFFFFFFFFFFFFFFFFFF AND SUB DUP4 GT PUSH2 0xFAF JUMPI PUSH1 0x0 PUSH2 0xFC5 JUMP JUMPDEST DUP10 DUP6 PUSH14 0xFFFFFFFFFFFFFFFFFFFFFFFFFFFF AND SUB DUP4 SUB JUMPDEST SWAP1 POP PUSH1 0x0 DUP3 GT DUP1 PUSH2 0xFD6 JUMPI POP PUSH1 0x0 DUP2 GT JUMPDEST PUSH2 0x102B JUMPI PUSH1 0x40 MLOAD PUSH32 0x8C379A000000000000000000000000000000000000000000000000000000000 DUP2 MSTORE PUSH1 0x4 ADD DUP1 DUP1 PUSH1 0x20 ADD DUP3 DUP2 SUB DUP3 MSTORE PUSH1 0x24 DUP2 MSTORE PUSH1 0x20 ADD DUP1 PUSH2 0x39A1 PUSH1 0x24 SWAP2 CODECOPY PUSH1 0x40 ADD SWAP2 POP POP PUSH1 0x40 MLOAD DUP1 SWAP2 SUB SWAP1 REVERT JUMPDEST PUSH1 0x0 PUSH2 0x1067 PUSH2 0x1044 PUSH1 0x3 DUP6 PUSH2 0x2CC8 SWAP1 SWAP2 SWAP1 PUSH4 0xFFFFFFFF AND JUMP JUMPDEST PUSH2 0x1059 PUSH2 0x3E8 DUP9 PUSH2 0x2CC8 SWAP1 SWAP2 SWAP1 PUSH4 0xFFFFFFFF AND JUMP JUMPDEST PUSH2 0x2D5D SWAP1 SWAP2 SWAP1 PUSH4 0xFFFFFFFF AND JUMP JUMPDEST SWAP1 POP PUSH1 0x0 PUSH2 0x10A5 PUSH2 0x1082 PUSH1 0x3 DUP6 PUSH2 0x2CC8 SWAP1 SWAP2 SWAP1 PUSH4 0xFFFFFFFF AND JUMP JUMPDEST PUSH2 0x1097 PUSH2 0x3E8 DUP9 PUSH2 0x2CC8 SWAP1 SWAP2 SWAP1 PUSH4 0xFFFFFFFF AND JUMP JUMPDEST PUSH2 0x2D5D SWAP1 SWAP2 SWAP1 PUSH4 0xFFFFFFFF AND JUMP JUMPDEST SWAP1 POP PUSH2 0x10EF PUSH3 0xF4240 PUSH2 0x10E1 DUP10 PUSH14 0xFFFFFFFFFFFFFFFFFFFFFFFFFFFF AND DUP12 PUSH14 0xFFFFFFFFFFFFFFFFFFFFFFFFFFFF AND PUSH2 0x2CC8 SWAP1 SWAP2 SWAP1 PUSH4 0xFFFFFFFF AND JUMP JUMPDEST PUSH2 0x2CC8 SWAP1 SWAP2 SWAP1 PUSH4 0xFFFFFFFF AND JUMP JUMPDEST PUSH2 0x1102 DUP3 DUP5 PUSH2 0x2CC8 SWAP1 SWAP2 SWAP1 PUSH4 0xFFFFFFFF AND JUMP JUMPDEST LT ISZERO PUSH2 0x1176 JUMPI PUSH1 0x40 MLOAD PUSH32 0x8C379A000000000000000000000000000000000000000000000000000000000 DUP2 MSTORE PUSH1 0x4 ADD DUP1 DUP1 PUSH1 0x20 ADD DUP3 DUP2 SUB DUP3 MSTORE PUSH1 0xC DUP2 MSTORE PUSH1 0x20 ADD DUP1 PUSH32 0x556E697377617056323A204B0000000000000000000000000000000000000000 DUP2 MSTORE POP PUSH1 0x20 ADD SWAP2 POP POP PUSH1 0x40 MLOAD DUP1 SWAP2 SUB SWAP1 REVERT JUMPDEST POP POP PUSH2 0x1184 DUP5 DUP5 DUP9 DUP9 PUSH2 0x2DE0 JUMP JUMPDEST DUP9 PUSH20 0xFFFFFFFFFFFFFFFFFFFFFFFFFFFFFFFFFFFFFFFF AND CALLER PUSH20 0xFFFFFFFFFFFFFFFFFFFFFFFFFFFFFFFFFFFFFFFF AND PUSH32 0xD78AD95FA46C994B6551D0DA85FC275FE613CE37657FB8D5E3D130840159D822 DUP5 DUP5 DUP16 DUP16 PUSH1 0x40 MLOAD DUP1 DUP6 DUP2 MSTORE PUSH1 0x20 ADD DUP5 DUP2 MSTORE PUSH1 0x20 ADD DUP4 DUP2 MSTORE PUSH1 0x20 ADD DUP3 DUP2 MSTORE PUSH1 0x20 ADD SWAP5 POP POP POP POP POP PUSH1 0x40 MLOAD DUP1 SWAP2 SUB SWAP1 LOG3 POP POP POP POP POP POP PUSH1 0x1 PUSH1 0xC DUP2 SWAP1 SSTORE POP POP POP POP POP POP JUMP JUMPDEST PUSH1 0x40 MLOAD DUP1 PUSH1 0x40 ADD PUSH1 0x40 MSTORE DUP1 PUSH1 0xA DUP2 MSTORE PUSH1 0x20 ADD PUSH32 0x556E697377617020563200000000000000000000000000000000000000000000 DUP2 MSTORE POP DUP2 JUMP JUMPDEST PUSH1 0x0 DUP1 PUSH1 0x0 PUSH1 0x8 PUSH1 0x0 SWAP1 SLOAD SWAP1 PUSH2 0x100 EXP SWAP1 DIV PUSH14 0xFFFFFFFFFFFFFFFFFFFFFFFFFFFF AND SWAP3 POP PUSH1 0x8 PUSH1 0xE SWAP1 SLOAD SWAP1 PUSH2 0x100 EXP SWAP1 DIV PUSH14 0xFFFFFFFFFFFFFFFFFFFFFFFFFFFF AND SWAP2 POP PUSH1 0x8 PUSH1 0x1C SWAP1 SLOAD SWAP1 PUSH2 0x100 EXP SWAP1 DIV PUSH4 0xFFFFFFFF AND SWAP1 POP SWAP1 SWAP2 SWAP3 JUMP JUMPDEST PUSH1 0x0 PUSH2 0x12B9 CALLER DUP5 DUP5 PUSH2 0x315E JUMP JUMPDEST PUSH1 0x1 SWAP1 POP SWAP3 SWAP2 POP POP JUMP JUMPDEST PUSH1 0x6 PUSH1 0x0 SWAP1 SLOAD SWAP1 PUSH2 0x100 EXP SWAP1 DIV PUSH20 0xFFFFFFFFFFFFFFFFFFFFFFFFFFFFFFFFFFFFFFFF AND DUP2 JUMP JUMPDEST PUSH1 0x0 SLOAD DUP2 JUMP JUMPDEST PUSH1 0x0 PUSH32 0xFFFFFFFFFFFFFFFFFFFFFFFFFFFFFFFFFFFFFFFFFFFFFFFFFFFFFFFFFFFFFFFF PUSH1 0x2 PUSH1 0x0 DUP7 PUSH20 0xFFFFFFFFFFFFFFFFFFFFFFFFFFFFFFFFFFFFFFFF AND PUSH20 0xFFFFFFFFFFFFFFFFFFFFFFFFFFFFFFFFFFFFFFFF AND DUP2 MSTORE PUSH1 0x20 ADD SWAP1 DUP2 MSTORE PUSH1 0x20 ADD PUSH1 0x0 KECCAK256 PUSH1 0x0 CALLER PUSH20 0xFFFFFFFFFFFFFFFFFFFFFFFFFFFFFFFFFFFFFFFF AND PUSH20 0xFFFFFFFFFFFFFFFFFFFFFFFFFFFFFFFFFFFFFFFF AND DUP2 MSTORE PUSH1 0x20 ADD SWAP1 DUP2 MSTORE PUSH1 0x20 ADD PUSH1 0x0 KECCAK256 SLOAD EQ PUSH2 0x14A4 JUMPI PUSH2 0x1423 DUP3 PUSH1 0x2 PUSH1 0x0 DUP8 PUSH20 0xFFFFFFFFFFFFFFFFFFFFFFFFFFFFFFFFFFFFFFFF AND PUSH20 0xFFFFFFFFFFFFFFFFFFFFFFFFFFFFFFFFFFFFFFFF AND DUP2 MSTORE PUSH1 0x20 ADD SWAP1 DUP2 MSTORE PUSH1 0x20 ADD PUSH1 0x0 KECCAK256 PUSH1 0x0 CALLER PUSH20 0xFFFFFFFFFFFFFFFFFFFFFFFFFFFFFFFFFFFFFFFF AND PUSH20 0xFFFFFFFFFFFFFFFFFFFFFFFFFFFFFFFFFFFFFFFF AND DUP2 MSTORE PUSH1 0x20 ADD SWAP1 DUP2 MSTORE PUSH1 0x20 ADD PUSH1 0x0 KECCAK256 SLOAD PUSH2 0x2D5D SWAP1 SWAP2 SWAP1 PUSH4 0xFFFFFFFF AND JUMP JUMPDEST PUSH1 0x2 PUSH1 0x0 DUP7 PUSH20 0xFFFFFFFFFFFFFFFFFFFFFFFFFFFFFFFFFFFFFFFF AND PUSH20 0xFFFFFFFFFFFFFFFFFFFFFFFFFFFFFFFFFFFFFFFF AND DUP2 MSTORE PUSH1 0x20 ADD SWAP1 DUP2 MSTORE PUSH1 0x20 ADD PUSH1 0x0 KECCAK256 PUSH1 0x0 CALLER PUSH20 0xFFFFFFFFFFFFFFFFFFFFFFFFFFFFFFFFFFFFFFFF AND PUSH20 0xFFFFFFFFFFFFFFFFFFFFFFFFFFFFFFFFFFFFFFFF AND DUP2 MSTORE PUSH1 0x20 ADD SWAP1 DUP2 MSTORE PUSH1 0x20 ADD PUSH1 0x0 KECCAK256 DUP2 SWAP1 SSTORE POP JUMPDEST PUSH2 0x14AF DUP5 DUP5 DUP5 PUSH2 0x3249 JUMP JUMPDEST PUSH1 0x1 SWAP1 POP SWAP4 SWAP3 POP POP POP JUMP JUMPDEST PUSH32 0x6E71EDAE12B1B97F4D1F60370FEF10105FA2FAAE0126114A169C64845D6126C9 PUSH1 0x0 SHL DUP2 JUMP JUMPDEST PUSH1 0x12 DUP2 JUMP JUMPDEST PUSH1 0x3 SLOAD DUP2 JUMP JUMPDEST PUSH1 0x5 PUSH1 0x0 SWAP1 SLOAD SWAP1 PUSH2 0x100 EXP SWAP1 DIV PUSH20 0xFFFFFFFFFFFFFFFFFFFFFFFFFFFFFFFFFFFFFFFF AND PUSH20 0xFFFFFFFFFFFFFFFFFFFFFFFFFFFFFFFFFFFFFFFF AND CALLER PUSH20 0xFFFFFFFFFFFFFFFFFFFFFFFFFFFFFFFFFFFFFFFF AND EQ PUSH2 0x15AF JUMPI PUSH1 0x40 MLOAD PUSH32 0x8C379A000000000000000000000000000000000000000000000000000000000 DUP2 MSTORE PUSH1 0x4 ADD DUP1 DUP1 PUSH1 0x20 ADD DUP3 DUP2 SUB DUP3 MSTORE PUSH1 0x14 DUP2 MSTORE PUSH1 0x20 ADD DUP1 PUSH32 0x556E697377617056323A20464F5242494444454E000000000000000000000000 DUP2 MSTORE POP PUSH1 0x20 ADD SWAP2 POP POP PUSH1 0x40 MLOAD DUP1 SWAP2 SUB SWAP1 REVERT JUMPDEST DUP2 PUSH1 0x6 PUSH1 0x0 PUSH2 0x100 EXP DUP2 SLOAD DUP2 PUSH20 0xFFFFFFFFFFFFFFFFFFFFFFFFFFFFFFFFFFFFFFFF MUL NOT AND SWAP1 DUP4 PUSH20 0xFFFFFFFFFFFFFFFFFFFFFFFFFFFFFFFFFFFFFFFF AND MUL OR SWAP1 SSTORE POP DUP1 PUSH1 0x7 PUSH1 0x0 PUSH2 0x100 EXP DUP2 SLOAD DUP2 PUSH20 0xFFFFFFFFFFFFFFFFFFFFFFFFFFFFFFFFFFFFFFFF MUL NOT AND SWAP1 DUP4 PUSH20 0xFFFFFFFFFFFFFFFFFFFFFFFFFFFFFFFFFFFFFFFF AND MUL OR SWAP1 SSTORE POP POP POP JUMP JUMPDEST PUSH1 0x9 SLOAD DUP2 JUMP JUMPDEST PUSH1 0xA SLOAD DUP2 JUMP JUMPDEST PUSH1 0x0 PUSH1 0x1 PUSH1 0xC SLOAD EQ PUSH2 0x16BB JUMPI PUSH1 0x40 MLOAD PUSH32 0x8C379A000000000000000000000000000000000000000000000000000000000 DUP2 MSTORE PUSH1 0x4 ADD DUP1 DUP1 PUSH1 0x20 ADD DUP3 DUP2 SUB DUP3 MSTORE PUSH1 0x11 DUP2 MSTORE PUSH1 0x20 ADD DUP1 PUSH32 0x556E697377617056323A204C4F434B4544000000000000000000000000000000 DUP2 MSTORE POP PUSH1 0x20 ADD SWAP2 POP POP PUSH1 0x40 MLOAD DUP1 SWAP2 SUB SWAP1 REVERT JUMPDEST PUSH1 0x0 PUSH1 0xC DUP2 SWAP1 SSTORE POP PUSH1 0x0 DUP1 PUSH2 0x16CE PUSH2 0x124F JUMP JUMPDEST POP SWAP2 POP SWAP2 POP PUSH1 0x0 PUSH1 0x6 PUSH1 0x0 SWAP1 SLOAD SWAP1 PUSH2 0x100 EXP SWAP1 DIV PUSH20 0xFFFFFFFFFFFFFFFFFFFFFFFFFFFFFFFFFFFFFFFF AND PUSH20 0xFFFFFFFFFFFFFFFFFFFFFFFFFFFFFFFFFFFFFFFF AND PUSH4 0x70A08231 ADDRESS PUSH1 0x40 MLOAD DUP3 PUSH4 0xFFFFFFFF AND PUSH1 0xE0 SHL DUP2 MSTORE PUSH1 0x4 ADD DUP1 DUP3 PUSH20 0xFFFFFFFFFFFFFFFFFFFFFFFFFFFFFFFFFFFFFFFF AND PUSH20 0xFFFFFFFFFFFFFFFFFFFFFFFFFFFFFFFFFFFFFFFF AND DUP2 MSTORE PUSH1 0x20 ADD SWAP2 POP POP PUSH1 0x20 PUSH1 0x40 MLOAD DUP1 DUP4 SUB DUP2 DUP7 DUP1 EXTCODESIZE ISZERO DUP1 ISZERO PUSH2 0x1774 JUMPI PUSH1 0x0 DUP1 REVERT JUMPDEST POP GAS STATICCALL ISZERO DUP1 ISZERO PUSH2 0x1788 JUMPI RETURNDATASIZE PUSH1 0x0 DUP1 RETURNDATACOPY RETURNDATASIZE PUSH1 0x0 REVERT JUMPDEST POP POP POP POP PUSH1 0x40 MLOAD RETURNDATASIZE PUSH1 0x20 DUP2 LT ISZERO PUSH2 0x179E JUMPI PUSH1 0x0 DUP1 REVERT JUMPDEST DUP2 ADD SWAP1 DUP1 DUP1 MLOAD SWAP1 PUSH1 0x20 ADD SWAP1 SWAP3 SWAP2 SWAP1 POP POP POP SWAP1 POP PUSH1 0x0 PUSH1 0x7 PUSH1 0x0 SWAP1 SLOAD SWAP1 PUSH2 0x100 EXP SWAP1 DIV PUSH20 0xFFFFFFFFFFFFFFFFFFFFFFFFFFFFFFFFFFFFFFFF AND PUSH20 0xFFFFFFFFFFFFFFFFFFFFFFFFFFFFFFFFFFFFFFFF AND PUSH4 0x70A08231 ADDRESS PUSH1 0x40 MLOAD DUP3 PUSH4 0xFFFFFFFF AND PUSH1 0xE0 SHL DUP2 MSTORE PUSH1 0x4 ADD DUP1 DUP3 PUSH20 0xFFFFFFFFFFFFFFFFFFFFFFFFFFFFFFFFFFFFFFFF AND PUSH20 0xFFFFFFFFFFFFFFFFFFFFFFFFFFFFFFFFFFFFFFFF AND DUP2 MSTORE PUSH1 0x20 ADD SWAP2 POP POP PUSH1 0x20 PUSH1 0x40 MLOAD DUP1 DUP4 SUB DUP2 DUP7 DUP1 EXTCODESIZE ISZERO DUP1 ISZERO PUSH2 0x1852 JUMPI PUSH1 0x0 DUP1 REVERT JUMPDEST POP GAS STATICCALL ISZERO DUP1 ISZERO PUSH2 0x1866 JUMPI RETURNDATASIZE PUSH1 0x0 DUP1 RETURNDATACOPY RETURNDATASIZE PUSH1 0x0 REVERT JUMPDEST POP POP POP POP PUSH1 0x40 MLOAD RETURNDATASIZE PUSH1 0x20 DUP2 LT ISZERO PUSH2 0x187C JUMPI PUSH1 0x0 DUP1 REVERT JUMPDEST DUP2 ADD SWAP1 DUP1 DUP1 MLOAD SWAP1 PUSH1 0x20 ADD SWAP1 SWAP3 SWAP2 SWAP1 POP POP POP SWAP1 POP PUSH1 0x0 PUSH2 0x18B4 DUP6 PUSH14 0xFFFFFFFFFFFFFFFFFFFFFFFFFFFF AND DUP5 PUSH2 0x2D5D SWAP1 SWAP2 SWAP1 PUSH4 0xFFFFFFFF AND JUMP JUMPDEST SWAP1 POP PUSH1 0x0 PUSH2 0x18DB DUP6 PUSH14 0xFFFFFFFFFFFFFFFFFFFFFFFFFFFF AND DUP5 PUSH2 0x2D5D SWAP1 SWAP2 SWAP1 PUSH4 0xFFFFFFFF AND JUMP JUMPDEST SWAP1 POP PUSH1 0x0 PUSH2 0x18E9 DUP8 DUP8 PUSH2 0x33DD JUMP JUMPDEST SWAP1 POP PUSH1 0x0 DUP1 SLOAD SWAP1 POP PUSH1 0x0 DUP2 EQ ISZERO PUSH2 0x193D JUMPI PUSH2 0x1929 PUSH2 0x3E8 PUSH2 0x191B PUSH2 0x1916 DUP7 DUP9 PUSH2 0x2CC8 SWAP1 SWAP2 SWAP1 PUSH4 0xFFFFFFFF AND JUMP JUMPDEST PUSH2 0x35BE JUMP JUMPDEST PUSH2 0x2D5D SWAP1 SWAP2 SWAP1 PUSH4 0xFFFFFFFF AND JUMP JUMPDEST SWAP9 POP PUSH2 0x1938 PUSH1 0x0 PUSH2 0x3E8 PUSH2 0x3620 JUMP JUMPDEST PUSH2 0x19A0 JUMP JUMPDEST PUSH2 0x199D DUP9 PUSH14 0xFFFFFFFFFFFFFFFFFFFFFFFFFFFF AND PUSH2 0x1964 DUP4 DUP8 PUSH2 0x2CC8 SWAP1 SWAP2 SWAP1 PUSH4 0xFFFFFFFF AND JUMP JUMPDEST DUP2 PUSH2 0x196B JUMPI INVALID JUMPDEST DIV DUP9 PUSH14 0xFFFFFFFFFFFFFFFFFFFFFFFFFFFF AND PUSH2 0x1990 DUP5 DUP8 PUSH2 0x2CC8 SWAP1 SWAP2 SWAP1 PUSH4 0xFFFFFFFF AND JUMP JUMPDEST DUP2 PUSH2 0x1997 JUMPI INVALID JUMPDEST DIV PUSH2 0x373A JUMP JUMPDEST SWAP9 POP JUMPDEST PUSH1 0x0 DUP10 GT PUSH2 0x19F9 JUMPI PUSH1 0x40 MLOAD PUSH32 0x8C379A000000000000000000000000000000000000000000000000000000000 DUP2 MSTORE PUSH1 0x4 ADD DUP1 DUP1 PUSH1 0x20 ADD DUP3 DUP2 SUB DUP3 MSTORE PUSH1 0x28 DUP2 MSTORE PUSH1 0x20 ADD DUP1 PUSH2 0x3A0E PUSH1 0x28 SWAP2 CODECOPY PUSH1 0x40 ADD SWAP2 POP POP PUSH1 0x40 MLOAD DUP1 SWAP2 SUB SWAP1 REVERT JUMPDEST PUSH2 0x1A03 DUP11 DUP11 PUSH2 0x3620 JUMP JUMPDEST PUSH2 0x1A0F DUP7 DUP7 DUP11 DUP11 PUSH2 0x2DE0 JUMP JUMPDEST DUP2 ISZERO PUSH2 0x1A87 JUMPI PUSH2 0x1A80 PUSH1 0x8 PUSH1 0xE SWAP1 SLOAD SWAP1 PUSH2 0x100 EXP SWAP1 DIV PUSH14 0xFFFFFFFFFFFFFFFFFFFFFFFFFFFF AND PUSH14 0xFFFFFFFFFFFFFFFFFFFFFFFFFFFF AND PUSH1 0x8 PUSH1 0x0 SWAP1 SLOAD SWAP1 PUSH2 0x100 EXP SWAP1 DIV PUSH14 0xFFFFFFFFFFFFFFFFFFFFFFFFFFFF AND PUSH14 0xFFFFFFFFFFFFFFFFFFFFFFFFFFFF AND PUSH2 0x2CC8 SWAP1 SWAP2 SWAP1 PUSH4 0xFFFFFFFF AND JUMP JUMPDEST PUSH1 0xB DUP2 SWAP1 SSTORE POP JUMPDEST CALLER PUSH20 0xFFFFFFFFFFFFFFFFFFFFFFFFFFFFFFFFFFFFFFFF AND PUSH32 0x4C209B5FC8AD50758F13E2E1088BA56A560DFF690A1C6FEF26394F4C03821C4F DUP6 DUP6 PUSH1 0x40 MLOAD DUP1 DUP4 DUP2 MSTORE PUSH1 0x20 ADD DUP3 DUP2 MSTORE PUSH1 0x20 ADD SWAP3 POP POP POP PUSH1 0x40 MLOAD DUP1 SWAP2 SUB SWAP1 LOG2 POP POP POP POP POP POP POP POP PUSH1 0x1 PUSH1 0xC DUP2 SWAP1 SSTORE POP SWAP2 SWAP1 POP JUMP JUMPDEST PUSH1 0x1 PUSH1 0x20 MSTORE DUP1 PUSH1 0x0 MSTORE PUSH1 0x40 PUSH1 0x0 KECCAK256 PUSH1 0x0 SWAP2 POP SWAP1 POP SLOAD DUP2 JUMP JUMPDEST PUSH1 0xB SLOAD DUP2 JUMP JUMPDEST PUSH1 0x4 PUSH1 0x20 MSTORE DUP1 PUSH1 0x0 MSTORE PUSH1 0x40 PUSH1 0x0 KECCAK256 PUSH1 0x0 SWAP2 POP SWAP1 POP SLOAD DUP2 JUMP JUMPDEST PUSH1 0x0 DUP1 PUSH1 0x1 PUSH1 0xC SLOAD EQ PUSH2 0x1BA3 JUMPI PUSH1 0x40 MLOAD PUSH32 0x8C379A000000000000000000000000000000000000000000000000000000000 DUP2 MSTORE PUSH1 0x4 ADD DUP1 DUP1 PUSH1 0x20 ADD DUP3 DUP2 SUB DUP3 MSTORE PUSH1 0x11 DUP2 MSTORE PUSH1 0x20 ADD DUP1 PUSH32 0x556E697377617056323A204C4F434B4544000000000000000000000000000000 DUP2 MSTORE POP PUSH1 0x20 ADD SWAP2 POP POP PUSH1 0x40 MLOAD DUP1 SWAP2 SUB SWAP1 REVERT JUMPDEST PUSH1 0x0 PUSH1 0xC DUP2 SWAP1 SSTORE POP PUSH1 0x0 DUP1 PUSH2 0x1BB6 PUSH2 0x124F JUMP JUMPDEST POP SWAP2 POP SWAP2 POP PUSH1 0x0 PUSH1 0x6 PUSH1 0x0 SWAP1 SLOAD SWAP1 PUSH2 0x100 EXP SWAP1 DIV PUSH20 0xFFFFFFFFFFFFFFFFFFFFFFFFFFFFFFFFFFFFFFFF AND SWAP1 POP PUSH1 0x0 PUSH1 0x7 PUSH1 0x0 SWAP1 SLOAD SWAP1 PUSH2 0x100 EXP SWAP1 DIV PUSH20 0xFFFFFFFFFFFFFFFFFFFFFFFFFFFFFFFFFFFFFFFF AND SWAP1 POP PUSH1 0x0 DUP3 PUSH20 0xFFFFFFFFFFFFFFFFFFFFFFFFFFFFFFFFFFFFFFFF AND PUSH4 0x70A08231 ADDRESS PUSH1 0x40 MLOAD DUP3 PUSH4 0xFFFFFFFF AND PUSH1 0xE0 SHL DUP2 MSTORE PUSH1 0x4 ADD DUP1 DUP3 PUSH20 0xFFFFFFFFFFFFFFFFFFFFFFFFFFFFFFFFFFFFFFFF AND PUSH20 0xFFFFFFFFFFFFFFFFFFFFFFFFFFFFFFFFFFFFFFFF AND DUP2 MSTORE PUSH1 0x20 ADD SWAP2 POP POP PUSH1 0x20 PUSH1 0x40 MLOAD DUP1 DUP4 SUB DUP2 DUP7 DUP1 EXTCODESIZE ISZERO DUP1 ISZERO PUSH2 0x1C88 JUMPI PUSH1 0x0 DUP1 REVERT JUMPDEST POP GAS STATICCALL ISZERO DUP1 ISZERO PUSH2 0x1C9C JUMPI RETURNDATASIZE PUSH1 0x0 DUP1 RETURNDATACOPY RETURNDATASIZE PUSH1 0x0 REVERT JUMPDEST POP POP POP POP PUSH1 0x40 MLOAD RETURNDATASIZE PUSH1 0x20 DUP2 LT ISZERO PUSH2 0x1CB2 JUMPI PUSH1 0x0 DUP1 REVERT JUMPDEST DUP2 ADD SWAP1 DUP1 DUP1 MLOAD SWAP1 PUSH1 0x20 ADD SWAP1 SWAP3 SWAP2 SWAP1 POP POP POP SWAP1 POP PUSH1 0x0 DUP3 PUSH20 0xFFFFFFFFFFFFFFFFFFFFFFFFFFFFFFFFFFFFFFFF AND PUSH4 0x70A08231 ADDRESS PUSH1 0x40 MLOAD DUP3 PUSH4 0xFFFFFFFF AND PUSH1 0xE0 SHL DUP2 MSTORE PUSH1 0x4 ADD DUP1 DUP3 PUSH20 0xFFFFFFFFFFFFFFFFFFFFFFFFFFFFFFFFFFFFFFFF AND PUSH20 0xFFFFFFFFFFFFFFFFFFFFFFFFFFFFFFFFFFFFFFFF AND DUP2 MSTORE PUSH1 0x20 ADD SWAP2 POP POP PUSH1 0x20 PUSH1 0x40 MLOAD DUP1 DUP4 SUB DUP2 DUP7 DUP1 EXTCODESIZE ISZERO DUP1 ISZERO PUSH2 0x1D44 JUMPI PUSH1 0x0 DUP1 REVERT JUMPDEST POP GAS STATICCALL ISZERO DUP1 ISZERO PUSH2 0x1D58 JUMPI RETURNDATASIZE PUSH1 0x0 DUP1 RETURNDATACOPY RETURNDATASIZE PUSH1 0x0 REVERT JUMPDEST POP POP POP POP PUSH1 0x40 MLOAD RETURNDATASIZE PUSH1 0x20 DUP2 LT ISZERO PUSH2 0x1D6E JUMPI PUSH1 0x0 DUP1 REVERT JUMPDEST DUP2 ADD SWAP1 DUP1 DUP1 MLOAD SWAP1 PUSH1 0x20 ADD SWAP1 SWAP3 SWAP2 SWAP1 POP POP POP SWAP1 POP PUSH1 0x0 PUSH1 0x1 PUSH1 0x0 ADDRESS PUSH20 0xFFFFFFFFFFFFFFFFFFFFFFFFFFFFFFFFFFFFFFFF AND PUSH20 0xFFFFFFFFFFFFFFFFFFFFFFFFFFFFFFFFFFFFFFFF AND DUP2 MSTORE PUSH1 0x20 ADD SWAP1 DUP2 MSTORE PUSH1 0x20 ADD PUSH1 0x0 KECCAK256 SLOAD SWAP1 POP PUSH1 0x0 PUSH2 0x1DD1 DUP9 DUP9 PUSH2 0x33DD JUMP JUMPDEST SWAP1 POP PUSH1 0x0 DUP1 SLOAD SWAP1 POP DUP1 PUSH2 0x1DED DUP7 DUP6 PUSH2 0x2CC8 SWAP1 SWAP2 SWAP1 PUSH4 0xFFFFFFFF AND JUMP JUMPDEST DUP2 PUSH2 0x1DF4 JUMPI INVALID JUMPDEST DIV SWAP11 POP DUP1 PUSH2 0x1E0B DUP6 DUP6 PUSH2 0x2CC8 SWAP1 SWAP2 SWAP1 PUSH4 0xFFFFFFFF AND JUMP JUMPDEST DUP2 PUSH2 0x1E12 JUMPI INVALID JUMPDEST DIV SWAP10 POP PUSH1 0x0 DUP12 GT DUP1 ISZERO PUSH2 0x1E25 JUMPI POP PUSH1 0x0 DUP11 GT JUMPDEST PUSH2 0x1E7A JUMPI PUSH1 0x40 MLOAD PUSH32 0x8C379A000000000000000000000000000000000000000000000000000000000 DUP2 MSTORE PUSH1 0x4 ADD DUP1 DUP1 PUSH1 0x20 ADD DUP3 DUP2 SUB DUP3 MSTORE PUSH1 0x28 DUP2 MSTORE PUSH1 0x20 ADD DUP1 PUSH2 0x39E6 PUSH1 0x28 SWAP2 CODECOPY PUSH1 0x40 ADD SWAP2 POP POP PUSH1 0x40 MLOAD DUP1 SWAP2 SUB SWAP1 REVERT JUMPDEST PUSH2 0x1E84 ADDRESS DUP5 PUSH2 0x3753 JUMP JUMPDEST PUSH2 0x1E8F DUP8 DUP14 DUP14 PUSH2 0x2A7B JUMP JUMPDEST PUSH2 0x1E9A DUP7 DUP14 DUP13 PUSH2 0x2A7B JUMP JUMPDEST DUP7 PUSH20 0xFFFFFFFFFFFFFFFFFFFFFFFFFFFFFFFFFFFFFFFF AND PUSH4 0x70A08231 ADDRESS PUSH1 0x40 MLOAD DUP3 PUSH4 0xFFFFFFFF AND PUSH1 0xE0 SHL DUP2 MSTORE PUSH1 0x4 ADD DUP1 DUP3 PUSH20 0xFFFFFFFFFFFFFFFFFFFFFFFFFFFFFFFFFFFFFFFF AND PUSH20 0xFFFFFFFFFFFFFFFFFFFFFFFFFFFFFFFFFFFFFFFF AND DUP2 MSTORE PUSH1 0x20 ADD SWAP2 POP POP PUSH1 0x20 PUSH1 0x40 MLOAD DUP1 DUP4 SUB DUP2 DUP7 DUP1 EXTCODESIZE ISZERO DUP1 ISZERO PUSH2 0x1F17 JUMPI PUSH1 0x0 DUP1 REVERT JUMPDEST POP GAS STATICCALL ISZERO DUP1 ISZERO PUSH2 0x1F2B JUMPI RETURNDATASIZE PUSH1 0x0 DUP1 RETURNDATACOPY RETURNDATASIZE PUSH1 0x0 REVERT JUMPDEST POP POP POP POP PUSH1 0x40 MLOAD RETURNDATASIZE PUSH1 0x20 DUP2 LT ISZERO PUSH2 0x1F41 JUMPI PUSH1 0x0 DUP1 REVERT JUMPDEST DUP2 ADD SWAP1 DUP1 DUP1 MLOAD SWAP1 PUSH1 0x20 ADD SWAP1 SWAP3 SWAP2 SWAP1 POP POP POP SWAP5 POP DUP6 PUSH20 0xFFFFFFFFFFFFFFFFFFFFFFFFFFFFFFFFFFFFFFFF AND PUSH4 0x70A08231 ADDRESS PUSH1 0x40 MLOAD DUP3 PUSH4 0xFFFFFFFF AND PUSH1 0xE0 SHL DUP2 MSTORE PUSH1 0x4 ADD DUP1 DUP3 PUSH20 0xFFFFFFFFFFFFFFFFFFFFFFFFFFFFFFFFFFFFFFFF AND PUSH20 0xFFFFFFFFFFFFFFFFFFFFFFFFFFFFFFFFFFFFFFFF AND DUP2 MSTORE PUSH1 0x20 ADD SWAP2 POP POP PUSH1 0x20 PUSH1 0x40 MLOAD DUP1 DUP4 SUB DUP2 DUP7 DUP1 EXTCODESIZE ISZERO DUP1 ISZERO PUSH2 0x1FD1 JUMPI PUSH1 0x0 DUP1 REVERT JUMPDEST POP GAS STATICCALL ISZERO DUP1 ISZERO PUSH2 0x1FE5 JUMPI RETURNDATASIZE PUSH1 0x0 DUP1 RETURNDATACOPY RETURNDATASIZE PUSH1 0x0 REVERT JUMPDEST POP POP POP POP PUSH1 0x40 MLOAD RETURNDATASIZE PUSH1 0x20 DUP2 LT ISZERO PUSH2 0x1FFB JUMPI PUSH1 0x0 DUP1 REVERT JUMPDEST DUP2 ADD SWAP1 DUP1 DUP1 MLOAD SWAP1 PUSH1 0x20 ADD SWAP1 SWAP3 SWAP2 SWAP1 POP POP POP SWAP4 POP PUSH2 0x201A DUP6 DUP6 DUP12 DUP12 PUSH2 0x2DE0 JUMP JUMPDEST DUP2 ISZERO PUSH2 0x2092 JUMPI PUSH2 0x208B PUSH1 0x8 PUSH1 0xE SWAP1 SLOAD SWAP1 PUSH2 0x100 EXP SWAP1 DIV PUSH14 0xFFFFFFFFFFFFFFFFFFFFFFFFFFFF AND PUSH14 0xFFFFFFFFFFFFFFFFFFFFFFFFFFFF AND PUSH1 0x8 PUSH1 0x0 SWAP1 SLOAD SWAP1 PUSH2 0x100 EXP SWAP1 DIV PUSH14 0xFFFFFFFFFFFFFFFFFFFFFFFFFFFF AND PUSH14 0xFFFFFFFFFFFFFFFFFFFFFFFFFFFF AND PUSH2 0x2CC8 SWAP1 SWAP2 SWAP1 PUSH4 0xFFFFFFFF AND JUMP JUMPDEST PUSH1 0xB DUP2 SWAP1 SSTORE POP JUMPDEST DUP12 PUSH20 0xFFFFFFFFFFFFFFFFFFFFFFFFFFFFFFFFFFFFFFFF AND CALLER PUSH20 0xFFFFFFFFFFFFFFFFFFFFFFFFFFFFFFFFFFFFFFFF AND PUSH32 0xDCCD412F0B1252819CB1FD330B93224CA42612892BB3F4F789976E6D81936496 DUP14 DUP14 PUSH1 0x40 MLOAD DUP1 DUP4 DUP2 MSTORE PUSH1 0x20 ADD DUP3 DUP2 MSTORE PUSH1 0x20 ADD SWAP3 POP POP POP PUSH1 0x40 MLOAD DUP1 SWAP2 SUB SWAP1 LOG3 POP POP POP POP POP POP POP POP POP PUSH1 0x1 PUSH1 0xC DUP2 SWAP1 SSTORE POP SWAP2 POP SWAP2 JUMP JUMPDEST PUSH1 0x40 MLOAD DUP1 PUSH1 0x40 ADD PUSH1 0x40 MSTORE DUP1 PUSH1 0x6 DUP2 MSTORE PUSH1 0x20 ADD PUSH32 0x554E492D56320000000000000000000000000000000000000000000000000000 DUP2 MSTORE POP DUP2 JUMP JUMPDEST PUSH1 0x0 PUSH2 0x215B CALLER DUP5 DUP5 PUSH2 0x3249 JUMP JUMPDEST PUSH1 0x1 SWAP1 POP SWAP3 SWAP2 POP POP JUMP JUMPDEST PUSH2 0x3E8 DUP2 JUMP JUMPDEST PUSH1 0x1 PUSH1 0xC SLOAD EQ PUSH2 0x21E3 JUMPI PUSH1 0x40 MLOAD PUSH32 0x8C379A000000000000000000000000000000000000000000000000000000000 DUP2 MSTORE PUSH1 0x4 ADD DUP1 DUP1 PUSH1 0x20 ADD DUP3 DUP2 SUB DUP3 MSTORE PUSH1 0x11 DUP2 MSTORE PUSH1 0x20 ADD DUP1 PUSH32 0x556E697377617056323A204C4F434B4544000000000000000000000000000000 DUP2 MSTORE POP PUSH1 0x20 ADD SWAP2 POP POP PUSH1 0x40 MLOAD DUP1 SWAP2 SUB SWAP1 REVERT JUMPDEST PUSH1 0x0 PUSH1 0xC DUP2 SWAP1 SSTORE POP PUSH1 0x0 PUSH1 0x6 PUSH1 0x0 SWAP1 SLOAD SWAP1 PUSH2 0x100 EXP SWAP1 DIV PUSH20 0xFFFFFFFFFFFFFFFFFFFFFFFFFFFFFFFFFFFFFFFF AND SWAP1 POP PUSH1 0x0 PUSH1 0x7 PUSH1 0x0 SWAP1 SLOAD SWAP1 PUSH2 0x100 EXP SWAP1 DIV PUSH20 0xFFFFFFFFFFFFFFFFFFFFFFFFFFFFFFFFFFFFFFFF AND SWAP1 POP PUSH2 0x2339 DUP3 DUP5 PUSH2 0x2334 PUSH1 0x8 PUSH1 0x0 SWAP1 SLOAD SWAP1 PUSH2 0x100 EXP SWAP1 DIV PUSH14 0xFFFFFFFFFFFFFFFFFFFFFFFFFFFF AND PUSH14 0xFFFFFFFFFFFFFFFFFFFFFFFFFFFF AND DUP7 PUSH20 0xFFFFFFFFFFFFFFFFFFFFFFFFFFFFFFFFFFFFFFFF AND PUSH4 0x70A08231 ADDRESS PUSH1 0x40 MLOAD DUP3 PUSH4 0xFFFFFFFF AND PUSH1 0xE0 SHL DUP2 MSTORE PUSH1 0x4 ADD DUP1 DUP3 PUSH20 0xFFFFFFFFFFFFFFFFFFFFFFFFFFFFFFFFFFFFFFFF AND PUSH20 0xFFFFFFFFFFFFFFFFFFFFFFFFFFFFFFFFFFFFFFFF AND DUP2 MSTORE PUSH1 0x20 ADD SWAP2 POP POP PUSH1 0x20 PUSH1 0x40 MLOAD DUP1 DUP4 SUB DUP2 DUP7 DUP1 EXTCODESIZE ISZERO DUP1 ISZERO PUSH2 0x22EB JUMPI PUSH1 0x0 DUP1 REVERT JUMPDEST POP GAS STATICCALL ISZERO DUP1 ISZERO PUSH2 0x22FF JUMPI RETURNDATASIZE PUSH1 0x0 DUP1 RETURNDATACOPY RETURNDATASIZE PUSH1 0x0 REVERT JUMPDEST POP POP POP POP PUSH1 0x40 MLOAD RETURNDATASIZE PUSH1 0x20 DUP2 LT ISZERO PUSH2 0x2315 JUMPI PUSH1 0x0 DUP1 REVERT JUMPDEST DUP2 ADD SWAP1 DUP1 DUP1 MLOAD SWAP1 PUSH1 0x20 ADD SWAP1 SWAP3 SWAP2 SWAP1 POP POP POP PUSH2 0x2D5D SWAP1 SWAP2 SWAP1 PUSH4 0xFFFFFFFF AND JUMP JUMPDEST PUSH2 0x2A7B JUMP JUMPDEST PUSH2 0x2439 DUP2 DUP5 PUSH2 0x2434 PUSH1 0x8 PUSH1 0xE SWAP1 SLOAD SWAP1 PUSH2 0x100 EXP SWAP1 DIV PUSH14 0xFFFFFFFFFFFFFFFFFFFFFFFFFFFF AND PUSH14 0xFFFFFFFFFFFFFFFFFFFFFFFFFFFF AND DUP6 PUSH20 0xFFFFFFFFFFFFFFFFFFFFFFFFFFFFFFFFFFFFFFFF AND PUSH4 0x70A08231 ADDRESS PUSH1 0x40 MLOAD DUP3 PUSH4 0xFFFFFFFF AND PUSH1 0xE0 SHL DUP2 MSTORE PUSH1 0x4 ADD DUP1 DUP3 PUSH20 0xFFFFFFFFFFFFFFFFFFFFFFFFFFFFFFFFFFFFFFFF AND PUSH20 0xFFFFFFFFFFFFFFFFFFFFFFFFFFFFFFFFFFFFFFFF AND DUP2 MSTORE PUSH1 0x20 ADD SWAP2 POP POP PUSH1 0x20 PUSH1 0x40 MLOAD DUP1 DUP4 SUB DUP2 DUP7 DUP1 EXTCODESIZE ISZERO DUP1 ISZERO PUSH2 0x23EB JUMPI PUSH1 0x0 DUP1 REVERT JUMPDEST POP GAS STATICCALL ISZERO DUP1 ISZERO PUSH2 0x23FF JUMPI RETURNDATASIZE PUSH1 0x0 DUP1 RETURNDATACOPY RETURNDATASIZE PUSH1 0x0 REVERT JUMPDEST POP POP POP POP PUSH1 0x40 MLOAD RETURNDATASIZE PUSH1 0x20 DUP2 LT ISZERO PUSH2 0x2415 JUMPI PUSH1 0x0 DUP1 REVERT JUMPDEST DUP2 ADD SWAP1 DUP1 DUP1 MLOAD SWAP1 PUSH1 0x20 ADD SWAP1 SWAP3 SWAP2 SWAP1 POP POP POP PUSH2 0x2D5D SWAP1 SWAP2 SWAP1 PUSH4 0xFFFFFFFF AND JUMP JUMPDEST PUSH2 0x2A7B JUMP JUMPDEST POP POP PUSH1 0x1 PUSH1 0xC DUP2 SWAP1 SSTORE POP POP JUMP JUMPDEST PUSH1 0x5 PUSH1 0x0 SWAP1 SLOAD SWAP1 PUSH2 0x100 EXP SWAP1 DIV PUSH20 0xFFFFFFFFFFFFFFFFFFFFFFFFFFFFFFFFFFFFFFFF AND DUP2 JUMP JUMPDEST PUSH1 0x7 PUSH1 0x0 SWAP1 SLOAD SWAP1 PUSH2 0x100 EXP SWAP1 DIV PUSH20 0xFFFFFFFFFFFFFFFFFFFFFFFFFFFFFFFFFFFFFFFF AND DUP2 JUMP JUMPDEST TIMESTAMP DUP5 LT ISZERO PUSH2 0x2508 JUMPI PUSH1 0x40 MLOAD PUSH32 0x8C379A000000000000000000000000000000000000000000000000000000000 DUP2 MSTORE PUSH1 0x4 ADD DUP1 DUP1 PUSH1 0x20 ADD DUP3 DUP2 SUB DUP3 MSTORE PUSH1 0x12 DUP2 MSTORE PUSH1 0x20 ADD DUP1 PUSH32 0x556E697377617056323A20455850495245440000000000000000000000000000 DUP2 MSTORE POP PUSH1 0x20 ADD SWAP2 POP POP PUSH1 0x40 MLOAD DUP1 SWAP2 SUB SWAP1 REVERT JUMPDEST PUSH1 0x0 PUSH1 0x3 SLOAD PUSH32 0x6E71EDAE12B1B97F4D1F60370FEF10105FA2FAAE0126114A169C64845D6126C9 PUSH1 0x0 SHL DUP10 DUP10 DUP10 PUSH1 0x4 PUSH1 0x0 DUP15 PUSH20 0xFFFFFFFFFFFFFFFFFFFFFFFFFFFFFFFFFFFFFFFF AND PUSH20 0xFFFFFFFFFFFFFFFFFFFFFFFFFFFFFFFFFFFFFFFF AND DUP2 MSTORE PUSH1 0x20 ADD SWAP1 DUP2 MSTORE PUSH1 0x20 ADD PUSH1 0x0 KECCAK256 PUSH1 0x0 DUP2 SLOAD DUP1 SWAP3 SWAP2 SWAP1 PUSH1 0x1 ADD SWAP2 SWAP1 POP SSTORE DUP11 PUSH1 0x40 MLOAD PUSH1 0x20 ADD DUP1 DUP8 DUP2 MSTORE PUSH1 0x20 ADD DUP7 PUSH20 0xFFFFFFFFFFFFFFFFFFFFFFFFFFFFFFFFFFFFFFFF AND PUSH20 0xFFFFFFFFFFFFFFFFFFFFFFFFFFFFFFFFFFFFFFFF AND DUP2 MSTORE PUSH1 0x20 ADD DUP6 PUSH20 0xFFFFFFFFFFFFFFFFFFFFFFFFFFFFFFFFFFFFFFFF AND PUSH20 0xFFFFFFFFFFFFFFFFFFFFFFFFFFFFFFFFFFFFFFFF AND DUP2 MSTORE PUSH1 0x20 ADD DUP5 DUP2 MSTORE PUSH1 0x20 ADD DUP4 DUP2 MSTORE PUSH1 0x20 ADD DUP3 DUP2 MSTORE PUSH1 0x20 ADD SWAP7 POP POP POP POP POP POP POP PUSH1 0x40 MLOAD PUSH1 0x20 DUP2 DUP4 SUB SUB DUP2 MSTORE SWAP1 PUSH1 0x40 MSTORE DUP1 MLOAD SWAP1 PUSH1 0x20 ADD KECCAK256 PUSH1 0x40 MLOAD PUSH1 0x20 ADD DUP1 DUP1 PUSH32 0x1901000000000000000000000000000000000000000000000000000000000000 DUP2 MSTORE POP PUSH1 0x2 ADD DUP4 DUP2 MSTORE PUSH1 0x20 ADD DUP3 DUP2 MSTORE PUSH1 0x20 ADD SWAP3 POP POP POP PUSH1 0x40 MLOAD PUSH1 0x20 DUP2 DUP4 SUB SUB DUP2 MSTORE SWAP1 PUSH1 0x40 MSTORE DUP1 MLOAD SWAP1 PUSH1 0x20 ADD KECCAK256 SWAP1 POP PUSH1 0x0 PUSH1 0x1 DUP3 DUP7 DUP7 DUP7 PUSH1 0x40 MLOAD PUSH1 0x0 DUP2 MSTORE PUSH1 0x20 ADD PUSH1 0x40 MSTORE PUSH1 0x40 MLOAD DUP1 DUP6 DUP2 MSTORE PUSH1 0x20 ADD DUP5 PUSH1 0xFF AND PUSH1 0xFF AND DUP2 MSTORE PUSH1 0x20 ADD DUP4 DUP2 MSTORE PUSH1 0x20 ADD DUP3 DUP2 MSTORE PUSH1 0x20 ADD SWAP5 POP POP POP POP POP PUSH1 0x20 PUSH1 0x40 MLOAD PUSH1 0x20 DUP2 SUB SWAP1 DUP1 DUP5 SUB SWAP1 DUP6 GAS STATICCALL ISZERO DUP1 ISZERO PUSH2 0x26DA JUMPI RETURNDATASIZE PUSH1 0x0 DUP1 RETURNDATACOPY RETURNDATASIZE PUSH1 0x0 REVERT JUMPDEST POP POP POP PUSH1 0x20 PUSH1 0x40 MLOAD SUB MLOAD SWAP1 POP PUSH1 0x0 PUSH20 0xFFFFFFFFFFFFFFFFFFFFFFFFFFFFFFFFFFFFFFFF AND DUP2 PUSH20 0xFFFFFFFFFFFFFFFFFFFFFFFFFFFFFFFFFFFFFFFF AND EQ ISZERO DUP1 ISZERO PUSH2 0x274E JUMPI POP DUP9 PUSH20 0xFFFFFFFFFFFFFFFFFFFFFFFFFFFFFFFFFFFFFFFF AND DUP2 PUSH20 0xFFFFFFFFFFFFFFFFFFFFFFFFFFFFFFFFFFFFFFFF AND EQ JUMPDEST PUSH2 0x27C0 JUMPI PUSH1 0x40 MLOAD PUSH32 0x8C379A000000000000000000000000000000000000000000000000000000000 DUP2 MSTORE PUSH1 0x4 ADD DUP1 DUP1 PUSH1 0x20 ADD DUP3 DUP2 SUB DUP3 MSTORE PUSH1 0x1C DUP2 MSTORE PUSH1 0x20 ADD DUP1 PUSH32 0x556E697377617056323A20494E56414C49445F5349474E415455524500000000 DUP2 MSTORE POP PUSH1 0x20 ADD SWAP2 POP POP PUSH1 0x40 MLOAD DUP1 SWAP2 SUB SWAP1 REVERT JUMPDEST PUSH2 0x27CB DUP10 DUP10 DUP10 PUSH2 0x315E JUMP JUMPDEST POP POP POP POP POP POP POP POP POP JUMP JUMPDEST PUSH1 0x2 PUSH1 0x20 MSTORE DUP2 PUSH1 0x0 MSTORE PUSH1 0x40 PUSH1 0x0 KECCAK256 PUSH1 0x20 MSTORE DUP1 PUSH1 0x0 MSTORE PUSH1 0x40 PUSH1 0x0 KECCAK256 PUSH1 0x0 SWAP2 POP SWAP2 POP POP SLOAD DUP2 JUMP JUMPDEST PUSH1 0x1 PUSH1 0xC SLOAD EQ PUSH2 0x2873 JUMPI PUSH1 0x40 MLOAD PUSH32 0x8C379A000000000000000000000000000000000000000000000000000000000 DUP2 MSTORE PUSH1 0x4 ADD DUP1 DUP1 PUSH1 0x20 ADD DUP3 DUP2 SUB DUP3 MSTORE PUSH1 0x11 DUP2 MSTORE PUSH1 0x20 ADD DUP1 PUSH32 0x556E697377617056323A204C4F434B4544000000000000000000000000000000 DUP2 MSTORE POP PUSH1 0x20 ADD SWAP2 POP POP PUSH1 0x40 MLOAD DUP1 SWAP2 SUB SWAP1 REVERT JUMPDEST PUSH1 0x0 PUSH1 0xC DUP2 SWAP1 SSTORE POP PUSH2 0x2A71 PUSH1 0x6 PUSH1 0x0 SWAP1 SLOAD SWAP1 PUSH2 0x100 EXP SWAP1 DIV PUSH20 0xFFFFFFFFFFFFFFFFFFFFFFFFFFFFFFFFFFFFFFFF AND PUSH20 0xFFFFFFFFFFFFFFFFFFFFFFFFFFFFFFFFFFFFFFFF AND PUSH4 0x70A08231 ADDRESS PUSH1 0x40 MLOAD DUP3 PUSH4 0xFFFFFFFF AND PUSH1 0xE0 SHL DUP2 MSTORE PUSH1 0x4 ADD DUP1 DUP3 PUSH20 0xFFFFFFFFFFFFFFFFFFFFFFFFFFFFFFFFFFFFFFFF AND PUSH20 0xFFFFFFFFFFFFFFFFFFFFFFFFFFFFFFFFFFFFFFFF AND DUP2 MSTORE PUSH1 0x20 ADD SWAP2 POP POP PUSH1 0x20 PUSH1 0x40 MLOAD DUP1 DUP4 SUB DUP2 DUP7 DUP1 EXTCODESIZE ISZERO DUP1 ISZERO PUSH2 0x291D JUMPI PUSH1 0x0 DUP1 REVERT JUMPDEST POP GAS STATICCALL ISZERO DUP1 ISZERO PUSH2 0x2931 JUMPI RETURNDATASIZE PUSH1 0x0 DUP1 RETURNDATACOPY RETURNDATASIZE PUSH1 0x0 REVERT JUMPDEST POP POP POP POP PUSH1 0x40 MLOAD RETURNDATASIZE PUSH1 0x20 DUP2 LT ISZERO PUSH2 0x2947 JUMPI PUSH1 0x0 DUP1 REVERT JUMPDEST DUP2 ADD SWAP1 DUP1 DUP1 MLOAD SWAP1 PUSH1 0x20 ADD SWAP1 SWAP3 SWAP2 SWAP1 POP POP POP PUSH1 0x7 PUSH1 0x0 SWAP1 SLOAD SWAP1 PUSH2 0x100 EXP SWAP1 DIV PUSH20 0xFFFFFFFFFFFFFFFFFFFFFFFFFFFFFFFFFFFFFFFF AND PUSH20 0xFFFFFFFFFFFFFFFFFFFFFFFFFFFFFFFFFFFFFFFF AND PUSH4 0x70A08231 ADDRESS PUSH1 0x40 MLOAD DUP3 PUSH4 0xFFFFFFFF AND PUSH1 0xE0 SHL DUP2 MSTORE PUSH1 0x4 ADD DUP1 DUP3 PUSH20 0xFFFFFFFFFFFFFFFFFFFFFFFFFFFFFFFFFFFFFFFF AND PUSH20 0xFFFFFFFFFFFFFFFFFFFFFFFFFFFFFFFFFFFFFFFF AND DUP2 MSTORE PUSH1 0x20 ADD SWAP2 POP POP PUSH1 0x20 PUSH1 0x40 MLOAD DUP1 DUP4 SUB DUP2 DUP7 DUP1 EXTCODESIZE ISZERO DUP1 ISZERO PUSH2 0x29F7 JUMPI PUSH1 0x0 DUP1 REVERT JUMPDEST POP GAS STATICCALL ISZERO DUP1 ISZERO PUSH2 0x2A0B JUMPI RETURNDATASIZE PUSH1 0x0 DUP1 RETURNDATACOPY RETURNDATASIZE PUSH1 0x0 REVERT JUMPDEST POP POP POP POP PUSH1 0x40 MLOAD RETURNDATASIZE PUSH1 0x20 DUP2 LT ISZERO PUSH2 0x2A21 JUMPI PUSH1 0x0 DUP1 REVERT JUMPDEST DUP2 ADD SWAP1 DUP1 DUP1 MLOAD SWAP1 PUSH1 0x20 ADD SWAP1 SWAP3 SWAP2 SWAP1 POP POP POP PUSH1 0x8 PUSH1 0x0 SWAP1 SLOAD SWAP1 PUSH2 0x100 EXP SWAP1 DIV PUSH14 0xFFFFFFFFFFFFFFFFFFFFFFFFFFFF AND PUSH1 0x8 PUSH1 0xE SWAP1 SLOAD SWAP1 PUSH2 0x100 EXP SWAP1 DIV PUSH14 0xFFFFFFFFFFFFFFFFFFFFFFFFFFFF AND PUSH2 0x2DE0 JUMP JUMPDEST PUSH1 0x1 PUSH1 0xC DUP2 SWAP1 SSTORE POP JUMP JUMPDEST PUSH1 0x0 PUSH1 0x60 DUP5 PUSH20 0xFFFFFFFFFFFFFFFFFFFFFFFFFFFFFFFFFFFFFFFF AND PUSH1 0x40 MLOAD DUP1 PUSH1 0x40 ADD PUSH1 0x40 MSTORE DUP1 PUSH1 0x19 DUP2 MSTORE PUSH1 0x20 ADD PUSH32 0x7472616E7366657228616464726573732C75696E743235362900000000000000 DUP2 MSTORE POP DUP1 MLOAD SWAP1 PUSH1 0x20 ADD KECCAK256 DUP6 DUP6 PUSH1 0x40 MLOAD PUSH1 0x24 ADD DUP1 DUP4 PUSH20 0xFFFFFFFFFFFFFFFFFFFFFFFFFFFFFFFFFFFFFFFF AND PUSH20 0xFFFFFFFFFFFFFFFFFFFFFFFFFFFFFFFFFFFFFFFF AND DUP2 MSTORE PUSH1 0x20 ADD DUP3 DUP2 MSTORE PUSH1 0x20 ADD SWAP3 POP POP POP PUSH1 0x40 MLOAD PUSH1 0x20 DUP2 DUP4 SUB SUB DUP2 MSTORE SWAP1 PUSH1 0x40 MSTORE SWAP1 PUSH28 0xFFFFFFFFFFFFFFFFFFFFFFFFFFFFFFFFFFFFFFFFFFFFFFFFFFFFFFFF NOT AND PUSH1 0x20 DUP3 ADD DUP1 MLOAD PUSH28 0xFFFFFFFFFFFFFFFFFFFFFFFFFFFFFFFFFFFFFFFFFFFFFFFFFFFFFFFF DUP4 DUP2 DUP4 AND OR DUP4 MSTORE POP POP POP POP PUSH1 0x40 MLOAD DUP1 DUP3 DUP1 MLOAD SWAP1 PUSH1 0x20 ADD SWAP1 DUP1 DUP4 DUP4 JUMPDEST PUSH1 0x20 DUP4 LT PUSH2 0x2BA8 JUMPI DUP1 MLOAD DUP3 MSTORE PUSH1 0x20 DUP3 ADD SWAP2 POP PUSH1 0x20 DUP2 ADD SWAP1 POP PUSH1 0x20 DUP4 SUB SWAP3 POP PUSH2 0x2B85 JUMP JUMPDEST PUSH1 0x1 DUP4 PUSH1 0x20 SUB PUSH2 0x100 EXP SUB DUP1 NOT DUP3 MLOAD AND DUP2 DUP5 MLOAD AND DUP1 DUP3 OR DUP6 MSTORE POP POP POP POP POP POP SWAP1 POP ADD SWAP2 POP POP PUSH1 0x0 PUSH1 0x40 MLOAD DUP1 DUP4 SUB DUP2 PUSH1 0x0 DUP7 GAS CALL SWAP2 POP POP RETURNDATASIZE DUP1 PUSH1 0x0 DUP2 EQ PUSH2 0x2C0A JUMPI PUSH1 0x40 MLOAD SWAP2 POP PUSH1 0x1F NOT PUSH1 0x3F RETURNDATASIZE ADD AND DUP3 ADD PUSH1 0x40 MSTORE RETURNDATASIZE DUP3 MSTORE RETURNDATASIZE PUSH1 0x0 PUSH1 0x20 DUP5 ADD RETURNDATACOPY PUSH2 0x2C0F JUMP JUMPDEST PUSH1 0x60 SWAP2 POP JUMPDEST POP SWAP2 POP SWAP2 POP DUP2 DUP1 ISZERO PUSH2 0x2C4F JUMPI POP PUSH1 0x0 DUP2 MLOAD EQ DUP1 PUSH2 0x2C4E JUMPI POP DUP1 DUP1 PUSH1 0x20 ADD SWAP1 MLOAD PUSH1 0x20 DUP2 LT ISZERO PUSH2 0x2C3C JUMPI PUSH1 0x0 DUP1 REVERT JUMPDEST DUP2 ADD SWAP1 DUP1 DUP1 MLOAD SWAP1 PUSH1 0x20 ADD SWAP1 SWAP3 SWAP2 SWAP1 POP POP POP JUMPDEST JUMPDEST PUSH2 0x2CC1 JUMPI PUSH1 0x40 MLOAD PUSH32 0x8C379A000000000000000000000000000000000000000000000000000000000 DUP2 MSTORE PUSH1 0x4 ADD DUP1 DUP1 PUSH1 0x20 ADD DUP3 DUP2 SUB DUP3 MSTORE PUSH1 0x1A DUP2 MSTORE PUSH1 0x20 ADD DUP1 PUSH32 0x556E697377617056323A205452414E534645525F4641494C4544000000000000 DUP2 MSTORE POP PUSH1 0x20 ADD SWAP2 POP POP PUSH1 0x40 MLOAD DUP1 SWAP2 SUB SWAP1 REVERT JUMPDEST POP POP POP POP POP JUMP JUMPDEST PUSH1 0x0 DUP1 DUP3 EQ DUP1 PUSH2 0x2CE5 JUMPI POP DUP3 DUP3 DUP4 DUP6 MUL SWAP3 POP DUP3 DUP2 PUSH2 0x2CE2 JUMPI INVALID JUMPDEST DIV EQ JUMPDEST PUSH2 0x2D57 JUMPI PUSH1 0x40 MLOAD PUSH32 0x8C379A000000000000000000000000000000000000000000000000000000000 DUP2 MSTORE PUSH1 0x4 ADD DUP1 DUP1 PUSH1 0x20 ADD DUP3 DUP2 SUB DUP3 MSTORE PUSH1 0x14 DUP2 MSTORE PUSH1 0x20 ADD DUP1 PUSH32 0x64732D6D6174682D6D756C2D6F766572666C6F77000000000000000000000000 DUP2 MSTORE POP PUSH1 0x20 ADD SWAP2 POP POP PUSH1 0x40 MLOAD DUP1 SWAP2 SUB SWAP1 REVERT JUMPDEST SWAP3 SWAP2 POP POP JUMP JUMPDEST PUSH1 0x0 DUP3 DUP3 DUP5 SUB SWAP2 POP DUP2 GT ISZERO PUSH2 0x2DDA JUMPI PUSH1 0x40 MLOAD PUSH32 0x8C379A000000000000000000000000000000000000000000000000000000000 DUP2 MSTORE PUSH1 0x4 ADD DUP1 DUP1 PUSH1 0x20 ADD DUP3 DUP2 SUB DUP3 MSTORE PUSH1 0x15 DUP2 MSTORE PUSH1 0x20 ADD DUP1 PUSH32 0x64732D6D6174682D7375622D756E646572666C6F770000000000000000000000 DUP2 MSTORE POP PUSH1 0x20 ADD SWAP2 POP POP PUSH1 0x40 MLOAD DUP1 SWAP2 SUB SWAP1 REVERT JUMPDEST SWAP3 SWAP2 POP POP JUMP JUMPDEST PUSH32 0xFFFFFFFFFFFFFFFFFFFFFFFFFFFFFFFFFFFFFFFFFFFFFFFFFFFFFFFFFFFFFFFF PUSH14 0xFFFFFFFFFFFFFFFFFFFFFFFFFFFF AND DUP5 GT ISZERO DUP1 ISZERO PUSH2 0x2E50 JUMPI POP PUSH32 0xFFFFFFFFFFFFFFFFFFFFFFFFFFFFFFFFFFFFFFFFFFFFFFFFFFFFFFFFFFFFFFFF PUSH14 0xFFFFFFFFFFFFFFFFFFFFFFFFFFFF AND DUP4 GT ISZERO JUMPDEST PUSH2 0x2EC2 JUMPI PUSH1 0x40 MLOAD PUSH32 0x8C379A000000000000000000000000000000000000000000000000000000000 DUP2 MSTORE PUSH1 0x4 ADD DUP1 DUP1 PUSH1 0x20 ADD DUP3 DUP2 SUB DUP3 MSTORE PUSH1 0x13 DUP2 MSTORE PUSH1 0x20 ADD DUP1 PUSH32 0x556E697377617056323A204F564552464C4F5700000000000000000000000000 DUP2 MSTORE POP PUSH1 0x20 ADD SWAP2 POP POP PUSH1 0x40 MLOAD DUP1 SWAP2 SUB SWAP1 REVERT JUMPDEST PUSH1 0x0 PUSH5 0x100000000 TIMESTAMP DUP2 PUSH2 0x2ED2 JUMPI INVALID JUMPDEST MOD SWAP1 POP PUSH1 0x0 PUSH1 0x8 PUSH1 0x1C SWAP1 SLOAD SWAP1 PUSH2 0x100 EXP SWAP1 DIV PUSH4 0xFFFFFFFF AND DUP3 SUB SWAP1 POP PUSH1 0x0 DUP2 PUSH4 0xFFFFFFFF AND GT DUP1 ISZERO PUSH2 0x2F15 JUMPI POP PUSH1 0x0 DUP5 PUSH14 0xFFFFFFFFFFFFFFFFFFFFFFFFFFFF AND EQ ISZERO JUMPDEST DUP1 ISZERO PUSH2 0x2F32 JUMPI POP PUSH1 0x0 DUP4 PUSH14 0xFFFFFFFFFFFFFFFFFFFFFFFFFFFF AND EQ ISZERO JUMPDEST ISZERO PUSH2 0x3014 JUMPI DUP1 PUSH4 0xFFFFFFFF AND PUSH2 0x2F77 DUP6 PUSH2 0x2F4B DUP7 PUSH2 0x386D JUMP JUMPDEST PUSH28 0xFFFFFFFFFFFFFFFFFFFFFFFFFFFFFFFFFFFFFFFFFFFFFFFFFFFFFFFF AND PUSH2 0x3898 SWAP1 SWAP2 SWAP1 PUSH4 0xFFFFFFFF AND JUMP JUMPDEST PUSH28 0xFFFFFFFFFFFFFFFFFFFFFFFFFFFFFFFFFFFFFFFFFFFFFFFFFFFFFFFF AND MUL PUSH1 0x9 PUSH1 0x0 DUP3 DUP3 SLOAD ADD SWAP3 POP POP DUP2 SWAP1 SSTORE POP DUP1 PUSH4 0xFFFFFFFF AND PUSH2 0x2FE5 DUP5 PUSH2 0x2FB9 DUP8 PUSH2 0x386D JUMP JUMPDEST PUSH28 0xFFFFFFFFFFFFFFFFFFFFFFFFFFFFFFFFFFFFFFFFFFFFFFFFFFFFFFFF AND PUSH2 0x3898 SWAP1 SWAP2 SWAP1 PUSH4 0xFFFFFFFF AND JUMP JUMPDEST PUSH28 0xFFFFFFFFFFFFFFFFFFFFFFFFFFFFFFFFFFFFFFFFFFFFFFFFFFFFFFFF AND MUL PUSH1 0xA PUSH1 0x0 DUP3 DUP3 SLOAD ADD SWAP3 POP POP DUP2 SWAP1 SSTORE POP JUMPDEST DUP6 PUSH1 0x8 PUSH1 0x0 PUSH2 0x100 EXP DUP2 SLOAD DUP2 PUSH14 0xFFFFFFFFFFFFFFFFFFFFFFFFFFFF MUL NOT AND SWAP1 DUP4 PUSH14 0xFFFFFFFFFFFFFFFFFFFFFFFFFFFF AND MUL OR SWAP1 SSTORE POP DUP5 PUSH1 0x8 PUSH1 0xE PUSH2 0x100 EXP DUP2 SLOAD DUP2 PUSH14 0xFFFFFFFFFFFFFFFFFFFFFFFFFFFF MUL NOT AND SWAP1 DUP4 PUSH14 0xFFFFFFFFFFFFFFFFFFFFFFFFFFFF AND MUL OR SWAP1 SSTORE POP DUP2 PUSH1 0x8 PUSH1 0x1C PUSH2 0x100 EXP DUP2 SLOAD DUP2 PUSH4 0xFFFFFFFF MUL NOT AND SWAP1 DUP4 PUSH4 0xFFFFFFFF AND MUL OR SWAP1 SSTORE POP PUSH32 0x1C411E9A96E071241C2F21F7726B17AE89E3CAB4C78BE50E062B03A9FFFBBAD1 PUSH1 0x8 PUSH1 0x0 SWAP1 SLOAD SWAP1 PUSH2 0x100 EXP SWAP1 DIV PUSH14 0xFFFFFFFFFFFFFFFFFFFFFFFFFFFF AND PUSH1 0x8 PUSH1 0xE SWAP1 SLOAD SWAP1 PUSH2 0x100 EXP SWAP1 DIV PUSH14 0xFFFFFFFFFFFFFFFFFFFFFFFFFFFF AND PUSH1 0x40 MLOAD DUP1 DUP4 PUSH14 0xFFFFFFFFFFFFFFFFFFFFFFFFFFFF AND PUSH14 0xFFFFFFFFFFFFFFFFFFFFFFFFFFFF AND DUP2 MSTORE PUSH1 0x20 ADD DUP3 PUSH14 0xFFFFFFFFFFFFFFFFFFFFFFFFFFFF AND PUSH14 0xFFFFFFFFFFFFFFFFFFFFFFFFFFFF AND DUP2 MSTORE PUSH1 0x20 ADD SWAP3 POP POP POP PUSH1 0x40 MLOAD DUP1 SWAP2 SUB SWAP1 LOG1 POP POP POP POP POP POP JUMP JUMPDEST DUP1 PUSH1 0x2 PUSH1 0x0 DUP6 PUSH20 0xFFFFFFFFFFFFFFFFFFFFFFFFFFFFFFFFFFFFFFFF AND PUSH20 0xFFFFFFFFFFFFFFFFFFFFFFFFFFFFFFFFFFFFFFFF AND DUP2 MSTORE PUSH1 0x20 ADD SWAP1 DUP2 MSTORE PUSH1 0x20 ADD PUSH1 0x0 KECCAK256 PUSH1 0x0 DUP5 PUSH20 0xFFFFFFFFFFFFFFFFFFFFFFFFFFFFFFFFFFFFFFFF AND PUSH20 0xFFFFFFFFFFFFFFFFFFFFFFFFFFFFFFFFFFFFFFFF AND DUP2 MSTORE PUSH1 0x20 ADD SWAP1 DUP2 MSTORE PUSH1 0x20 ADD PUSH1 0x0 KECCAK256 DUP2 SWAP1 SSTORE POP DUP2 PUSH20 0xFFFFFFFFFFFFFFFFFFFFFFFFFFFFFFFFFFFFFFFF AND DUP4 PUSH20 0xFFFFFFFFFFFFFFFFFFFFFFFFFFFFFFFFFFFFFFFF AND PUSH32 0x8C5BE1E5EBEC7D5BD14F71427D1E84F3DD0314C0F7B2291E5B200AC8C7C3B925 DUP4 PUSH1 0x40 MLOAD DUP1 DUP3 DUP2 MSTORE PUSH1 0x20 ADD SWAP2 POP POP PUSH1 0x40 MLOAD DUP1 SWAP2 SUB SWAP1 LOG3 POP POP POP JUMP JUMPDEST PUSH2 0x329B DUP2 PUSH1 0x1 PUSH1 0x0 DUP7 PUSH20 0xFFFFFFFFFFFFFFFFFFFFFFFFFFFFFFFFFFFFFFFF AND PUSH20 0xFFFFFFFFFFFFFFFFFFFFFFFFFFFFFFFFFFFFFFFF AND DUP2 MSTORE PUSH1 0x20 ADD SWAP1 DUP2 MSTORE PUSH1 0x20 ADD PUSH1 0x0 KECCAK256 SLOAD PUSH2 0x2D5D SWAP1 SWAP2 SWAP1 PUSH4 0xFFFFFFFF AND JUMP JUMPDEST PUSH1 0x1 PUSH1 0x0 DUP6 PUSH20 0xFFFFFFFFFFFFFFFFFFFFFFFFFFFFFFFFFFFFFFFF AND PUSH20 0xFFFFFFFFFFFFFFFFFFFFFFFFFFFFFFFFFFFFFFFF AND DUP2 MSTORE PUSH1 0x20 ADD SWAP1 DUP2 MSTORE PUSH1 0x20 ADD PUSH1 0x0 KECCAK256 DUP2 SWAP1 SSTORE POP PUSH2 0x3330 DUP2 PUSH1 0x1 PUSH1 0x0 DUP6 PUSH20 0xFFFFFFFFFFFFFFFFFFFFFFFFFFFFFFFFFFFFFFFF AND PUSH20 0xFFFFFFFFFFFFFFFFFFFFFFFFFFFFFFFFFFFFFFFF AND DUP2 MSTORE PUSH1 0x20 ADD SWAP1 DUP2 MSTORE PUSH1 0x20 ADD PUSH1 0x0 KECCAK256 SLOAD PUSH2 0x38F8 SWAP1 SWAP2 SWAP1 PUSH4 0xFFFFFFFF AND JUMP JUMPDEST PUSH1 0x1 PUSH1 0x0 DUP5 PUSH20 0xFFFFFFFFFFFFFFFFFFFFFFFFFFFFFFFFFFFFFFFF AND PUSH20 0xFFFFFFFFFFFFFFFFFFFFFFFFFFFFFFFFFFFFFFFF AND DUP2 MSTORE PUSH1 0x20 ADD SWAP1 DUP2 MSTORE PUSH1 0x20 ADD PUSH1 0x0 KECCAK256 DUP2 SWAP1 SSTORE POP DUP2 PUSH20 0xFFFFFFFFFFFFFFFFFFFFFFFFFFFFFFFFFFFFFFFF AND DUP4 PUSH20 0xFFFFFFFFFFFFFFFFFFFFFFFFFFFFFFFFFFFFFFFF AND PUSH32 0xDDF252AD1BE2C89B69C2B068FC378DAA952BA7F163C4A11628F55A4DF523B3EF DUP4 PUSH1 0x40 MLOAD DUP1 DUP3 DUP2 MSTORE PUSH1 0x20 ADD SWAP2 POP POP PUSH1 0x40 MLOAD DUP1 SWAP2 SUB SWAP1 LOG3 POP POP POP JUMP JUMPDEST PUSH1 0x0 DUP1 PUSH1 0x5 PUSH1 0x0 SWAP1 SLOAD SWAP1 PUSH2 0x100 EXP SWAP1 DIV PUSH20 0xFFFFFFFFFFFFFFFFFFFFFFFFFFFFFFFFFFFFFFFF AND PUSH20 0xFFFFFFFFFFFFFFFFFFFFFFFFFFFFFFFFFFFFFFFF AND PUSH4 0x17E7E58 PUSH1 0x40 MLOAD DUP2 PUSH4 0xFFFFFFFF AND PUSH1 0xE0 SHL DUP2 MSTORE PUSH1 0x4 ADD PUSH1 0x20 PUSH1 0x40 MLOAD DUP1 DUP4 SUB DUP2 DUP7 DUP1 EXTCODESIZE ISZERO DUP1 ISZERO PUSH2 0x3448 JUMPI PUSH1 0x0 DUP1 REVERT JUMPDEST POP GAS STATICCALL ISZERO DUP1 ISZERO PUSH2 0x345C JUMPI RETURNDATASIZE PUSH1 0x0 DUP1 RETURNDATACOPY RETURNDATASIZE PUSH1 0x0 REVERT JUMPDEST POP POP POP POP PUSH1 0x40 MLOAD RETURNDATASIZE PUSH1 0x20 DUP2 LT ISZERO PUSH2 0x3472 JUMPI PUSH1 0x0 DUP1 REVERT JUMPDEST DUP2 ADD SWAP1 DUP1 DUP1 MLOAD SWAP1 PUSH1 0x20 ADD SWAP1 SWAP3 SWAP2 SWAP1 POP POP POP SWAP1 POP PUSH1 0x0 PUSH20 0xFFFFFFFFFFFFFFFFFFFFFFFFFFFFFFFFFFFFFFFF AND DUP2 PUSH20 0xFFFFFFFFFFFFFFFFFFFFFFFFFFFFFFFFFFFFFFFF AND EQ ISZERO SWAP2 POP PUSH1 0x0 PUSH1 0xB SLOAD SWAP1 POP DUP3 ISZERO PUSH2 0x35A4 JUMPI PUSH1 0x0 DUP2 EQ PUSH2 0x359F JUMPI PUSH1 0x0 PUSH2 0x350A PUSH2 0x3505 DUP7 PUSH14 0xFFFFFFFFFFFFFFFFFFFFFFFFFFFF AND DUP9 PUSH14 0xFFFFFFFFFFFFFFFFFFFFFFFFFFFF AND PUSH2 0x2CC8 SWAP1 SWAP2 SWAP1 PUSH4 0xFFFFFFFF AND JUMP JUMPDEST PUSH2 0x35BE JUMP JUMPDEST SWAP1 POP PUSH1 0x0 PUSH2 0x3517 DUP4 PUSH2 0x35BE JUMP JUMPDEST SWAP1 POP DUP1 DUP3 GT ISZERO PUSH2 0x359C JUMPI PUSH1 0x0 PUSH2 0x354A PUSH2 0x3539 DUP4 DUP6 PUSH2 0x2D5D SWAP1 SWAP2 SWAP1 PUSH4 0xFFFFFFFF AND JUMP JUMPDEST PUSH1 0x0 SLOAD PUSH2 0x2CC8 SWAP1 SWAP2 SWAP1 PUSH4 0xFFFFFFFF AND JUMP JUMPDEST SWAP1 POP PUSH1 0x0 PUSH2 0x3574 DUP4 PUSH2 0x3566 PUSH1 0x5 DUP8 PUSH2 0x2CC8 SWAP1 SWAP2 SWAP1 PUSH4 0xFFFFFFFF AND JUMP JUMPDEST PUSH2 0x38F8 SWAP1 SWAP2 SWAP1 PUSH4 0xFFFFFFFF AND JUMP JUMPDEST SWAP1 POP PUSH1 0x0 DUP2 DUP4 DUP2 PUSH2 0x3581 JUMPI INVALID JUMPDEST DIV SWAP1 POP PUSH1 0x0 DUP2 GT ISZERO PUSH2 0x3598 JUMPI PUSH2 0x3597 DUP8 DUP3 PUSH2 0x3620 JUMP JUMPDEST JUMPDEST POP POP POP JUMPDEST POP POP JUMPDEST PUSH2 0x35B6 JUMP JUMPDEST PUSH1 0x0 DUP2 EQ PUSH2 0x35B5 JUMPI PUSH1 0x0 PUSH1 0xB DUP2 SWAP1 SSTORE POP JUMPDEST JUMPDEST POP POP SWAP3 SWAP2 POP POP JUMP JUMPDEST PUSH1 0x0 PUSH1 0x3 DUP3 GT ISZERO PUSH2 0x360D JUMPI DUP2 SWAP1 POP PUSH1 0x0 PUSH1 0x1 PUSH1 0x2 DUP5 DUP2 PUSH2 0x35DA JUMPI INVALID JUMPDEST DIV ADD SWAP1 POP JUMPDEST DUP2 DUP2 LT ISZERO PUSH2 0x3607 JUMPI DUP1 SWAP2 POP PUSH1 0x2 DUP2 DUP3 DUP6 DUP2 PUSH2 0x35F6 JUMPI INVALID JUMPDEST DIV ADD DUP2 PUSH2 0x35FF JUMPI INVALID JUMPDEST DIV SWAP1 POP PUSH2 0x35DF JUMP JUMPDEST POP PUSH2 0x361B JUMP JUMPDEST PUSH1 0x0 DUP3 EQ PUSH2 0x361A JUMPI PUSH1 0x1 SWAP1 POP JUMPDEST JUMPDEST SWAP2 SWAP1 POP JUMP JUMPDEST PUSH2 0x3635 DUP2 PUSH1 0x0 SLOAD PUSH2 0x38F8 SWAP1 SWAP2 SWAP1 PUSH4 0xFFFFFFFF AND JUMP JUMPDEST PUSH1 0x0 DUP2 SWAP1 SSTORE POP PUSH2 0x368D DUP2 PUSH1 0x1 PUSH1 0x0 DUP6 PUSH20 0xFFFFFFFFFFFFFFFFFFFFFFFFFFFFFFFFFFFFFFFF AND PUSH20 0xFFFFFFFFFFFFFFFFFFFFFFFFFFFFFFFFFFFFFFFF AND DUP2 MSTORE PUSH1 0x20 ADD SWAP1 DUP2 MSTORE PUSH1 0x20 ADD PUSH1 0x0 KECCAK256 SLOAD PUSH2 0x38F8 SWAP1 SWAP2 SWAP1 PUSH4 0xFFFFFFFF AND JUMP JUMPDEST PUSH1 0x1 PUSH1 0x0 DUP5 PUSH20 0xFFFFFFFFFFFFFFFFFFFFFFFFFFFFFFFFFFFFFFFF AND PUSH20 0xFFFFFFFFFFFFFFFFFFFFFFFFFFFFFFFFFFFFFFFF AND DUP2 MSTORE PUSH1 0x20 ADD SWAP1 DUP2 MSTORE PUSH1 0x20 ADD PUSH1 0x0 KECCAK256 DUP2 SWAP1 SSTORE POP DUP2 PUSH20 0xFFFFFFFFFFFFFFFFFFFFFFFFFFFFFFFFFFFFFFFF AND PUSH1 0x0 PUSH20 0xFFFFFFFFFFFFFFFFFFFFFFFFFFFFFFFFFFFFFFFF AND PUSH32 0xDDF252AD1BE2C89B69C2B068FC378DAA952BA7F163C4A11628F55A4DF523B3EF DUP4 PUSH1 0x40 MLOAD DUP1 DUP3 DUP2 MSTORE PUSH1 0x20 ADD SWAP2 POP POP PUSH1 0x40 MLOAD DUP1 SWAP2 SUB SWAP1 LOG3 POP POP JUMP JUMPDEST PUSH1 0x0 DUP2 DUP4 LT PUSH2 0x3749 JUMPI DUP2 PUSH2 0x374B JUMP JUMPDEST DUP3 JUMPDEST SWAP1 POP SWAP3 SWAP2 POP POP JUMP JUMPDEST PUSH2 0x37A5 DUP2 PUSH1 0x1 PUSH1 0x0 DUP6 PUSH20 0xFFFFFFFFFFFFFFFFFFFFFFFFFFFFFFFFFFFFFFFF AND PUSH20 0xFFFFFFFFFFFFFFFFFFFFFFFFFFFFFFFFFFFFFFFF AND DUP2 MSTORE PUSH1 0x20 ADD SWAP1 DUP2 MSTORE PUSH1 0x20 ADD PUSH1 0x0 KECCAK256 SLOAD PUSH2 0x2D5D SWAP1 SWAP2 SWAP1 PUSH4 0xFFFFFFFF AND JUMP JUMPDEST PUSH1 0x1 PUSH1 0x0 DUP5 PUSH20 0xFFFFFFFFFFFFFFFFFFFFFFFFFFFFFFFFFFFFFFFF AND PUSH20 0xFFFFFFFFFFFFFFFFFFFFFFFFFFFFFFFFFFFFFFFF AND DUP2 MSTORE PUSH1 0x20 ADD SWAP1 DUP2 MSTORE PUSH1 0x20 ADD PUSH1 0x0 KECCAK256 DUP2 SWAP1 SSTORE POP PUSH2 0x37FD DUP2 PUSH1 0x0 SLOAD PUSH2 0x2D5D SWAP1 SWAP2 SWAP1 PUSH4 0xFFFFFFFF AND JUMP JUMPDEST PUSH1 0x0 DUP2 SWAP1 SSTORE POP PUSH1 0x0 PUSH20 0xFFFFFFFFFFFFFFFFFFFFFFFFFFFFFFFFFFFFFFFF AND DUP3 PUSH20 0xFFFFFFFFFFFFFFFFFFFFFFFFFFFFFFFFFFFFFFFF AND PUSH32 0xDDF252AD1BE2C89B69C2B068FC378DAA952BA7F163C4A11628F55A4DF523B3EF DUP4 PUSH1 0x40 MLOAD DUP1 DUP3 DUP2 MSTORE PUSH1 0x20 ADD SWAP2 POP POP PUSH1 0x40 MLOAD DUP1 SWAP2 SUB SWAP1 LOG3 POP POP JUMP JUMPDEST PUSH1 0x0 PUSH15 0x10000000000000000000000000000 DUP3 PUSH14 0xFFFFFFFFFFFFFFFFFFFFFFFFFFFF AND MUL SWAP1 POP SWAP2 SWAP1 POP JUMP JUMPDEST PUSH1 0x0 DUP2 PUSH14 0xFFFFFFFFFFFFFFFFFFFFFFFFFFFF AND PUSH28 0xFFFFFFFFFFFFFFFFFFFFFFFFFFFFFFFFFFFFFFFFFFFFFFFFFFFFFFFF AND DUP4 PUSH28 0xFFFFFFFFFFFFFFFFFFFFFFFFFFFFFFFFFFFFFFFFFFFFFFFFFFFFFFFF AND DUP2 PUSH2 0x38EF JUMPI INVALID JUMPDEST DIV SWAP1 POP SWAP3 SWAP2 POP POP JUMP JUMPDEST PUSH1 0x0 DUP3 DUP3 DUP5 ADD SWAP2 POP DUP2 LT ISZERO PUSH2 0x3975 JUMPI PUSH1 0x40 MLOAD PUSH32 0x8C379A000000000000000000000000000000000000000000000000000000000 DUP2 MSTORE PUSH1 0x4 ADD DUP1 DUP1 PUSH1 0x20 ADD DUP3 DUP2 SUB DUP3 MSTORE PUSH1 0x14 DUP2 MSTORE PUSH1 0x20 ADD DUP1 PUSH32 0x64732D6D6174682D6164642D6F766572666C6F77000000000000000000000000 DUP2 MSTORE POP PUSH1 0x20 ADD SWAP2 POP POP PUSH1 0x40 MLOAD DUP1 SWAP2 SUB SWAP1 REVERT JUMPDEST SWAP3 SWAP2 POP POP JUMP INVALID SSTORE PUSH15 0x697377617056323A20494E53554646 0x49 NUMBER 0x49 GASLIMIT 0x4E SLOAD 0x5F 0x4F SSTORE SLOAD POP SSTORE SLOAD 0x5F COINBASE 0x4D 0x4F SSTORE 0x4E SLOAD SSTORE PUSH15 0x697377617056323A20494E53554646 0x49 NUMBER 0x49 GASLIMIT 0x4E SLOAD 0x5F 0x49 0x4E POP SSTORE SLOAD 0x5F COINBASE 0x4D 0x4F SSTORE 0x4E SLOAD SSTORE PUSH15 0x697377617056323A20494E53554646 0x49 NUMBER 0x49 GASLIMIT 0x4E SLOAD 0x5F 0x4C 0x49 MLOAD SSTORE 0x49 DIFFICULTY 0x49 SLOAD MSIZE SSTORE PUSH15 0x697377617056323A20494E53554646 0x49 NUMBER 0x49 GASLIMIT 0x4E SLOAD 0x5F 0x4C 0x49 MLOAD SSTORE 0x49 DIFFICULTY 0x49 SLOAD MSIZE 0x5F TIMESTAMP SSTORE MSTORE 0x4E GASLIMIT DIFFICULTY SSTORE PUSH15 0x697377617056323A20494E53554646 0x49 NUMBER 0x49 GASLIMIT 0x4E SLOAD 0x5F 0x4C 0x49 MLOAD SSTORE 0x49 DIFFICULTY 0x49 SLOAD MSIZE 0x5F 0x4D 0x49 0x4E SLOAD GASLIMIT DIFFICULTY LOG2 PUSH6 0x627A7A723158 KECCAK256 NUMBER PUSH13 0x952957DEEAEC41573D6785844F 0xB8 DUP4 ISZERO 0xC1 DUP9 AND SWAP12 SWAP1 0xB7 0x1F SHL STOP SWAP6 PUSH11 0x83762064736F6C63430005 LT STOP ORIGIN GASLIMIT 0x49 POP CALLDATACOPY BALANCE ORIGIN DIFFICULTY PUSH16 0x6D61696E28737472696E67206E616D65 0x2C PUSH20 0x7472696E672076657273696F6E2C75696E743235 CALLDATASIZE KECCAK256 PUSH4 0x6861696E 0x49 PUSH5 0x2C61646472 PUSH6 0x737320766572 PUSH10 0x6679696E67436F6E7472 PUSH2 0x6374 0x29 "
				},
				"gasEstimates": {
					"creation": {
						"codeDepositCost": "2990800",
						"executionCost": "infinite",
						"totalCost": "infinite"
					},
					"external": {
						"DOMAIN_SEPARATOR()": "1050",
						"MINIMUM_LIQUIDITY()": "250",
						"PERMIT_TYPEHASH()": "279",
						"allowance(address,address)": "1355",
						"approve(address,uint256)": "22498",
						"balanceOf(address)": "1237",
						"burn(address)": "infinite",
						"decimals()": "307",
						"factory()": "1142",
						"getReserves()": "2993",
						"initialize(address,address)": "42940",
						"kLast()": "1095",
						"mint(address)": "infinite",
						"name()": "infinite",
						"nonces(address)": "1214",
						"permit(address,address,uint256,uint256,uint8,bytes32,bytes32)": "infinite",
						"price0CumulativeLast()": "1094",
						"price1CumulativeLast()": "1116",
						"skim(address)": "infinite",
						"swap(uint256,uint256,address,bytes)": "infinite",
						"symbol()": "infinite",
						"sync()": "infinite",
						"token0()": "1165",
						"token1()": "1097",
						"totalSupply()": "1139",
						"transfer(address,uint256)": "infinite",
						"transferFrom(address,address,uint256)": "infinite"
					},
					"internal": {
						"_mintFee(uint112,uint112)": "infinite",
						"_safeTransfer(address,address,uint256)": "infinite",
						"_update(uint256,uint256,uint112,uint112)": "infinite"
					}
				},
				"methodIdentifiers": {
					"DOMAIN_SEPARATOR()": "3644e515",
					"MINIMUM_LIQUIDITY()": "ba9a7a56",
					"PERMIT_TYPEHASH()": "30adf81f",
					"allowance(address,address)": "dd62ed3e",
					"approve(address,uint256)": "095ea7b3",
					"balanceOf(address)": "70a08231",
					"burn(address)": "89afcb44",
					"decimals()": "313ce567",
					"factory()": "c45a0155",
					"getReserves()": "0902f1ac",
					"initialize(address,address)": "485cc955",
					"kLast()": "7464fc3d",
					"mint(address)": "6a627842",
					"name()": "06fdde03",
					"nonces(address)": "7ecebe00",
					"permit(address,address,uint256,uint256,uint8,bytes32,bytes32)": "d505accf",
					"price0CumulativeLast()": "5909c0d5",
					"price1CumulativeLast()": "5a3d5493",
					"skim(address)": "bc25cf77",
					"swap(uint256,uint256,address,bytes)": "022c0d9f",
					"symbol()": "95d89b41",
					"sync()": "fff6cae9",
					"token0()": "0dfe1681",
					"token1()": "d21220a7",
					"totalSupply()": "18160ddd",
					"transfer(address,uint256)": "a9059cbb",
					"transferFrom(address,address,uint256)": "23b872dd"
				}
			},
			"storageLayout": {
				"storage": [
					{
						"astId": 19,
						"contract": "us-contracts/UniswapV2Pair.sol:UniswapV2Pair",
						"label": "totalSupply",
						"offset": 0,
						"slot": "0",
						"type": "t_uint256"
					},
					{
						"astId": 23,
						"contract": "us-contracts/UniswapV2Pair.sol:UniswapV2Pair",
						"label": "balanceOf",
						"offset": 0,
						"slot": "1",
						"type": "t_mapping(t_address,t_uint256)"
					},
					{
						"astId": 29,
						"contract": "us-contracts/UniswapV2Pair.sol:UniswapV2Pair",
						"label": "allowance",
						"offset": 0,
						"slot": "2",
						"type": "t_mapping(t_address,t_mapping(t_address,t_uint256))"
					},
					{
						"astId": 31,
						"contract": "us-contracts/UniswapV2Pair.sol:UniswapV2Pair",
						"label": "DOMAIN_SEPARATOR",
						"offset": 0,
						"slot": "3",
						"type": "t_bytes32"
					},
					{
						"astId": 38,
						"contract": "us-contracts/UniswapV2Pair.sol:UniswapV2Pair",
						"label": "nonces",
						"offset": 0,
						"slot": "4",
						"type": "t_mapping(t_address,t_uint256)"
					},
					{
						"astId": 419,
						"contract": "us-contracts/UniswapV2Pair.sol:UniswapV2Pair",
						"label": "factory",
						"offset": 0,
						"slot": "5",
						"type": "t_address"
					},
					{
						"astId": 421,
						"contract": "us-contracts/UniswapV2Pair.sol:UniswapV2Pair",
						"label": "token0",
						"offset": 0,
						"slot": "6",
						"type": "t_address"
					},
					{
						"astId": 423,
						"contract": "us-contracts/UniswapV2Pair.sol:UniswapV2Pair",
						"label": "token1",
						"offset": 0,
						"slot": "7",
						"type": "t_address"
					},
					{
						"astId": 425,
						"contract": "us-contracts/UniswapV2Pair.sol:UniswapV2Pair",
						"label": "reserve0",
						"offset": 0,
						"slot": "8",
						"type": "t_uint112"
					},
					{
						"astId": 427,
						"contract": "us-contracts/UniswapV2Pair.sol:UniswapV2Pair",
						"label": "reserve1",
						"offset": 14,
						"slot": "8",
						"type": "t_uint112"
					},
					{
						"astId": 429,
						"contract": "us-contracts/UniswapV2Pair.sol:UniswapV2Pair",
						"label": "blockTimestampLast",
						"offset": 28,
						"slot": "8",
						"type": "t_uint32"
					},
					{
						"astId": 431,
						"contract": "us-contracts/UniswapV2Pair.sol:UniswapV2Pair",
						"label": "price0CumulativeLast",
						"offset": 0,
						"slot": "9",
						"type": "t_uint256"
					},
					{
						"astId": 433,
						"contract": "us-contracts/UniswapV2Pair.sol:UniswapV2Pair",
						"label": "price1CumulativeLast",
						"offset": 0,
						"slot": "10",
						"type": "t_uint256"
					},
					{
						"astId": 435,
						"contract": "us-contracts/UniswapV2Pair.sol:UniswapV2Pair",
						"label": "kLast",
						"offset": 0,
						"slot": "11",
						"type": "t_uint256"
					},
					{
						"astId": 438,
						"contract": "us-contracts/UniswapV2Pair.sol:UniswapV2Pair",
						"label": "unlocked",
						"offset": 0,
						"slot": "12",
						"type": "t_uint256"
					}
				],
				"types": {
					"t_address": {
						"encoding": "inplace",
						"label": "address",
						"numberOfBytes": "20"
					},
					"t_bytes32": {
						"encoding": "inplace",
						"label": "bytes32",
						"numberOfBytes": "32"
					},
					"t_mapping(t_address,t_mapping(t_address,t_uint256))": {
						"encoding": "mapping",
						"key": "t_address",
						"label": "mapping(address => mapping(address => uint256))",
						"numberOfBytes": "32",
						"value": "t_mapping(t_address,t_uint256)"
					},
					"t_mapping(t_address,t_uint256)": {
						"encoding": "mapping",
						"key": "t_address",
						"label": "mapping(address => uint256)",
						"numberOfBytes": "32",
						"value": "t_uint256"
					},
					"t_uint112": {
						"encoding": "inplace",
						"label": "uint112",
						"numberOfBytes": "14"
					},
					"t_uint256": {
						"encoding": "inplace",
						"label": "uint256",
						"numberOfBytes": "32"
					},
					"t_uint32": {
						"encoding": "inplace",
						"label": "uint32",
						"numberOfBytes": "4"
					}
				}
			},
			"userdoc": {
				"methods": {}
			}
		}
	}
}