{
	"GoWorkspace/github.com/hdlabs-ro/sc_base/us-contracts/PairUsdtRont.sol": {
		"PairUsdtRont": {
			"abi": [
				{
					"inputs": [],
					"stateMutability": "nonpayable",
					"type": "constructor"
				},
				{
					"inputs": [],
					"name": "DOMAIN_SEPARATOR",
					"outputs": [
						{
							"internalType": "bytes32",
							"name": "",
							"type": "bytes32"
						}
					],
					"stateMutability": "view",
					"type": "function"
				},
				{
					"inputs": [],
					"name": "MINIMUM_LIQUIDITY",
					"outputs": [
						{
							"internalType": "uint256",
							"name": "",
							"type": "uint256"
						}
					],
					"stateMutability": "view",
					"type": "function"
				},
				{
					"inputs": [],
					"name": "PERMIT_TYPEHASH",
					"outputs": [
						{
							"internalType": "bytes32",
							"name": "",
							"type": "bytes32"
						}
					],
					"stateMutability": "view",
					"type": "function"
				},
				{
					"inputs": [
						{
							"internalType": "address",
							"name": "",
							"type": "address"
						},
						{
							"internalType": "address",
							"name": "",
							"type": "address"
						}
					],
					"name": "allowance",
					"outputs": [
						{
							"internalType": "uint256",
							"name": "",
							"type": "uint256"
						}
					],
					"stateMutability": "view",
					"type": "function"
				},
				{
					"inputs": [
						{
							"internalType": "address",
							"name": "spender",
							"type": "address"
						},
						{
							"internalType": "uint256",
							"name": "value",
							"type": "uint256"
						}
					],
					"name": "approve",
					"outputs": [
						{
							"internalType": "bool",
							"name": "",
							"type": "bool"
						}
					],
					"stateMutability": "nonpayable",
					"type": "function"
				},
				{
					"inputs": [
						{
							"internalType": "address",
							"name": "",
							"type": "address"
						}
					],
					"name": "balanceOf",
					"outputs": [
						{
							"internalType": "uint256",
							"name": "",
							"type": "uint256"
						}
					],
					"stateMutability": "view",
					"type": "function"
				},
				{
					"inputs": [
						{
							"internalType": "address",
							"name": "to",
							"type": "address"
						}
					],
					"name": "burn",
					"outputs": [
						{
							"internalType": "uint256",
							"name": "amount0",
							"type": "uint256"
						},
						{
							"internalType": "uint256",
							"name": "amount1",
							"type": "uint256"
						}
					],
					"stateMutability": "nonpayable",
					"type": "function"
				},
				{
					"inputs": [],
					"name": "decimals",
					"outputs": [
						{
							"internalType": "uint8",
							"name": "",
							"type": "uint8"
						}
					],
					"stateMutability": "view",
					"type": "function"
				},
				{
					"inputs": [],
					"name": "getReserves",
					"outputs": [
						{
							"internalType": "uint112",
							"name": "_reserve0",
							"type": "uint112"
						},
						{
							"internalType": "uint112",
							"name": "_reserve1",
							"type": "uint112"
						},
						{
							"internalType": "uint32",
							"name": "_blockTimestampLast",
							"type": "uint32"
						}
					],
					"stateMutability": "view",
					"type": "function"
				},
				{
					"inputs": [],
					"name": "kLast",
					"outputs": [
						{
							"internalType": "uint256",
							"name": "",
							"type": "uint256"
						}
					],
					"stateMutability": "view",
					"type": "function"
				},
				{
					"inputs": [
						{
							"internalType": "address",
							"name": "to",
							"type": "address"
						}
					],
					"name": "mint",
					"outputs": [
						{
							"internalType": "uint256",
							"name": "liquidity",
							"type": "uint256"
						}
					],
					"stateMutability": "nonpayable",
					"type": "function"
				},
				{
					"inputs": [],
					"name": "name",
					"outputs": [
						{
							"internalType": "string",
							"name": "",
							"type": "string"
						}
					],
					"stateMutability": "view",
					"type": "function"
				},
				{
					"inputs": [
						{
							"internalType": "address",
							"name": "",
							"type": "address"
						}
					],
					"name": "nonces",
					"outputs": [
						{
							"internalType": "uint256",
							"name": "",
							"type": "uint256"
						}
					],
					"stateMutability": "view",
					"type": "function"
				},
				{
					"inputs": [
						{
							"internalType": "address",
							"name": "owner",
							"type": "address"
						},
						{
							"internalType": "address",
							"name": "spender",
							"type": "address"
						},
						{
							"internalType": "uint256",
							"name": "value",
							"type": "uint256"
						},
						{
							"internalType": "uint256",
							"name": "deadline",
							"type": "uint256"
						},
						{
							"internalType": "uint8",
							"name": "v",
							"type": "uint8"
						},
						{
							"internalType": "bytes32",
							"name": "r",
							"type": "bytes32"
						},
						{
							"internalType": "bytes32",
							"name": "s",
							"type": "bytes32"
						}
					],
					"name": "permit",
					"outputs": [],
					"stateMutability": "nonpayable",
					"type": "function"
				},
				{
					"inputs": [],
					"name": "price0CumulativeLast",
					"outputs": [
						{
							"internalType": "uint256",
							"name": "",
							"type": "uint256"
						}
					],
					"stateMutability": "view",
					"type": "function"
				},
				{
					"inputs": [],
					"name": "price1CumulativeLast",
					"outputs": [
						{
							"internalType": "uint256",
							"name": "",
							"type": "uint256"
						}
					],
					"stateMutability": "view",
					"type": "function"
				},
				{
					"inputs": [
						{
							"internalType": "address",
							"name": "to",
							"type": "address"
						}
					],
					"name": "skim",
					"outputs": [],
					"stateMutability": "nonpayable",
					"type": "function"
				},
				{
					"inputs": [
						{
							"internalType": "uint256",
							"name": "amount0Out",
							"type": "uint256"
						},
						{
							"internalType": "uint256",
							"name": "amount1Out",
							"type": "uint256"
						},
						{
							"internalType": "address",
							"name": "to",
							"type": "address"
						},
						{
							"internalType": "bytes",
							"name": "data",
							"type": "bytes"
						}
					],
					"name": "swap",
					"outputs": [],
					"stateMutability": "nonpayable",
					"type": "function"
				},
				{
					"inputs": [],
					"name": "symbol",
					"outputs": [
						{
							"internalType": "string",
							"name": "",
							"type": "string"
						}
					],
					"stateMutability": "view",
					"type": "function"
				},
				{
					"inputs": [],
					"name": "sync",
					"outputs": [],
					"stateMutability": "nonpayable",
					"type": "function"
				},
				{
					"inputs": [],
					"name": "token0",
					"outputs": [
						{
							"internalType": "address",
							"name": "",
							"type": "address"
						}
					],
					"stateMutability": "view",
					"type": "function"
				},
				{
					"inputs": [],
					"name": "token1",
					"outputs": [
						{
							"internalType": "address",
							"name": "",
							"type": "address"
						}
					],
					"stateMutability": "view",
					"type": "function"
				},
				{
					"inputs": [],
					"name": "totalSupply",
					"outputs": [
						{
							"internalType": "uint256",
							"name": "",
							"type": "uint256"
						}
					],
					"stateMutability": "view",
					"type": "function"
				},
				{
					"inputs": [
						{
							"internalType": "address",
							"name": "to",
							"type": "address"
						},
						{
							"internalType": "uint256",
							"name": "value",
							"type": "uint256"
						}
					],
					"name": "transfer",
					"outputs": [
						{
							"internalType": "bool",
							"name": "",
							"type": "bool"
						}
					],
					"stateMutability": "nonpayable",
					"type": "function"
				},
				{
					"inputs": [
						{
							"internalType": "address",
							"name": "from",
							"type": "address"
						},
						{
							"internalType": "address",
							"name": "to",
							"type": "address"
						},
						{
							"internalType": "uint256",
							"name": "value",
							"type": "uint256"
						}
					],
					"name": "transferFrom",
					"outputs": [
						{
							"internalType": "bool",
							"name": "",
							"type": "bool"
						}
					],
					"stateMutability": "nonpayable",
					"type": "function"
				}
			],
			"devdoc": {
				"kind": "dev",
				"methods": {},
				"version": 1
			},
			"evm": {
				"assembly": "    /* \"GoWorkspace/github.com/hdlabs-ro/sc_base/us-contracts/PairUsdtRont.sol\":79:13495  contract PairUsdtRont {... */\n  mstore(0x40, 0x80)\n    /* \"GoWorkspace/github.com/hdlabs-ro/sc_base/us-contracts/PairUsdtRont.sol\":130:172  0x3Fa65b449490b1d70d0b195a2679154aA26d1642 */\n  0x3fa65b449490b1d70d0b195a2679154aa26d1642\n    /* \"GoWorkspace/github.com/hdlabs-ro/sc_base/us-contracts/PairUsdtRont.sol\":114:172  address feeTo = 0x3Fa65b449490b1d70d0b195a2679154aA26d1642 */\n  0x00\n  dup1\n  0x0100\n  exp\n  dup2\n  sload\n  dup2\n  0xffffffffffffffffffffffffffffffffffffffff\n  mul\n  not\n  and\n  swap1\n  dup4\n  0xffffffffffffffffffffffffffffffffffffffff\n  and\n  mul\n  or\n  swap1\n  sstore\n  pop\n    /* \"GoWorkspace/github.com/hdlabs-ro/sc_base/us-contracts/PairUsdtRont.sol\":202:244  0xD0DA387609Adc13779badAf1315a4904CD40976E */\n  0xd0da387609adc13779badaf1315a4904cd40976e\n    /* \"GoWorkspace/github.com/hdlabs-ro/sc_base/us-contracts/PairUsdtRont.sol\":178:244  address public token0 = 0xD0DA387609Adc13779badAf1315a4904CD40976E */\n  0x01\n  exp(0x0100, 0x00)\n  dup2\n  sload\n  dup2\n  0xffffffffffffffffffffffffffffffffffffffff\n  mul\n  not\n  and\n  swap1\n  dup4\n  0xffffffffffffffffffffffffffffffffffffffff\n  and\n  mul\n  or\n  swap1\n  sstore\n  pop\n    /* \"GoWorkspace/github.com/hdlabs-ro/sc_base/us-contracts/PairUsdtRont.sol\":290:332  0xD1F9C3397ea04D3dE7F002cB9e63cb49d0DEAA36 */\n  0xd1f9c3397ea04d3de7f002cb9e63cb49d0deaa36\n    /* \"GoWorkspace/github.com/hdlabs-ro/sc_base/us-contracts/PairUsdtRont.sol\":266:332  address public token1 = 0xD1F9C3397ea04D3dE7F002cB9e63cb49d0DEAA36 */\n  0x02\n  exp(0x0100, 0x00)\n  dup2\n  sload\n  dup2\n  0xffffffffffffffffffffffffffffffffffffffff\n  mul\n  not\n  and\n  swap1\n  dup4\n  0xffffffffffffffffffffffffffffffffffffffff\n  and\n  mul\n  or\n  swap1\n  sstore\n  pop\n    /* \"GoWorkspace/github.com/hdlabs-ro/sc_base/us-contracts/PairUsdtRont.sol\":1612:1613  1 */\n  0x01\n    /* \"GoWorkspace/github.com/hdlabs-ro/sc_base/us-contracts/PairUsdtRont.sol\":1585:1613  uint256 private unlocked = 1 */\n  0x0c\n  sstore\n    /* \"GoWorkspace/github.com/hdlabs-ro/sc_base/us-contracts/PairUsdtRont.sol\":1759:2239  constructor() {... */\n  callvalue\n  dup1\n  iszero\n  tag_1\n  jumpi\n  0x00\n  dup1\n  revert\ntag_1:\n  pop\n    /* \"GoWorkspace/github.com/hdlabs-ro/sc_base/us-contracts/PairUsdtRont.sol\":1783:1798  uint256 chainId */\n  0x00\n    /* \"GoWorkspace/github.com/hdlabs-ro/sc_base/us-contracts/PairUsdtRont.sol\":1842:1851  chainid() */\n  chainid\n    /* \"GoWorkspace/github.com/hdlabs-ro/sc_base/us-contracts/PairUsdtRont.sol\":1831:1851  chainId := chainid() */\n  swap1\n  pop\n    /* \"GoWorkspace/github.com/hdlabs-ro/sc_base/us-contracts/PairUsdtRont.sol\":1940:2073  keccak256(... */\n  0x8b73c3c69bb8fe3d512ecc4cf759cc79239f7b179b0ffacaa9a75d522b39400f\n    /* \"GoWorkspace/github.com/hdlabs-ro/sc_base/us-contracts/PairUsdtRont.sol\":2107:2111  name */\n  mload(0x40)\n  dup1\n  0x40\n  add\n  0x40\n  mstore\n  dup1\n  0x0e\n  dup2\n  mstore\n  0x20\n  add\n  0x45524320556e6973776170205632000000000000000000000000000000000000\n  dup2\n  mstore\n  pop\n    /* \"GoWorkspace/github.com/hdlabs-ro/sc_base/us-contracts/PairUsdtRont.sol\":2091:2113  keccak256(bytes(name)) */\n  dup1\n  mload\n  swap1\n  0x20\n  add\n  keccak256\n    /* \"GoWorkspace/github.com/hdlabs-ro/sc_base/us-contracts/PairUsdtRont.sol\":2141:2151  bytes(\"1\") */\n  mload(0x40)\n  dup1\n  0x40\n  add\n  0x40\n  mstore\n  dup1\n  0x01\n  dup2\n  mstore\n  0x20\n  add\n  0x3100000000000000000000000000000000000000000000000000000000000000\n  dup2\n  mstore\n  pop\n    /* \"GoWorkspace/github.com/hdlabs-ro/sc_base/us-contracts/PairUsdtRont.sol\":2131:2152  keccak256(bytes(\"1\")) */\n  dup1\n  mload\n  swap1\n  0x20\n  add\n  keccak256\n    /* \"GoWorkspace/github.com/hdlabs-ro/sc_base/us-contracts/PairUsdtRont.sol\":2170:2177  chainId */\n  dup4\n    /* \"GoWorkspace/github.com/hdlabs-ro/sc_base/us-contracts/PairUsdtRont.sol\":2203:2207  this */\n  address\n    /* \"GoWorkspace/github.com/hdlabs-ro/sc_base/us-contracts/PairUsdtRont.sol\":1912:2222  abi.encode(... */\n  add(0x20, mload(0x40))\n  tag_4\n  swap6\n  swap5\n  swap4\n  swap3\n  swap2\n  swap1\n  tag_5\n  jump\t// in\ntag_4:\n  mload(0x40)\n  0x20\n  dup2\n  dup4\n  sub\n  sub\n  dup2\n  mstore\n  swap1\n  0x40\n  mstore\n    /* \"GoWorkspace/github.com/hdlabs-ro/sc_base/us-contracts/PairUsdtRont.sol\":1889:2232  keccak256(... */\n  dup1\n  mload\n  swap1\n  0x20\n  add\n  keccak256\n    /* \"GoWorkspace/github.com/hdlabs-ro/sc_base/us-contracts/PairUsdtRont.sol\":1870:1886  DOMAIN_SEPARATOR */\n  0x06\n    /* \"GoWorkspace/github.com/hdlabs-ro/sc_base/us-contracts/PairUsdtRont.sol\":1870:2232  DOMAIN_SEPARATOR = keccak256(... */\n  dup2\n  swap1\n  sstore\n  pop\n    /* \"GoWorkspace/github.com/hdlabs-ro/sc_base/us-contracts/PairUsdtRont.sol\":1773:2239  {... */\n  pop\n    /* \"GoWorkspace/github.com/hdlabs-ro/sc_base/us-contracts/PairUsdtRont.sol\":79:13495  contract PairUsdtRont {... */\n  jump(tag_6)\n    /* \"#utility.yul\":7:84   */\ntag_7:\n    /* \"#utility.yul\":44:51   */\n  0x00\n    /* \"#utility.yul\":73:78   */\n  dup2\n    /* \"#utility.yul\":62:78   */\n  swap1\n  pop\n    /* \"#utility.yul\":7:84   */\n  swap2\n  swap1\n  pop\n  jump\t// out\n    /* \"#utility.yul\":90:208   */\ntag_8:\n    /* \"#utility.yul\":177:201   */\n  tag_17\n    /* \"#utility.yul\":195:200   */\n  dup2\n    /* \"#utility.yul\":177:201   */\n  tag_7\n  jump\t// in\ntag_17:\n    /* \"#utility.yul\":172:175   */\n  dup3\n    /* \"#utility.yul\":165:202   */\n  mstore\n    /* \"#utility.yul\":90:208   */\n  pop\n  pop\n  jump\t// out\n    /* \"#utility.yul\":214:291   */\ntag_9:\n    /* \"#utility.yul\":251:258   */\n  0x00\n    /* \"#utility.yul\":280:285   */\n  dup2\n    /* \"#utility.yul\":269:285   */\n  swap1\n  pop\n    /* \"#utility.yul\":214:291   */\n  swap2\n  swap1\n  pop\n  jump\t// out\n    /* \"#utility.yul\":297:415   */\ntag_10:\n    /* \"#utility.yul\":384:408   */\n  tag_20\n    /* \"#utility.yul\":402:407   */\n  dup2\n    /* \"#utility.yul\":384:408   */\n  tag_9\n  jump\t// in\ntag_20:\n    /* \"#utility.yul\":379:382   */\n  dup3\n    /* \"#utility.yul\":372:409   */\n  mstore\n    /* \"#utility.yul\":297:415   */\n  pop\n  pop\n  jump\t// out\n    /* \"#utility.yul\":421:547   */\ntag_11:\n    /* \"#utility.yul\":458:465   */\n  0x00\n    /* \"#utility.yul\":498:540   */\n  0xffffffffffffffffffffffffffffffffffffffff\n    /* \"#utility.yul\":491:496   */\n  dup3\n    /* \"#utility.yul\":487:541   */\n  and\n    /* \"#utility.yul\":476:541   */\n  swap1\n  pop\n    /* \"#utility.yul\":421:547   */\n  swap2\n  swap1\n  pop\n  jump\t// out\n    /* \"#utility.yul\":553:649   */\ntag_12:\n    /* \"#utility.yul\":590:597   */\n  0x00\n    /* \"#utility.yul\":619:643   */\n  tag_23\n    /* \"#utility.yul\":637:642   */\n  dup3\n    /* \"#utility.yul\":619:643   */\n  tag_11\n  jump\t// in\ntag_23:\n    /* \"#utility.yul\":608:643   */\n  swap1\n  pop\n    /* \"#utility.yul\":553:649   */\n  swap2\n  swap1\n  pop\n  jump\t// out\n    /* \"#utility.yul\":655:773   */\ntag_13:\n    /* \"#utility.yul\":742:766   */\n  tag_25\n    /* \"#utility.yul\":760:765   */\n  dup2\n    /* \"#utility.yul\":742:766   */\n  tag_12\n  jump\t// in\ntag_25:\n    /* \"#utility.yul\":737:740   */\n  dup3\n    /* \"#utility.yul\":730:767   */\n  mstore\n    /* \"#utility.yul\":655:773   */\n  pop\n  pop\n  jump\t// out\n    /* \"#utility.yul\":779:1443   */\ntag_5:\n    /* \"#utility.yul\":984:988   */\n  0x00\n    /* \"#utility.yul\":1022:1025   */\n  0xa0\n    /* \"#utility.yul\":1011:1020   */\n  dup3\n    /* \"#utility.yul\":1007:1026   */\n  add\n    /* \"#utility.yul\":999:1026   */\n  swap1\n  pop\n    /* \"#utility.yul\":1036:1107   */\n  tag_27\n    /* \"#utility.yul\":1104:1105   */\n  0x00\n    /* \"#utility.yul\":1093:1102   */\n  dup4\n    /* \"#utility.yul\":1089:1106   */\n  add\n    /* \"#utility.yul\":1080:1086   */\n  dup9\n    /* \"#utility.yul\":1036:1107   */\n  tag_8\n  jump\t// in\ntag_27:\n    /* \"#utility.yul\":1117:1189   */\n  tag_28\n    /* \"#utility.yul\":1185:1187   */\n  0x20\n    /* \"#utility.yul\":1174:1183   */\n  dup4\n    /* \"#utility.yul\":1170:1188   */\n  add\n    /* \"#utility.yul\":1161:1167   */\n  dup8\n    /* \"#utility.yul\":1117:1189   */\n  tag_8\n  jump\t// in\ntag_28:\n    /* \"#utility.yul\":1199:1271   */\n  tag_29\n    /* \"#utility.yul\":1267:1269   */\n  0x40\n    /* \"#utility.yul\":1256:1265   */\n  dup4\n    /* \"#utility.yul\":1252:1270   */\n  add\n    /* \"#utility.yul\":1243:1249   */\n  dup7\n    /* \"#utility.yul\":1199:1271   */\n  tag_8\n  jump\t// in\ntag_29:\n    /* \"#utility.yul\":1281:1353   */\n  tag_30\n    /* \"#utility.yul\":1349:1351   */\n  0x60\n    /* \"#utility.yul\":1338:1347   */\n  dup4\n    /* \"#utility.yul\":1334:1352   */\n  add\n    /* \"#utility.yul\":1325:1331   */\n  dup6\n    /* \"#utility.yul\":1281:1353   */\n  tag_10\n  jump\t// in\ntag_30:\n    /* \"#utility.yul\":1363:1436   */\n  tag_31\n    /* \"#utility.yul\":1431:1434   */\n  0x80\n    /* \"#utility.yul\":1420:1429   */\n  dup4\n    /* \"#utility.yul\":1416:1435   */\n  add\n    /* \"#utility.yul\":1407:1413   */\n  dup5\n    /* \"#utility.yul\":1363:1436   */\n  tag_13\n  jump\t// in\ntag_31:\n    /* \"#utility.yul\":779:1443   */\n  swap7\n  swap6\n  pop\n  pop\n  pop\n  pop\n  pop\n  pop\n  jump\t// out\n    /* \"GoWorkspace/github.com/hdlabs-ro/sc_base/us-contracts/PairUsdtRont.sol\":79:13495  contract PairUsdtRont {... */\ntag_6:\n  dataSize(sub_0)\n  dup1\n  dataOffset(sub_0)\n  0x00\n  codecopy\n  0x00\n  return\nstop\n\nsub_0: assembly {\n        /* \"GoWorkspace/github.com/hdlabs-ro/sc_base/us-contracts/PairUsdtRont.sol\":79:13495  contract PairUsdtRont {... */\n      mstore(0x40, 0x80)\n      callvalue\n      dup1\n      iszero\n      tag_1\n      jumpi\n      0x00\n      dup1\n      revert\n    tag_1:\n      pop\n      jumpi(tag_2, lt(calldatasize, 0x04))\n      shr(0xe0, calldataload(0x00))\n      dup1\n      0x6a627842\n      gt\n      tag_28\n      jumpi\n      dup1\n      0xa9059cbb\n      gt\n      tag_29\n      jumpi\n      dup1\n      0xd21220a7\n      gt\n      tag_30\n      jumpi\n      dup1\n      0xd21220a7\n      eq\n      tag_24\n      jumpi\n      dup1\n      0xd505accf\n      eq\n      tag_25\n      jumpi\n      dup1\n      0xdd62ed3e\n      eq\n      tag_26\n      jumpi\n      dup1\n      0xfff6cae9\n      eq\n      tag_27\n      jumpi\n      jump(tag_2)\n    tag_30:\n      dup1\n      0xa9059cbb\n      eq\n      tag_21\n      jumpi\n      dup1\n      0xba9a7a56\n      eq\n      tag_22\n      jumpi\n      dup1\n      0xbc25cf77\n      eq\n      tag_23\n      jumpi\n      jump(tag_2)\n    tag_29:\n      dup1\n      0x6a627842\n      eq\n      tag_15\n      jumpi\n      dup1\n      0x70a08231\n      eq\n      tag_16\n      jumpi\n      dup1\n      0x7464fc3d\n      eq\n      tag_17\n      jumpi\n      dup1\n      0x7ecebe00\n      eq\n      tag_18\n      jumpi\n      dup1\n      0x89afcb44\n      eq\n      tag_19\n      jumpi\n      dup1\n      0x95d89b41\n      eq\n      tag_20\n      jumpi\n      jump(tag_2)\n    tag_28:\n      dup1\n      0x23b872dd\n      gt\n      tag_31\n      jumpi\n      dup1\n      0x23b872dd\n      eq\n      tag_9\n      jumpi\n      dup1\n      0x30adf81f\n      eq\n      tag_10\n      jumpi\n      dup1\n      0x313ce567\n      eq\n      tag_11\n      jumpi\n      dup1\n      0x3644e515\n      eq\n      tag_12\n      jumpi\n      dup1\n      0x5909c0d5\n      eq\n      tag_13\n      jumpi\n      dup1\n      0x5a3d5493\n      eq\n      tag_14\n      jumpi\n      jump(tag_2)\n    tag_31:\n      dup1\n      0x022c0d9f\n      eq\n      tag_3\n      jumpi\n      dup1\n      0x06fdde03\n      eq\n      tag_4\n      jumpi\n      dup1\n      0x0902f1ac\n      eq\n      tag_5\n      jumpi\n      dup1\n      0x095ea7b3\n      eq\n      tag_6\n      jumpi\n      dup1\n      0x0dfe1681\n      eq\n      tag_7\n      jumpi\n      dup1\n      0x18160ddd\n      eq\n      tag_8\n      jumpi\n    tag_2:\n      0x00\n      dup1\n      revert\n        /* \"GoWorkspace/github.com/hdlabs-ro/sc_base/us-contracts/PairUsdtRont.sol\":5487:7582  function swap(... */\n    tag_3:\n      tag_32\n      0x04\n      dup1\n      calldatasize\n      sub\n      dup2\n      add\n      swap1\n      tag_33\n      swap2\n      swap1\n      tag_34\n      jump\t// in\n    tag_33:\n      tag_35\n      jump\t// in\n    tag_32:\n      stop\n        /* \"GoWorkspace/github.com/hdlabs-ro/sc_base/us-contracts/PairUsdtRont.sol\":355:401  string public constant name = \"ERC Uniswap V2\" */\n    tag_4:\n      tag_36\n      tag_37\n      jump\t// in\n    tag_36:\n      mload(0x40)\n      tag_38\n      swap2\n      swap1\n      tag_39\n      jump\t// in\n    tag_38:\n      mload(0x40)\n      dup1\n      swap2\n      sub\n      swap1\n      return\n        /* \"GoWorkspace/github.com/hdlabs-ro/sc_base/us-contracts/PairUsdtRont.sol\":2245:2546  function getReserves()... */\n    tag_5:\n      tag_40\n      tag_41\n      jump\t// in\n    tag_40:\n      mload(0x40)\n      tag_42\n      swap4\n      swap3\n      swap2\n      swap1\n      tag_43\n      jump\t// in\n    tag_42:\n      mload(0x40)\n      dup1\n      swap2\n      sub\n      swap1\n      return\n        /* \"GoWorkspace/github.com/hdlabs-ro/sc_base/us-contracts/PairUsdtRont.sol\":11155:11302  function approve(address spender, uint256 value) external returns (bool) {... */\n    tag_6:\n      tag_44\n      0x04\n      dup1\n      calldatasize\n      sub\n      dup2\n      add\n      swap1\n      tag_45\n      swap2\n      swap1\n      tag_46\n      jump\t// in\n    tag_45:\n      tag_47\n      jump\t// in\n    tag_44:\n      mload(0x40)\n      tag_48\n      swap2\n      swap1\n      tag_49\n      jump\t// in\n    tag_48:\n      mload(0x40)\n      dup1\n      swap2\n      sub\n      swap1\n      return\n        /* \"GoWorkspace/github.com/hdlabs-ro/sc_base/us-contracts/PairUsdtRont.sol\":178:244  address public token0 = 0xD0DA387609Adc13779badAf1315a4904CD40976E */\n    tag_7:\n      tag_50\n      tag_51\n      jump\t// in\n    tag_50:\n      mload(0x40)\n      tag_52\n      swap2\n      swap1\n      tag_53\n      jump\t// in\n    tag_52:\n      mload(0x40)\n      dup1\n      swap2\n      sub\n      swap1\n      return\n        /* \"GoWorkspace/github.com/hdlabs-ro/sc_base/us-contracts/PairUsdtRont.sol\":498:524  uint256 public totalSupply */\n    tag_8:\n      tag_54\n      tag_55\n      jump\t// in\n    tag_54:\n      mload(0x40)\n      tag_56\n      swap2\n      swap1\n      tag_57\n      jump\t// in\n    tag_56:\n      mload(0x40)\n      dup1\n      swap2\n      sub\n      swap1\n      return\n        /* \"GoWorkspace/github.com/hdlabs-ro/sc_base/us-contracts/PairUsdtRont.sol\":11453:11804  function transferFrom(... */\n    tag_9:\n      tag_58\n      0x04\n      dup1\n      calldatasize\n      sub\n      dup2\n      add\n      swap1\n      tag_59\n      swap2\n      swap1\n      tag_60\n      jump\t// in\n    tag_59:\n      tag_61\n      jump\t// in\n    tag_58:\n      mload(0x40)\n      tag_62\n      swap2\n      swap1\n      tag_49\n      jump\t// in\n    tag_62:\n      mload(0x40)\n      dup1\n      swap2\n      sub\n      swap1\n      return\n        /* \"GoWorkspace/github.com/hdlabs-ro/sc_base/us-contracts/PairUsdtRont.sol\":791:907  bytes32 public constant PERMIT_TYPEHASH =... */\n    tag_10:\n      tag_63\n      tag_64\n      jump\t// in\n    tag_63:\n      mload(0x40)\n      tag_65\n      swap2\n      swap1\n      tag_66\n      jump\t// in\n    tag_65:\n      mload(0x40)\n      dup1\n      swap2\n      sub\n      swap1\n      return\n        /* \"GoWorkspace/github.com/hdlabs-ro/sc_base/us-contracts/PairUsdtRont.sol\":457:492  uint8 public constant decimals = 18 */\n    tag_11:\n      tag_67\n      tag_68\n      jump\t// in\n    tag_67:\n      mload(0x40)\n      tag_69\n      swap2\n      swap1\n      tag_70\n      jump\t// in\n    tag_69:\n      mload(0x40)\n      dup1\n      swap2\n      sub\n      swap1\n      return\n        /* \"GoWorkspace/github.com/hdlabs-ro/sc_base/us-contracts/PairUsdtRont.sol\":650:681  bytes32 public DOMAIN_SEPARATOR */\n    tag_12:\n      tag_71\n      tag_72\n      jump\t// in\n    tag_71:\n      mload(0x40)\n      tag_73\n      swap2\n      swap1\n      tag_66\n      jump\t// in\n    tag_73:\n      mload(0x40)\n      dup1\n      swap2\n      sub\n      swap1\n      return\n        /* \"GoWorkspace/github.com/hdlabs-ro/sc_base/us-contracts/PairUsdtRont.sol\":1396:1431  uint256 public price0CumulativeLast */\n    tag_13:\n      tag_74\n      tag_75\n      jump\t// in\n    tag_74:\n      mload(0x40)\n      tag_76\n      swap2\n      swap1\n      tag_57\n      jump\t// in\n    tag_76:\n      mload(0x40)\n      dup1\n      swap2\n      sub\n      swap1\n      return\n        /* \"GoWorkspace/github.com/hdlabs-ro/sc_base/us-contracts/PairUsdtRont.sol\":1437:1472  uint256 public price1CumulativeLast */\n    tag_14:\n      tag_77\n      tag_78\n      jump\t// in\n    tag_77:\n      mload(0x40)\n      tag_79\n      swap2\n      swap1\n      tag_57\n      jump\t// in\n    tag_79:\n      mload(0x40)\n      dup1\n      swap2\n      sub\n      swap1\n      return\n        /* \"GoWorkspace/github.com/hdlabs-ro/sc_base/us-contracts/PairUsdtRont.sol\":2655:3866  function mint(address to) external lock returns (uint256 liquidity) {... */\n    tag_15:\n      tag_80\n      0x04\n      dup1\n      calldatasize\n      sub\n      dup2\n      add\n      swap1\n      tag_81\n      swap2\n      swap1\n      tag_82\n      jump\t// in\n    tag_81:\n      tag_83\n      jump\t// in\n    tag_80:\n      mload(0x40)\n      tag_84\n      swap2\n      swap1\n      tag_57\n      jump\t// in\n    tag_84:\n      mload(0x40)\n      dup1\n      swap2\n      sub\n      swap1\n      return\n        /* \"GoWorkspace/github.com/hdlabs-ro/sc_base/us-contracts/PairUsdtRont.sol\":530:574  mapping(address => uint256) public balanceOf */\n    tag_16:\n      tag_85\n      0x04\n      dup1\n      calldatasize\n      sub\n      dup2\n      add\n      swap1\n      tag_86\n      swap2\n      swap1\n      tag_82\n      jump\t// in\n    tag_86:\n      tag_87\n      jump\t// in\n    tag_85:\n      mload(0x40)\n      tag_88\n      swap2\n      swap1\n      tag_57\n      jump\t// in\n    tag_88:\n      mload(0x40)\n      dup1\n      swap2\n      sub\n      swap1\n      return\n        /* \"GoWorkspace/github.com/hdlabs-ro/sc_base/us-contracts/PairUsdtRont.sol\":1478:1498  uint256 public kLast */\n    tag_17:\n      tag_89\n      tag_90\n      jump\t// in\n    tag_89:\n      mload(0x40)\n      tag_91\n      swap2\n      swap1\n      tag_57\n      jump\t// in\n    tag_91:\n      mload(0x40)\n      dup1\n      swap2\n      sub\n      swap1\n      return\n        /* \"GoWorkspace/github.com/hdlabs-ro/sc_base/us-contracts/PairUsdtRont.sol\":913:954  mapping(address => uint256) public nonces */\n    tag_18:\n      tag_92\n      0x04\n      dup1\n      calldatasize\n      sub\n      dup2\n      add\n      swap1\n      tag_93\n      swap2\n      swap1\n      tag_82\n      jump\t// in\n    tag_93:\n      tag_94\n      jump\t// in\n    tag_92:\n      mload(0x40)\n      tag_95\n      swap2\n      swap1\n      tag_57\n      jump\t// in\n    tag_95:\n      mload(0x40)\n      dup1\n      swap2\n      sub\n      swap1\n      return\n        /* \"GoWorkspace/github.com/hdlabs-ro/sc_base/us-contracts/PairUsdtRont.sol\":3975:5378  function burn(address to)... */\n    tag_19:\n      tag_96\n      0x04\n      dup1\n      calldatasize\n      sub\n      dup2\n      add\n      swap1\n      tag_97\n      swap2\n      swap1\n      tag_82\n      jump\t// in\n    tag_97:\n      tag_98\n      jump\t// in\n    tag_96:\n      mload(0x40)\n      tag_99\n      swap3\n      swap2\n      swap1\n      tag_100\n      jump\t// in\n    tag_99:\n      mload(0x40)\n      dup1\n      swap2\n      sub\n      swap1\n      return\n        /* \"GoWorkspace/github.com/hdlabs-ro/sc_base/us-contracts/PairUsdtRont.sol\":407:451  string public constant symbol = \"ERC UNI-V2\" */\n    tag_20:\n      tag_101\n      tag_102\n      jump\t// in\n    tag_101:\n      mload(0x40)\n      tag_103\n      swap2\n      swap1\n      tag_39\n      jump\t// in\n    tag_103:\n      mload(0x40)\n      dup1\n      swap2\n      sub\n      swap1\n      return\n        /* \"GoWorkspace/github.com/hdlabs-ro/sc_base/us-contracts/PairUsdtRont.sol\":11308:11447  function transfer(address to, uint256 value) external returns (bool) {... */\n    tag_21:\n      tag_104\n      0x04\n      dup1\n      calldatasize\n      sub\n      dup2\n      add\n      swap1\n      tag_105\n      swap2\n      swap1\n      tag_46\n      jump\t// in\n    tag_105:\n      tag_106\n      jump\t// in\n    tag_104:\n      mload(0x40)\n      tag_107\n      swap2\n      swap1\n      tag_49\n      jump\t// in\n    tag_107:\n      mload(0x40)\n      dup1\n      swap2\n      sub\n      swap1\n      return\n        /* \"GoWorkspace/github.com/hdlabs-ro/sc_base/us-contracts/PairUsdtRont.sol\":974:1019  uint256 public constant MINIMUM_LIQUIDITY = 1 */\n    tag_22:\n      tag_108\n      tag_109\n      jump\t// in\n    tag_108:\n      mload(0x40)\n      tag_110\n      swap2\n      swap1\n      tag_57\n      jump\t// in\n    tag_110:\n      mload(0x40)\n      dup1\n      swap2\n      sub\n      swap1\n      return\n        /* \"GoWorkspace/github.com/hdlabs-ro/sc_base/us-contracts/PairUsdtRont.sol\":7628:8039  function skim(address to) external lock {... */\n    tag_23:\n      tag_111\n      0x04\n      dup1\n      calldatasize\n      sub\n      dup2\n      add\n      swap1\n      tag_112\n      swap2\n      swap1\n      tag_82\n      jump\t// in\n    tag_112:\n      tag_113\n      jump\t// in\n    tag_111:\n      stop\n        /* \"GoWorkspace/github.com/hdlabs-ro/sc_base/us-contracts/PairUsdtRont.sol\":266:332  address public token1 = 0xD1F9C3397ea04D3dE7F002cB9e63cb49d0DEAA36 */\n    tag_24:\n      tag_114\n      tag_115\n      jump\t// in\n    tag_114:\n      mload(0x40)\n      tag_116\n      swap2\n      swap1\n      tag_53\n      jump\t// in\n    tag_116:\n      mload(0x40)\n      dup1\n      swap2\n      sub\n      swap1\n      return\n        /* \"GoWorkspace/github.com/hdlabs-ro/sc_base/us-contracts/PairUsdtRont.sol\":11810:12778  function permit(... */\n    tag_25:\n      tag_117\n      0x04\n      dup1\n      calldatasize\n      sub\n      dup2\n      add\n      swap1\n      tag_118\n      swap2\n      swap1\n      tag_119\n      jump\t// in\n    tag_118:\n      tag_120\n      jump\t// in\n    tag_117:\n      stop\n        /* \"GoWorkspace/github.com/hdlabs-ro/sc_base/us-contracts/PairUsdtRont.sol\":580:644  mapping(address => mapping(address => uint256)) public allowance */\n    tag_26:\n      tag_121\n      0x04\n      dup1\n      calldatasize\n      sub\n      dup2\n      add\n      swap1\n      tag_122\n      swap2\n      swap1\n      tag_123\n      jump\t// in\n    tag_122:\n      tag_124\n      jump\t// in\n    tag_121:\n      mload(0x40)\n      tag_125\n      swap2\n      swap1\n      tag_57\n      jump\t// in\n    tag_125:\n      mload(0x40)\n      dup1\n      swap2\n      sub\n      swap1\n      return\n        /* \"GoWorkspace/github.com/hdlabs-ro/sc_base/us-contracts/PairUsdtRont.sol\":8085:8295  function sync() external lock {... */\n    tag_27:\n      tag_126\n      tag_127\n      jump\t// in\n    tag_126:\n      stop\n        /* \"GoWorkspace/github.com/hdlabs-ro/sc_base/us-contracts/PairUsdtRont.sol\":5487:7582  function swap(... */\n    tag_35:\n        /* \"GoWorkspace/github.com/hdlabs-ro/sc_base/us-contracts/PairUsdtRont.sol\":1665:1666  1 */\n      0x01\n        /* \"GoWorkspace/github.com/hdlabs-ro/sc_base/us-contracts/PairUsdtRont.sol\":1653:1661  unlocked */\n      sload(0x0c)\n        /* \"GoWorkspace/github.com/hdlabs-ro/sc_base/us-contracts/PairUsdtRont.sol\":1653:1666  unlocked == 1 */\n      eq\n        /* \"GoWorkspace/github.com/hdlabs-ro/sc_base/us-contracts/PairUsdtRont.sol\":1645:1691  require(unlocked == 1, \"PairUsdtRont: LOCKED\") */\n      tag_129\n      jumpi\n      mload(0x40)\n      0x08c379a000000000000000000000000000000000000000000000000000000000\n      dup2\n      mstore\n      0x04\n      add\n      tag_130\n      swap1\n      tag_131\n      jump\t// in\n    tag_130:\n      mload(0x40)\n      dup1\n      swap2\n      sub\n      swap1\n      revert\n    tag_129:\n        /* \"GoWorkspace/github.com/hdlabs-ro/sc_base/us-contracts/PairUsdtRont.sol\":1712:1713  0 */\n      0x00\n        /* \"GoWorkspace/github.com/hdlabs-ro/sc_base/us-contracts/PairUsdtRont.sol\":1701:1709  unlocked */\n      0x0c\n        /* \"GoWorkspace/github.com/hdlabs-ro/sc_base/us-contracts/PairUsdtRont.sol\":1701:1713  unlocked = 0 */\n      dup2\n      swap1\n      sstore\n      pop\n        /* \"GoWorkspace/github.com/hdlabs-ro/sc_base/us-contracts/PairUsdtRont.sol\":5670:5671  0 */\n      0x00\n        /* \"GoWorkspace/github.com/hdlabs-ro/sc_base/us-contracts/PairUsdtRont.sol\":5657:5667  amount0Out */\n      dup6\n        /* \"GoWorkspace/github.com/hdlabs-ro/sc_base/us-contracts/PairUsdtRont.sol\":5657:5671  amount0Out > 0 */\n      gt\n        /* \"GoWorkspace/github.com/hdlabs-ro/sc_base/us-contracts/PairUsdtRont.sol\":5657:5689  amount0Out > 0 || amount1Out > 0 */\n      dup1\n      tag_133\n      jumpi\n      pop\n        /* \"GoWorkspace/github.com/hdlabs-ro/sc_base/us-contracts/PairUsdtRont.sol\":5688:5689  0 */\n      0x00\n        /* \"GoWorkspace/github.com/hdlabs-ro/sc_base/us-contracts/PairUsdtRont.sol\":5675:5685  amount1Out */\n      dup5\n        /* \"GoWorkspace/github.com/hdlabs-ro/sc_base/us-contracts/PairUsdtRont.sol\":5675:5689  amount1Out > 0 */\n      gt\n        /* \"GoWorkspace/github.com/hdlabs-ro/sc_base/us-contracts/PairUsdtRont.sol\":5657:5689  amount0Out > 0 || amount1Out > 0 */\n    tag_133:\n        /* \"GoWorkspace/github.com/hdlabs-ro/sc_base/us-contracts/PairUsdtRont.sol\":5636:5755  require(... */\n      tag_134\n      jumpi\n      mload(0x40)\n      0x08c379a000000000000000000000000000000000000000000000000000000000\n      dup2\n      mstore\n      0x04\n      add\n      tag_135\n      swap1\n      tag_136\n      jump\t// in\n    tag_135:\n      mload(0x40)\n      dup1\n      swap2\n      sub\n      swap1\n      revert\n    tag_134:\n        /* \"GoWorkspace/github.com/hdlabs-ro/sc_base/us-contracts/PairUsdtRont.sol\":5766:5783  uint112 _reserve0 */\n      0x00\n        /* \"GoWorkspace/github.com/hdlabs-ro/sc_base/us-contracts/PairUsdtRont.sol\":5785:5802  uint112 _reserve1 */\n      dup1\n        /* \"GoWorkspace/github.com/hdlabs-ro/sc_base/us-contracts/PairUsdtRont.sol\":5808:5821  getReserves() */\n      tag_137\n        /* \"GoWorkspace/github.com/hdlabs-ro/sc_base/us-contracts/PairUsdtRont.sol\":5808:5819  getReserves */\n      tag_41\n        /* \"GoWorkspace/github.com/hdlabs-ro/sc_base/us-contracts/PairUsdtRont.sol\":5808:5821  getReserves() */\n      jump\t// in\n    tag_137:\n        /* \"GoWorkspace/github.com/hdlabs-ro/sc_base/us-contracts/PairUsdtRont.sol\":5765:5821  (uint112 _reserve0, uint112 _reserve1, ) = getReserves() */\n      pop\n      swap2\n      pop\n      swap2\n      pop\n        /* \"GoWorkspace/github.com/hdlabs-ro/sc_base/us-contracts/PairUsdtRont.sol\":5880:5889  _reserve0 */\n      dup2\n        /* \"GoWorkspace/github.com/hdlabs-ro/sc_base/us-contracts/PairUsdtRont.sol\":5867:5889  amount0Out < _reserve0 */\n      0xffffffffffffffffffffffffffff\n      and\n        /* \"GoWorkspace/github.com/hdlabs-ro/sc_base/us-contracts/PairUsdtRont.sol\":5867:5877  amount0Out */\n      dup8\n        /* \"GoWorkspace/github.com/hdlabs-ro/sc_base/us-contracts/PairUsdtRont.sol\":5867:5889  amount0Out < _reserve0 */\n      lt\n        /* \"GoWorkspace/github.com/hdlabs-ro/sc_base/us-contracts/PairUsdtRont.sol\":5867:5915  amount0Out < _reserve0 && amount1Out < _reserve1 */\n      dup1\n      iszero\n      tag_138\n      jumpi\n      pop\n        /* \"GoWorkspace/github.com/hdlabs-ro/sc_base/us-contracts/PairUsdtRont.sol\":5906:5915  _reserve1 */\n      dup1\n        /* \"GoWorkspace/github.com/hdlabs-ro/sc_base/us-contracts/PairUsdtRont.sol\":5893:5915  amount1Out < _reserve1 */\n      0xffffffffffffffffffffffffffff\n      and\n        /* \"GoWorkspace/github.com/hdlabs-ro/sc_base/us-contracts/PairUsdtRont.sol\":5893:5903  amount1Out */\n      dup7\n        /* \"GoWorkspace/github.com/hdlabs-ro/sc_base/us-contracts/PairUsdtRont.sol\":5893:5915  amount1Out < _reserve1 */\n      lt\n        /* \"GoWorkspace/github.com/hdlabs-ro/sc_base/us-contracts/PairUsdtRont.sol\":5867:5915  amount0Out < _reserve0 && amount1Out < _reserve1 */\n    tag_138:\n        /* \"GoWorkspace/github.com/hdlabs-ro/sc_base/us-contracts/PairUsdtRont.sol\":5846:5977  require(... */\n      tag_139\n      jumpi\n      mload(0x40)\n      0x08c379a000000000000000000000000000000000000000000000000000000000\n      dup2\n      mstore\n      0x04\n      add\n      tag_140\n      swap1\n      tag_141\n      jump\t// in\n    tag_140:\n      mload(0x40)\n      dup1\n      swap2\n      sub\n      swap1\n      revert\n    tag_139:\n        /* \"GoWorkspace/github.com/hdlabs-ro/sc_base/us-contracts/PairUsdtRont.sol\":5988:6004  uint256 balance0 */\n      0x00\n        /* \"GoWorkspace/github.com/hdlabs-ro/sc_base/us-contracts/PairUsdtRont.sol\":6014:6030  uint256 balance1 */\n      dup1\n        /* \"GoWorkspace/github.com/hdlabs-ro/sc_base/us-contracts/PairUsdtRont.sol\":6121:6136  address _token0 */\n      0x00\n        /* \"GoWorkspace/github.com/hdlabs-ro/sc_base/us-contracts/PairUsdtRont.sol\":6139:6145  token0 */\n      0x01\n      0x00\n      swap1\n      sload\n      swap1\n      0x0100\n      exp\n      swap1\n      div\n      0xffffffffffffffffffffffffffffffffffffffff\n      and\n        /* \"GoWorkspace/github.com/hdlabs-ro/sc_base/us-contracts/PairUsdtRont.sol\":6121:6145  address _token0 = token0 */\n      swap1\n      pop\n        /* \"GoWorkspace/github.com/hdlabs-ro/sc_base/us-contracts/PairUsdtRont.sol\":6159:6174  address _token1 */\n      0x00\n        /* \"GoWorkspace/github.com/hdlabs-ro/sc_base/us-contracts/PairUsdtRont.sol\":6177:6183  token1 */\n      0x02\n      0x00\n      swap1\n      sload\n      swap1\n      0x0100\n      exp\n      swap1\n      div\n      0xffffffffffffffffffffffffffffffffffffffff\n      and\n        /* \"GoWorkspace/github.com/hdlabs-ro/sc_base/us-contracts/PairUsdtRont.sol\":6159:6183  address _token1 = token1 */\n      swap1\n      pop\n        /* \"GoWorkspace/github.com/hdlabs-ro/sc_base/us-contracts/PairUsdtRont.sol\":6211:6218  _token0 */\n      dup2\n        /* \"GoWorkspace/github.com/hdlabs-ro/sc_base/us-contracts/PairUsdtRont.sol\":6205:6218  to != _token0 */\n      0xffffffffffffffffffffffffffffffffffffffff\n      and\n        /* \"GoWorkspace/github.com/hdlabs-ro/sc_base/us-contracts/PairUsdtRont.sol\":6205:6207  to */\n      dup10\n        /* \"GoWorkspace/github.com/hdlabs-ro/sc_base/us-contracts/PairUsdtRont.sol\":6205:6218  to != _token0 */\n      0xffffffffffffffffffffffffffffffffffffffff\n      and\n      eq\n      iszero\n        /* \"GoWorkspace/github.com/hdlabs-ro/sc_base/us-contracts/PairUsdtRont.sol\":6205:6235  to != _token0 && to != _token1 */\n      dup1\n      iszero\n      tag_142\n      jumpi\n      pop\n        /* \"GoWorkspace/github.com/hdlabs-ro/sc_base/us-contracts/PairUsdtRont.sol\":6228:6235  _token1 */\n      dup1\n        /* \"GoWorkspace/github.com/hdlabs-ro/sc_base/us-contracts/PairUsdtRont.sol\":6222:6235  to != _token1 */\n      0xffffffffffffffffffffffffffffffffffffffff\n      and\n        /* \"GoWorkspace/github.com/hdlabs-ro/sc_base/us-contracts/PairUsdtRont.sol\":6222:6224  to */\n      dup10\n        /* \"GoWorkspace/github.com/hdlabs-ro/sc_base/us-contracts/PairUsdtRont.sol\":6222:6235  to != _token1 */\n      0xffffffffffffffffffffffffffffffffffffffff\n      and\n      eq\n      iszero\n        /* \"GoWorkspace/github.com/hdlabs-ro/sc_base/us-contracts/PairUsdtRont.sol\":6205:6235  to != _token0 && to != _token1 */\n    tag_142:\n        /* \"GoWorkspace/github.com/hdlabs-ro/sc_base/us-contracts/PairUsdtRont.sol\":6197:6264  require(to != _token0 && to != _token1, \"PairUsdtRont: INVALID_TO\") */\n      tag_143\n      jumpi\n      mload(0x40)\n      0x08c379a000000000000000000000000000000000000000000000000000000000\n      dup2\n      mstore\n      0x04\n      add\n      tag_144\n      swap1\n      tag_145\n      jump\t// in\n    tag_144:\n      mload(0x40)\n      dup1\n      swap2\n      sub\n      swap1\n      revert\n    tag_143:\n        /* \"GoWorkspace/github.com/hdlabs-ro/sc_base/us-contracts/PairUsdtRont.sol\":6295:6296  0 */\n      0x00\n        /* \"GoWorkspace/github.com/hdlabs-ro/sc_base/us-contracts/PairUsdtRont.sol\":6282:6292  amount0Out */\n      dup12\n        /* \"GoWorkspace/github.com/hdlabs-ro/sc_base/us-contracts/PairUsdtRont.sol\":6282:6296  amount0Out > 0 */\n      gt\n        /* \"GoWorkspace/github.com/hdlabs-ro/sc_base/us-contracts/PairUsdtRont.sol\":6278:6336  if (amount0Out > 0) _safeTransfer(_token0, to, amount0Out) */\n      iszero\n      tag_146\n      jumpi\n        /* \"GoWorkspace/github.com/hdlabs-ro/sc_base/us-contracts/PairUsdtRont.sol\":6298:6336  _safeTransfer(_token0, to, amount0Out) */\n      tag_147\n        /* \"GoWorkspace/github.com/hdlabs-ro/sc_base/us-contracts/PairUsdtRont.sol\":6312:6319  _token0 */\n      dup3\n        /* \"GoWorkspace/github.com/hdlabs-ro/sc_base/us-contracts/PairUsdtRont.sol\":6321:6323  to */\n      dup11\n        /* \"GoWorkspace/github.com/hdlabs-ro/sc_base/us-contracts/PairUsdtRont.sol\":6325:6335  amount0Out */\n      dup14\n        /* \"GoWorkspace/github.com/hdlabs-ro/sc_base/us-contracts/PairUsdtRont.sol\":6298:6311  _safeTransfer */\n      tag_148\n        /* \"GoWorkspace/github.com/hdlabs-ro/sc_base/us-contracts/PairUsdtRont.sol\":6298:6336  _safeTransfer(_token0, to, amount0Out) */\n      jump\t// in\n    tag_147:\n        /* \"GoWorkspace/github.com/hdlabs-ro/sc_base/us-contracts/PairUsdtRont.sol\":6278:6336  if (amount0Out > 0) _safeTransfer(_token0, to, amount0Out) */\n    tag_146:\n        /* \"GoWorkspace/github.com/hdlabs-ro/sc_base/us-contracts/PairUsdtRont.sol\":6401:6402  0 */\n      0x00\n        /* \"GoWorkspace/github.com/hdlabs-ro/sc_base/us-contracts/PairUsdtRont.sol\":6388:6398  amount1Out */\n      dup11\n        /* \"GoWorkspace/github.com/hdlabs-ro/sc_base/us-contracts/PairUsdtRont.sol\":6388:6402  amount1Out > 0 */\n      gt\n        /* \"GoWorkspace/github.com/hdlabs-ro/sc_base/us-contracts/PairUsdtRont.sol\":6384:6442  if (amount1Out > 0) _safeTransfer(_token1, to, amount1Out) */\n      iszero\n      tag_149\n      jumpi\n        /* \"GoWorkspace/github.com/hdlabs-ro/sc_base/us-contracts/PairUsdtRont.sol\":6404:6442  _safeTransfer(_token1, to, amount1Out) */\n      tag_150\n        /* \"GoWorkspace/github.com/hdlabs-ro/sc_base/us-contracts/PairUsdtRont.sol\":6418:6425  _token1 */\n      dup2\n        /* \"GoWorkspace/github.com/hdlabs-ro/sc_base/us-contracts/PairUsdtRont.sol\":6427:6429  to */\n      dup11\n        /* \"GoWorkspace/github.com/hdlabs-ro/sc_base/us-contracts/PairUsdtRont.sol\":6431:6441  amount1Out */\n      dup13\n        /* \"GoWorkspace/github.com/hdlabs-ro/sc_base/us-contracts/PairUsdtRont.sol\":6404:6417  _safeTransfer */\n      tag_148\n        /* \"GoWorkspace/github.com/hdlabs-ro/sc_base/us-contracts/PairUsdtRont.sol\":6404:6442  _safeTransfer(_token1, to, amount1Out) */\n      jump\t// in\n    tag_150:\n        /* \"GoWorkspace/github.com/hdlabs-ro/sc_base/us-contracts/PairUsdtRont.sol\":6384:6442  if (amount1Out > 0) _safeTransfer(_token1, to, amount1Out) */\n    tag_149:\n        /* \"GoWorkspace/github.com/hdlabs-ro/sc_base/us-contracts/PairUsdtRont.sol\":6598:6605  _token0 */\n      dup2\n        /* \"GoWorkspace/github.com/hdlabs-ro/sc_base/us-contracts/PairUsdtRont.sol\":6593:6616  IERC(_token0).balanceOf */\n      0xffffffffffffffffffffffffffffffffffffffff\n      and\n      0x70a08231\n        /* \"GoWorkspace/github.com/hdlabs-ro/sc_base/us-contracts/PairUsdtRont.sol\":6625:6629  this */\n      address\n        /* \"GoWorkspace/github.com/hdlabs-ro/sc_base/us-contracts/PairUsdtRont.sol\":6593:6631  IERC(_token0).balanceOf(address(this)) */\n      mload(0x40)\n      dup3\n      0xffffffff\n      and\n      0xe0\n      shl\n      dup2\n      mstore\n      0x04\n      add\n      tag_151\n      swap2\n      swap1\n      tag_53\n      jump\t// in\n    tag_151:\n      0x20\n      mload(0x40)\n      dup1\n      dup4\n      sub\n      dup2\n      dup7\n      gas\n      staticcall\n      iszero\n      dup1\n      iszero\n      tag_153\n      jumpi\n      returndatasize\n      0x00\n      dup1\n      returndatacopy\n      revert(0x00, returndatasize)\n    tag_153:\n      pop\n      pop\n      pop\n      pop\n      mload(0x40)\n      returndatasize\n      not(0x1f)\n      0x1f\n      dup3\n      add\n      and\n      dup3\n      add\n      dup1\n      0x40\n      mstore\n      pop\n      dup2\n      add\n      swap1\n      tag_154\n      swap2\n      swap1\n      tag_155\n      jump\t// in\n    tag_154:\n        /* \"GoWorkspace/github.com/hdlabs-ro/sc_base/us-contracts/PairUsdtRont.sol\":6582:6631  balance0 = IERC(_token0).balanceOf(address(this)) */\n      swap4\n      pop\n        /* \"GoWorkspace/github.com/hdlabs-ro/sc_base/us-contracts/PairUsdtRont.sol\":6661:6668  _token1 */\n      dup1\n        /* \"GoWorkspace/github.com/hdlabs-ro/sc_base/us-contracts/PairUsdtRont.sol\":6656:6679  IERC(_token1).balanceOf */\n      0xffffffffffffffffffffffffffffffffffffffff\n      and\n      0x70a08231\n        /* \"GoWorkspace/github.com/hdlabs-ro/sc_base/us-contracts/PairUsdtRont.sol\":6688:6692  this */\n      address\n        /* \"GoWorkspace/github.com/hdlabs-ro/sc_base/us-contracts/PairUsdtRont.sol\":6656:6694  IERC(_token1).balanceOf(address(this)) */\n      mload(0x40)\n      dup3\n      0xffffffff\n      and\n      0xe0\n      shl\n      dup2\n      mstore\n      0x04\n      add\n      tag_156\n      swap2\n      swap1\n      tag_53\n      jump\t// in\n    tag_156:\n      0x20\n      mload(0x40)\n      dup1\n      dup4\n      sub\n      dup2\n      dup7\n      gas\n      staticcall\n      iszero\n      dup1\n      iszero\n      tag_158\n      jumpi\n      returndatasize\n      0x00\n      dup1\n      returndatacopy\n      revert(0x00, returndatasize)\n    tag_158:\n      pop\n      pop\n      pop\n      pop\n      mload(0x40)\n      returndatasize\n      not(0x1f)\n      0x1f\n      dup3\n      add\n      and\n      dup3\n      add\n      dup1\n      0x40\n      mstore\n      pop\n      dup2\n      add\n      swap1\n      tag_159\n      swap2\n      swap1\n      tag_155\n      jump\t// in\n    tag_159:\n        /* \"GoWorkspace/github.com/hdlabs-ro/sc_base/us-contracts/PairUsdtRont.sol\":6645:6694  balance1 = IERC(_token1).balanceOf(address(this)) */\n      swap3\n      pop\n        /* \"GoWorkspace/github.com/hdlabs-ro/sc_base/us-contracts/PairUsdtRont.sol\":6040:6705  {... */\n      pop\n      pop\n        /* \"GoWorkspace/github.com/hdlabs-ro/sc_base/us-contracts/PairUsdtRont.sol\":6714:6731  uint256 amount0In */\n      0x00\n        /* \"GoWorkspace/github.com/hdlabs-ro/sc_base/us-contracts/PairUsdtRont.sol\":6757:6767  amount0Out */\n      dup10\n        /* \"GoWorkspace/github.com/hdlabs-ro/sc_base/us-contracts/PairUsdtRont.sol\":6745:6754  _reserve0 */\n      dup6\n        /* \"GoWorkspace/github.com/hdlabs-ro/sc_base/us-contracts/PairUsdtRont.sol\":6745:6767  _reserve0 - amount0Out */\n      0xffffffffffffffffffffffffffff\n      and\n      tag_160\n      swap2\n      swap1\n      tag_161\n      jump\t// in\n    tag_160:\n        /* \"GoWorkspace/github.com/hdlabs-ro/sc_base/us-contracts/PairUsdtRont.sol\":6734:6742  balance0 */\n      dup4\n        /* \"GoWorkspace/github.com/hdlabs-ro/sc_base/us-contracts/PairUsdtRont.sol\":6734:6767  balance0 > _reserve0 - amount0Out */\n      gt\n        /* \"GoWorkspace/github.com/hdlabs-ro/sc_base/us-contracts/PairUsdtRont.sol\":6734:6833  balance0 > _reserve0 - amount0Out... */\n      tag_162\n      jumpi\n        /* \"GoWorkspace/github.com/hdlabs-ro/sc_base/us-contracts/PairUsdtRont.sol\":6832:6833  0 */\n      0x00\n        /* \"GoWorkspace/github.com/hdlabs-ro/sc_base/us-contracts/PairUsdtRont.sol\":6734:6833  balance0 > _reserve0 - amount0Out... */\n      jump(tag_163)\n    tag_162:\n        /* \"GoWorkspace/github.com/hdlabs-ro/sc_base/us-contracts/PairUsdtRont.sol\":6806:6816  amount0Out */\n      dup10\n        /* \"GoWorkspace/github.com/hdlabs-ro/sc_base/us-contracts/PairUsdtRont.sol\":6794:6803  _reserve0 */\n      dup6\n        /* \"GoWorkspace/github.com/hdlabs-ro/sc_base/us-contracts/PairUsdtRont.sol\":6794:6816  _reserve0 - amount0Out */\n      0xffffffffffffffffffffffffffff\n      and\n      tag_164\n      swap2\n      swap1\n      tag_161\n      jump\t// in\n    tag_164:\n        /* \"GoWorkspace/github.com/hdlabs-ro/sc_base/us-contracts/PairUsdtRont.sol\":6782:6790  balance0 */\n      dup4\n        /* \"GoWorkspace/github.com/hdlabs-ro/sc_base/us-contracts/PairUsdtRont.sol\":6782:6817  balance0 - (_reserve0 - amount0Out) */\n      tag_165\n      swap2\n      swap1\n      tag_161\n      jump\t// in\n    tag_165:\n        /* \"GoWorkspace/github.com/hdlabs-ro/sc_base/us-contracts/PairUsdtRont.sol\":6734:6833  balance0 > _reserve0 - amount0Out... */\n    tag_163:\n        /* \"GoWorkspace/github.com/hdlabs-ro/sc_base/us-contracts/PairUsdtRont.sol\":6714:6833  uint256 amount0In = balance0 > _reserve0 - amount0Out... */\n      swap1\n      pop\n        /* \"GoWorkspace/github.com/hdlabs-ro/sc_base/us-contracts/PairUsdtRont.sol\":6843:6860  uint256 amount1In */\n      0x00\n        /* \"GoWorkspace/github.com/hdlabs-ro/sc_base/us-contracts/PairUsdtRont.sol\":6886:6896  amount1Out */\n      dup10\n        /* \"GoWorkspace/github.com/hdlabs-ro/sc_base/us-contracts/PairUsdtRont.sol\":6874:6883  _reserve1 */\n      dup6\n        /* \"GoWorkspace/github.com/hdlabs-ro/sc_base/us-contracts/PairUsdtRont.sol\":6874:6896  _reserve1 - amount1Out */\n      0xffffffffffffffffffffffffffff\n      and\n      tag_166\n      swap2\n      swap1\n      tag_161\n      jump\t// in\n    tag_166:\n        /* \"GoWorkspace/github.com/hdlabs-ro/sc_base/us-contracts/PairUsdtRont.sol\":6863:6871  balance1 */\n      dup4\n        /* \"GoWorkspace/github.com/hdlabs-ro/sc_base/us-contracts/PairUsdtRont.sol\":6863:6896  balance1 > _reserve1 - amount1Out */\n      gt\n        /* \"GoWorkspace/github.com/hdlabs-ro/sc_base/us-contracts/PairUsdtRont.sol\":6863:6962  balance1 > _reserve1 - amount1Out... */\n      tag_167\n      jumpi\n        /* \"GoWorkspace/github.com/hdlabs-ro/sc_base/us-contracts/PairUsdtRont.sol\":6961:6962  0 */\n      0x00\n        /* \"GoWorkspace/github.com/hdlabs-ro/sc_base/us-contracts/PairUsdtRont.sol\":6863:6962  balance1 > _reserve1 - amount1Out... */\n      jump(tag_168)\n    tag_167:\n        /* \"GoWorkspace/github.com/hdlabs-ro/sc_base/us-contracts/PairUsdtRont.sol\":6935:6945  amount1Out */\n      dup10\n        /* \"GoWorkspace/github.com/hdlabs-ro/sc_base/us-contracts/PairUsdtRont.sol\":6923:6932  _reserve1 */\n      dup6\n        /* \"GoWorkspace/github.com/hdlabs-ro/sc_base/us-contracts/PairUsdtRont.sol\":6923:6945  _reserve1 - amount1Out */\n      0xffffffffffffffffffffffffffff\n      and\n      tag_169\n      swap2\n      swap1\n      tag_161\n      jump\t// in\n    tag_169:\n        /* \"GoWorkspace/github.com/hdlabs-ro/sc_base/us-contracts/PairUsdtRont.sol\":6911:6919  balance1 */\n      dup4\n        /* \"GoWorkspace/github.com/hdlabs-ro/sc_base/us-contracts/PairUsdtRont.sol\":6911:6946  balance1 - (_reserve1 - amount1Out) */\n      tag_170\n      swap2\n      swap1\n      tag_161\n      jump\t// in\n    tag_170:\n        /* \"GoWorkspace/github.com/hdlabs-ro/sc_base/us-contracts/PairUsdtRont.sol\":6863:6962  balance1 > _reserve1 - amount1Out... */\n    tag_168:\n        /* \"GoWorkspace/github.com/hdlabs-ro/sc_base/us-contracts/PairUsdtRont.sol\":6843:6962  uint256 amount1In = balance1 > _reserve1 - amount1Out... */\n      swap1\n      pop\n        /* \"GoWorkspace/github.com/hdlabs-ro/sc_base/us-contracts/PairUsdtRont.sol\":7005:7006  0 */\n      0x00\n        /* \"GoWorkspace/github.com/hdlabs-ro/sc_base/us-contracts/PairUsdtRont.sol\":6993:7002  amount0In */\n      dup3\n        /* \"GoWorkspace/github.com/hdlabs-ro/sc_base/us-contracts/PairUsdtRont.sol\":6993:7006  amount0In > 0 */\n      gt\n        /* \"GoWorkspace/github.com/hdlabs-ro/sc_base/us-contracts/PairUsdtRont.sol\":6993:7023  amount0In > 0 || amount1In > 0 */\n      dup1\n      tag_171\n      jumpi\n      pop\n        /* \"GoWorkspace/github.com/hdlabs-ro/sc_base/us-contracts/PairUsdtRont.sol\":7022:7023  0 */\n      0x00\n        /* \"GoWorkspace/github.com/hdlabs-ro/sc_base/us-contracts/PairUsdtRont.sol\":7010:7019  amount1In */\n      dup2\n        /* \"GoWorkspace/github.com/hdlabs-ro/sc_base/us-contracts/PairUsdtRont.sol\":7010:7023  amount1In > 0 */\n      gt\n        /* \"GoWorkspace/github.com/hdlabs-ro/sc_base/us-contracts/PairUsdtRont.sol\":6993:7023  amount0In > 0 || amount1In > 0 */\n    tag_171:\n        /* \"GoWorkspace/github.com/hdlabs-ro/sc_base/us-contracts/PairUsdtRont.sol\":6972:7088  require(... */\n      tag_172\n      jumpi\n      mload(0x40)\n      0x08c379a000000000000000000000000000000000000000000000000000000000\n      dup2\n      mstore\n      0x04\n      add\n      tag_173\n      swap1\n      tag_174\n      jump\t// in\n    tag_173:\n      mload(0x40)\n      dup1\n      swap2\n      sub\n      swap1\n      revert\n    tag_172:\n        /* \"GoWorkspace/github.com/hdlabs-ro/sc_base/us-contracts/PairUsdtRont.sol\":7188:7212  uint256 balance0Adjusted */\n      0x00\n        /* \"GoWorkspace/github.com/hdlabs-ro/sc_base/us-contracts/PairUsdtRont.sol\":7245:7246  3 */\n      0x03\n        /* \"GoWorkspace/github.com/hdlabs-ro/sc_base/us-contracts/PairUsdtRont.sol\":7233:7242  amount0In */\n      dup4\n        /* \"GoWorkspace/github.com/hdlabs-ro/sc_base/us-contracts/PairUsdtRont.sol\":7233:7246  amount0In * 3 */\n      tag_175\n      swap2\n      swap1\n      tag_176\n      jump\t// in\n    tag_175:\n        /* \"GoWorkspace/github.com/hdlabs-ro/sc_base/us-contracts/PairUsdtRont.sol\":7226:7230  1000 */\n      0x03e8\n        /* \"GoWorkspace/github.com/hdlabs-ro/sc_base/us-contracts/PairUsdtRont.sol\":7215:7223  balance0 */\n      dup7\n        /* \"GoWorkspace/github.com/hdlabs-ro/sc_base/us-contracts/PairUsdtRont.sol\":7215:7230  balance0 * 1000 */\n      tag_177\n      swap2\n      swap1\n      tag_176\n      jump\t// in\n    tag_177:\n        /* \"GoWorkspace/github.com/hdlabs-ro/sc_base/us-contracts/PairUsdtRont.sol\":7215:7246  balance0 * 1000 - amount0In * 3 */\n      tag_178\n      swap2\n      swap1\n      tag_161\n      jump\t// in\n    tag_178:\n        /* \"GoWorkspace/github.com/hdlabs-ro/sc_base/us-contracts/PairUsdtRont.sol\":7188:7246  uint256 balance0Adjusted = balance0 * 1000 - amount0In * 3 */\n      swap1\n      pop\n        /* \"GoWorkspace/github.com/hdlabs-ro/sc_base/us-contracts/PairUsdtRont.sol\":7260:7284  uint256 balance1Adjusted */\n      0x00\n        /* \"GoWorkspace/github.com/hdlabs-ro/sc_base/us-contracts/PairUsdtRont.sol\":7317:7318  3 */\n      0x03\n        /* \"GoWorkspace/github.com/hdlabs-ro/sc_base/us-contracts/PairUsdtRont.sol\":7305:7314  amount1In */\n      dup4\n        /* \"GoWorkspace/github.com/hdlabs-ro/sc_base/us-contracts/PairUsdtRont.sol\":7305:7318  amount1In * 3 */\n      tag_179\n      swap2\n      swap1\n      tag_176\n      jump\t// in\n    tag_179:\n        /* \"GoWorkspace/github.com/hdlabs-ro/sc_base/us-contracts/PairUsdtRont.sol\":7298:7302  1000 */\n      0x03e8\n        /* \"GoWorkspace/github.com/hdlabs-ro/sc_base/us-contracts/PairUsdtRont.sol\":7287:7295  balance1 */\n      dup7\n        /* \"GoWorkspace/github.com/hdlabs-ro/sc_base/us-contracts/PairUsdtRont.sol\":7287:7302  balance1 * 1000 */\n      tag_180\n      swap2\n      swap1\n      tag_176\n      jump\t// in\n    tag_180:\n        /* \"GoWorkspace/github.com/hdlabs-ro/sc_base/us-contracts/PairUsdtRont.sol\":7287:7318  balance1 * 1000 - amount1In * 3 */\n      tag_181\n      swap2\n      swap1\n      tag_161\n      jump\t// in\n    tag_181:\n        /* \"GoWorkspace/github.com/hdlabs-ro/sc_base/us-contracts/PairUsdtRont.sol\":7260:7318  uint256 balance1Adjusted = balance1 * 1000 - amount1In * 3 */\n      swap1\n      pop\n        /* \"GoWorkspace/github.com/hdlabs-ro/sc_base/us-contracts/PairUsdtRont.sol\":7449:7456  1000**2 */\n      0x0f4240\n        /* \"GoWorkspace/github.com/hdlabs-ro/sc_base/us-contracts/PairUsdtRont.sol\":7437:7446  _reserve1 */\n      dup8\n        /* \"GoWorkspace/github.com/hdlabs-ro/sc_base/us-contracts/PairUsdtRont.sol\":7416:7446  uint256(_reserve0) * _reserve1 */\n      0xffffffffffffffffffffffffffff\n      and\n        /* \"GoWorkspace/github.com/hdlabs-ro/sc_base/us-contracts/PairUsdtRont.sol\":7424:7433  _reserve0 */\n      dup10\n        /* \"GoWorkspace/github.com/hdlabs-ro/sc_base/us-contracts/PairUsdtRont.sol\":7416:7434  uint256(_reserve0) */\n      0xffffffffffffffffffffffffffff\n      and\n        /* \"GoWorkspace/github.com/hdlabs-ro/sc_base/us-contracts/PairUsdtRont.sol\":7416:7446  uint256(_reserve0) * _reserve1 */\n      tag_182\n      swap2\n      swap1\n      tag_176\n      jump\t// in\n    tag_182:\n        /* \"GoWorkspace/github.com/hdlabs-ro/sc_base/us-contracts/PairUsdtRont.sol\":7416:7456  uint256(_reserve0) * _reserve1 * 1000**2 */\n      tag_183\n      swap2\n      swap1\n      tag_176\n      jump\t// in\n    tag_183:\n        /* \"GoWorkspace/github.com/hdlabs-ro/sc_base/us-contracts/PairUsdtRont.sol\":7376:7392  balance1Adjusted */\n      dup2\n        /* \"GoWorkspace/github.com/hdlabs-ro/sc_base/us-contracts/PairUsdtRont.sol\":7357:7373  balance0Adjusted */\n      dup4\n        /* \"GoWorkspace/github.com/hdlabs-ro/sc_base/us-contracts/PairUsdtRont.sol\":7357:7392  balance0Adjusted * balance1Adjusted */\n      tag_184\n      swap2\n      swap1\n      tag_176\n      jump\t// in\n    tag_184:\n        /* \"GoWorkspace/github.com/hdlabs-ro/sc_base/us-contracts/PairUsdtRont.sol\":7357:7456  balance0Adjusted * balance1Adjusted >=... */\n      lt\n      iszero\n        /* \"GoWorkspace/github.com/hdlabs-ro/sc_base/us-contracts/PairUsdtRont.sol\":7332:7505  require(... */\n      tag_185\n      jumpi\n      mload(0x40)\n      0x08c379a000000000000000000000000000000000000000000000000000000000\n      dup2\n      mstore\n      0x04\n      add\n      tag_186\n      swap1\n      tag_187\n      jump\t// in\n    tag_186:\n      mload(0x40)\n      dup1\n      swap2\n      sub\n      swap1\n      revert\n    tag_185:\n        /* \"GoWorkspace/github.com/hdlabs-ro/sc_base/us-contracts/PairUsdtRont.sol\":7098:7516  {... */\n      pop\n      pop\n        /* \"GoWorkspace/github.com/hdlabs-ro/sc_base/us-contracts/PairUsdtRont.sol\":7526:7575  _update(balance0, balance1, _reserve0, _reserve1) */\n      tag_188\n        /* \"GoWorkspace/github.com/hdlabs-ro/sc_base/us-contracts/PairUsdtRont.sol\":7534:7542  balance0 */\n      dup5\n        /* \"GoWorkspace/github.com/hdlabs-ro/sc_base/us-contracts/PairUsdtRont.sol\":7544:7552  balance1 */\n      dup5\n        /* \"GoWorkspace/github.com/hdlabs-ro/sc_base/us-contracts/PairUsdtRont.sol\":7554:7563  _reserve0 */\n      dup9\n        /* \"GoWorkspace/github.com/hdlabs-ro/sc_base/us-contracts/PairUsdtRont.sol\":7565:7574  _reserve1 */\n      dup9\n        /* \"GoWorkspace/github.com/hdlabs-ro/sc_base/us-contracts/PairUsdtRont.sol\":7526:7533  _update */\n      tag_189\n        /* \"GoWorkspace/github.com/hdlabs-ro/sc_base/us-contracts/PairUsdtRont.sol\":7526:7575  _update(balance0, balance1, _reserve0, _reserve1) */\n      jump\t// in\n    tag_188:\n        /* \"GoWorkspace/github.com/hdlabs-ro/sc_base/us-contracts/PairUsdtRont.sol\":5626:7582  {... */\n      pop\n      pop\n      pop\n      pop\n      pop\n      pop\n        /* \"GoWorkspace/github.com/hdlabs-ro/sc_base/us-contracts/PairUsdtRont.sol\":1745:1746  1 */\n      0x01\n        /* \"GoWorkspace/github.com/hdlabs-ro/sc_base/us-contracts/PairUsdtRont.sol\":1734:1742  unlocked */\n      0x0c\n        /* \"GoWorkspace/github.com/hdlabs-ro/sc_base/us-contracts/PairUsdtRont.sol\":1734:1746  unlocked = 1 */\n      dup2\n      swap1\n      sstore\n      pop\n        /* \"GoWorkspace/github.com/hdlabs-ro/sc_base/us-contracts/PairUsdtRont.sol\":5487:7582  function swap(... */\n      pop\n      pop\n      pop\n      pop\n      pop\n      jump\t// out\n        /* \"GoWorkspace/github.com/hdlabs-ro/sc_base/us-contracts/PairUsdtRont.sol\":355:401  string public constant name = \"ERC Uniswap V2\" */\n    tag_37:\n      mload(0x40)\n      dup1\n      0x40\n      add\n      0x40\n      mstore\n      dup1\n      0x0e\n      dup2\n      mstore\n      0x20\n      add\n      0x45524320556e6973776170205632000000000000000000000000000000000000\n      dup2\n      mstore\n      pop\n      dup2\n      jump\t// out\n        /* \"GoWorkspace/github.com/hdlabs-ro/sc_base/us-contracts/PairUsdtRont.sol\":2245:2546  function getReserves()... */\n    tag_41:\n        /* \"GoWorkspace/github.com/hdlabs-ro/sc_base/us-contracts/PairUsdtRont.sol\":2326:2343  uint112 _reserve0 */\n      0x00\n        /* \"GoWorkspace/github.com/hdlabs-ro/sc_base/us-contracts/PairUsdtRont.sol\":2357:2374  uint112 _reserve1 */\n      dup1\n        /* \"GoWorkspace/github.com/hdlabs-ro/sc_base/us-contracts/PairUsdtRont.sol\":2388:2414  uint32 _blockTimestampLast */\n      0x00\n        /* \"GoWorkspace/github.com/hdlabs-ro/sc_base/us-contracts/PairUsdtRont.sol\":2451:2459  reserve0 */\n      0x08\n      0x00\n      swap1\n      sload\n      swap1\n      0x0100\n      exp\n      swap1\n      div\n      0xffffffffffffffffffffffffffff\n      and\n        /* \"GoWorkspace/github.com/hdlabs-ro/sc_base/us-contracts/PairUsdtRont.sol\":2439:2459  _reserve0 = reserve0 */\n      swap3\n      pop\n        /* \"GoWorkspace/github.com/hdlabs-ro/sc_base/us-contracts/PairUsdtRont.sol\":2481:2489  reserve1 */\n      0x08\n      0x0e\n      swap1\n      sload\n      swap1\n      0x0100\n      exp\n      swap1\n      div\n      0xffffffffffffffffffffffffffff\n      and\n        /* \"GoWorkspace/github.com/hdlabs-ro/sc_base/us-contracts/PairUsdtRont.sol\":2469:2489  _reserve1 = reserve1 */\n      swap2\n      pop\n        /* \"GoWorkspace/github.com/hdlabs-ro/sc_base/us-contracts/PairUsdtRont.sol\":2521:2539  blockTimestampLast */\n      0x08\n      0x1c\n      swap1\n      sload\n      swap1\n      0x0100\n      exp\n      swap1\n      div\n      0xffffffff\n      and\n        /* \"GoWorkspace/github.com/hdlabs-ro/sc_base/us-contracts/PairUsdtRont.sol\":2499:2539  _blockTimestampLast = blockTimestampLast */\n      swap1\n      pop\n        /* \"GoWorkspace/github.com/hdlabs-ro/sc_base/us-contracts/PairUsdtRont.sol\":2245:2546  function getReserves()... */\n      swap1\n      swap2\n      swap3\n      jump\t// out\n        /* \"GoWorkspace/github.com/hdlabs-ro/sc_base/us-contracts/PairUsdtRont.sol\":11155:11302  function approve(address spender, uint256 value) external returns (bool) {... */\n    tag_47:\n        /* \"GoWorkspace/github.com/hdlabs-ro/sc_base/us-contracts/PairUsdtRont.sol\":11222:11226  bool */\n      0x00\n        /* \"GoWorkspace/github.com/hdlabs-ro/sc_base/us-contracts/PairUsdtRont.sol\":11238:11274  _approve(msg.sender, spender, value) */\n      tag_192\n        /* \"GoWorkspace/github.com/hdlabs-ro/sc_base/us-contracts/PairUsdtRont.sol\":11247:11257  msg.sender */\n      caller\n        /* \"GoWorkspace/github.com/hdlabs-ro/sc_base/us-contracts/PairUsdtRont.sol\":11259:11266  spender */\n      dup5\n        /* \"GoWorkspace/github.com/hdlabs-ro/sc_base/us-contracts/PairUsdtRont.sol\":11268:11273  value */\n      dup5\n        /* \"GoWorkspace/github.com/hdlabs-ro/sc_base/us-contracts/PairUsdtRont.sol\":11238:11246  _approve */\n      tag_193\n        /* \"GoWorkspace/github.com/hdlabs-ro/sc_base/us-contracts/PairUsdtRont.sol\":11238:11274  _approve(msg.sender, spender, value) */\n      jump\t// in\n    tag_192:\n        /* \"GoWorkspace/github.com/hdlabs-ro/sc_base/us-contracts/PairUsdtRont.sol\":11291:11295  true */\n      0x01\n        /* \"GoWorkspace/github.com/hdlabs-ro/sc_base/us-contracts/PairUsdtRont.sol\":11284:11295  return true */\n      swap1\n      pop\n        /* \"GoWorkspace/github.com/hdlabs-ro/sc_base/us-contracts/PairUsdtRont.sol\":11155:11302  function approve(address spender, uint256 value) external returns (bool) {... */\n      swap3\n      swap2\n      pop\n      pop\n      jump\t// out\n        /* \"GoWorkspace/github.com/hdlabs-ro/sc_base/us-contracts/PairUsdtRont.sol\":178:244  address public token0 = 0xD0DA387609Adc13779badAf1315a4904CD40976E */\n    tag_51:\n      0x01\n      0x00\n      swap1\n      sload\n      swap1\n      0x0100\n      exp\n      swap1\n      div\n      0xffffffffffffffffffffffffffffffffffffffff\n      and\n      dup2\n      jump\t// out\n        /* \"GoWorkspace/github.com/hdlabs-ro/sc_base/us-contracts/PairUsdtRont.sol\":498:524  uint256 public totalSupply */\n    tag_55:\n      sload(0x03)\n      dup2\n      jump\t// out\n        /* \"GoWorkspace/github.com/hdlabs-ro/sc_base/us-contracts/PairUsdtRont.sol\":11453:11804  function transferFrom(... */\n    tag_61:\n        /* \"GoWorkspace/github.com/hdlabs-ro/sc_base/us-contracts/PairUsdtRont.sol\":11564:11568  bool */\n      0x00\n        /* \"GoWorkspace/github.com/hdlabs-ro/sc_base/us-contracts/PairUsdtRont.sol\":11615:11649  0xFFFFFFFFFFFFFFFFFFFFFFFFFFFFFFFF */\n      0xffffffffffffffffffffffffffffffff\n        /* \"GoWorkspace/github.com/hdlabs-ro/sc_base/us-contracts/PairUsdtRont.sol\":11584:11593  allowance */\n      0x05\n        /* \"GoWorkspace/github.com/hdlabs-ro/sc_base/us-contracts/PairUsdtRont.sol\":11584:11599  allowance[from] */\n      0x00\n        /* \"GoWorkspace/github.com/hdlabs-ro/sc_base/us-contracts/PairUsdtRont.sol\":11594:11598  from */\n      dup7\n        /* \"GoWorkspace/github.com/hdlabs-ro/sc_base/us-contracts/PairUsdtRont.sol\":11584:11599  allowance[from] */\n      0xffffffffffffffffffffffffffffffffffffffff\n      and\n      0xffffffffffffffffffffffffffffffffffffffff\n      and\n      dup2\n      mstore\n      0x20\n      add\n      swap1\n      dup2\n      mstore\n      0x20\n      add\n      0x00\n      keccak256\n        /* \"GoWorkspace/github.com/hdlabs-ro/sc_base/us-contracts/PairUsdtRont.sol\":11584:11611  allowance[from][msg.sender] */\n      0x00\n        /* \"GoWorkspace/github.com/hdlabs-ro/sc_base/us-contracts/PairUsdtRont.sol\":11600:11610  msg.sender */\n      caller\n        /* \"GoWorkspace/github.com/hdlabs-ro/sc_base/us-contracts/PairUsdtRont.sol\":11584:11611  allowance[from][msg.sender] */\n      0xffffffffffffffffffffffffffffffffffffffff\n      and\n      0xffffffffffffffffffffffffffffffffffffffff\n      and\n      dup2\n      mstore\n      0x20\n      add\n      swap1\n      dup2\n      mstore\n      0x20\n      add\n      0x00\n      keccak256\n      sload\n        /* \"GoWorkspace/github.com/hdlabs-ro/sc_base/us-contracts/PairUsdtRont.sol\":11584:11649  allowance[from][msg.sender] != 0xFFFFFFFFFFFFFFFFFFFFFFFFFFFFFFFF */\n      eq\n        /* \"GoWorkspace/github.com/hdlabs-ro/sc_base/us-contracts/PairUsdtRont.sol\":11580:11741  if (allowance[from][msg.sender] != 0xFFFFFFFFFFFFFFFFFFFFFFFFFFFFFFFF) {... */\n      tag_195\n      jumpi\n        /* \"GoWorkspace/github.com/hdlabs-ro/sc_base/us-contracts/PairUsdtRont.sol\":11725:11730  value */\n      dup2\n        /* \"GoWorkspace/github.com/hdlabs-ro/sc_base/us-contracts/PairUsdtRont.sol\":11695:11704  allowance */\n      0x05\n        /* \"GoWorkspace/github.com/hdlabs-ro/sc_base/us-contracts/PairUsdtRont.sol\":11695:11710  allowance[from] */\n      0x00\n        /* \"GoWorkspace/github.com/hdlabs-ro/sc_base/us-contracts/PairUsdtRont.sol\":11705:11709  from */\n      dup7\n        /* \"GoWorkspace/github.com/hdlabs-ro/sc_base/us-contracts/PairUsdtRont.sol\":11695:11710  allowance[from] */\n      0xffffffffffffffffffffffffffffffffffffffff\n      and\n      0xffffffffffffffffffffffffffffffffffffffff\n      and\n      dup2\n      mstore\n      0x20\n      add\n      swap1\n      dup2\n      mstore\n      0x20\n      add\n      0x00\n      keccak256\n        /* \"GoWorkspace/github.com/hdlabs-ro/sc_base/us-contracts/PairUsdtRont.sol\":11695:11722  allowance[from][msg.sender] */\n      0x00\n        /* \"GoWorkspace/github.com/hdlabs-ro/sc_base/us-contracts/PairUsdtRont.sol\":11711:11721  msg.sender */\n      caller\n        /* \"GoWorkspace/github.com/hdlabs-ro/sc_base/us-contracts/PairUsdtRont.sol\":11695:11722  allowance[from][msg.sender] */\n      0xffffffffffffffffffffffffffffffffffffffff\n      and\n      0xffffffffffffffffffffffffffffffffffffffff\n      and\n      dup2\n      mstore\n      0x20\n      add\n      swap1\n      dup2\n      mstore\n      0x20\n      add\n      0x00\n      keccak256\n      sload\n        /* \"GoWorkspace/github.com/hdlabs-ro/sc_base/us-contracts/PairUsdtRont.sol\":11695:11730  allowance[from][msg.sender] - value */\n      tag_196\n      swap2\n      swap1\n      tag_161\n      jump\t// in\n    tag_196:\n        /* \"GoWorkspace/github.com/hdlabs-ro/sc_base/us-contracts/PairUsdtRont.sol\":11665:11674  allowance */\n      0x05\n        /* \"GoWorkspace/github.com/hdlabs-ro/sc_base/us-contracts/PairUsdtRont.sol\":11665:11680  allowance[from] */\n      0x00\n        /* \"GoWorkspace/github.com/hdlabs-ro/sc_base/us-contracts/PairUsdtRont.sol\":11675:11679  from */\n      dup7\n        /* \"GoWorkspace/github.com/hdlabs-ro/sc_base/us-contracts/PairUsdtRont.sol\":11665:11680  allowance[from] */\n      0xffffffffffffffffffffffffffffffffffffffff\n      and\n      0xffffffffffffffffffffffffffffffffffffffff\n      and\n      dup2\n      mstore\n      0x20\n      add\n      swap1\n      dup2\n      mstore\n      0x20\n      add\n      0x00\n      keccak256\n        /* \"GoWorkspace/github.com/hdlabs-ro/sc_base/us-contracts/PairUsdtRont.sol\":11665:11692  allowance[from][msg.sender] */\n      0x00\n        /* \"GoWorkspace/github.com/hdlabs-ro/sc_base/us-contracts/PairUsdtRont.sol\":11681:11691  msg.sender */\n      caller\n        /* \"GoWorkspace/github.com/hdlabs-ro/sc_base/us-contracts/PairUsdtRont.sol\":11665:11692  allowance[from][msg.sender] */\n      0xffffffffffffffffffffffffffffffffffffffff\n      and\n      0xffffffffffffffffffffffffffffffffffffffff\n      and\n      dup2\n      mstore\n      0x20\n      add\n      swap1\n      dup2\n      mstore\n      0x20\n      add\n      0x00\n      keccak256\n        /* \"GoWorkspace/github.com/hdlabs-ro/sc_base/us-contracts/PairUsdtRont.sol\":11665:11730  allowance[from][msg.sender] = allowance[from][msg.sender] - value */\n      dup2\n      swap1\n      sstore\n      pop\n        /* \"GoWorkspace/github.com/hdlabs-ro/sc_base/us-contracts/PairUsdtRont.sol\":11580:11741  if (allowance[from][msg.sender] != 0xFFFFFFFFFFFFFFFFFFFFFFFFFFFFFFFF) {... */\n    tag_195:\n        /* \"GoWorkspace/github.com/hdlabs-ro/sc_base/us-contracts/PairUsdtRont.sol\":11750:11776  _transfer(from, to, value) */\n      tag_197\n        /* \"GoWorkspace/github.com/hdlabs-ro/sc_base/us-contracts/PairUsdtRont.sol\":11760:11764  from */\n      dup5\n        /* \"GoWorkspace/github.com/hdlabs-ro/sc_base/us-contracts/PairUsdtRont.sol\":11766:11768  to */\n      dup5\n        /* \"GoWorkspace/github.com/hdlabs-ro/sc_base/us-contracts/PairUsdtRont.sol\":11770:11775  value */\n      dup5\n        /* \"GoWorkspace/github.com/hdlabs-ro/sc_base/us-contracts/PairUsdtRont.sol\":11750:11759  _transfer */\n      tag_198\n        /* \"GoWorkspace/github.com/hdlabs-ro/sc_base/us-contracts/PairUsdtRont.sol\":11750:11776  _transfer(from, to, value) */\n      jump\t// in\n    tag_197:\n        /* \"GoWorkspace/github.com/hdlabs-ro/sc_base/us-contracts/PairUsdtRont.sol\":11793:11797  true */\n      0x01\n        /* \"GoWorkspace/github.com/hdlabs-ro/sc_base/us-contracts/PairUsdtRont.sol\":11786:11797  return true */\n      swap1\n      pop\n        /* \"GoWorkspace/github.com/hdlabs-ro/sc_base/us-contracts/PairUsdtRont.sol\":11453:11804  function transferFrom(... */\n      swap4\n      swap3\n      pop\n      pop\n      pop\n      jump\t// out\n        /* \"GoWorkspace/github.com/hdlabs-ro/sc_base/us-contracts/PairUsdtRont.sol\":791:907  bytes32 public constant PERMIT_TYPEHASH =... */\n    tag_64:\n        /* \"GoWorkspace/github.com/hdlabs-ro/sc_base/us-contracts/PairUsdtRont.sol\":841:907  0x6e71edae12b1b97f4d1f60370fef10105fa2faae0126114a169c64845d6126c9 */\n      0x6e71edae12b1b97f4d1f60370fef10105fa2faae0126114a169c64845d6126c9\n        /* \"GoWorkspace/github.com/hdlabs-ro/sc_base/us-contracts/PairUsdtRont.sol\":791:907  bytes32 public constant PERMIT_TYPEHASH =... */\n      0x00\n      shl\n      dup2\n      jump\t// out\n        /* \"GoWorkspace/github.com/hdlabs-ro/sc_base/us-contracts/PairUsdtRont.sol\":457:492  uint8 public constant decimals = 18 */\n    tag_68:\n        /* \"GoWorkspace/github.com/hdlabs-ro/sc_base/us-contracts/PairUsdtRont.sol\":490:492  18 */\n      0x12\n        /* \"GoWorkspace/github.com/hdlabs-ro/sc_base/us-contracts/PairUsdtRont.sol\":457:492  uint8 public constant decimals = 18 */\n      dup2\n      jump\t// out\n        /* \"GoWorkspace/github.com/hdlabs-ro/sc_base/us-contracts/PairUsdtRont.sol\":650:681  bytes32 public DOMAIN_SEPARATOR */\n    tag_72:\n      sload(0x06)\n      dup2\n      jump\t// out\n        /* \"GoWorkspace/github.com/hdlabs-ro/sc_base/us-contracts/PairUsdtRont.sol\":1396:1431  uint256 public price0CumulativeLast */\n    tag_75:\n      sload(0x09)\n      dup2\n      jump\t// out\n        /* \"GoWorkspace/github.com/hdlabs-ro/sc_base/us-contracts/PairUsdtRont.sol\":1437:1472  uint256 public price1CumulativeLast */\n    tag_78:\n      sload(0x0a)\n      dup2\n      jump\t// out\n        /* \"GoWorkspace/github.com/hdlabs-ro/sc_base/us-contracts/PairUsdtRont.sol\":2655:3866  function mint(address to) external lock returns (uint256 liquidity) {... */\n    tag_83:\n        /* \"GoWorkspace/github.com/hdlabs-ro/sc_base/us-contracts/PairUsdtRont.sol\":2704:2721  uint256 liquidity */\n      0x00\n        /* \"GoWorkspace/github.com/hdlabs-ro/sc_base/us-contracts/PairUsdtRont.sol\":1665:1666  1 */\n      0x01\n        /* \"GoWorkspace/github.com/hdlabs-ro/sc_base/us-contracts/PairUsdtRont.sol\":1653:1661  unlocked */\n      sload(0x0c)\n        /* \"GoWorkspace/github.com/hdlabs-ro/sc_base/us-contracts/PairUsdtRont.sol\":1653:1666  unlocked == 1 */\n      eq\n        /* \"GoWorkspace/github.com/hdlabs-ro/sc_base/us-contracts/PairUsdtRont.sol\":1645:1691  require(unlocked == 1, \"PairUsdtRont: LOCKED\") */\n      tag_200\n      jumpi\n      mload(0x40)\n      0x08c379a000000000000000000000000000000000000000000000000000000000\n      dup2\n      mstore\n      0x04\n      add\n      tag_201\n      swap1\n      tag_131\n      jump\t// in\n    tag_201:\n      mload(0x40)\n      dup1\n      swap2\n      sub\n      swap1\n      revert\n    tag_200:\n        /* \"GoWorkspace/github.com/hdlabs-ro/sc_base/us-contracts/PairUsdtRont.sol\":1712:1713  0 */\n      0x00\n        /* \"GoWorkspace/github.com/hdlabs-ro/sc_base/us-contracts/PairUsdtRont.sol\":1701:1709  unlocked */\n      0x0c\n        /* \"GoWorkspace/github.com/hdlabs-ro/sc_base/us-contracts/PairUsdtRont.sol\":1701:1713  unlocked = 0 */\n      dup2\n      swap1\n      sstore\n      pop\n        /* \"GoWorkspace/github.com/hdlabs-ro/sc_base/us-contracts/PairUsdtRont.sol\":2734:2751  uint112 _reserve0 */\n      0x00\n        /* \"GoWorkspace/github.com/hdlabs-ro/sc_base/us-contracts/PairUsdtRont.sol\":2753:2770  uint112 _reserve1 */\n      dup1\n        /* \"GoWorkspace/github.com/hdlabs-ro/sc_base/us-contracts/PairUsdtRont.sol\":2776:2789  getReserves() */\n      tag_203\n        /* \"GoWorkspace/github.com/hdlabs-ro/sc_base/us-contracts/PairUsdtRont.sol\":2776:2787  getReserves */\n      tag_41\n        /* \"GoWorkspace/github.com/hdlabs-ro/sc_base/us-contracts/PairUsdtRont.sol\":2776:2789  getReserves() */\n      jump\t// in\n    tag_203:\n        /* \"GoWorkspace/github.com/hdlabs-ro/sc_base/us-contracts/PairUsdtRont.sol\":2733:2789  (uint112 _reserve0, uint112 _reserve1, ) = getReserves() */\n      pop\n      swap2\n      pop\n      swap2\n      pop\n        /* \"GoWorkspace/github.com/hdlabs-ro/sc_base/us-contracts/PairUsdtRont.sol\":2814:2830  uint256 balance0 */\n      0x00\n        /* \"GoWorkspace/github.com/hdlabs-ro/sc_base/us-contracts/PairUsdtRont.sol\":2838:2844  token0 */\n      0x01\n      0x00\n      swap1\n      sload\n      swap1\n      0x0100\n      exp\n      swap1\n      div\n      0xffffffffffffffffffffffffffffffffffffffff\n      and\n        /* \"GoWorkspace/github.com/hdlabs-ro/sc_base/us-contracts/PairUsdtRont.sol\":2833:2855  IERC(token0).balanceOf */\n      0xffffffffffffffffffffffffffffffffffffffff\n      and\n      0x70a08231\n        /* \"GoWorkspace/github.com/hdlabs-ro/sc_base/us-contracts/PairUsdtRont.sol\":2864:2868  this */\n      address\n        /* \"GoWorkspace/github.com/hdlabs-ro/sc_base/us-contracts/PairUsdtRont.sol\":2833:2870  IERC(token0).balanceOf(address(this)) */\n      mload(0x40)\n      dup3\n      0xffffffff\n      and\n      0xe0\n      shl\n      dup2\n      mstore\n      0x04\n      add\n      tag_204\n      swap2\n      swap1\n      tag_53\n      jump\t// in\n    tag_204:\n      0x20\n      mload(0x40)\n      dup1\n      dup4\n      sub\n      dup2\n      dup7\n      gas\n      staticcall\n      iszero\n      dup1\n      iszero\n      tag_206\n      jumpi\n      returndatasize\n      0x00\n      dup1\n      returndatacopy\n      revert(0x00, returndatasize)\n    tag_206:\n      pop\n      pop\n      pop\n      pop\n      mload(0x40)\n      returndatasize\n      not(0x1f)\n      0x1f\n      dup3\n      add\n      and\n      dup3\n      add\n      dup1\n      0x40\n      mstore\n      pop\n      dup2\n      add\n      swap1\n      tag_207\n      swap2\n      swap1\n      tag_155\n      jump\t// in\n    tag_207:\n        /* \"GoWorkspace/github.com/hdlabs-ro/sc_base/us-contracts/PairUsdtRont.sol\":2814:2870  uint256 balance0 = IERC(token0).balanceOf(address(this)) */\n      swap1\n      pop\n        /* \"GoWorkspace/github.com/hdlabs-ro/sc_base/us-contracts/PairUsdtRont.sol\":2880:2896  uint256 balance1 */\n      0x00\n        /* \"GoWorkspace/github.com/hdlabs-ro/sc_base/us-contracts/PairUsdtRont.sol\":2904:2910  token1 */\n      0x02\n      0x00\n      swap1\n      sload\n      swap1\n      0x0100\n      exp\n      swap1\n      div\n      0xffffffffffffffffffffffffffffffffffffffff\n      and\n        /* \"GoWorkspace/github.com/hdlabs-ro/sc_base/us-contracts/PairUsdtRont.sol\":2899:2921  IERC(token1).balanceOf */\n      0xffffffffffffffffffffffffffffffffffffffff\n      and\n      0x70a08231\n        /* \"GoWorkspace/github.com/hdlabs-ro/sc_base/us-contracts/PairUsdtRont.sol\":2930:2934  this */\n      address\n        /* \"GoWorkspace/github.com/hdlabs-ro/sc_base/us-contracts/PairUsdtRont.sol\":2899:2936  IERC(token1).balanceOf(address(this)) */\n      mload(0x40)\n      dup3\n      0xffffffff\n      and\n      0xe0\n      shl\n      dup2\n      mstore\n      0x04\n      add\n      tag_208\n      swap2\n      swap1\n      tag_53\n      jump\t// in\n    tag_208:\n      0x20\n      mload(0x40)\n      dup1\n      dup4\n      sub\n      dup2\n      dup7\n      gas\n      staticcall\n      iszero\n      dup1\n      iszero\n      tag_210\n      jumpi\n      returndatasize\n      0x00\n      dup1\n      returndatacopy\n      revert(0x00, returndatasize)\n    tag_210:\n      pop\n      pop\n      pop\n      pop\n      mload(0x40)\n      returndatasize\n      not(0x1f)\n      0x1f\n      dup3\n      add\n      and\n      dup3\n      add\n      dup1\n      0x40\n      mstore\n      pop\n      dup2\n      add\n      swap1\n      tag_211\n      swap2\n      swap1\n      tag_155\n      jump\t// in\n    tag_211:\n        /* \"GoWorkspace/github.com/hdlabs-ro/sc_base/us-contracts/PairUsdtRont.sol\":2880:2936  uint256 balance1 = IERC(token1).balanceOf(address(this)) */\n      swap1\n      pop\n        /* \"GoWorkspace/github.com/hdlabs-ro/sc_base/us-contracts/PairUsdtRont.sol\":2946:2961  uint256 amount0 */\n      0x00\n        /* \"GoWorkspace/github.com/hdlabs-ro/sc_base/us-contracts/PairUsdtRont.sol\":2975:2984  _reserve0 */\n      dup5\n        /* \"GoWorkspace/github.com/hdlabs-ro/sc_base/us-contracts/PairUsdtRont.sol\":2964:2984  balance0 - _reserve0 */\n      0xffffffffffffffffffffffffffff\n      and\n        /* \"GoWorkspace/github.com/hdlabs-ro/sc_base/us-contracts/PairUsdtRont.sol\":2964:2972  balance0 */\n      dup4\n        /* \"GoWorkspace/github.com/hdlabs-ro/sc_base/us-contracts/PairUsdtRont.sol\":2964:2984  balance0 - _reserve0 */\n      tag_212\n      swap2\n      swap1\n      tag_161\n      jump\t// in\n    tag_212:\n        /* \"GoWorkspace/github.com/hdlabs-ro/sc_base/us-contracts/PairUsdtRont.sol\":2946:2984  uint256 amount0 = balance0 - _reserve0 */\n      swap1\n      pop\n        /* \"GoWorkspace/github.com/hdlabs-ro/sc_base/us-contracts/PairUsdtRont.sol\":2994:3009  uint256 amount1 */\n      0x00\n        /* \"GoWorkspace/github.com/hdlabs-ro/sc_base/us-contracts/PairUsdtRont.sol\":3023:3032  _reserve1 */\n      dup5\n        /* \"GoWorkspace/github.com/hdlabs-ro/sc_base/us-contracts/PairUsdtRont.sol\":3012:3032  balance1 - _reserve1 */\n      0xffffffffffffffffffffffffffff\n      and\n        /* \"GoWorkspace/github.com/hdlabs-ro/sc_base/us-contracts/PairUsdtRont.sol\":3012:3020  balance1 */\n      dup4\n        /* \"GoWorkspace/github.com/hdlabs-ro/sc_base/us-contracts/PairUsdtRont.sol\":3012:3032  balance1 - _reserve1 */\n      tag_213\n      swap2\n      swap1\n      tag_161\n      jump\t// in\n    tag_213:\n        /* \"GoWorkspace/github.com/hdlabs-ro/sc_base/us-contracts/PairUsdtRont.sol\":2994:3032  uint256 amount1 = balance1 - _reserve1 */\n      swap1\n      pop\n        /* \"GoWorkspace/github.com/hdlabs-ro/sc_base/us-contracts/PairUsdtRont.sol\":3043:3053  bool feeOn */\n      0x00\n        /* \"GoWorkspace/github.com/hdlabs-ro/sc_base/us-contracts/PairUsdtRont.sol\":3056:3086  _mintFee(_reserve0, _reserve1) */\n      tag_214\n        /* \"GoWorkspace/github.com/hdlabs-ro/sc_base/us-contracts/PairUsdtRont.sol\":3065:3074  _reserve0 */\n      dup8\n        /* \"GoWorkspace/github.com/hdlabs-ro/sc_base/us-contracts/PairUsdtRont.sol\":3076:3085  _reserve1 */\n      dup8\n        /* \"GoWorkspace/github.com/hdlabs-ro/sc_base/us-contracts/PairUsdtRont.sol\":3056:3064  _mintFee */\n      tag_215\n        /* \"GoWorkspace/github.com/hdlabs-ro/sc_base/us-contracts/PairUsdtRont.sol\":3056:3086  _mintFee(_reserve0, _reserve1) */\n      jump\t// in\n    tag_214:\n        /* \"GoWorkspace/github.com/hdlabs-ro/sc_base/us-contracts/PairUsdtRont.sol\":3043:3086  bool feeOn = _mintFee(_reserve0, _reserve1) */\n      swap1\n      pop\n        /* \"GoWorkspace/github.com/hdlabs-ro/sc_base/us-contracts/PairUsdtRont.sol\":3096:3116  uint256 _totalSupply */\n      0x00\n        /* \"GoWorkspace/github.com/hdlabs-ro/sc_base/us-contracts/PairUsdtRont.sol\":3119:3130  totalSupply */\n      sload(0x03)\n        /* \"GoWorkspace/github.com/hdlabs-ro/sc_base/us-contracts/PairUsdtRont.sol\":3096:3130  uint256 _totalSupply = totalSupply */\n      swap1\n      pop\n        /* \"GoWorkspace/github.com/hdlabs-ro/sc_base/us-contracts/PairUsdtRont.sol\":3238:3239  0 */\n      0x00\n        /* \"GoWorkspace/github.com/hdlabs-ro/sc_base/us-contracts/PairUsdtRont.sol\":3222:3234  _totalSupply */\n      dup2\n        /* \"GoWorkspace/github.com/hdlabs-ro/sc_base/us-contracts/PairUsdtRont.sol\":3222:3239  _totalSupply == 0 */\n      sub\n        /* \"GoWorkspace/github.com/hdlabs-ro/sc_base/us-contracts/PairUsdtRont.sol\":3218:3594  if (_totalSupply == 0) {... */\n      tag_216\n      jumpi\n        /* \"GoWorkspace/github.com/hdlabs-ro/sc_base/us-contracts/PairUsdtRont.sol\":1018:1019  1 */\n      0x01\n        /* \"GoWorkspace/github.com/hdlabs-ro/sc_base/us-contracts/PairUsdtRont.sol\":3267:3290  sqrt(amount0 * amount1) */\n      tag_217\n        /* \"GoWorkspace/github.com/hdlabs-ro/sc_base/us-contracts/PairUsdtRont.sol\":3282:3289  amount1 */\n      dup5\n        /* \"GoWorkspace/github.com/hdlabs-ro/sc_base/us-contracts/PairUsdtRont.sol\":3272:3279  amount0 */\n      dup7\n        /* \"GoWorkspace/github.com/hdlabs-ro/sc_base/us-contracts/PairUsdtRont.sol\":3272:3289  amount0 * amount1 */\n      tag_218\n      swap2\n      swap1\n      tag_176\n      jump\t// in\n    tag_218:\n        /* \"GoWorkspace/github.com/hdlabs-ro/sc_base/us-contracts/PairUsdtRont.sol\":3267:3271  sqrt */\n      tag_219\n        /* \"GoWorkspace/github.com/hdlabs-ro/sc_base/us-contracts/PairUsdtRont.sol\":3267:3290  sqrt(amount0 * amount1) */\n      jump\t// in\n    tag_217:\n        /* \"GoWorkspace/github.com/hdlabs-ro/sc_base/us-contracts/PairUsdtRont.sol\":3267:3310  sqrt(amount0 * amount1) - MINIMUM_LIQUIDITY */\n      tag_220\n      swap2\n      swap1\n      tag_161\n      jump\t// in\n    tag_220:\n        /* \"GoWorkspace/github.com/hdlabs-ro/sc_base/us-contracts/PairUsdtRont.sol\":3255:3310  liquidity = sqrt(amount0 * amount1) - MINIMUM_LIQUIDITY */\n      swap9\n      pop\n        /* \"GoWorkspace/github.com/hdlabs-ro/sc_base/us-contracts/PairUsdtRont.sol\":3324:3360  _mint(address(0), MINIMUM_LIQUIDITY) */\n      tag_221\n        /* \"GoWorkspace/github.com/hdlabs-ro/sc_base/us-contracts/PairUsdtRont.sol\":3338:3339  0 */\n      0x00\n        /* \"GoWorkspace/github.com/hdlabs-ro/sc_base/us-contracts/PairUsdtRont.sol\":1018:1019  1 */\n      0x01\n        /* \"GoWorkspace/github.com/hdlabs-ro/sc_base/us-contracts/PairUsdtRont.sol\":3324:3329  _mint */\n      tag_222\n        /* \"GoWorkspace/github.com/hdlabs-ro/sc_base/us-contracts/PairUsdtRont.sol\":3324:3360  _mint(address(0), MINIMUM_LIQUIDITY) */\n      jump\t// in\n    tag_221:\n        /* \"GoWorkspace/github.com/hdlabs-ro/sc_base/us-contracts/PairUsdtRont.sol\":3218:3594  if (_totalSupply == 0) {... */\n      jump(tag_223)\n    tag_216:\n        /* \"GoWorkspace/github.com/hdlabs-ro/sc_base/us-contracts/PairUsdtRont.sol\":3458:3583  min(... */\n      tag_224\n        /* \"GoWorkspace/github.com/hdlabs-ro/sc_base/us-contracts/PairUsdtRont.sol\":3506:3515  _reserve0 */\n      dup9\n        /* \"GoWorkspace/github.com/hdlabs-ro/sc_base/us-contracts/PairUsdtRont.sol\":3479:3515  (amount0 * _totalSupply) / _reserve0 */\n      0xffffffffffffffffffffffffffff\n      and\n        /* \"GoWorkspace/github.com/hdlabs-ro/sc_base/us-contracts/PairUsdtRont.sol\":3490:3502  _totalSupply */\n      dup3\n        /* \"GoWorkspace/github.com/hdlabs-ro/sc_base/us-contracts/PairUsdtRont.sol\":3480:3487  amount0 */\n      dup7\n        /* \"GoWorkspace/github.com/hdlabs-ro/sc_base/us-contracts/PairUsdtRont.sol\":3480:3502  amount0 * _totalSupply */\n      tag_225\n      swap2\n      swap1\n      tag_176\n      jump\t// in\n    tag_225:\n        /* \"GoWorkspace/github.com/hdlabs-ro/sc_base/us-contracts/PairUsdtRont.sol\":3479:3515  (amount0 * _totalSupply) / _reserve0 */\n      tag_226\n      swap2\n      swap1\n      tag_227\n      jump\t// in\n    tag_226:\n        /* \"GoWorkspace/github.com/hdlabs-ro/sc_base/us-contracts/PairUsdtRont.sol\":3560:3569  _reserve1 */\n      dup9\n        /* \"GoWorkspace/github.com/hdlabs-ro/sc_base/us-contracts/PairUsdtRont.sol\":3533:3569  (amount1 * _totalSupply) / _reserve1 */\n      0xffffffffffffffffffffffffffff\n      and\n        /* \"GoWorkspace/github.com/hdlabs-ro/sc_base/us-contracts/PairUsdtRont.sol\":3544:3556  _totalSupply */\n      dup4\n        /* \"GoWorkspace/github.com/hdlabs-ro/sc_base/us-contracts/PairUsdtRont.sol\":3534:3541  amount1 */\n      dup7\n        /* \"GoWorkspace/github.com/hdlabs-ro/sc_base/us-contracts/PairUsdtRont.sol\":3534:3556  amount1 * _totalSupply */\n      tag_228\n      swap2\n      swap1\n      tag_176\n      jump\t// in\n    tag_228:\n        /* \"GoWorkspace/github.com/hdlabs-ro/sc_base/us-contracts/PairUsdtRont.sol\":3533:3569  (amount1 * _totalSupply) / _reserve1 */\n      tag_229\n      swap2\n      swap1\n      tag_227\n      jump\t// in\n    tag_229:\n        /* \"GoWorkspace/github.com/hdlabs-ro/sc_base/us-contracts/PairUsdtRont.sol\":3458:3461  min */\n      tag_230\n        /* \"GoWorkspace/github.com/hdlabs-ro/sc_base/us-contracts/PairUsdtRont.sol\":3458:3583  min(... */\n      jump\t// in\n    tag_224:\n        /* \"GoWorkspace/github.com/hdlabs-ro/sc_base/us-contracts/PairUsdtRont.sol\":3446:3583  liquidity = min(... */\n      swap9\n      pop\n        /* \"GoWorkspace/github.com/hdlabs-ro/sc_base/us-contracts/PairUsdtRont.sol\":3218:3594  if (_totalSupply == 0) {... */\n    tag_223:\n        /* \"GoWorkspace/github.com/hdlabs-ro/sc_base/us-contracts/PairUsdtRont.sol\":3623:3624  0 */\n      0x00\n        /* \"GoWorkspace/github.com/hdlabs-ro/sc_base/us-contracts/PairUsdtRont.sol\":3611:3620  liquidity */\n      dup10\n        /* \"GoWorkspace/github.com/hdlabs-ro/sc_base/us-contracts/PairUsdtRont.sol\":3611:3624  liquidity > 0 */\n      gt\n        /* \"GoWorkspace/github.com/hdlabs-ro/sc_base/us-contracts/PairUsdtRont.sol\":3603:3672  require(liquidity > 0, \"PairUsdtRont: INSUFFICIENT_LIQUIDITY_MINTED\") */\n      tag_231\n      jumpi\n      mload(0x40)\n      0x08c379a000000000000000000000000000000000000000000000000000000000\n      dup2\n      mstore\n      0x04\n      add\n      tag_232\n      swap1\n      tag_233\n      jump\t// in\n    tag_232:\n      mload(0x40)\n      dup1\n      swap2\n      sub\n      swap1\n      revert\n    tag_231:\n        /* \"GoWorkspace/github.com/hdlabs-ro/sc_base/us-contracts/PairUsdtRont.sol\":3682:3702  _mint(to, liquidity) */\n      tag_234\n        /* \"GoWorkspace/github.com/hdlabs-ro/sc_base/us-contracts/PairUsdtRont.sol\":3688:3690  to */\n      dup11\n        /* \"GoWorkspace/github.com/hdlabs-ro/sc_base/us-contracts/PairUsdtRont.sol\":3692:3701  liquidity */\n      dup11\n        /* \"GoWorkspace/github.com/hdlabs-ro/sc_base/us-contracts/PairUsdtRont.sol\":3682:3687  _mint */\n      tag_222\n        /* \"GoWorkspace/github.com/hdlabs-ro/sc_base/us-contracts/PairUsdtRont.sol\":3682:3702  _mint(to, liquidity) */\n      jump\t// in\n    tag_234:\n        /* \"GoWorkspace/github.com/hdlabs-ro/sc_base/us-contracts/PairUsdtRont.sol\":3713:3762  _update(balance0, balance1, _reserve0, _reserve1) */\n      tag_235\n        /* \"GoWorkspace/github.com/hdlabs-ro/sc_base/us-contracts/PairUsdtRont.sol\":3721:3729  balance0 */\n      dup7\n        /* \"GoWorkspace/github.com/hdlabs-ro/sc_base/us-contracts/PairUsdtRont.sol\":3731:3739  balance1 */\n      dup7\n        /* \"GoWorkspace/github.com/hdlabs-ro/sc_base/us-contracts/PairUsdtRont.sol\":3741:3750  _reserve0 */\n      dup11\n        /* \"GoWorkspace/github.com/hdlabs-ro/sc_base/us-contracts/PairUsdtRont.sol\":3752:3761  _reserve1 */\n      dup11\n        /* \"GoWorkspace/github.com/hdlabs-ro/sc_base/us-contracts/PairUsdtRont.sol\":3713:3720  _update */\n      tag_189\n        /* \"GoWorkspace/github.com/hdlabs-ro/sc_base/us-contracts/PairUsdtRont.sol\":3713:3762  _update(balance0, balance1, _reserve0, _reserve1) */\n      jump\t// in\n    tag_235:\n        /* \"GoWorkspace/github.com/hdlabs-ro/sc_base/us-contracts/PairUsdtRont.sol\":3776:3781  feeOn */\n      dup2\n        /* \"GoWorkspace/github.com/hdlabs-ro/sc_base/us-contracts/PairUsdtRont.sol\":3772:3819  if (feeOn) kLast = uint256(reserve0) * reserve1 */\n      iszero\n      tag_236\n      jumpi\n        /* \"GoWorkspace/github.com/hdlabs-ro/sc_base/us-contracts/PairUsdtRont.sol\":3811:3819  reserve1 */\n      0x08\n      0x0e\n      swap1\n      sload\n      swap1\n      0x0100\n      exp\n      swap1\n      div\n      0xffffffffffffffffffffffffffff\n      and\n        /* \"GoWorkspace/github.com/hdlabs-ro/sc_base/us-contracts/PairUsdtRont.sol\":3791:3819  uint256(reserve0) * reserve1 */\n      0xffffffffffffffffffffffffffff\n      and\n        /* \"GoWorkspace/github.com/hdlabs-ro/sc_base/us-contracts/PairUsdtRont.sol\":3799:3807  reserve0 */\n      0x08\n      0x00\n      swap1\n      sload\n      swap1\n      0x0100\n      exp\n      swap1\n      div\n      0xffffffffffffffffffffffffffff\n      and\n        /* \"GoWorkspace/github.com/hdlabs-ro/sc_base/us-contracts/PairUsdtRont.sol\":3791:3808  uint256(reserve0) */\n      0xffffffffffffffffffffffffffff\n      and\n        /* \"GoWorkspace/github.com/hdlabs-ro/sc_base/us-contracts/PairUsdtRont.sol\":3791:3819  uint256(reserve0) * reserve1 */\n      tag_237\n      swap2\n      swap1\n      tag_176\n      jump\t// in\n    tag_237:\n        /* \"GoWorkspace/github.com/hdlabs-ro/sc_base/us-contracts/PairUsdtRont.sol\":3783:3788  kLast */\n      0x0b\n        /* \"GoWorkspace/github.com/hdlabs-ro/sc_base/us-contracts/PairUsdtRont.sol\":3783:3819  kLast = uint256(reserve0) * reserve1 */\n      dup2\n      swap1\n      sstore\n      pop\n        /* \"GoWorkspace/github.com/hdlabs-ro/sc_base/us-contracts/PairUsdtRont.sol\":3772:3819  if (feeOn) kLast = uint256(reserve0) * reserve1 */\n    tag_236:\n        /* \"GoWorkspace/github.com/hdlabs-ro/sc_base/us-contracts/PairUsdtRont.sol\":2723:3866  {... */\n      pop\n      pop\n      pop\n      pop\n      pop\n      pop\n      pop\n      pop\n        /* \"GoWorkspace/github.com/hdlabs-ro/sc_base/us-contracts/PairUsdtRont.sol\":1745:1746  1 */\n      0x01\n        /* \"GoWorkspace/github.com/hdlabs-ro/sc_base/us-contracts/PairUsdtRont.sol\":1734:1742  unlocked */\n      0x0c\n        /* \"GoWorkspace/github.com/hdlabs-ro/sc_base/us-contracts/PairUsdtRont.sol\":1734:1746  unlocked = 1 */\n      dup2\n      swap1\n      sstore\n      pop\n        /* \"GoWorkspace/github.com/hdlabs-ro/sc_base/us-contracts/PairUsdtRont.sol\":2655:3866  function mint(address to) external lock returns (uint256 liquidity) {... */\n      swap2\n      swap1\n      pop\n      jump\t// out\n        /* \"GoWorkspace/github.com/hdlabs-ro/sc_base/us-contracts/PairUsdtRont.sol\":530:574  mapping(address => uint256) public balanceOf */\n    tag_87:\n      mstore(0x20, 0x04)\n      dup1\n      0x00\n      mstore\n      keccak256(0x00, 0x40)\n      0x00\n      swap2\n      pop\n      swap1\n      pop\n      sload\n      dup2\n      jump\t// out\n        /* \"GoWorkspace/github.com/hdlabs-ro/sc_base/us-contracts/PairUsdtRont.sol\":1478:1498  uint256 public kLast */\n    tag_90:\n      sload(0x0b)\n      dup2\n      jump\t// out\n        /* \"GoWorkspace/github.com/hdlabs-ro/sc_base/us-contracts/PairUsdtRont.sol\":913:954  mapping(address => uint256) public nonces */\n    tag_94:\n      mstore(0x20, 0x07)\n      dup1\n      0x00\n      mstore\n      keccak256(0x00, 0x40)\n      0x00\n      swap2\n      pop\n      swap1\n      pop\n      sload\n      dup2\n      jump\t// out\n        /* \"GoWorkspace/github.com/hdlabs-ro/sc_base/us-contracts/PairUsdtRont.sol\":3975:5378  function burn(address to)... */\n    tag_98:\n        /* \"GoWorkspace/github.com/hdlabs-ro/sc_base/us-contracts/PairUsdtRont.sol\":4048:4063  uint256 amount0 */\n      0x00\n        /* \"GoWorkspace/github.com/hdlabs-ro/sc_base/us-contracts/PairUsdtRont.sol\":4065:4080  uint256 amount1 */\n      dup1\n        /* \"GoWorkspace/github.com/hdlabs-ro/sc_base/us-contracts/PairUsdtRont.sol\":1665:1666  1 */\n      0x01\n        /* \"GoWorkspace/github.com/hdlabs-ro/sc_base/us-contracts/PairUsdtRont.sol\":1653:1661  unlocked */\n      sload(0x0c)\n        /* \"GoWorkspace/github.com/hdlabs-ro/sc_base/us-contracts/PairUsdtRont.sol\":1653:1666  unlocked == 1 */\n      eq\n        /* \"GoWorkspace/github.com/hdlabs-ro/sc_base/us-contracts/PairUsdtRont.sol\":1645:1691  require(unlocked == 1, \"PairUsdtRont: LOCKED\") */\n      tag_239\n      jumpi\n      mload(0x40)\n      0x08c379a000000000000000000000000000000000000000000000000000000000\n      dup2\n      mstore\n      0x04\n      add\n      tag_240\n      swap1\n      tag_131\n      jump\t// in\n    tag_240:\n      mload(0x40)\n      dup1\n      swap2\n      sub\n      swap1\n      revert\n    tag_239:\n        /* \"GoWorkspace/github.com/hdlabs-ro/sc_base/us-contracts/PairUsdtRont.sol\":1712:1713  0 */\n      0x00\n        /* \"GoWorkspace/github.com/hdlabs-ro/sc_base/us-contracts/PairUsdtRont.sol\":1701:1709  unlocked */\n      0x0c\n        /* \"GoWorkspace/github.com/hdlabs-ro/sc_base/us-contracts/PairUsdtRont.sol\":1701:1713  unlocked = 0 */\n      dup2\n      swap1\n      sstore\n      pop\n        /* \"GoWorkspace/github.com/hdlabs-ro/sc_base/us-contracts/PairUsdtRont.sol\":4097:4114  uint112 _reserve0 */\n      0x00\n        /* \"GoWorkspace/github.com/hdlabs-ro/sc_base/us-contracts/PairUsdtRont.sol\":4116:4133  uint112 _reserve1 */\n      dup1\n        /* \"GoWorkspace/github.com/hdlabs-ro/sc_base/us-contracts/PairUsdtRont.sol\":4139:4152  getReserves() */\n      tag_242\n        /* \"GoWorkspace/github.com/hdlabs-ro/sc_base/us-contracts/PairUsdtRont.sol\":4139:4150  getReserves */\n      tag_41\n        /* \"GoWorkspace/github.com/hdlabs-ro/sc_base/us-contracts/PairUsdtRont.sol\":4139:4152  getReserves() */\n      jump\t// in\n    tag_242:\n        /* \"GoWorkspace/github.com/hdlabs-ro/sc_base/us-contracts/PairUsdtRont.sol\":4096:4152  (uint112 _reserve0, uint112 _reserve1, ) = getReserves() */\n      pop\n      swap2\n      pop\n      swap2\n      pop\n        /* \"GoWorkspace/github.com/hdlabs-ro/sc_base/us-contracts/PairUsdtRont.sol\":4177:4192  address _token0 */\n      0x00\n        /* \"GoWorkspace/github.com/hdlabs-ro/sc_base/us-contracts/PairUsdtRont.sol\":4195:4201  token0 */\n      0x01\n      0x00\n      swap1\n      sload\n      swap1\n      0x0100\n      exp\n      swap1\n      div\n      0xffffffffffffffffffffffffffffffffffffffff\n      and\n        /* \"GoWorkspace/github.com/hdlabs-ro/sc_base/us-contracts/PairUsdtRont.sol\":4177:4201  address _token0 = token0 */\n      swap1\n      pop\n        /* \"GoWorkspace/github.com/hdlabs-ro/sc_base/us-contracts/PairUsdtRont.sol\":4226:4241  address _token1 */\n      0x00\n        /* \"GoWorkspace/github.com/hdlabs-ro/sc_base/us-contracts/PairUsdtRont.sol\":4244:4250  token1 */\n      0x02\n      0x00\n      swap1\n      sload\n      swap1\n      0x0100\n      exp\n      swap1\n      div\n      0xffffffffffffffffffffffffffffffffffffffff\n      and\n        /* \"GoWorkspace/github.com/hdlabs-ro/sc_base/us-contracts/PairUsdtRont.sol\":4226:4250  address _token1 = token1 */\n      swap1\n      pop\n        /* \"GoWorkspace/github.com/hdlabs-ro/sc_base/us-contracts/PairUsdtRont.sol\":4275:4291  uint256 balance0 */\n      0x00\n        /* \"GoWorkspace/github.com/hdlabs-ro/sc_base/us-contracts/PairUsdtRont.sol\":4299:4306  _token0 */\n      dup3\n        /* \"GoWorkspace/github.com/hdlabs-ro/sc_base/us-contracts/PairUsdtRont.sol\":4294:4317  IERC(_token0).balanceOf */\n      0xffffffffffffffffffffffffffffffffffffffff\n      and\n      0x70a08231\n        /* \"GoWorkspace/github.com/hdlabs-ro/sc_base/us-contracts/PairUsdtRont.sol\":4326:4330  this */\n      address\n        /* \"GoWorkspace/github.com/hdlabs-ro/sc_base/us-contracts/PairUsdtRont.sol\":4294:4332  IERC(_token0).balanceOf(address(this)) */\n      mload(0x40)\n      dup3\n      0xffffffff\n      and\n      0xe0\n      shl\n      dup2\n      mstore\n      0x04\n      add\n      tag_243\n      swap2\n      swap1\n      tag_53\n      jump\t// in\n    tag_243:\n      0x20\n      mload(0x40)\n      dup1\n      dup4\n      sub\n      dup2\n      dup7\n      gas\n      staticcall\n      iszero\n      dup1\n      iszero\n      tag_245\n      jumpi\n      returndatasize\n      0x00\n      dup1\n      returndatacopy\n      revert(0x00, returndatasize)\n    tag_245:\n      pop\n      pop\n      pop\n      pop\n      mload(0x40)\n      returndatasize\n      not(0x1f)\n      0x1f\n      dup3\n      add\n      and\n      dup3\n      add\n      dup1\n      0x40\n      mstore\n      pop\n      dup2\n      add\n      swap1\n      tag_246\n      swap2\n      swap1\n      tag_155\n      jump\t// in\n    tag_246:\n        /* \"GoWorkspace/github.com/hdlabs-ro/sc_base/us-contracts/PairUsdtRont.sol\":4275:4332  uint256 balance0 = IERC(_token0).balanceOf(address(this)) */\n      swap1\n      pop\n        /* \"GoWorkspace/github.com/hdlabs-ro/sc_base/us-contracts/PairUsdtRont.sol\":4342:4358  uint256 balance1 */\n      0x00\n        /* \"GoWorkspace/github.com/hdlabs-ro/sc_base/us-contracts/PairUsdtRont.sol\":4366:4373  _token1 */\n      dup3\n        /* \"GoWorkspace/github.com/hdlabs-ro/sc_base/us-contracts/PairUsdtRont.sol\":4361:4384  IERC(_token1).balanceOf */\n      0xffffffffffffffffffffffffffffffffffffffff\n      and\n      0x70a08231\n        /* \"GoWorkspace/github.com/hdlabs-ro/sc_base/us-contracts/PairUsdtRont.sol\":4393:4397  this */\n      address\n        /* \"GoWorkspace/github.com/hdlabs-ro/sc_base/us-contracts/PairUsdtRont.sol\":4361:4399  IERC(_token1).balanceOf(address(this)) */\n      mload(0x40)\n      dup3\n      0xffffffff\n      and\n      0xe0\n      shl\n      dup2\n      mstore\n      0x04\n      add\n      tag_247\n      swap2\n      swap1\n      tag_53\n      jump\t// in\n    tag_247:\n      0x20\n      mload(0x40)\n      dup1\n      dup4\n      sub\n      dup2\n      dup7\n      gas\n      staticcall\n      iszero\n      dup1\n      iszero\n      tag_249\n      jumpi\n      returndatasize\n      0x00\n      dup1\n      returndatacopy\n      revert(0x00, returndatasize)\n    tag_249:\n      pop\n      pop\n      pop\n      pop\n      mload(0x40)\n      returndatasize\n      not(0x1f)\n      0x1f\n      dup3\n      add\n      and\n      dup3\n      add\n      dup1\n      0x40\n      mstore\n      pop\n      dup2\n      add\n      swap1\n      tag_250\n      swap2\n      swap1\n      tag_155\n      jump\t// in\n    tag_250:\n        /* \"GoWorkspace/github.com/hdlabs-ro/sc_base/us-contracts/PairUsdtRont.sol\":4342:4399  uint256 balance1 = IERC(_token1).balanceOf(address(this)) */\n      swap1\n      pop\n        /* \"GoWorkspace/github.com/hdlabs-ro/sc_base/us-contracts/PairUsdtRont.sol\":4409:4426  uint256 liquidity */\n      0x00\n        /* \"GoWorkspace/github.com/hdlabs-ro/sc_base/us-contracts/PairUsdtRont.sol\":4429:4438  balanceOf */\n      0x04\n        /* \"GoWorkspace/github.com/hdlabs-ro/sc_base/us-contracts/PairUsdtRont.sol\":4429:4453  balanceOf[address(this)] */\n      0x00\n        /* \"GoWorkspace/github.com/hdlabs-ro/sc_base/us-contracts/PairUsdtRont.sol\":4447:4451  this */\n      address\n        /* \"GoWorkspace/github.com/hdlabs-ro/sc_base/us-contracts/PairUsdtRont.sol\":4429:4453  balanceOf[address(this)] */\n      0xffffffffffffffffffffffffffffffffffffffff\n      and\n      0xffffffffffffffffffffffffffffffffffffffff\n      and\n      dup2\n      mstore\n      0x20\n      add\n      swap1\n      dup2\n      mstore\n      0x20\n      add\n      0x00\n      keccak256\n      sload\n        /* \"GoWorkspace/github.com/hdlabs-ro/sc_base/us-contracts/PairUsdtRont.sol\":4409:4453  uint256 liquidity = balanceOf[address(this)] */\n      swap1\n      pop\n        /* \"GoWorkspace/github.com/hdlabs-ro/sc_base/us-contracts/PairUsdtRont.sol\":4464:4474  bool feeOn */\n      0x00\n        /* \"GoWorkspace/github.com/hdlabs-ro/sc_base/us-contracts/PairUsdtRont.sol\":4477:4507  _mintFee(_reserve0, _reserve1) */\n      tag_251\n        /* \"GoWorkspace/github.com/hdlabs-ro/sc_base/us-contracts/PairUsdtRont.sol\":4486:4495  _reserve0 */\n      dup9\n        /* \"GoWorkspace/github.com/hdlabs-ro/sc_base/us-contracts/PairUsdtRont.sol\":4497:4506  _reserve1 */\n      dup9\n        /* \"GoWorkspace/github.com/hdlabs-ro/sc_base/us-contracts/PairUsdtRont.sol\":4477:4485  _mintFee */\n      tag_215\n        /* \"GoWorkspace/github.com/hdlabs-ro/sc_base/us-contracts/PairUsdtRont.sol\":4477:4507  _mintFee(_reserve0, _reserve1) */\n      jump\t// in\n    tag_251:\n        /* \"GoWorkspace/github.com/hdlabs-ro/sc_base/us-contracts/PairUsdtRont.sol\":4464:4507  bool feeOn = _mintFee(_reserve0, _reserve1) */\n      swap1\n      pop\n        /* \"GoWorkspace/github.com/hdlabs-ro/sc_base/us-contracts/PairUsdtRont.sol\":4517:4537  uint256 _totalSupply */\n      0x00\n        /* \"GoWorkspace/github.com/hdlabs-ro/sc_base/us-contracts/PairUsdtRont.sol\":4540:4551  totalSupply */\n      sload(0x03)\n        /* \"GoWorkspace/github.com/hdlabs-ro/sc_base/us-contracts/PairUsdtRont.sol\":4517:4551  uint256 _totalSupply = totalSupply */\n      swap1\n      pop\n        /* \"GoWorkspace/github.com/hdlabs-ro/sc_base/us-contracts/PairUsdtRont.sol\":4674:4686  _totalSupply */\n      dup1\n        /* \"GoWorkspace/github.com/hdlabs-ro/sc_base/us-contracts/PairUsdtRont.sol\":4662:4670  balance0 */\n      dup6\n        /* \"GoWorkspace/github.com/hdlabs-ro/sc_base/us-contracts/PairUsdtRont.sol\":4650:4659  liquidity */\n      dup5\n        /* \"GoWorkspace/github.com/hdlabs-ro/sc_base/us-contracts/PairUsdtRont.sol\":4650:4670  liquidity * balance0 */\n      tag_252\n      swap2\n      swap1\n      tag_176\n      jump\t// in\n    tag_252:\n        /* \"GoWorkspace/github.com/hdlabs-ro/sc_base/us-contracts/PairUsdtRont.sol\":4649:4686  (liquidity * balance0) / _totalSupply */\n      tag_253\n      swap2\n      swap1\n      tag_227\n      jump\t// in\n    tag_253:\n        /* \"GoWorkspace/github.com/hdlabs-ro/sc_base/us-contracts/PairUsdtRont.sol\":4639:4686  amount0 = (liquidity * balance0) / _totalSupply */\n      swap11\n      pop\n        /* \"GoWorkspace/github.com/hdlabs-ro/sc_base/us-contracts/PairUsdtRont.sol\":4779:4791  _totalSupply */\n      dup1\n        /* \"GoWorkspace/github.com/hdlabs-ro/sc_base/us-contracts/PairUsdtRont.sol\":4767:4775  balance1 */\n      dup5\n        /* \"GoWorkspace/github.com/hdlabs-ro/sc_base/us-contracts/PairUsdtRont.sol\":4755:4764  liquidity */\n      dup5\n        /* \"GoWorkspace/github.com/hdlabs-ro/sc_base/us-contracts/PairUsdtRont.sol\":4755:4775  liquidity * balance1 */\n      tag_254\n      swap2\n      swap1\n      tag_176\n      jump\t// in\n    tag_254:\n        /* \"GoWorkspace/github.com/hdlabs-ro/sc_base/us-contracts/PairUsdtRont.sol\":4754:4791  (liquidity * balance1) / _totalSupply */\n      tag_255\n      swap2\n      swap1\n      tag_227\n      jump\t// in\n    tag_255:\n        /* \"GoWorkspace/github.com/hdlabs-ro/sc_base/us-contracts/PairUsdtRont.sol\":4744:4791  amount1 = (liquidity * balance1) / _totalSupply */\n      swap10\n      pop\n        /* \"GoWorkspace/github.com/hdlabs-ro/sc_base/us-contracts/PairUsdtRont.sol\":4880:4881  0 */\n      0x00\n        /* \"GoWorkspace/github.com/hdlabs-ro/sc_base/us-contracts/PairUsdtRont.sol\":4870:4877  amount0 */\n      dup12\n        /* \"GoWorkspace/github.com/hdlabs-ro/sc_base/us-contracts/PairUsdtRont.sol\":4870:4881  amount0 > 0 */\n      gt\n        /* \"GoWorkspace/github.com/hdlabs-ro/sc_base/us-contracts/PairUsdtRont.sol\":4870:4896  amount0 > 0 && amount1 > 0 */\n      dup1\n      iszero\n      tag_256\n      jumpi\n      pop\n        /* \"GoWorkspace/github.com/hdlabs-ro/sc_base/us-contracts/PairUsdtRont.sol\":4895:4896  0 */\n      0x00\n        /* \"GoWorkspace/github.com/hdlabs-ro/sc_base/us-contracts/PairUsdtRont.sol\":4885:4892  amount1 */\n      dup11\n        /* \"GoWorkspace/github.com/hdlabs-ro/sc_base/us-contracts/PairUsdtRont.sol\":4885:4896  amount1 > 0 */\n      gt\n        /* \"GoWorkspace/github.com/hdlabs-ro/sc_base/us-contracts/PairUsdtRont.sol\":4870:4896  amount0 > 0 && amount1 > 0 */\n    tag_256:\n        /* \"GoWorkspace/github.com/hdlabs-ro/sc_base/us-contracts/PairUsdtRont.sol\":4849:4965  require(... */\n      tag_257\n      jumpi\n      mload(0x40)\n      0x08c379a000000000000000000000000000000000000000000000000000000000\n      dup2\n      mstore\n      0x04\n      add\n      tag_258\n      swap1\n      tag_259\n      jump\t// in\n    tag_258:\n      mload(0x40)\n      dup1\n      swap2\n      sub\n      swap1\n      revert\n    tag_257:\n        /* \"GoWorkspace/github.com/hdlabs-ro/sc_base/us-contracts/PairUsdtRont.sol\":4975:5006  _burn(address(this), liquidity) */\n      tag_260\n        /* \"GoWorkspace/github.com/hdlabs-ro/sc_base/us-contracts/PairUsdtRont.sol\":4989:4993  this */\n      address\n        /* \"GoWorkspace/github.com/hdlabs-ro/sc_base/us-contracts/PairUsdtRont.sol\":4996:5005  liquidity */\n      dup5\n        /* \"GoWorkspace/github.com/hdlabs-ro/sc_base/us-contracts/PairUsdtRont.sol\":4975:4980  _burn */\n      tag_261\n        /* \"GoWorkspace/github.com/hdlabs-ro/sc_base/us-contracts/PairUsdtRont.sol\":4975:5006  _burn(address(this), liquidity) */\n      jump\t// in\n    tag_260:\n        /* \"GoWorkspace/github.com/hdlabs-ro/sc_base/us-contracts/PairUsdtRont.sol\":5016:5051  _safeTransfer(_token0, to, amount0) */\n      tag_262\n        /* \"GoWorkspace/github.com/hdlabs-ro/sc_base/us-contracts/PairUsdtRont.sol\":5030:5037  _token0 */\n      dup8\n        /* \"GoWorkspace/github.com/hdlabs-ro/sc_base/us-contracts/PairUsdtRont.sol\":5039:5041  to */\n      dup14\n        /* \"GoWorkspace/github.com/hdlabs-ro/sc_base/us-contracts/PairUsdtRont.sol\":5043:5050  amount0 */\n      dup14\n        /* \"GoWorkspace/github.com/hdlabs-ro/sc_base/us-contracts/PairUsdtRont.sol\":5016:5029  _safeTransfer */\n      tag_148\n        /* \"GoWorkspace/github.com/hdlabs-ro/sc_base/us-contracts/PairUsdtRont.sol\":5016:5051  _safeTransfer(_token0, to, amount0) */\n      jump\t// in\n    tag_262:\n        /* \"GoWorkspace/github.com/hdlabs-ro/sc_base/us-contracts/PairUsdtRont.sol\":5061:5096  _safeTransfer(_token1, to, amount1) */\n      tag_263\n        /* \"GoWorkspace/github.com/hdlabs-ro/sc_base/us-contracts/PairUsdtRont.sol\":5075:5082  _token1 */\n      dup7\n        /* \"GoWorkspace/github.com/hdlabs-ro/sc_base/us-contracts/PairUsdtRont.sol\":5084:5086  to */\n      dup14\n        /* \"GoWorkspace/github.com/hdlabs-ro/sc_base/us-contracts/PairUsdtRont.sol\":5088:5095  amount1 */\n      dup13\n        /* \"GoWorkspace/github.com/hdlabs-ro/sc_base/us-contracts/PairUsdtRont.sol\":5061:5074  _safeTransfer */\n      tag_148\n        /* \"GoWorkspace/github.com/hdlabs-ro/sc_base/us-contracts/PairUsdtRont.sol\":5061:5096  _safeTransfer(_token1, to, amount1) */\n      jump\t// in\n    tag_263:\n        /* \"GoWorkspace/github.com/hdlabs-ro/sc_base/us-contracts/PairUsdtRont.sol\":5122:5129  _token0 */\n      dup7\n        /* \"GoWorkspace/github.com/hdlabs-ro/sc_base/us-contracts/PairUsdtRont.sol\":5117:5140  IERC(_token0).balanceOf */\n      0xffffffffffffffffffffffffffffffffffffffff\n      and\n      0x70a08231\n        /* \"GoWorkspace/github.com/hdlabs-ro/sc_base/us-contracts/PairUsdtRont.sol\":5149:5153  this */\n      address\n        /* \"GoWorkspace/github.com/hdlabs-ro/sc_base/us-contracts/PairUsdtRont.sol\":5117:5155  IERC(_token0).balanceOf(address(this)) */\n      mload(0x40)\n      dup3\n      0xffffffff\n      and\n      0xe0\n      shl\n      dup2\n      mstore\n      0x04\n      add\n      tag_264\n      swap2\n      swap1\n      tag_53\n      jump\t// in\n    tag_264:\n      0x20\n      mload(0x40)\n      dup1\n      dup4\n      sub\n      dup2\n      dup7\n      gas\n      staticcall\n      iszero\n      dup1\n      iszero\n      tag_266\n      jumpi\n      returndatasize\n      0x00\n      dup1\n      returndatacopy\n      revert(0x00, returndatasize)\n    tag_266:\n      pop\n      pop\n      pop\n      pop\n      mload(0x40)\n      returndatasize\n      not(0x1f)\n      0x1f\n      dup3\n      add\n      and\n      dup3\n      add\n      dup1\n      0x40\n      mstore\n      pop\n      dup2\n      add\n      swap1\n      tag_267\n      swap2\n      swap1\n      tag_155\n      jump\t// in\n    tag_267:\n        /* \"GoWorkspace/github.com/hdlabs-ro/sc_base/us-contracts/PairUsdtRont.sol\":5106:5155  balance0 = IERC(_token0).balanceOf(address(this)) */\n      swap5\n      pop\n        /* \"GoWorkspace/github.com/hdlabs-ro/sc_base/us-contracts/PairUsdtRont.sol\":5181:5188  _token1 */\n      dup6\n        /* \"GoWorkspace/github.com/hdlabs-ro/sc_base/us-contracts/PairUsdtRont.sol\":5176:5199  IERC(_token1).balanceOf */\n      0xffffffffffffffffffffffffffffffffffffffff\n      and\n      0x70a08231\n        /* \"GoWorkspace/github.com/hdlabs-ro/sc_base/us-contracts/PairUsdtRont.sol\":5208:5212  this */\n      address\n        /* \"GoWorkspace/github.com/hdlabs-ro/sc_base/us-contracts/PairUsdtRont.sol\":5176:5214  IERC(_token1).balanceOf(address(this)) */\n      mload(0x40)\n      dup3\n      0xffffffff\n      and\n      0xe0\n      shl\n      dup2\n      mstore\n      0x04\n      add\n      tag_268\n      swap2\n      swap1\n      tag_53\n      jump\t// in\n    tag_268:\n      0x20\n      mload(0x40)\n      dup1\n      dup4\n      sub\n      dup2\n      dup7\n      gas\n      staticcall\n      iszero\n      dup1\n      iszero\n      tag_270\n      jumpi\n      returndatasize\n      0x00\n      dup1\n      returndatacopy\n      revert(0x00, returndatasize)\n    tag_270:\n      pop\n      pop\n      pop\n      pop\n      mload(0x40)\n      returndatasize\n      not(0x1f)\n      0x1f\n      dup3\n      add\n      and\n      dup3\n      add\n      dup1\n      0x40\n      mstore\n      pop\n      dup2\n      add\n      swap1\n      tag_271\n      swap2\n      swap1\n      tag_155\n      jump\t// in\n    tag_271:\n        /* \"GoWorkspace/github.com/hdlabs-ro/sc_base/us-contracts/PairUsdtRont.sol\":5165:5214  balance1 = IERC(_token1).balanceOf(address(this)) */\n      swap4\n      pop\n        /* \"GoWorkspace/github.com/hdlabs-ro/sc_base/us-contracts/PairUsdtRont.sol\":5225:5274  _update(balance0, balance1, _reserve0, _reserve1) */\n      tag_272\n        /* \"GoWorkspace/github.com/hdlabs-ro/sc_base/us-contracts/PairUsdtRont.sol\":5233:5241  balance0 */\n      dup6\n        /* \"GoWorkspace/github.com/hdlabs-ro/sc_base/us-contracts/PairUsdtRont.sol\":5243:5251  balance1 */\n      dup6\n        /* \"GoWorkspace/github.com/hdlabs-ro/sc_base/us-contracts/PairUsdtRont.sol\":5253:5262  _reserve0 */\n      dup12\n        /* \"GoWorkspace/github.com/hdlabs-ro/sc_base/us-contracts/PairUsdtRont.sol\":5264:5273  _reserve1 */\n      dup12\n        /* \"GoWorkspace/github.com/hdlabs-ro/sc_base/us-contracts/PairUsdtRont.sol\":5225:5232  _update */\n      tag_189\n        /* \"GoWorkspace/github.com/hdlabs-ro/sc_base/us-contracts/PairUsdtRont.sol\":5225:5274  _update(balance0, balance1, _reserve0, _reserve1) */\n      jump\t// in\n    tag_272:\n        /* \"GoWorkspace/github.com/hdlabs-ro/sc_base/us-contracts/PairUsdtRont.sol\":5288:5293  feeOn */\n      dup2\n        /* \"GoWorkspace/github.com/hdlabs-ro/sc_base/us-contracts/PairUsdtRont.sol\":5284:5331  if (feeOn) kLast = uint256(reserve0) * reserve1 */\n      iszero\n      tag_273\n      jumpi\n        /* \"GoWorkspace/github.com/hdlabs-ro/sc_base/us-contracts/PairUsdtRont.sol\":5323:5331  reserve1 */\n      0x08\n      0x0e\n      swap1\n      sload\n      swap1\n      0x0100\n      exp\n      swap1\n      div\n      0xffffffffffffffffffffffffffff\n      and\n        /* \"GoWorkspace/github.com/hdlabs-ro/sc_base/us-contracts/PairUsdtRont.sol\":5303:5331  uint256(reserve0) * reserve1 */\n      0xffffffffffffffffffffffffffff\n      and\n        /* \"GoWorkspace/github.com/hdlabs-ro/sc_base/us-contracts/PairUsdtRont.sol\":5311:5319  reserve0 */\n      0x08\n      0x00\n      swap1\n      sload\n      swap1\n      0x0100\n      exp\n      swap1\n      div\n      0xffffffffffffffffffffffffffff\n      and\n        /* \"GoWorkspace/github.com/hdlabs-ro/sc_base/us-contracts/PairUsdtRont.sol\":5303:5320  uint256(reserve0) */\n      0xffffffffffffffffffffffffffff\n      and\n        /* \"GoWorkspace/github.com/hdlabs-ro/sc_base/us-contracts/PairUsdtRont.sol\":5303:5331  uint256(reserve0) * reserve1 */\n      tag_274\n      swap2\n      swap1\n      tag_176\n      jump\t// in\n    tag_274:\n        /* \"GoWorkspace/github.com/hdlabs-ro/sc_base/us-contracts/PairUsdtRont.sol\":5295:5300  kLast */\n      0x0b\n        /* \"GoWorkspace/github.com/hdlabs-ro/sc_base/us-contracts/PairUsdtRont.sol\":5295:5331  kLast = uint256(reserve0) * reserve1 */\n      dup2\n      swap1\n      sstore\n      pop\n        /* \"GoWorkspace/github.com/hdlabs-ro/sc_base/us-contracts/PairUsdtRont.sol\":5284:5331  if (feeOn) kLast = uint256(reserve0) * reserve1 */\n    tag_273:\n        /* \"GoWorkspace/github.com/hdlabs-ro/sc_base/us-contracts/PairUsdtRont.sol\":4086:5378  {... */\n      pop\n      pop\n      pop\n      pop\n      pop\n      pop\n      pop\n      pop\n      pop\n        /* \"GoWorkspace/github.com/hdlabs-ro/sc_base/us-contracts/PairUsdtRont.sol\":1745:1746  1 */\n      0x01\n        /* \"GoWorkspace/github.com/hdlabs-ro/sc_base/us-contracts/PairUsdtRont.sol\":1734:1742  unlocked */\n      0x0c\n        /* \"GoWorkspace/github.com/hdlabs-ro/sc_base/us-contracts/PairUsdtRont.sol\":1734:1746  unlocked = 1 */\n      dup2\n      swap1\n      sstore\n      pop\n        /* \"GoWorkspace/github.com/hdlabs-ro/sc_base/us-contracts/PairUsdtRont.sol\":3975:5378  function burn(address to)... */\n      swap2\n      pop\n      swap2\n      jump\t// out\n        /* \"GoWorkspace/github.com/hdlabs-ro/sc_base/us-contracts/PairUsdtRont.sol\":407:451  string public constant symbol = \"ERC UNI-V2\" */\n    tag_102:\n      mload(0x40)\n      dup1\n      0x40\n      add\n      0x40\n      mstore\n      dup1\n      0x0a\n      dup2\n      mstore\n      0x20\n      add\n      0x45524320554e492d563200000000000000000000000000000000000000000000\n      dup2\n      mstore\n      pop\n      dup2\n      jump\t// out\n        /* \"GoWorkspace/github.com/hdlabs-ro/sc_base/us-contracts/PairUsdtRont.sol\":11308:11447  function transfer(address to, uint256 value) external returns (bool) {... */\n    tag_106:\n        /* \"GoWorkspace/github.com/hdlabs-ro/sc_base/us-contracts/PairUsdtRont.sol\":11371:11375  bool */\n      0x00\n        /* \"GoWorkspace/github.com/hdlabs-ro/sc_base/us-contracts/PairUsdtRont.sol\":11387:11419  _transfer(msg.sender, to, value) */\n      tag_276\n        /* \"GoWorkspace/github.com/hdlabs-ro/sc_base/us-contracts/PairUsdtRont.sol\":11397:11407  msg.sender */\n      caller\n        /* \"GoWorkspace/github.com/hdlabs-ro/sc_base/us-contracts/PairUsdtRont.sol\":11409:11411  to */\n      dup5\n        /* \"GoWorkspace/github.com/hdlabs-ro/sc_base/us-contracts/PairUsdtRont.sol\":11413:11418  value */\n      dup5\n        /* \"GoWorkspace/github.com/hdlabs-ro/sc_base/us-contracts/PairUsdtRont.sol\":11387:11396  _transfer */\n      tag_198\n        /* \"GoWorkspace/github.com/hdlabs-ro/sc_base/us-contracts/PairUsdtRont.sol\":11387:11419  _transfer(msg.sender, to, value) */\n      jump\t// in\n    tag_276:\n        /* \"GoWorkspace/github.com/hdlabs-ro/sc_base/us-contracts/PairUsdtRont.sol\":11436:11440  true */\n      0x01\n        /* \"GoWorkspace/github.com/hdlabs-ro/sc_base/us-contracts/PairUsdtRont.sol\":11429:11440  return true */\n      swap1\n      pop\n        /* \"GoWorkspace/github.com/hdlabs-ro/sc_base/us-contracts/PairUsdtRont.sol\":11308:11447  function transfer(address to, uint256 value) external returns (bool) {... */\n      swap3\n      swap2\n      pop\n      pop\n      jump\t// out\n        /* \"GoWorkspace/github.com/hdlabs-ro/sc_base/us-contracts/PairUsdtRont.sol\":974:1019  uint256 public constant MINIMUM_LIQUIDITY = 1 */\n    tag_109:\n        /* \"GoWorkspace/github.com/hdlabs-ro/sc_base/us-contracts/PairUsdtRont.sol\":1018:1019  1 */\n      0x01\n        /* \"GoWorkspace/github.com/hdlabs-ro/sc_base/us-contracts/PairUsdtRont.sol\":974:1019  uint256 public constant MINIMUM_LIQUIDITY = 1 */\n      dup2\n      jump\t// out\n        /* \"GoWorkspace/github.com/hdlabs-ro/sc_base/us-contracts/PairUsdtRont.sol\":7628:8039  function skim(address to) external lock {... */\n    tag_113:\n        /* \"GoWorkspace/github.com/hdlabs-ro/sc_base/us-contracts/PairUsdtRont.sol\":1665:1666  1 */\n      0x01\n        /* \"GoWorkspace/github.com/hdlabs-ro/sc_base/us-contracts/PairUsdtRont.sol\":1653:1661  unlocked */\n      sload(0x0c)\n        /* \"GoWorkspace/github.com/hdlabs-ro/sc_base/us-contracts/PairUsdtRont.sol\":1653:1666  unlocked == 1 */\n      eq\n        /* \"GoWorkspace/github.com/hdlabs-ro/sc_base/us-contracts/PairUsdtRont.sol\":1645:1691  require(unlocked == 1, \"PairUsdtRont: LOCKED\") */\n      tag_278\n      jumpi\n      mload(0x40)\n      0x08c379a000000000000000000000000000000000000000000000000000000000\n      dup2\n      mstore\n      0x04\n      add\n      tag_279\n      swap1\n      tag_131\n      jump\t// in\n    tag_279:\n      mload(0x40)\n      dup1\n      swap2\n      sub\n      swap1\n      revert\n    tag_278:\n        /* \"GoWorkspace/github.com/hdlabs-ro/sc_base/us-contracts/PairUsdtRont.sol\":1712:1713  0 */\n      0x00\n        /* \"GoWorkspace/github.com/hdlabs-ro/sc_base/us-contracts/PairUsdtRont.sol\":1701:1709  unlocked */\n      0x0c\n        /* \"GoWorkspace/github.com/hdlabs-ro/sc_base/us-contracts/PairUsdtRont.sol\":1701:1713  unlocked = 0 */\n      dup2\n      swap1\n      sstore\n      pop\n        /* \"GoWorkspace/github.com/hdlabs-ro/sc_base/us-contracts/PairUsdtRont.sol\":7678:7693  address _token0 */\n      0x00\n        /* \"GoWorkspace/github.com/hdlabs-ro/sc_base/us-contracts/PairUsdtRont.sol\":7696:7702  token0 */\n      0x01\n      0x00\n      swap1\n      sload\n      swap1\n      0x0100\n      exp\n      swap1\n      div\n      0xffffffffffffffffffffffffffffffffffffffff\n      and\n        /* \"GoWorkspace/github.com/hdlabs-ro/sc_base/us-contracts/PairUsdtRont.sol\":7678:7702  address _token0 = token0 */\n      swap1\n      pop\n        /* \"GoWorkspace/github.com/hdlabs-ro/sc_base/us-contracts/PairUsdtRont.sol\":7727:7742  address _token1 */\n      0x00\n        /* \"GoWorkspace/github.com/hdlabs-ro/sc_base/us-contracts/PairUsdtRont.sol\":7745:7751  token1 */\n      0x02\n      0x00\n      swap1\n      sload\n      swap1\n      0x0100\n      exp\n      swap1\n      div\n      0xffffffffffffffffffffffffffffffffffffffff\n      and\n        /* \"GoWorkspace/github.com/hdlabs-ro/sc_base/us-contracts/PairUsdtRont.sol\":7727:7751  address _token1 = token1 */\n      swap1\n      pop\n        /* \"GoWorkspace/github.com/hdlabs-ro/sc_base/us-contracts/PairUsdtRont.sol\":7776:7899  _safeTransfer(... */\n      tag_281\n        /* \"GoWorkspace/github.com/hdlabs-ro/sc_base/us-contracts/PairUsdtRont.sol\":7803:7810  _token0 */\n      dup3\n        /* \"GoWorkspace/github.com/hdlabs-ro/sc_base/us-contracts/PairUsdtRont.sol\":7824:7826  to */\n      dup5\n        /* \"GoWorkspace/github.com/hdlabs-ro/sc_base/us-contracts/PairUsdtRont.sol\":7881:7889  reserve0 */\n      0x08\n      0x00\n      swap1\n      sload\n      swap1\n      0x0100\n      exp\n      swap1\n      div\n      0xffffffffffffffffffffffffffff\n      and\n        /* \"GoWorkspace/github.com/hdlabs-ro/sc_base/us-contracts/PairUsdtRont.sol\":7840:7889  IERC(_token0).balanceOf(address(this)) - reserve0 */\n      0xffffffffffffffffffffffffffff\n      and\n        /* \"GoWorkspace/github.com/hdlabs-ro/sc_base/us-contracts/PairUsdtRont.sol\":7845:7852  _token0 */\n      dup6\n        /* \"GoWorkspace/github.com/hdlabs-ro/sc_base/us-contracts/PairUsdtRont.sol\":7840:7863  IERC(_token0).balanceOf */\n      0xffffffffffffffffffffffffffffffffffffffff\n      and\n      0x70a08231\n        /* \"GoWorkspace/github.com/hdlabs-ro/sc_base/us-contracts/PairUsdtRont.sol\":7872:7876  this */\n      address\n        /* \"GoWorkspace/github.com/hdlabs-ro/sc_base/us-contracts/PairUsdtRont.sol\":7840:7878  IERC(_token0).balanceOf(address(this)) */\n      mload(0x40)\n      dup3\n      0xffffffff\n      and\n      0xe0\n      shl\n      dup2\n      mstore\n      0x04\n      add\n      tag_282\n      swap2\n      swap1\n      tag_53\n      jump\t// in\n    tag_282:\n      0x20\n      mload(0x40)\n      dup1\n      dup4\n      sub\n      dup2\n      dup7\n      gas\n      staticcall\n      iszero\n      dup1\n      iszero\n      tag_284\n      jumpi\n      returndatasize\n      0x00\n      dup1\n      returndatacopy\n      revert(0x00, returndatasize)\n    tag_284:\n      pop\n      pop\n      pop\n      pop\n      mload(0x40)\n      returndatasize\n      not(0x1f)\n      0x1f\n      dup3\n      add\n      and\n      dup3\n      add\n      dup1\n      0x40\n      mstore\n      pop\n      dup2\n      add\n      swap1\n      tag_285\n      swap2\n      swap1\n      tag_155\n      jump\t// in\n    tag_285:\n        /* \"GoWorkspace/github.com/hdlabs-ro/sc_base/us-contracts/PairUsdtRont.sol\":7840:7889  IERC(_token0).balanceOf(address(this)) - reserve0 */\n      tag_286\n      swap2\n      swap1\n      tag_161\n      jump\t// in\n    tag_286:\n        /* \"GoWorkspace/github.com/hdlabs-ro/sc_base/us-contracts/PairUsdtRont.sol\":7776:7789  _safeTransfer */\n      tag_148\n        /* \"GoWorkspace/github.com/hdlabs-ro/sc_base/us-contracts/PairUsdtRont.sol\":7776:7899  _safeTransfer(... */\n      jump\t// in\n    tag_281:\n        /* \"GoWorkspace/github.com/hdlabs-ro/sc_base/us-contracts/PairUsdtRont.sol\":7909:8032  _safeTransfer(... */\n      tag_287\n        /* \"GoWorkspace/github.com/hdlabs-ro/sc_base/us-contracts/PairUsdtRont.sol\":7936:7943  _token1 */\n      dup2\n        /* \"GoWorkspace/github.com/hdlabs-ro/sc_base/us-contracts/PairUsdtRont.sol\":7957:7959  to */\n      dup5\n        /* \"GoWorkspace/github.com/hdlabs-ro/sc_base/us-contracts/PairUsdtRont.sol\":8014:8022  reserve1 */\n      0x08\n      0x0e\n      swap1\n      sload\n      swap1\n      0x0100\n      exp\n      swap1\n      div\n      0xffffffffffffffffffffffffffff\n      and\n        /* \"GoWorkspace/github.com/hdlabs-ro/sc_base/us-contracts/PairUsdtRont.sol\":7973:8022  IERC(_token1).balanceOf(address(this)) - reserve1 */\n      0xffffffffffffffffffffffffffff\n      and\n        /* \"GoWorkspace/github.com/hdlabs-ro/sc_base/us-contracts/PairUsdtRont.sol\":7978:7985  _token1 */\n      dup5\n        /* \"GoWorkspace/github.com/hdlabs-ro/sc_base/us-contracts/PairUsdtRont.sol\":7973:7996  IERC(_token1).balanceOf */\n      0xffffffffffffffffffffffffffffffffffffffff\n      and\n      0x70a08231\n        /* \"GoWorkspace/github.com/hdlabs-ro/sc_base/us-contracts/PairUsdtRont.sol\":8005:8009  this */\n      address\n        /* \"GoWorkspace/github.com/hdlabs-ro/sc_base/us-contracts/PairUsdtRont.sol\":7973:8011  IERC(_token1).balanceOf(address(this)) */\n      mload(0x40)\n      dup3\n      0xffffffff\n      and\n      0xe0\n      shl\n      dup2\n      mstore\n      0x04\n      add\n      tag_288\n      swap2\n      swap1\n      tag_53\n      jump\t// in\n    tag_288:\n      0x20\n      mload(0x40)\n      dup1\n      dup4\n      sub\n      dup2\n      dup7\n      gas\n      staticcall\n      iszero\n      dup1\n      iszero\n      tag_290\n      jumpi\n      returndatasize\n      0x00\n      dup1\n      returndatacopy\n      revert(0x00, returndatasize)\n    tag_290:\n      pop\n      pop\n      pop\n      pop\n      mload(0x40)\n      returndatasize\n      not(0x1f)\n      0x1f\n      dup3\n      add\n      and\n      dup3\n      add\n      dup1\n      0x40\n      mstore\n      pop\n      dup2\n      add\n      swap1\n      tag_291\n      swap2\n      swap1\n      tag_155\n      jump\t// in\n    tag_291:\n        /* \"GoWorkspace/github.com/hdlabs-ro/sc_base/us-contracts/PairUsdtRont.sol\":7973:8022  IERC(_token1).balanceOf(address(this)) - reserve1 */\n      tag_292\n      swap2\n      swap1\n      tag_161\n      jump\t// in\n    tag_292:\n        /* \"GoWorkspace/github.com/hdlabs-ro/sc_base/us-contracts/PairUsdtRont.sol\":7909:7922  _safeTransfer */\n      tag_148\n        /* \"GoWorkspace/github.com/hdlabs-ro/sc_base/us-contracts/PairUsdtRont.sol\":7909:8032  _safeTransfer(... */\n      jump\t// in\n    tag_287:\n        /* \"GoWorkspace/github.com/hdlabs-ro/sc_base/us-contracts/PairUsdtRont.sol\":7668:8039  {... */\n      pop\n      pop\n        /* \"GoWorkspace/github.com/hdlabs-ro/sc_base/us-contracts/PairUsdtRont.sol\":1745:1746  1 */\n      0x01\n        /* \"GoWorkspace/github.com/hdlabs-ro/sc_base/us-contracts/PairUsdtRont.sol\":1734:1742  unlocked */\n      0x0c\n        /* \"GoWorkspace/github.com/hdlabs-ro/sc_base/us-contracts/PairUsdtRont.sol\":1734:1746  unlocked = 1 */\n      dup2\n      swap1\n      sstore\n      pop\n        /* \"GoWorkspace/github.com/hdlabs-ro/sc_base/us-contracts/PairUsdtRont.sol\":7628:8039  function skim(address to) external lock {... */\n      pop\n      jump\t// out\n        /* \"GoWorkspace/github.com/hdlabs-ro/sc_base/us-contracts/PairUsdtRont.sol\":266:332  address public token1 = 0xD1F9C3397ea04D3dE7F002cB9e63cb49d0DEAA36 */\n    tag_115:\n      0x02\n      0x00\n      swap1\n      sload\n      swap1\n      0x0100\n      exp\n      swap1\n      div\n      0xffffffffffffffffffffffffffffffffffffffff\n      and\n      dup2\n      jump\t// out\n        /* \"GoWorkspace/github.com/hdlabs-ro/sc_base/us-contracts/PairUsdtRont.sol\":11810:12778  function permit(... */\n    tag_120:\n        /* \"GoWorkspace/github.com/hdlabs-ro/sc_base/us-contracts/PairUsdtRont.sol\":12023:12038  block.timestamp */\n      timestamp\n        /* \"GoWorkspace/github.com/hdlabs-ro/sc_base/us-contracts/PairUsdtRont.sol\":12011:12019  deadline */\n      dup5\n        /* \"GoWorkspace/github.com/hdlabs-ro/sc_base/us-contracts/PairUsdtRont.sol\":12011:12038  deadline >= block.timestamp */\n      lt\n      iszero\n        /* \"GoWorkspace/github.com/hdlabs-ro/sc_base/us-contracts/PairUsdtRont.sol\":12003:12061  require(deadline >= block.timestamp, \"UniswapV2: EXPIRED\") */\n      tag_294\n      jumpi\n      mload(0x40)\n      0x08c379a000000000000000000000000000000000000000000000000000000000\n      dup2\n      mstore\n      0x04\n      add\n      tag_295\n      swap1\n      tag_296\n      jump\t// in\n    tag_295:\n      mload(0x40)\n      dup1\n      swap2\n      sub\n      swap1\n      revert\n    tag_294:\n        /* \"GoWorkspace/github.com/hdlabs-ro/sc_base/us-contracts/PairUsdtRont.sol\":12071:12085  bytes32 digest */\n      0x00\n        /* \"GoWorkspace/github.com/hdlabs-ro/sc_base/us-contracts/PairUsdtRont.sol\":12173:12189  DOMAIN_SEPARATOR */\n      sload(0x06)\n        /* \"GoWorkspace/github.com/hdlabs-ro/sc_base/us-contracts/PairUsdtRont.sol\":841:907  0x6e71edae12b1b97f4d1f60370fef10105fa2faae0126114a169c64845d6126c9 */\n      0x6e71edae12b1b97f4d1f60370fef10105fa2faae0126114a169c64845d6126c9\n        /* \"GoWorkspace/github.com/hdlabs-ro/sc_base/us-contracts/PairUsdtRont.sol\":12274:12289  PERMIT_TYPEHASH */\n      0x00\n      shl\n        /* \"GoWorkspace/github.com/hdlabs-ro/sc_base/us-contracts/PairUsdtRont.sol\":12315:12320  owner */\n      dup10\n        /* \"GoWorkspace/github.com/hdlabs-ro/sc_base/us-contracts/PairUsdtRont.sol\":12346:12353  spender */\n      dup10\n        /* \"GoWorkspace/github.com/hdlabs-ro/sc_base/us-contracts/PairUsdtRont.sol\":12379:12384  value */\n      dup10\n        /* \"GoWorkspace/github.com/hdlabs-ro/sc_base/us-contracts/PairUsdtRont.sol\":12410:12416  nonces */\n      0x07\n        /* \"GoWorkspace/github.com/hdlabs-ro/sc_base/us-contracts/PairUsdtRont.sol\":12410:12423  nonces[owner] */\n      0x00\n        /* \"GoWorkspace/github.com/hdlabs-ro/sc_base/us-contracts/PairUsdtRont.sol\":12417:12422  owner */\n      dup15\n        /* \"GoWorkspace/github.com/hdlabs-ro/sc_base/us-contracts/PairUsdtRont.sol\":12410:12423  nonces[owner] */\n      0xffffffffffffffffffffffffffffffffffffffff\n      and\n      0xffffffffffffffffffffffffffffffffffffffff\n      and\n      dup2\n      mstore\n      0x20\n      add\n      swap1\n      dup2\n      mstore\n      0x20\n      add\n      0x00\n      keccak256\n      0x00\n        /* \"GoWorkspace/github.com/hdlabs-ro/sc_base/us-contracts/PairUsdtRont.sol\":12410:12425  nonces[owner]++ */\n      dup2\n      sload\n      dup1\n      swap3\n      swap2\n      swap1\n      tag_297\n      swap1\n      tag_298\n      jump\t// in\n    tag_297:\n      swap2\n      swap1\n      pop\n      sstore\n        /* \"GoWorkspace/github.com/hdlabs-ro/sc_base/us-contracts/PairUsdtRont.sol\":12451:12459  deadline */\n      dup11\n        /* \"GoWorkspace/github.com/hdlabs-ro/sc_base/us-contracts/PairUsdtRont.sol\":12238:12481  abi.encode(... */\n      add(0x20, mload(0x40))\n      tag_299\n      swap7\n      swap6\n      swap5\n      swap4\n      swap3\n      swap2\n      swap1\n      tag_300\n      jump\t// in\n    tag_299:\n      mload(0x40)\n      0x20\n      dup2\n      dup4\n      sub\n      sub\n      dup2\n      mstore\n      swap1\n      0x40\n      mstore\n        /* \"GoWorkspace/github.com/hdlabs-ro/sc_base/us-contracts/PairUsdtRont.sol\":12207:12499  keccak256(... */\n      dup1\n      mload\n      swap1\n      0x20\n      add\n      keccak256\n        /* \"GoWorkspace/github.com/hdlabs-ro/sc_base/us-contracts/PairUsdtRont.sol\":12111:12513  abi.encodePacked(... */\n      add(0x20, mload(0x40))\n      tag_301\n      swap3\n      swap2\n      swap1\n      tag_302\n      jump\t// in\n    tag_301:\n      mload(0x40)\n      0x20\n      dup2\n      dup4\n      sub\n      sub\n      dup2\n      mstore\n      swap1\n      0x40\n      mstore\n        /* \"GoWorkspace/github.com/hdlabs-ro/sc_base/us-contracts/PairUsdtRont.sol\":12088:12523  keccak256(... */\n      dup1\n      mload\n      swap1\n      0x20\n      add\n      keccak256\n        /* \"GoWorkspace/github.com/hdlabs-ro/sc_base/us-contracts/PairUsdtRont.sol\":12071:12523  bytes32 digest = keccak256(... */\n      swap1\n      pop\n        /* \"GoWorkspace/github.com/hdlabs-ro/sc_base/us-contracts/PairUsdtRont.sol\":12533:12557  address recoveredAddress */\n      0x00\n        /* \"GoWorkspace/github.com/hdlabs-ro/sc_base/us-contracts/PairUsdtRont.sol\":12560:12586  ecrecover(digest, v, r, s) */\n      0x01\n        /* \"GoWorkspace/github.com/hdlabs-ro/sc_base/us-contracts/PairUsdtRont.sol\":12570:12576  digest */\n      dup3\n        /* \"GoWorkspace/github.com/hdlabs-ro/sc_base/us-contracts/PairUsdtRont.sol\":12578:12579  v */\n      dup7\n        /* \"GoWorkspace/github.com/hdlabs-ro/sc_base/us-contracts/PairUsdtRont.sol\":12581:12582  r */\n      dup7\n        /* \"GoWorkspace/github.com/hdlabs-ro/sc_base/us-contracts/PairUsdtRont.sol\":12584:12585  s */\n      dup7\n        /* \"GoWorkspace/github.com/hdlabs-ro/sc_base/us-contracts/PairUsdtRont.sol\":12560:12586  ecrecover(digest, v, r, s) */\n      mload(0x40)\n      0x00\n      dup2\n      mstore\n      0x20\n      add\n      0x40\n      mstore\n      mload(0x40)\n      tag_303\n      swap5\n      swap4\n      swap3\n      swap2\n      swap1\n      tag_304\n      jump\t// in\n    tag_303:\n      0x20\n      mload(0x40)\n      0x20\n      dup2\n      sub\n      swap1\n      dup1\n      dup5\n      sub\n      swap1\n      dup6\n      gas\n      staticcall\n      iszero\n      dup1\n      iszero\n      tag_306\n      jumpi\n      returndatasize\n      0x00\n      dup1\n      returndatacopy\n      revert(0x00, returndatasize)\n    tag_306:\n      pop\n      pop\n      pop\n      mload(sub(mload(0x40), 0x20))\n        /* \"GoWorkspace/github.com/hdlabs-ro/sc_base/us-contracts/PairUsdtRont.sol\":12533:12586  address recoveredAddress = ecrecover(digest, v, r, s) */\n      swap1\n      pop\n        /* \"GoWorkspace/github.com/hdlabs-ro/sc_base/us-contracts/PairUsdtRont.sol\":12645:12646  0 */\n      0x00\n        /* \"GoWorkspace/github.com/hdlabs-ro/sc_base/us-contracts/PairUsdtRont.sol\":12617:12647  recoveredAddress != address(0) */\n      0xffffffffffffffffffffffffffffffffffffffff\n      and\n        /* \"GoWorkspace/github.com/hdlabs-ro/sc_base/us-contracts/PairUsdtRont.sol\":12617:12633  recoveredAddress */\n      dup2\n        /* \"GoWorkspace/github.com/hdlabs-ro/sc_base/us-contracts/PairUsdtRont.sol\":12617:12647  recoveredAddress != address(0) */\n      0xffffffffffffffffffffffffffffffffffffffff\n      and\n      eq\n      iszero\n        /* \"GoWorkspace/github.com/hdlabs-ro/sc_base/us-contracts/PairUsdtRont.sol\":12617:12676  recoveredAddress != address(0) && recoveredAddress == owner */\n      dup1\n      iszero\n      tag_307\n      jumpi\n      pop\n        /* \"GoWorkspace/github.com/hdlabs-ro/sc_base/us-contracts/PairUsdtRont.sol\":12671:12676  owner */\n      dup9\n        /* \"GoWorkspace/github.com/hdlabs-ro/sc_base/us-contracts/PairUsdtRont.sol\":12651:12676  recoveredAddress == owner */\n      0xffffffffffffffffffffffffffffffffffffffff\n      and\n        /* \"GoWorkspace/github.com/hdlabs-ro/sc_base/us-contracts/PairUsdtRont.sol\":12651:12667  recoveredAddress */\n      dup2\n        /* \"GoWorkspace/github.com/hdlabs-ro/sc_base/us-contracts/PairUsdtRont.sol\":12651:12676  recoveredAddress == owner */\n      0xffffffffffffffffffffffffffffffffffffffff\n      and\n      eq\n        /* \"GoWorkspace/github.com/hdlabs-ro/sc_base/us-contracts/PairUsdtRont.sol\":12617:12676  recoveredAddress != address(0) && recoveredAddress == owner */\n    tag_307:\n        /* \"GoWorkspace/github.com/hdlabs-ro/sc_base/us-contracts/PairUsdtRont.sol\":12596:12730  require(... */\n      tag_308\n      jumpi\n      mload(0x40)\n      0x08c379a000000000000000000000000000000000000000000000000000000000\n      dup2\n      mstore\n      0x04\n      add\n      tag_309\n      swap1\n      tag_310\n      jump\t// in\n    tag_309:\n      mload(0x40)\n      dup1\n      swap2\n      sub\n      swap1\n      revert\n    tag_308:\n        /* \"GoWorkspace/github.com/hdlabs-ro/sc_base/us-contracts/PairUsdtRont.sol\":12740:12771  _approve(owner, spender, value) */\n      tag_311\n        /* \"GoWorkspace/github.com/hdlabs-ro/sc_base/us-contracts/PairUsdtRont.sol\":12749:12754  owner */\n      dup10\n        /* \"GoWorkspace/github.com/hdlabs-ro/sc_base/us-contracts/PairUsdtRont.sol\":12756:12763  spender */\n      dup10\n        /* \"GoWorkspace/github.com/hdlabs-ro/sc_base/us-contracts/PairUsdtRont.sol\":12765:12770  value */\n      dup10\n        /* \"GoWorkspace/github.com/hdlabs-ro/sc_base/us-contracts/PairUsdtRont.sol\":12740:12748  _approve */\n      tag_193\n        /* \"GoWorkspace/github.com/hdlabs-ro/sc_base/us-contracts/PairUsdtRont.sol\":12740:12771  _approve(owner, spender, value) */\n      jump\t// in\n    tag_311:\n        /* \"GoWorkspace/github.com/hdlabs-ro/sc_base/us-contracts/PairUsdtRont.sol\":11993:12778  {... */\n      pop\n      pop\n        /* \"GoWorkspace/github.com/hdlabs-ro/sc_base/us-contracts/PairUsdtRont.sol\":11810:12778  function permit(... */\n      pop\n      pop\n      pop\n      pop\n      pop\n      pop\n      pop\n      jump\t// out\n        /* \"GoWorkspace/github.com/hdlabs-ro/sc_base/us-contracts/PairUsdtRont.sol\":580:644  mapping(address => mapping(address => uint256)) public allowance */\n    tag_124:\n      mstore(0x20, 0x05)\n      dup2\n      0x00\n      mstore\n      mstore(0x20, keccak256(0x00, 0x40))\n      dup1\n      0x00\n      mstore\n      keccak256(0x00, 0x40)\n      0x00\n      swap2\n      pop\n      swap2\n      pop\n      pop\n      sload\n      dup2\n      jump\t// out\n        /* \"GoWorkspace/github.com/hdlabs-ro/sc_base/us-contracts/PairUsdtRont.sol\":8085:8295  function sync() external lock {... */\n    tag_127:\n        /* \"GoWorkspace/github.com/hdlabs-ro/sc_base/us-contracts/PairUsdtRont.sol\":1665:1666  1 */\n      0x01\n        /* \"GoWorkspace/github.com/hdlabs-ro/sc_base/us-contracts/PairUsdtRont.sol\":1653:1661  unlocked */\n      sload(0x0c)\n        /* \"GoWorkspace/github.com/hdlabs-ro/sc_base/us-contracts/PairUsdtRont.sol\":1653:1666  unlocked == 1 */\n      eq\n        /* \"GoWorkspace/github.com/hdlabs-ro/sc_base/us-contracts/PairUsdtRont.sol\":1645:1691  require(unlocked == 1, \"PairUsdtRont: LOCKED\") */\n      tag_313\n      jumpi\n      mload(0x40)\n      0x08c379a000000000000000000000000000000000000000000000000000000000\n      dup2\n      mstore\n      0x04\n      add\n      tag_314\n      swap1\n      tag_131\n      jump\t// in\n    tag_314:\n      mload(0x40)\n      dup1\n      swap2\n      sub\n      swap1\n      revert\n    tag_313:\n        /* \"GoWorkspace/github.com/hdlabs-ro/sc_base/us-contracts/PairUsdtRont.sol\":1712:1713  0 */\n      0x00\n        /* \"GoWorkspace/github.com/hdlabs-ro/sc_base/us-contracts/PairUsdtRont.sol\":1701:1709  unlocked */\n      0x0c\n        /* \"GoWorkspace/github.com/hdlabs-ro/sc_base/us-contracts/PairUsdtRont.sol\":1701:1713  unlocked = 0 */\n      dup2\n      swap1\n      sstore\n      pop\n        /* \"GoWorkspace/github.com/hdlabs-ro/sc_base/us-contracts/PairUsdtRont.sol\":8125:8288  _update(... */\n      tag_316\n        /* \"GoWorkspace/github.com/hdlabs-ro/sc_base/us-contracts/PairUsdtRont.sol\":8151:8157  token0 */\n      0x01\n      0x00\n      swap1\n      sload\n      swap1\n      0x0100\n      exp\n      swap1\n      div\n      0xffffffffffffffffffffffffffffffffffffffff\n      and\n        /* \"GoWorkspace/github.com/hdlabs-ro/sc_base/us-contracts/PairUsdtRont.sol\":8146:8168  IERC(token0).balanceOf */\n      0xffffffffffffffffffffffffffffffffffffffff\n      and\n      0x70a08231\n        /* \"GoWorkspace/github.com/hdlabs-ro/sc_base/us-contracts/PairUsdtRont.sol\":8177:8181  this */\n      address\n        /* \"GoWorkspace/github.com/hdlabs-ro/sc_base/us-contracts/PairUsdtRont.sol\":8146:8183  IERC(token0).balanceOf(address(this)) */\n      mload(0x40)\n      dup3\n      0xffffffff\n      and\n      0xe0\n      shl\n      dup2\n      mstore\n      0x04\n      add\n      tag_317\n      swap2\n      swap1\n      tag_53\n      jump\t// in\n    tag_317:\n      0x20\n      mload(0x40)\n      dup1\n      dup4\n      sub\n      dup2\n      dup7\n      gas\n      staticcall\n      iszero\n      dup1\n      iszero\n      tag_319\n      jumpi\n      returndatasize\n      0x00\n      dup1\n      returndatacopy\n      revert(0x00, returndatasize)\n    tag_319:\n      pop\n      pop\n      pop\n      pop\n      mload(0x40)\n      returndatasize\n      not(0x1f)\n      0x1f\n      dup3\n      add\n      and\n      dup3\n      add\n      dup1\n      0x40\n      mstore\n      pop\n      dup2\n      add\n      swap1\n      tag_320\n      swap2\n      swap1\n      tag_155\n      jump\t// in\n    tag_320:\n        /* \"GoWorkspace/github.com/hdlabs-ro/sc_base/us-contracts/PairUsdtRont.sol\":8202:8208  token1 */\n      0x02\n      0x00\n      swap1\n      sload\n      swap1\n      0x0100\n      exp\n      swap1\n      div\n      0xffffffffffffffffffffffffffffffffffffffff\n      and\n        /* \"GoWorkspace/github.com/hdlabs-ro/sc_base/us-contracts/PairUsdtRont.sol\":8197:8219  IERC(token1).balanceOf */\n      0xffffffffffffffffffffffffffffffffffffffff\n      and\n      0x70a08231\n        /* \"GoWorkspace/github.com/hdlabs-ro/sc_base/us-contracts/PairUsdtRont.sol\":8228:8232  this */\n      address\n        /* \"GoWorkspace/github.com/hdlabs-ro/sc_base/us-contracts/PairUsdtRont.sol\":8197:8234  IERC(token1).balanceOf(address(this)) */\n      mload(0x40)\n      dup3\n      0xffffffff\n      and\n      0xe0\n      shl\n      dup2\n      mstore\n      0x04\n      add\n      tag_321\n      swap2\n      swap1\n      tag_53\n      jump\t// in\n    tag_321:\n      0x20\n      mload(0x40)\n      dup1\n      dup4\n      sub\n      dup2\n      dup7\n      gas\n      staticcall\n      iszero\n      dup1\n      iszero\n      tag_323\n      jumpi\n      returndatasize\n      0x00\n      dup1\n      returndatacopy\n      revert(0x00, returndatasize)\n    tag_323:\n      pop\n      pop\n      pop\n      pop\n      mload(0x40)\n      returndatasize\n      not(0x1f)\n      0x1f\n      dup3\n      add\n      and\n      dup3\n      add\n      dup1\n      0x40\n      mstore\n      pop\n      dup2\n      add\n      swap1\n      tag_324\n      swap2\n      swap1\n      tag_155\n      jump\t// in\n    tag_324:\n        /* \"GoWorkspace/github.com/hdlabs-ro/sc_base/us-contracts/PairUsdtRont.sol\":8248:8256  reserve0 */\n      0x08\n      0x00\n      swap1\n      sload\n      swap1\n      0x0100\n      exp\n      swap1\n      div\n      0xffffffffffffffffffffffffffff\n      and\n        /* \"GoWorkspace/github.com/hdlabs-ro/sc_base/us-contracts/PairUsdtRont.sol\":8270:8278  reserve1 */\n      0x08\n      0x0e\n      swap1\n      sload\n      swap1\n      0x0100\n      exp\n      swap1\n      div\n      0xffffffffffffffffffffffffffff\n      and\n        /* \"GoWorkspace/github.com/hdlabs-ro/sc_base/us-contracts/PairUsdtRont.sol\":8125:8132  _update */\n      tag_189\n        /* \"GoWorkspace/github.com/hdlabs-ro/sc_base/us-contracts/PairUsdtRont.sol\":8125:8288  _update(... */\n      jump\t// in\n    tag_316:\n        /* \"GoWorkspace/github.com/hdlabs-ro/sc_base/us-contracts/PairUsdtRont.sol\":1745:1746  1 */\n      0x01\n        /* \"GoWorkspace/github.com/hdlabs-ro/sc_base/us-contracts/PairUsdtRont.sol\":1734:1742  unlocked */\n      0x0c\n        /* \"GoWorkspace/github.com/hdlabs-ro/sc_base/us-contracts/PairUsdtRont.sol\":1734:1746  unlocked = 1 */\n      dup2\n      swap1\n      sstore\n      pop\n        /* \"GoWorkspace/github.com/hdlabs-ro/sc_base/us-contracts/PairUsdtRont.sol\":8085:8295  function sync() external lock {... */\n      jump\t// out\n        /* \"GoWorkspace/github.com/hdlabs-ro/sc_base/us-contracts/PairUsdtRont.sol\":8317:8693  function _safeTransfer(... */\n    tag_148:\n        /* \"GoWorkspace/github.com/hdlabs-ro/sc_base/us-contracts/PairUsdtRont.sol\":8431:8443  bool success */\n      0x00\n        /* \"GoWorkspace/github.com/hdlabs-ro/sc_base/us-contracts/PairUsdtRont.sol\":8445:8462  bytes memory data */\n      dup1\n        /* \"GoWorkspace/github.com/hdlabs-ro/sc_base/us-contracts/PairUsdtRont.sol\":8466:8471  token */\n      dup5\n        /* \"GoWorkspace/github.com/hdlabs-ro/sc_base/us-contracts/PairUsdtRont.sol\":8466:8476  token.call */\n      0xffffffffffffffffffffffffffffffffffffffff\n      and\n        /* \"GoWorkspace/github.com/hdlabs-ro/sc_base/us-contracts/PairUsdtRont.sol\":1085:1119  bytes(\"transfer(address,uint256)\") */\n      mload(0x40)\n      dup1\n      0x40\n      add\n      0x40\n      mstore\n      dup1\n      0x19\n      dup2\n      mstore\n      0x20\n      add\n      0x7472616e7366657228616464726573732c75696e743235362900000000000000\n      dup2\n      mstore\n      pop\n        /* \"GoWorkspace/github.com/hdlabs-ro/sc_base/us-contracts/PairUsdtRont.sol\":1075:1120  keccak256(bytes(\"transfer(address,uint256)\")) */\n      dup1\n      mload\n      swap1\n      0x20\n      add\n      keccak256\n        /* \"GoWorkspace/github.com/hdlabs-ro/sc_base/us-contracts/PairUsdtRont.sol\":8523:8525  to */\n      dup6\n        /* \"GoWorkspace/github.com/hdlabs-ro/sc_base/us-contracts/PairUsdtRont.sol\":8527:8532  value */\n      dup6\n        /* \"GoWorkspace/github.com/hdlabs-ro/sc_base/us-contracts/PairUsdtRont.sol\":8490:8533  abi.encodeWithSelector(SELECTOR, to, value) */\n      add(0x24, mload(0x40))\n      tag_326\n      swap3\n      swap2\n      swap1\n      tag_327\n      jump\t// in\n    tag_326:\n      mload(0x40)\n      0x20\n      dup2\n      dup4\n      sub\n      sub\n      dup2\n      mstore\n      swap1\n      0x40\n      mstore\n      swap1\n      not(0xffffffffffffffffffffffffffffffffffffffffffffffffffffffff)\n      and\n      0x20\n      dup3\n      add\n      dup1\n      mload\n      0xffffffffffffffffffffffffffffffffffffffffffffffffffffffff\n      dup4\n      dup2\n      dup4\n      and\n      or\n      dup4\n      mstore\n      pop\n      pop\n      pop\n      pop\n        /* \"GoWorkspace/github.com/hdlabs-ro/sc_base/us-contracts/PairUsdtRont.sol\":8466:8543  token.call(... */\n      mload(0x40)\n      tag_328\n      swap2\n      swap1\n      tag_329\n      jump\t// in\n    tag_328:\n      0x00\n      mload(0x40)\n      dup1\n      dup4\n      sub\n      dup2\n      0x00\n      dup7\n      gas\n      call\n      swap2\n      pop\n      pop\n      returndatasize\n      dup1\n      0x00\n      dup2\n      eq\n      tag_332\n      jumpi\n      mload(0x40)\n      swap2\n      pop\n      and(add(returndatasize, 0x3f), not(0x1f))\n      dup3\n      add\n      0x40\n      mstore\n      returndatasize\n      dup3\n      mstore\n      returndatasize\n      0x00\n      0x20\n      dup5\n      add\n      returndatacopy\n      jump(tag_331)\n    tag_332:\n      0x60\n      swap2\n      pop\n    tag_331:\n      pop\n        /* \"GoWorkspace/github.com/hdlabs-ro/sc_base/us-contracts/PairUsdtRont.sol\":8430:8543  (bool success, bytes memory data) = token.call(... */\n      swap2\n      pop\n      swap2\n      pop\n        /* \"GoWorkspace/github.com/hdlabs-ro/sc_base/us-contracts/PairUsdtRont.sol\":8574:8581  success */\n      dup2\n        /* \"GoWorkspace/github.com/hdlabs-ro/sc_base/us-contracts/PairUsdtRont.sol\":8574:8631  success && (data.length == 0 || abi.decode(data, (bool))) */\n      dup1\n      iszero\n      tag_333\n      jumpi\n      pop\n        /* \"GoWorkspace/github.com/hdlabs-ro/sc_base/us-contracts/PairUsdtRont.sol\":8601:8602  0 */\n      0x00\n        /* \"GoWorkspace/github.com/hdlabs-ro/sc_base/us-contracts/PairUsdtRont.sol\":8586:8590  data */\n      dup2\n        /* \"GoWorkspace/github.com/hdlabs-ro/sc_base/us-contracts/PairUsdtRont.sol\":8586:8597  data.length */\n      mload\n        /* \"GoWorkspace/github.com/hdlabs-ro/sc_base/us-contracts/PairUsdtRont.sol\":8586:8602  data.length == 0 */\n      eq\n        /* \"GoWorkspace/github.com/hdlabs-ro/sc_base/us-contracts/PairUsdtRont.sol\":8586:8630  data.length == 0 || abi.decode(data, (bool)) */\n      dup1\n      tag_334\n      jumpi\n      pop\n        /* \"GoWorkspace/github.com/hdlabs-ro/sc_base/us-contracts/PairUsdtRont.sol\":8617:8621  data */\n      dup1\n        /* \"GoWorkspace/github.com/hdlabs-ro/sc_base/us-contracts/PairUsdtRont.sol\":8606:8630  abi.decode(data, (bool)) */\n      dup1\n      0x20\n      add\n      swap1\n      mload\n      dup2\n      add\n      swap1\n      tag_335\n      swap2\n      swap1\n      tag_336\n      jump\t// in\n    tag_335:\n        /* \"GoWorkspace/github.com/hdlabs-ro/sc_base/us-contracts/PairUsdtRont.sol\":8586:8630  data.length == 0 || abi.decode(data, (bool)) */\n    tag_334:\n        /* \"GoWorkspace/github.com/hdlabs-ro/sc_base/us-contracts/PairUsdtRont.sol\":8574:8631  success && (data.length == 0 || abi.decode(data, (bool))) */\n    tag_333:\n        /* \"GoWorkspace/github.com/hdlabs-ro/sc_base/us-contracts/PairUsdtRont.sol\":8553:8686  require(... */\n      tag_337\n      jumpi\n      mload(0x40)\n      0x08c379a000000000000000000000000000000000000000000000000000000000\n      dup2\n      mstore\n      0x04\n      add\n      tag_338\n      swap1\n      tag_339\n      jump\t// in\n    tag_338:\n      mload(0x40)\n      dup1\n      swap2\n      sub\n      swap1\n      revert\n    tag_337:\n        /* \"GoWorkspace/github.com/hdlabs-ro/sc_base/us-contracts/PairUsdtRont.sol\":8420:8693  {... */\n      pop\n      pop\n        /* \"GoWorkspace/github.com/hdlabs-ro/sc_base/us-contracts/PairUsdtRont.sol\":8317:8693  function _safeTransfer(... */\n      pop\n      pop\n      pop\n      jump\t// out\n        /* \"GoWorkspace/github.com/hdlabs-ro/sc_base/us-contracts/PairUsdtRont.sol\":8775:9575  function _update(... */\n    tag_189:\n        /* \"GoWorkspace/github.com/hdlabs-ro/sc_base/us-contracts/PairUsdtRont.sol\":8922:8943  uint32 blockTimestamp */\n      0x00\n        /* \"GoWorkspace/github.com/hdlabs-ro/sc_base/us-contracts/PairUsdtRont.sol\":8971:8976  2**32 */\n      0x0100000000\n        /* \"GoWorkspace/github.com/hdlabs-ro/sc_base/us-contracts/PairUsdtRont.sol\":8953:8968  block.timestamp */\n      timestamp\n        /* \"GoWorkspace/github.com/hdlabs-ro/sc_base/us-contracts/PairUsdtRont.sol\":8953:8976  block.timestamp % 2**32 */\n      tag_341\n      swap2\n      swap1\n      tag_342\n      jump\t// in\n    tag_341:\n        /* \"GoWorkspace/github.com/hdlabs-ro/sc_base/us-contracts/PairUsdtRont.sol\":8922:8977  uint32 blockTimestamp = uint32(block.timestamp % 2**32) */\n      swap1\n      pop\n        /* \"GoWorkspace/github.com/hdlabs-ro/sc_base/us-contracts/PairUsdtRont.sol\":8987:9005  uint32 timeElapsed */\n      0x00\n        /* \"GoWorkspace/github.com/hdlabs-ro/sc_base/us-contracts/PairUsdtRont.sol\":9025:9043  blockTimestampLast */\n      0x08\n      0x1c\n      swap1\n      sload\n      swap1\n      0x0100\n      exp\n      swap1\n      div\n      0xffffffff\n      and\n        /* \"GoWorkspace/github.com/hdlabs-ro/sc_base/us-contracts/PairUsdtRont.sol\":9008:9022  blockTimestamp */\n      dup3\n        /* \"GoWorkspace/github.com/hdlabs-ro/sc_base/us-contracts/PairUsdtRont.sol\":9008:9043  blockTimestamp - blockTimestampLast */\n      tag_343\n      swap2\n      swap1\n      tag_344\n      jump\t// in\n    tag_343:\n        /* \"GoWorkspace/github.com/hdlabs-ro/sc_base/us-contracts/PairUsdtRont.sol\":8987:9043  uint32 timeElapsed = blockTimestamp - blockTimestampLast */\n      swap1\n      pop\n        /* \"GoWorkspace/github.com/hdlabs-ro/sc_base/us-contracts/PairUsdtRont.sol\":9094:9095  0 */\n      0x00\n        /* \"GoWorkspace/github.com/hdlabs-ro/sc_base/us-contracts/PairUsdtRont.sol\":9080:9091  timeElapsed */\n      dup2\n        /* \"GoWorkspace/github.com/hdlabs-ro/sc_base/us-contracts/PairUsdtRont.sol\":9080:9095  timeElapsed > 0 */\n      0xffffffff\n      and\n      gt\n        /* \"GoWorkspace/github.com/hdlabs-ro/sc_base/us-contracts/PairUsdtRont.sol\":9080:9113  timeElapsed > 0 && _reserve0 != 0 */\n      dup1\n      iszero\n      tag_345\n      jumpi\n      pop\n        /* \"GoWorkspace/github.com/hdlabs-ro/sc_base/us-contracts/PairUsdtRont.sol\":9112:9113  0 */\n      0x00\n        /* \"GoWorkspace/github.com/hdlabs-ro/sc_base/us-contracts/PairUsdtRont.sol\":9099:9108  _reserve0 */\n      dup5\n        /* \"GoWorkspace/github.com/hdlabs-ro/sc_base/us-contracts/PairUsdtRont.sol\":9099:9113  _reserve0 != 0 */\n      0xffffffffffffffffffffffffffff\n      and\n      eq\n      iszero\n        /* \"GoWorkspace/github.com/hdlabs-ro/sc_base/us-contracts/PairUsdtRont.sol\":9080:9113  timeElapsed > 0 && _reserve0 != 0 */\n    tag_345:\n        /* \"GoWorkspace/github.com/hdlabs-ro/sc_base/us-contracts/PairUsdtRont.sol\":9080:9131  timeElapsed > 0 && _reserve0 != 0 && _reserve1 != 0 */\n      dup1\n      iszero\n      tag_346\n      jumpi\n      pop\n        /* \"GoWorkspace/github.com/hdlabs-ro/sc_base/us-contracts/PairUsdtRont.sol\":9130:9131  0 */\n      0x00\n        /* \"GoWorkspace/github.com/hdlabs-ro/sc_base/us-contracts/PairUsdtRont.sol\":9117:9126  _reserve1 */\n      dup4\n        /* \"GoWorkspace/github.com/hdlabs-ro/sc_base/us-contracts/PairUsdtRont.sol\":9117:9131  _reserve1 != 0 */\n      0xffffffffffffffffffffffffffff\n      and\n      eq\n      iszero\n        /* \"GoWorkspace/github.com/hdlabs-ro/sc_base/us-contracts/PairUsdtRont.sol\":9080:9131  timeElapsed > 0 && _reserve0 != 0 && _reserve1 != 0 */\n    tag_346:\n        /* \"GoWorkspace/github.com/hdlabs-ro/sc_base/us-contracts/PairUsdtRont.sol\":9076:9448  if (timeElapsed > 0 && _reserve0 != 0 && _reserve1 != 0) {... */\n      iszero\n      tag_347\n      jumpi\n        /* \"GoWorkspace/github.com/hdlabs-ro/sc_base/us-contracts/PairUsdtRont.sol\":9304:9315  timeElapsed */\n      dup1\n        /* \"GoWorkspace/github.com/hdlabs-ro/sc_base/us-contracts/PairUsdtRont.sol\":9247:9315  uint256(encode(_reserve1) / _reserve0) *... */\n      0xffffffff\n      and\n        /* \"GoWorkspace/github.com/hdlabs-ro/sc_base/us-contracts/PairUsdtRont.sol\":9275:9284  _reserve0 */\n      dup5\n        /* \"GoWorkspace/github.com/hdlabs-ro/sc_base/us-contracts/PairUsdtRont.sol\":9255:9284  encode(_reserve1) / _reserve0 */\n      0xffffffffffffffffffffffffffff\n      and\n        /* \"GoWorkspace/github.com/hdlabs-ro/sc_base/us-contracts/PairUsdtRont.sol\":9255:9272  encode(_reserve1) */\n      tag_348\n        /* \"GoWorkspace/github.com/hdlabs-ro/sc_base/us-contracts/PairUsdtRont.sol\":9262:9271  _reserve1 */\n      dup6\n        /* \"GoWorkspace/github.com/hdlabs-ro/sc_base/us-contracts/PairUsdtRont.sol\":9255:9261  encode */\n      tag_349\n        /* \"GoWorkspace/github.com/hdlabs-ro/sc_base/us-contracts/PairUsdtRont.sol\":9255:9272  encode(_reserve1) */\n      jump\t// in\n    tag_348:\n        /* \"GoWorkspace/github.com/hdlabs-ro/sc_base/us-contracts/PairUsdtRont.sol\":9255:9284  encode(_reserve1) / _reserve0 */\n      tag_350\n      swap2\n      swap1\n      tag_351\n      jump\t// in\n    tag_350:\n        /* \"GoWorkspace/github.com/hdlabs-ro/sc_base/us-contracts/PairUsdtRont.sol\":9247:9285  uint256(encode(_reserve1) / _reserve0) */\n      0xffffffffffffffffffffffffffffffffffffffffffffffffffffffff\n      and\n        /* \"GoWorkspace/github.com/hdlabs-ro/sc_base/us-contracts/PairUsdtRont.sol\":9247:9315  uint256(encode(_reserve1) / _reserve0) *... */\n      tag_352\n      swap2\n      swap1\n      tag_176\n      jump\t// in\n    tag_352:\n        /* \"GoWorkspace/github.com/hdlabs-ro/sc_base/us-contracts/PairUsdtRont.sol\":9207:9227  price0CumulativeLast */\n      0x09\n      0x00\n        /* \"GoWorkspace/github.com/hdlabs-ro/sc_base/us-contracts/PairUsdtRont.sol\":9207:9315  price0CumulativeLast +=... */\n      dup3\n      dup3\n      sload\n      tag_353\n      swap2\n      swap1\n      tag_354\n      jump\t// in\n    tag_353:\n      swap3\n      pop\n      pop\n      dup2\n      swap1\n      sstore\n      pop\n        /* \"GoWorkspace/github.com/hdlabs-ro/sc_base/us-contracts/PairUsdtRont.sol\":9426:9437  timeElapsed */\n      dup1\n        /* \"GoWorkspace/github.com/hdlabs-ro/sc_base/us-contracts/PairUsdtRont.sol\":9369:9437  uint256(encode(_reserve0) / _reserve1) *... */\n      0xffffffff\n      and\n        /* \"GoWorkspace/github.com/hdlabs-ro/sc_base/us-contracts/PairUsdtRont.sol\":9397:9406  _reserve1 */\n      dup4\n        /* \"GoWorkspace/github.com/hdlabs-ro/sc_base/us-contracts/PairUsdtRont.sol\":9377:9406  encode(_reserve0) / _reserve1 */\n      0xffffffffffffffffffffffffffff\n      and\n        /* \"GoWorkspace/github.com/hdlabs-ro/sc_base/us-contracts/PairUsdtRont.sol\":9377:9394  encode(_reserve0) */\n      tag_355\n        /* \"GoWorkspace/github.com/hdlabs-ro/sc_base/us-contracts/PairUsdtRont.sol\":9384:9393  _reserve0 */\n      dup7\n        /* \"GoWorkspace/github.com/hdlabs-ro/sc_base/us-contracts/PairUsdtRont.sol\":9377:9383  encode */\n      tag_349\n        /* \"GoWorkspace/github.com/hdlabs-ro/sc_base/us-contracts/PairUsdtRont.sol\":9377:9394  encode(_reserve0) */\n      jump\t// in\n    tag_355:\n        /* \"GoWorkspace/github.com/hdlabs-ro/sc_base/us-contracts/PairUsdtRont.sol\":9377:9406  encode(_reserve0) / _reserve1 */\n      tag_356\n      swap2\n      swap1\n      tag_351\n      jump\t// in\n    tag_356:\n        /* \"GoWorkspace/github.com/hdlabs-ro/sc_base/us-contracts/PairUsdtRont.sol\":9369:9407  uint256(encode(_reserve0) / _reserve1) */\n      0xffffffffffffffffffffffffffffffffffffffffffffffffffffffff\n      and\n        /* \"GoWorkspace/github.com/hdlabs-ro/sc_base/us-contracts/PairUsdtRont.sol\":9369:9437  uint256(encode(_reserve0) / _reserve1) *... */\n      tag_357\n      swap2\n      swap1\n      tag_176\n      jump\t// in\n    tag_357:\n        /* \"GoWorkspace/github.com/hdlabs-ro/sc_base/us-contracts/PairUsdtRont.sol\":9329:9349  price1CumulativeLast */\n      0x0a\n      0x00\n        /* \"GoWorkspace/github.com/hdlabs-ro/sc_base/us-contracts/PairUsdtRont.sol\":9329:9437  price1CumulativeLast +=... */\n      dup3\n      dup3\n      sload\n      tag_358\n      swap2\n      swap1\n      tag_354\n      jump\t// in\n    tag_358:\n      swap3\n      pop\n      pop\n      dup2\n      swap1\n      sstore\n      pop\n        /* \"GoWorkspace/github.com/hdlabs-ro/sc_base/us-contracts/PairUsdtRont.sol\":9076:9448  if (timeElapsed > 0 && _reserve0 != 0 && _reserve1 != 0) {... */\n    tag_347:\n        /* \"GoWorkspace/github.com/hdlabs-ro/sc_base/us-contracts/PairUsdtRont.sol\":9476:9484  balance0 */\n      dup6\n        /* \"GoWorkspace/github.com/hdlabs-ro/sc_base/us-contracts/PairUsdtRont.sol\":9457:9465  reserve0 */\n      0x08\n      0x00\n        /* \"GoWorkspace/github.com/hdlabs-ro/sc_base/us-contracts/PairUsdtRont.sol\":9457:9485  reserve0 = uint112(balance0) */\n      0x0100\n      exp\n      dup2\n      sload\n      dup2\n      0xffffffffffffffffffffffffffff\n      mul\n      not\n      and\n      swap1\n      dup4\n      0xffffffffffffffffffffffffffff\n      and\n      mul\n      or\n      swap1\n      sstore\n      pop\n        /* \"GoWorkspace/github.com/hdlabs-ro/sc_base/us-contracts/PairUsdtRont.sol\":9514:9522  balance1 */\n      dup5\n        /* \"GoWorkspace/github.com/hdlabs-ro/sc_base/us-contracts/PairUsdtRont.sol\":9495:9503  reserve1 */\n      0x08\n      0x0e\n        /* \"GoWorkspace/github.com/hdlabs-ro/sc_base/us-contracts/PairUsdtRont.sol\":9495:9523  reserve1 = uint112(balance1) */\n      0x0100\n      exp\n      dup2\n      sload\n      dup2\n      0xffffffffffffffffffffffffffff\n      mul\n      not\n      and\n      swap1\n      dup4\n      0xffffffffffffffffffffffffffff\n      and\n      mul\n      or\n      swap1\n      sstore\n      pop\n        /* \"GoWorkspace/github.com/hdlabs-ro/sc_base/us-contracts/PairUsdtRont.sol\":9554:9568  blockTimestamp */\n      dup2\n        /* \"GoWorkspace/github.com/hdlabs-ro/sc_base/us-contracts/PairUsdtRont.sol\":9533:9551  blockTimestampLast */\n      0x08\n      0x1c\n        /* \"GoWorkspace/github.com/hdlabs-ro/sc_base/us-contracts/PairUsdtRont.sol\":9533:9568  blockTimestampLast = blockTimestamp */\n      0x0100\n      exp\n      dup2\n      sload\n      dup2\n      0xffffffff\n      mul\n      not\n      and\n      swap1\n      dup4\n      0xffffffff\n      and\n      mul\n      or\n      swap1\n      sstore\n      pop\n        /* \"GoWorkspace/github.com/hdlabs-ro/sc_base/us-contracts/PairUsdtRont.sol\":8912:9575  {... */\n      pop\n      pop\n        /* \"GoWorkspace/github.com/hdlabs-ro/sc_base/us-contracts/PairUsdtRont.sol\":8775:9575  function _update(... */\n      pop\n      pop\n      pop\n      pop\n      jump\t// out\n        /* \"GoWorkspace/github.com/hdlabs-ro/sc_base/us-contracts/PairUsdtRont.sol\":10787:10940  function _approve(... */\n    tag_193:\n        /* \"GoWorkspace/github.com/hdlabs-ro/sc_base/us-contracts/PairUsdtRont.sol\":10928:10933  value */\n      dup1\n        /* \"GoWorkspace/github.com/hdlabs-ro/sc_base/us-contracts/PairUsdtRont.sol\":10900:10909  allowance */\n      0x05\n        /* \"GoWorkspace/github.com/hdlabs-ro/sc_base/us-contracts/PairUsdtRont.sol\":10900:10916  allowance[owner] */\n      0x00\n        /* \"GoWorkspace/github.com/hdlabs-ro/sc_base/us-contracts/PairUsdtRont.sol\":10910:10915  owner */\n      dup6\n        /* \"GoWorkspace/github.com/hdlabs-ro/sc_base/us-contracts/PairUsdtRont.sol\":10900:10916  allowance[owner] */\n      0xffffffffffffffffffffffffffffffffffffffff\n      and\n      0xffffffffffffffffffffffffffffffffffffffff\n      and\n      dup2\n      mstore\n      0x20\n      add\n      swap1\n      dup2\n      mstore\n      0x20\n      add\n      0x00\n      keccak256\n        /* \"GoWorkspace/github.com/hdlabs-ro/sc_base/us-contracts/PairUsdtRont.sol\":10900:10925  allowance[owner][spender] */\n      0x00\n        /* \"GoWorkspace/github.com/hdlabs-ro/sc_base/us-contracts/PairUsdtRont.sol\":10917:10924  spender */\n      dup5\n        /* \"GoWorkspace/github.com/hdlabs-ro/sc_base/us-contracts/PairUsdtRont.sol\":10900:10925  allowance[owner][spender] */\n      0xffffffffffffffffffffffffffffffffffffffff\n      and\n      0xffffffffffffffffffffffffffffffffffffffff\n      and\n      dup2\n      mstore\n      0x20\n      add\n      swap1\n      dup2\n      mstore\n      0x20\n      add\n      0x00\n      keccak256\n        /* \"GoWorkspace/github.com/hdlabs-ro/sc_base/us-contracts/PairUsdtRont.sol\":10900:10933  allowance[owner][spender] = value */\n      dup2\n      swap1\n      sstore\n      pop\n        /* \"GoWorkspace/github.com/hdlabs-ro/sc_base/us-contracts/PairUsdtRont.sol\":10787:10940  function _approve(... */\n      pop\n      pop\n      pop\n      jump\t// out\n        /* \"GoWorkspace/github.com/hdlabs-ro/sc_base/us-contracts/PairUsdtRont.sol\":10946:11149  function _transfer(... */\n    tag_198:\n        /* \"GoWorkspace/github.com/hdlabs-ro/sc_base/us-contracts/PairUsdtRont.sol\":11090:11095  value */\n      dup1\n        /* \"GoWorkspace/github.com/hdlabs-ro/sc_base/us-contracts/PairUsdtRont.sol\":11072:11081  balanceOf */\n      0x04\n        /* \"GoWorkspace/github.com/hdlabs-ro/sc_base/us-contracts/PairUsdtRont.sol\":11072:11087  balanceOf[from] */\n      0x00\n        /* \"GoWorkspace/github.com/hdlabs-ro/sc_base/us-contracts/PairUsdtRont.sol\":11082:11086  from */\n      dup6\n        /* \"GoWorkspace/github.com/hdlabs-ro/sc_base/us-contracts/PairUsdtRont.sol\":11072:11087  balanceOf[from] */\n      0xffffffffffffffffffffffffffffffffffffffff\n      and\n      0xffffffffffffffffffffffffffffffffffffffff\n      and\n      dup2\n      mstore\n      0x20\n      add\n      swap1\n      dup2\n      mstore\n      0x20\n      add\n      0x00\n      keccak256\n      sload\n        /* \"GoWorkspace/github.com/hdlabs-ro/sc_base/us-contracts/PairUsdtRont.sol\":11072:11095  balanceOf[from] - value */\n      tag_361\n      swap2\n      swap1\n      tag_161\n      jump\t// in\n    tag_361:\n        /* \"GoWorkspace/github.com/hdlabs-ro/sc_base/us-contracts/PairUsdtRont.sol\":11054:11063  balanceOf */\n      0x04\n        /* \"GoWorkspace/github.com/hdlabs-ro/sc_base/us-contracts/PairUsdtRont.sol\":11054:11069  balanceOf[from] */\n      0x00\n        /* \"GoWorkspace/github.com/hdlabs-ro/sc_base/us-contracts/PairUsdtRont.sol\":11064:11068  from */\n      dup6\n        /* \"GoWorkspace/github.com/hdlabs-ro/sc_base/us-contracts/PairUsdtRont.sol\":11054:11069  balanceOf[from] */\n      0xffffffffffffffffffffffffffffffffffffffff\n      and\n      0xffffffffffffffffffffffffffffffffffffffff\n      and\n      dup2\n      mstore\n      0x20\n      add\n      swap1\n      dup2\n      mstore\n      0x20\n      add\n      0x00\n      keccak256\n        /* \"GoWorkspace/github.com/hdlabs-ro/sc_base/us-contracts/PairUsdtRont.sol\":11054:11095  balanceOf[from] = balanceOf[from] - value */\n      dup2\n      swap1\n      sstore\n      pop\n        /* \"GoWorkspace/github.com/hdlabs-ro/sc_base/us-contracts/PairUsdtRont.sol\":11137:11142  value */\n      dup1\n        /* \"GoWorkspace/github.com/hdlabs-ro/sc_base/us-contracts/PairUsdtRont.sol\":11121:11130  balanceOf */\n      0x04\n        /* \"GoWorkspace/github.com/hdlabs-ro/sc_base/us-contracts/PairUsdtRont.sol\":11121:11134  balanceOf[to] */\n      0x00\n        /* \"GoWorkspace/github.com/hdlabs-ro/sc_base/us-contracts/PairUsdtRont.sol\":11131:11133  to */\n      dup5\n        /* \"GoWorkspace/github.com/hdlabs-ro/sc_base/us-contracts/PairUsdtRont.sol\":11121:11134  balanceOf[to] */\n      0xffffffffffffffffffffffffffffffffffffffff\n      and\n      0xffffffffffffffffffffffffffffffffffffffff\n      and\n      dup2\n      mstore\n      0x20\n      add\n      swap1\n      dup2\n      mstore\n      0x20\n      add\n      0x00\n      keccak256\n      sload\n        /* \"GoWorkspace/github.com/hdlabs-ro/sc_base/us-contracts/PairUsdtRont.sol\":11121:11142  balanceOf[to] - value */\n      tag_362\n      swap2\n      swap1\n      tag_161\n      jump\t// in\n    tag_362:\n        /* \"GoWorkspace/github.com/hdlabs-ro/sc_base/us-contracts/PairUsdtRont.sol\":11105:11114  balanceOf */\n      0x04\n        /* \"GoWorkspace/github.com/hdlabs-ro/sc_base/us-contracts/PairUsdtRont.sol\":11105:11118  balanceOf[to] */\n      0x00\n        /* \"GoWorkspace/github.com/hdlabs-ro/sc_base/us-contracts/PairUsdtRont.sol\":11115:11117  to */\n      dup5\n        /* \"GoWorkspace/github.com/hdlabs-ro/sc_base/us-contracts/PairUsdtRont.sol\":11105:11118  balanceOf[to] */\n      0xffffffffffffffffffffffffffffffffffffffff\n      and\n      0xffffffffffffffffffffffffffffffffffffffff\n      and\n      dup2\n      mstore\n      0x20\n      add\n      swap1\n      dup2\n      mstore\n      0x20\n      add\n      0x00\n      keccak256\n        /* \"GoWorkspace/github.com/hdlabs-ro/sc_base/us-contracts/PairUsdtRont.sol\":11105:11142  balanceOf[to] = balanceOf[to] - value */\n      dup2\n      swap1\n      sstore\n      pop\n        /* \"GoWorkspace/github.com/hdlabs-ro/sc_base/us-contracts/PairUsdtRont.sol\":10946:11149  function _transfer(... */\n      pop\n      pop\n      pop\n      jump\t// out\n        /* \"GoWorkspace/github.com/hdlabs-ro/sc_base/us-contracts/PairUsdtRont.sol\":9662:10441  function _mintFee(uint112 _reserve0, uint112 _reserve1)... */\n    tag_215:\n        /* \"GoWorkspace/github.com/hdlabs-ro/sc_base/us-contracts/PairUsdtRont.sol\":9751:9761  bool feeOn */\n      0x00\n        /* \"GoWorkspace/github.com/hdlabs-ro/sc_base/us-contracts/PairUsdtRont.sol\":9802:9803  0 */\n      dup1\n        /* \"GoWorkspace/github.com/hdlabs-ro/sc_base/us-contracts/PairUsdtRont.sol\":9785:9804  feeTo != address(0) */\n      0xffffffffffffffffffffffffffffffffffffffff\n      and\n        /* \"GoWorkspace/github.com/hdlabs-ro/sc_base/us-contracts/PairUsdtRont.sol\":9785:9790  feeTo */\n      0x00\n      dup1\n      sload\n      swap1\n      0x0100\n      exp\n      swap1\n      div\n      0xffffffffffffffffffffffffffffffffffffffff\n      and\n        /* \"GoWorkspace/github.com/hdlabs-ro/sc_base/us-contracts/PairUsdtRont.sol\":9785:9804  feeTo != address(0) */\n      0xffffffffffffffffffffffffffffffffffffffff\n      and\n      eq\n      iszero\n        /* \"GoWorkspace/github.com/hdlabs-ro/sc_base/us-contracts/PairUsdtRont.sol\":9777:9804  feeOn = feeTo != address(0) */\n      swap1\n      pop\n        /* \"GoWorkspace/github.com/hdlabs-ro/sc_base/us-contracts/PairUsdtRont.sol\":9814:9828  uint256 _kLast */\n      0x00\n        /* \"GoWorkspace/github.com/hdlabs-ro/sc_base/us-contracts/PairUsdtRont.sol\":9831:9836  kLast */\n      sload(0x0b)\n        /* \"GoWorkspace/github.com/hdlabs-ro/sc_base/us-contracts/PairUsdtRont.sol\":9814:9836  uint256 _kLast = kLast */\n      swap1\n      pop\n        /* \"GoWorkspace/github.com/hdlabs-ro/sc_base/us-contracts/PairUsdtRont.sol\":9865:9870  feeOn */\n      dup2\n        /* \"GoWorkspace/github.com/hdlabs-ro/sc_base/us-contracts/PairUsdtRont.sol\":9861:10435  if (feeOn) {... */\n      iszero\n      tag_364\n      jumpi\n        /* \"GoWorkspace/github.com/hdlabs-ro/sc_base/us-contracts/PairUsdtRont.sol\":9900:9901  0 */\n      0x00\n        /* \"GoWorkspace/github.com/hdlabs-ro/sc_base/us-contracts/PairUsdtRont.sol\":9890:9896  _kLast */\n      dup2\n        /* \"GoWorkspace/github.com/hdlabs-ro/sc_base/us-contracts/PairUsdtRont.sol\":9890:9901  _kLast != 0 */\n      eq\n        /* \"GoWorkspace/github.com/hdlabs-ro/sc_base/us-contracts/PairUsdtRont.sol\":9886:10368  if (_kLast != 0) {... */\n      tag_365\n      jumpi\n        /* \"GoWorkspace/github.com/hdlabs-ro/sc_base/us-contracts/PairUsdtRont.sol\":9921:9934  uint256 rootK */\n      0x00\n        /* \"GoWorkspace/github.com/hdlabs-ro/sc_base/us-contracts/PairUsdtRont.sol\":9937:9973  sqrt(uint256(_reserve0) * _reserve1) */\n      tag_366\n        /* \"GoWorkspace/github.com/hdlabs-ro/sc_base/us-contracts/PairUsdtRont.sol\":9963:9972  _reserve1 */\n      dup5\n        /* \"GoWorkspace/github.com/hdlabs-ro/sc_base/us-contracts/PairUsdtRont.sol\":9942:9972  uint256(_reserve0) * _reserve1 */\n      0xffffffffffffffffffffffffffff\n      and\n        /* \"GoWorkspace/github.com/hdlabs-ro/sc_base/us-contracts/PairUsdtRont.sol\":9950:9959  _reserve0 */\n      dup7\n        /* \"GoWorkspace/github.com/hdlabs-ro/sc_base/us-contracts/PairUsdtRont.sol\":9942:9960  uint256(_reserve0) */\n      0xffffffffffffffffffffffffffff\n      and\n        /* \"GoWorkspace/github.com/hdlabs-ro/sc_base/us-contracts/PairUsdtRont.sol\":9942:9972  uint256(_reserve0) * _reserve1 */\n      tag_367\n      swap2\n      swap1\n      tag_176\n      jump\t// in\n    tag_367:\n        /* \"GoWorkspace/github.com/hdlabs-ro/sc_base/us-contracts/PairUsdtRont.sol\":9937:9941  sqrt */\n      tag_219\n        /* \"GoWorkspace/github.com/hdlabs-ro/sc_base/us-contracts/PairUsdtRont.sol\":9937:9973  sqrt(uint256(_reserve0) * _reserve1) */\n      jump\t// in\n    tag_366:\n        /* \"GoWorkspace/github.com/hdlabs-ro/sc_base/us-contracts/PairUsdtRont.sol\":9921:9973  uint256 rootK = sqrt(uint256(_reserve0) * _reserve1) */\n      swap1\n      pop\n        /* \"GoWorkspace/github.com/hdlabs-ro/sc_base/us-contracts/PairUsdtRont.sol\":9991:10008  uint256 rootKLast */\n      0x00\n        /* \"GoWorkspace/github.com/hdlabs-ro/sc_base/us-contracts/PairUsdtRont.sol\":10011:10023  sqrt(_kLast) */\n      tag_368\n        /* \"GoWorkspace/github.com/hdlabs-ro/sc_base/us-contracts/PairUsdtRont.sol\":10016:10022  _kLast */\n      dup4\n        /* \"GoWorkspace/github.com/hdlabs-ro/sc_base/us-contracts/PairUsdtRont.sol\":10011:10015  sqrt */\n      tag_219\n        /* \"GoWorkspace/github.com/hdlabs-ro/sc_base/us-contracts/PairUsdtRont.sol\":10011:10023  sqrt(_kLast) */\n      jump\t// in\n    tag_368:\n        /* \"GoWorkspace/github.com/hdlabs-ro/sc_base/us-contracts/PairUsdtRont.sol\":9991:10023  uint256 rootKLast = sqrt(_kLast) */\n      swap1\n      pop\n        /* \"GoWorkspace/github.com/hdlabs-ro/sc_base/us-contracts/PairUsdtRont.sol\":10053:10062  rootKLast */\n      dup1\n        /* \"GoWorkspace/github.com/hdlabs-ro/sc_base/us-contracts/PairUsdtRont.sol\":10045:10050  rootK */\n      dup3\n        /* \"GoWorkspace/github.com/hdlabs-ro/sc_base/us-contracts/PairUsdtRont.sol\":10045:10062  rootK > rootKLast */\n      gt\n        /* \"GoWorkspace/github.com/hdlabs-ro/sc_base/us-contracts/PairUsdtRont.sol\":10041:10354  if (rootK > rootKLast) {... */\n      iszero\n      tag_369\n      jumpi\n        /* \"GoWorkspace/github.com/hdlabs-ro/sc_base/us-contracts/PairUsdtRont.sol\":10086:10103  uint256 numerator */\n      0x00\n        /* \"GoWorkspace/github.com/hdlabs-ro/sc_base/us-contracts/PairUsdtRont.sol\":10129:10138  rootKLast */\n      dup2\n        /* \"GoWorkspace/github.com/hdlabs-ro/sc_base/us-contracts/PairUsdtRont.sol\":10121:10126  rootK */\n      dup4\n        /* \"GoWorkspace/github.com/hdlabs-ro/sc_base/us-contracts/PairUsdtRont.sol\":10121:10138  rootK - rootKLast */\n      tag_370\n      swap2\n      swap1\n      tag_161\n      jump\t// in\n    tag_370:\n        /* \"GoWorkspace/github.com/hdlabs-ro/sc_base/us-contracts/PairUsdtRont.sol\":10106:10117  totalSupply */\n      sload(0x03)\n        /* \"GoWorkspace/github.com/hdlabs-ro/sc_base/us-contracts/PairUsdtRont.sol\":10106:10139  totalSupply * (rootK - rootKLast) */\n      tag_371\n      swap2\n      swap1\n      tag_176\n      jump\t// in\n    tag_371:\n        /* \"GoWorkspace/github.com/hdlabs-ro/sc_base/us-contracts/PairUsdtRont.sol\":10086:10139  uint256 numerator = totalSupply * (rootK - rootKLast) */\n      swap1\n      pop\n        /* \"GoWorkspace/github.com/hdlabs-ro/sc_base/us-contracts/PairUsdtRont.sol\":10161:10180  uint256 denominator */\n      0x00\n        /* \"GoWorkspace/github.com/hdlabs-ro/sc_base/us-contracts/PairUsdtRont.sol\":10197:10206  rootKLast */\n      dup3\n        /* \"GoWorkspace/github.com/hdlabs-ro/sc_base/us-contracts/PairUsdtRont.sol\":10192:10193  5 */\n      0x05\n        /* \"GoWorkspace/github.com/hdlabs-ro/sc_base/us-contracts/PairUsdtRont.sol\":10184:10189  rootK */\n      dup6\n        /* \"GoWorkspace/github.com/hdlabs-ro/sc_base/us-contracts/PairUsdtRont.sol\":10184:10193  rootK * 5 */\n      tag_372\n      swap2\n      swap1\n      tag_176\n      jump\t// in\n    tag_372:\n        /* \"GoWorkspace/github.com/hdlabs-ro/sc_base/us-contracts/PairUsdtRont.sol\":10183:10206  (rootK * 5) + rootKLast */\n      tag_373\n      swap2\n      swap1\n      tag_354\n      jump\t// in\n    tag_373:\n        /* \"GoWorkspace/github.com/hdlabs-ro/sc_base/us-contracts/PairUsdtRont.sol\":10161:10206  uint256 denominator = (rootK * 5) + rootKLast */\n      swap1\n      pop\n        /* \"GoWorkspace/github.com/hdlabs-ro/sc_base/us-contracts/PairUsdtRont.sol\":10228:10245  uint256 liquidity */\n      0x00\n        /* \"GoWorkspace/github.com/hdlabs-ro/sc_base/us-contracts/PairUsdtRont.sol\":10260:10271  denominator */\n      dup2\n        /* \"GoWorkspace/github.com/hdlabs-ro/sc_base/us-contracts/PairUsdtRont.sol\":10248:10257  numerator */\n      dup4\n        /* \"GoWorkspace/github.com/hdlabs-ro/sc_base/us-contracts/PairUsdtRont.sol\":10248:10271  numerator / denominator */\n      tag_374\n      swap2\n      swap1\n      tag_227\n      jump\t// in\n    tag_374:\n        /* \"GoWorkspace/github.com/hdlabs-ro/sc_base/us-contracts/PairUsdtRont.sol\":10228:10271  uint256 liquidity = numerator / denominator */\n      swap1\n      pop\n        /* \"GoWorkspace/github.com/hdlabs-ro/sc_base/us-contracts/PairUsdtRont.sol\":10309:10310  0 */\n      0x00\n        /* \"GoWorkspace/github.com/hdlabs-ro/sc_base/us-contracts/PairUsdtRont.sol\":10297:10306  liquidity */\n      dup2\n        /* \"GoWorkspace/github.com/hdlabs-ro/sc_base/us-contracts/PairUsdtRont.sol\":10297:10310  liquidity > 0 */\n      gt\n        /* \"GoWorkspace/github.com/hdlabs-ro/sc_base/us-contracts/PairUsdtRont.sol\":10293:10335  if (liquidity > 0) _mint(feeTo, liquidity) */\n      iszero\n      tag_375\n      jumpi\n        /* \"GoWorkspace/github.com/hdlabs-ro/sc_base/us-contracts/PairUsdtRont.sol\":10312:10335  _mint(feeTo, liquidity) */\n      tag_376\n        /* \"GoWorkspace/github.com/hdlabs-ro/sc_base/us-contracts/PairUsdtRont.sol\":10318:10323  feeTo */\n      0x00\n      dup1\n      sload\n      swap1\n      0x0100\n      exp\n      swap1\n      div\n      0xffffffffffffffffffffffffffffffffffffffff\n      and\n        /* \"GoWorkspace/github.com/hdlabs-ro/sc_base/us-contracts/PairUsdtRont.sol\":10325:10334  liquidity */\n      dup3\n        /* \"GoWorkspace/github.com/hdlabs-ro/sc_base/us-contracts/PairUsdtRont.sol\":10312:10317  _mint */\n      tag_222\n        /* \"GoWorkspace/github.com/hdlabs-ro/sc_base/us-contracts/PairUsdtRont.sol\":10312:10335  _mint(feeTo, liquidity) */\n      jump\t// in\n    tag_376:\n        /* \"GoWorkspace/github.com/hdlabs-ro/sc_base/us-contracts/PairUsdtRont.sol\":10293:10335  if (liquidity > 0) _mint(feeTo, liquidity) */\n    tag_375:\n        /* \"GoWorkspace/github.com/hdlabs-ro/sc_base/us-contracts/PairUsdtRont.sol\":10064:10354  {... */\n      pop\n      pop\n      pop\n        /* \"GoWorkspace/github.com/hdlabs-ro/sc_base/us-contracts/PairUsdtRont.sol\":10041:10354  if (rootK > rootKLast) {... */\n    tag_369:\n        /* \"GoWorkspace/github.com/hdlabs-ro/sc_base/us-contracts/PairUsdtRont.sol\":9903:10368  {... */\n      pop\n      pop\n        /* \"GoWorkspace/github.com/hdlabs-ro/sc_base/us-contracts/PairUsdtRont.sol\":9886:10368  if (_kLast != 0) {... */\n    tag_365:\n        /* \"GoWorkspace/github.com/hdlabs-ro/sc_base/us-contracts/PairUsdtRont.sol\":9861:10435  if (feeOn) {... */\n      jump(tag_377)\n    tag_364:\n        /* \"GoWorkspace/github.com/hdlabs-ro/sc_base/us-contracts/PairUsdtRont.sol\":10398:10399  0 */\n      0x00\n        /* \"GoWorkspace/github.com/hdlabs-ro/sc_base/us-contracts/PairUsdtRont.sol\":10388:10394  _kLast */\n      dup2\n        /* \"GoWorkspace/github.com/hdlabs-ro/sc_base/us-contracts/PairUsdtRont.sol\":10388:10399  _kLast != 0 */\n      eq\n        /* \"GoWorkspace/github.com/hdlabs-ro/sc_base/us-contracts/PairUsdtRont.sol\":10384:10435  if (_kLast != 0) {... */\n      tag_378\n      jumpi\n        /* \"GoWorkspace/github.com/hdlabs-ro/sc_base/us-contracts/PairUsdtRont.sol\":10423:10424  0 */\n      0x00\n        /* \"GoWorkspace/github.com/hdlabs-ro/sc_base/us-contracts/PairUsdtRont.sol\":10415:10420  kLast */\n      0x0b\n        /* \"GoWorkspace/github.com/hdlabs-ro/sc_base/us-contracts/PairUsdtRont.sol\":10415:10424  kLast = 0 */\n      dup2\n      swap1\n      sstore\n      pop\n        /* \"GoWorkspace/github.com/hdlabs-ro/sc_base/us-contracts/PairUsdtRont.sol\":10384:10435  if (_kLast != 0) {... */\n    tag_378:\n        /* \"GoWorkspace/github.com/hdlabs-ro/sc_base/us-contracts/PairUsdtRont.sol\":9861:10435  if (feeOn) {... */\n    tag_377:\n        /* \"GoWorkspace/github.com/hdlabs-ro/sc_base/us-contracts/PairUsdtRont.sol\":9767:10441  {... */\n      pop\n        /* \"GoWorkspace/github.com/hdlabs-ro/sc_base/us-contracts/PairUsdtRont.sol\":9662:10441  function _mintFee(uint112 _reserve0, uint112 _reserve1)... */\n      swap3\n      swap2\n      pop\n      pop\n      jump\t// out\n        /* \"GoWorkspace/github.com/hdlabs-ro/sc_base/us-contracts/PairUsdtRont.sol\":13027:13328  function sqrt(uint256 y) internal pure returns (uint256 z) {... */\n    tag_219:\n        /* \"GoWorkspace/github.com/hdlabs-ro/sc_base/us-contracts/PairUsdtRont.sol\":13075:13084  uint256 z */\n      0x00\n        /* \"GoWorkspace/github.com/hdlabs-ro/sc_base/us-contracts/PairUsdtRont.sol\":13104:13105  3 */\n      0x03\n        /* \"GoWorkspace/github.com/hdlabs-ro/sc_base/us-contracts/PairUsdtRont.sol\":13100:13101  y */\n      dup3\n        /* \"GoWorkspace/github.com/hdlabs-ro/sc_base/us-contracts/PairUsdtRont.sol\":13100:13105  y > 3 */\n      gt\n        /* \"GoWorkspace/github.com/hdlabs-ro/sc_base/us-contracts/PairUsdtRont.sol\":13096:13322  if (y > 3) {... */\n      iszero\n      tag_380\n      jumpi\n        /* \"GoWorkspace/github.com/hdlabs-ro/sc_base/us-contracts/PairUsdtRont.sol\":13125:13126  y */\n      dup2\n        /* \"GoWorkspace/github.com/hdlabs-ro/sc_base/us-contracts/PairUsdtRont.sol\":13121:13126  z = y */\n      swap1\n      pop\n        /* \"GoWorkspace/github.com/hdlabs-ro/sc_base/us-contracts/PairUsdtRont.sol\":13140:13149  uint256 x */\n      0x00\n        /* \"GoWorkspace/github.com/hdlabs-ro/sc_base/us-contracts/PairUsdtRont.sol\":13160:13161  1 */\n      0x01\n        /* \"GoWorkspace/github.com/hdlabs-ro/sc_base/us-contracts/PairUsdtRont.sol\":13156:13157  2 */\n      0x02\n        /* \"GoWorkspace/github.com/hdlabs-ro/sc_base/us-contracts/PairUsdtRont.sol\":13152:13153  y */\n      dup5\n        /* \"GoWorkspace/github.com/hdlabs-ro/sc_base/us-contracts/PairUsdtRont.sol\":13152:13157  y / 2 */\n      tag_381\n      swap2\n      swap1\n      tag_227\n      jump\t// in\n    tag_381:\n        /* \"GoWorkspace/github.com/hdlabs-ro/sc_base/us-contracts/PairUsdtRont.sol\":13152:13161  y / 2 + 1 */\n      tag_382\n      swap2\n      swap1\n      tag_354\n      jump\t// in\n    tag_382:\n        /* \"GoWorkspace/github.com/hdlabs-ro/sc_base/us-contracts/PairUsdtRont.sol\":13140:13161  uint256 x = y / 2 + 1 */\n      swap1\n      pop\n        /* \"GoWorkspace/github.com/hdlabs-ro/sc_base/us-contracts/PairUsdtRont.sol\":13175:13264  while (x < z) {... */\n    tag_383:\n        /* \"GoWorkspace/github.com/hdlabs-ro/sc_base/us-contracts/PairUsdtRont.sol\":13186:13187  z */\n      dup2\n        /* \"GoWorkspace/github.com/hdlabs-ro/sc_base/us-contracts/PairUsdtRont.sol\":13182:13183  x */\n      dup2\n        /* \"GoWorkspace/github.com/hdlabs-ro/sc_base/us-contracts/PairUsdtRont.sol\":13182:13187  x < z */\n      lt\n        /* \"GoWorkspace/github.com/hdlabs-ro/sc_base/us-contracts/PairUsdtRont.sol\":13175:13264  while (x < z) {... */\n      iszero\n      tag_384\n      jumpi\n        /* \"GoWorkspace/github.com/hdlabs-ro/sc_base/us-contracts/PairUsdtRont.sol\":13211:13212  x */\n      dup1\n        /* \"GoWorkspace/github.com/hdlabs-ro/sc_base/us-contracts/PairUsdtRont.sol\":13207:13212  z = x */\n      swap2\n      pop\n        /* \"GoWorkspace/github.com/hdlabs-ro/sc_base/us-contracts/PairUsdtRont.sol\":13248:13249  2 */\n      0x02\n        /* \"GoWorkspace/github.com/hdlabs-ro/sc_base/us-contracts/PairUsdtRont.sol\":13243:13244  x */\n      dup2\n        /* \"GoWorkspace/github.com/hdlabs-ro/sc_base/us-contracts/PairUsdtRont.sol\":13239:13240  x */\n      dup3\n        /* \"GoWorkspace/github.com/hdlabs-ro/sc_base/us-contracts/PairUsdtRont.sol\":13235:13236  y */\n      dup6\n        /* \"GoWorkspace/github.com/hdlabs-ro/sc_base/us-contracts/PairUsdtRont.sol\":13235:13240  y / x */\n      tag_385\n      swap2\n      swap1\n      tag_227\n      jump\t// in\n    tag_385:\n        /* \"GoWorkspace/github.com/hdlabs-ro/sc_base/us-contracts/PairUsdtRont.sol\":13235:13244  y / x + x */\n      tag_386\n      swap2\n      swap1\n      tag_354\n      jump\t// in\n    tag_386:\n        /* \"GoWorkspace/github.com/hdlabs-ro/sc_base/us-contracts/PairUsdtRont.sol\":13234:13249  (y / x + x) / 2 */\n      tag_387\n      swap2\n      swap1\n      tag_227\n      jump\t// in\n    tag_387:\n        /* \"GoWorkspace/github.com/hdlabs-ro/sc_base/us-contracts/PairUsdtRont.sol\":13230:13249  x = (y / x + x) / 2 */\n      swap1\n      pop\n        /* \"GoWorkspace/github.com/hdlabs-ro/sc_base/us-contracts/PairUsdtRont.sol\":13175:13264  while (x < z) {... */\n      jump(tag_383)\n    tag_384:\n        /* \"GoWorkspace/github.com/hdlabs-ro/sc_base/us-contracts/PairUsdtRont.sol\":13107:13274  {... */\n      pop\n        /* \"GoWorkspace/github.com/hdlabs-ro/sc_base/us-contracts/PairUsdtRont.sol\":13096:13322  if (y > 3) {... */\n      jump(tag_388)\n    tag_380:\n        /* \"GoWorkspace/github.com/hdlabs-ro/sc_base/us-contracts/PairUsdtRont.sol\":13289:13290  0 */\n      0x00\n        /* \"GoWorkspace/github.com/hdlabs-ro/sc_base/us-contracts/PairUsdtRont.sol\":13284:13285  y */\n      dup3\n        /* \"GoWorkspace/github.com/hdlabs-ro/sc_base/us-contracts/PairUsdtRont.sol\":13284:13290  y != 0 */\n      eq\n        /* \"GoWorkspace/github.com/hdlabs-ro/sc_base/us-contracts/PairUsdtRont.sol\":13280:13322  if (y != 0) {... */\n      tag_389\n      jumpi\n        /* \"GoWorkspace/github.com/hdlabs-ro/sc_base/us-contracts/PairUsdtRont.sol\":13310:13311  1 */\n      0x01\n        /* \"GoWorkspace/github.com/hdlabs-ro/sc_base/us-contracts/PairUsdtRont.sol\":13306:13311  z = 1 */\n      swap1\n      pop\n        /* \"GoWorkspace/github.com/hdlabs-ro/sc_base/us-contracts/PairUsdtRont.sol\":13280:13322  if (y != 0) {... */\n    tag_389:\n        /* \"GoWorkspace/github.com/hdlabs-ro/sc_base/us-contracts/PairUsdtRont.sol\":13096:13322  if (y > 3) {... */\n    tag_388:\n        /* \"GoWorkspace/github.com/hdlabs-ro/sc_base/us-contracts/PairUsdtRont.sol\":13027:13328  function sqrt(uint256 y) internal pure returns (uint256 z) {... */\n      swap2\n      swap1\n      pop\n      jump\t// out\n        /* \"GoWorkspace/github.com/hdlabs-ro/sc_base/us-contracts/PairUsdtRont.sol\":10473:10621  function _mint(address to, uint256 value) internal {... */\n    tag_222:\n        /* \"GoWorkspace/github.com/hdlabs-ro/sc_base/us-contracts/PairUsdtRont.sol\":10562:10567  value */\n      dup1\n        /* \"GoWorkspace/github.com/hdlabs-ro/sc_base/us-contracts/PairUsdtRont.sol\":10548:10559  totalSupply */\n      sload(0x03)\n        /* \"GoWorkspace/github.com/hdlabs-ro/sc_base/us-contracts/PairUsdtRont.sol\":10548:10567  totalSupply + value */\n      tag_391\n      swap2\n      swap1\n      tag_354\n      jump\t// in\n    tag_391:\n        /* \"GoWorkspace/github.com/hdlabs-ro/sc_base/us-contracts/PairUsdtRont.sol\":10534:10545  totalSupply */\n      0x03\n        /* \"GoWorkspace/github.com/hdlabs-ro/sc_base/us-contracts/PairUsdtRont.sol\":10534:10567  totalSupply = totalSupply + value */\n      dup2\n      swap1\n      sstore\n      pop\n        /* \"GoWorkspace/github.com/hdlabs-ro/sc_base/us-contracts/PairUsdtRont.sol\":10609:10614  value */\n      dup1\n        /* \"GoWorkspace/github.com/hdlabs-ro/sc_base/us-contracts/PairUsdtRont.sol\":10593:10602  balanceOf */\n      0x04\n        /* \"GoWorkspace/github.com/hdlabs-ro/sc_base/us-contracts/PairUsdtRont.sol\":10593:10606  balanceOf[to] */\n      0x00\n        /* \"GoWorkspace/github.com/hdlabs-ro/sc_base/us-contracts/PairUsdtRont.sol\":10603:10605  to */\n      dup5\n        /* \"GoWorkspace/github.com/hdlabs-ro/sc_base/us-contracts/PairUsdtRont.sol\":10593:10606  balanceOf[to] */\n      0xffffffffffffffffffffffffffffffffffffffff\n      and\n      0xffffffffffffffffffffffffffffffffffffffff\n      and\n      dup2\n      mstore\n      0x20\n      add\n      swap1\n      dup2\n      mstore\n      0x20\n      add\n      0x00\n      keccak256\n      sload\n        /* \"GoWorkspace/github.com/hdlabs-ro/sc_base/us-contracts/PairUsdtRont.sol\":10593:10614  balanceOf[to] + value */\n      tag_392\n      swap2\n      swap1\n      tag_354\n      jump\t// in\n    tag_392:\n        /* \"GoWorkspace/github.com/hdlabs-ro/sc_base/us-contracts/PairUsdtRont.sol\":10577:10586  balanceOf */\n      0x04\n        /* \"GoWorkspace/github.com/hdlabs-ro/sc_base/us-contracts/PairUsdtRont.sol\":10577:10590  balanceOf[to] */\n      0x00\n        /* \"GoWorkspace/github.com/hdlabs-ro/sc_base/us-contracts/PairUsdtRont.sol\":10587:10589  to */\n      dup5\n        /* \"GoWorkspace/github.com/hdlabs-ro/sc_base/us-contracts/PairUsdtRont.sol\":10577:10590  balanceOf[to] */\n      0xffffffffffffffffffffffffffffffffffffffff\n      and\n      0xffffffffffffffffffffffffffffffffffffffff\n      and\n      dup2\n      mstore\n      0x20\n      add\n      swap1\n      dup2\n      mstore\n      0x20\n      add\n      0x00\n      keccak256\n        /* \"GoWorkspace/github.com/hdlabs-ro/sc_base/us-contracts/PairUsdtRont.sol\":10577:10614  balanceOf[to] = balanceOf[to] + value */\n      dup2\n      swap1\n      sstore\n      pop\n        /* \"GoWorkspace/github.com/hdlabs-ro/sc_base/us-contracts/PairUsdtRont.sol\":10473:10621  function _mint(address to, uint256 value) internal {... */\n      pop\n      pop\n      jump\t// out\n        /* \"GoWorkspace/github.com/hdlabs-ro/sc_base/us-contracts/PairUsdtRont.sol\":12809:12912  function min(uint256 x, uint256 y) internal pure returns (uint256 z) {... */\n    tag_230:\n        /* \"GoWorkspace/github.com/hdlabs-ro/sc_base/us-contracts/PairUsdtRont.sol\":12867:12876  uint256 z */\n      0x00\n        /* \"GoWorkspace/github.com/hdlabs-ro/sc_base/us-contracts/PairUsdtRont.sol\":12896:12897  y */\n      dup2\n        /* \"GoWorkspace/github.com/hdlabs-ro/sc_base/us-contracts/PairUsdtRont.sol\":12892:12893  x */\n      dup4\n        /* \"GoWorkspace/github.com/hdlabs-ro/sc_base/us-contracts/PairUsdtRont.sol\":12892:12897  x < y */\n      lt\n        /* \"GoWorkspace/github.com/hdlabs-ro/sc_base/us-contracts/PairUsdtRont.sol\":12892:12905  x < y ? x : y */\n      tag_394\n      jumpi\n        /* \"GoWorkspace/github.com/hdlabs-ro/sc_base/us-contracts/PairUsdtRont.sol\":12904:12905  y */\n      dup2\n        /* \"GoWorkspace/github.com/hdlabs-ro/sc_base/us-contracts/PairUsdtRont.sol\":12892:12905  x < y ? x : y */\n      jump(tag_395)\n    tag_394:\n        /* \"GoWorkspace/github.com/hdlabs-ro/sc_base/us-contracts/PairUsdtRont.sol\":12900:12901  x */\n      dup3\n        /* \"GoWorkspace/github.com/hdlabs-ro/sc_base/us-contracts/PairUsdtRont.sol\":12892:12905  x < y ? x : y */\n    tag_395:\n        /* \"GoWorkspace/github.com/hdlabs-ro/sc_base/us-contracts/PairUsdtRont.sol\":12888:12905  z = x < y ? x : y */\n      swap1\n      pop\n        /* \"GoWorkspace/github.com/hdlabs-ro/sc_base/us-contracts/PairUsdtRont.sol\":12809:12912  function min(uint256 x, uint256 y) internal pure returns (uint256 z) {... */\n      swap3\n      swap2\n      pop\n      pop\n      jump\t// out\n        /* \"GoWorkspace/github.com/hdlabs-ro/sc_base/us-contracts/PairUsdtRont.sol\":10627:10781  function _burn(address from, uint256 value) internal {... */\n    tag_261:\n        /* \"GoWorkspace/github.com/hdlabs-ro/sc_base/us-contracts/PairUsdtRont.sol\":10726:10731  value */\n      dup1\n        /* \"GoWorkspace/github.com/hdlabs-ro/sc_base/us-contracts/PairUsdtRont.sol\":10708:10717  balanceOf */\n      0x04\n        /* \"GoWorkspace/github.com/hdlabs-ro/sc_base/us-contracts/PairUsdtRont.sol\":10708:10723  balanceOf[from] */\n      0x00\n        /* \"GoWorkspace/github.com/hdlabs-ro/sc_base/us-contracts/PairUsdtRont.sol\":10718:10722  from */\n      dup5\n        /* \"GoWorkspace/github.com/hdlabs-ro/sc_base/us-contracts/PairUsdtRont.sol\":10708:10723  balanceOf[from] */\n      0xffffffffffffffffffffffffffffffffffffffff\n      and\n      0xffffffffffffffffffffffffffffffffffffffff\n      and\n      dup2\n      mstore\n      0x20\n      add\n      swap1\n      dup2\n      mstore\n      0x20\n      add\n      0x00\n      keccak256\n      sload\n        /* \"GoWorkspace/github.com/hdlabs-ro/sc_base/us-contracts/PairUsdtRont.sol\":10708:10731  balanceOf[from] - value */\n      tag_397\n      swap2\n      swap1\n      tag_161\n      jump\t// in\n    tag_397:\n        /* \"GoWorkspace/github.com/hdlabs-ro/sc_base/us-contracts/PairUsdtRont.sol\":10690:10699  balanceOf */\n      0x04\n        /* \"GoWorkspace/github.com/hdlabs-ro/sc_base/us-contracts/PairUsdtRont.sol\":10690:10705  balanceOf[from] */\n      0x00\n        /* \"GoWorkspace/github.com/hdlabs-ro/sc_base/us-contracts/PairUsdtRont.sol\":10700:10704  from */\n      dup5\n        /* \"GoWorkspace/github.com/hdlabs-ro/sc_base/us-contracts/PairUsdtRont.sol\":10690:10705  balanceOf[from] */\n      0xffffffffffffffffffffffffffffffffffffffff\n      and\n      0xffffffffffffffffffffffffffffffffffffffff\n      and\n      dup2\n      mstore\n      0x20\n      add\n      swap1\n      dup2\n      mstore\n      0x20\n      add\n      0x00\n      keccak256\n        /* \"GoWorkspace/github.com/hdlabs-ro/sc_base/us-contracts/PairUsdtRont.sol\":10690:10731  balanceOf[from] = balanceOf[from] - value */\n      dup2\n      swap1\n      sstore\n      pop\n        /* \"GoWorkspace/github.com/hdlabs-ro/sc_base/us-contracts/PairUsdtRont.sol\":10769:10774  value */\n      dup1\n        /* \"GoWorkspace/github.com/hdlabs-ro/sc_base/us-contracts/PairUsdtRont.sol\":10755:10766  totalSupply */\n      sload(0x03)\n        /* \"GoWorkspace/github.com/hdlabs-ro/sc_base/us-contracts/PairUsdtRont.sol\":10755:10774  totalSupply - value */\n      tag_398\n      swap2\n      swap1\n      tag_161\n      jump\t// in\n    tag_398:\n        /* \"GoWorkspace/github.com/hdlabs-ro/sc_base/us-contracts/PairUsdtRont.sol\":10741:10752  totalSupply */\n      0x03\n        /* \"GoWorkspace/github.com/hdlabs-ro/sc_base/us-contracts/PairUsdtRont.sol\":10741:10774  totalSupply = totalSupply - value */\n      dup2\n      swap1\n      sstore\n      pop\n        /* \"GoWorkspace/github.com/hdlabs-ro/sc_base/us-contracts/PairUsdtRont.sol\":10627:10781  function _burn(address from, uint256 value) internal {... */\n      pop\n      pop\n      jump\t// out\n        /* \"GoWorkspace/github.com/hdlabs-ro/sc_base/us-contracts/PairUsdtRont.sol\":13373:13493  function encode(uint112 y) internal pure returns (uint224 z) {... */\n    tag_349:\n        /* \"GoWorkspace/github.com/hdlabs-ro/sc_base/us-contracts/PairUsdtRont.sol\":13423:13432  uint224 z */\n      0x00\n        /* \"GoWorkspace/github.com/hdlabs-ro/sc_base/us-contracts/PairUsdtRont.sol\":13461:13467  2**112 */\n      0x010000000000000000000000000000\n        /* \"GoWorkspace/github.com/hdlabs-ro/sc_base/us-contracts/PairUsdtRont.sol\":13456:13457  y */\n      dup3\n        /* \"GoWorkspace/github.com/hdlabs-ro/sc_base/us-contracts/PairUsdtRont.sol\":13448:13458  uint224(y) */\n      0xffffffffffffffffffffffffffff\n      and\n        /* \"GoWorkspace/github.com/hdlabs-ro/sc_base/us-contracts/PairUsdtRont.sol\":13448:13467  uint224(y) * 2**112 */\n      tag_400\n      swap2\n      swap1\n      tag_401\n      jump\t// in\n    tag_400:\n        /* \"GoWorkspace/github.com/hdlabs-ro/sc_base/us-contracts/PairUsdtRont.sol\":13444:13467  z = uint224(y) * 2**112 */\n      swap1\n      pop\n        /* \"GoWorkspace/github.com/hdlabs-ro/sc_base/us-contracts/PairUsdtRont.sol\":13373:13493  function encode(uint112 y) internal pure returns (uint224 z) {... */\n      swap2\n      swap1\n      pop\n      jump\t// out\n        /* \"#utility.yul\":88:205   */\n    tag_403:\n        /* \"#utility.yul\":197:198   */\n      0x00\n        /* \"#utility.yul\":194:195   */\n      dup1\n        /* \"#utility.yul\":187:199   */\n      revert\n        /* \"#utility.yul\":211:328   */\n    tag_404:\n        /* \"#utility.yul\":320:321   */\n      0x00\n        /* \"#utility.yul\":317:318   */\n      dup1\n        /* \"#utility.yul\":310:322   */\n      revert\n        /* \"#utility.yul\":334:411   */\n    tag_405:\n        /* \"#utility.yul\":371:378   */\n      0x00\n        /* \"#utility.yul\":400:405   */\n      dup2\n        /* \"#utility.yul\":389:405   */\n      swap1\n      pop\n        /* \"#utility.yul\":334:411   */\n      swap2\n      swap1\n      pop\n      jump\t// out\n        /* \"#utility.yul\":417:539   */\n    tag_406:\n        /* \"#utility.yul\":490:514   */\n      tag_479\n        /* \"#utility.yul\":508:513   */\n      dup2\n        /* \"#utility.yul\":490:514   */\n      tag_405\n      jump\t// in\n    tag_479:\n        /* \"#utility.yul\":483:488   */\n      dup2\n        /* \"#utility.yul\":480:515   */\n      eq\n        /* \"#utility.yul\":470:533   */\n      tag_480\n      jumpi\n        /* \"#utility.yul\":529:530   */\n      0x00\n        /* \"#utility.yul\":526:527   */\n      dup1\n        /* \"#utility.yul\":519:531   */\n      revert\n        /* \"#utility.yul\":470:533   */\n    tag_480:\n        /* \"#utility.yul\":417:539   */\n      pop\n      jump\t// out\n        /* \"#utility.yul\":545:684   */\n    tag_407:\n        /* \"#utility.yul\":591:596   */\n      0x00\n        /* \"#utility.yul\":629:635   */\n      dup2\n        /* \"#utility.yul\":616:636   */\n      calldataload\n        /* \"#utility.yul\":607:636   */\n      swap1\n      pop\n        /* \"#utility.yul\":645:678   */\n      tag_482\n        /* \"#utility.yul\":672:677   */\n      dup2\n        /* \"#utility.yul\":645:678   */\n      tag_406\n      jump\t// in\n    tag_482:\n        /* \"#utility.yul\":545:684   */\n      swap3\n      swap2\n      pop\n      pop\n      jump\t// out\n        /* \"#utility.yul\":690:816   */\n    tag_408:\n        /* \"#utility.yul\":727:734   */\n      0x00\n        /* \"#utility.yul\":767:809   */\n      0xffffffffffffffffffffffffffffffffffffffff\n        /* \"#utility.yul\":760:765   */\n      dup3\n        /* \"#utility.yul\":756:810   */\n      and\n        /* \"#utility.yul\":745:810   */\n      swap1\n      pop\n        /* \"#utility.yul\":690:816   */\n      swap2\n      swap1\n      pop\n      jump\t// out\n        /* \"#utility.yul\":822:918   */\n    tag_409:\n        /* \"#utility.yul\":859:866   */\n      0x00\n        /* \"#utility.yul\":888:912   */\n      tag_485\n        /* \"#utility.yul\":906:911   */\n      dup3\n        /* \"#utility.yul\":888:912   */\n      tag_408\n      jump\t// in\n    tag_485:\n        /* \"#utility.yul\":877:912   */\n      swap1\n      pop\n        /* \"#utility.yul\":822:918   */\n      swap2\n      swap1\n      pop\n      jump\t// out\n        /* \"#utility.yul\":924:1046   */\n    tag_410:\n        /* \"#utility.yul\":997:1021   */\n      tag_487\n        /* \"#utility.yul\":1015:1020   */\n      dup2\n        /* \"#utility.yul\":997:1021   */\n      tag_409\n      jump\t// in\n    tag_487:\n        /* \"#utility.yul\":990:995   */\n      dup2\n        /* \"#utility.yul\":987:1022   */\n      eq\n        /* \"#utility.yul\":977:1040   */\n      tag_488\n      jumpi\n        /* \"#utility.yul\":1036:1037   */\n      0x00\n        /* \"#utility.yul\":1033:1034   */\n      dup1\n        /* \"#utility.yul\":1026:1038   */\n      revert\n        /* \"#utility.yul\":977:1040   */\n    tag_488:\n        /* \"#utility.yul\":924:1046   */\n      pop\n      jump\t// out\n        /* \"#utility.yul\":1052:1191   */\n    tag_411:\n        /* \"#utility.yul\":1098:1103   */\n      0x00\n        /* \"#utility.yul\":1136:1142   */\n      dup2\n        /* \"#utility.yul\":1123:1143   */\n      calldataload\n        /* \"#utility.yul\":1114:1143   */\n      swap1\n      pop\n        /* \"#utility.yul\":1152:1185   */\n      tag_490\n        /* \"#utility.yul\":1179:1184   */\n      dup2\n        /* \"#utility.yul\":1152:1185   */\n      tag_410\n      jump\t// in\n    tag_490:\n        /* \"#utility.yul\":1052:1191   */\n      swap3\n      swap2\n      pop\n      pop\n      jump\t// out\n        /* \"#utility.yul\":1197:1314   */\n    tag_412:\n        /* \"#utility.yul\":1306:1307   */\n      0x00\n        /* \"#utility.yul\":1303:1304   */\n      dup1\n        /* \"#utility.yul\":1296:1308   */\n      revert\n        /* \"#utility.yul\":1320:1437   */\n    tag_413:\n        /* \"#utility.yul\":1429:1430   */\n      0x00\n        /* \"#utility.yul\":1426:1427   */\n      dup1\n        /* \"#utility.yul\":1419:1431   */\n      revert\n        /* \"#utility.yul\":1443:1560   */\n    tag_414:\n        /* \"#utility.yul\":1552:1553   */\n      0x00\n        /* \"#utility.yul\":1549:1550   */\n      dup1\n        /* \"#utility.yul\":1542:1554   */\n      revert\n        /* \"#utility.yul\":1579:2131   */\n    tag_415:\n        /* \"#utility.yul\":1636:1644   */\n      0x00\n        /* \"#utility.yul\":1646:1652   */\n      dup1\n        /* \"#utility.yul\":1696:1699   */\n      dup4\n        /* \"#utility.yul\":1689:1693   */\n      0x1f\n        /* \"#utility.yul\":1681:1687   */\n      dup5\n        /* \"#utility.yul\":1677:1694   */\n      add\n        /* \"#utility.yul\":1673:1700   */\n      slt\n        /* \"#utility.yul\":1663:1785   */\n      tag_495\n      jumpi\n        /* \"#utility.yul\":1704:1783   */\n      tag_496\n      tag_412\n      jump\t// in\n    tag_496:\n        /* \"#utility.yul\":1663:1785   */\n    tag_495:\n        /* \"#utility.yul\":1817:1823   */\n      dup3\n        /* \"#utility.yul\":1804:1824   */\n      calldataload\n        /* \"#utility.yul\":1794:1824   */\n      swap1\n      pop\n        /* \"#utility.yul\":1847:1865   */\n      0xffffffffffffffff\n        /* \"#utility.yul\":1839:1845   */\n      dup2\n        /* \"#utility.yul\":1836:1866   */\n      gt\n        /* \"#utility.yul\":1833:1950   */\n      iszero\n      tag_497\n      jumpi\n        /* \"#utility.yul\":1869:1948   */\n      tag_498\n      tag_413\n      jump\t// in\n    tag_498:\n        /* \"#utility.yul\":1833:1950   */\n    tag_497:\n        /* \"#utility.yul\":1983:1987   */\n      0x20\n        /* \"#utility.yul\":1975:1981   */\n      dup4\n        /* \"#utility.yul\":1971:1988   */\n      add\n        /* \"#utility.yul\":1959:1988   */\n      swap2\n      pop\n        /* \"#utility.yul\":2037:2040   */\n      dup4\n        /* \"#utility.yul\":2029:2033   */\n      0x01\n        /* \"#utility.yul\":2021:2027   */\n      dup3\n        /* \"#utility.yul\":2017:2034   */\n      mul\n        /* \"#utility.yul\":2007:2015   */\n      dup4\n        /* \"#utility.yul\":2003:2035   */\n      add\n        /* \"#utility.yul\":2000:2041   */\n      gt\n        /* \"#utility.yul\":1997:2125   */\n      iszero\n      tag_499\n      jumpi\n        /* \"#utility.yul\":2044:2123   */\n      tag_500\n      tag_414\n      jump\t// in\n    tag_500:\n        /* \"#utility.yul\":1997:2125   */\n    tag_499:\n        /* \"#utility.yul\":1579:2131   */\n      swap3\n      pop\n      swap3\n      swap1\n      pop\n      jump\t// out\n        /* \"#utility.yul\":2137:3100   */\n    tag_34:\n        /* \"#utility.yul\":2234:2240   */\n      0x00\n        /* \"#utility.yul\":2242:2248   */\n      dup1\n        /* \"#utility.yul\":2250:2256   */\n      0x00\n        /* \"#utility.yul\":2258:2264   */\n      dup1\n        /* \"#utility.yul\":2266:2272   */\n      0x00\n        /* \"#utility.yul\":2315:2318   */\n      0x80\n        /* \"#utility.yul\":2303:2312   */\n      dup7\n        /* \"#utility.yul\":2294:2301   */\n      dup9\n        /* \"#utility.yul\":2290:2313   */\n      sub\n        /* \"#utility.yul\":2286:2319   */\n      slt\n        /* \"#utility.yul\":2283:2403   */\n      iszero\n      tag_502\n      jumpi\n        /* \"#utility.yul\":2322:2401   */\n      tag_503\n      tag_403\n      jump\t// in\n    tag_503:\n        /* \"#utility.yul\":2283:2403   */\n    tag_502:\n        /* \"#utility.yul\":2442:2443   */\n      0x00\n        /* \"#utility.yul\":2467:2520   */\n      tag_504\n        /* \"#utility.yul\":2512:2519   */\n      dup9\n        /* \"#utility.yul\":2503:2509   */\n      dup3\n        /* \"#utility.yul\":2492:2501   */\n      dup10\n        /* \"#utility.yul\":2488:2510   */\n      add\n        /* \"#utility.yul\":2467:2520   */\n      tag_407\n      jump\t// in\n    tag_504:\n        /* \"#utility.yul\":2457:2520   */\n      swap6\n      pop\n        /* \"#utility.yul\":2413:2530   */\n      pop\n        /* \"#utility.yul\":2569:2571   */\n      0x20\n        /* \"#utility.yul\":2595:2648   */\n      tag_505\n        /* \"#utility.yul\":2640:2647   */\n      dup9\n        /* \"#utility.yul\":2631:2637   */\n      dup3\n        /* \"#utility.yul\":2620:2629   */\n      dup10\n        /* \"#utility.yul\":2616:2638   */\n      add\n        /* \"#utility.yul\":2595:2648   */\n      tag_407\n      jump\t// in\n    tag_505:\n        /* \"#utility.yul\":2585:2648   */\n      swap5\n      pop\n        /* \"#utility.yul\":2540:2658   */\n      pop\n        /* \"#utility.yul\":2697:2699   */\n      0x40\n        /* \"#utility.yul\":2723:2776   */\n      tag_506\n        /* \"#utility.yul\":2768:2775   */\n      dup9\n        /* \"#utility.yul\":2759:2765   */\n      dup3\n        /* \"#utility.yul\":2748:2757   */\n      dup10\n        /* \"#utility.yul\":2744:2766   */\n      add\n        /* \"#utility.yul\":2723:2776   */\n      tag_411\n      jump\t// in\n    tag_506:\n        /* \"#utility.yul\":2713:2776   */\n      swap4\n      pop\n        /* \"#utility.yul\":2668:2786   */\n      pop\n        /* \"#utility.yul\":2853:2855   */\n      0x60\n        /* \"#utility.yul\":2842:2851   */\n      dup7\n        /* \"#utility.yul\":2838:2856   */\n      add\n        /* \"#utility.yul\":2825:2857   */\n      calldataload\n        /* \"#utility.yul\":2884:2902   */\n      0xffffffffffffffff\n        /* \"#utility.yul\":2876:2882   */\n      dup2\n        /* \"#utility.yul\":2873:2903   */\n      gt\n        /* \"#utility.yul\":2870:2987   */\n      iszero\n      tag_507\n      jumpi\n        /* \"#utility.yul\":2906:2985   */\n      tag_508\n      tag_404\n      jump\t// in\n    tag_508:\n        /* \"#utility.yul\":2870:2987   */\n    tag_507:\n        /* \"#utility.yul\":3019:3083   */\n      tag_509\n        /* \"#utility.yul\":3075:3082   */\n      dup9\n        /* \"#utility.yul\":3066:3072   */\n      dup3\n        /* \"#utility.yul\":3055:3064   */\n      dup10\n        /* \"#utility.yul\":3051:3073   */\n      add\n        /* \"#utility.yul\":3019:3083   */\n      tag_415\n      jump\t// in\n    tag_509:\n        /* \"#utility.yul\":3001:3083   */\n      swap3\n      pop\n      swap3\n      pop\n        /* \"#utility.yul\":2796:3093   */\n      pop\n        /* \"#utility.yul\":2137:3100   */\n      swap3\n      swap6\n      pop\n      swap3\n      swap6\n      swap1\n      swap4\n      pop\n      jump\t// out\n        /* \"#utility.yul\":3106:3205   */\n    tag_416:\n        /* \"#utility.yul\":3158:3164   */\n      0x00\n        /* \"#utility.yul\":3192:3197   */\n      dup2\n        /* \"#utility.yul\":3186:3198   */\n      mload\n        /* \"#utility.yul\":3176:3198   */\n      swap1\n      pop\n        /* \"#utility.yul\":3106:3205   */\n      swap2\n      swap1\n      pop\n      jump\t// out\n        /* \"#utility.yul\":3211:3380   */\n    tag_417:\n        /* \"#utility.yul\":3295:3306   */\n      0x00\n        /* \"#utility.yul\":3329:3335   */\n      dup3\n        /* \"#utility.yul\":3324:3327   */\n      dup3\n        /* \"#utility.yul\":3317:3336   */\n      mstore\n        /* \"#utility.yul\":3369:3373   */\n      0x20\n        /* \"#utility.yul\":3364:3367   */\n      dup3\n        /* \"#utility.yul\":3360:3374   */\n      add\n        /* \"#utility.yul\":3345:3374   */\n      swap1\n      pop\n        /* \"#utility.yul\":3211:3380   */\n      swap3\n      swap2\n      pop\n      pop\n      jump\t// out\n        /* \"#utility.yul\":3386:3632   */\n    tag_418:\n        /* \"#utility.yul\":3467:3468   */\n      0x00\n        /* \"#utility.yul\":3477:3590   */\n    tag_513:\n        /* \"#utility.yul\":3491:3497   */\n      dup4\n        /* \"#utility.yul\":3488:3489   */\n      dup2\n        /* \"#utility.yul\":3485:3498   */\n      lt\n        /* \"#utility.yul\":3477:3590   */\n      iszero\n      tag_515\n      jumpi\n        /* \"#utility.yul\":3576:3577   */\n      dup1\n        /* \"#utility.yul\":3571:3574   */\n      dup3\n        /* \"#utility.yul\":3567:3578   */\n      add\n        /* \"#utility.yul\":3561:3579   */\n      mload\n        /* \"#utility.yul\":3557:3558   */\n      dup2\n        /* \"#utility.yul\":3552:3555   */\n      dup5\n        /* \"#utility.yul\":3548:3559   */\n      add\n        /* \"#utility.yul\":3541:3580   */\n      mstore\n        /* \"#utility.yul\":3513:3515   */\n      0x20\n        /* \"#utility.yul\":3510:3511   */\n      dup2\n        /* \"#utility.yul\":3506:3516   */\n      add\n        /* \"#utility.yul\":3501:3516   */\n      swap1\n      pop\n        /* \"#utility.yul\":3477:3590   */\n      jump(tag_513)\n    tag_515:\n        /* \"#utility.yul\":3624:3625   */\n      0x00\n        /* \"#utility.yul\":3615:3621   */\n      dup5\n        /* \"#utility.yul\":3610:3613   */\n      dup5\n        /* \"#utility.yul\":3606:3622   */\n      add\n        /* \"#utility.yul\":3599:3626   */\n      mstore\n        /* \"#utility.yul\":3448:3632   */\n      pop\n        /* \"#utility.yul\":3386:3632   */\n      pop\n      pop\n      pop\n      jump\t// out\n        /* \"#utility.yul\":3638:3740   */\n    tag_419:\n        /* \"#utility.yul\":3679:3685   */\n      0x00\n        /* \"#utility.yul\":3730:3732   */\n      0x1f\n        /* \"#utility.yul\":3726:3733   */\n      not\n        /* \"#utility.yul\":3721:3723   */\n      0x1f\n        /* \"#utility.yul\":3714:3719   */\n      dup4\n        /* \"#utility.yul\":3710:3724   */\n      add\n        /* \"#utility.yul\":3706:3734   */\n      and\n        /* \"#utility.yul\":3696:3734   */\n      swap1\n      pop\n        /* \"#utility.yul\":3638:3740   */\n      swap2\n      swap1\n      pop\n      jump\t// out\n        /* \"#utility.yul\":3746:4123   */\n    tag_420:\n        /* \"#utility.yul\":3834:3837   */\n      0x00\n        /* \"#utility.yul\":3862:3901   */\n      tag_518\n        /* \"#utility.yul\":3895:3900   */\n      dup3\n        /* \"#utility.yul\":3862:3901   */\n      tag_416\n      jump\t// in\n    tag_518:\n        /* \"#utility.yul\":3917:3988   */\n      tag_519\n        /* \"#utility.yul\":3981:3987   */\n      dup2\n        /* \"#utility.yul\":3976:3979   */\n      dup6\n        /* \"#utility.yul\":3917:3988   */\n      tag_417\n      jump\t// in\n    tag_519:\n        /* \"#utility.yul\":3910:3988   */\n      swap4\n      pop\n        /* \"#utility.yul\":3997:4062   */\n      tag_520\n        /* \"#utility.yul\":4055:4061   */\n      dup2\n        /* \"#utility.yul\":4050:4053   */\n      dup6\n        /* \"#utility.yul\":4043:4047   */\n      0x20\n        /* \"#utility.yul\":4036:4041   */\n      dup7\n        /* \"#utility.yul\":4032:4048   */\n      add\n        /* \"#utility.yul\":3997:4062   */\n      tag_418\n      jump\t// in\n    tag_520:\n        /* \"#utility.yul\":4087:4116   */\n      tag_521\n        /* \"#utility.yul\":4109:4115   */\n      dup2\n        /* \"#utility.yul\":4087:4116   */\n      tag_419\n      jump\t// in\n    tag_521:\n        /* \"#utility.yul\":4082:4085   */\n      dup5\n        /* \"#utility.yul\":4078:4117   */\n      add\n        /* \"#utility.yul\":4071:4117   */\n      swap2\n      pop\n        /* \"#utility.yul\":3838:4123   */\n      pop\n        /* \"#utility.yul\":3746:4123   */\n      swap3\n      swap2\n      pop\n      pop\n      jump\t// out\n        /* \"#utility.yul\":4129:4442   */\n    tag_39:\n        /* \"#utility.yul\":4242:4246   */\n      0x00\n        /* \"#utility.yul\":4280:4282   */\n      0x20\n        /* \"#utility.yul\":4269:4278   */\n      dup3\n        /* \"#utility.yul\":4265:4283   */\n      add\n        /* \"#utility.yul\":4257:4283   */\n      swap1\n      pop\n        /* \"#utility.yul\":4329:4338   */\n      dup2\n        /* \"#utility.yul\":4323:4327   */\n      dup2\n        /* \"#utility.yul\":4319:4339   */\n      sub\n        /* \"#utility.yul\":4315:4316   */\n      0x00\n        /* \"#utility.yul\":4304:4313   */\n      dup4\n        /* \"#utility.yul\":4300:4317   */\n      add\n        /* \"#utility.yul\":4293:4340   */\n      mstore\n        /* \"#utility.yul\":4357:4435   */\n      tag_523\n        /* \"#utility.yul\":4430:4434   */\n      dup2\n        /* \"#utility.yul\":4421:4427   */\n      dup5\n        /* \"#utility.yul\":4357:4435   */\n      tag_420\n      jump\t// in\n    tag_523:\n        /* \"#utility.yul\":4349:4435   */\n      swap1\n      pop\n        /* \"#utility.yul\":4129:4442   */\n      swap3\n      swap2\n      pop\n      pop\n      jump\t// out\n        /* \"#utility.yul\":4448:4562   */\n    tag_421:\n        /* \"#utility.yul\":4485:4492   */\n      0x00\n        /* \"#utility.yul\":4525:4555   */\n      0xffffffffffffffffffffffffffff\n        /* \"#utility.yul\":4518:4523   */\n      dup3\n        /* \"#utility.yul\":4514:4556   */\n      and\n        /* \"#utility.yul\":4503:4556   */\n      swap1\n      pop\n        /* \"#utility.yul\":4448:4562   */\n      swap2\n      swap1\n      pop\n      jump\t// out\n        /* \"#utility.yul\":4568:4686   */\n    tag_422:\n        /* \"#utility.yul\":4655:4679   */\n      tag_526\n        /* \"#utility.yul\":4673:4678   */\n      dup2\n        /* \"#utility.yul\":4655:4679   */\n      tag_421\n      jump\t// in\n    tag_526:\n        /* \"#utility.yul\":4650:4653   */\n      dup3\n        /* \"#utility.yul\":4643:4680   */\n      mstore\n        /* \"#utility.yul\":4568:4686   */\n      pop\n      pop\n      jump\t// out\n        /* \"#utility.yul\":4692:4785   */\n    tag_423:\n        /* \"#utility.yul\":4728:4735   */\n      0x00\n        /* \"#utility.yul\":4768:4778   */\n      0xffffffff\n        /* \"#utility.yul\":4761:4766   */\n      dup3\n        /* \"#utility.yul\":4757:4779   */\n      and\n        /* \"#utility.yul\":4746:4779   */\n      swap1\n      pop\n        /* \"#utility.yul\":4692:4785   */\n      swap2\n      swap1\n      pop\n      jump\t// out\n        /* \"#utility.yul\":4791:4906   */\n    tag_424:\n        /* \"#utility.yul\":4876:4899   */\n      tag_529\n        /* \"#utility.yul\":4893:4898   */\n      dup2\n        /* \"#utility.yul\":4876:4899   */\n      tag_423\n      jump\t// in\n    tag_529:\n        /* \"#utility.yul\":4871:4874   */\n      dup3\n        /* \"#utility.yul\":4864:4900   */\n      mstore\n        /* \"#utility.yul\":4791:4906   */\n      pop\n      pop\n      jump\t// out\n        /* \"#utility.yul\":4912:5350   */\n    tag_43:\n        /* \"#utility.yul\":5059:5063   */\n      0x00\n        /* \"#utility.yul\":5097:5099   */\n      0x60\n        /* \"#utility.yul\":5086:5095   */\n      dup3\n        /* \"#utility.yul\":5082:5100   */\n      add\n        /* \"#utility.yul\":5074:5100   */\n      swap1\n      pop\n        /* \"#utility.yul\":5110:5181   */\n      tag_531\n        /* \"#utility.yul\":5178:5179   */\n      0x00\n        /* \"#utility.yul\":5167:5176   */\n      dup4\n        /* \"#utility.yul\":5163:5180   */\n      add\n        /* \"#utility.yul\":5154:5160   */\n      dup7\n        /* \"#utility.yul\":5110:5181   */\n      tag_422\n      jump\t// in\n    tag_531:\n        /* \"#utility.yul\":5191:5263   */\n      tag_532\n        /* \"#utility.yul\":5259:5261   */\n      0x20\n        /* \"#utility.yul\":5248:5257   */\n      dup4\n        /* \"#utility.yul\":5244:5262   */\n      add\n        /* \"#utility.yul\":5235:5241   */\n      dup6\n        /* \"#utility.yul\":5191:5263   */\n      tag_422\n      jump\t// in\n    tag_532:\n        /* \"#utility.yul\":5273:5343   */\n      tag_533\n        /* \"#utility.yul\":5339:5341   */\n      0x40\n        /* \"#utility.yul\":5328:5337   */\n      dup4\n        /* \"#utility.yul\":5324:5342   */\n      add\n        /* \"#utility.yul\":5315:5321   */\n      dup5\n        /* \"#utility.yul\":5273:5343   */\n      tag_424\n      jump\t// in\n    tag_533:\n        /* \"#utility.yul\":4912:5350   */\n      swap5\n      swap4\n      pop\n      pop\n      pop\n      pop\n      jump\t// out\n        /* \"#utility.yul\":5356:5830   */\n    tag_46:\n        /* \"#utility.yul\":5424:5430   */\n      0x00\n        /* \"#utility.yul\":5432:5438   */\n      dup1\n        /* \"#utility.yul\":5481:5483   */\n      0x40\n        /* \"#utility.yul\":5469:5478   */\n      dup4\n        /* \"#utility.yul\":5460:5467   */\n      dup6\n        /* \"#utility.yul\":5456:5479   */\n      sub\n        /* \"#utility.yul\":5452:5484   */\n      slt\n        /* \"#utility.yul\":5449:5568   */\n      iszero\n      tag_535\n      jumpi\n        /* \"#utility.yul\":5487:5566   */\n      tag_536\n      tag_403\n      jump\t// in\n    tag_536:\n        /* \"#utility.yul\":5449:5568   */\n    tag_535:\n        /* \"#utility.yul\":5607:5608   */\n      0x00\n        /* \"#utility.yul\":5632:5685   */\n      tag_537\n        /* \"#utility.yul\":5677:5684   */\n      dup6\n        /* \"#utility.yul\":5668:5674   */\n      dup3\n        /* \"#utility.yul\":5657:5666   */\n      dup7\n        /* \"#utility.yul\":5653:5675   */\n      add\n        /* \"#utility.yul\":5632:5685   */\n      tag_411\n      jump\t// in\n    tag_537:\n        /* \"#utility.yul\":5622:5685   */\n      swap3\n      pop\n        /* \"#utility.yul\":5578:5695   */\n      pop\n        /* \"#utility.yul\":5734:5736   */\n      0x20\n        /* \"#utility.yul\":5760:5813   */\n      tag_538\n        /* \"#utility.yul\":5805:5812   */\n      dup6\n        /* \"#utility.yul\":5796:5802   */\n      dup3\n        /* \"#utility.yul\":5785:5794   */\n      dup7\n        /* \"#utility.yul\":5781:5803   */\n      add\n        /* \"#utility.yul\":5760:5813   */\n      tag_407\n      jump\t// in\n    tag_538:\n        /* \"#utility.yul\":5750:5813   */\n      swap2\n      pop\n        /* \"#utility.yul\":5705:5823   */\n      pop\n        /* \"#utility.yul\":5356:5830   */\n      swap3\n      pop\n      swap3\n      swap1\n      pop\n      jump\t// out\n        /* \"#utility.yul\":5836:5926   */\n    tag_425:\n        /* \"#utility.yul\":5870:5877   */\n      0x00\n        /* \"#utility.yul\":5913:5918   */\n      dup2\n        /* \"#utility.yul\":5906:5919   */\n      iszero\n        /* \"#utility.yul\":5899:5920   */\n      iszero\n        /* \"#utility.yul\":5888:5920   */\n      swap1\n      pop\n        /* \"#utility.yul\":5836:5926   */\n      swap2\n      swap1\n      pop\n      jump\t// out\n        /* \"#utility.yul\":5932:6041   */\n    tag_426:\n        /* \"#utility.yul\":6013:6034   */\n      tag_541\n        /* \"#utility.yul\":6028:6033   */\n      dup2\n        /* \"#utility.yul\":6013:6034   */\n      tag_425\n      jump\t// in\n    tag_541:\n        /* \"#utility.yul\":6008:6011   */\n      dup3\n        /* \"#utility.yul\":6001:6035   */\n      mstore\n        /* \"#utility.yul\":5932:6041   */\n      pop\n      pop\n      jump\t// out\n        /* \"#utility.yul\":6047:6257   */\n    tag_49:\n        /* \"#utility.yul\":6134:6138   */\n      0x00\n        /* \"#utility.yul\":6172:6174   */\n      0x20\n        /* \"#utility.yul\":6161:6170   */\n      dup3\n        /* \"#utility.yul\":6157:6175   */\n      add\n        /* \"#utility.yul\":6149:6175   */\n      swap1\n      pop\n        /* \"#utility.yul\":6185:6250   */\n      tag_543\n        /* \"#utility.yul\":6247:6248   */\n      0x00\n        /* \"#utility.yul\":6236:6245   */\n      dup4\n        /* \"#utility.yul\":6232:6249   */\n      add\n        /* \"#utility.yul\":6223:6229   */\n      dup5\n        /* \"#utility.yul\":6185:6250   */\n      tag_426\n      jump\t// in\n    tag_543:\n        /* \"#utility.yul\":6047:6257   */\n      swap3\n      swap2\n      pop\n      pop\n      jump\t// out\n        /* \"#utility.yul\":6263:6381   */\n    tag_427:\n        /* \"#utility.yul\":6350:6374   */\n      tag_545\n        /* \"#utility.yul\":6368:6373   */\n      dup2\n        /* \"#utility.yul\":6350:6374   */\n      tag_409\n      jump\t// in\n    tag_545:\n        /* \"#utility.yul\":6345:6348   */\n      dup3\n        /* \"#utility.yul\":6338:6375   */\n      mstore\n        /* \"#utility.yul\":6263:6381   */\n      pop\n      pop\n      jump\t// out\n        /* \"#utility.yul\":6387:6609   */\n    tag_53:\n        /* \"#utility.yul\":6480:6484   */\n      0x00\n        /* \"#utility.yul\":6518:6520   */\n      0x20\n        /* \"#utility.yul\":6507:6516   */\n      dup3\n        /* \"#utility.yul\":6503:6521   */\n      add\n        /* \"#utility.yul\":6495:6521   */\n      swap1\n      pop\n        /* \"#utility.yul\":6531:6602   */\n      tag_547\n        /* \"#utility.yul\":6599:6600   */\n      0x00\n        /* \"#utility.yul\":6588:6597   */\n      dup4\n        /* \"#utility.yul\":6584:6601   */\n      add\n        /* \"#utility.yul\":6575:6581   */\n      dup5\n        /* \"#utility.yul\":6531:6602   */\n      tag_427\n      jump\t// in\n    tag_547:\n        /* \"#utility.yul\":6387:6609   */\n      swap3\n      swap2\n      pop\n      pop\n      jump\t// out\n        /* \"#utility.yul\":6615:6733   */\n    tag_428:\n        /* \"#utility.yul\":6702:6726   */\n      tag_549\n        /* \"#utility.yul\":6720:6725   */\n      dup2\n        /* \"#utility.yul\":6702:6726   */\n      tag_405\n      jump\t// in\n    tag_549:\n        /* \"#utility.yul\":6697:6700   */\n      dup3\n        /* \"#utility.yul\":6690:6727   */\n      mstore\n        /* \"#utility.yul\":6615:6733   */\n      pop\n      pop\n      jump\t// out\n        /* \"#utility.yul\":6739:6961   */\n    tag_57:\n        /* \"#utility.yul\":6832:6836   */\n      0x00\n        /* \"#utility.yul\":6870:6872   */\n      0x20\n        /* \"#utility.yul\":6859:6868   */\n      dup3\n        /* \"#utility.yul\":6855:6873   */\n      add\n        /* \"#utility.yul\":6847:6873   */\n      swap1\n      pop\n        /* \"#utility.yul\":6883:6954   */\n      tag_551\n        /* \"#utility.yul\":6951:6952   */\n      0x00\n        /* \"#utility.yul\":6940:6949   */\n      dup4\n        /* \"#utility.yul\":6936:6953   */\n      add\n        /* \"#utility.yul\":6927:6933   */\n      dup5\n        /* \"#utility.yul\":6883:6954   */\n      tag_428\n      jump\t// in\n    tag_551:\n        /* \"#utility.yul\":6739:6961   */\n      swap3\n      swap2\n      pop\n      pop\n      jump\t// out\n        /* \"#utility.yul\":6967:7586   */\n    tag_60:\n        /* \"#utility.yul\":7044:7050   */\n      0x00\n        /* \"#utility.yul\":7052:7058   */\n      dup1\n        /* \"#utility.yul\":7060:7066   */\n      0x00\n        /* \"#utility.yul\":7109:7111   */\n      0x60\n        /* \"#utility.yul\":7097:7106   */\n      dup5\n        /* \"#utility.yul\":7088:7095   */\n      dup7\n        /* \"#utility.yul\":7084:7107   */\n      sub\n        /* \"#utility.yul\":7080:7112   */\n      slt\n        /* \"#utility.yul\":7077:7196   */\n      iszero\n      tag_553\n      jumpi\n        /* \"#utility.yul\":7115:7194   */\n      tag_554\n      tag_403\n      jump\t// in\n    tag_554:\n        /* \"#utility.yul\":7077:7196   */\n    tag_553:\n        /* \"#utility.yul\":7235:7236   */\n      0x00\n        /* \"#utility.yul\":7260:7313   */\n      tag_555\n        /* \"#utility.yul\":7305:7312   */\n      dup7\n        /* \"#utility.yul\":7296:7302   */\n      dup3\n        /* \"#utility.yul\":7285:7294   */\n      dup8\n        /* \"#utility.yul\":7281:7303   */\n      add\n        /* \"#utility.yul\":7260:7313   */\n      tag_411\n      jump\t// in\n    tag_555:\n        /* \"#utility.yul\":7250:7313   */\n      swap4\n      pop\n        /* \"#utility.yul\":7206:7323   */\n      pop\n        /* \"#utility.yul\":7362:7364   */\n      0x20\n        /* \"#utility.yul\":7388:7441   */\n      tag_556\n        /* \"#utility.yul\":7433:7440   */\n      dup7\n        /* \"#utility.yul\":7424:7430   */\n      dup3\n        /* \"#utility.yul\":7413:7422   */\n      dup8\n        /* \"#utility.yul\":7409:7431   */\n      add\n        /* \"#utility.yul\":7388:7441   */\n      tag_411\n      jump\t// in\n    tag_556:\n        /* \"#utility.yul\":7378:7441   */\n      swap3\n      pop\n        /* \"#utility.yul\":7333:7451   */\n      pop\n        /* \"#utility.yul\":7490:7492   */\n      0x40\n        /* \"#utility.yul\":7516:7569   */\n      tag_557\n        /* \"#utility.yul\":7561:7568   */\n      dup7\n        /* \"#utility.yul\":7552:7558   */\n      dup3\n        /* \"#utility.yul\":7541:7550   */\n      dup8\n        /* \"#utility.yul\":7537:7559   */\n      add\n        /* \"#utility.yul\":7516:7569   */\n      tag_407\n      jump\t// in\n    tag_557:\n        /* \"#utility.yul\":7506:7569   */\n      swap2\n      pop\n        /* \"#utility.yul\":7461:7579   */\n      pop\n        /* \"#utility.yul\":6967:7586   */\n      swap3\n      pop\n      swap3\n      pop\n      swap3\n      jump\t// out\n        /* \"#utility.yul\":7592:7669   */\n    tag_429:\n        /* \"#utility.yul\":7629:7636   */\n      0x00\n        /* \"#utility.yul\":7658:7663   */\n      dup2\n        /* \"#utility.yul\":7647:7663   */\n      swap1\n      pop\n        /* \"#utility.yul\":7592:7669   */\n      swap2\n      swap1\n      pop\n      jump\t// out\n        /* \"#utility.yul\":7675:7793   */\n    tag_430:\n        /* \"#utility.yul\":7762:7786   */\n      tag_560\n        /* \"#utility.yul\":7780:7785   */\n      dup2\n        /* \"#utility.yul\":7762:7786   */\n      tag_429\n      jump\t// in\n    tag_560:\n        /* \"#utility.yul\":7757:7760   */\n      dup3\n        /* \"#utility.yul\":7750:7787   */\n      mstore\n        /* \"#utility.yul\":7675:7793   */\n      pop\n      pop\n      jump\t// out\n        /* \"#utility.yul\":7799:8021   */\n    tag_66:\n        /* \"#utility.yul\":7892:7896   */\n      0x00\n        /* \"#utility.yul\":7930:7932   */\n      0x20\n        /* \"#utility.yul\":7919:7928   */\n      dup3\n        /* \"#utility.yul\":7915:7933   */\n      add\n        /* \"#utility.yul\":7907:7933   */\n      swap1\n      pop\n        /* \"#utility.yul\":7943:8014   */\n      tag_562\n        /* \"#utility.yul\":8011:8012   */\n      0x00\n        /* \"#utility.yul\":8000:8009   */\n      dup4\n        /* \"#utility.yul\":7996:8013   */\n      add\n        /* \"#utility.yul\":7987:7993   */\n      dup5\n        /* \"#utility.yul\":7943:8014   */\n      tag_430\n      jump\t// in\n    tag_562:\n        /* \"#utility.yul\":7799:8021   */\n      swap3\n      swap2\n      pop\n      pop\n      jump\t// out\n        /* \"#utility.yul\":8027:8113   */\n    tag_431:\n        /* \"#utility.yul\":8062:8069   */\n      0x00\n        /* \"#utility.yul\":8102:8106   */\n      0xff\n        /* \"#utility.yul\":8095:8100   */\n      dup3\n        /* \"#utility.yul\":8091:8107   */\n      and\n        /* \"#utility.yul\":8080:8107   */\n      swap1\n      pop\n        /* \"#utility.yul\":8027:8113   */\n      swap2\n      swap1\n      pop\n      jump\t// out\n        /* \"#utility.yul\":8119:8231   */\n    tag_432:\n        /* \"#utility.yul\":8202:8224   */\n      tag_565\n        /* \"#utility.yul\":8218:8223   */\n      dup2\n        /* \"#utility.yul\":8202:8224   */\n      tag_431\n      jump\t// in\n    tag_565:\n        /* \"#utility.yul\":8197:8200   */\n      dup3\n        /* \"#utility.yul\":8190:8225   */\n      mstore\n        /* \"#utility.yul\":8119:8231   */\n      pop\n      pop\n      jump\t// out\n        /* \"#utility.yul\":8237:8451   */\n    tag_70:\n        /* \"#utility.yul\":8326:8330   */\n      0x00\n        /* \"#utility.yul\":8364:8366   */\n      0x20\n        /* \"#utility.yul\":8353:8362   */\n      dup3\n        /* \"#utility.yul\":8349:8367   */\n      add\n        /* \"#utility.yul\":8341:8367   */\n      swap1\n      pop\n        /* \"#utility.yul\":8377:8444   */\n      tag_567\n        /* \"#utility.yul\":8441:8442   */\n      0x00\n        /* \"#utility.yul\":8430:8439   */\n      dup4\n        /* \"#utility.yul\":8426:8443   */\n      add\n        /* \"#utility.yul\":8417:8423   */\n      dup5\n        /* \"#utility.yul\":8377:8444   */\n      tag_432\n      jump\t// in\n    tag_567:\n        /* \"#utility.yul\":8237:8451   */\n      swap3\n      swap2\n      pop\n      pop\n      jump\t// out\n        /* \"#utility.yul\":8457:8786   */\n    tag_82:\n        /* \"#utility.yul\":8516:8522   */\n      0x00\n        /* \"#utility.yul\":8565:8567   */\n      0x20\n        /* \"#utility.yul\":8553:8562   */\n      dup3\n        /* \"#utility.yul\":8544:8551   */\n      dup5\n        /* \"#utility.yul\":8540:8563   */\n      sub\n        /* \"#utility.yul\":8536:8568   */\n      slt\n        /* \"#utility.yul\":8533:8652   */\n      iszero\n      tag_569\n      jumpi\n        /* \"#utility.yul\":8571:8650   */\n      tag_570\n      tag_403\n      jump\t// in\n    tag_570:\n        /* \"#utility.yul\":8533:8652   */\n    tag_569:\n        /* \"#utility.yul\":8691:8692   */\n      0x00\n        /* \"#utility.yul\":8716:8769   */\n      tag_571\n        /* \"#utility.yul\":8761:8768   */\n      dup5\n        /* \"#utility.yul\":8752:8758   */\n      dup3\n        /* \"#utility.yul\":8741:8750   */\n      dup6\n        /* \"#utility.yul\":8737:8759   */\n      add\n        /* \"#utility.yul\":8716:8769   */\n      tag_411\n      jump\t// in\n    tag_571:\n        /* \"#utility.yul\":8706:8769   */\n      swap2\n      pop\n        /* \"#utility.yul\":8662:8779   */\n      pop\n        /* \"#utility.yul\":8457:8786   */\n      swap3\n      swap2\n      pop\n      pop\n      jump\t// out\n        /* \"#utility.yul\":8792:9124   */\n    tag_100:\n        /* \"#utility.yul\":8913:8917   */\n      0x00\n        /* \"#utility.yul\":8951:8953   */\n      0x40\n        /* \"#utility.yul\":8940:8949   */\n      dup3\n        /* \"#utility.yul\":8936:8954   */\n      add\n        /* \"#utility.yul\":8928:8954   */\n      swap1\n      pop\n        /* \"#utility.yul\":8964:9035   */\n      tag_573\n        /* \"#utility.yul\":9032:9033   */\n      0x00\n        /* \"#utility.yul\":9021:9030   */\n      dup4\n        /* \"#utility.yul\":9017:9034   */\n      add\n        /* \"#utility.yul\":9008:9014   */\n      dup6\n        /* \"#utility.yul\":8964:9035   */\n      tag_428\n      jump\t// in\n    tag_573:\n        /* \"#utility.yul\":9045:9117   */\n      tag_574\n        /* \"#utility.yul\":9113:9115   */\n      0x20\n        /* \"#utility.yul\":9102:9111   */\n      dup4\n        /* \"#utility.yul\":9098:9116   */\n      add\n        /* \"#utility.yul\":9089:9095   */\n      dup5\n        /* \"#utility.yul\":9045:9117   */\n      tag_428\n      jump\t// in\n    tag_574:\n        /* \"#utility.yul\":8792:9124   */\n      swap4\n      swap3\n      pop\n      pop\n      pop\n      jump\t// out\n        /* \"#utility.yul\":9130:9248   */\n    tag_433:\n        /* \"#utility.yul\":9201:9223   */\n      tag_576\n        /* \"#utility.yul\":9217:9222   */\n      dup2\n        /* \"#utility.yul\":9201:9223   */\n      tag_431\n      jump\t// in\n    tag_576:\n        /* \"#utility.yul\":9194:9199   */\n      dup2\n        /* \"#utility.yul\":9191:9224   */\n      eq\n        /* \"#utility.yul\":9181:9242   */\n      tag_577\n      jumpi\n        /* \"#utility.yul\":9238:9239   */\n      0x00\n        /* \"#utility.yul\":9235:9236   */\n      dup1\n        /* \"#utility.yul\":9228:9240   */\n      revert\n        /* \"#utility.yul\":9181:9242   */\n    tag_577:\n        /* \"#utility.yul\":9130:9248   */\n      pop\n      jump\t// out\n        /* \"#utility.yul\":9254:9389   */\n    tag_434:\n        /* \"#utility.yul\":9298:9303   */\n      0x00\n        /* \"#utility.yul\":9336:9342   */\n      dup2\n        /* \"#utility.yul\":9323:9343   */\n      calldataload\n        /* \"#utility.yul\":9314:9343   */\n      swap1\n      pop\n        /* \"#utility.yul\":9352:9383   */\n      tag_579\n        /* \"#utility.yul\":9377:9382   */\n      dup2\n        /* \"#utility.yul\":9352:9383   */\n      tag_433\n      jump\t// in\n    tag_579:\n        /* \"#utility.yul\":9254:9389   */\n      swap3\n      swap2\n      pop\n      pop\n      jump\t// out\n        /* \"#utility.yul\":9395:9517   */\n    tag_435:\n        /* \"#utility.yul\":9468:9492   */\n      tag_581\n        /* \"#utility.yul\":9486:9491   */\n      dup2\n        /* \"#utility.yul\":9468:9492   */\n      tag_429\n      jump\t// in\n    tag_581:\n        /* \"#utility.yul\":9461:9466   */\n      dup2\n        /* \"#utility.yul\":9458:9493   */\n      eq\n        /* \"#utility.yul\":9448:9511   */\n      tag_582\n      jumpi\n        /* \"#utility.yul\":9507:9508   */\n      0x00\n        /* \"#utility.yul\":9504:9505   */\n      dup1\n        /* \"#utility.yul\":9497:9509   */\n      revert\n        /* \"#utility.yul\":9448:9511   */\n    tag_582:\n        /* \"#utility.yul\":9395:9517   */\n      pop\n      jump\t// out\n        /* \"#utility.yul\":9523:9662   */\n    tag_436:\n        /* \"#utility.yul\":9569:9574   */\n      0x00\n        /* \"#utility.yul\":9607:9613   */\n      dup2\n        /* \"#utility.yul\":9594:9614   */\n      calldataload\n        /* \"#utility.yul\":9585:9614   */\n      swap1\n      pop\n        /* \"#utility.yul\":9623:9656   */\n      tag_584\n        /* \"#utility.yul\":9650:9655   */\n      dup2\n        /* \"#utility.yul\":9623:9656   */\n      tag_435\n      jump\t// in\n    tag_584:\n        /* \"#utility.yul\":9523:9662   */\n      swap3\n      swap2\n      pop\n      pop\n      jump\t// out\n        /* \"#utility.yul\":9668:10867   */\n    tag_119:\n        /* \"#utility.yul\":9779:9785   */\n      0x00\n        /* \"#utility.yul\":9787:9793   */\n      dup1\n        /* \"#utility.yul\":9795:9801   */\n      0x00\n        /* \"#utility.yul\":9803:9809   */\n      dup1\n        /* \"#utility.yul\":9811:9817   */\n      0x00\n        /* \"#utility.yul\":9819:9825   */\n      dup1\n        /* \"#utility.yul\":9827:9833   */\n      0x00\n        /* \"#utility.yul\":9876:9879   */\n      0xe0\n        /* \"#utility.yul\":9864:9873   */\n      dup9\n        /* \"#utility.yul\":9855:9862   */\n      dup11\n        /* \"#utility.yul\":9851:9874   */\n      sub\n        /* \"#utility.yul\":9847:9880   */\n      slt\n        /* \"#utility.yul\":9844:9964   */\n      iszero\n      tag_586\n      jumpi\n        /* \"#utility.yul\":9883:9962   */\n      tag_587\n      tag_403\n      jump\t// in\n    tag_587:\n        /* \"#utility.yul\":9844:9964   */\n    tag_586:\n        /* \"#utility.yul\":10003:10004   */\n      0x00\n        /* \"#utility.yul\":10028:10081   */\n      tag_588\n        /* \"#utility.yul\":10073:10080   */\n      dup11\n        /* \"#utility.yul\":10064:10070   */\n      dup3\n        /* \"#utility.yul\":10053:10062   */\n      dup12\n        /* \"#utility.yul\":10049:10071   */\n      add\n        /* \"#utility.yul\":10028:10081   */\n      tag_411\n      jump\t// in\n    tag_588:\n        /* \"#utility.yul\":10018:10081   */\n      swap8\n      pop\n        /* \"#utility.yul\":9974:10091   */\n      pop\n        /* \"#utility.yul\":10130:10132   */\n      0x20\n        /* \"#utility.yul\":10156:10209   */\n      tag_589\n        /* \"#utility.yul\":10201:10208   */\n      dup11\n        /* \"#utility.yul\":10192:10198   */\n      dup3\n        /* \"#utility.yul\":10181:10190   */\n      dup12\n        /* \"#utility.yul\":10177:10199   */\n      add\n        /* \"#utility.yul\":10156:10209   */\n      tag_411\n      jump\t// in\n    tag_589:\n        /* \"#utility.yul\":10146:10209   */\n      swap7\n      pop\n        /* \"#utility.yul\":10101:10219   */\n      pop\n        /* \"#utility.yul\":10258:10260   */\n      0x40\n        /* \"#utility.yul\":10284:10337   */\n      tag_590\n        /* \"#utility.yul\":10329:10336   */\n      dup11\n        /* \"#utility.yul\":10320:10326   */\n      dup3\n        /* \"#utility.yul\":10309:10318   */\n      dup12\n        /* \"#utility.yul\":10305:10327   */\n      add\n        /* \"#utility.yul\":10284:10337   */\n      tag_407\n      jump\t// in\n    tag_590:\n        /* \"#utility.yul\":10274:10337   */\n      swap6\n      pop\n        /* \"#utility.yul\":10229:10347   */\n      pop\n        /* \"#utility.yul\":10386:10388   */\n      0x60\n        /* \"#utility.yul\":10412:10465   */\n      tag_591\n        /* \"#utility.yul\":10457:10464   */\n      dup11\n        /* \"#utility.yul\":10448:10454   */\n      dup3\n        /* \"#utility.yul\":10437:10446   */\n      dup12\n        /* \"#utility.yul\":10433:10455   */\n      add\n        /* \"#utility.yul\":10412:10465   */\n      tag_407\n      jump\t// in\n    tag_591:\n        /* \"#utility.yul\":10402:10465   */\n      swap5\n      pop\n        /* \"#utility.yul\":10357:10475   */\n      pop\n        /* \"#utility.yul\":10514:10517   */\n      0x80\n        /* \"#utility.yul\":10541:10592   */\n      tag_592\n        /* \"#utility.yul\":10584:10591   */\n      dup11\n        /* \"#utility.yul\":10575:10581   */\n      dup3\n        /* \"#utility.yul\":10564:10573   */\n      dup12\n        /* \"#utility.yul\":10560:10582   */\n      add\n        /* \"#utility.yul\":10541:10592   */\n      tag_434\n      jump\t// in\n    tag_592:\n        /* \"#utility.yul\":10531:10592   */\n      swap4\n      pop\n        /* \"#utility.yul\":10485:10602   */\n      pop\n        /* \"#utility.yul\":10641:10644   */\n      0xa0\n        /* \"#utility.yul\":10668:10721   */\n      tag_593\n        /* \"#utility.yul\":10713:10720   */\n      dup11\n        /* \"#utility.yul\":10704:10710   */\n      dup3\n        /* \"#utility.yul\":10693:10702   */\n      dup12\n        /* \"#utility.yul\":10689:10711   */\n      add\n        /* \"#utility.yul\":10668:10721   */\n      tag_436\n      jump\t// in\n    tag_593:\n        /* \"#utility.yul\":10658:10721   */\n      swap3\n      pop\n        /* \"#utility.yul\":10612:10731   */\n      pop\n        /* \"#utility.yul\":10770:10773   */\n      0xc0\n        /* \"#utility.yul\":10797:10850   */\n      tag_594\n        /* \"#utility.yul\":10842:10849   */\n      dup11\n        /* \"#utility.yul\":10833:10839   */\n      dup3\n        /* \"#utility.yul\":10822:10831   */\n      dup12\n        /* \"#utility.yul\":10818:10840   */\n      add\n        /* \"#utility.yul\":10797:10850   */\n      tag_436\n      jump\t// in\n    tag_594:\n        /* \"#utility.yul\":10787:10850   */\n      swap2\n      pop\n        /* \"#utility.yul\":10741:10860   */\n      pop\n        /* \"#utility.yul\":9668:10867   */\n      swap3\n      swap6\n      swap9\n      swap2\n      swap5\n      swap8\n      pop\n      swap3\n      swap6\n      pop\n      jump\t// out\n        /* \"#utility.yul\":10873:11347   */\n    tag_123:\n        /* \"#utility.yul\":10941:10947   */\n      0x00\n        /* \"#utility.yul\":10949:10955   */\n      dup1\n        /* \"#utility.yul\":10998:11000   */\n      0x40\n        /* \"#utility.yul\":10986:10995   */\n      dup4\n        /* \"#utility.yul\":10977:10984   */\n      dup6\n        /* \"#utility.yul\":10973:10996   */\n      sub\n        /* \"#utility.yul\":10969:11001   */\n      slt\n        /* \"#utility.yul\":10966:11085   */\n      iszero\n      tag_596\n      jumpi\n        /* \"#utility.yul\":11004:11083   */\n      tag_597\n      tag_403\n      jump\t// in\n    tag_597:\n        /* \"#utility.yul\":10966:11085   */\n    tag_596:\n        /* \"#utility.yul\":11124:11125   */\n      0x00\n        /* \"#utility.yul\":11149:11202   */\n      tag_598\n        /* \"#utility.yul\":11194:11201   */\n      dup6\n        /* \"#utility.yul\":11185:11191   */\n      dup3\n        /* \"#utility.yul\":11174:11183   */\n      dup7\n        /* \"#utility.yul\":11170:11192   */\n      add\n        /* \"#utility.yul\":11149:11202   */\n      tag_411\n      jump\t// in\n    tag_598:\n        /* \"#utility.yul\":11139:11202   */\n      swap3\n      pop\n        /* \"#utility.yul\":11095:11212   */\n      pop\n        /* \"#utility.yul\":11251:11253   */\n      0x20\n        /* \"#utility.yul\":11277:11330   */\n      tag_599\n        /* \"#utility.yul\":11322:11329   */\n      dup6\n        /* \"#utility.yul\":11313:11319   */\n      dup3\n        /* \"#utility.yul\":11302:11311   */\n      dup7\n        /* \"#utility.yul\":11298:11320   */\n      add\n        /* \"#utility.yul\":11277:11330   */\n      tag_411\n      jump\t// in\n    tag_599:\n        /* \"#utility.yul\":11267:11330   */\n      swap2\n      pop\n        /* \"#utility.yul\":11222:11340   */\n      pop\n        /* \"#utility.yul\":10873:11347   */\n      swap3\n      pop\n      swap3\n      swap1\n      pop\n      jump\t// out\n        /* \"#utility.yul\":11353:11523   */\n    tag_437:\n        /* \"#utility.yul\":11493:11515   */\n      0x5061697255736474526f6e743a204c4f434b4544000000000000000000000000\n        /* \"#utility.yul\":11489:11490   */\n      0x00\n        /* \"#utility.yul\":11481:11487   */\n      dup3\n        /* \"#utility.yul\":11477:11491   */\n      add\n        /* \"#utility.yul\":11470:11516   */\n      mstore\n        /* \"#utility.yul\":11353:11523   */\n      pop\n      jump\t// out\n        /* \"#utility.yul\":11529:11895   */\n    tag_438:\n        /* \"#utility.yul\":11671:11674   */\n      0x00\n        /* \"#utility.yul\":11692:11759   */\n      tag_602\n        /* \"#utility.yul\":11756:11758   */\n      0x14\n        /* \"#utility.yul\":11751:11754   */\n      dup4\n        /* \"#utility.yul\":11692:11759   */\n      tag_417\n      jump\t// in\n    tag_602:\n        /* \"#utility.yul\":11685:11759   */\n      swap2\n      pop\n        /* \"#utility.yul\":11768:11861   */\n      tag_603\n        /* \"#utility.yul\":11857:11860   */\n      dup3\n        /* \"#utility.yul\":11768:11861   */\n      tag_437\n      jump\t// in\n    tag_603:\n        /* \"#utility.yul\":11886:11888   */\n      0x20\n        /* \"#utility.yul\":11881:11884   */\n      dup3\n        /* \"#utility.yul\":11877:11889   */\n      add\n        /* \"#utility.yul\":11870:11889   */\n      swap1\n      pop\n        /* \"#utility.yul\":11529:11895   */\n      swap2\n      swap1\n      pop\n      jump\t// out\n        /* \"#utility.yul\":11901:12320   */\n    tag_131:\n        /* \"#utility.yul\":12067:12071   */\n      0x00\n        /* \"#utility.yul\":12105:12107   */\n      0x20\n        /* \"#utility.yul\":12094:12103   */\n      dup3\n        /* \"#utility.yul\":12090:12108   */\n      add\n        /* \"#utility.yul\":12082:12108   */\n      swap1\n      pop\n        /* \"#utility.yul\":12154:12163   */\n      dup2\n        /* \"#utility.yul\":12148:12152   */\n      dup2\n        /* \"#utility.yul\":12144:12164   */\n      sub\n        /* \"#utility.yul\":12140:12141   */\n      0x00\n        /* \"#utility.yul\":12129:12138   */\n      dup4\n        /* \"#utility.yul\":12125:12142   */\n      add\n        /* \"#utility.yul\":12118:12165   */\n      mstore\n        /* \"#utility.yul\":12182:12313   */\n      tag_605\n        /* \"#utility.yul\":12308:12312   */\n      dup2\n        /* \"#utility.yul\":12182:12313   */\n      tag_438\n      jump\t// in\n    tag_605:\n        /* \"#utility.yul\":12174:12313   */\n      swap1\n      pop\n        /* \"#utility.yul\":11901:12320   */\n      swap2\n      swap1\n      pop\n      jump\t// out\n        /* \"#utility.yul\":12326:12553   */\n    tag_439:\n        /* \"#utility.yul\":12466:12500   */\n      0x5061697255736474526f6e743a20494e53554646494349454e545f4f55545055\n        /* \"#utility.yul\":12462:12463   */\n      0x00\n        /* \"#utility.yul\":12454:12460   */\n      dup3\n        /* \"#utility.yul\":12450:12464   */\n      add\n        /* \"#utility.yul\":12443:12501   */\n      mstore\n        /* \"#utility.yul\":12535:12545   */\n      0x545f414d4f554e54000000000000000000000000000000000000000000000000\n        /* \"#utility.yul\":12530:12532   */\n      0x20\n        /* \"#utility.yul\":12522:12528   */\n      dup3\n        /* \"#utility.yul\":12518:12533   */\n      add\n        /* \"#utility.yul\":12511:12546   */\n      mstore\n        /* \"#utility.yul\":12326:12553   */\n      pop\n      jump\t// out\n        /* \"#utility.yul\":12559:12925   */\n    tag_440:\n        /* \"#utility.yul\":12701:12704   */\n      0x00\n        /* \"#utility.yul\":12722:12789   */\n      tag_608\n        /* \"#utility.yul\":12786:12788   */\n      0x28\n        /* \"#utility.yul\":12781:12784   */\n      dup4\n        /* \"#utility.yul\":12722:12789   */\n      tag_417\n      jump\t// in\n    tag_608:\n        /* \"#utility.yul\":12715:12789   */\n      swap2\n      pop\n        /* \"#utility.yul\":12798:12891   */\n      tag_609\n        /* \"#utility.yul\":12887:12890   */\n      dup3\n        /* \"#utility.yul\":12798:12891   */\n      tag_439\n      jump\t// in\n    tag_609:\n        /* \"#utility.yul\":12916:12918   */\n      0x40\n        /* \"#utility.yul\":12911:12914   */\n      dup3\n        /* \"#utility.yul\":12907:12919   */\n      add\n        /* \"#utility.yul\":12900:12919   */\n      swap1\n      pop\n        /* \"#utility.yul\":12559:12925   */\n      swap2\n      swap1\n      pop\n      jump\t// out\n        /* \"#utility.yul\":12931:13350   */\n    tag_136:\n        /* \"#utility.yul\":13097:13101   */\n      0x00\n        /* \"#utility.yul\":13135:13137   */\n      0x20\n        /* \"#utility.yul\":13124:13133   */\n      dup3\n        /* \"#utility.yul\":13120:13138   */\n      add\n        /* \"#utility.yul\":13112:13138   */\n      swap1\n      pop\n        /* \"#utility.yul\":13184:13193   */\n      dup2\n        /* \"#utility.yul\":13178:13182   */\n      dup2\n        /* \"#utility.yul\":13174:13194   */\n      sub\n        /* \"#utility.yul\":13170:13171   */\n      0x00\n        /* \"#utility.yul\":13159:13168   */\n      dup4\n        /* \"#utility.yul\":13155:13172   */\n      add\n        /* \"#utility.yul\":13148:13195   */\n      mstore\n        /* \"#utility.yul\":13212:13343   */\n      tag_611\n        /* \"#utility.yul\":13338:13342   */\n      dup2\n        /* \"#utility.yul\":13212:13343   */\n      tag_440\n      jump\t// in\n    tag_611:\n        /* \"#utility.yul\":13204:13343   */\n      swap1\n      pop\n        /* \"#utility.yul\":12931:13350   */\n      swap2\n      swap1\n      pop\n      jump\t// out\n        /* \"#utility.yul\":13356:13579   */\n    tag_441:\n        /* \"#utility.yul\":13496:13530   */\n      0x5061697255736474526f6e743a20494e53554646494349454e545f4c49515549\n        /* \"#utility.yul\":13492:13493   */\n      0x00\n        /* \"#utility.yul\":13484:13490   */\n      dup3\n        /* \"#utility.yul\":13480:13494   */\n      add\n        /* \"#utility.yul\":13473:13531   */\n      mstore\n        /* \"#utility.yul\":13565:13571   */\n      0x4449545900000000000000000000000000000000000000000000000000000000\n        /* \"#utility.yul\":13560:13562   */\n      0x20\n        /* \"#utility.yul\":13552:13558   */\n      dup3\n        /* \"#utility.yul\":13548:13563   */\n      add\n        /* \"#utility.yul\":13541:13572   */\n      mstore\n        /* \"#utility.yul\":13356:13579   */\n      pop\n      jump\t// out\n        /* \"#utility.yul\":13585:13951   */\n    tag_442:\n        /* \"#utility.yul\":13727:13730   */\n      0x00\n        /* \"#utility.yul\":13748:13815   */\n      tag_614\n        /* \"#utility.yul\":13812:13814   */\n      0x24\n        /* \"#utility.yul\":13807:13810   */\n      dup4\n        /* \"#utility.yul\":13748:13815   */\n      tag_417\n      jump\t// in\n    tag_614:\n        /* \"#utility.yul\":13741:13815   */\n      swap2\n      pop\n        /* \"#utility.yul\":13824:13917   */\n      tag_615\n        /* \"#utility.yul\":13913:13916   */\n      dup3\n        /* \"#utility.yul\":13824:13917   */\n      tag_441\n      jump\t// in\n    tag_615:\n        /* \"#utility.yul\":13942:13944   */\n      0x40\n        /* \"#utility.yul\":13937:13940   */\n      dup3\n        /* \"#utility.yul\":13933:13945   */\n      add\n        /* \"#utility.yul\":13926:13945   */\n      swap1\n      pop\n        /* \"#utility.yul\":13585:13951   */\n      swap2\n      swap1\n      pop\n      jump\t// out\n        /* \"#utility.yul\":13957:14376   */\n    tag_141:\n        /* \"#utility.yul\":14123:14127   */\n      0x00\n        /* \"#utility.yul\":14161:14163   */\n      0x20\n        /* \"#utility.yul\":14150:14159   */\n      dup3\n        /* \"#utility.yul\":14146:14164   */\n      add\n        /* \"#utility.yul\":14138:14164   */\n      swap1\n      pop\n        /* \"#utility.yul\":14210:14219   */\n      dup2\n        /* \"#utility.yul\":14204:14208   */\n      dup2\n        /* \"#utility.yul\":14200:14220   */\n      sub\n        /* \"#utility.yul\":14196:14197   */\n      0x00\n        /* \"#utility.yul\":14185:14194   */\n      dup4\n        /* \"#utility.yul\":14181:14198   */\n      add\n        /* \"#utility.yul\":14174:14221   */\n      mstore\n        /* \"#utility.yul\":14238:14369   */\n      tag_617\n        /* \"#utility.yul\":14364:14368   */\n      dup2\n        /* \"#utility.yul\":14238:14369   */\n      tag_442\n      jump\t// in\n    tag_617:\n        /* \"#utility.yul\":14230:14369   */\n      swap1\n      pop\n        /* \"#utility.yul\":13957:14376   */\n      swap2\n      swap1\n      pop\n      jump\t// out\n        /* \"#utility.yul\":14382:14556   */\n    tag_443:\n        /* \"#utility.yul\":14522:14548   */\n      0x5061697255736474526f6e743a20494e56414c49445f544f0000000000000000\n        /* \"#utility.yul\":14518:14519   */\n      0x00\n        /* \"#utility.yul\":14510:14516   */\n      dup3\n        /* \"#utility.yul\":14506:14520   */\n      add\n        /* \"#utility.yul\":14499:14549   */\n      mstore\n        /* \"#utility.yul\":14382:14556   */\n      pop\n      jump\t// out\n        /* \"#utility.yul\":14562:14928   */\n    tag_444:\n        /* \"#utility.yul\":14704:14707   */\n      0x00\n        /* \"#utility.yul\":14725:14792   */\n      tag_620\n        /* \"#utility.yul\":14789:14791   */\n      0x18\n        /* \"#utility.yul\":14784:14787   */\n      dup4\n        /* \"#utility.yul\":14725:14792   */\n      tag_417\n      jump\t// in\n    tag_620:\n        /* \"#utility.yul\":14718:14792   */\n      swap2\n      pop\n        /* \"#utility.yul\":14801:14894   */\n      tag_621\n        /* \"#utility.yul\":14890:14893   */\n      dup3\n        /* \"#utility.yul\":14801:14894   */\n      tag_443\n      jump\t// in\n    tag_621:\n        /* \"#utility.yul\":14919:14921   */\n      0x20\n        /* \"#utility.yul\":14914:14917   */\n      dup3\n        /* \"#utility.yul\":14910:14922   */\n      add\n        /* \"#utility.yul\":14903:14922   */\n      swap1\n      pop\n        /* \"#utility.yul\":14562:14928   */\n      swap2\n      swap1\n      pop\n      jump\t// out\n        /* \"#utility.yul\":14934:15353   */\n    tag_145:\n        /* \"#utility.yul\":15100:15104   */\n      0x00\n        /* \"#utility.yul\":15138:15140   */\n      0x20\n        /* \"#utility.yul\":15127:15136   */\n      dup3\n        /* \"#utility.yul\":15123:15141   */\n      add\n        /* \"#utility.yul\":15115:15141   */\n      swap1\n      pop\n        /* \"#utility.yul\":15187:15196   */\n      dup2\n        /* \"#utility.yul\":15181:15185   */\n      dup2\n        /* \"#utility.yul\":15177:15197   */\n      sub\n        /* \"#utility.yul\":15173:15174   */\n      0x00\n        /* \"#utility.yul\":15162:15171   */\n      dup4\n        /* \"#utility.yul\":15158:15175   */\n      add\n        /* \"#utility.yul\":15151:15198   */\n      mstore\n        /* \"#utility.yul\":15215:15346   */\n      tag_623\n        /* \"#utility.yul\":15341:15345   */\n      dup2\n        /* \"#utility.yul\":15215:15346   */\n      tag_444\n      jump\t// in\n    tag_623:\n        /* \"#utility.yul\":15207:15346   */\n      swap1\n      pop\n        /* \"#utility.yul\":14934:15353   */\n      swap2\n      swap1\n      pop\n      jump\t// out\n        /* \"#utility.yul\":15359:15502   */\n    tag_445:\n        /* \"#utility.yul\":15416:15421   */\n      0x00\n        /* \"#utility.yul\":15447:15453   */\n      dup2\n        /* \"#utility.yul\":15441:15454   */\n      mload\n        /* \"#utility.yul\":15432:15454   */\n      swap1\n      pop\n        /* \"#utility.yul\":15463:15496   */\n      tag_625\n        /* \"#utility.yul\":15490:15495   */\n      dup2\n        /* \"#utility.yul\":15463:15496   */\n      tag_406\n      jump\t// in\n    tag_625:\n        /* \"#utility.yul\":15359:15502   */\n      swap3\n      swap2\n      pop\n      pop\n      jump\t// out\n        /* \"#utility.yul\":15508:15859   */\n    tag_155:\n        /* \"#utility.yul\":15578:15584   */\n      0x00\n        /* \"#utility.yul\":15627:15629   */\n      0x20\n        /* \"#utility.yul\":15615:15624   */\n      dup3\n        /* \"#utility.yul\":15606:15613   */\n      dup5\n        /* \"#utility.yul\":15602:15625   */\n      sub\n        /* \"#utility.yul\":15598:15630   */\n      slt\n        /* \"#utility.yul\":15595:15714   */\n      iszero\n      tag_627\n      jumpi\n        /* \"#utility.yul\":15633:15712   */\n      tag_628\n      tag_403\n      jump\t// in\n    tag_628:\n        /* \"#utility.yul\":15595:15714   */\n    tag_627:\n        /* \"#utility.yul\":15753:15754   */\n      0x00\n        /* \"#utility.yul\":15778:15842   */\n      tag_629\n        /* \"#utility.yul\":15834:15841   */\n      dup5\n        /* \"#utility.yul\":15825:15831   */\n      dup3\n        /* \"#utility.yul\":15814:15823   */\n      dup6\n        /* \"#utility.yul\":15810:15832   */\n      add\n        /* \"#utility.yul\":15778:15842   */\n      tag_445\n      jump\t// in\n    tag_629:\n        /* \"#utility.yul\":15768:15842   */\n      swap2\n      pop\n        /* \"#utility.yul\":15724:15852   */\n      pop\n        /* \"#utility.yul\":15508:15859   */\n      swap3\n      swap2\n      pop\n      pop\n      jump\t// out\n        /* \"#utility.yul\":15865:16045   */\n    tag_446:\n        /* \"#utility.yul\":15913:15990   */\n      0x4e487b7100000000000000000000000000000000000000000000000000000000\n        /* \"#utility.yul\":15910:15911   */\n      0x00\n        /* \"#utility.yul\":15903:15991   */\n      mstore\n        /* \"#utility.yul\":16010:16014   */\n      0x11\n        /* \"#utility.yul\":16007:16008   */\n      0x04\n        /* \"#utility.yul\":16000:16015   */\n      mstore\n        /* \"#utility.yul\":16034:16038   */\n      0x24\n        /* \"#utility.yul\":16031:16032   */\n      0x00\n        /* \"#utility.yul\":16024:16039   */\n      revert\n        /* \"#utility.yul\":16051:16245   */\n    tag_161:\n        /* \"#utility.yul\":16091:16095   */\n      0x00\n        /* \"#utility.yul\":16111:16131   */\n      tag_632\n        /* \"#utility.yul\":16129:16130   */\n      dup3\n        /* \"#utility.yul\":16111:16131   */\n      tag_405\n      jump\t// in\n    tag_632:\n        /* \"#utility.yul\":16106:16131   */\n      swap2\n      pop\n        /* \"#utility.yul\":16145:16165   */\n      tag_633\n        /* \"#utility.yul\":16163:16164   */\n      dup4\n        /* \"#utility.yul\":16145:16165   */\n      tag_405\n      jump\t// in\n    tag_633:\n        /* \"#utility.yul\":16140:16165   */\n      swap3\n      pop\n        /* \"#utility.yul\":16189:16190   */\n      dup3\n        /* \"#utility.yul\":16186:16187   */\n      dup3\n        /* \"#utility.yul\":16182:16191   */\n      sub\n        /* \"#utility.yul\":16174:16191   */\n      swap1\n      pop\n        /* \"#utility.yul\":16213:16214   */\n      dup2\n        /* \"#utility.yul\":16207:16211   */\n      dup2\n        /* \"#utility.yul\":16204:16215   */\n      gt\n        /* \"#utility.yul\":16201:16238   */\n      iszero\n      tag_634\n      jumpi\n        /* \"#utility.yul\":16218:16236   */\n      tag_635\n      tag_446\n      jump\t// in\n    tag_635:\n        /* \"#utility.yul\":16201:16238   */\n    tag_634:\n        /* \"#utility.yul\":16051:16245   */\n      swap3\n      swap2\n      pop\n      pop\n      jump\t// out\n        /* \"#utility.yul\":16251:16477   */\n    tag_447:\n        /* \"#utility.yul\":16391:16425   */\n      0x5061697255736474526f6e743a20494e53554646494349454e545f494e505554\n        /* \"#utility.yul\":16387:16388   */\n      0x00\n        /* \"#utility.yul\":16379:16385   */\n      dup3\n        /* \"#utility.yul\":16375:16389   */\n      add\n        /* \"#utility.yul\":16368:16426   */\n      mstore\n        /* \"#utility.yul\":16460:16469   */\n      0x5f414d4f554e5400000000000000000000000000000000000000000000000000\n        /* \"#utility.yul\":16455:16457   */\n      0x20\n        /* \"#utility.yul\":16447:16453   */\n      dup3\n        /* \"#utility.yul\":16443:16458   */\n      add\n        /* \"#utility.yul\":16436:16470   */\n      mstore\n        /* \"#utility.yul\":16251:16477   */\n      pop\n      jump\t// out\n        /* \"#utility.yul\":16483:16849   */\n    tag_448:\n        /* \"#utility.yul\":16625:16628   */\n      0x00\n        /* \"#utility.yul\":16646:16713   */\n      tag_638\n        /* \"#utility.yul\":16710:16712   */\n      0x27\n        /* \"#utility.yul\":16705:16708   */\n      dup4\n        /* \"#utility.yul\":16646:16713   */\n      tag_417\n      jump\t// in\n    tag_638:\n        /* \"#utility.yul\":16639:16713   */\n      swap2\n      pop\n        /* \"#utility.yul\":16722:16815   */\n      tag_639\n        /* \"#utility.yul\":16811:16814   */\n      dup3\n        /* \"#utility.yul\":16722:16815   */\n      tag_447\n      jump\t// in\n    tag_639:\n        /* \"#utility.yul\":16840:16842   */\n      0x40\n        /* \"#utility.yul\":16835:16838   */\n      dup3\n        /* \"#utility.yul\":16831:16843   */\n      add\n        /* \"#utility.yul\":16824:16843   */\n      swap1\n      pop\n        /* \"#utility.yul\":16483:16849   */\n      swap2\n      swap1\n      pop\n      jump\t// out\n        /* \"#utility.yul\":16855:17274   */\n    tag_174:\n        /* \"#utility.yul\":17021:17025   */\n      0x00\n        /* \"#utility.yul\":17059:17061   */\n      0x20\n        /* \"#utility.yul\":17048:17057   */\n      dup3\n        /* \"#utility.yul\":17044:17062   */\n      add\n        /* \"#utility.yul\":17036:17062   */\n      swap1\n      pop\n        /* \"#utility.yul\":17108:17117   */\n      dup2\n        /* \"#utility.yul\":17102:17106   */\n      dup2\n        /* \"#utility.yul\":17098:17118   */\n      sub\n        /* \"#utility.yul\":17094:17095   */\n      0x00\n        /* \"#utility.yul\":17083:17092   */\n      dup4\n        /* \"#utility.yul\":17079:17096   */\n      add\n        /* \"#utility.yul\":17072:17119   */\n      mstore\n        /* \"#utility.yul\":17136:17267   */\n      tag_641\n        /* \"#utility.yul\":17262:17266   */\n      dup2\n        /* \"#utility.yul\":17136:17267   */\n      tag_448\n      jump\t// in\n    tag_641:\n        /* \"#utility.yul\":17128:17267   */\n      swap1\n      pop\n        /* \"#utility.yul\":16855:17274   */\n      swap2\n      swap1\n      pop\n      jump\t// out\n        /* \"#utility.yul\":17280:17690   */\n    tag_176:\n        /* \"#utility.yul\":17320:17327   */\n      0x00\n        /* \"#utility.yul\":17343:17363   */\n      tag_643\n        /* \"#utility.yul\":17361:17362   */\n      dup3\n        /* \"#utility.yul\":17343:17363   */\n      tag_405\n      jump\t// in\n    tag_643:\n        /* \"#utility.yul\":17338:17363   */\n      swap2\n      pop\n        /* \"#utility.yul\":17377:17397   */\n      tag_644\n        /* \"#utility.yul\":17395:17396   */\n      dup4\n        /* \"#utility.yul\":17377:17397   */\n      tag_405\n      jump\t// in\n    tag_644:\n        /* \"#utility.yul\":17372:17397   */\n      swap3\n      pop\n        /* \"#utility.yul\":17432:17433   */\n      dup3\n        /* \"#utility.yul\":17429:17430   */\n      dup3\n        /* \"#utility.yul\":17425:17434   */\n      mul\n        /* \"#utility.yul\":17454:17484   */\n      tag_645\n        /* \"#utility.yul\":17472:17483   */\n      dup2\n        /* \"#utility.yul\":17454:17484   */\n      tag_405\n      jump\t// in\n    tag_645:\n        /* \"#utility.yul\":17443:17484   */\n      swap2\n      pop\n        /* \"#utility.yul\":17633:17634   */\n      dup3\n        /* \"#utility.yul\":17624:17631   */\n      dup3\n        /* \"#utility.yul\":17620:17635   */\n      div\n        /* \"#utility.yul\":17617:17618   */\n      dup5\n        /* \"#utility.yul\":17614:17636   */\n      eq\n        /* \"#utility.yul\":17594:17595   */\n      dup4\n        /* \"#utility.yul\":17587:17596   */\n      iszero\n        /* \"#utility.yul\":17567:17650   */\n      or\n        /* \"#utility.yul\":17544:17683   */\n      tag_646\n      jumpi\n        /* \"#utility.yul\":17663:17681   */\n      tag_647\n      tag_446\n      jump\t// in\n    tag_647:\n        /* \"#utility.yul\":17544:17683   */\n    tag_646:\n        /* \"#utility.yul\":17328:17690   */\n      pop\n        /* \"#utility.yul\":17280:17690   */\n      swap3\n      swap2\n      pop\n      pop\n      jump\t// out\n        /* \"#utility.yul\":17696:17861   */\n    tag_449:\n        /* \"#utility.yul\":17836:17853   */\n      0x5061697255736474526f6e743a204b0000000000000000000000000000000000\n        /* \"#utility.yul\":17832:17833   */\n      0x00\n        /* \"#utility.yul\":17824:17830   */\n      dup3\n        /* \"#utility.yul\":17820:17834   */\n      add\n        /* \"#utility.yul\":17813:17854   */\n      mstore\n        /* \"#utility.yul\":17696:17861   */\n      pop\n      jump\t// out\n        /* \"#utility.yul\":17867:18233   */\n    tag_450:\n        /* \"#utility.yul\":18009:18012   */\n      0x00\n        /* \"#utility.yul\":18030:18097   */\n      tag_650\n        /* \"#utility.yul\":18094:18096   */\n      0x0f\n        /* \"#utility.yul\":18089:18092   */\n      dup4\n        /* \"#utility.yul\":18030:18097   */\n      tag_417\n      jump\t// in\n    tag_650:\n        /* \"#utility.yul\":18023:18097   */\n      swap2\n      pop\n        /* \"#utility.yul\":18106:18199   */\n      tag_651\n        /* \"#utility.yul\":18195:18198   */\n      dup3\n        /* \"#utility.yul\":18106:18199   */\n      tag_449\n      jump\t// in\n    tag_651:\n        /* \"#utility.yul\":18224:18226   */\n      0x20\n        /* \"#utility.yul\":18219:18222   */\n      dup3\n        /* \"#utility.yul\":18215:18227   */\n      add\n        /* \"#utility.yul\":18208:18227   */\n      swap1\n      pop\n        /* \"#utility.yul\":17867:18233   */\n      swap2\n      swap1\n      pop\n      jump\t// out\n        /* \"#utility.yul\":18239:18658   */\n    tag_187:\n        /* \"#utility.yul\":18405:18409   */\n      0x00\n        /* \"#utility.yul\":18443:18445   */\n      0x20\n        /* \"#utility.yul\":18432:18441   */\n      dup3\n        /* \"#utility.yul\":18428:18446   */\n      add\n        /* \"#utility.yul\":18420:18446   */\n      swap1\n      pop\n        /* \"#utility.yul\":18492:18501   */\n      dup2\n        /* \"#utility.yul\":18486:18490   */\n      dup2\n        /* \"#utility.yul\":18482:18502   */\n      sub\n        /* \"#utility.yul\":18478:18479   */\n      0x00\n        /* \"#utility.yul\":18467:18476   */\n      dup4\n        /* \"#utility.yul\":18463:18480   */\n      add\n        /* \"#utility.yul\":18456:18503   */\n      mstore\n        /* \"#utility.yul\":18520:18651   */\n      tag_653\n        /* \"#utility.yul\":18646:18650   */\n      dup2\n        /* \"#utility.yul\":18520:18651   */\n      tag_450\n      jump\t// in\n    tag_653:\n        /* \"#utility.yul\":18512:18651   */\n      swap1\n      pop\n        /* \"#utility.yul\":18239:18658   */\n      swap2\n      swap1\n      pop\n      jump\t// out\n        /* \"#utility.yul\":18664:18844   */\n    tag_451:\n        /* \"#utility.yul\":18712:18789   */\n      0x4e487b7100000000000000000000000000000000000000000000000000000000\n        /* \"#utility.yul\":18709:18710   */\n      0x00\n        /* \"#utility.yul\":18702:18790   */\n      mstore\n        /* \"#utility.yul\":18809:18813   */\n      0x12\n        /* \"#utility.yul\":18806:18807   */\n      0x04\n        /* \"#utility.yul\":18799:18814   */\n      mstore\n        /* \"#utility.yul\":18833:18837   */\n      0x24\n        /* \"#utility.yul\":18830:18831   */\n      0x00\n        /* \"#utility.yul\":18823:18838   */\n      revert\n        /* \"#utility.yul\":18850:19035   */\n    tag_227:\n        /* \"#utility.yul\":18890:18891   */\n      0x00\n        /* \"#utility.yul\":18907:18927   */\n      tag_656\n        /* \"#utility.yul\":18925:18926   */\n      dup3\n        /* \"#utility.yul\":18907:18927   */\n      tag_405\n      jump\t// in\n    tag_656:\n        /* \"#utility.yul\":18902:18927   */\n      swap2\n      pop\n        /* \"#utility.yul\":18941:18961   */\n      tag_657\n        /* \"#utility.yul\":18959:18960   */\n      dup4\n        /* \"#utility.yul\":18941:18961   */\n      tag_405\n      jump\t// in\n    tag_657:\n        /* \"#utility.yul\":18936:18961   */\n      swap3\n      pop\n        /* \"#utility.yul\":18980:18981   */\n      dup3\n        /* \"#utility.yul\":18970:19005   */\n      tag_658\n      jumpi\n        /* \"#utility.yul\":18985:19003   */\n      tag_659\n      tag_451\n      jump\t// in\n    tag_659:\n        /* \"#utility.yul\":18970:19005   */\n    tag_658:\n        /* \"#utility.yul\":19027:19028   */\n      dup3\n        /* \"#utility.yul\":19024:19025   */\n      dup3\n        /* \"#utility.yul\":19020:19029   */\n      div\n        /* \"#utility.yul\":19015:19029   */\n      swap1\n      pop\n        /* \"#utility.yul\":18850:19035   */\n      swap3\n      swap2\n      pop\n      pop\n      jump\t// out\n        /* \"#utility.yul\":19041:19271   */\n    tag_452:\n        /* \"#utility.yul\":19181:19215   */\n      0x5061697255736474526f6e743a20494e53554646494349454e545f4c49515549\n        /* \"#utility.yul\":19177:19178   */\n      0x00\n        /* \"#utility.yul\":19169:19175   */\n      dup3\n        /* \"#utility.yul\":19165:19179   */\n      add\n        /* \"#utility.yul\":19158:19216   */\n      mstore\n        /* \"#utility.yul\":19250:19263   */\n      0x444954595f4d494e544544000000000000000000000000000000000000000000\n        /* \"#utility.yul\":19245:19247   */\n      0x20\n        /* \"#utility.yul\":19237:19243   */\n      dup3\n        /* \"#utility.yul\":19233:19248   */\n      add\n        /* \"#utility.yul\":19226:19264   */\n      mstore\n        /* \"#utility.yul\":19041:19271   */\n      pop\n      jump\t// out\n        /* \"#utility.yul\":19277:19643   */\n    tag_453:\n        /* \"#utility.yul\":19419:19422   */\n      0x00\n        /* \"#utility.yul\":19440:19507   */\n      tag_662\n        /* \"#utility.yul\":19504:19506   */\n      0x2b\n        /* \"#utility.yul\":19499:19502   */\n      dup4\n        /* \"#utility.yul\":19440:19507   */\n      tag_417\n      jump\t// in\n    tag_662:\n        /* \"#utility.yul\":19433:19507   */\n      swap2\n      pop\n        /* \"#utility.yul\":19516:19609   */\n      tag_663\n        /* \"#utility.yul\":19605:19608   */\n      dup3\n        /* \"#utility.yul\":19516:19609   */\n      tag_452\n      jump\t// in\n    tag_663:\n        /* \"#utility.yul\":19634:19636   */\n      0x40\n        /* \"#utility.yul\":19629:19632   */\n      dup3\n        /* \"#utility.yul\":19625:19637   */\n      add\n        /* \"#utility.yul\":19618:19637   */\n      swap1\n      pop\n        /* \"#utility.yul\":19277:19643   */\n      swap2\n      swap1\n      pop\n      jump\t// out\n        /* \"#utility.yul\":19649:20068   */\n    tag_233:\n        /* \"#utility.yul\":19815:19819   */\n      0x00\n        /* \"#utility.yul\":19853:19855   */\n      0x20\n        /* \"#utility.yul\":19842:19851   */\n      dup3\n        /* \"#utility.yul\":19838:19856   */\n      add\n        /* \"#utility.yul\":19830:19856   */\n      swap1\n      pop\n        /* \"#utility.yul\":19902:19911   */\n      dup2\n        /* \"#utility.yul\":19896:19900   */\n      dup2\n        /* \"#utility.yul\":19892:19912   */\n      sub\n        /* \"#utility.yul\":19888:19889   */\n      0x00\n        /* \"#utility.yul\":19877:19886   */\n      dup4\n        /* \"#utility.yul\":19873:19890   */\n      add\n        /* \"#utility.yul\":19866:19913   */\n      mstore\n        /* \"#utility.yul\":19930:20061   */\n      tag_665\n        /* \"#utility.yul\":20056:20060   */\n      dup2\n        /* \"#utility.yul\":19930:20061   */\n      tag_453\n      jump\t// in\n    tag_665:\n        /* \"#utility.yul\":19922:20061   */\n      swap1\n      pop\n        /* \"#utility.yul\":19649:20068   */\n      swap2\n      swap1\n      pop\n      jump\t// out\n        /* \"#utility.yul\":20074:20304   */\n    tag_454:\n        /* \"#utility.yul\":20214:20248   */\n      0x5061697255736474526f6e743a20494e53554646494349454e545f4c49515549\n        /* \"#utility.yul\":20210:20211   */\n      0x00\n        /* \"#utility.yul\":20202:20208   */\n      dup3\n        /* \"#utility.yul\":20198:20212   */\n      add\n        /* \"#utility.yul\":20191:20249   */\n      mstore\n        /* \"#utility.yul\":20283:20296   */\n      0x444954595f4255524e4544000000000000000000000000000000000000000000\n        /* \"#utility.yul\":20278:20280   */\n      0x20\n        /* \"#utility.yul\":20270:20276   */\n      dup3\n        /* \"#utility.yul\":20266:20281   */\n      add\n        /* \"#utility.yul\":20259:20297   */\n      mstore\n        /* \"#utility.yul\":20074:20304   */\n      pop\n      jump\t// out\n        /* \"#utility.yul\":20310:20676   */\n    tag_455:\n        /* \"#utility.yul\":20452:20455   */\n      0x00\n        /* \"#utility.yul\":20473:20540   */\n      tag_668\n        /* \"#utility.yul\":20537:20539   */\n      0x2b\n        /* \"#utility.yul\":20532:20535   */\n      dup4\n        /* \"#utility.yul\":20473:20540   */\n      tag_417\n      jump\t// in\n    tag_668:\n        /* \"#utility.yul\":20466:20540   */\n      swap2\n      pop\n        /* \"#utility.yul\":20549:20642   */\n      tag_669\n        /* \"#utility.yul\":20638:20641   */\n      dup3\n        /* \"#utility.yul\":20549:20642   */\n      tag_454\n      jump\t// in\n    tag_669:\n        /* \"#utility.yul\":20667:20669   */\n      0x40\n        /* \"#utility.yul\":20662:20665   */\n      dup3\n        /* \"#utility.yul\":20658:20670   */\n      add\n        /* \"#utility.yul\":20651:20670   */\n      swap1\n      pop\n        /* \"#utility.yul\":20310:20676   */\n      swap2\n      swap1\n      pop\n      jump\t// out\n        /* \"#utility.yul\":20682:21101   */\n    tag_259:\n        /* \"#utility.yul\":20848:20852   */\n      0x00\n        /* \"#utility.yul\":20886:20888   */\n      0x20\n        /* \"#utility.yul\":20875:20884   */\n      dup3\n        /* \"#utility.yul\":20871:20889   */\n      add\n        /* \"#utility.yul\":20863:20889   */\n      swap1\n      pop\n        /* \"#utility.yul\":20935:20944   */\n      dup2\n        /* \"#utility.yul\":20929:20933   */\n      dup2\n        /* \"#utility.yul\":20925:20945   */\n      sub\n        /* \"#utility.yul\":20921:20922   */\n      0x00\n        /* \"#utility.yul\":20910:20919   */\n      dup4\n        /* \"#utility.yul\":20906:20923   */\n      add\n        /* \"#utility.yul\":20899:20946   */\n      mstore\n        /* \"#utility.yul\":20963:21094   */\n      tag_671\n        /* \"#utility.yul\":21089:21093   */\n      dup2\n        /* \"#utility.yul\":20963:21094   */\n      tag_455\n      jump\t// in\n    tag_671:\n        /* \"#utility.yul\":20955:21094   */\n      swap1\n      pop\n        /* \"#utility.yul\":20682:21101   */\n      swap2\n      swap1\n      pop\n      jump\t// out\n        /* \"#utility.yul\":21107:21275   */\n    tag_456:\n        /* \"#utility.yul\":21247:21267   */\n      0x556e697377617056323a20455850495245440000000000000000000000000000\n        /* \"#utility.yul\":21243:21244   */\n      0x00\n        /* \"#utility.yul\":21235:21241   */\n      dup3\n        /* \"#utility.yul\":21231:21245   */\n      add\n        /* \"#utility.yul\":21224:21268   */\n      mstore\n        /* \"#utility.yul\":21107:21275   */\n      pop\n      jump\t// out\n        /* \"#utility.yul\":21281:21647   */\n    tag_457:\n        /* \"#utility.yul\":21423:21426   */\n      0x00\n        /* \"#utility.yul\":21444:21511   */\n      tag_674\n        /* \"#utility.yul\":21508:21510   */\n      0x12\n        /* \"#utility.yul\":21503:21506   */\n      dup4\n        /* \"#utility.yul\":21444:21511   */\n      tag_417\n      jump\t// in\n    tag_674:\n        /* \"#utility.yul\":21437:21511   */\n      swap2\n      pop\n        /* \"#utility.yul\":21520:21613   */\n      tag_675\n        /* \"#utility.yul\":21609:21612   */\n      dup3\n        /* \"#utility.yul\":21520:21613   */\n      tag_456\n      jump\t// in\n    tag_675:\n        /* \"#utility.yul\":21638:21640   */\n      0x20\n        /* \"#utility.yul\":21633:21636   */\n      dup3\n        /* \"#utility.yul\":21629:21641   */\n      add\n        /* \"#utility.yul\":21622:21641   */\n      swap1\n      pop\n        /* \"#utility.yul\":21281:21647   */\n      swap2\n      swap1\n      pop\n      jump\t// out\n        /* \"#utility.yul\":21653:22072   */\n    tag_296:\n        /* \"#utility.yul\":21819:21823   */\n      0x00\n        /* \"#utility.yul\":21857:21859   */\n      0x20\n        /* \"#utility.yul\":21846:21855   */\n      dup3\n        /* \"#utility.yul\":21842:21860   */\n      add\n        /* \"#utility.yul\":21834:21860   */\n      swap1\n      pop\n        /* \"#utility.yul\":21906:21915   */\n      dup2\n        /* \"#utility.yul\":21900:21904   */\n      dup2\n        /* \"#utility.yul\":21896:21916   */\n      sub\n        /* \"#utility.yul\":21892:21893   */\n      0x00\n        /* \"#utility.yul\":21881:21890   */\n      dup4\n        /* \"#utility.yul\":21877:21894   */\n      add\n        /* \"#utility.yul\":21870:21917   */\n      mstore\n        /* \"#utility.yul\":21934:22065   */\n      tag_677\n        /* \"#utility.yul\":22060:22064   */\n      dup2\n        /* \"#utility.yul\":21934:22065   */\n      tag_457\n      jump\t// in\n    tag_677:\n        /* \"#utility.yul\":21926:22065   */\n      swap1\n      pop\n        /* \"#utility.yul\":21653:22072   */\n      swap2\n      swap1\n      pop\n      jump\t// out\n        /* \"#utility.yul\":22078:22311   */\n    tag_298:\n        /* \"#utility.yul\":22117:22120   */\n      0x00\n        /* \"#utility.yul\":22140:22164   */\n      tag_679\n        /* \"#utility.yul\":22158:22163   */\n      dup3\n        /* \"#utility.yul\":22140:22164   */\n      tag_405\n      jump\t// in\n    tag_679:\n        /* \"#utility.yul\":22131:22164   */\n      swap2\n      pop\n        /* \"#utility.yul\":22186:22252   */\n      0xffffffffffffffffffffffffffffffffffffffffffffffffffffffffffffffff\n        /* \"#utility.yul\":22179:22184   */\n      dup3\n        /* \"#utility.yul\":22176:22253   */\n      sub\n        /* \"#utility.yul\":22173:22276   */\n      tag_680\n      jumpi\n        /* \"#utility.yul\":22256:22274   */\n      tag_681\n      tag_446\n      jump\t// in\n    tag_681:\n        /* \"#utility.yul\":22173:22276   */\n    tag_680:\n        /* \"#utility.yul\":22303:22304   */\n      0x01\n        /* \"#utility.yul\":22296:22301   */\n      dup3\n        /* \"#utility.yul\":22292:22305   */\n      add\n        /* \"#utility.yul\":22285:22305   */\n      swap1\n      pop\n        /* \"#utility.yul\":22078:22311   */\n      swap2\n      swap1\n      pop\n      jump\t// out\n        /* \"#utility.yul\":22317:23092   */\n    tag_300:\n        /* \"#utility.yul\":22550:22554   */\n      0x00\n        /* \"#utility.yul\":22588:22591   */\n      0xc0\n        /* \"#utility.yul\":22577:22586   */\n      dup3\n        /* \"#utility.yul\":22573:22592   */\n      add\n        /* \"#utility.yul\":22565:22592   */\n      swap1\n      pop\n        /* \"#utility.yul\":22602:22673   */\n      tag_683\n        /* \"#utility.yul\":22670:22671   */\n      0x00\n        /* \"#utility.yul\":22659:22668   */\n      dup4\n        /* \"#utility.yul\":22655:22672   */\n      add\n        /* \"#utility.yul\":22646:22652   */\n      dup10\n        /* \"#utility.yul\":22602:22673   */\n      tag_430\n      jump\t// in\n    tag_683:\n        /* \"#utility.yul\":22683:22755   */\n      tag_684\n        /* \"#utility.yul\":22751:22753   */\n      0x20\n        /* \"#utility.yul\":22740:22749   */\n      dup4\n        /* \"#utility.yul\":22736:22754   */\n      add\n        /* \"#utility.yul\":22727:22733   */\n      dup9\n        /* \"#utility.yul\":22683:22755   */\n      tag_427\n      jump\t// in\n    tag_684:\n        /* \"#utility.yul\":22765:22837   */\n      tag_685\n        /* \"#utility.yul\":22833:22835   */\n      0x40\n        /* \"#utility.yul\":22822:22831   */\n      dup4\n        /* \"#utility.yul\":22818:22836   */\n      add\n        /* \"#utility.yul\":22809:22815   */\n      dup8\n        /* \"#utility.yul\":22765:22837   */\n      tag_427\n      jump\t// in\n    tag_685:\n        /* \"#utility.yul\":22847:22919   */\n      tag_686\n        /* \"#utility.yul\":22915:22917   */\n      0x60\n        /* \"#utility.yul\":22904:22913   */\n      dup4\n        /* \"#utility.yul\":22900:22918   */\n      add\n        /* \"#utility.yul\":22891:22897   */\n      dup7\n        /* \"#utility.yul\":22847:22919   */\n      tag_428\n      jump\t// in\n    tag_686:\n        /* \"#utility.yul\":22929:23002   */\n      tag_687\n        /* \"#utility.yul\":22997:23000   */\n      0x80\n        /* \"#utility.yul\":22986:22995   */\n      dup4\n        /* \"#utility.yul\":22982:23001   */\n      add\n        /* \"#utility.yul\":22973:22979   */\n      dup6\n        /* \"#utility.yul\":22929:23002   */\n      tag_428\n      jump\t// in\n    tag_687:\n        /* \"#utility.yul\":23012:23085   */\n      tag_688\n        /* \"#utility.yul\":23080:23083   */\n      0xa0\n        /* \"#utility.yul\":23069:23078   */\n      dup4\n        /* \"#utility.yul\":23065:23084   */\n      add\n        /* \"#utility.yul\":23056:23062   */\n      dup5\n        /* \"#utility.yul\":23012:23085   */\n      tag_428\n      jump\t// in\n    tag_688:\n        /* \"#utility.yul\":22317:23092   */\n      swap8\n      swap7\n      pop\n      pop\n      pop\n      pop\n      pop\n      pop\n      pop\n      jump\t// out\n        /* \"#utility.yul\":23098:23246   */\n    tag_458:\n        /* \"#utility.yul\":23200:23211   */\n      0x00\n        /* \"#utility.yul\":23237:23240   */\n      dup2\n        /* \"#utility.yul\":23222:23240   */\n      swap1\n      pop\n        /* \"#utility.yul\":23098:23246   */\n      swap3\n      swap2\n      pop\n      pop\n      jump\t// out\n        /* \"#utility.yul\":23252:23466   */\n    tag_459:\n        /* \"#utility.yul\":23392:23458   */\n      0x1901000000000000000000000000000000000000000000000000000000000000\n        /* \"#utility.yul\":23388:23389   */\n      0x00\n        /* \"#utility.yul\":23380:23386   */\n      dup3\n        /* \"#utility.yul\":23376:23390   */\n      add\n        /* \"#utility.yul\":23369:23459   */\n      mstore\n        /* \"#utility.yul\":23252:23466   */\n      pop\n      jump\t// out\n        /* \"#utility.yul\":23472:23872   */\n    tag_460:\n        /* \"#utility.yul\":23632:23635   */\n      0x00\n        /* \"#utility.yul\":23653:23737   */\n      tag_692\n        /* \"#utility.yul\":23735:23736   */\n      0x02\n        /* \"#utility.yul\":23730:23733   */\n      dup4\n        /* \"#utility.yul\":23653:23737   */\n      tag_458\n      jump\t// in\n    tag_692:\n        /* \"#utility.yul\":23646:23737   */\n      swap2\n      pop\n        /* \"#utility.yul\":23746:23839   */\n      tag_693\n        /* \"#utility.yul\":23835:23838   */\n      dup3\n        /* \"#utility.yul\":23746:23839   */\n      tag_459\n      jump\t// in\n    tag_693:\n        /* \"#utility.yul\":23864:23865   */\n      0x02\n        /* \"#utility.yul\":23859:23862   */\n      dup3\n        /* \"#utility.yul\":23855:23866   */\n      add\n        /* \"#utility.yul\":23848:23866   */\n      swap1\n      pop\n        /* \"#utility.yul\":23472:23872   */\n      swap2\n      swap1\n      pop\n      jump\t// out\n        /* \"#utility.yul\":23878:23957   */\n    tag_461:\n        /* \"#utility.yul\":23917:23924   */\n      0x00\n        /* \"#utility.yul\":23946:23951   */\n      dup2\n        /* \"#utility.yul\":23935:23951   */\n      swap1\n      pop\n        /* \"#utility.yul\":23878:23957   */\n      swap2\n      swap1\n      pop\n      jump\t// out\n        /* \"#utility.yul\":23963:24120   */\n    tag_462:\n        /* \"#utility.yul\":24068:24113   */\n      tag_696\n        /* \"#utility.yul\":24088:24112   */\n      tag_697\n        /* \"#utility.yul\":24106:24111   */\n      dup3\n        /* \"#utility.yul\":24088:24112   */\n      tag_429\n      jump\t// in\n    tag_697:\n        /* \"#utility.yul\":24068:24113   */\n      tag_461\n      jump\t// in\n    tag_696:\n        /* \"#utility.yul\":24063:24066   */\n      dup3\n        /* \"#utility.yul\":24056:24114   */\n      mstore\n        /* \"#utility.yul\":23963:24120   */\n      pop\n      pop\n      jump\t// out\n        /* \"#utility.yul\":24126:24789   */\n    tag_302:\n        /* \"#utility.yul\":24367:24370   */\n      0x00\n        /* \"#utility.yul\":24389:24537   */\n      tag_699\n        /* \"#utility.yul\":24533:24536   */\n      dup3\n        /* \"#utility.yul\":24389:24537   */\n      tag_460\n      jump\t// in\n    tag_699:\n        /* \"#utility.yul\":24382:24537   */\n      swap2\n      pop\n        /* \"#utility.yul\":24547:24622   */\n      tag_700\n        /* \"#utility.yul\":24618:24621   */\n      dup3\n        /* \"#utility.yul\":24609:24615   */\n      dup6\n        /* \"#utility.yul\":24547:24622   */\n      tag_462\n      jump\t// in\n    tag_700:\n        /* \"#utility.yul\":24647:24649   */\n      0x20\n        /* \"#utility.yul\":24642:24645   */\n      dup3\n        /* \"#utility.yul\":24638:24650   */\n      add\n        /* \"#utility.yul\":24631:24650   */\n      swap2\n      pop\n        /* \"#utility.yul\":24660:24735   */\n      tag_701\n        /* \"#utility.yul\":24731:24734   */\n      dup3\n        /* \"#utility.yul\":24722:24728   */\n      dup5\n        /* \"#utility.yul\":24660:24735   */\n      tag_462\n      jump\t// in\n    tag_701:\n        /* \"#utility.yul\":24760:24762   */\n      0x20\n        /* \"#utility.yul\":24755:24758   */\n      dup3\n        /* \"#utility.yul\":24751:24763   */\n      add\n        /* \"#utility.yul\":24744:24763   */\n      swap2\n      pop\n        /* \"#utility.yul\":24780:24783   */\n      dup2\n        /* \"#utility.yul\":24773:24783   */\n      swap1\n      pop\n        /* \"#utility.yul\":24126:24789   */\n      swap4\n      swap3\n      pop\n      pop\n      pop\n      jump\t// out\n        /* \"#utility.yul\":24795:25340   */\n    tag_304:\n        /* \"#utility.yul\":24968:24972   */\n      0x00\n        /* \"#utility.yul\":25006:25009   */\n      0x80\n        /* \"#utility.yul\":24995:25004   */\n      dup3\n        /* \"#utility.yul\":24991:25010   */\n      add\n        /* \"#utility.yul\":24983:25010   */\n      swap1\n      pop\n        /* \"#utility.yul\":25020:25091   */\n      tag_703\n        /* \"#utility.yul\":25088:25089   */\n      0x00\n        /* \"#utility.yul\":25077:25086   */\n      dup4\n        /* \"#utility.yul\":25073:25090   */\n      add\n        /* \"#utility.yul\":25064:25070   */\n      dup8\n        /* \"#utility.yul\":25020:25091   */\n      tag_430\n      jump\t// in\n    tag_703:\n        /* \"#utility.yul\":25101:25169   */\n      tag_704\n        /* \"#utility.yul\":25165:25167   */\n      0x20\n        /* \"#utility.yul\":25154:25163   */\n      dup4\n        /* \"#utility.yul\":25150:25168   */\n      add\n        /* \"#utility.yul\":25141:25147   */\n      dup7\n        /* \"#utility.yul\":25101:25169   */\n      tag_432\n      jump\t// in\n    tag_704:\n        /* \"#utility.yul\":25179:25251   */\n      tag_705\n        /* \"#utility.yul\":25247:25249   */\n      0x40\n        /* \"#utility.yul\":25236:25245   */\n      dup4\n        /* \"#utility.yul\":25232:25250   */\n      add\n        /* \"#utility.yul\":25223:25229   */\n      dup6\n        /* \"#utility.yul\":25179:25251   */\n      tag_430\n      jump\t// in\n    tag_705:\n        /* \"#utility.yul\":25261:25333   */\n      tag_706\n        /* \"#utility.yul\":25329:25331   */\n      0x60\n        /* \"#utility.yul\":25318:25327   */\n      dup4\n        /* \"#utility.yul\":25314:25332   */\n      add\n        /* \"#utility.yul\":25305:25311   */\n      dup5\n        /* \"#utility.yul\":25261:25333   */\n      tag_430\n      jump\t// in\n    tag_706:\n        /* \"#utility.yul\":24795:25340   */\n      swap6\n      swap5\n      pop\n      pop\n      pop\n      pop\n      pop\n      jump\t// out\n        /* \"#utility.yul\":25346:25524   */\n    tag_463:\n        /* \"#utility.yul\":25486:25516   */\n      0x556e697377617056323a20494e56414c49445f5349474e415455524500000000\n        /* \"#utility.yul\":25482:25483   */\n      0x00\n        /* \"#utility.yul\":25474:25480   */\n      dup3\n        /* \"#utility.yul\":25470:25484   */\n      add\n        /* \"#utility.yul\":25463:25517   */\n      mstore\n        /* \"#utility.yul\":25346:25524   */\n      pop\n      jump\t// out\n        /* \"#utility.yul\":25530:25896   */\n    tag_464:\n        /* \"#utility.yul\":25672:25675   */\n      0x00\n        /* \"#utility.yul\":25693:25760   */\n      tag_709\n        /* \"#utility.yul\":25757:25759   */\n      0x1c\n        /* \"#utility.yul\":25752:25755   */\n      dup4\n        /* \"#utility.yul\":25693:25760   */\n      tag_417\n      jump\t// in\n    tag_709:\n        /* \"#utility.yul\":25686:25760   */\n      swap2\n      pop\n        /* \"#utility.yul\":25769:25862   */\n      tag_710\n        /* \"#utility.yul\":25858:25861   */\n      dup3\n        /* \"#utility.yul\":25769:25862   */\n      tag_463\n      jump\t// in\n    tag_710:\n        /* \"#utility.yul\":25887:25889   */\n      0x20\n        /* \"#utility.yul\":25882:25885   */\n      dup3\n        /* \"#utility.yul\":25878:25890   */\n      add\n        /* \"#utility.yul\":25871:25890   */\n      swap1\n      pop\n        /* \"#utility.yul\":25530:25896   */\n      swap2\n      swap1\n      pop\n      jump\t// out\n        /* \"#utility.yul\":25902:26321   */\n    tag_310:\n        /* \"#utility.yul\":26068:26072   */\n      0x00\n        /* \"#utility.yul\":26106:26108   */\n      0x20\n        /* \"#utility.yul\":26095:26104   */\n      dup3\n        /* \"#utility.yul\":26091:26109   */\n      add\n        /* \"#utility.yul\":26083:26109   */\n      swap1\n      pop\n        /* \"#utility.yul\":26155:26164   */\n      dup2\n        /* \"#utility.yul\":26149:26153   */\n      dup2\n        /* \"#utility.yul\":26145:26165   */\n      sub\n        /* \"#utility.yul\":26141:26142   */\n      0x00\n        /* \"#utility.yul\":26130:26139   */\n      dup4\n        /* \"#utility.yul\":26126:26143   */\n      add\n        /* \"#utility.yul\":26119:26166   */\n      mstore\n        /* \"#utility.yul\":26183:26314   */\n      tag_712\n        /* \"#utility.yul\":26309:26313   */\n      dup2\n        /* \"#utility.yul\":26183:26314   */\n      tag_464\n      jump\t// in\n    tag_712:\n        /* \"#utility.yul\":26175:26314   */\n      swap1\n      pop\n        /* \"#utility.yul\":25902:26321   */\n      swap2\n      swap1\n      pop\n      jump\t// out\n        /* \"#utility.yul\":26327:26659   */\n    tag_327:\n        /* \"#utility.yul\":26448:26452   */\n      0x00\n        /* \"#utility.yul\":26486:26488   */\n      0x40\n        /* \"#utility.yul\":26475:26484   */\n      dup3\n        /* \"#utility.yul\":26471:26489   */\n      add\n        /* \"#utility.yul\":26463:26489   */\n      swap1\n      pop\n        /* \"#utility.yul\":26499:26570   */\n      tag_714\n        /* \"#utility.yul\":26567:26568   */\n      0x00\n        /* \"#utility.yul\":26556:26565   */\n      dup4\n        /* \"#utility.yul\":26552:26569   */\n      add\n        /* \"#utility.yul\":26543:26549   */\n      dup6\n        /* \"#utility.yul\":26499:26570   */\n      tag_427\n      jump\t// in\n    tag_714:\n        /* \"#utility.yul\":26580:26652   */\n      tag_715\n        /* \"#utility.yul\":26648:26650   */\n      0x20\n        /* \"#utility.yul\":26637:26646   */\n      dup4\n        /* \"#utility.yul\":26633:26651   */\n      add\n        /* \"#utility.yul\":26624:26630   */\n      dup5\n        /* \"#utility.yul\":26580:26652   */\n      tag_428\n      jump\t// in\n    tag_715:\n        /* \"#utility.yul\":26327:26659   */\n      swap4\n      swap3\n      pop\n      pop\n      pop\n      jump\t// out\n        /* \"#utility.yul\":26665:26763   */\n    tag_465:\n        /* \"#utility.yul\":26716:26722   */\n      0x00\n        /* \"#utility.yul\":26750:26755   */\n      dup2\n        /* \"#utility.yul\":26744:26756   */\n      mload\n        /* \"#utility.yul\":26734:26756   */\n      swap1\n      pop\n        /* \"#utility.yul\":26665:26763   */\n      swap2\n      swap1\n      pop\n      jump\t// out\n        /* \"#utility.yul\":26769:26916   */\n    tag_466:\n        /* \"#utility.yul\":26870:26881   */\n      0x00\n        /* \"#utility.yul\":26907:26910   */\n      dup2\n        /* \"#utility.yul\":26892:26910   */\n      swap1\n      pop\n        /* \"#utility.yul\":26769:26916   */\n      swap3\n      swap2\n      pop\n      pop\n      jump\t// out\n        /* \"#utility.yul\":26922:27308   */\n    tag_467:\n        /* \"#utility.yul\":27026:27029   */\n      0x00\n        /* \"#utility.yul\":27054:27092   */\n      tag_719\n        /* \"#utility.yul\":27086:27091   */\n      dup3\n        /* \"#utility.yul\":27054:27092   */\n      tag_465\n      jump\t// in\n    tag_719:\n        /* \"#utility.yul\":27108:27196   */\n      tag_720\n        /* \"#utility.yul\":27189:27195   */\n      dup2\n        /* \"#utility.yul\":27184:27187   */\n      dup6\n        /* \"#utility.yul\":27108:27196   */\n      tag_466\n      jump\t// in\n    tag_720:\n        /* \"#utility.yul\":27101:27196   */\n      swap4\n      pop\n        /* \"#utility.yul\":27205:27270   */\n      tag_721\n        /* \"#utility.yul\":27263:27269   */\n      dup2\n        /* \"#utility.yul\":27258:27261   */\n      dup6\n        /* \"#utility.yul\":27251:27255   */\n      0x20\n        /* \"#utility.yul\":27244:27249   */\n      dup7\n        /* \"#utility.yul\":27240:27256   */\n      add\n        /* \"#utility.yul\":27205:27270   */\n      tag_418\n      jump\t// in\n    tag_721:\n        /* \"#utility.yul\":27295:27301   */\n      dup1\n        /* \"#utility.yul\":27290:27293   */\n      dup5\n        /* \"#utility.yul\":27286:27302   */\n      add\n        /* \"#utility.yul\":27279:27302   */\n      swap2\n      pop\n        /* \"#utility.yul\":27030:27308   */\n      pop\n        /* \"#utility.yul\":26922:27308   */\n      swap3\n      swap2\n      pop\n      pop\n      jump\t// out\n        /* \"#utility.yul\":27314:27585   */\n    tag_329:\n        /* \"#utility.yul\":27444:27447   */\n      0x00\n        /* \"#utility.yul\":27466:27559   */\n      tag_723\n        /* \"#utility.yul\":27555:27558   */\n      dup3\n        /* \"#utility.yul\":27546:27552   */\n      dup5\n        /* \"#utility.yul\":27466:27559   */\n      tag_467\n      jump\t// in\n    tag_723:\n        /* \"#utility.yul\":27459:27559   */\n      swap2\n      pop\n        /* \"#utility.yul\":27576:27579   */\n      dup2\n        /* \"#utility.yul\":27569:27579   */\n      swap1\n      pop\n        /* \"#utility.yul\":27314:27585   */\n      swap3\n      swap2\n      pop\n      pop\n      jump\t// out\n        /* \"#utility.yul\":27591:27707   */\n    tag_468:\n        /* \"#utility.yul\":27661:27682   */\n      tag_725\n        /* \"#utility.yul\":27676:27681   */\n      dup2\n        /* \"#utility.yul\":27661:27682   */\n      tag_425\n      jump\t// in\n    tag_725:\n        /* \"#utility.yul\":27654:27659   */\n      dup2\n        /* \"#utility.yul\":27651:27683   */\n      eq\n        /* \"#utility.yul\":27641:27701   */\n      tag_726\n      jumpi\n        /* \"#utility.yul\":27697:27698   */\n      0x00\n        /* \"#utility.yul\":27694:27695   */\n      dup1\n        /* \"#utility.yul\":27687:27699   */\n      revert\n        /* \"#utility.yul\":27641:27701   */\n    tag_726:\n        /* \"#utility.yul\":27591:27707   */\n      pop\n      jump\t// out\n        /* \"#utility.yul\":27713:27850   */\n    tag_469:\n        /* \"#utility.yul\":27767:27772   */\n      0x00\n        /* \"#utility.yul\":27798:27804   */\n      dup2\n        /* \"#utility.yul\":27792:27805   */\n      mload\n        /* \"#utility.yul\":27783:27805   */\n      swap1\n      pop\n        /* \"#utility.yul\":27814:27844   */\n      tag_728\n        /* \"#utility.yul\":27838:27843   */\n      dup2\n        /* \"#utility.yul\":27814:27844   */\n      tag_468\n      jump\t// in\n    tag_728:\n        /* \"#utility.yul\":27713:27850   */\n      swap3\n      swap2\n      pop\n      pop\n      jump\t// out\n        /* \"#utility.yul\":27856:28201   */\n    tag_336:\n        /* \"#utility.yul\":27923:27929   */\n      0x00\n        /* \"#utility.yul\":27972:27974   */\n      0x20\n        /* \"#utility.yul\":27960:27969   */\n      dup3\n        /* \"#utility.yul\":27951:27958   */\n      dup5\n        /* \"#utility.yul\":27947:27970   */\n      sub\n        /* \"#utility.yul\":27943:27975   */\n      slt\n        /* \"#utility.yul\":27940:28059   */\n      iszero\n      tag_730\n      jumpi\n        /* \"#utility.yul\":27978:28057   */\n      tag_731\n      tag_403\n      jump\t// in\n    tag_731:\n        /* \"#utility.yul\":27940:28059   */\n    tag_730:\n        /* \"#utility.yul\":28098:28099   */\n      0x00\n        /* \"#utility.yul\":28123:28184   */\n      tag_732\n        /* \"#utility.yul\":28176:28183   */\n      dup5\n        /* \"#utility.yul\":28167:28173   */\n      dup3\n        /* \"#utility.yul\":28156:28165   */\n      dup6\n        /* \"#utility.yul\":28152:28174   */\n      add\n        /* \"#utility.yul\":28123:28184   */\n      tag_469\n      jump\t// in\n    tag_732:\n        /* \"#utility.yul\":28113:28184   */\n      swap2\n      pop\n        /* \"#utility.yul\":28069:28194   */\n      pop\n        /* \"#utility.yul\":27856:28201   */\n      swap3\n      swap2\n      pop\n      pop\n      jump\t// out\n        /* \"#utility.yul\":28207:28386   */\n    tag_470:\n        /* \"#utility.yul\":28347:28378   */\n      0x5061697255736474526f6e743a205452414e534645525f4641494c4544000000\n        /* \"#utility.yul\":28343:28344   */\n      0x00\n        /* \"#utility.yul\":28335:28341   */\n      dup3\n        /* \"#utility.yul\":28331:28345   */\n      add\n        /* \"#utility.yul\":28324:28379   */\n      mstore\n        /* \"#utility.yul\":28207:28386   */\n      pop\n      jump\t// out\n        /* \"#utility.yul\":28392:28758   */\n    tag_471:\n        /* \"#utility.yul\":28534:28537   */\n      0x00\n        /* \"#utility.yul\":28555:28622   */\n      tag_735\n        /* \"#utility.yul\":28619:28621   */\n      0x1d\n        /* \"#utility.yul\":28614:28617   */\n      dup4\n        /* \"#utility.yul\":28555:28622   */\n      tag_417\n      jump\t// in\n    tag_735:\n        /* \"#utility.yul\":28548:28622   */\n      swap2\n      pop\n        /* \"#utility.yul\":28631:28724   */\n      tag_736\n        /* \"#utility.yul\":28720:28723   */\n      dup3\n        /* \"#utility.yul\":28631:28724   */\n      tag_470\n      jump\t// in\n    tag_736:\n        /* \"#utility.yul\":28749:28751   */\n      0x20\n        /* \"#utility.yul\":28744:28747   */\n      dup3\n        /* \"#utility.yul\":28740:28752   */\n      add\n        /* \"#utility.yul\":28733:28752   */\n      swap1\n      pop\n        /* \"#utility.yul\":28392:28758   */\n      swap2\n      swap1\n      pop\n      jump\t// out\n        /* \"#utility.yul\":28764:29183   */\n    tag_339:\n        /* \"#utility.yul\":28930:28934   */\n      0x00\n        /* \"#utility.yul\":28968:28970   */\n      0x20\n        /* \"#utility.yul\":28957:28966   */\n      dup3\n        /* \"#utility.yul\":28953:28971   */\n      add\n        /* \"#utility.yul\":28945:28971   */\n      swap1\n      pop\n        /* \"#utility.yul\":29017:29026   */\n      dup2\n        /* \"#utility.yul\":29011:29015   */\n      dup2\n        /* \"#utility.yul\":29007:29027   */\n      sub\n        /* \"#utility.yul\":29003:29004   */\n      0x00\n        /* \"#utility.yul\":28992:29001   */\n      dup4\n        /* \"#utility.yul\":28988:29005   */\n      add\n        /* \"#utility.yul\":28981:29028   */\n      mstore\n        /* \"#utility.yul\":29045:29176   */\n      tag_738\n        /* \"#utility.yul\":29171:29175   */\n      dup2\n        /* \"#utility.yul\":29045:29176   */\n      tag_471\n      jump\t// in\n    tag_738:\n        /* \"#utility.yul\":29037:29176   */\n      swap1\n      pop\n        /* \"#utility.yul\":28764:29183   */\n      swap2\n      swap1\n      pop\n      jump\t// out\n        /* \"#utility.yul\":29189:29365   */\n    tag_342:\n        /* \"#utility.yul\":29221:29222   */\n      0x00\n        /* \"#utility.yul\":29238:29258   */\n      tag_740\n        /* \"#utility.yul\":29256:29257   */\n      dup3\n        /* \"#utility.yul\":29238:29258   */\n      tag_405\n      jump\t// in\n    tag_740:\n        /* \"#utility.yul\":29233:29258   */\n      swap2\n      pop\n        /* \"#utility.yul\":29272:29292   */\n      tag_741\n        /* \"#utility.yul\":29290:29291   */\n      dup4\n        /* \"#utility.yul\":29272:29292   */\n      tag_405\n      jump\t// in\n    tag_741:\n        /* \"#utility.yul\":29267:29292   */\n      swap3\n      pop\n        /* \"#utility.yul\":29311:29312   */\n      dup3\n        /* \"#utility.yul\":29301:29336   */\n      tag_742\n      jumpi\n        /* \"#utility.yul\":29316:29334   */\n      tag_743\n      tag_451\n      jump\t// in\n    tag_743:\n        /* \"#utility.yul\":29301:29336   */\n    tag_742:\n        /* \"#utility.yul\":29357:29358   */\n      dup3\n        /* \"#utility.yul\":29354:29355   */\n      dup3\n        /* \"#utility.yul\":29350:29359   */\n      mod\n        /* \"#utility.yul\":29345:29359   */\n      swap1\n      pop\n        /* \"#utility.yul\":29189:29365   */\n      swap3\n      swap2\n      pop\n      pop\n      jump\t// out\n        /* \"#utility.yul\":29371:29571   */\n    tag_344:\n        /* \"#utility.yul\":29410:29414   */\n      0x00\n        /* \"#utility.yul\":29430:29449   */\n      tag_745\n        /* \"#utility.yul\":29447:29448   */\n      dup3\n        /* \"#utility.yul\":29430:29449   */\n      tag_423\n      jump\t// in\n    tag_745:\n        /* \"#utility.yul\":29425:29449   */\n      swap2\n      pop\n        /* \"#utility.yul\":29463:29482   */\n      tag_746\n        /* \"#utility.yul\":29480:29481   */\n      dup4\n        /* \"#utility.yul\":29463:29482   */\n      tag_423\n      jump\t// in\n    tag_746:\n        /* \"#utility.yul\":29458:29482   */\n      swap3\n      pop\n        /* \"#utility.yul\":29506:29507   */\n      dup3\n        /* \"#utility.yul\":29503:29504   */\n      dup3\n        /* \"#utility.yul\":29499:29508   */\n      sub\n        /* \"#utility.yul\":29491:29508   */\n      swap1\n      pop\n        /* \"#utility.yul\":29530:29540   */\n      0xffffffff\n        /* \"#utility.yul\":29524:29528   */\n      dup2\n        /* \"#utility.yul\":29521:29541   */\n      gt\n        /* \"#utility.yul\":29518:29564   */\n      iszero\n      tag_747\n      jumpi\n        /* \"#utility.yul\":29544:29562   */\n      tag_748\n      tag_446\n      jump\t// in\n    tag_748:\n        /* \"#utility.yul\":29518:29564   */\n    tag_747:\n        /* \"#utility.yul\":29371:29571   */\n      swap3\n      swap2\n      pop\n      pop\n      jump\t// out\n        /* \"#utility.yul\":29577:29719   */\n    tag_472:\n        /* \"#utility.yul\":29614:29621   */\n      0x00\n        /* \"#utility.yul\":29654:29712   */\n      0xffffffffffffffffffffffffffffffffffffffffffffffffffffffff\n        /* \"#utility.yul\":29647:29652   */\n      dup3\n        /* \"#utility.yul\":29643:29713   */\n      and\n        /* \"#utility.yul\":29632:29713   */\n      swap1\n      pop\n        /* \"#utility.yul\":29577:29719   */\n      swap2\n      swap1\n      pop\n      jump\t// out\n        /* \"#utility.yul\":29725:29910   */\n    tag_351:\n        /* \"#utility.yul\":29765:29766   */\n      0x00\n        /* \"#utility.yul\":29782:29802   */\n      tag_751\n        /* \"#utility.yul\":29800:29801   */\n      dup3\n        /* \"#utility.yul\":29782:29802   */\n      tag_472\n      jump\t// in\n    tag_751:\n        /* \"#utility.yul\":29777:29802   */\n      swap2\n      pop\n        /* \"#utility.yul\":29816:29836   */\n      tag_752\n        /* \"#utility.yul\":29834:29835   */\n      dup4\n        /* \"#utility.yul\":29816:29836   */\n      tag_472\n      jump\t// in\n    tag_752:\n        /* \"#utility.yul\":29811:29836   */\n      swap3\n      pop\n        /* \"#utility.yul\":29855:29856   */\n      dup3\n        /* \"#utility.yul\":29845:29880   */\n      tag_753\n      jumpi\n        /* \"#utility.yul\":29860:29878   */\n      tag_754\n      tag_451\n      jump\t// in\n    tag_754:\n        /* \"#utility.yul\":29845:29880   */\n    tag_753:\n        /* \"#utility.yul\":29902:29903   */\n      dup3\n        /* \"#utility.yul\":29899:29900   */\n      dup3\n        /* \"#utility.yul\":29895:29904   */\n      div\n        /* \"#utility.yul\":29890:29904   */\n      swap1\n      pop\n        /* \"#utility.yul\":29725:29910   */\n      swap3\n      swap2\n      pop\n      pop\n      jump\t// out\n        /* \"#utility.yul\":29916:30107   */\n    tag_354:\n        /* \"#utility.yul\":29956:29959   */\n      0x00\n        /* \"#utility.yul\":29975:29995   */\n      tag_756\n        /* \"#utility.yul\":29993:29994   */\n      dup3\n        /* \"#utility.yul\":29975:29995   */\n      tag_405\n      jump\t// in\n    tag_756:\n        /* \"#utility.yul\":29970:29995   */\n      swap2\n      pop\n        /* \"#utility.yul\":30009:30029   */\n      tag_757\n        /* \"#utility.yul\":30027:30028   */\n      dup4\n        /* \"#utility.yul\":30009:30029   */\n      tag_405\n      jump\t// in\n    tag_757:\n        /* \"#utility.yul\":30004:30029   */\n      swap3\n      pop\n        /* \"#utility.yul\":30052:30053   */\n      dup3\n        /* \"#utility.yul\":30049:30050   */\n      dup3\n        /* \"#utility.yul\":30045:30054   */\n      add\n        /* \"#utility.yul\":30038:30054   */\n      swap1\n      pop\n        /* \"#utility.yul\":30073:30076   */\n      dup1\n        /* \"#utility.yul\":30070:30071   */\n      dup3\n        /* \"#utility.yul\":30067:30077   */\n      gt\n        /* \"#utility.yul\":30064:30100   */\n      iszero\n      tag_758\n      jumpi\n        /* \"#utility.yul\":30080:30098   */\n      tag_759\n      tag_446\n      jump\t// in\n    tag_759:\n        /* \"#utility.yul\":30064:30100   */\n    tag_758:\n        /* \"#utility.yul\":29916:30107   */\n      swap3\n      swap2\n      pop\n      pop\n      jump\t// out\n        /* \"#utility.yul\":30113:30523   */\n    tag_401:\n        /* \"#utility.yul\":30153:30160   */\n      0x00\n        /* \"#utility.yul\":30176:30196   */\n      tag_761\n        /* \"#utility.yul\":30194:30195   */\n      dup3\n        /* \"#utility.yul\":30176:30196   */\n      tag_472\n      jump\t// in\n    tag_761:\n        /* \"#utility.yul\":30171:30196   */\n      swap2\n      pop\n        /* \"#utility.yul\":30210:30230   */\n      tag_762\n        /* \"#utility.yul\":30228:30229   */\n      dup4\n        /* \"#utility.yul\":30210:30230   */\n      tag_472\n      jump\t// in\n    tag_762:\n        /* \"#utility.yul\":30205:30230   */\n      swap3\n      pop\n        /* \"#utility.yul\":30265:30266   */\n      dup3\n        /* \"#utility.yul\":30262:30263   */\n      dup3\n        /* \"#utility.yul\":30258:30267   */\n      mul\n        /* \"#utility.yul\":30287:30317   */\n      tag_763\n        /* \"#utility.yul\":30305:30316   */\n      dup2\n        /* \"#utility.yul\":30287:30317   */\n      tag_472\n      jump\t// in\n    tag_763:\n        /* \"#utility.yul\":30276:30317   */\n      swap2\n      pop\n        /* \"#utility.yul\":30466:30467   */\n      dup3\n        /* \"#utility.yul\":30457:30464   */\n      dup3\n        /* \"#utility.yul\":30453:30468   */\n      div\n        /* \"#utility.yul\":30450:30451   */\n      dup5\n        /* \"#utility.yul\":30447:30469   */\n      eq\n        /* \"#utility.yul\":30427:30428   */\n      dup4\n        /* \"#utility.yul\":30420:30429   */\n      iszero\n        /* \"#utility.yul\":30400:30483   */\n      or\n        /* \"#utility.yul\":30377:30516   */\n      tag_764\n      jumpi\n        /* \"#utility.yul\":30496:30514   */\n      tag_765\n      tag_446\n      jump\t// in\n    tag_765:\n        /* \"#utility.yul\":30377:30516   */\n    tag_764:\n        /* \"#utility.yul\":30161:30523   */\n      pop\n        /* \"#utility.yul\":30113:30523   */\n      swap3\n      swap2\n      pop\n      pop\n      jump\t// out\n\n    auxdata: 0xa2646970667358221220358f1f8a8c7f7a4dc33b412fb85c71e5659c0a81fa087d26ee718642353e178264736f6c63430008120033\n}\n",
				"bytecode": {
					"linkReferences": {},
					"object": "6080604052733fa65b449490b1d70d0b195a2679154aa26d16426000806101000a81548173ffffffffffffffffffffffffffffffffffffffff021916908373ffffffffffffffffffffffffffffffffffffffff16021790555073d0da387609adc13779badaf1315a4904cd40976e600160006101000a81548173ffffffffffffffffffffffffffffffffffffffff021916908373ffffffffffffffffffffffffffffffffffffffff16021790555073d1f9c3397ea04d3de7f002cb9e63cb49d0deaa36600260006101000a81548173ffffffffffffffffffffffffffffffffffffffff021916908373ffffffffffffffffffffffffffffffffffffffff1602179055506001600c553480156200011457600080fd5b5060004690507f8b73c3c69bb8fe3d512ecc4cf759cc79239f7b179b0ffacaa9a75d522b39400f6040518060400160405280600e81526020017f45524320556e6973776170205632000000000000000000000000000000000000815250805190602001206040518060400160405280600181526020017f3100000000000000000000000000000000000000000000000000000000000000815250805190602001208330604051602001620001cd9594939291906200026b565b6040516020818303038152906040528051906020012060068190555050620002c8565b6000819050919050565b6200020581620001f0565b82525050565b6000819050919050565b62000220816200020b565b82525050565b600073ffffffffffffffffffffffffffffffffffffffff82169050919050565b6000620002538262000226565b9050919050565b620002658162000246565b82525050565b600060a082019050620002826000830188620001fa565b620002916020830187620001fa565b620002a06040830186620001fa565b620002af606083018562000215565b620002be60808301846200025a565b9695505050505050565b61344380620002d86000396000f3fe608060405234801561001057600080fd5b50600436106101735760003560e01c80636a627842116100de578063a9059cbb11610097578063d21220a711610071578063d21220a71461046b578063d505accf14610489578063dd62ed3e146104a5578063fff6cae9146104d557610173565b8063a9059cbb14610401578063ba9a7a5614610431578063bc25cf771461044f57610173565b80636a6278421461030457806370a08231146103345780637464fc3d146103645780637ecebe001461038257806389afcb44146103b257806395d89b41146103e357610173565b806323b872dd1161013057806323b872dd1461023e57806330adf81f1461026e578063313ce5671461028c5780633644e515146102aa5780635909c0d5146102c85780635a3d5493146102e657610173565b8063022c0d9f1461017857806306fdde03146101945780630902f1ac146101b2578063095ea7b3146101d25780630dfe16811461020257806318160ddd14610220575b600080fd5b610192600480360381019061018d91906124de565b6104df565b005b61019c610a07565b6040516101a991906125f6565b60405180910390f35b6101ba610a40565b6040516101c993929190612660565b60405180910390f35b6101ec60048036038101906101e79190612697565b610a9d565b6040516101f991906126f2565b60405180910390f35b61020a610ab4565b604051610217919061271c565b60405180910390f35b610228610ada565b6040516102359190612746565b60405180910390f35b61025860048036038101906102539190612761565b610ae0565b60405161026591906126f2565b60405180910390f35b610276610c94565b60405161028391906127cd565b60405180910390f35b610294610cbb565b6040516102a19190612804565b60405180910390f35b6102b2610cc0565b6040516102bf91906127cd565b60405180910390f35b6102d0610cc6565b6040516102dd9190612746565b60405180910390f35b6102ee610ccc565b6040516102fb9190612746565b60405180910390f35b61031e6004803603810190610319919061281f565b610cd2565b60405161032b9190612746565b60405180910390f35b61034e6004803603810190610349919061281f565b611039565b60405161035b9190612746565b60405180910390f35b61036c611051565b6040516103799190612746565b60405180910390f35b61039c6004803603810190610397919061281f565b611057565b6040516103a99190612746565b60405180910390f35b6103cc60048036038101906103c7919061281f565b61106f565b6040516103da92919061284c565b60405180910390f35b6103eb61149e565b6040516103f891906125f6565b60405180910390f35b61041b60048036038101906104169190612697565b6114d7565b60405161042891906126f2565b60405180910390f35b6104396114ee565b6040516104469190612746565b60405180910390f35b6104696004803603810190610464919061281f565b6114f3565b005b610473611711565b604051610480919061271c565b60405180910390f35b6104a3600480360381019061049e91906128cd565b611737565b005b6104bf60048036038101906104ba919061296f565b61195f565b6040516104cc9190612746565b60405180910390f35b6104dd611984565b005b6001600c5414610524576040517f08c379a000000000000000000000000000000000000000000000000000000000815260040161051b906129fb565b60405180910390fd5b6000600c81905550600085118061053b5750600084115b61057a576040517f08c379a000000000000000000000000000000000000000000000000000000000815260040161057190612a8d565b60405180910390fd5b600080610585610a40565b5091509150816dffffffffffffffffffffffffffff16871080156105b85750806dffffffffffffffffffffffffffff1686105b6105f7576040517f08c379a00000000000000000000000000000000000000000000000000000000081526004016105ee90612b1f565b60405180910390fd5b6000806000600160009054906101000a900473ffffffffffffffffffffffffffffffffffffffff1690506000600260009054906101000a900473ffffffffffffffffffffffffffffffffffffffff1690508173ffffffffffffffffffffffffffffffffffffffff168973ffffffffffffffffffffffffffffffffffffffff16141580156106b057508073ffffffffffffffffffffffffffffffffffffffff168973ffffffffffffffffffffffffffffffffffffffff1614155b6106ef576040517f08c379a00000000000000000000000000000000000000000000000000000000081526004016106e690612b8b565b60405180910390fd5b60008b111561070457610703828a8d611b55565b5b60008a111561071957610718818a8c611b55565b5b8173ffffffffffffffffffffffffffffffffffffffff166370a08231306040518263ffffffff1660e01b8152600401610752919061271c565b602060405180830381865afa15801561076f573d6000803e3d6000fd5b505050506040513d601f19601f820116820180604052508101906107939190612bc0565b93508073ffffffffffffffffffffffffffffffffffffffff166370a08231306040518263ffffffff1660e01b81526004016107ce919061271c565b602060405180830381865afa1580156107eb573d6000803e3d6000fd5b505050506040513d601f19601f8201168201806040525081019061080f9190612bc0565b92505050600089856dffffffffffffffffffffffffffff166108319190612c1c565b831161083e576000610866565b89856dffffffffffffffffffffffffffff1661085a9190612c1c565b836108659190612c1c565b5b9050600089856dffffffffffffffffffffffffffff166108869190612c1c565b83116108935760006108bb565b89856dffffffffffffffffffffffffffff166108af9190612c1c565b836108ba9190612c1c565b5b905060008211806108cc5750600081115b61090b576040517f08c379a000000000000000000000000000000000000000000000000000000000815260040161090290612cc2565b60405180910390fd5b600060038361091a9190612ce2565b6103e8866109289190612ce2565b6109329190612c1c565b905060006003836109439190612ce2565b6103e8866109519190612ce2565b61095b9190612c1c565b9050620f4240876dffffffffffffffffffffffffffff16896dffffffffffffffffffffffffffff1661098d9190612ce2565b6109979190612ce2565b81836109a39190612ce2565b10156109e4576040517f08c379a00000000000000000000000000000000000000000000000000000000081526004016109db90612d70565b60405180910390fd5b50506109f284848888611cdf565b5050505050506001600c819055505050505050565b6040518060400160405280600e81526020017f45524320556e697377617020563200000000000000000000000000000000000081525081565b6000806000600860009054906101000a90046dffffffffffffffffffffffffffff1692506008600e9054906101000a90046dffffffffffffffffffffffffffff1691506008601c9054906101000a900463ffffffff169050909192565b6000610aaa338484611ec9565b6001905092915050565b600160009054906101000a900473ffffffffffffffffffffffffffffffffffffffff1681565b60035481565b60006fffffffffffffffffffffffffffffffff600560008673ffffffffffffffffffffffffffffffffffffffff1673ffffffffffffffffffffffffffffffffffffffff16815260200190815260200160002060003373ffffffffffffffffffffffffffffffffffffffff1673ffffffffffffffffffffffffffffffffffffffff1681526020019081526020016000205414610c7e5781600560008673ffffffffffffffffffffffffffffffffffffffff1673ffffffffffffffffffffffffffffffffffffffff16815260200190815260200160002060003373ffffffffffffffffffffffffffffffffffffffff1673ffffffffffffffffffffffffffffffffffffffff16815260200190815260200160002054610bfd9190612c1c565b600560008673ffffffffffffffffffffffffffffffffffffffff1673ffffffffffffffffffffffffffffffffffffffff16815260200190815260200160002060003373ffffffffffffffffffffffffffffffffffffffff1673ffffffffffffffffffffffffffffffffffffffff168152602001908152602001600020819055505b610c89848484611f4f565b600190509392505050565b7f6e71edae12b1b97f4d1f60370fef10105fa2faae0126114a169c64845d6126c960001b81565b601281565b60065481565b60095481565b600a5481565b60006001600c5414610d19576040517f08c379a0000000000000000000000000000000000000000000000000000000008152600401610d10906129fb565b60405180910390fd5b6000600c81905550600080610d2c610a40565b50915091506000600160009054906101000a900473ffffffffffffffffffffffffffffffffffffffff1673ffffffffffffffffffffffffffffffffffffffff166370a08231306040518263ffffffff1660e01b8152600401610d8e919061271c565b602060405180830381865afa158015610dab573d6000803e3d6000fd5b505050506040513d601f19601f82011682018060405250810190610dcf9190612bc0565b90506000600260009054906101000a900473ffffffffffffffffffffffffffffffffffffffff1673ffffffffffffffffffffffffffffffffffffffff166370a08231306040518263ffffffff1660e01b8152600401610e2e919061271c565b602060405180830381865afa158015610e4b573d6000803e3d6000fd5b505050506040513d601f19601f82011682018060405250810190610e6f9190612bc0565b90506000846dffffffffffffffffffffffffffff1683610e8f9190612c1c565b90506000846dffffffffffffffffffffffffffff1683610eaf9190612c1c565b90506000610ebd8787612070565b90506000600354905060008103610f01576001610ee48486610edf9190612ce2565b6121c8565b610eee9190612c1c565b9850610efc60006001612242565b610f5a565b610f57886dffffffffffffffffffffffffffff168286610f219190612ce2565b610f2b9190612dbf565b886dffffffffffffffffffffffffffff168386610f489190612ce2565b610f529190612dbf565b6122e8565b98505b60008911610f9d576040517f08c379a0000000000000000000000000000000000000000000000000000000008152600401610f9490612e62565b60405180910390fd5b610fa78a8a612242565b610fb386868a8a611cdf565b8115611024576008600e9054906101000a90046dffffffffffffffffffffffffffff166dffffffffffffffffffffffffffff16600860009054906101000a90046dffffffffffffffffffffffffffff166dffffffffffffffffffffffffffff1661101d9190612ce2565b600b819055505b50505050505050506001600c81905550919050565b60046020528060005260406000206000915090505481565b600b5481565b60076020528060005260406000206000915090505481565b6000806001600c54146110b7576040517f08c379a00000000000000000000000000000000000000000000000000000000081526004016110ae906129fb565b60405180910390fd5b6000600c819055506000806110ca610a40565b50915091506000600160009054906101000a900473ffffffffffffffffffffffffffffffffffffffff1690506000600260009054906101000a900473ffffffffffffffffffffffffffffffffffffffff16905060008273ffffffffffffffffffffffffffffffffffffffff166370a08231306040518263ffffffff1660e01b8152600401611158919061271c565b602060405180830381865afa158015611175573d6000803e3d6000fd5b505050506040513d601f19601f820116820180604052508101906111999190612bc0565b905060008273ffffffffffffffffffffffffffffffffffffffff166370a08231306040518263ffffffff1660e01b81526004016111d6919061271c565b602060405180830381865afa1580156111f3573d6000803e3d6000fd5b505050506040513d601f19601f820116820180604052508101906112179190612bc0565b90506000600460003073ffffffffffffffffffffffffffffffffffffffff1673ffffffffffffffffffffffffffffffffffffffff16815260200190815260200160002054905060006112698888612070565b90506000600354905080858461127f9190612ce2565b6112899190612dbf565b9a508084846112989190612ce2565b6112a29190612dbf565b995060008b1180156112b4575060008a115b6112f3576040517f08c379a00000000000000000000000000000000000000000000000000000000081526004016112ea90612ef4565b60405180910390fd5b6112fd3084612301565b611308878d8d611b55565b611313868d8c611b55565b8673ffffffffffffffffffffffffffffffffffffffff166370a08231306040518263ffffffff1660e01b815260040161134c919061271c565b602060405180830381865afa158015611369573d6000803e3d6000fd5b505050506040513d601f19601f8201168201806040525081019061138d9190612bc0565b94508573ffffffffffffffffffffffffffffffffffffffff166370a08231306040518263ffffffff1660e01b81526004016113c8919061271c565b602060405180830381865afa1580156113e5573d6000803e3d6000fd5b505050506040513d601f19601f820116820180604052508101906114099190612bc0565b935061141785858b8b611cdf565b8115611488576008600e9054906101000a90046dffffffffffffffffffffffffffff166dffffffffffffffffffffffffffff16600860009054906101000a90046dffffffffffffffffffffffffffff166dffffffffffffffffffffffffffff166114819190612ce2565b600b819055505b5050505050505050506001600c81905550915091565b6040518060400160405280600a81526020017f45524320554e492d56320000000000000000000000000000000000000000000081525081565b60006114e4338484611f4f565b6001905092915050565b600181565b6001600c5414611538576040517f08c379a000000000000000000000000000000000000000000000000000000000815260040161152f906129fb565b60405180910390fd5b6000600c819055506000600160009054906101000a900473ffffffffffffffffffffffffffffffffffffffff1690506000600260009054906101000a900473ffffffffffffffffffffffffffffffffffffffff1690506116498284600860009054906101000a90046dffffffffffffffffffffffffffff166dffffffffffffffffffffffffffff168573ffffffffffffffffffffffffffffffffffffffff166370a08231306040518263ffffffff1660e01b81526004016115f9919061271c565b602060405180830381865afa158015611616573d6000803e3d6000fd5b505050506040513d601f19601f8201168201806040525081019061163a9190612bc0565b6116449190612c1c565b611b55565b61170481846008600e9054906101000a90046dffffffffffffffffffffffffffff166dffffffffffffffffffffffffffff168473ffffffffffffffffffffffffffffffffffffffff166370a08231306040518263ffffffff1660e01b81526004016116b4919061271c565b602060405180830381865afa1580156116d1573d6000803e3d6000fd5b505050506040513d601f19601f820116820180604052508101906116f59190612bc0565b6116ff9190612c1c565b611b55565b50506001600c8190555050565b600260009054906101000a900473ffffffffffffffffffffffffffffffffffffffff1681565b4284101561177a576040517f08c379a000000000000000000000000000000000000000000000000000000000815260040161177190612f60565b60405180910390fd5b60006006547f6e71edae12b1b97f4d1f60370fef10105fa2faae0126114a169c64845d6126c960001b898989600760008e73ffffffffffffffffffffffffffffffffffffffff1673ffffffffffffffffffffffffffffffffffffffff16815260200190815260200160002060008154809291906117f690612f80565b919050558a60405160200161181096959493929190612fc8565b604051602081830303815290604052805190602001206040516020016118379291906130a1565b60405160208183030381529060405280519060200120905060006001828686866040516000815260200160405260405161187494939291906130d8565b6020604051602081039080840390855afa158015611896573d6000803e3d6000fd5b505050602060405103519050600073ffffffffffffffffffffffffffffffffffffffff168173ffffffffffffffffffffffffffffffffffffffff161415801561190a57508873ffffffffffffffffffffffffffffffffffffffff168173ffffffffffffffffffffffffffffffffffffffff16145b611949576040517f08c379a000000000000000000000000000000000000000000000000000000000815260040161194090613169565b60405180910390fd5b611954898989611ec9565b505050505050505050565b6005602052816000526040600020602052806000526040600020600091509150505481565b6001600c54146119c9576040517f08c379a00000000000000000000000000000000000000000000000000000000081526004016119c0906129fb565b60405180910390fd5b6000600c81905550611b4b600160009054906101000a900473ffffffffffffffffffffffffffffffffffffffff1673ffffffffffffffffffffffffffffffffffffffff166370a08231306040518263ffffffff1660e01b8152600401611a2f919061271c565b602060405180830381865afa158015611a4c573d6000803e3d6000fd5b505050506040513d601f19601f82011682018060405250810190611a709190612bc0565b600260009054906101000a900473ffffffffffffffffffffffffffffffffffffffff1673ffffffffffffffffffffffffffffffffffffffff166370a08231306040518263ffffffff1660e01b8152600401611acb919061271c565b602060405180830381865afa158015611ae8573d6000803e3d6000fd5b505050506040513d601f19601f82011682018060405250810190611b0c9190612bc0565b600860009054906101000a90046dffffffffffffffffffffffffffff166008600e9054906101000a90046dffffffffffffffffffffffffffff16611cdf565b6001600c81905550565b6000808473ffffffffffffffffffffffffffffffffffffffff166040518060400160405280601981526020017f7472616e7366657228616464726573732c75696e743235362900000000000000815250805190602001208585604051602401611bbf929190613189565b604051602081830303815290604052907bffffffffffffffffffffffffffffffffffffffffffffffffffffffff19166020820180517bffffffffffffffffffffffffffffffffffffffffffffffffffffffff8381831617835250505050604051611c2991906131f9565b6000604051808303816000865af19150503d8060008114611c66576040519150601f19603f3d011682016040523d82523d6000602084013e611c6b565b606091505b5091509150818015611c995750600081511480611c98575080806020019051810190611c97919061323c565b5b5b611cd8576040517f08c379a0000000000000000000000000000000000000000000000000000000008152600401611ccf906132b5565b60405180910390fd5b5050505050565b600064010000000042611cf291906132d5565b905060006008601c9054906101000a900463ffffffff1682611d149190613306565b905060008163ffffffff16118015611d3d57506000846dffffffffffffffffffffffffffff1614155b8015611d5a57506000836dffffffffffffffffffffffffffff1614155b15611e36578063ffffffff16846dffffffffffffffffffffffffffff16611d80856123a7565b611d8a9190613366565b7bffffffffffffffffffffffffffffffffffffffffffffffffffffffff16611db29190612ce2565b60096000828254611dc39190613397565b925050819055508063ffffffff16836dffffffffffffffffffffffffffff16611deb866123a7565b611df59190613366565b7bffffffffffffffffffffffffffffffffffffffffffffffffffffffff16611e1d9190612ce2565b600a6000828254611e2e9190613397565b925050819055505b85600860006101000a8154816dffffffffffffffffffffffffffff02191690836dffffffffffffffffffffffffffff160217905550846008600e6101000a8154816dffffffffffffffffffffffffffff02191690836dffffffffffffffffffffffffffff160217905550816008601c6101000a81548163ffffffff021916908363ffffffff160217905550505050505050565b80600560008573ffffffffffffffffffffffffffffffffffffffff1673ffffffffffffffffffffffffffffffffffffffff16815260200190815260200160002060008473ffffffffffffffffffffffffffffffffffffffff1673ffffffffffffffffffffffffffffffffffffffff16815260200190815260200160002081905550505050565b80600460008573ffffffffffffffffffffffffffffffffffffffff1673ffffffffffffffffffffffffffffffffffffffff16815260200190815260200160002054611f9a9190612c1c565b600460008573ffffffffffffffffffffffffffffffffffffffff1673ffffffffffffffffffffffffffffffffffffffff1681526020019081526020016000208190555080600460008473ffffffffffffffffffffffffffffffffffffffff1673ffffffffffffffffffffffffffffffffffffffff168152602001908152602001600020546120289190612c1c565b600460008473ffffffffffffffffffffffffffffffffffffffff1673ffffffffffffffffffffffffffffffffffffffff16815260200190815260200160002081905550505050565b60008073ffffffffffffffffffffffffffffffffffffffff1660008054906101000a900473ffffffffffffffffffffffffffffffffffffffff1673ffffffffffffffffffffffffffffffffffffffff16141590506000600b54905081156121af57600081146121aa57600061210f846dffffffffffffffffffffffffffff16866dffffffffffffffffffffffffffff1661210a9190612ce2565b6121c8565b9050600061211c836121c8565b9050808211156121a757600081836121349190612c1c565b6003546121419190612ce2565b90506000826005856121539190612ce2565b61215d9190613397565b90506000818361216d9190612dbf565b905060008111156121a3576121a260008054906101000a900473ffffffffffffffffffffffffffffffffffffffff1682612242565b5b5050505b50505b6121c1565b600081146121c0576000600b819055505b5b5092915050565b6000600382111561222f57819050600060016002846121e79190612dbf565b6121f19190613397565b90505b8181101561222957809150600281828561220e9190612dbf565b6122189190613397565b6122229190612dbf565b90506121f4565b5061223d565b6000821461223c57600190505b5b919050565b806003546122509190613397565b60038190555080600460008473ffffffffffffffffffffffffffffffffffffffff1673ffffffffffffffffffffffffffffffffffffffff168152602001908152602001600020546122a19190613397565b600460008473ffffffffffffffffffffffffffffffffffffffff1673ffffffffffffffffffffffffffffffffffffffff168152602001908152602001600020819055505050565b60008183106122f757816122f9565b825b905092915050565b80600460008473ffffffffffffffffffffffffffffffffffffffff1673ffffffffffffffffffffffffffffffffffffffff1681526020019081526020016000205461234c9190612c1c565b600460008473ffffffffffffffffffffffffffffffffffffffff1673ffffffffffffffffffffffffffffffffffffffff168152602001908152602001600020819055508060035461239d9190612c1c565b6003819055505050565b60006e010000000000000000000000000000826dffffffffffffffffffffffffffff166123d491906133cb565b9050919050565b600080fd5b600080fd5b6000819050919050565b6123f8816123e5565b811461240357600080fd5b50565b600081359050612415816123ef565b92915050565b600073ffffffffffffffffffffffffffffffffffffffff82169050919050565b60006124468261241b565b9050919050565b6124568161243b565b811461246157600080fd5b50565b6000813590506124738161244d565b92915050565b600080fd5b600080fd5b600080fd5b60008083601f84011261249e5761249d612479565b5b8235905067ffffffffffffffff8111156124bb576124ba61247e565b5b6020830191508360018202830111156124d7576124d6612483565b5b9250929050565b6000806000806000608086880312156124fa576124f96123db565b5b600061250888828901612406565b955050602061251988828901612406565b945050604061252a88828901612464565b935050606086013567ffffffffffffffff81111561254b5761254a6123e0565b5b61255788828901612488565b92509250509295509295909350565b600081519050919050565b600082825260208201905092915050565b60005b838110156125a0578082015181840152602081019050612585565b60008484015250505050565b6000601f19601f8301169050919050565b60006125c882612566565b6125d28185612571565b93506125e2818560208601612582565b6125eb816125ac565b840191505092915050565b6000602082019050818103600083015261261081846125bd565b905092915050565b60006dffffffffffffffffffffffffffff82169050919050565b61263b81612618565b82525050565b600063ffffffff82169050919050565b61265a81612641565b82525050565b60006060820190506126756000830186612632565b6126826020830185612632565b61268f6040830184612651565b949350505050565b600080604083850312156126ae576126ad6123db565b5b60006126bc85828601612464565b92505060206126cd85828601612406565b9150509250929050565b60008115159050919050565b6126ec816126d7565b82525050565b600060208201905061270760008301846126e3565b92915050565b6127168161243b565b82525050565b6000602082019050612731600083018461270d565b92915050565b612740816123e5565b82525050565b600060208201905061275b6000830184612737565b92915050565b60008060006060848603121561277a576127796123db565b5b600061278886828701612464565b935050602061279986828701612464565b92505060406127aa86828701612406565b9150509250925092565b6000819050919050565b6127c7816127b4565b82525050565b60006020820190506127e260008301846127be565b92915050565b600060ff82169050919050565b6127fe816127e8565b82525050565b600060208201905061281960008301846127f5565b92915050565b600060208284031215612835576128346123db565b5b600061284384828501612464565b91505092915050565b60006040820190506128616000830185612737565b61286e6020830184612737565b9392505050565b61287e816127e8565b811461288957600080fd5b50565b60008135905061289b81612875565b92915050565b6128aa816127b4565b81146128b557600080fd5b50565b6000813590506128c7816128a1565b92915050565b600080600080600080600060e0888a0312156128ec576128eb6123db565b5b60006128fa8a828b01612464565b975050602061290b8a828b01612464565b965050604061291c8a828b01612406565b955050606061292d8a828b01612406565b945050608061293e8a828b0161288c565b93505060a061294f8a828b016128b8565b92505060c06129608a828b016128b8565b91505092959891949750929550565b60008060408385031215612986576129856123db565b5b600061299485828601612464565b92505060206129a585828601612464565b9150509250929050565b7f5061697255736474526f6e743a204c4f434b4544000000000000000000000000600082015250565b60006129e5601483612571565b91506129f0826129af565b602082019050919050565b60006020820190508181036000830152612a14816129d8565b9050919050565b7f5061697255736474526f6e743a20494e53554646494349454e545f4f5554505560008201527f545f414d4f554e54000000000000000000000000000000000000000000000000602082015250565b6000612a77602883612571565b9150612a8282612a1b565b604082019050919050565b60006020820190508181036000830152612aa681612a6a565b9050919050565b7f5061697255736474526f6e743a20494e53554646494349454e545f4c4951554960008201527f4449545900000000000000000000000000000000000000000000000000000000602082015250565b6000612b09602483612571565b9150612b1482612aad565b604082019050919050565b60006020820190508181036000830152612b3881612afc565b9050919050565b7f5061697255736474526f6e743a20494e56414c49445f544f0000000000000000600082015250565b6000612b75601883612571565b9150612b8082612b3f565b602082019050919050565b60006020820190508181036000830152612ba481612b68565b9050919050565b600081519050612bba816123ef565b92915050565b600060208284031215612bd657612bd56123db565b5b6000612be484828501612bab565b91505092915050565b7f4e487b7100000000000000000000000000000000000000000000000000000000600052601160045260246000fd5b6000612c27826123e5565b9150612c32836123e5565b9250828203905081811115612c4a57612c49612bed565b5b92915050565b7f5061697255736474526f6e743a20494e53554646494349454e545f494e50555460008201527f5f414d4f554e5400000000000000000000000000000000000000000000000000602082015250565b6000612cac602783612571565b9150612cb782612c50565b604082019050919050565b60006020820190508181036000830152612cdb81612c9f565b9050919050565b6000612ced826123e5565b9150612cf8836123e5565b9250828202612d06816123e5565b91508282048414831517612d1d57612d1c612bed565b5b5092915050565b7f5061697255736474526f6e743a204b0000000000000000000000000000000000600082015250565b6000612d5a600f83612571565b9150612d6582612d24565b602082019050919050565b60006020820190508181036000830152612d8981612d4d565b9050919050565b7f4e487b7100000000000000000000000000000000000000000000000000000000600052601260045260246000fd5b6000612dca826123e5565b9150612dd5836123e5565b925082612de557612de4612d90565b5b828204905092915050565b7f5061697255736474526f6e743a20494e53554646494349454e545f4c4951554960008201527f444954595f4d494e544544000000000000000000000000000000000000000000602082015250565b6000612e4c602b83612571565b9150612e5782612df0565b604082019050919050565b60006020820190508181036000830152612e7b81612e3f565b9050919050565b7f5061697255736474526f6e743a20494e53554646494349454e545f4c4951554960008201527f444954595f4255524e4544000000000000000000000000000000000000000000602082015250565b6000612ede602b83612571565b9150612ee982612e82565b604082019050919050565b60006020820190508181036000830152612f0d81612ed1565b9050919050565b7f556e697377617056323a20455850495245440000000000000000000000000000600082015250565b6000612f4a601283612571565b9150612f5582612f14565b602082019050919050565b60006020820190508181036000830152612f7981612f3d565b9050919050565b6000612f8b826123e5565b91507fffffffffffffffffffffffffffffffffffffffffffffffffffffffffffffffff8203612fbd57612fbc612bed565b5b600182019050919050565b600060c082019050612fdd60008301896127be565b612fea602083018861270d565b612ff7604083018761270d565b6130046060830186612737565b6130116080830185612737565b61301e60a0830184612737565b979650505050505050565b600081905092915050565b7f1901000000000000000000000000000000000000000000000000000000000000600082015250565b600061306a600283613029565b915061307582613034565b600282019050919050565b6000819050919050565b61309b613096826127b4565b613080565b82525050565b60006130ac8261305d565b91506130b8828561308a565b6020820191506130c8828461308a565b6020820191508190509392505050565b60006080820190506130ed60008301876127be565b6130fa60208301866127f5565b61310760408301856127be565b61311460608301846127be565b95945050505050565b7f556e697377617056323a20494e56414c49445f5349474e415455524500000000600082015250565b6000613153601c83612571565b915061315e8261311d565b602082019050919050565b6000602082019050818103600083015261318281613146565b9050919050565b600060408201905061319e600083018561270d565b6131ab6020830184612737565b9392505050565b600081519050919050565b600081905092915050565b60006131d3826131b2565b6131dd81856131bd565b93506131ed818560208601612582565b80840191505092915050565b600061320582846131c8565b915081905092915050565b613219816126d7565b811461322457600080fd5b50565b60008151905061323681613210565b92915050565b600060208284031215613252576132516123db565b5b600061326084828501613227565b91505092915050565b7f5061697255736474526f6e743a205452414e534645525f4641494c4544000000600082015250565b600061329f601d83612571565b91506132aa82613269565b602082019050919050565b600060208201905081810360008301526132ce81613292565b9050919050565b60006132e0826123e5565b91506132eb836123e5565b9250826132fb576132fa612d90565b5b828206905092915050565b600061331182612641565b915061331c83612641565b9250828203905063ffffffff81111561333857613337612bed565b5b92915050565b60007bffffffffffffffffffffffffffffffffffffffffffffffffffffffff82169050919050565b60006133718261333e565b915061337c8361333e565b92508261338c5761338b612d90565b5b828204905092915050565b60006133a2826123e5565b91506133ad836123e5565b92508282019050808211156133c5576133c4612bed565b5b92915050565b60006133d68261333e565b91506133e18361333e565b92508282026133ef8161333e565b9150828204841483151761340657613405612bed565b5b509291505056fea2646970667358221220358f1f8a8c7f7a4dc33b412fb85c71e5659c0a81fa087d26ee718642353e178264736f6c63430008120033",
					"opcodes": "PUSH1 0x80 PUSH1 0x40 MSTORE PUSH20 0x3FA65B449490B1D70D0B195A2679154AA26D1642 PUSH1 0x0 DUP1 PUSH2 0x100 EXP DUP2 SLOAD DUP2 PUSH20 0xFFFFFFFFFFFFFFFFFFFFFFFFFFFFFFFFFFFFFFFF MUL NOT AND SWAP1 DUP4 PUSH20 0xFFFFFFFFFFFFFFFFFFFFFFFFFFFFFFFFFFFFFFFF AND MUL OR SWAP1 SSTORE POP PUSH20 0xD0DA387609ADC13779BADAF1315A4904CD40976E PUSH1 0x1 PUSH1 0x0 PUSH2 0x100 EXP DUP2 SLOAD DUP2 PUSH20 0xFFFFFFFFFFFFFFFFFFFFFFFFFFFFFFFFFFFFFFFF MUL NOT AND SWAP1 DUP4 PUSH20 0xFFFFFFFFFFFFFFFFFFFFFFFFFFFFFFFFFFFFFFFF AND MUL OR SWAP1 SSTORE POP PUSH20 0xD1F9C3397EA04D3DE7F002CB9E63CB49D0DEAA36 PUSH1 0x2 PUSH1 0x0 PUSH2 0x100 EXP DUP2 SLOAD DUP2 PUSH20 0xFFFFFFFFFFFFFFFFFFFFFFFFFFFFFFFFFFFFFFFF MUL NOT AND SWAP1 DUP4 PUSH20 0xFFFFFFFFFFFFFFFFFFFFFFFFFFFFFFFFFFFFFFFF AND MUL OR SWAP1 SSTORE POP PUSH1 0x1 PUSH1 0xC SSTORE CALLVALUE DUP1 ISZERO PUSH3 0x114 JUMPI PUSH1 0x0 DUP1 REVERT JUMPDEST POP PUSH1 0x0 CHAINID SWAP1 POP PUSH32 0x8B73C3C69BB8FE3D512ECC4CF759CC79239F7B179B0FFACAA9A75D522B39400F PUSH1 0x40 MLOAD DUP1 PUSH1 0x40 ADD PUSH1 0x40 MSTORE DUP1 PUSH1 0xE DUP2 MSTORE PUSH1 0x20 ADD PUSH32 0x45524320556E6973776170205632000000000000000000000000000000000000 DUP2 MSTORE POP DUP1 MLOAD SWAP1 PUSH1 0x20 ADD KECCAK256 PUSH1 0x40 MLOAD DUP1 PUSH1 0x40 ADD PUSH1 0x40 MSTORE DUP1 PUSH1 0x1 DUP2 MSTORE PUSH1 0x20 ADD PUSH32 0x3100000000000000000000000000000000000000000000000000000000000000 DUP2 MSTORE POP DUP1 MLOAD SWAP1 PUSH1 0x20 ADD KECCAK256 DUP4 ADDRESS PUSH1 0x40 MLOAD PUSH1 0x20 ADD PUSH3 0x1CD SWAP6 SWAP5 SWAP4 SWAP3 SWAP2 SWAP1 PUSH3 0x26B JUMP JUMPDEST PUSH1 0x40 MLOAD PUSH1 0x20 DUP2 DUP4 SUB SUB DUP2 MSTORE SWAP1 PUSH1 0x40 MSTORE DUP1 MLOAD SWAP1 PUSH1 0x20 ADD KECCAK256 PUSH1 0x6 DUP2 SWAP1 SSTORE POP POP PUSH3 0x2C8 JUMP JUMPDEST PUSH1 0x0 DUP2 SWAP1 POP SWAP2 SWAP1 POP JUMP JUMPDEST PUSH3 0x205 DUP2 PUSH3 0x1F0 JUMP JUMPDEST DUP3 MSTORE POP POP JUMP JUMPDEST PUSH1 0x0 DUP2 SWAP1 POP SWAP2 SWAP1 POP JUMP JUMPDEST PUSH3 0x220 DUP2 PUSH3 0x20B JUMP JUMPDEST DUP3 MSTORE POP POP JUMP JUMPDEST PUSH1 0x0 PUSH20 0xFFFFFFFFFFFFFFFFFFFFFFFFFFFFFFFFFFFFFFFF DUP3 AND SWAP1 POP SWAP2 SWAP1 POP JUMP JUMPDEST PUSH1 0x0 PUSH3 0x253 DUP3 PUSH3 0x226 JUMP JUMPDEST SWAP1 POP SWAP2 SWAP1 POP JUMP JUMPDEST PUSH3 0x265 DUP2 PUSH3 0x246 JUMP JUMPDEST DUP3 MSTORE POP POP JUMP JUMPDEST PUSH1 0x0 PUSH1 0xA0 DUP3 ADD SWAP1 POP PUSH3 0x282 PUSH1 0x0 DUP4 ADD DUP9 PUSH3 0x1FA JUMP JUMPDEST PUSH3 0x291 PUSH1 0x20 DUP4 ADD DUP8 PUSH3 0x1FA JUMP JUMPDEST PUSH3 0x2A0 PUSH1 0x40 DUP4 ADD DUP7 PUSH3 0x1FA JUMP JUMPDEST PUSH3 0x2AF PUSH1 0x60 DUP4 ADD DUP6 PUSH3 0x215 JUMP JUMPDEST PUSH3 0x2BE PUSH1 0x80 DUP4 ADD DUP5 PUSH3 0x25A JUMP JUMPDEST SWAP7 SWAP6 POP POP POP POP POP POP JUMP JUMPDEST PUSH2 0x3443 DUP1 PUSH3 0x2D8 PUSH1 0x0 CODECOPY PUSH1 0x0 RETURN INVALID PUSH1 0x80 PUSH1 0x40 MSTORE CALLVALUE DUP1 ISZERO PUSH2 0x10 JUMPI PUSH1 0x0 DUP1 REVERT JUMPDEST POP PUSH1 0x4 CALLDATASIZE LT PUSH2 0x173 JUMPI PUSH1 0x0 CALLDATALOAD PUSH1 0xE0 SHR DUP1 PUSH4 0x6A627842 GT PUSH2 0xDE JUMPI DUP1 PUSH4 0xA9059CBB GT PUSH2 0x97 JUMPI DUP1 PUSH4 0xD21220A7 GT PUSH2 0x71 JUMPI DUP1 PUSH4 0xD21220A7 EQ PUSH2 0x46B JUMPI DUP1 PUSH4 0xD505ACCF EQ PUSH2 0x489 JUMPI DUP1 PUSH4 0xDD62ED3E EQ PUSH2 0x4A5 JUMPI DUP1 PUSH4 0xFFF6CAE9 EQ PUSH2 0x4D5 JUMPI PUSH2 0x173 JUMP JUMPDEST DUP1 PUSH4 0xA9059CBB EQ PUSH2 0x401 JUMPI DUP1 PUSH4 0xBA9A7A56 EQ PUSH2 0x431 JUMPI DUP1 PUSH4 0xBC25CF77 EQ PUSH2 0x44F JUMPI PUSH2 0x173 JUMP JUMPDEST DUP1 PUSH4 0x6A627842 EQ PUSH2 0x304 JUMPI DUP1 PUSH4 0x70A08231 EQ PUSH2 0x334 JUMPI DUP1 PUSH4 0x7464FC3D EQ PUSH2 0x364 JUMPI DUP1 PUSH4 0x7ECEBE00 EQ PUSH2 0x382 JUMPI DUP1 PUSH4 0x89AFCB44 EQ PUSH2 0x3B2 JUMPI DUP1 PUSH4 0x95D89B41 EQ PUSH2 0x3E3 JUMPI PUSH2 0x173 JUMP JUMPDEST DUP1 PUSH4 0x23B872DD GT PUSH2 0x130 JUMPI DUP1 PUSH4 0x23B872DD EQ PUSH2 0x23E JUMPI DUP1 PUSH4 0x30ADF81F EQ PUSH2 0x26E JUMPI DUP1 PUSH4 0x313CE567 EQ PUSH2 0x28C JUMPI DUP1 PUSH4 0x3644E515 EQ PUSH2 0x2AA JUMPI DUP1 PUSH4 0x5909C0D5 EQ PUSH2 0x2C8 JUMPI DUP1 PUSH4 0x5A3D5493 EQ PUSH2 0x2E6 JUMPI PUSH2 0x173 JUMP JUMPDEST DUP1 PUSH4 0x22C0D9F EQ PUSH2 0x178 JUMPI DUP1 PUSH4 0x6FDDE03 EQ PUSH2 0x194 JUMPI DUP1 PUSH4 0x902F1AC EQ PUSH2 0x1B2 JUMPI DUP1 PUSH4 0x95EA7B3 EQ PUSH2 0x1D2 JUMPI DUP1 PUSH4 0xDFE1681 EQ PUSH2 0x202 JUMPI DUP1 PUSH4 0x18160DDD EQ PUSH2 0x220 JUMPI JUMPDEST PUSH1 0x0 DUP1 REVERT JUMPDEST PUSH2 0x192 PUSH1 0x4 DUP1 CALLDATASIZE SUB DUP2 ADD SWAP1 PUSH2 0x18D SWAP2 SWAP1 PUSH2 0x24DE JUMP JUMPDEST PUSH2 0x4DF JUMP JUMPDEST STOP JUMPDEST PUSH2 0x19C PUSH2 0xA07 JUMP JUMPDEST PUSH1 0x40 MLOAD PUSH2 0x1A9 SWAP2 SWAP1 PUSH2 0x25F6 JUMP JUMPDEST PUSH1 0x40 MLOAD DUP1 SWAP2 SUB SWAP1 RETURN JUMPDEST PUSH2 0x1BA PUSH2 0xA40 JUMP JUMPDEST PUSH1 0x40 MLOAD PUSH2 0x1C9 SWAP4 SWAP3 SWAP2 SWAP1 PUSH2 0x2660 JUMP JUMPDEST PUSH1 0x40 MLOAD DUP1 SWAP2 SUB SWAP1 RETURN JUMPDEST PUSH2 0x1EC PUSH1 0x4 DUP1 CALLDATASIZE SUB DUP2 ADD SWAP1 PUSH2 0x1E7 SWAP2 SWAP1 PUSH2 0x2697 JUMP JUMPDEST PUSH2 0xA9D JUMP JUMPDEST PUSH1 0x40 MLOAD PUSH2 0x1F9 SWAP2 SWAP1 PUSH2 0x26F2 JUMP JUMPDEST PUSH1 0x40 MLOAD DUP1 SWAP2 SUB SWAP1 RETURN JUMPDEST PUSH2 0x20A PUSH2 0xAB4 JUMP JUMPDEST PUSH1 0x40 MLOAD PUSH2 0x217 SWAP2 SWAP1 PUSH2 0x271C JUMP JUMPDEST PUSH1 0x40 MLOAD DUP1 SWAP2 SUB SWAP1 RETURN JUMPDEST PUSH2 0x228 PUSH2 0xADA JUMP JUMPDEST PUSH1 0x40 MLOAD PUSH2 0x235 SWAP2 SWAP1 PUSH2 0x2746 JUMP JUMPDEST PUSH1 0x40 MLOAD DUP1 SWAP2 SUB SWAP1 RETURN JUMPDEST PUSH2 0x258 PUSH1 0x4 DUP1 CALLDATASIZE SUB DUP2 ADD SWAP1 PUSH2 0x253 SWAP2 SWAP1 PUSH2 0x2761 JUMP JUMPDEST PUSH2 0xAE0 JUMP JUMPDEST PUSH1 0x40 MLOAD PUSH2 0x265 SWAP2 SWAP1 PUSH2 0x26F2 JUMP JUMPDEST PUSH1 0x40 MLOAD DUP1 SWAP2 SUB SWAP1 RETURN JUMPDEST PUSH2 0x276 PUSH2 0xC94 JUMP JUMPDEST PUSH1 0x40 MLOAD PUSH2 0x283 SWAP2 SWAP1 PUSH2 0x27CD JUMP JUMPDEST PUSH1 0x40 MLOAD DUP1 SWAP2 SUB SWAP1 RETURN JUMPDEST PUSH2 0x294 PUSH2 0xCBB JUMP JUMPDEST PUSH1 0x40 MLOAD PUSH2 0x2A1 SWAP2 SWAP1 PUSH2 0x2804 JUMP JUMPDEST PUSH1 0x40 MLOAD DUP1 SWAP2 SUB SWAP1 RETURN JUMPDEST PUSH2 0x2B2 PUSH2 0xCC0 JUMP JUMPDEST PUSH1 0x40 MLOAD PUSH2 0x2BF SWAP2 SWAP1 PUSH2 0x27CD JUMP JUMPDEST PUSH1 0x40 MLOAD DUP1 SWAP2 SUB SWAP1 RETURN JUMPDEST PUSH2 0x2D0 PUSH2 0xCC6 JUMP JUMPDEST PUSH1 0x40 MLOAD PUSH2 0x2DD SWAP2 SWAP1 PUSH2 0x2746 JUMP JUMPDEST PUSH1 0x40 MLOAD DUP1 SWAP2 SUB SWAP1 RETURN JUMPDEST PUSH2 0x2EE PUSH2 0xCCC JUMP JUMPDEST PUSH1 0x40 MLOAD PUSH2 0x2FB SWAP2 SWAP1 PUSH2 0x2746 JUMP JUMPDEST PUSH1 0x40 MLOAD DUP1 SWAP2 SUB SWAP1 RETURN JUMPDEST PUSH2 0x31E PUSH1 0x4 DUP1 CALLDATASIZE SUB DUP2 ADD SWAP1 PUSH2 0x319 SWAP2 SWAP1 PUSH2 0x281F JUMP JUMPDEST PUSH2 0xCD2 JUMP JUMPDEST PUSH1 0x40 MLOAD PUSH2 0x32B SWAP2 SWAP1 PUSH2 0x2746 JUMP JUMPDEST PUSH1 0x40 MLOAD DUP1 SWAP2 SUB SWAP1 RETURN JUMPDEST PUSH2 0x34E PUSH1 0x4 DUP1 CALLDATASIZE SUB DUP2 ADD SWAP1 PUSH2 0x349 SWAP2 SWAP1 PUSH2 0x281F JUMP JUMPDEST PUSH2 0x1039 JUMP JUMPDEST PUSH1 0x40 MLOAD PUSH2 0x35B SWAP2 SWAP1 PUSH2 0x2746 JUMP JUMPDEST PUSH1 0x40 MLOAD DUP1 SWAP2 SUB SWAP1 RETURN JUMPDEST PUSH2 0x36C PUSH2 0x1051 JUMP JUMPDEST PUSH1 0x40 MLOAD PUSH2 0x379 SWAP2 SWAP1 PUSH2 0x2746 JUMP JUMPDEST PUSH1 0x40 MLOAD DUP1 SWAP2 SUB SWAP1 RETURN JUMPDEST PUSH2 0x39C PUSH1 0x4 DUP1 CALLDATASIZE SUB DUP2 ADD SWAP1 PUSH2 0x397 SWAP2 SWAP1 PUSH2 0x281F JUMP JUMPDEST PUSH2 0x1057 JUMP JUMPDEST PUSH1 0x40 MLOAD PUSH2 0x3A9 SWAP2 SWAP1 PUSH2 0x2746 JUMP JUMPDEST PUSH1 0x40 MLOAD DUP1 SWAP2 SUB SWAP1 RETURN JUMPDEST PUSH2 0x3CC PUSH1 0x4 DUP1 CALLDATASIZE SUB DUP2 ADD SWAP1 PUSH2 0x3C7 SWAP2 SWAP1 PUSH2 0x281F JUMP JUMPDEST PUSH2 0x106F JUMP JUMPDEST PUSH1 0x40 MLOAD PUSH2 0x3DA SWAP3 SWAP2 SWAP1 PUSH2 0x284C JUMP JUMPDEST PUSH1 0x40 MLOAD DUP1 SWAP2 SUB SWAP1 RETURN JUMPDEST PUSH2 0x3EB PUSH2 0x149E JUMP JUMPDEST PUSH1 0x40 MLOAD PUSH2 0x3F8 SWAP2 SWAP1 PUSH2 0x25F6 JUMP JUMPDEST PUSH1 0x40 MLOAD DUP1 SWAP2 SUB SWAP1 RETURN JUMPDEST PUSH2 0x41B PUSH1 0x4 DUP1 CALLDATASIZE SUB DUP2 ADD SWAP1 PUSH2 0x416 SWAP2 SWAP1 PUSH2 0x2697 JUMP JUMPDEST PUSH2 0x14D7 JUMP JUMPDEST PUSH1 0x40 MLOAD PUSH2 0x428 SWAP2 SWAP1 PUSH2 0x26F2 JUMP JUMPDEST PUSH1 0x40 MLOAD DUP1 SWAP2 SUB SWAP1 RETURN JUMPDEST PUSH2 0x439 PUSH2 0x14EE JUMP JUMPDEST PUSH1 0x40 MLOAD PUSH2 0x446 SWAP2 SWAP1 PUSH2 0x2746 JUMP JUMPDEST PUSH1 0x40 MLOAD DUP1 SWAP2 SUB SWAP1 RETURN JUMPDEST PUSH2 0x469 PUSH1 0x4 DUP1 CALLDATASIZE SUB DUP2 ADD SWAP1 PUSH2 0x464 SWAP2 SWAP1 PUSH2 0x281F JUMP JUMPDEST PUSH2 0x14F3 JUMP JUMPDEST STOP JUMPDEST PUSH2 0x473 PUSH2 0x1711 JUMP JUMPDEST PUSH1 0x40 MLOAD PUSH2 0x480 SWAP2 SWAP1 PUSH2 0x271C JUMP JUMPDEST PUSH1 0x40 MLOAD DUP1 SWAP2 SUB SWAP1 RETURN JUMPDEST PUSH2 0x4A3 PUSH1 0x4 DUP1 CALLDATASIZE SUB DUP2 ADD SWAP1 PUSH2 0x49E SWAP2 SWAP1 PUSH2 0x28CD JUMP JUMPDEST PUSH2 0x1737 JUMP JUMPDEST STOP JUMPDEST PUSH2 0x4BF PUSH1 0x4 DUP1 CALLDATASIZE SUB DUP2 ADD SWAP1 PUSH2 0x4BA SWAP2 SWAP1 PUSH2 0x296F JUMP JUMPDEST PUSH2 0x195F JUMP JUMPDEST PUSH1 0x40 MLOAD PUSH2 0x4CC SWAP2 SWAP1 PUSH2 0x2746 JUMP JUMPDEST PUSH1 0x40 MLOAD DUP1 SWAP2 SUB SWAP1 RETURN JUMPDEST PUSH2 0x4DD PUSH2 0x1984 JUMP JUMPDEST STOP JUMPDEST PUSH1 0x1 PUSH1 0xC SLOAD EQ PUSH2 0x524 JUMPI PUSH1 0x40 MLOAD PUSH32 0x8C379A000000000000000000000000000000000000000000000000000000000 DUP2 MSTORE PUSH1 0x4 ADD PUSH2 0x51B SWAP1 PUSH2 0x29FB JUMP JUMPDEST PUSH1 0x40 MLOAD DUP1 SWAP2 SUB SWAP1 REVERT JUMPDEST PUSH1 0x0 PUSH1 0xC DUP2 SWAP1 SSTORE POP PUSH1 0x0 DUP6 GT DUP1 PUSH2 0x53B JUMPI POP PUSH1 0x0 DUP5 GT JUMPDEST PUSH2 0x57A JUMPI PUSH1 0x40 MLOAD PUSH32 0x8C379A000000000000000000000000000000000000000000000000000000000 DUP2 MSTORE PUSH1 0x4 ADD PUSH2 0x571 SWAP1 PUSH2 0x2A8D JUMP JUMPDEST PUSH1 0x40 MLOAD DUP1 SWAP2 SUB SWAP1 REVERT JUMPDEST PUSH1 0x0 DUP1 PUSH2 0x585 PUSH2 0xA40 JUMP JUMPDEST POP SWAP2 POP SWAP2 POP DUP2 PUSH14 0xFFFFFFFFFFFFFFFFFFFFFFFFFFFF AND DUP8 LT DUP1 ISZERO PUSH2 0x5B8 JUMPI POP DUP1 PUSH14 0xFFFFFFFFFFFFFFFFFFFFFFFFFFFF AND DUP7 LT JUMPDEST PUSH2 0x5F7 JUMPI PUSH1 0x40 MLOAD PUSH32 0x8C379A000000000000000000000000000000000000000000000000000000000 DUP2 MSTORE PUSH1 0x4 ADD PUSH2 0x5EE SWAP1 PUSH2 0x2B1F JUMP JUMPDEST PUSH1 0x40 MLOAD DUP1 SWAP2 SUB SWAP1 REVERT JUMPDEST PUSH1 0x0 DUP1 PUSH1 0x0 PUSH1 0x1 PUSH1 0x0 SWAP1 SLOAD SWAP1 PUSH2 0x100 EXP SWAP1 DIV PUSH20 0xFFFFFFFFFFFFFFFFFFFFFFFFFFFFFFFFFFFFFFFF AND SWAP1 POP PUSH1 0x0 PUSH1 0x2 PUSH1 0x0 SWAP1 SLOAD SWAP1 PUSH2 0x100 EXP SWAP1 DIV PUSH20 0xFFFFFFFFFFFFFFFFFFFFFFFFFFFFFFFFFFFFFFFF AND SWAP1 POP DUP2 PUSH20 0xFFFFFFFFFFFFFFFFFFFFFFFFFFFFFFFFFFFFFFFF AND DUP10 PUSH20 0xFFFFFFFFFFFFFFFFFFFFFFFFFFFFFFFFFFFFFFFF AND EQ ISZERO DUP1 ISZERO PUSH2 0x6B0 JUMPI POP DUP1 PUSH20 0xFFFFFFFFFFFFFFFFFFFFFFFFFFFFFFFFFFFFFFFF AND DUP10 PUSH20 0xFFFFFFFFFFFFFFFFFFFFFFFFFFFFFFFFFFFFFFFF AND EQ ISZERO JUMPDEST PUSH2 0x6EF JUMPI PUSH1 0x40 MLOAD PUSH32 0x8C379A000000000000000000000000000000000000000000000000000000000 DUP2 MSTORE PUSH1 0x4 ADD PUSH2 0x6E6 SWAP1 PUSH2 0x2B8B JUMP JUMPDEST PUSH1 0x40 MLOAD DUP1 SWAP2 SUB SWAP1 REVERT JUMPDEST PUSH1 0x0 DUP12 GT ISZERO PUSH2 0x704 JUMPI PUSH2 0x703 DUP3 DUP11 DUP14 PUSH2 0x1B55 JUMP JUMPDEST JUMPDEST PUSH1 0x0 DUP11 GT ISZERO PUSH2 0x719 JUMPI PUSH2 0x718 DUP2 DUP11 DUP13 PUSH2 0x1B55 JUMP JUMPDEST JUMPDEST DUP2 PUSH20 0xFFFFFFFFFFFFFFFFFFFFFFFFFFFFFFFFFFFFFFFF AND PUSH4 0x70A08231 ADDRESS PUSH1 0x40 MLOAD DUP3 PUSH4 0xFFFFFFFF AND PUSH1 0xE0 SHL DUP2 MSTORE PUSH1 0x4 ADD PUSH2 0x752 SWAP2 SWAP1 PUSH2 0x271C JUMP JUMPDEST PUSH1 0x20 PUSH1 0x40 MLOAD DUP1 DUP4 SUB DUP2 DUP7 GAS STATICCALL ISZERO DUP1 ISZERO PUSH2 0x76F JUMPI RETURNDATASIZE PUSH1 0x0 DUP1 RETURNDATACOPY RETURNDATASIZE PUSH1 0x0 REVERT JUMPDEST POP POP POP POP PUSH1 0x40 MLOAD RETURNDATASIZE PUSH1 0x1F NOT PUSH1 0x1F DUP3 ADD AND DUP3 ADD DUP1 PUSH1 0x40 MSTORE POP DUP2 ADD SWAP1 PUSH2 0x793 SWAP2 SWAP1 PUSH2 0x2BC0 JUMP JUMPDEST SWAP4 POP DUP1 PUSH20 0xFFFFFFFFFFFFFFFFFFFFFFFFFFFFFFFFFFFFFFFF AND PUSH4 0x70A08231 ADDRESS PUSH1 0x40 MLOAD DUP3 PUSH4 0xFFFFFFFF AND PUSH1 0xE0 SHL DUP2 MSTORE PUSH1 0x4 ADD PUSH2 0x7CE SWAP2 SWAP1 PUSH2 0x271C JUMP JUMPDEST PUSH1 0x20 PUSH1 0x40 MLOAD DUP1 DUP4 SUB DUP2 DUP7 GAS STATICCALL ISZERO DUP1 ISZERO PUSH2 0x7EB JUMPI RETURNDATASIZE PUSH1 0x0 DUP1 RETURNDATACOPY RETURNDATASIZE PUSH1 0x0 REVERT JUMPDEST POP POP POP POP PUSH1 0x40 MLOAD RETURNDATASIZE PUSH1 0x1F NOT PUSH1 0x1F DUP3 ADD AND DUP3 ADD DUP1 PUSH1 0x40 MSTORE POP DUP2 ADD SWAP1 PUSH2 0x80F SWAP2 SWAP1 PUSH2 0x2BC0 JUMP JUMPDEST SWAP3 POP POP POP PUSH1 0x0 DUP10 DUP6 PUSH14 0xFFFFFFFFFFFFFFFFFFFFFFFFFFFF AND PUSH2 0x831 SWAP2 SWAP1 PUSH2 0x2C1C JUMP JUMPDEST DUP4 GT PUSH2 0x83E JUMPI PUSH1 0x0 PUSH2 0x866 JUMP JUMPDEST DUP10 DUP6 PUSH14 0xFFFFFFFFFFFFFFFFFFFFFFFFFFFF AND PUSH2 0x85A SWAP2 SWAP1 PUSH2 0x2C1C JUMP JUMPDEST DUP4 PUSH2 0x865 SWAP2 SWAP1 PUSH2 0x2C1C JUMP JUMPDEST JUMPDEST SWAP1 POP PUSH1 0x0 DUP10 DUP6 PUSH14 0xFFFFFFFFFFFFFFFFFFFFFFFFFFFF AND PUSH2 0x886 SWAP2 SWAP1 PUSH2 0x2C1C JUMP JUMPDEST DUP4 GT PUSH2 0x893 JUMPI PUSH1 0x0 PUSH2 0x8BB JUMP JUMPDEST DUP10 DUP6 PUSH14 0xFFFFFFFFFFFFFFFFFFFFFFFFFFFF AND PUSH2 0x8AF SWAP2 SWAP1 PUSH2 0x2C1C JUMP JUMPDEST DUP4 PUSH2 0x8BA SWAP2 SWAP1 PUSH2 0x2C1C JUMP JUMPDEST JUMPDEST SWAP1 POP PUSH1 0x0 DUP3 GT DUP1 PUSH2 0x8CC JUMPI POP PUSH1 0x0 DUP2 GT JUMPDEST PUSH2 0x90B JUMPI PUSH1 0x40 MLOAD PUSH32 0x8C379A000000000000000000000000000000000000000000000000000000000 DUP2 MSTORE PUSH1 0x4 ADD PUSH2 0x902 SWAP1 PUSH2 0x2CC2 JUMP JUMPDEST PUSH1 0x40 MLOAD DUP1 SWAP2 SUB SWAP1 REVERT JUMPDEST PUSH1 0x0 PUSH1 0x3 DUP4 PUSH2 0x91A SWAP2 SWAP1 PUSH2 0x2CE2 JUMP JUMPDEST PUSH2 0x3E8 DUP7 PUSH2 0x928 SWAP2 SWAP1 PUSH2 0x2CE2 JUMP JUMPDEST PUSH2 0x932 SWAP2 SWAP1 PUSH2 0x2C1C JUMP JUMPDEST SWAP1 POP PUSH1 0x0 PUSH1 0x3 DUP4 PUSH2 0x943 SWAP2 SWAP1 PUSH2 0x2CE2 JUMP JUMPDEST PUSH2 0x3E8 DUP7 PUSH2 0x951 SWAP2 SWAP1 PUSH2 0x2CE2 JUMP JUMPDEST PUSH2 0x95B SWAP2 SWAP1 PUSH2 0x2C1C JUMP JUMPDEST SWAP1 POP PUSH3 0xF4240 DUP8 PUSH14 0xFFFFFFFFFFFFFFFFFFFFFFFFFFFF AND DUP10 PUSH14 0xFFFFFFFFFFFFFFFFFFFFFFFFFFFF AND PUSH2 0x98D SWAP2 SWAP1 PUSH2 0x2CE2 JUMP JUMPDEST PUSH2 0x997 SWAP2 SWAP1 PUSH2 0x2CE2 JUMP JUMPDEST DUP2 DUP4 PUSH2 0x9A3 SWAP2 SWAP1 PUSH2 0x2CE2 JUMP JUMPDEST LT ISZERO PUSH2 0x9E4 JUMPI PUSH1 0x40 MLOAD PUSH32 0x8C379A000000000000000000000000000000000000000000000000000000000 DUP2 MSTORE PUSH1 0x4 ADD PUSH2 0x9DB SWAP1 PUSH2 0x2D70 JUMP JUMPDEST PUSH1 0x40 MLOAD DUP1 SWAP2 SUB SWAP1 REVERT JUMPDEST POP POP PUSH2 0x9F2 DUP5 DUP5 DUP9 DUP9 PUSH2 0x1CDF JUMP JUMPDEST POP POP POP POP POP POP PUSH1 0x1 PUSH1 0xC DUP2 SWAP1 SSTORE POP POP POP POP POP POP JUMP JUMPDEST PUSH1 0x40 MLOAD DUP1 PUSH1 0x40 ADD PUSH1 0x40 MSTORE DUP1 PUSH1 0xE DUP2 MSTORE PUSH1 0x20 ADD PUSH32 0x45524320556E6973776170205632000000000000000000000000000000000000 DUP2 MSTORE POP DUP2 JUMP JUMPDEST PUSH1 0x0 DUP1 PUSH1 0x0 PUSH1 0x8 PUSH1 0x0 SWAP1 SLOAD SWAP1 PUSH2 0x100 EXP SWAP1 DIV PUSH14 0xFFFFFFFFFFFFFFFFFFFFFFFFFFFF AND SWAP3 POP PUSH1 0x8 PUSH1 0xE SWAP1 SLOAD SWAP1 PUSH2 0x100 EXP SWAP1 DIV PUSH14 0xFFFFFFFFFFFFFFFFFFFFFFFFFFFF AND SWAP2 POP PUSH1 0x8 PUSH1 0x1C SWAP1 SLOAD SWAP1 PUSH2 0x100 EXP SWAP1 DIV PUSH4 0xFFFFFFFF AND SWAP1 POP SWAP1 SWAP2 SWAP3 JUMP JUMPDEST PUSH1 0x0 PUSH2 0xAAA CALLER DUP5 DUP5 PUSH2 0x1EC9 JUMP JUMPDEST PUSH1 0x1 SWAP1 POP SWAP3 SWAP2 POP POP JUMP JUMPDEST PUSH1 0x1 PUSH1 0x0 SWAP1 SLOAD SWAP1 PUSH2 0x100 EXP SWAP1 DIV PUSH20 0xFFFFFFFFFFFFFFFFFFFFFFFFFFFFFFFFFFFFFFFF AND DUP2 JUMP JUMPDEST PUSH1 0x3 SLOAD DUP2 JUMP JUMPDEST PUSH1 0x0 PUSH16 0xFFFFFFFFFFFFFFFFFFFFFFFFFFFFFFFF PUSH1 0x5 PUSH1 0x0 DUP7 PUSH20 0xFFFFFFFFFFFFFFFFFFFFFFFFFFFFFFFFFFFFFFFF AND PUSH20 0xFFFFFFFFFFFFFFFFFFFFFFFFFFFFFFFFFFFFFFFF AND DUP2 MSTORE PUSH1 0x20 ADD SWAP1 DUP2 MSTORE PUSH1 0x20 ADD PUSH1 0x0 KECCAK256 PUSH1 0x0 CALLER PUSH20 0xFFFFFFFFFFFFFFFFFFFFFFFFFFFFFFFFFFFFFFFF AND PUSH20 0xFFFFFFFFFFFFFFFFFFFFFFFFFFFFFFFFFFFFFFFF AND DUP2 MSTORE PUSH1 0x20 ADD SWAP1 DUP2 MSTORE PUSH1 0x20 ADD PUSH1 0x0 KECCAK256 SLOAD EQ PUSH2 0xC7E JUMPI DUP2 PUSH1 0x5 PUSH1 0x0 DUP7 PUSH20 0xFFFFFFFFFFFFFFFFFFFFFFFFFFFFFFFFFFFFFFFF AND PUSH20 0xFFFFFFFFFFFFFFFFFFFFFFFFFFFFFFFFFFFFFFFF AND DUP2 MSTORE PUSH1 0x20 ADD SWAP1 DUP2 MSTORE PUSH1 0x20 ADD PUSH1 0x0 KECCAK256 PUSH1 0x0 CALLER PUSH20 0xFFFFFFFFFFFFFFFFFFFFFFFFFFFFFFFFFFFFFFFF AND PUSH20 0xFFFFFFFFFFFFFFFFFFFFFFFFFFFFFFFFFFFFFFFF AND DUP2 MSTORE PUSH1 0x20 ADD SWAP1 DUP2 MSTORE PUSH1 0x20 ADD PUSH1 0x0 KECCAK256 SLOAD PUSH2 0xBFD SWAP2 SWAP1 PUSH2 0x2C1C JUMP JUMPDEST PUSH1 0x5 PUSH1 0x0 DUP7 PUSH20 0xFFFFFFFFFFFFFFFFFFFFFFFFFFFFFFFFFFFFFFFF AND PUSH20 0xFFFFFFFFFFFFFFFFFFFFFFFFFFFFFFFFFFFFFFFF AND DUP2 MSTORE PUSH1 0x20 ADD SWAP1 DUP2 MSTORE PUSH1 0x20 ADD PUSH1 0x0 KECCAK256 PUSH1 0x0 CALLER PUSH20 0xFFFFFFFFFFFFFFFFFFFFFFFFFFFFFFFFFFFFFFFF AND PUSH20 0xFFFFFFFFFFFFFFFFFFFFFFFFFFFFFFFFFFFFFFFF AND DUP2 MSTORE PUSH1 0x20 ADD SWAP1 DUP2 MSTORE PUSH1 0x20 ADD PUSH1 0x0 KECCAK256 DUP2 SWAP1 SSTORE POP JUMPDEST PUSH2 0xC89 DUP5 DUP5 DUP5 PUSH2 0x1F4F JUMP JUMPDEST PUSH1 0x1 SWAP1 POP SWAP4 SWAP3 POP POP POP JUMP JUMPDEST PUSH32 0x6E71EDAE12B1B97F4D1F60370FEF10105FA2FAAE0126114A169C64845D6126C9 PUSH1 0x0 SHL DUP2 JUMP JUMPDEST PUSH1 0x12 DUP2 JUMP JUMPDEST PUSH1 0x6 SLOAD DUP2 JUMP JUMPDEST PUSH1 0x9 SLOAD DUP2 JUMP JUMPDEST PUSH1 0xA SLOAD DUP2 JUMP JUMPDEST PUSH1 0x0 PUSH1 0x1 PUSH1 0xC SLOAD EQ PUSH2 0xD19 JUMPI PUSH1 0x40 MLOAD PUSH32 0x8C379A000000000000000000000000000000000000000000000000000000000 DUP2 MSTORE PUSH1 0x4 ADD PUSH2 0xD10 SWAP1 PUSH2 0x29FB JUMP JUMPDEST PUSH1 0x40 MLOAD DUP1 SWAP2 SUB SWAP1 REVERT JUMPDEST PUSH1 0x0 PUSH1 0xC DUP2 SWAP1 SSTORE POP PUSH1 0x0 DUP1 PUSH2 0xD2C PUSH2 0xA40 JUMP JUMPDEST POP SWAP2 POP SWAP2 POP PUSH1 0x0 PUSH1 0x1 PUSH1 0x0 SWAP1 SLOAD SWAP1 PUSH2 0x100 EXP SWAP1 DIV PUSH20 0xFFFFFFFFFFFFFFFFFFFFFFFFFFFFFFFFFFFFFFFF AND PUSH20 0xFFFFFFFFFFFFFFFFFFFFFFFFFFFFFFFFFFFFFFFF AND PUSH4 0x70A08231 ADDRESS PUSH1 0x40 MLOAD DUP3 PUSH4 0xFFFFFFFF AND PUSH1 0xE0 SHL DUP2 MSTORE PUSH1 0x4 ADD PUSH2 0xD8E SWAP2 SWAP1 PUSH2 0x271C JUMP JUMPDEST PUSH1 0x20 PUSH1 0x40 MLOAD DUP1 DUP4 SUB DUP2 DUP7 GAS STATICCALL ISZERO DUP1 ISZERO PUSH2 0xDAB JUMPI RETURNDATASIZE PUSH1 0x0 DUP1 RETURNDATACOPY RETURNDATASIZE PUSH1 0x0 REVERT JUMPDEST POP POP POP POP PUSH1 0x40 MLOAD RETURNDATASIZE PUSH1 0x1F NOT PUSH1 0x1F DUP3 ADD AND DUP3 ADD DUP1 PUSH1 0x40 MSTORE POP DUP2 ADD SWAP1 PUSH2 0xDCF SWAP2 SWAP1 PUSH2 0x2BC0 JUMP JUMPDEST SWAP1 POP PUSH1 0x0 PUSH1 0x2 PUSH1 0x0 SWAP1 SLOAD SWAP1 PUSH2 0x100 EXP SWAP1 DIV PUSH20 0xFFFFFFFFFFFFFFFFFFFFFFFFFFFFFFFFFFFFFFFF AND PUSH20 0xFFFFFFFFFFFFFFFFFFFFFFFFFFFFFFFFFFFFFFFF AND PUSH4 0x70A08231 ADDRESS PUSH1 0x40 MLOAD DUP3 PUSH4 0xFFFFFFFF AND PUSH1 0xE0 SHL DUP2 MSTORE PUSH1 0x4 ADD PUSH2 0xE2E SWAP2 SWAP1 PUSH2 0x271C JUMP JUMPDEST PUSH1 0x20 PUSH1 0x40 MLOAD DUP1 DUP4 SUB DUP2 DUP7 GAS STATICCALL ISZERO DUP1 ISZERO PUSH2 0xE4B JUMPI RETURNDATASIZE PUSH1 0x0 DUP1 RETURNDATACOPY RETURNDATASIZE PUSH1 0x0 REVERT JUMPDEST POP POP POP POP PUSH1 0x40 MLOAD RETURNDATASIZE PUSH1 0x1F NOT PUSH1 0x1F DUP3 ADD AND DUP3 ADD DUP1 PUSH1 0x40 MSTORE POP DUP2 ADD SWAP1 PUSH2 0xE6F SWAP2 SWAP1 PUSH2 0x2BC0 JUMP JUMPDEST SWAP1 POP PUSH1 0x0 DUP5 PUSH14 0xFFFFFFFFFFFFFFFFFFFFFFFFFFFF AND DUP4 PUSH2 0xE8F SWAP2 SWAP1 PUSH2 0x2C1C JUMP JUMPDEST SWAP1 POP PUSH1 0x0 DUP5 PUSH14 0xFFFFFFFFFFFFFFFFFFFFFFFFFFFF AND DUP4 PUSH2 0xEAF SWAP2 SWAP1 PUSH2 0x2C1C JUMP JUMPDEST SWAP1 POP PUSH1 0x0 PUSH2 0xEBD DUP8 DUP8 PUSH2 0x2070 JUMP JUMPDEST SWAP1 POP PUSH1 0x0 PUSH1 0x3 SLOAD SWAP1 POP PUSH1 0x0 DUP2 SUB PUSH2 0xF01 JUMPI PUSH1 0x1 PUSH2 0xEE4 DUP5 DUP7 PUSH2 0xEDF SWAP2 SWAP1 PUSH2 0x2CE2 JUMP JUMPDEST PUSH2 0x21C8 JUMP JUMPDEST PUSH2 0xEEE SWAP2 SWAP1 PUSH2 0x2C1C JUMP JUMPDEST SWAP9 POP PUSH2 0xEFC PUSH1 0x0 PUSH1 0x1 PUSH2 0x2242 JUMP JUMPDEST PUSH2 0xF5A JUMP JUMPDEST PUSH2 0xF57 DUP9 PUSH14 0xFFFFFFFFFFFFFFFFFFFFFFFFFFFF AND DUP3 DUP7 PUSH2 0xF21 SWAP2 SWAP1 PUSH2 0x2CE2 JUMP JUMPDEST PUSH2 0xF2B SWAP2 SWAP1 PUSH2 0x2DBF JUMP JUMPDEST DUP9 PUSH14 0xFFFFFFFFFFFFFFFFFFFFFFFFFFFF AND DUP4 DUP7 PUSH2 0xF48 SWAP2 SWAP1 PUSH2 0x2CE2 JUMP JUMPDEST PUSH2 0xF52 SWAP2 SWAP1 PUSH2 0x2DBF JUMP JUMPDEST PUSH2 0x22E8 JUMP JUMPDEST SWAP9 POP JUMPDEST PUSH1 0x0 DUP10 GT PUSH2 0xF9D JUMPI PUSH1 0x40 MLOAD PUSH32 0x8C379A000000000000000000000000000000000000000000000000000000000 DUP2 MSTORE PUSH1 0x4 ADD PUSH2 0xF94 SWAP1 PUSH2 0x2E62 JUMP JUMPDEST PUSH1 0x40 MLOAD DUP1 SWAP2 SUB SWAP1 REVERT JUMPDEST PUSH2 0xFA7 DUP11 DUP11 PUSH2 0x2242 JUMP JUMPDEST PUSH2 0xFB3 DUP7 DUP7 DUP11 DUP11 PUSH2 0x1CDF JUMP JUMPDEST DUP2 ISZERO PUSH2 0x1024 JUMPI PUSH1 0x8 PUSH1 0xE SWAP1 SLOAD SWAP1 PUSH2 0x100 EXP SWAP1 DIV PUSH14 0xFFFFFFFFFFFFFFFFFFFFFFFFFFFF AND PUSH14 0xFFFFFFFFFFFFFFFFFFFFFFFFFFFF AND PUSH1 0x8 PUSH1 0x0 SWAP1 SLOAD SWAP1 PUSH2 0x100 EXP SWAP1 DIV PUSH14 0xFFFFFFFFFFFFFFFFFFFFFFFFFFFF AND PUSH14 0xFFFFFFFFFFFFFFFFFFFFFFFFFFFF AND PUSH2 0x101D SWAP2 SWAP1 PUSH2 0x2CE2 JUMP JUMPDEST PUSH1 0xB DUP2 SWAP1 SSTORE POP JUMPDEST POP POP POP POP POP POP POP POP PUSH1 0x1 PUSH1 0xC DUP2 SWAP1 SSTORE POP SWAP2 SWAP1 POP JUMP JUMPDEST PUSH1 0x4 PUSH1 0x20 MSTORE DUP1 PUSH1 0x0 MSTORE PUSH1 0x40 PUSH1 0x0 KECCAK256 PUSH1 0x0 SWAP2 POP SWAP1 POP SLOAD DUP2 JUMP JUMPDEST PUSH1 0xB SLOAD DUP2 JUMP JUMPDEST PUSH1 0x7 PUSH1 0x20 MSTORE DUP1 PUSH1 0x0 MSTORE PUSH1 0x40 PUSH1 0x0 KECCAK256 PUSH1 0x0 SWAP2 POP SWAP1 POP SLOAD DUP2 JUMP JUMPDEST PUSH1 0x0 DUP1 PUSH1 0x1 PUSH1 0xC SLOAD EQ PUSH2 0x10B7 JUMPI PUSH1 0x40 MLOAD PUSH32 0x8C379A000000000000000000000000000000000000000000000000000000000 DUP2 MSTORE PUSH1 0x4 ADD PUSH2 0x10AE SWAP1 PUSH2 0x29FB JUMP JUMPDEST PUSH1 0x40 MLOAD DUP1 SWAP2 SUB SWAP1 REVERT JUMPDEST PUSH1 0x0 PUSH1 0xC DUP2 SWAP1 SSTORE POP PUSH1 0x0 DUP1 PUSH2 0x10CA PUSH2 0xA40 JUMP JUMPDEST POP SWAP2 POP SWAP2 POP PUSH1 0x0 PUSH1 0x1 PUSH1 0x0 SWAP1 SLOAD SWAP1 PUSH2 0x100 EXP SWAP1 DIV PUSH20 0xFFFFFFFFFFFFFFFFFFFFFFFFFFFFFFFFFFFFFFFF AND SWAP1 POP PUSH1 0x0 PUSH1 0x2 PUSH1 0x0 SWAP1 SLOAD SWAP1 PUSH2 0x100 EXP SWAP1 DIV PUSH20 0xFFFFFFFFFFFFFFFFFFFFFFFFFFFFFFFFFFFFFFFF AND SWAP1 POP PUSH1 0x0 DUP3 PUSH20 0xFFFFFFFFFFFFFFFFFFFFFFFFFFFFFFFFFFFFFFFF AND PUSH4 0x70A08231 ADDRESS PUSH1 0x40 MLOAD DUP3 PUSH4 0xFFFFFFFF AND PUSH1 0xE0 SHL DUP2 MSTORE PUSH1 0x4 ADD PUSH2 0x1158 SWAP2 SWAP1 PUSH2 0x271C JUMP JUMPDEST PUSH1 0x20 PUSH1 0x40 MLOAD DUP1 DUP4 SUB DUP2 DUP7 GAS STATICCALL ISZERO DUP1 ISZERO PUSH2 0x1175 JUMPI RETURNDATASIZE PUSH1 0x0 DUP1 RETURNDATACOPY RETURNDATASIZE PUSH1 0x0 REVERT JUMPDEST POP POP POP POP PUSH1 0x40 MLOAD RETURNDATASIZE PUSH1 0x1F NOT PUSH1 0x1F DUP3 ADD AND DUP3 ADD DUP1 PUSH1 0x40 MSTORE POP DUP2 ADD SWAP1 PUSH2 0x1199 SWAP2 SWAP1 PUSH2 0x2BC0 JUMP JUMPDEST SWAP1 POP PUSH1 0x0 DUP3 PUSH20 0xFFFFFFFFFFFFFFFFFFFFFFFFFFFFFFFFFFFFFFFF AND PUSH4 0x70A08231 ADDRESS PUSH1 0x40 MLOAD DUP3 PUSH4 0xFFFFFFFF AND PUSH1 0xE0 SHL DUP2 MSTORE PUSH1 0x4 ADD PUSH2 0x11D6 SWAP2 SWAP1 PUSH2 0x271C JUMP JUMPDEST PUSH1 0x20 PUSH1 0x40 MLOAD DUP1 DUP4 SUB DUP2 DUP7 GAS STATICCALL ISZERO DUP1 ISZERO PUSH2 0x11F3 JUMPI RETURNDATASIZE PUSH1 0x0 DUP1 RETURNDATACOPY RETURNDATASIZE PUSH1 0x0 REVERT JUMPDEST POP POP POP POP PUSH1 0x40 MLOAD RETURNDATASIZE PUSH1 0x1F NOT PUSH1 0x1F DUP3 ADD AND DUP3 ADD DUP1 PUSH1 0x40 MSTORE POP DUP2 ADD SWAP1 PUSH2 0x1217 SWAP2 SWAP1 PUSH2 0x2BC0 JUMP JUMPDEST SWAP1 POP PUSH1 0x0 PUSH1 0x4 PUSH1 0x0 ADDRESS PUSH20 0xFFFFFFFFFFFFFFFFFFFFFFFFFFFFFFFFFFFFFFFF AND PUSH20 0xFFFFFFFFFFFFFFFFFFFFFFFFFFFFFFFFFFFFFFFF AND DUP2 MSTORE PUSH1 0x20 ADD SWAP1 DUP2 MSTORE PUSH1 0x20 ADD PUSH1 0x0 KECCAK256 SLOAD SWAP1 POP PUSH1 0x0 PUSH2 0x1269 DUP9 DUP9 PUSH2 0x2070 JUMP JUMPDEST SWAP1 POP PUSH1 0x0 PUSH1 0x3 SLOAD SWAP1 POP DUP1 DUP6 DUP5 PUSH2 0x127F SWAP2 SWAP1 PUSH2 0x2CE2 JUMP JUMPDEST PUSH2 0x1289 SWAP2 SWAP1 PUSH2 0x2DBF JUMP JUMPDEST SWAP11 POP DUP1 DUP5 DUP5 PUSH2 0x1298 SWAP2 SWAP1 PUSH2 0x2CE2 JUMP JUMPDEST PUSH2 0x12A2 SWAP2 SWAP1 PUSH2 0x2DBF JUMP JUMPDEST SWAP10 POP PUSH1 0x0 DUP12 GT DUP1 ISZERO PUSH2 0x12B4 JUMPI POP PUSH1 0x0 DUP11 GT JUMPDEST PUSH2 0x12F3 JUMPI PUSH1 0x40 MLOAD PUSH32 0x8C379A000000000000000000000000000000000000000000000000000000000 DUP2 MSTORE PUSH1 0x4 ADD PUSH2 0x12EA SWAP1 PUSH2 0x2EF4 JUMP JUMPDEST PUSH1 0x40 MLOAD DUP1 SWAP2 SUB SWAP1 REVERT JUMPDEST PUSH2 0x12FD ADDRESS DUP5 PUSH2 0x2301 JUMP JUMPDEST PUSH2 0x1308 DUP8 DUP14 DUP14 PUSH2 0x1B55 JUMP JUMPDEST PUSH2 0x1313 DUP7 DUP14 DUP13 PUSH2 0x1B55 JUMP JUMPDEST DUP7 PUSH20 0xFFFFFFFFFFFFFFFFFFFFFFFFFFFFFFFFFFFFFFFF AND PUSH4 0x70A08231 ADDRESS PUSH1 0x40 MLOAD DUP3 PUSH4 0xFFFFFFFF AND PUSH1 0xE0 SHL DUP2 MSTORE PUSH1 0x4 ADD PUSH2 0x134C SWAP2 SWAP1 PUSH2 0x271C JUMP JUMPDEST PUSH1 0x20 PUSH1 0x40 MLOAD DUP1 DUP4 SUB DUP2 DUP7 GAS STATICCALL ISZERO DUP1 ISZERO PUSH2 0x1369 JUMPI RETURNDATASIZE PUSH1 0x0 DUP1 RETURNDATACOPY RETURNDATASIZE PUSH1 0x0 REVERT JUMPDEST POP POP POP POP PUSH1 0x40 MLOAD RETURNDATASIZE PUSH1 0x1F NOT PUSH1 0x1F DUP3 ADD AND DUP3 ADD DUP1 PUSH1 0x40 MSTORE POP DUP2 ADD SWAP1 PUSH2 0x138D SWAP2 SWAP1 PUSH2 0x2BC0 JUMP JUMPDEST SWAP5 POP DUP6 PUSH20 0xFFFFFFFFFFFFFFFFFFFFFFFFFFFFFFFFFFFFFFFF AND PUSH4 0x70A08231 ADDRESS PUSH1 0x40 MLOAD DUP3 PUSH4 0xFFFFFFFF AND PUSH1 0xE0 SHL DUP2 MSTORE PUSH1 0x4 ADD PUSH2 0x13C8 SWAP2 SWAP1 PUSH2 0x271C JUMP JUMPDEST PUSH1 0x20 PUSH1 0x40 MLOAD DUP1 DUP4 SUB DUP2 DUP7 GAS STATICCALL ISZERO DUP1 ISZERO PUSH2 0x13E5 JUMPI RETURNDATASIZE PUSH1 0x0 DUP1 RETURNDATACOPY RETURNDATASIZE PUSH1 0x0 REVERT JUMPDEST POP POP POP POP PUSH1 0x40 MLOAD RETURNDATASIZE PUSH1 0x1F NOT PUSH1 0x1F DUP3 ADD AND DUP3 ADD DUP1 PUSH1 0x40 MSTORE POP DUP2 ADD SWAP1 PUSH2 0x1409 SWAP2 SWAP1 PUSH2 0x2BC0 JUMP JUMPDEST SWAP4 POP PUSH2 0x1417 DUP6 DUP6 DUP12 DUP12 PUSH2 0x1CDF JUMP JUMPDEST DUP2 ISZERO PUSH2 0x1488 JUMPI PUSH1 0x8 PUSH1 0xE SWAP1 SLOAD SWAP1 PUSH2 0x100 EXP SWAP1 DIV PUSH14 0xFFFFFFFFFFFFFFFFFFFFFFFFFFFF AND PUSH14 0xFFFFFFFFFFFFFFFFFFFFFFFFFFFF AND PUSH1 0x8 PUSH1 0x0 SWAP1 SLOAD SWAP1 PUSH2 0x100 EXP SWAP1 DIV PUSH14 0xFFFFFFFFFFFFFFFFFFFFFFFFFFFF AND PUSH14 0xFFFFFFFFFFFFFFFFFFFFFFFFFFFF AND PUSH2 0x1481 SWAP2 SWAP1 PUSH2 0x2CE2 JUMP JUMPDEST PUSH1 0xB DUP2 SWAP1 SSTORE POP JUMPDEST POP POP POP POP POP POP POP POP POP PUSH1 0x1 PUSH1 0xC DUP2 SWAP1 SSTORE POP SWAP2 POP SWAP2 JUMP JUMPDEST PUSH1 0x40 MLOAD DUP1 PUSH1 0x40 ADD PUSH1 0x40 MSTORE DUP1 PUSH1 0xA DUP2 MSTORE PUSH1 0x20 ADD PUSH32 0x45524320554E492D563200000000000000000000000000000000000000000000 DUP2 MSTORE POP DUP2 JUMP JUMPDEST PUSH1 0x0 PUSH2 0x14E4 CALLER DUP5 DUP5 PUSH2 0x1F4F JUMP JUMPDEST PUSH1 0x1 SWAP1 POP SWAP3 SWAP2 POP POP JUMP JUMPDEST PUSH1 0x1 DUP2 JUMP JUMPDEST PUSH1 0x1 PUSH1 0xC SLOAD EQ PUSH2 0x1538 JUMPI PUSH1 0x40 MLOAD PUSH32 0x8C379A000000000000000000000000000000000000000000000000000000000 DUP2 MSTORE PUSH1 0x4 ADD PUSH2 0x152F SWAP1 PUSH2 0x29FB JUMP JUMPDEST PUSH1 0x40 MLOAD DUP1 SWAP2 SUB SWAP1 REVERT JUMPDEST PUSH1 0x0 PUSH1 0xC DUP2 SWAP1 SSTORE POP PUSH1 0x0 PUSH1 0x1 PUSH1 0x0 SWAP1 SLOAD SWAP1 PUSH2 0x100 EXP SWAP1 DIV PUSH20 0xFFFFFFFFFFFFFFFFFFFFFFFFFFFFFFFFFFFFFFFF AND SWAP1 POP PUSH1 0x0 PUSH1 0x2 PUSH1 0x0 SWAP1 SLOAD SWAP1 PUSH2 0x100 EXP SWAP1 DIV PUSH20 0xFFFFFFFFFFFFFFFFFFFFFFFFFFFFFFFFFFFFFFFF AND SWAP1 POP PUSH2 0x1649 DUP3 DUP5 PUSH1 0x8 PUSH1 0x0 SWAP1 SLOAD SWAP1 PUSH2 0x100 EXP SWAP1 DIV PUSH14 0xFFFFFFFFFFFFFFFFFFFFFFFFFFFF AND PUSH14 0xFFFFFFFFFFFFFFFFFFFFFFFFFFFF AND DUP6 PUSH20 0xFFFFFFFFFFFFFFFFFFFFFFFFFFFFFFFFFFFFFFFF AND PUSH4 0x70A08231 ADDRESS PUSH1 0x40 MLOAD DUP3 PUSH4 0xFFFFFFFF AND PUSH1 0xE0 SHL DUP2 MSTORE PUSH1 0x4 ADD PUSH2 0x15F9 SWAP2 SWAP1 PUSH2 0x271C JUMP JUMPDEST PUSH1 0x20 PUSH1 0x40 MLOAD DUP1 DUP4 SUB DUP2 DUP7 GAS STATICCALL ISZERO DUP1 ISZERO PUSH2 0x1616 JUMPI RETURNDATASIZE PUSH1 0x0 DUP1 RETURNDATACOPY RETURNDATASIZE PUSH1 0x0 REVERT JUMPDEST POP POP POP POP PUSH1 0x40 MLOAD RETURNDATASIZE PUSH1 0x1F NOT PUSH1 0x1F DUP3 ADD AND DUP3 ADD DUP1 PUSH1 0x40 MSTORE POP DUP2 ADD SWAP1 PUSH2 0x163A SWAP2 SWAP1 PUSH2 0x2BC0 JUMP JUMPDEST PUSH2 0x1644 SWAP2 SWAP1 PUSH2 0x2C1C JUMP JUMPDEST PUSH2 0x1B55 JUMP JUMPDEST PUSH2 0x1704 DUP2 DUP5 PUSH1 0x8 PUSH1 0xE SWAP1 SLOAD SWAP1 PUSH2 0x100 EXP SWAP1 DIV PUSH14 0xFFFFFFFFFFFFFFFFFFFFFFFFFFFF AND PUSH14 0xFFFFFFFFFFFFFFFFFFFFFFFFFFFF AND DUP5 PUSH20 0xFFFFFFFFFFFFFFFFFFFFFFFFFFFFFFFFFFFFFFFF AND PUSH4 0x70A08231 ADDRESS PUSH1 0x40 MLOAD DUP3 PUSH4 0xFFFFFFFF AND PUSH1 0xE0 SHL DUP2 MSTORE PUSH1 0x4 ADD PUSH2 0x16B4 SWAP2 SWAP1 PUSH2 0x271C JUMP JUMPDEST PUSH1 0x20 PUSH1 0x40 MLOAD DUP1 DUP4 SUB DUP2 DUP7 GAS STATICCALL ISZERO DUP1 ISZERO PUSH2 0x16D1 JUMPI RETURNDATASIZE PUSH1 0x0 DUP1 RETURNDATACOPY RETURNDATASIZE PUSH1 0x0 REVERT JUMPDEST POP POP POP POP PUSH1 0x40 MLOAD RETURNDATASIZE PUSH1 0x1F NOT PUSH1 0x1F DUP3 ADD AND DUP3 ADD DUP1 PUSH1 0x40 MSTORE POP DUP2 ADD SWAP1 PUSH2 0x16F5 SWAP2 SWAP1 PUSH2 0x2BC0 JUMP JUMPDEST PUSH2 0x16FF SWAP2 SWAP1 PUSH2 0x2C1C JUMP JUMPDEST PUSH2 0x1B55 JUMP JUMPDEST POP POP PUSH1 0x1 PUSH1 0xC DUP2 SWAP1 SSTORE POP POP JUMP JUMPDEST PUSH1 0x2 PUSH1 0x0 SWAP1 SLOAD SWAP1 PUSH2 0x100 EXP SWAP1 DIV PUSH20 0xFFFFFFFFFFFFFFFFFFFFFFFFFFFFFFFFFFFFFFFF AND DUP2 JUMP JUMPDEST TIMESTAMP DUP5 LT ISZERO PUSH2 0x177A JUMPI PUSH1 0x40 MLOAD PUSH32 0x8C379A000000000000000000000000000000000000000000000000000000000 DUP2 MSTORE PUSH1 0x4 ADD PUSH2 0x1771 SWAP1 PUSH2 0x2F60 JUMP JUMPDEST PUSH1 0x40 MLOAD DUP1 SWAP2 SUB SWAP1 REVERT JUMPDEST PUSH1 0x0 PUSH1 0x6 SLOAD PUSH32 0x6E71EDAE12B1B97F4D1F60370FEF10105FA2FAAE0126114A169C64845D6126C9 PUSH1 0x0 SHL DUP10 DUP10 DUP10 PUSH1 0x7 PUSH1 0x0 DUP15 PUSH20 0xFFFFFFFFFFFFFFFFFFFFFFFFFFFFFFFFFFFFFFFF AND PUSH20 0xFFFFFFFFFFFFFFFFFFFFFFFFFFFFFFFFFFFFFFFF AND DUP2 MSTORE PUSH1 0x20 ADD SWAP1 DUP2 MSTORE PUSH1 0x20 ADD PUSH1 0x0 KECCAK256 PUSH1 0x0 DUP2 SLOAD DUP1 SWAP3 SWAP2 SWAP1 PUSH2 0x17F6 SWAP1 PUSH2 0x2F80 JUMP JUMPDEST SWAP2 SWAP1 POP SSTORE DUP11 PUSH1 0x40 MLOAD PUSH1 0x20 ADD PUSH2 0x1810 SWAP7 SWAP6 SWAP5 SWAP4 SWAP3 SWAP2 SWAP1 PUSH2 0x2FC8 JUMP JUMPDEST PUSH1 0x40 MLOAD PUSH1 0x20 DUP2 DUP4 SUB SUB DUP2 MSTORE SWAP1 PUSH1 0x40 MSTORE DUP1 MLOAD SWAP1 PUSH1 0x20 ADD KECCAK256 PUSH1 0x40 MLOAD PUSH1 0x20 ADD PUSH2 0x1837 SWAP3 SWAP2 SWAP1 PUSH2 0x30A1 JUMP JUMPDEST PUSH1 0x40 MLOAD PUSH1 0x20 DUP2 DUP4 SUB SUB DUP2 MSTORE SWAP1 PUSH1 0x40 MSTORE DUP1 MLOAD SWAP1 PUSH1 0x20 ADD KECCAK256 SWAP1 POP PUSH1 0x0 PUSH1 0x1 DUP3 DUP7 DUP7 DUP7 PUSH1 0x40 MLOAD PUSH1 0x0 DUP2 MSTORE PUSH1 0x20 ADD PUSH1 0x40 MSTORE PUSH1 0x40 MLOAD PUSH2 0x1874 SWAP5 SWAP4 SWAP3 SWAP2 SWAP1 PUSH2 0x30D8 JUMP JUMPDEST PUSH1 0x20 PUSH1 0x40 MLOAD PUSH1 0x20 DUP2 SUB SWAP1 DUP1 DUP5 SUB SWAP1 DUP6 GAS STATICCALL ISZERO DUP1 ISZERO PUSH2 0x1896 JUMPI RETURNDATASIZE PUSH1 0x0 DUP1 RETURNDATACOPY RETURNDATASIZE PUSH1 0x0 REVERT JUMPDEST POP POP POP PUSH1 0x20 PUSH1 0x40 MLOAD SUB MLOAD SWAP1 POP PUSH1 0x0 PUSH20 0xFFFFFFFFFFFFFFFFFFFFFFFFFFFFFFFFFFFFFFFF AND DUP2 PUSH20 0xFFFFFFFFFFFFFFFFFFFFFFFFFFFFFFFFFFFFFFFF AND EQ ISZERO DUP1 ISZERO PUSH2 0x190A JUMPI POP DUP9 PUSH20 0xFFFFFFFFFFFFFFFFFFFFFFFFFFFFFFFFFFFFFFFF AND DUP2 PUSH20 0xFFFFFFFFFFFFFFFFFFFFFFFFFFFFFFFFFFFFFFFF AND EQ JUMPDEST PUSH2 0x1949 JUMPI PUSH1 0x40 MLOAD PUSH32 0x8C379A000000000000000000000000000000000000000000000000000000000 DUP2 MSTORE PUSH1 0x4 ADD PUSH2 0x1940 SWAP1 PUSH2 0x3169 JUMP JUMPDEST PUSH1 0x40 MLOAD DUP1 SWAP2 SUB SWAP1 REVERT JUMPDEST PUSH2 0x1954 DUP10 DUP10 DUP10 PUSH2 0x1EC9 JUMP JUMPDEST POP POP POP POP POP POP POP POP POP JUMP JUMPDEST PUSH1 0x5 PUSH1 0x20 MSTORE DUP2 PUSH1 0x0 MSTORE PUSH1 0x40 PUSH1 0x0 KECCAK256 PUSH1 0x20 MSTORE DUP1 PUSH1 0x0 MSTORE PUSH1 0x40 PUSH1 0x0 KECCAK256 PUSH1 0x0 SWAP2 POP SWAP2 POP POP SLOAD DUP2 JUMP JUMPDEST PUSH1 0x1 PUSH1 0xC SLOAD EQ PUSH2 0x19C9 JUMPI PUSH1 0x40 MLOAD PUSH32 0x8C379A000000000000000000000000000000000000000000000000000000000 DUP2 MSTORE PUSH1 0x4 ADD PUSH2 0x19C0 SWAP1 PUSH2 0x29FB JUMP JUMPDEST PUSH1 0x40 MLOAD DUP1 SWAP2 SUB SWAP1 REVERT JUMPDEST PUSH1 0x0 PUSH1 0xC DUP2 SWAP1 SSTORE POP PUSH2 0x1B4B PUSH1 0x1 PUSH1 0x0 SWAP1 SLOAD SWAP1 PUSH2 0x100 EXP SWAP1 DIV PUSH20 0xFFFFFFFFFFFFFFFFFFFFFFFFFFFFFFFFFFFFFFFF AND PUSH20 0xFFFFFFFFFFFFFFFFFFFFFFFFFFFFFFFFFFFFFFFF AND PUSH4 0x70A08231 ADDRESS PUSH1 0x40 MLOAD DUP3 PUSH4 0xFFFFFFFF AND PUSH1 0xE0 SHL DUP2 MSTORE PUSH1 0x4 ADD PUSH2 0x1A2F SWAP2 SWAP1 PUSH2 0x271C JUMP JUMPDEST PUSH1 0x20 PUSH1 0x40 MLOAD DUP1 DUP4 SUB DUP2 DUP7 GAS STATICCALL ISZERO DUP1 ISZERO PUSH2 0x1A4C JUMPI RETURNDATASIZE PUSH1 0x0 DUP1 RETURNDATACOPY RETURNDATASIZE PUSH1 0x0 REVERT JUMPDEST POP POP POP POP PUSH1 0x40 MLOAD RETURNDATASIZE PUSH1 0x1F NOT PUSH1 0x1F DUP3 ADD AND DUP3 ADD DUP1 PUSH1 0x40 MSTORE POP DUP2 ADD SWAP1 PUSH2 0x1A70 SWAP2 SWAP1 PUSH2 0x2BC0 JUMP JUMPDEST PUSH1 0x2 PUSH1 0x0 SWAP1 SLOAD SWAP1 PUSH2 0x100 EXP SWAP1 DIV PUSH20 0xFFFFFFFFFFFFFFFFFFFFFFFFFFFFFFFFFFFFFFFF AND PUSH20 0xFFFFFFFFFFFFFFFFFFFFFFFFFFFFFFFFFFFFFFFF AND PUSH4 0x70A08231 ADDRESS PUSH1 0x40 MLOAD DUP3 PUSH4 0xFFFFFFFF AND PUSH1 0xE0 SHL DUP2 MSTORE PUSH1 0x4 ADD PUSH2 0x1ACB SWAP2 SWAP1 PUSH2 0x271C JUMP JUMPDEST PUSH1 0x20 PUSH1 0x40 MLOAD DUP1 DUP4 SUB DUP2 DUP7 GAS STATICCALL ISZERO DUP1 ISZERO PUSH2 0x1AE8 JUMPI RETURNDATASIZE PUSH1 0x0 DUP1 RETURNDATACOPY RETURNDATASIZE PUSH1 0x0 REVERT JUMPDEST POP POP POP POP PUSH1 0x40 MLOAD RETURNDATASIZE PUSH1 0x1F NOT PUSH1 0x1F DUP3 ADD AND DUP3 ADD DUP1 PUSH1 0x40 MSTORE POP DUP2 ADD SWAP1 PUSH2 0x1B0C SWAP2 SWAP1 PUSH2 0x2BC0 JUMP JUMPDEST PUSH1 0x8 PUSH1 0x0 SWAP1 SLOAD SWAP1 PUSH2 0x100 EXP SWAP1 DIV PUSH14 0xFFFFFFFFFFFFFFFFFFFFFFFFFFFF AND PUSH1 0x8 PUSH1 0xE SWAP1 SLOAD SWAP1 PUSH2 0x100 EXP SWAP1 DIV PUSH14 0xFFFFFFFFFFFFFFFFFFFFFFFFFFFF AND PUSH2 0x1CDF JUMP JUMPDEST PUSH1 0x1 PUSH1 0xC DUP2 SWAP1 SSTORE POP JUMP JUMPDEST PUSH1 0x0 DUP1 DUP5 PUSH20 0xFFFFFFFFFFFFFFFFFFFFFFFFFFFFFFFFFFFFFFFF AND PUSH1 0x40 MLOAD DUP1 PUSH1 0x40 ADD PUSH1 0x40 MSTORE DUP1 PUSH1 0x19 DUP2 MSTORE PUSH1 0x20 ADD PUSH32 0x7472616E7366657228616464726573732C75696E743235362900000000000000 DUP2 MSTORE POP DUP1 MLOAD SWAP1 PUSH1 0x20 ADD KECCAK256 DUP6 DUP6 PUSH1 0x40 MLOAD PUSH1 0x24 ADD PUSH2 0x1BBF SWAP3 SWAP2 SWAP1 PUSH2 0x3189 JUMP JUMPDEST PUSH1 0x40 MLOAD PUSH1 0x20 DUP2 DUP4 SUB SUB DUP2 MSTORE SWAP1 PUSH1 0x40 MSTORE SWAP1 PUSH28 0xFFFFFFFFFFFFFFFFFFFFFFFFFFFFFFFFFFFFFFFFFFFFFFFFFFFFFFFF NOT AND PUSH1 0x20 DUP3 ADD DUP1 MLOAD PUSH28 0xFFFFFFFFFFFFFFFFFFFFFFFFFFFFFFFFFFFFFFFFFFFFFFFFFFFFFFFF DUP4 DUP2 DUP4 AND OR DUP4 MSTORE POP POP POP POP PUSH1 0x40 MLOAD PUSH2 0x1C29 SWAP2 SWAP1 PUSH2 0x31F9 JUMP JUMPDEST PUSH1 0x0 PUSH1 0x40 MLOAD DUP1 DUP4 SUB DUP2 PUSH1 0x0 DUP7 GAS CALL SWAP2 POP POP RETURNDATASIZE DUP1 PUSH1 0x0 DUP2 EQ PUSH2 0x1C66 JUMPI PUSH1 0x40 MLOAD SWAP2 POP PUSH1 0x1F NOT PUSH1 0x3F RETURNDATASIZE ADD AND DUP3 ADD PUSH1 0x40 MSTORE RETURNDATASIZE DUP3 MSTORE RETURNDATASIZE PUSH1 0x0 PUSH1 0x20 DUP5 ADD RETURNDATACOPY PUSH2 0x1C6B JUMP JUMPDEST PUSH1 0x60 SWAP2 POP JUMPDEST POP SWAP2 POP SWAP2 POP DUP2 DUP1 ISZERO PUSH2 0x1C99 JUMPI POP PUSH1 0x0 DUP2 MLOAD EQ DUP1 PUSH2 0x1C98 JUMPI POP DUP1 DUP1 PUSH1 0x20 ADD SWAP1 MLOAD DUP2 ADD SWAP1 PUSH2 0x1C97 SWAP2 SWAP1 PUSH2 0x323C JUMP JUMPDEST JUMPDEST JUMPDEST PUSH2 0x1CD8 JUMPI PUSH1 0x40 MLOAD PUSH32 0x8C379A000000000000000000000000000000000000000000000000000000000 DUP2 MSTORE PUSH1 0x4 ADD PUSH2 0x1CCF SWAP1 PUSH2 0x32B5 JUMP JUMPDEST PUSH1 0x40 MLOAD DUP1 SWAP2 SUB SWAP1 REVERT JUMPDEST POP POP POP POP POP JUMP JUMPDEST PUSH1 0x0 PUSH5 0x100000000 TIMESTAMP PUSH2 0x1CF2 SWAP2 SWAP1 PUSH2 0x32D5 JUMP JUMPDEST SWAP1 POP PUSH1 0x0 PUSH1 0x8 PUSH1 0x1C SWAP1 SLOAD SWAP1 PUSH2 0x100 EXP SWAP1 DIV PUSH4 0xFFFFFFFF AND DUP3 PUSH2 0x1D14 SWAP2 SWAP1 PUSH2 0x3306 JUMP JUMPDEST SWAP1 POP PUSH1 0x0 DUP2 PUSH4 0xFFFFFFFF AND GT DUP1 ISZERO PUSH2 0x1D3D JUMPI POP PUSH1 0x0 DUP5 PUSH14 0xFFFFFFFFFFFFFFFFFFFFFFFFFFFF AND EQ ISZERO JUMPDEST DUP1 ISZERO PUSH2 0x1D5A JUMPI POP PUSH1 0x0 DUP4 PUSH14 0xFFFFFFFFFFFFFFFFFFFFFFFFFFFF AND EQ ISZERO JUMPDEST ISZERO PUSH2 0x1E36 JUMPI DUP1 PUSH4 0xFFFFFFFF AND DUP5 PUSH14 0xFFFFFFFFFFFFFFFFFFFFFFFFFFFF AND PUSH2 0x1D80 DUP6 PUSH2 0x23A7 JUMP JUMPDEST PUSH2 0x1D8A SWAP2 SWAP1 PUSH2 0x3366 JUMP JUMPDEST PUSH28 0xFFFFFFFFFFFFFFFFFFFFFFFFFFFFFFFFFFFFFFFFFFFFFFFFFFFFFFFF AND PUSH2 0x1DB2 SWAP2 SWAP1 PUSH2 0x2CE2 JUMP JUMPDEST PUSH1 0x9 PUSH1 0x0 DUP3 DUP3 SLOAD PUSH2 0x1DC3 SWAP2 SWAP1 PUSH2 0x3397 JUMP JUMPDEST SWAP3 POP POP DUP2 SWAP1 SSTORE POP DUP1 PUSH4 0xFFFFFFFF AND DUP4 PUSH14 0xFFFFFFFFFFFFFFFFFFFFFFFFFFFF AND PUSH2 0x1DEB DUP7 PUSH2 0x23A7 JUMP JUMPDEST PUSH2 0x1DF5 SWAP2 SWAP1 PUSH2 0x3366 JUMP JUMPDEST PUSH28 0xFFFFFFFFFFFFFFFFFFFFFFFFFFFFFFFFFFFFFFFFFFFFFFFFFFFFFFFF AND PUSH2 0x1E1D SWAP2 SWAP1 PUSH2 0x2CE2 JUMP JUMPDEST PUSH1 0xA PUSH1 0x0 DUP3 DUP3 SLOAD PUSH2 0x1E2E SWAP2 SWAP1 PUSH2 0x3397 JUMP JUMPDEST SWAP3 POP POP DUP2 SWAP1 SSTORE POP JUMPDEST DUP6 PUSH1 0x8 PUSH1 0x0 PUSH2 0x100 EXP DUP2 SLOAD DUP2 PUSH14 0xFFFFFFFFFFFFFFFFFFFFFFFFFFFF MUL NOT AND SWAP1 DUP4 PUSH14 0xFFFFFFFFFFFFFFFFFFFFFFFFFFFF AND MUL OR SWAP1 SSTORE POP DUP5 PUSH1 0x8 PUSH1 0xE PUSH2 0x100 EXP DUP2 SLOAD DUP2 PUSH14 0xFFFFFFFFFFFFFFFFFFFFFFFFFFFF MUL NOT AND SWAP1 DUP4 PUSH14 0xFFFFFFFFFFFFFFFFFFFFFFFFFFFF AND MUL OR SWAP1 SSTORE POP DUP2 PUSH1 0x8 PUSH1 0x1C PUSH2 0x100 EXP DUP2 SLOAD DUP2 PUSH4 0xFFFFFFFF MUL NOT AND SWAP1 DUP4 PUSH4 0xFFFFFFFF AND MUL OR SWAP1 SSTORE POP POP POP POP POP POP POP JUMP JUMPDEST DUP1 PUSH1 0x5 PUSH1 0x0 DUP6 PUSH20 0xFFFFFFFFFFFFFFFFFFFFFFFFFFFFFFFFFFFFFFFF AND PUSH20 0xFFFFFFFFFFFFFFFFFFFFFFFFFFFFFFFFFFFFFFFF AND DUP2 MSTORE PUSH1 0x20 ADD SWAP1 DUP2 MSTORE PUSH1 0x20 ADD PUSH1 0x0 KECCAK256 PUSH1 0x0 DUP5 PUSH20 0xFFFFFFFFFFFFFFFFFFFFFFFFFFFFFFFFFFFFFFFF AND PUSH20 0xFFFFFFFFFFFFFFFFFFFFFFFFFFFFFFFFFFFFFFFF AND DUP2 MSTORE PUSH1 0x20 ADD SWAP1 DUP2 MSTORE PUSH1 0x20 ADD PUSH1 0x0 KECCAK256 DUP2 SWAP1 SSTORE POP POP POP POP JUMP JUMPDEST DUP1 PUSH1 0x4 PUSH1 0x0 DUP6 PUSH20 0xFFFFFFFFFFFFFFFFFFFFFFFFFFFFFFFFFFFFFFFF AND PUSH20 0xFFFFFFFFFFFFFFFFFFFFFFFFFFFFFFFFFFFFFFFF AND DUP2 MSTORE PUSH1 0x20 ADD SWAP1 DUP2 MSTORE PUSH1 0x20 ADD PUSH1 0x0 KECCAK256 SLOAD PUSH2 0x1F9A SWAP2 SWAP1 PUSH2 0x2C1C JUMP JUMPDEST PUSH1 0x4 PUSH1 0x0 DUP6 PUSH20 0xFFFFFFFFFFFFFFFFFFFFFFFFFFFFFFFFFFFFFFFF AND PUSH20 0xFFFFFFFFFFFFFFFFFFFFFFFFFFFFFFFFFFFFFFFF AND DUP2 MSTORE PUSH1 0x20 ADD SWAP1 DUP2 MSTORE PUSH1 0x20 ADD PUSH1 0x0 KECCAK256 DUP2 SWAP1 SSTORE POP DUP1 PUSH1 0x4 PUSH1 0x0 DUP5 PUSH20 0xFFFFFFFFFFFFFFFFFFFFFFFFFFFFFFFFFFFFFFFF AND PUSH20 0xFFFFFFFFFFFFFFFFFFFFFFFFFFFFFFFFFFFFFFFF AND DUP2 MSTORE PUSH1 0x20 ADD SWAP1 DUP2 MSTORE PUSH1 0x20 ADD PUSH1 0x0 KECCAK256 SLOAD PUSH2 0x2028 SWAP2 SWAP1 PUSH2 0x2C1C JUMP JUMPDEST PUSH1 0x4 PUSH1 0x0 DUP5 PUSH20 0xFFFFFFFFFFFFFFFFFFFFFFFFFFFFFFFFFFFFFFFF AND PUSH20 0xFFFFFFFFFFFFFFFFFFFFFFFFFFFFFFFFFFFFFFFF AND DUP2 MSTORE PUSH1 0x20 ADD SWAP1 DUP2 MSTORE PUSH1 0x20 ADD PUSH1 0x0 KECCAK256 DUP2 SWAP1 SSTORE POP POP POP POP JUMP JUMPDEST PUSH1 0x0 DUP1 PUSH20 0xFFFFFFFFFFFFFFFFFFFFFFFFFFFFFFFFFFFFFFFF AND PUSH1 0x0 DUP1 SLOAD SWAP1 PUSH2 0x100 EXP SWAP1 DIV PUSH20 0xFFFFFFFFFFFFFFFFFFFFFFFFFFFFFFFFFFFFFFFF AND PUSH20 0xFFFFFFFFFFFFFFFFFFFFFFFFFFFFFFFFFFFFFFFF AND EQ ISZERO SWAP1 POP PUSH1 0x0 PUSH1 0xB SLOAD SWAP1 POP DUP2 ISZERO PUSH2 0x21AF JUMPI PUSH1 0x0 DUP2 EQ PUSH2 0x21AA JUMPI PUSH1 0x0 PUSH2 0x210F DUP5 PUSH14 0xFFFFFFFFFFFFFFFFFFFFFFFFFFFF AND DUP7 PUSH14 0xFFFFFFFFFFFFFFFFFFFFFFFFFFFF AND PUSH2 0x210A SWAP2 SWAP1 PUSH2 0x2CE2 JUMP JUMPDEST PUSH2 0x21C8 JUMP JUMPDEST SWAP1 POP PUSH1 0x0 PUSH2 0x211C DUP4 PUSH2 0x21C8 JUMP JUMPDEST SWAP1 POP DUP1 DUP3 GT ISZERO PUSH2 0x21A7 JUMPI PUSH1 0x0 DUP2 DUP4 PUSH2 0x2134 SWAP2 SWAP1 PUSH2 0x2C1C JUMP JUMPDEST PUSH1 0x3 SLOAD PUSH2 0x2141 SWAP2 SWAP1 PUSH2 0x2CE2 JUMP JUMPDEST SWAP1 POP PUSH1 0x0 DUP3 PUSH1 0x5 DUP6 PUSH2 0x2153 SWAP2 SWAP1 PUSH2 0x2CE2 JUMP JUMPDEST PUSH2 0x215D SWAP2 SWAP1 PUSH2 0x3397 JUMP JUMPDEST SWAP1 POP PUSH1 0x0 DUP2 DUP4 PUSH2 0x216D SWAP2 SWAP1 PUSH2 0x2DBF JUMP JUMPDEST SWAP1 POP PUSH1 0x0 DUP2 GT ISZERO PUSH2 0x21A3 JUMPI PUSH2 0x21A2 PUSH1 0x0 DUP1 SLOAD SWAP1 PUSH2 0x100 EXP SWAP1 DIV PUSH20 0xFFFFFFFFFFFFFFFFFFFFFFFFFFFFFFFFFFFFFFFF AND DUP3 PUSH2 0x2242 JUMP JUMPDEST JUMPDEST POP POP POP JUMPDEST POP POP JUMPDEST PUSH2 0x21C1 JUMP JUMPDEST PUSH1 0x0 DUP2 EQ PUSH2 0x21C0 JUMPI PUSH1 0x0 PUSH1 0xB DUP2 SWAP1 SSTORE POP JUMPDEST JUMPDEST POP SWAP3 SWAP2 POP POP JUMP JUMPDEST PUSH1 0x0 PUSH1 0x3 DUP3 GT ISZERO PUSH2 0x222F JUMPI DUP2 SWAP1 POP PUSH1 0x0 PUSH1 0x1 PUSH1 0x2 DUP5 PUSH2 0x21E7 SWAP2 SWAP1 PUSH2 0x2DBF JUMP JUMPDEST PUSH2 0x21F1 SWAP2 SWAP1 PUSH2 0x3397 JUMP JUMPDEST SWAP1 POP JUMPDEST DUP2 DUP2 LT ISZERO PUSH2 0x2229 JUMPI DUP1 SWAP2 POP PUSH1 0x2 DUP2 DUP3 DUP6 PUSH2 0x220E SWAP2 SWAP1 PUSH2 0x2DBF JUMP JUMPDEST PUSH2 0x2218 SWAP2 SWAP1 PUSH2 0x3397 JUMP JUMPDEST PUSH2 0x2222 SWAP2 SWAP1 PUSH2 0x2DBF JUMP JUMPDEST SWAP1 POP PUSH2 0x21F4 JUMP JUMPDEST POP PUSH2 0x223D JUMP JUMPDEST PUSH1 0x0 DUP3 EQ PUSH2 0x223C JUMPI PUSH1 0x1 SWAP1 POP JUMPDEST JUMPDEST SWAP2 SWAP1 POP JUMP JUMPDEST DUP1 PUSH1 0x3 SLOAD PUSH2 0x2250 SWAP2 SWAP1 PUSH2 0x3397 JUMP JUMPDEST PUSH1 0x3 DUP2 SWAP1 SSTORE POP DUP1 PUSH1 0x4 PUSH1 0x0 DUP5 PUSH20 0xFFFFFFFFFFFFFFFFFFFFFFFFFFFFFFFFFFFFFFFF AND PUSH20 0xFFFFFFFFFFFFFFFFFFFFFFFFFFFFFFFFFFFFFFFF AND DUP2 MSTORE PUSH1 0x20 ADD SWAP1 DUP2 MSTORE PUSH1 0x20 ADD PUSH1 0x0 KECCAK256 SLOAD PUSH2 0x22A1 SWAP2 SWAP1 PUSH2 0x3397 JUMP JUMPDEST PUSH1 0x4 PUSH1 0x0 DUP5 PUSH20 0xFFFFFFFFFFFFFFFFFFFFFFFFFFFFFFFFFFFFFFFF AND PUSH20 0xFFFFFFFFFFFFFFFFFFFFFFFFFFFFFFFFFFFFFFFF AND DUP2 MSTORE PUSH1 0x20 ADD SWAP1 DUP2 MSTORE PUSH1 0x20 ADD PUSH1 0x0 KECCAK256 DUP2 SWAP1 SSTORE POP POP POP JUMP JUMPDEST PUSH1 0x0 DUP2 DUP4 LT PUSH2 0x22F7 JUMPI DUP2 PUSH2 0x22F9 JUMP JUMPDEST DUP3 JUMPDEST SWAP1 POP SWAP3 SWAP2 POP POP JUMP JUMPDEST DUP1 PUSH1 0x4 PUSH1 0x0 DUP5 PUSH20 0xFFFFFFFFFFFFFFFFFFFFFFFFFFFFFFFFFFFFFFFF AND PUSH20 0xFFFFFFFFFFFFFFFFFFFFFFFFFFFFFFFFFFFFFFFF AND DUP2 MSTORE PUSH1 0x20 ADD SWAP1 DUP2 MSTORE PUSH1 0x20 ADD PUSH1 0x0 KECCAK256 SLOAD PUSH2 0x234C SWAP2 SWAP1 PUSH2 0x2C1C JUMP JUMPDEST PUSH1 0x4 PUSH1 0x0 DUP5 PUSH20 0xFFFFFFFFFFFFFFFFFFFFFFFFFFFFFFFFFFFFFFFF AND PUSH20 0xFFFFFFFFFFFFFFFFFFFFFFFFFFFFFFFFFFFFFFFF AND DUP2 MSTORE PUSH1 0x20 ADD SWAP1 DUP2 MSTORE PUSH1 0x20 ADD PUSH1 0x0 KECCAK256 DUP2 SWAP1 SSTORE POP DUP1 PUSH1 0x3 SLOAD PUSH2 0x239D SWAP2 SWAP1 PUSH2 0x2C1C JUMP JUMPDEST PUSH1 0x3 DUP2 SWAP1 SSTORE POP POP POP JUMP JUMPDEST PUSH1 0x0 PUSH15 0x10000000000000000000000000000 DUP3 PUSH14 0xFFFFFFFFFFFFFFFFFFFFFFFFFFFF AND PUSH2 0x23D4 SWAP2 SWAP1 PUSH2 0x33CB JUMP JUMPDEST SWAP1 POP SWAP2 SWAP1 POP JUMP JUMPDEST PUSH1 0x0 DUP1 REVERT JUMPDEST PUSH1 0x0 DUP1 REVERT JUMPDEST PUSH1 0x0 DUP2 SWAP1 POP SWAP2 SWAP1 POP JUMP JUMPDEST PUSH2 0x23F8 DUP2 PUSH2 0x23E5 JUMP JUMPDEST DUP2 EQ PUSH2 0x2403 JUMPI PUSH1 0x0 DUP1 REVERT JUMPDEST POP JUMP JUMPDEST PUSH1 0x0 DUP2 CALLDATALOAD SWAP1 POP PUSH2 0x2415 DUP2 PUSH2 0x23EF JUMP JUMPDEST SWAP3 SWAP2 POP POP JUMP JUMPDEST PUSH1 0x0 PUSH20 0xFFFFFFFFFFFFFFFFFFFFFFFFFFFFFFFFFFFFFFFF DUP3 AND SWAP1 POP SWAP2 SWAP1 POP JUMP JUMPDEST PUSH1 0x0 PUSH2 0x2446 DUP3 PUSH2 0x241B JUMP JUMPDEST SWAP1 POP SWAP2 SWAP1 POP JUMP JUMPDEST PUSH2 0x2456 DUP2 PUSH2 0x243B JUMP JUMPDEST DUP2 EQ PUSH2 0x2461 JUMPI PUSH1 0x0 DUP1 REVERT JUMPDEST POP JUMP JUMPDEST PUSH1 0x0 DUP2 CALLDATALOAD SWAP1 POP PUSH2 0x2473 DUP2 PUSH2 0x244D JUMP JUMPDEST SWAP3 SWAP2 POP POP JUMP JUMPDEST PUSH1 0x0 DUP1 REVERT JUMPDEST PUSH1 0x0 DUP1 REVERT JUMPDEST PUSH1 0x0 DUP1 REVERT JUMPDEST PUSH1 0x0 DUP1 DUP4 PUSH1 0x1F DUP5 ADD SLT PUSH2 0x249E JUMPI PUSH2 0x249D PUSH2 0x2479 JUMP JUMPDEST JUMPDEST DUP3 CALLDATALOAD SWAP1 POP PUSH8 0xFFFFFFFFFFFFFFFF DUP2 GT ISZERO PUSH2 0x24BB JUMPI PUSH2 0x24BA PUSH2 0x247E JUMP JUMPDEST JUMPDEST PUSH1 0x20 DUP4 ADD SWAP2 POP DUP4 PUSH1 0x1 DUP3 MUL DUP4 ADD GT ISZERO PUSH2 0x24D7 JUMPI PUSH2 0x24D6 PUSH2 0x2483 JUMP JUMPDEST JUMPDEST SWAP3 POP SWAP3 SWAP1 POP JUMP JUMPDEST PUSH1 0x0 DUP1 PUSH1 0x0 DUP1 PUSH1 0x0 PUSH1 0x80 DUP7 DUP9 SUB SLT ISZERO PUSH2 0x24FA JUMPI PUSH2 0x24F9 PUSH2 0x23DB JUMP JUMPDEST JUMPDEST PUSH1 0x0 PUSH2 0x2508 DUP9 DUP3 DUP10 ADD PUSH2 0x2406 JUMP JUMPDEST SWAP6 POP POP PUSH1 0x20 PUSH2 0x2519 DUP9 DUP3 DUP10 ADD PUSH2 0x2406 JUMP JUMPDEST SWAP5 POP POP PUSH1 0x40 PUSH2 0x252A DUP9 DUP3 DUP10 ADD PUSH2 0x2464 JUMP JUMPDEST SWAP4 POP POP PUSH1 0x60 DUP7 ADD CALLDATALOAD PUSH8 0xFFFFFFFFFFFFFFFF DUP2 GT ISZERO PUSH2 0x254B JUMPI PUSH2 0x254A PUSH2 0x23E0 JUMP JUMPDEST JUMPDEST PUSH2 0x2557 DUP9 DUP3 DUP10 ADD PUSH2 0x2488 JUMP JUMPDEST SWAP3 POP SWAP3 POP POP SWAP3 SWAP6 POP SWAP3 SWAP6 SWAP1 SWAP4 POP JUMP JUMPDEST PUSH1 0x0 DUP2 MLOAD SWAP1 POP SWAP2 SWAP1 POP JUMP JUMPDEST PUSH1 0x0 DUP3 DUP3 MSTORE PUSH1 0x20 DUP3 ADD SWAP1 POP SWAP3 SWAP2 POP POP JUMP JUMPDEST PUSH1 0x0 JUMPDEST DUP4 DUP2 LT ISZERO PUSH2 0x25A0 JUMPI DUP1 DUP3 ADD MLOAD DUP2 DUP5 ADD MSTORE PUSH1 0x20 DUP2 ADD SWAP1 POP PUSH2 0x2585 JUMP JUMPDEST PUSH1 0x0 DUP5 DUP5 ADD MSTORE POP POP POP POP JUMP JUMPDEST PUSH1 0x0 PUSH1 0x1F NOT PUSH1 0x1F DUP4 ADD AND SWAP1 POP SWAP2 SWAP1 POP JUMP JUMPDEST PUSH1 0x0 PUSH2 0x25C8 DUP3 PUSH2 0x2566 JUMP JUMPDEST PUSH2 0x25D2 DUP2 DUP6 PUSH2 0x2571 JUMP JUMPDEST SWAP4 POP PUSH2 0x25E2 DUP2 DUP6 PUSH1 0x20 DUP7 ADD PUSH2 0x2582 JUMP JUMPDEST PUSH2 0x25EB DUP2 PUSH2 0x25AC JUMP JUMPDEST DUP5 ADD SWAP2 POP POP SWAP3 SWAP2 POP POP JUMP JUMPDEST PUSH1 0x0 PUSH1 0x20 DUP3 ADD SWAP1 POP DUP2 DUP2 SUB PUSH1 0x0 DUP4 ADD MSTORE PUSH2 0x2610 DUP2 DUP5 PUSH2 0x25BD JUMP JUMPDEST SWAP1 POP SWAP3 SWAP2 POP POP JUMP JUMPDEST PUSH1 0x0 PUSH14 0xFFFFFFFFFFFFFFFFFFFFFFFFFFFF DUP3 AND SWAP1 POP SWAP2 SWAP1 POP JUMP JUMPDEST PUSH2 0x263B DUP2 PUSH2 0x2618 JUMP JUMPDEST DUP3 MSTORE POP POP JUMP JUMPDEST PUSH1 0x0 PUSH4 0xFFFFFFFF DUP3 AND SWAP1 POP SWAP2 SWAP1 POP JUMP JUMPDEST PUSH2 0x265A DUP2 PUSH2 0x2641 JUMP JUMPDEST DUP3 MSTORE POP POP JUMP JUMPDEST PUSH1 0x0 PUSH1 0x60 DUP3 ADD SWAP1 POP PUSH2 0x2675 PUSH1 0x0 DUP4 ADD DUP7 PUSH2 0x2632 JUMP JUMPDEST PUSH2 0x2682 PUSH1 0x20 DUP4 ADD DUP6 PUSH2 0x2632 JUMP JUMPDEST PUSH2 0x268F PUSH1 0x40 DUP4 ADD DUP5 PUSH2 0x2651 JUMP JUMPDEST SWAP5 SWAP4 POP POP POP POP JUMP JUMPDEST PUSH1 0x0 DUP1 PUSH1 0x40 DUP4 DUP6 SUB SLT ISZERO PUSH2 0x26AE JUMPI PUSH2 0x26AD PUSH2 0x23DB JUMP JUMPDEST JUMPDEST PUSH1 0x0 PUSH2 0x26BC DUP6 DUP3 DUP7 ADD PUSH2 0x2464 JUMP JUMPDEST SWAP3 POP POP PUSH1 0x20 PUSH2 0x26CD DUP6 DUP3 DUP7 ADD PUSH2 0x2406 JUMP JUMPDEST SWAP2 POP POP SWAP3 POP SWAP3 SWAP1 POP JUMP JUMPDEST PUSH1 0x0 DUP2 ISZERO ISZERO SWAP1 POP SWAP2 SWAP1 POP JUMP JUMPDEST PUSH2 0x26EC DUP2 PUSH2 0x26D7 JUMP JUMPDEST DUP3 MSTORE POP POP JUMP JUMPDEST PUSH1 0x0 PUSH1 0x20 DUP3 ADD SWAP1 POP PUSH2 0x2707 PUSH1 0x0 DUP4 ADD DUP5 PUSH2 0x26E3 JUMP JUMPDEST SWAP3 SWAP2 POP POP JUMP JUMPDEST PUSH2 0x2716 DUP2 PUSH2 0x243B JUMP JUMPDEST DUP3 MSTORE POP POP JUMP JUMPDEST PUSH1 0x0 PUSH1 0x20 DUP3 ADD SWAP1 POP PUSH2 0x2731 PUSH1 0x0 DUP4 ADD DUP5 PUSH2 0x270D JUMP JUMPDEST SWAP3 SWAP2 POP POP JUMP JUMPDEST PUSH2 0x2740 DUP2 PUSH2 0x23E5 JUMP JUMPDEST DUP3 MSTORE POP POP JUMP JUMPDEST PUSH1 0x0 PUSH1 0x20 DUP3 ADD SWAP1 POP PUSH2 0x275B PUSH1 0x0 DUP4 ADD DUP5 PUSH2 0x2737 JUMP JUMPDEST SWAP3 SWAP2 POP POP JUMP JUMPDEST PUSH1 0x0 DUP1 PUSH1 0x0 PUSH1 0x60 DUP5 DUP7 SUB SLT ISZERO PUSH2 0x277A JUMPI PUSH2 0x2779 PUSH2 0x23DB JUMP JUMPDEST JUMPDEST PUSH1 0x0 PUSH2 0x2788 DUP7 DUP3 DUP8 ADD PUSH2 0x2464 JUMP JUMPDEST SWAP4 POP POP PUSH1 0x20 PUSH2 0x2799 DUP7 DUP3 DUP8 ADD PUSH2 0x2464 JUMP JUMPDEST SWAP3 POP POP PUSH1 0x40 PUSH2 0x27AA DUP7 DUP3 DUP8 ADD PUSH2 0x2406 JUMP JUMPDEST SWAP2 POP POP SWAP3 POP SWAP3 POP SWAP3 JUMP JUMPDEST PUSH1 0x0 DUP2 SWAP1 POP SWAP2 SWAP1 POP JUMP JUMPDEST PUSH2 0x27C7 DUP2 PUSH2 0x27B4 JUMP JUMPDEST DUP3 MSTORE POP POP JUMP JUMPDEST PUSH1 0x0 PUSH1 0x20 DUP3 ADD SWAP1 POP PUSH2 0x27E2 PUSH1 0x0 DUP4 ADD DUP5 PUSH2 0x27BE JUMP JUMPDEST SWAP3 SWAP2 POP POP JUMP JUMPDEST PUSH1 0x0 PUSH1 0xFF DUP3 AND SWAP1 POP SWAP2 SWAP1 POP JUMP JUMPDEST PUSH2 0x27FE DUP2 PUSH2 0x27E8 JUMP JUMPDEST DUP3 MSTORE POP POP JUMP JUMPDEST PUSH1 0x0 PUSH1 0x20 DUP3 ADD SWAP1 POP PUSH2 0x2819 PUSH1 0x0 DUP4 ADD DUP5 PUSH2 0x27F5 JUMP JUMPDEST SWAP3 SWAP2 POP POP JUMP JUMPDEST PUSH1 0x0 PUSH1 0x20 DUP3 DUP5 SUB SLT ISZERO PUSH2 0x2835 JUMPI PUSH2 0x2834 PUSH2 0x23DB JUMP JUMPDEST JUMPDEST PUSH1 0x0 PUSH2 0x2843 DUP5 DUP3 DUP6 ADD PUSH2 0x2464 JUMP JUMPDEST SWAP2 POP POP SWAP3 SWAP2 POP POP JUMP JUMPDEST PUSH1 0x0 PUSH1 0x40 DUP3 ADD SWAP1 POP PUSH2 0x2861 PUSH1 0x0 DUP4 ADD DUP6 PUSH2 0x2737 JUMP JUMPDEST PUSH2 0x286E PUSH1 0x20 DUP4 ADD DUP5 PUSH2 0x2737 JUMP JUMPDEST SWAP4 SWAP3 POP POP POP JUMP JUMPDEST PUSH2 0x287E DUP2 PUSH2 0x27E8 JUMP JUMPDEST DUP2 EQ PUSH2 0x2889 JUMPI PUSH1 0x0 DUP1 REVERT JUMPDEST POP JUMP JUMPDEST PUSH1 0x0 DUP2 CALLDATALOAD SWAP1 POP PUSH2 0x289B DUP2 PUSH2 0x2875 JUMP JUMPDEST SWAP3 SWAP2 POP POP JUMP JUMPDEST PUSH2 0x28AA DUP2 PUSH2 0x27B4 JUMP JUMPDEST DUP2 EQ PUSH2 0x28B5 JUMPI PUSH1 0x0 DUP1 REVERT JUMPDEST POP JUMP JUMPDEST PUSH1 0x0 DUP2 CALLDATALOAD SWAP1 POP PUSH2 0x28C7 DUP2 PUSH2 0x28A1 JUMP JUMPDEST SWAP3 SWAP2 POP POP JUMP JUMPDEST PUSH1 0x0 DUP1 PUSH1 0x0 DUP1 PUSH1 0x0 DUP1 PUSH1 0x0 PUSH1 0xE0 DUP9 DUP11 SUB SLT ISZERO PUSH2 0x28EC JUMPI PUSH2 0x28EB PUSH2 0x23DB JUMP JUMPDEST JUMPDEST PUSH1 0x0 PUSH2 0x28FA DUP11 DUP3 DUP12 ADD PUSH2 0x2464 JUMP JUMPDEST SWAP8 POP POP PUSH1 0x20 PUSH2 0x290B DUP11 DUP3 DUP12 ADD PUSH2 0x2464 JUMP JUMPDEST SWAP7 POP POP PUSH1 0x40 PUSH2 0x291C DUP11 DUP3 DUP12 ADD PUSH2 0x2406 JUMP JUMPDEST SWAP6 POP POP PUSH1 0x60 PUSH2 0x292D DUP11 DUP3 DUP12 ADD PUSH2 0x2406 JUMP JUMPDEST SWAP5 POP POP PUSH1 0x80 PUSH2 0x293E DUP11 DUP3 DUP12 ADD PUSH2 0x288C JUMP JUMPDEST SWAP4 POP POP PUSH1 0xA0 PUSH2 0x294F DUP11 DUP3 DUP12 ADD PUSH2 0x28B8 JUMP JUMPDEST SWAP3 POP POP PUSH1 0xC0 PUSH2 0x2960 DUP11 DUP3 DUP12 ADD PUSH2 0x28B8 JUMP JUMPDEST SWAP2 POP POP SWAP3 SWAP6 SWAP9 SWAP2 SWAP5 SWAP8 POP SWAP3 SWAP6 POP JUMP JUMPDEST PUSH1 0x0 DUP1 PUSH1 0x40 DUP4 DUP6 SUB SLT ISZERO PUSH2 0x2986 JUMPI PUSH2 0x2985 PUSH2 0x23DB JUMP JUMPDEST JUMPDEST PUSH1 0x0 PUSH2 0x2994 DUP6 DUP3 DUP7 ADD PUSH2 0x2464 JUMP JUMPDEST SWAP3 POP POP PUSH1 0x20 PUSH2 0x29A5 DUP6 DUP3 DUP7 ADD PUSH2 0x2464 JUMP JUMPDEST SWAP2 POP POP SWAP3 POP SWAP3 SWAP1 POP JUMP JUMPDEST PUSH32 0x5061697255736474526F6E743A204C4F434B4544000000000000000000000000 PUSH1 0x0 DUP3 ADD MSTORE POP JUMP JUMPDEST PUSH1 0x0 PUSH2 0x29E5 PUSH1 0x14 DUP4 PUSH2 0x2571 JUMP JUMPDEST SWAP2 POP PUSH2 0x29F0 DUP3 PUSH2 0x29AF JUMP JUMPDEST PUSH1 0x20 DUP3 ADD SWAP1 POP SWAP2 SWAP1 POP JUMP JUMPDEST PUSH1 0x0 PUSH1 0x20 DUP3 ADD SWAP1 POP DUP2 DUP2 SUB PUSH1 0x0 DUP4 ADD MSTORE PUSH2 0x2A14 DUP2 PUSH2 0x29D8 JUMP JUMPDEST SWAP1 POP SWAP2 SWAP1 POP JUMP JUMPDEST PUSH32 0x5061697255736474526F6E743A20494E53554646494349454E545F4F55545055 PUSH1 0x0 DUP3 ADD MSTORE PUSH32 0x545F414D4F554E54000000000000000000000000000000000000000000000000 PUSH1 0x20 DUP3 ADD MSTORE POP JUMP JUMPDEST PUSH1 0x0 PUSH2 0x2A77 PUSH1 0x28 DUP4 PUSH2 0x2571 JUMP JUMPDEST SWAP2 POP PUSH2 0x2A82 DUP3 PUSH2 0x2A1B JUMP JUMPDEST PUSH1 0x40 DUP3 ADD SWAP1 POP SWAP2 SWAP1 POP JUMP JUMPDEST PUSH1 0x0 PUSH1 0x20 DUP3 ADD SWAP1 POP DUP2 DUP2 SUB PUSH1 0x0 DUP4 ADD MSTORE PUSH2 0x2AA6 DUP2 PUSH2 0x2A6A JUMP JUMPDEST SWAP1 POP SWAP2 SWAP1 POP JUMP JUMPDEST PUSH32 0x5061697255736474526F6E743A20494E53554646494349454E545F4C49515549 PUSH1 0x0 DUP3 ADD MSTORE PUSH32 0x4449545900000000000000000000000000000000000000000000000000000000 PUSH1 0x20 DUP3 ADD MSTORE POP JUMP JUMPDEST PUSH1 0x0 PUSH2 0x2B09 PUSH1 0x24 DUP4 PUSH2 0x2571 JUMP JUMPDEST SWAP2 POP PUSH2 0x2B14 DUP3 PUSH2 0x2AAD JUMP JUMPDEST PUSH1 0x40 DUP3 ADD SWAP1 POP SWAP2 SWAP1 POP JUMP JUMPDEST PUSH1 0x0 PUSH1 0x20 DUP3 ADD SWAP1 POP DUP2 DUP2 SUB PUSH1 0x0 DUP4 ADD MSTORE PUSH2 0x2B38 DUP2 PUSH2 0x2AFC JUMP JUMPDEST SWAP1 POP SWAP2 SWAP1 POP JUMP JUMPDEST PUSH32 0x5061697255736474526F6E743A20494E56414C49445F544F0000000000000000 PUSH1 0x0 DUP3 ADD MSTORE POP JUMP JUMPDEST PUSH1 0x0 PUSH2 0x2B75 PUSH1 0x18 DUP4 PUSH2 0x2571 JUMP JUMPDEST SWAP2 POP PUSH2 0x2B80 DUP3 PUSH2 0x2B3F JUMP JUMPDEST PUSH1 0x20 DUP3 ADD SWAP1 POP SWAP2 SWAP1 POP JUMP JUMPDEST PUSH1 0x0 PUSH1 0x20 DUP3 ADD SWAP1 POP DUP2 DUP2 SUB PUSH1 0x0 DUP4 ADD MSTORE PUSH2 0x2BA4 DUP2 PUSH2 0x2B68 JUMP JUMPDEST SWAP1 POP SWAP2 SWAP1 POP JUMP JUMPDEST PUSH1 0x0 DUP2 MLOAD SWAP1 POP PUSH2 0x2BBA DUP2 PUSH2 0x23EF JUMP JUMPDEST SWAP3 SWAP2 POP POP JUMP JUMPDEST PUSH1 0x0 PUSH1 0x20 DUP3 DUP5 SUB SLT ISZERO PUSH2 0x2BD6 JUMPI PUSH2 0x2BD5 PUSH2 0x23DB JUMP JUMPDEST JUMPDEST PUSH1 0x0 PUSH2 0x2BE4 DUP5 DUP3 DUP6 ADD PUSH2 0x2BAB JUMP JUMPDEST SWAP2 POP POP SWAP3 SWAP2 POP POP JUMP JUMPDEST PUSH32 0x4E487B7100000000000000000000000000000000000000000000000000000000 PUSH1 0x0 MSTORE PUSH1 0x11 PUSH1 0x4 MSTORE PUSH1 0x24 PUSH1 0x0 REVERT JUMPDEST PUSH1 0x0 PUSH2 0x2C27 DUP3 PUSH2 0x23E5 JUMP JUMPDEST SWAP2 POP PUSH2 0x2C32 DUP4 PUSH2 0x23E5 JUMP JUMPDEST SWAP3 POP DUP3 DUP3 SUB SWAP1 POP DUP2 DUP2 GT ISZERO PUSH2 0x2C4A JUMPI PUSH2 0x2C49 PUSH2 0x2BED JUMP JUMPDEST JUMPDEST SWAP3 SWAP2 POP POP JUMP JUMPDEST PUSH32 0x5061697255736474526F6E743A20494E53554646494349454E545F494E505554 PUSH1 0x0 DUP3 ADD MSTORE PUSH32 0x5F414D4F554E5400000000000000000000000000000000000000000000000000 PUSH1 0x20 DUP3 ADD MSTORE POP JUMP JUMPDEST PUSH1 0x0 PUSH2 0x2CAC PUSH1 0x27 DUP4 PUSH2 0x2571 JUMP JUMPDEST SWAP2 POP PUSH2 0x2CB7 DUP3 PUSH2 0x2C50 JUMP JUMPDEST PUSH1 0x40 DUP3 ADD SWAP1 POP SWAP2 SWAP1 POP JUMP JUMPDEST PUSH1 0x0 PUSH1 0x20 DUP3 ADD SWAP1 POP DUP2 DUP2 SUB PUSH1 0x0 DUP4 ADD MSTORE PUSH2 0x2CDB DUP2 PUSH2 0x2C9F JUMP JUMPDEST SWAP1 POP SWAP2 SWAP1 POP JUMP JUMPDEST PUSH1 0x0 PUSH2 0x2CED DUP3 PUSH2 0x23E5 JUMP JUMPDEST SWAP2 POP PUSH2 0x2CF8 DUP4 PUSH2 0x23E5 JUMP JUMPDEST SWAP3 POP DUP3 DUP3 MUL PUSH2 0x2D06 DUP2 PUSH2 0x23E5 JUMP JUMPDEST SWAP2 POP DUP3 DUP3 DIV DUP5 EQ DUP4 ISZERO OR PUSH2 0x2D1D JUMPI PUSH2 0x2D1C PUSH2 0x2BED JUMP JUMPDEST JUMPDEST POP SWAP3 SWAP2 POP POP JUMP JUMPDEST PUSH32 0x5061697255736474526F6E743A204B0000000000000000000000000000000000 PUSH1 0x0 DUP3 ADD MSTORE POP JUMP JUMPDEST PUSH1 0x0 PUSH2 0x2D5A PUSH1 0xF DUP4 PUSH2 0x2571 JUMP JUMPDEST SWAP2 POP PUSH2 0x2D65 DUP3 PUSH2 0x2D24 JUMP JUMPDEST PUSH1 0x20 DUP3 ADD SWAP1 POP SWAP2 SWAP1 POP JUMP JUMPDEST PUSH1 0x0 PUSH1 0x20 DUP3 ADD SWAP1 POP DUP2 DUP2 SUB PUSH1 0x0 DUP4 ADD MSTORE PUSH2 0x2D89 DUP2 PUSH2 0x2D4D JUMP JUMPDEST SWAP1 POP SWAP2 SWAP1 POP JUMP JUMPDEST PUSH32 0x4E487B7100000000000000000000000000000000000000000000000000000000 PUSH1 0x0 MSTORE PUSH1 0x12 PUSH1 0x4 MSTORE PUSH1 0x24 PUSH1 0x0 REVERT JUMPDEST PUSH1 0x0 PUSH2 0x2DCA DUP3 PUSH2 0x23E5 JUMP JUMPDEST SWAP2 POP PUSH2 0x2DD5 DUP4 PUSH2 0x23E5 JUMP JUMPDEST SWAP3 POP DUP3 PUSH2 0x2DE5 JUMPI PUSH2 0x2DE4 PUSH2 0x2D90 JUMP JUMPDEST JUMPDEST DUP3 DUP3 DIV SWAP1 POP SWAP3 SWAP2 POP POP JUMP JUMPDEST PUSH32 0x5061697255736474526F6E743A20494E53554646494349454E545F4C49515549 PUSH1 0x0 DUP3 ADD MSTORE PUSH32 0x444954595F4D494E544544000000000000000000000000000000000000000000 PUSH1 0x20 DUP3 ADD MSTORE POP JUMP JUMPDEST PUSH1 0x0 PUSH2 0x2E4C PUSH1 0x2B DUP4 PUSH2 0x2571 JUMP JUMPDEST SWAP2 POP PUSH2 0x2E57 DUP3 PUSH2 0x2DF0 JUMP JUMPDEST PUSH1 0x40 DUP3 ADD SWAP1 POP SWAP2 SWAP1 POP JUMP JUMPDEST PUSH1 0x0 PUSH1 0x20 DUP3 ADD SWAP1 POP DUP2 DUP2 SUB PUSH1 0x0 DUP4 ADD MSTORE PUSH2 0x2E7B DUP2 PUSH2 0x2E3F JUMP JUMPDEST SWAP1 POP SWAP2 SWAP1 POP JUMP JUMPDEST PUSH32 0x5061697255736474526F6E743A20494E53554646494349454E545F4C49515549 PUSH1 0x0 DUP3 ADD MSTORE PUSH32 0x444954595F4255524E4544000000000000000000000000000000000000000000 PUSH1 0x20 DUP3 ADD MSTORE POP JUMP JUMPDEST PUSH1 0x0 PUSH2 0x2EDE PUSH1 0x2B DUP4 PUSH2 0x2571 JUMP JUMPDEST SWAP2 POP PUSH2 0x2EE9 DUP3 PUSH2 0x2E82 JUMP JUMPDEST PUSH1 0x40 DUP3 ADD SWAP1 POP SWAP2 SWAP1 POP JUMP JUMPDEST PUSH1 0x0 PUSH1 0x20 DUP3 ADD SWAP1 POP DUP2 DUP2 SUB PUSH1 0x0 DUP4 ADD MSTORE PUSH2 0x2F0D DUP2 PUSH2 0x2ED1 JUMP JUMPDEST SWAP1 POP SWAP2 SWAP1 POP JUMP JUMPDEST PUSH32 0x556E697377617056323A20455850495245440000000000000000000000000000 PUSH1 0x0 DUP3 ADD MSTORE POP JUMP JUMPDEST PUSH1 0x0 PUSH2 0x2F4A PUSH1 0x12 DUP4 PUSH2 0x2571 JUMP JUMPDEST SWAP2 POP PUSH2 0x2F55 DUP3 PUSH2 0x2F14 JUMP JUMPDEST PUSH1 0x20 DUP3 ADD SWAP1 POP SWAP2 SWAP1 POP JUMP JUMPDEST PUSH1 0x0 PUSH1 0x20 DUP3 ADD SWAP1 POP DUP2 DUP2 SUB PUSH1 0x0 DUP4 ADD MSTORE PUSH2 0x2F79 DUP2 PUSH2 0x2F3D JUMP JUMPDEST SWAP1 POP SWAP2 SWAP1 POP JUMP JUMPDEST PUSH1 0x0 PUSH2 0x2F8B DUP3 PUSH2 0x23E5 JUMP JUMPDEST SWAP2 POP PUSH32 0xFFFFFFFFFFFFFFFFFFFFFFFFFFFFFFFFFFFFFFFFFFFFFFFFFFFFFFFFFFFFFFFF DUP3 SUB PUSH2 0x2FBD JUMPI PUSH2 0x2FBC PUSH2 0x2BED JUMP JUMPDEST JUMPDEST PUSH1 0x1 DUP3 ADD SWAP1 POP SWAP2 SWAP1 POP JUMP JUMPDEST PUSH1 0x0 PUSH1 0xC0 DUP3 ADD SWAP1 POP PUSH2 0x2FDD PUSH1 0x0 DUP4 ADD DUP10 PUSH2 0x27BE JUMP JUMPDEST PUSH2 0x2FEA PUSH1 0x20 DUP4 ADD DUP9 PUSH2 0x270D JUMP JUMPDEST PUSH2 0x2FF7 PUSH1 0x40 DUP4 ADD DUP8 PUSH2 0x270D JUMP JUMPDEST PUSH2 0x3004 PUSH1 0x60 DUP4 ADD DUP7 PUSH2 0x2737 JUMP JUMPDEST PUSH2 0x3011 PUSH1 0x80 DUP4 ADD DUP6 PUSH2 0x2737 JUMP JUMPDEST PUSH2 0x301E PUSH1 0xA0 DUP4 ADD DUP5 PUSH2 0x2737 JUMP JUMPDEST SWAP8 SWAP7 POP POP POP POP POP POP POP JUMP JUMPDEST PUSH1 0x0 DUP2 SWAP1 POP SWAP3 SWAP2 POP POP JUMP JUMPDEST PUSH32 0x1901000000000000000000000000000000000000000000000000000000000000 PUSH1 0x0 DUP3 ADD MSTORE POP JUMP JUMPDEST PUSH1 0x0 PUSH2 0x306A PUSH1 0x2 DUP4 PUSH2 0x3029 JUMP JUMPDEST SWAP2 POP PUSH2 0x3075 DUP3 PUSH2 0x3034 JUMP JUMPDEST PUSH1 0x2 DUP3 ADD SWAP1 POP SWAP2 SWAP1 POP JUMP JUMPDEST PUSH1 0x0 DUP2 SWAP1 POP SWAP2 SWAP1 POP JUMP JUMPDEST PUSH2 0x309B PUSH2 0x3096 DUP3 PUSH2 0x27B4 JUMP JUMPDEST PUSH2 0x3080 JUMP JUMPDEST DUP3 MSTORE POP POP JUMP JUMPDEST PUSH1 0x0 PUSH2 0x30AC DUP3 PUSH2 0x305D JUMP JUMPDEST SWAP2 POP PUSH2 0x30B8 DUP3 DUP6 PUSH2 0x308A JUMP JUMPDEST PUSH1 0x20 DUP3 ADD SWAP2 POP PUSH2 0x30C8 DUP3 DUP5 PUSH2 0x308A JUMP JUMPDEST PUSH1 0x20 DUP3 ADD SWAP2 POP DUP2 SWAP1 POP SWAP4 SWAP3 POP POP POP JUMP JUMPDEST PUSH1 0x0 PUSH1 0x80 DUP3 ADD SWAP1 POP PUSH2 0x30ED PUSH1 0x0 DUP4 ADD DUP8 PUSH2 0x27BE JUMP JUMPDEST PUSH2 0x30FA PUSH1 0x20 DUP4 ADD DUP7 PUSH2 0x27F5 JUMP JUMPDEST PUSH2 0x3107 PUSH1 0x40 DUP4 ADD DUP6 PUSH2 0x27BE JUMP JUMPDEST PUSH2 0x3114 PUSH1 0x60 DUP4 ADD DUP5 PUSH2 0x27BE JUMP JUMPDEST SWAP6 SWAP5 POP POP POP POP POP JUMP JUMPDEST PUSH32 0x556E697377617056323A20494E56414C49445F5349474E415455524500000000 PUSH1 0x0 DUP3 ADD MSTORE POP JUMP JUMPDEST PUSH1 0x0 PUSH2 0x3153 PUSH1 0x1C DUP4 PUSH2 0x2571 JUMP JUMPDEST SWAP2 POP PUSH2 0x315E DUP3 PUSH2 0x311D JUMP JUMPDEST PUSH1 0x20 DUP3 ADD SWAP1 POP SWAP2 SWAP1 POP JUMP JUMPDEST PUSH1 0x0 PUSH1 0x20 DUP3 ADD SWAP1 POP DUP2 DUP2 SUB PUSH1 0x0 DUP4 ADD MSTORE PUSH2 0x3182 DUP2 PUSH2 0x3146 JUMP JUMPDEST SWAP1 POP SWAP2 SWAP1 POP JUMP JUMPDEST PUSH1 0x0 PUSH1 0x40 DUP3 ADD SWAP1 POP PUSH2 0x319E PUSH1 0x0 DUP4 ADD DUP6 PUSH2 0x270D JUMP JUMPDEST PUSH2 0x31AB PUSH1 0x20 DUP4 ADD DUP5 PUSH2 0x2737 JUMP JUMPDEST SWAP4 SWAP3 POP POP POP JUMP JUMPDEST PUSH1 0x0 DUP2 MLOAD SWAP1 POP SWAP2 SWAP1 POP JUMP JUMPDEST PUSH1 0x0 DUP2 SWAP1 POP SWAP3 SWAP2 POP POP JUMP JUMPDEST PUSH1 0x0 PUSH2 0x31D3 DUP3 PUSH2 0x31B2 JUMP JUMPDEST PUSH2 0x31DD DUP2 DUP6 PUSH2 0x31BD JUMP JUMPDEST SWAP4 POP PUSH2 0x31ED DUP2 DUP6 PUSH1 0x20 DUP7 ADD PUSH2 0x2582 JUMP JUMPDEST DUP1 DUP5 ADD SWAP2 POP POP SWAP3 SWAP2 POP POP JUMP JUMPDEST PUSH1 0x0 PUSH2 0x3205 DUP3 DUP5 PUSH2 0x31C8 JUMP JUMPDEST SWAP2 POP DUP2 SWAP1 POP SWAP3 SWAP2 POP POP JUMP JUMPDEST PUSH2 0x3219 DUP2 PUSH2 0x26D7 JUMP JUMPDEST DUP2 EQ PUSH2 0x3224 JUMPI PUSH1 0x0 DUP1 REVERT JUMPDEST POP JUMP JUMPDEST PUSH1 0x0 DUP2 MLOAD SWAP1 POP PUSH2 0x3236 DUP2 PUSH2 0x3210 JUMP JUMPDEST SWAP3 SWAP2 POP POP JUMP JUMPDEST PUSH1 0x0 PUSH1 0x20 DUP3 DUP5 SUB SLT ISZERO PUSH2 0x3252 JUMPI PUSH2 0x3251 PUSH2 0x23DB JUMP JUMPDEST JUMPDEST PUSH1 0x0 PUSH2 0x3260 DUP5 DUP3 DUP6 ADD PUSH2 0x3227 JUMP JUMPDEST SWAP2 POP POP SWAP3 SWAP2 POP POP JUMP JUMPDEST PUSH32 0x5061697255736474526F6E743A205452414E534645525F4641494C4544000000 PUSH1 0x0 DUP3 ADD MSTORE POP JUMP JUMPDEST PUSH1 0x0 PUSH2 0x329F PUSH1 0x1D DUP4 PUSH2 0x2571 JUMP JUMPDEST SWAP2 POP PUSH2 0x32AA DUP3 PUSH2 0x3269 JUMP JUMPDEST PUSH1 0x20 DUP3 ADD SWAP1 POP SWAP2 SWAP1 POP JUMP JUMPDEST PUSH1 0x0 PUSH1 0x20 DUP3 ADD SWAP1 POP DUP2 DUP2 SUB PUSH1 0x0 DUP4 ADD MSTORE PUSH2 0x32CE DUP2 PUSH2 0x3292 JUMP JUMPDEST SWAP1 POP SWAP2 SWAP1 POP JUMP JUMPDEST PUSH1 0x0 PUSH2 0x32E0 DUP3 PUSH2 0x23E5 JUMP JUMPDEST SWAP2 POP PUSH2 0x32EB DUP4 PUSH2 0x23E5 JUMP JUMPDEST SWAP3 POP DUP3 PUSH2 0x32FB JUMPI PUSH2 0x32FA PUSH2 0x2D90 JUMP JUMPDEST JUMPDEST DUP3 DUP3 MOD SWAP1 POP SWAP3 SWAP2 POP POP JUMP JUMPDEST PUSH1 0x0 PUSH2 0x3311 DUP3 PUSH2 0x2641 JUMP JUMPDEST SWAP2 POP PUSH2 0x331C DUP4 PUSH2 0x2641 JUMP JUMPDEST SWAP3 POP DUP3 DUP3 SUB SWAP1 POP PUSH4 0xFFFFFFFF DUP2 GT ISZERO PUSH2 0x3338 JUMPI PUSH2 0x3337 PUSH2 0x2BED JUMP JUMPDEST JUMPDEST SWAP3 SWAP2 POP POP JUMP JUMPDEST PUSH1 0x0 PUSH28 0xFFFFFFFFFFFFFFFFFFFFFFFFFFFFFFFFFFFFFFFFFFFFFFFFFFFFFFFF DUP3 AND SWAP1 POP SWAP2 SWAP1 POP JUMP JUMPDEST PUSH1 0x0 PUSH2 0x3371 DUP3 PUSH2 0x333E JUMP JUMPDEST SWAP2 POP PUSH2 0x337C DUP4 PUSH2 0x333E JUMP JUMPDEST SWAP3 POP DUP3 PUSH2 0x338C JUMPI PUSH2 0x338B PUSH2 0x2D90 JUMP JUMPDEST JUMPDEST DUP3 DUP3 DIV SWAP1 POP SWAP3 SWAP2 POP POP JUMP JUMPDEST PUSH1 0x0 PUSH2 0x33A2 DUP3 PUSH2 0x23E5 JUMP JUMPDEST SWAP2 POP PUSH2 0x33AD DUP4 PUSH2 0x23E5 JUMP JUMPDEST SWAP3 POP DUP3 DUP3 ADD SWAP1 POP DUP1 DUP3 GT ISZERO PUSH2 0x33C5 JUMPI PUSH2 0x33C4 PUSH2 0x2BED JUMP JUMPDEST JUMPDEST SWAP3 SWAP2 POP POP JUMP JUMPDEST PUSH1 0x0 PUSH2 0x33D6 DUP3 PUSH2 0x333E JUMP JUMPDEST SWAP2 POP PUSH2 0x33E1 DUP4 PUSH2 0x333E JUMP JUMPDEST SWAP3 POP DUP3 DUP3 MUL PUSH2 0x33EF DUP2 PUSH2 0x333E JUMP JUMPDEST SWAP2 POP DUP3 DUP3 DIV DUP5 EQ DUP4 ISZERO OR PUSH2 0x3406 JUMPI PUSH2 0x3405 PUSH2 0x2BED JUMP JUMPDEST JUMPDEST POP SWAP3 SWAP2 POP POP JUMP INVALID LOG2 PUSH5 0x6970667358 0x22 SLT KECCAK256 CALLDATALOAD DUP16 0x1F DUP11 DUP13 PUSH32 0x7A4DC33B412FB85C71E5659C0A81FA087D26EE718642353E178264736F6C6343 STOP ADDMOD SLT STOP CALLER "
				},
				"gasEstimates": {
					"creation": {
						"codeDepositCost": "2675800",
						"executionCost": "infinite",
						"totalCost": "infinite"
					},
					"external": {
						"DOMAIN_SEPARATOR()": "2518",
						"MINIMUM_LIQUIDITY()": "396",
						"PERMIT_TYPEHASH()": "380",
						"allowance(address,address)": "infinite",
						"approve(address,uint256)": "23252",
						"balanceOf(address)": "2859",
						"burn(address)": "infinite",
						"decimals()": "402",
						"getReserves()": "infinite",
						"kLast()": "2496",
						"mint(address)": "infinite",
						"name()": "infinite",
						"nonces(address)": "2903",
						"permit(address,address,uint256,uint256,uint8,bytes32,bytes32)": "infinite",
						"price0CumulativeLast()": "2540",
						"price1CumulativeLast()": "2562",
						"skim(address)": "infinite",
						"swap(uint256,uint256,address,bytes)": "infinite",
						"symbol()": "infinite",
						"sync()": "infinite",
						"token0()": "2626",
						"token1()": "2558",
						"totalSupply()": "2563",
						"transfer(address,uint256)": "infinite",
						"transferFrom(address,address,uint256)": "infinite"
					},
					"internal": {
						"_approve(address,address,uint256)": "22315",
						"_burn(address,uint256)": "infinite",
						"_mint(address,uint256)": "infinite",
						"_mintFee(uint112,uint112)": "infinite",
						"_safeTransfer(address,address,uint256)": "infinite",
						"_transfer(address,address,uint256)": "infinite",
						"_update(uint256,uint256,uint112,uint112)": "infinite",
						"encode(uint112)": "infinite",
						"min(uint256,uint256)": "64",
						"sqrt(uint256)": "infinite"
					}
				},
				"methodIdentifiers": {
					"DOMAIN_SEPARATOR()": "3644e515",
					"MINIMUM_LIQUIDITY()": "ba9a7a56",
					"PERMIT_TYPEHASH()": "30adf81f",
					"allowance(address,address)": "dd62ed3e",
					"approve(address,uint256)": "095ea7b3",
					"balanceOf(address)": "70a08231",
					"burn(address)": "89afcb44",
					"decimals()": "313ce567",
					"getReserves()": "0902f1ac",
					"kLast()": "7464fc3d",
					"mint(address)": "6a627842",
					"name()": "06fdde03",
					"nonces(address)": "7ecebe00",
					"permit(address,address,uint256,uint256,uint8,bytes32,bytes32)": "d505accf",
					"price0CumulativeLast()": "5909c0d5",
					"price1CumulativeLast()": "5a3d5493",
					"skim(address)": "bc25cf77",
					"swap(uint256,uint256,address,bytes)": "022c0d9f",
					"symbol()": "95d89b41",
					"sync()": "fff6cae9",
					"token0()": "0dfe1681",
					"token1()": "d21220a7",
					"totalSupply()": "18160ddd",
					"transfer(address,uint256)": "a9059cbb",
					"transferFrom(address,address,uint256)": "23b872dd"
				}
			},
			"storageLayout": {
				"storage": [
					{
						"astId": 89,
						"contract": "GoWorkspace/github.com/hdlabs-ro/sc_base/us-contracts/PairUsdtRont.sol:PairUsdtRont",
						"label": "feeTo",
						"offset": 0,
						"slot": "0",
						"type": "t_address"
					},
					{
						"astId": 92,
						"contract": "GoWorkspace/github.com/hdlabs-ro/sc_base/us-contracts/PairUsdtRont.sol:PairUsdtRont",
						"label": "token0",
						"offset": 0,
						"slot": "1",
						"type": "t_address"
					},
					{
						"astId": 95,
						"contract": "GoWorkspace/github.com/hdlabs-ro/sc_base/us-contracts/PairUsdtRont.sol:PairUsdtRont",
						"label": "token1",
						"offset": 0,
						"slot": "2",
						"type": "t_address"
					},
					{
						"astId": 106,
						"contract": "GoWorkspace/github.com/hdlabs-ro/sc_base/us-contracts/PairUsdtRont.sol:PairUsdtRont",
						"label": "totalSupply",
						"offset": 0,
						"slot": "3",
						"type": "t_uint256"
					},
					{
						"astId": 110,
						"contract": "GoWorkspace/github.com/hdlabs-ro/sc_base/us-contracts/PairUsdtRont.sol:PairUsdtRont",
						"label": "balanceOf",
						"offset": 0,
						"slot": "4",
						"type": "t_mapping(t_address,t_uint256)"
					},
					{
						"astId": 116,
						"contract": "GoWorkspace/github.com/hdlabs-ro/sc_base/us-contracts/PairUsdtRont.sol:PairUsdtRont",
						"label": "allowance",
						"offset": 0,
						"slot": "5",
						"type": "t_mapping(t_address,t_mapping(t_address,t_uint256))"
					},
					{
						"astId": 118,
						"contract": "GoWorkspace/github.com/hdlabs-ro/sc_base/us-contracts/PairUsdtRont.sol:PairUsdtRont",
						"label": "DOMAIN_SEPARATOR",
						"offset": 0,
						"slot": "6",
						"type": "t_bytes32"
					},
					{
						"astId": 125,
						"contract": "GoWorkspace/github.com/hdlabs-ro/sc_base/us-contracts/PairUsdtRont.sol:PairUsdtRont",
						"label": "nonces",
						"offset": 0,
						"slot": "7",
						"type": "t_mapping(t_address,t_uint256)"
					},
					{
						"astId": 141,
						"contract": "GoWorkspace/github.com/hdlabs-ro/sc_base/us-contracts/PairUsdtRont.sol:PairUsdtRont",
						"label": "reserve0",
						"offset": 0,
						"slot": "8",
						"type": "t_uint112"
					},
					{
						"astId": 143,
						"contract": "GoWorkspace/github.com/hdlabs-ro/sc_base/us-contracts/PairUsdtRont.sol:PairUsdtRont",
						"label": "reserve1",
						"offset": 14,
						"slot": "8",
						"type": "t_uint112"
					},
					{
						"astId": 145,
						"contract": "GoWorkspace/github.com/hdlabs-ro/sc_base/us-contracts/PairUsdtRont.sol:PairUsdtRont",
						"label": "blockTimestampLast",
						"offset": 28,
						"slot": "8",
						"type": "t_uint32"
					},
					{
						"astId": 147,
						"contract": "GoWorkspace/github.com/hdlabs-ro/sc_base/us-contracts/PairUsdtRont.sol:PairUsdtRont",
						"label": "price0CumulativeLast",
						"offset": 0,
						"slot": "9",
						"type": "t_uint256"
					},
					{
						"astId": 149,
						"contract": "GoWorkspace/github.com/hdlabs-ro/sc_base/us-contracts/PairUsdtRont.sol:PairUsdtRont",
						"label": "price1CumulativeLast",
						"offset": 0,
						"slot": "10",
						"type": "t_uint256"
					},
					{
						"astId": 151,
						"contract": "GoWorkspace/github.com/hdlabs-ro/sc_base/us-contracts/PairUsdtRont.sol:PairUsdtRont",
						"label": "kLast",
						"offset": 0,
						"slot": "11",
						"type": "t_uint256"
					},
					{
						"astId": 154,
						"contract": "GoWorkspace/github.com/hdlabs-ro/sc_base/us-contracts/PairUsdtRont.sol:PairUsdtRont",
						"label": "unlocked",
						"offset": 0,
						"slot": "12",
						"type": "t_uint256"
					}
				],
				"types": {
					"t_address": {
						"encoding": "inplace",
						"label": "address",
						"numberOfBytes": "20"
					},
					"t_bytes32": {
						"encoding": "inplace",
						"label": "bytes32",
						"numberOfBytes": "32"
					},
					"t_mapping(t_address,t_mapping(t_address,t_uint256))": {
						"encoding": "mapping",
						"key": "t_address",
						"label": "mapping(address => mapping(address => uint256))",
						"numberOfBytes": "32",
						"value": "t_mapping(t_address,t_uint256)"
					},
					"t_mapping(t_address,t_uint256)": {
						"encoding": "mapping",
						"key": "t_address",
						"label": "mapping(address => uint256)",
						"numberOfBytes": "32",
						"value": "t_uint256"
					},
					"t_uint112": {
						"encoding": "inplace",
						"label": "uint112",
						"numberOfBytes": "14"
					},
					"t_uint256": {
						"encoding": "inplace",
						"label": "uint256",
						"numberOfBytes": "32"
					},
					"t_uint32": {
						"encoding": "inplace",
						"label": "uint32",
						"numberOfBytes": "4"
					}
				}
			},
			"userdoc": {
				"kind": "user",
				"methods": {},
				"version": 1
			}
		}
	}
}