{
	"data": {
		"bytecode": {
			"linkReferences": {},
			"object": "6080604052735b38da6a701c568545dcfcb03fcb875f56beddc46000806101000a81548173ffffffffffffffffffffffffffffffffffffffff021916908373ffffffffffffffffffffffffffffffffffffffff16021790555073d0da387609adc13779badaf1315a4904cd40976e600160006101000a81548173ffffffffffffffffffffffffffffffffffffffff021916908373ffffffffffffffffffffffffffffffffffffffff16021790555073d1f9c3397ea04d3de7f002cb9e63cb49d0deaa36600260006101000a81548173ffffffffffffffffffffffffffffffffffffffff021916908373ffffffffffffffffffffffffffffffffffffffff1602179055506001600c553480156200011457600080fd5b5060004690507f8b73c3c69bb8fe3d512ecc4cf759cc79239f7b179b0ffacaa9a75d522b39400f6040518060400160405280600e81526020017f45524320556e6973776170205632000000000000000000000000000000000000815250805190602001206040518060400160405280600181526020017f3100000000000000000000000000000000000000000000000000000000000000815250805190602001208330604051602001620001cd959493929190620002ad565b60405160208183030381529060405280519060200120600681905550604051620001f79062000365565b60405180910390207fcf34ef537ac33ee1ac626ca1587a0a7e8e51561e5514f8cb36afa1c5102b3bab60405160405180910390a2506200037c565b6000819050919050565b620002478162000232565b82525050565b6000819050919050565b62000262816200024d565b82525050565b600073ffffffffffffffffffffffffffffffffffffffff82169050919050565b6000620002958262000268565b9050919050565b620002a78162000288565b82525050565b600060a082019050620002c460008301886200023c565b620002d360208301876200023c565b620002e260408301866200023c565b620002f1606083018562000257565b6200030060808301846200029c565b9695505050505050565b600081905092915050565b7f5061697220555344542d524f4e5420636f6e7472616374206372656174656400600082015250565b60006200034d601f836200030a565b91506200035a8262000315565b601f82019050919050565b600062000372826200033e565b9150819050919050565b6134d4806200038c6000396000f3fe608060405234801561001057600080fd5b50600436106101735760003560e01c80636a627842116100de578063a9059cbb11610097578063d21220a711610071578063d21220a71461046b578063d505accf14610489578063dd62ed3e146104a5578063fff6cae9146104d557610173565b8063a9059cbb14610401578063ba9a7a5614610431578063bc25cf771461044f57610173565b80636a6278421461030457806370a08231146103345780637464fc3d146103645780637ecebe001461038257806389afcb44146103b257806395d89b41146103e357610173565b806323b872dd1161013057806323b872dd1461023e57806330adf81f1461026e578063313ce5671461028c5780633644e515146102aa5780635909c0d5146102c85780635a3d5493146102e657610173565b8063022c0d9f1461017857806306fdde03146101945780630902f1ac146101b2578063095ea7b3146101d25780630dfe16811461020257806318160ddd14610220575b600080fd5b610192600480360381019061018d9190612522565b6104df565b005b61019c610a4b565b6040516101a9919061263a565b60405180910390f35b6101ba610a84565b6040516101c9939291906126a4565b60405180910390f35b6101ec60048036038101906101e791906126db565b610ae1565b6040516101f99190612736565b60405180910390f35b61020a610af8565b6040516102179190612760565b60405180910390f35b610228610b1e565b604051610235919061278a565b60405180910390f35b610258600480360381019061025391906127a5565b610b24565b6040516102659190612736565b60405180910390f35b610276610cd8565b6040516102839190612811565b60405180910390f35b610294610cff565b6040516102a19190612848565b60405180910390f35b6102b2610d04565b6040516102bf9190612811565b60405180910390f35b6102d0610d0a565b6040516102dd919061278a565b60405180910390f35b6102ee610d10565b6040516102fb919061278a565b60405180910390f35b61031e60048036038101906103199190612863565b610d16565b60405161032b919061278a565b60405180910390f35b61034e60048036038101906103499190612863565b61107d565b60405161035b919061278a565b60405180910390f35b61036c611095565b604051610379919061278a565b60405180910390f35b61039c60048036038101906103979190612863565b61109b565b6040516103a9919061278a565b60405180910390f35b6103cc60048036038101906103c79190612863565b6110b3565b6040516103da929190612890565b60405180910390f35b6103eb6114e2565b6040516103f8919061263a565b60405180910390f35b61041b600480360381019061041691906126db565b61151b565b6040516104289190612736565b60405180910390f35b610439611532565b604051610446919061278a565b60405180910390f35b61046960048036038101906104649190612863565b611537565b005b610473611755565b6040516104809190612760565b60405180910390f35b6104a3600480360381019061049e9190612911565b61177b565b005b6104bf60048036038101906104ba91906129b3565b6119a3565b6040516104cc919061278a565b60405180910390f35b6104dd6119c8565b005b6001600c5414610524576040517f08c379a000000000000000000000000000000000000000000000000000000000815260040161051b90612a3f565b60405180910390fd5b6000600c81905550600085118061053b5750600084115b61057a576040517f08c379a000000000000000000000000000000000000000000000000000000000815260040161057190612ad1565b60405180910390fd5b600080610585610a84565b5091509150816dffffffffffffffffffffffffffff16871080156105b85750806dffffffffffffffffffffffffffff1686105b6105f7576040517f08c379a00000000000000000000000000000000000000000000000000000000081526004016105ee90612b63565b60405180910390fd5b8383604051610607929190612bc2565b60405180910390207f532fd6ea96cfb78bb46e09279a26828b8b493de1a2b8b1ee1face527978a15a560405160405180910390a26000806000600160009054906101000a900473ffffffffffffffffffffffffffffffffffffffff1690506000600260009054906101000a900473ffffffffffffffffffffffffffffffffffffffff1690508173ffffffffffffffffffffffffffffffffffffffff168973ffffffffffffffffffffffffffffffffffffffff16141580156106f457508073ffffffffffffffffffffffffffffffffffffffff168973ffffffffffffffffffffffffffffffffffffffff1614155b610733576040517f08c379a000000000000000000000000000000000000000000000000000000000815260040161072a90612c27565b60405180910390fd5b60008b111561074857610747828a8d611b99565b5b60008a111561075d5761075c818a8c611b99565b5b8173ffffffffffffffffffffffffffffffffffffffff166370a08231306040518263ffffffff1660e01b81526004016107969190612760565b602060405180830381865afa1580156107b3573d6000803e3d6000fd5b505050506040513d601f19601f820116820180604052508101906107d79190612c5c565b93508073ffffffffffffffffffffffffffffffffffffffff166370a08231306040518263ffffffff1660e01b81526004016108129190612760565b602060405180830381865afa15801561082f573d6000803e3d6000fd5b505050506040513d601f19601f820116820180604052508101906108539190612c5c565b92505050600089856dffffffffffffffffffffffffffff166108759190612cb8565b83116108825760006108aa565b89856dffffffffffffffffffffffffffff1661089e9190612cb8565b836108a99190612cb8565b5b9050600089856dffffffffffffffffffffffffffff166108ca9190612cb8565b83116108d75760006108ff565b89856dffffffffffffffffffffffffffff166108f39190612cb8565b836108fe9190612cb8565b5b905060008211806109105750600081115b61094f576040517f08c379a000000000000000000000000000000000000000000000000000000000815260040161094690612d5e565b60405180910390fd5b600060038361095e9190612d7e565b6103e88661096c9190612d7e565b6109769190612cb8565b905060006003836109879190612d7e565b6103e8866109959190612d7e565b61099f9190612cb8565b9050620f4240876dffffffffffffffffffffffffffff16896dffffffffffffffffffffffffffff166109d19190612d7e565b6109db9190612d7e565b81836109e79190612d7e565b1015610a28576040517f08c379a0000000000000000000000000000000000000000000000000000000008152600401610a1f90612e0c565b60405180910390fd5b5050610a3684848888611d23565b5050505050506001600c819055505050505050565b6040518060400160405280600e81526020017f45524320556e697377617020563200000000000000000000000000000000000081525081565b6000806000600860009054906101000a90046dffffffffffffffffffffffffffff1692506008600e9054906101000a90046dffffffffffffffffffffffffffff1691506008601c9054906101000a900463ffffffff169050909192565b6000610aee338484611f0d565b6001905092915050565b600160009054906101000a900473ffffffffffffffffffffffffffffffffffffffff1681565b60035481565b60006fffffffffffffffffffffffffffffffff600560008673ffffffffffffffffffffffffffffffffffffffff1673ffffffffffffffffffffffffffffffffffffffff16815260200190815260200160002060003373ffffffffffffffffffffffffffffffffffffffff1673ffffffffffffffffffffffffffffffffffffffff1681526020019081526020016000205414610cc25781600560008673ffffffffffffffffffffffffffffffffffffffff1673ffffffffffffffffffffffffffffffffffffffff16815260200190815260200160002060003373ffffffffffffffffffffffffffffffffffffffff1673ffffffffffffffffffffffffffffffffffffffff16815260200190815260200160002054610c419190612cb8565b600560008673ffffffffffffffffffffffffffffffffffffffff1673ffffffffffffffffffffffffffffffffffffffff16815260200190815260200160002060003373ffffffffffffffffffffffffffffffffffffffff1673ffffffffffffffffffffffffffffffffffffffff168152602001908152602001600020819055505b610ccd848484611f93565b600190509392505050565b7f6e71edae12b1b97f4d1f60370fef10105fa2faae0126114a169c64845d6126c960001b81565b601281565b60065481565b60095481565b600a5481565b60006001600c5414610d5d576040517f08c379a0000000000000000000000000000000000000000000000000000000008152600401610d5490612a3f565b60405180910390fd5b6000600c81905550600080610d70610a84565b50915091506000600160009054906101000a900473ffffffffffffffffffffffffffffffffffffffff1673ffffffffffffffffffffffffffffffffffffffff166370a08231306040518263ffffffff1660e01b8152600401610dd29190612760565b602060405180830381865afa158015610def573d6000803e3d6000fd5b505050506040513d601f19601f82011682018060405250810190610e139190612c5c565b90506000600260009054906101000a900473ffffffffffffffffffffffffffffffffffffffff1673ffffffffffffffffffffffffffffffffffffffff166370a08231306040518263ffffffff1660e01b8152600401610e729190612760565b602060405180830381865afa158015610e8f573d6000803e3d6000fd5b505050506040513d601f19601f82011682018060405250810190610eb39190612c5c565b90506000846dffffffffffffffffffffffffffff1683610ed39190612cb8565b90506000846dffffffffffffffffffffffffffff1683610ef39190612cb8565b90506000610f0187876120b4565b90506000600354905060008103610f45576001610f288486610f239190612d7e565b61220c565b610f329190612cb8565b9850610f4060006001612286565b610f9e565b610f9b886dffffffffffffffffffffffffffff168286610f659190612d7e565b610f6f9190612e5b565b886dffffffffffffffffffffffffffff168386610f8c9190612d7e565b610f969190612e5b565b61232c565b98505b60008911610fe1576040517f08c379a0000000000000000000000000000000000000000000000000000000008152600401610fd890612efe565b60405180910390fd5b610feb8a8a612286565b610ff786868a8a611d23565b8115611068576008600e9054906101000a90046dffffffffffffffffffffffffffff166dffffffffffffffffffffffffffff16600860009054906101000a90046dffffffffffffffffffffffffffff166dffffffffffffffffffffffffffff166110619190612d7e565b600b819055505b50505050505050506001600c81905550919050565b60046020528060005260406000206000915090505481565b600b5481565b60076020528060005260406000206000915090505481565b6000806001600c54146110fb576040517f08c379a00000000000000000000000000000000000000000000000000000000081526004016110f290612a3f565b60405180910390fd5b6000600c8190555060008061110e610a84565b50915091506000600160009054906101000a900473ffffffffffffffffffffffffffffffffffffffff1690506000600260009054906101000a900473ffffffffffffffffffffffffffffffffffffffff16905060008273ffffffffffffffffffffffffffffffffffffffff166370a08231306040518263ffffffff1660e01b815260040161119c9190612760565b602060405180830381865afa1580156111b9573d6000803e3d6000fd5b505050506040513d601f19601f820116820180604052508101906111dd9190612c5c565b905060008273ffffffffffffffffffffffffffffffffffffffff166370a08231306040518263ffffffff1660e01b815260040161121a9190612760565b602060405180830381865afa158015611237573d6000803e3d6000fd5b505050506040513d601f19601f8201168201806040525081019061125b9190612c5c565b90506000600460003073ffffffffffffffffffffffffffffffffffffffff1673ffffffffffffffffffffffffffffffffffffffff16815260200190815260200160002054905060006112ad88886120b4565b9050600060035490508085846112c39190612d7e565b6112cd9190612e5b565b9a508084846112dc9190612d7e565b6112e69190612e5b565b995060008b1180156112f8575060008a115b611337576040517f08c379a000000000000000000000000000000000000000000000000000000000815260040161132e90612f90565b60405180910390fd5b6113413084612345565b61134c878d8d611b99565b611357868d8c611b99565b8673ffffffffffffffffffffffffffffffffffffffff166370a08231306040518263ffffffff1660e01b81526004016113909190612760565b602060405180830381865afa1580156113ad573d6000803e3d6000fd5b505050506040513d601f19601f820116820180604052508101906113d19190612c5c565b94508573ffffffffffffffffffffffffffffffffffffffff166370a08231306040518263ffffffff1660e01b815260040161140c9190612760565b602060405180830381865afa158015611429573d6000803e3d6000fd5b505050506040513d601f19601f8201168201806040525081019061144d9190612c5c565b935061145b85858b8b611d23565b81156114cc576008600e9054906101000a90046dffffffffffffffffffffffffffff166dffffffffffffffffffffffffffff16600860009054906101000a90046dffffffffffffffffffffffffffff166dffffffffffffffffffffffffffff166114c59190612d7e565b600b819055505b5050505050505050506001600c81905550915091565b6040518060400160405280600a81526020017f45524320554e492d56320000000000000000000000000000000000000000000081525081565b6000611528338484611f93565b6001905092915050565b600181565b6001600c541461157c576040517f08c379a000000000000000000000000000000000000000000000000000000000815260040161157390612a3f565b60405180910390fd5b6000600c819055506000600160009054906101000a900473ffffffffffffffffffffffffffffffffffffffff1690506000600260009054906101000a900473ffffffffffffffffffffffffffffffffffffffff16905061168d8284600860009054906101000a90046dffffffffffffffffffffffffffff166dffffffffffffffffffffffffffff168573ffffffffffffffffffffffffffffffffffffffff166370a08231306040518263ffffffff1660e01b815260040161163d9190612760565b602060405180830381865afa15801561165a573d6000803e3d6000fd5b505050506040513d601f19601f8201168201806040525081019061167e9190612c5c565b6116889190612cb8565b611b99565b61174881846008600e9054906101000a90046dffffffffffffffffffffffffffff166dffffffffffffffffffffffffffff168473ffffffffffffffffffffffffffffffffffffffff166370a08231306040518263ffffffff1660e01b81526004016116f89190612760565b602060405180830381865afa158015611715573d6000803e3d6000fd5b505050506040513d601f19601f820116820180604052508101906117399190612c5c565b6117439190612cb8565b611b99565b50506001600c8190555050565b600260009054906101000a900473ffffffffffffffffffffffffffffffffffffffff1681565b428410156117be576040517f08c379a00000000000000000000000000000000000000000000000000000000081526004016117b590612ffc565b60405180910390fd5b60006006547f6e71edae12b1b97f4d1f60370fef10105fa2faae0126114a169c64845d6126c960001b898989600760008e73ffffffffffffffffffffffffffffffffffffffff1673ffffffffffffffffffffffffffffffffffffffff168152602001908152602001600020600081548092919061183a9061301c565b919050558a60405160200161185496959493929190613064565b6040516020818303038152906040528051906020012060405160200161187b92919061313d565b6040516020818303038152906040528051906020012090506000600182868686604051600081526020016040526040516118b89493929190613174565b6020604051602081039080840390855afa1580156118da573d6000803e3d6000fd5b505050602060405103519050600073ffffffffffffffffffffffffffffffffffffffff168173ffffffffffffffffffffffffffffffffffffffff161415801561194e57508873ffffffffffffffffffffffffffffffffffffffff168173ffffffffffffffffffffffffffffffffffffffff16145b61198d576040517f08c379a000000000000000000000000000000000000000000000000000000000815260040161198490613205565b60405180910390fd5b611998898989611f0d565b505050505050505050565b6005602052816000526040600020602052806000526040600020600091509150505481565b6001600c5414611a0d576040517f08c379a0000000000000000000000000000000000000000000000000000000008152600401611a0490612a3f565b60405180910390fd5b6000600c81905550611b8f600160009054906101000a900473ffffffffffffffffffffffffffffffffffffffff1673ffffffffffffffffffffffffffffffffffffffff166370a08231306040518263ffffffff1660e01b8152600401611a739190612760565b602060405180830381865afa158015611a90573d6000803e3d6000fd5b505050506040513d601f19601f82011682018060405250810190611ab49190612c5c565b600260009054906101000a900473ffffffffffffffffffffffffffffffffffffffff1673ffffffffffffffffffffffffffffffffffffffff166370a08231306040518263ffffffff1660e01b8152600401611b0f9190612760565b602060405180830381865afa158015611b2c573d6000803e3d6000fd5b505050506040513d601f19601f82011682018060405250810190611b509190612c5c565b600860009054906101000a90046dffffffffffffffffffffffffffff166008600e9054906101000a90046dffffffffffffffffffffffffffff16611d23565b6001600c81905550565b6000808473ffffffffffffffffffffffffffffffffffffffff166040518060400160405280601981526020017f7472616e7366657228616464726573732c75696e743235362900000000000000815250805190602001208585604051602401611c03929190613225565b604051602081830303815290604052907bffffffffffffffffffffffffffffffffffffffffffffffffffffffff19166020820180517bffffffffffffffffffffffffffffffffffffffffffffffffffffffff8381831617835250505050604051611c6d919061328a565b6000604051808303816000865af19150503d8060008114611caa576040519150601f19603f3d011682016040523d82523d6000602084013e611caf565b606091505b5091509150818015611cdd5750600081511480611cdc575080806020019051810190611cdb91906132cd565b5b5b611d1c576040517f08c379a0000000000000000000000000000000000000000000000000000000008152600401611d1390613346565b60405180910390fd5b5050505050565b600064010000000042611d369190613366565b905060006008601c9054906101000a900463ffffffff1682611d589190613397565b905060008163ffffffff16118015611d8157506000846dffffffffffffffffffffffffffff1614155b8015611d9e57506000836dffffffffffffffffffffffffffff1614155b15611e7a578063ffffffff16846dffffffffffffffffffffffffffff16611dc4856123eb565b611dce91906133f7565b7bffffffffffffffffffffffffffffffffffffffffffffffffffffffff16611df69190612d7e565b60096000828254611e079190613428565b925050819055508063ffffffff16836dffffffffffffffffffffffffffff16611e2f866123eb565b611e3991906133f7565b7bffffffffffffffffffffffffffffffffffffffffffffffffffffffff16611e619190612d7e565b600a6000828254611e729190613428565b925050819055505b85600860006101000a8154816dffffffffffffffffffffffffffff02191690836dffffffffffffffffffffffffffff160217905550846008600e6101000a8154816dffffffffffffffffffffffffffff02191690836dffffffffffffffffffffffffffff160217905550816008601c6101000a81548163ffffffff021916908363ffffffff160217905550505050505050565b80600560008573ffffffffffffffffffffffffffffffffffffffff1673ffffffffffffffffffffffffffffffffffffffff16815260200190815260200160002060008473ffffffffffffffffffffffffffffffffffffffff1673ffffffffffffffffffffffffffffffffffffffff16815260200190815260200160002081905550505050565b80600460008573ffffffffffffffffffffffffffffffffffffffff1673ffffffffffffffffffffffffffffffffffffffff16815260200190815260200160002054611fde9190612cb8565b600460008573ffffffffffffffffffffffffffffffffffffffff1673ffffffffffffffffffffffffffffffffffffffff1681526020019081526020016000208190555080600460008473ffffffffffffffffffffffffffffffffffffffff1673ffffffffffffffffffffffffffffffffffffffff1681526020019081526020016000205461206c9190612cb8565b600460008473ffffffffffffffffffffffffffffffffffffffff1673ffffffffffffffffffffffffffffffffffffffff16815260200190815260200160002081905550505050565b60008073ffffffffffffffffffffffffffffffffffffffff1660008054906101000a900473ffffffffffffffffffffffffffffffffffffffff1673ffffffffffffffffffffffffffffffffffffffff16141590506000600b54905081156121f357600081146121ee576000612153846dffffffffffffffffffffffffffff16866dffffffffffffffffffffffffffff1661214e9190612d7e565b61220c565b905060006121608361220c565b9050808211156121eb57600081836121789190612cb8565b6003546121859190612d7e565b90506000826005856121979190612d7e565b6121a19190613428565b9050600081836121b19190612e5b565b905060008111156121e7576121e660008054906101000a900473ffffffffffffffffffffffffffffffffffffffff1682612286565b5b5050505b50505b612205565b60008114612204576000600b819055505b5b5092915050565b60006003821115612273578190506000600160028461222b9190612e5b565b6122359190613428565b90505b8181101561226d5780915060028182856122529190612e5b565b61225c9190613428565b6122669190612e5b565b9050612238565b50612281565b6000821461228057600190505b5b919050565b806003546122949190613428565b60038190555080600460008473ffffffffffffffffffffffffffffffffffffffff1673ffffffffffffffffffffffffffffffffffffffff168152602001908152602001600020546122e59190613428565b600460008473ffffffffffffffffffffffffffffffffffffffff1673ffffffffffffffffffffffffffffffffffffffff168152602001908152602001600020819055505050565b600081831061233b578161233d565b825b905092915050565b80600460008473ffffffffffffffffffffffffffffffffffffffff1673ffffffffffffffffffffffffffffffffffffffff168152602001908152602001600020546123909190612cb8565b600460008473ffffffffffffffffffffffffffffffffffffffff1673ffffffffffffffffffffffffffffffffffffffff16815260200190815260200160002081905550806003546123e19190612cb8565b6003819055505050565b60006e010000000000000000000000000000826dffffffffffffffffffffffffffff16612418919061345c565b9050919050565b600080fd5b600080fd5b6000819050919050565b61243c81612429565b811461244757600080fd5b50565b60008135905061245981612433565b92915050565b600073ffffffffffffffffffffffffffffffffffffffff82169050919050565b600061248a8261245f565b9050919050565b61249a8161247f565b81146124a557600080fd5b50565b6000813590506124b781612491565b92915050565b600080fd5b600080fd5b600080fd5b60008083601f8401126124e2576124e16124bd565b5b8235905067ffffffffffffffff8111156124ff576124fe6124c2565b5b60208301915083600182028301111561251b5761251a6124c7565b5b9250929050565b60008060008060006080868803121561253e5761253d61241f565b5b600061254c8882890161244a565b955050602061255d8882890161244a565b945050604061256e888289016124a8565b935050606086013567ffffffffffffffff81111561258f5761258e612424565b5b61259b888289016124cc565b92509250509295509295909350565b600081519050919050565b600082825260208201905092915050565b60005b838110156125e45780820151818401526020810190506125c9565b60008484015250505050565b6000601f19601f8301169050919050565b600061260c826125aa565b61261681856125b5565b93506126268185602086016125c6565b61262f816125f0565b840191505092915050565b600060208201905081810360008301526126548184612601565b905092915050565b60006dffffffffffffffffffffffffffff82169050919050565b61267f8161265c565b82525050565b600063ffffffff82169050919050565b61269e81612685565b82525050565b60006060820190506126b96000830186612676565b6126c66020830185612676565b6126d36040830184612695565b949350505050565b600080604083850312156126f2576126f161241f565b5b6000612700858286016124a8565b92505060206127118582860161244a565b9150509250929050565b60008115159050919050565b6127308161271b565b82525050565b600060208201905061274b6000830184612727565b92915050565b61275a8161247f565b82525050565b60006020820190506127756000830184612751565b92915050565b61278481612429565b82525050565b600060208201905061279f600083018461277b565b92915050565b6000806000606084860312156127be576127bd61241f565b5b60006127cc868287016124a8565b93505060206127dd868287016124a8565b92505060406127ee8682870161244a565b9150509250925092565b6000819050919050565b61280b816127f8565b82525050565b60006020820190506128266000830184612802565b92915050565b600060ff82169050919050565b6128428161282c565b82525050565b600060208201905061285d6000830184612839565b92915050565b6000602082840312156128795761287861241f565b5b6000612887848285016124a8565b91505092915050565b60006040820190506128a5600083018561277b565b6128b2602083018461277b565b9392505050565b6128c28161282c565b81146128cd57600080fd5b50565b6000813590506128df816128b9565b92915050565b6128ee816127f8565b81146128f957600080fd5b50565b60008135905061290b816128e5565b92915050565b600080600080600080600060e0888a0312156129305761292f61241f565b5b600061293e8a828b016124a8565b975050602061294f8a828b016124a8565b96505060406129608a828b0161244a565b95505060606129718a828b0161244a565b94505060806129828a828b016128d0565b93505060a06129938a828b016128fc565b92505060c06129a48a828b016128fc565b91505092959891949750929550565b600080604083850312156129ca576129c961241f565b5b60006129d8858286016124a8565b92505060206129e9858286016124a8565b9150509250929050565b7f5061697255736474526f6e743a204c4f434b4544000000000000000000000000600082015250565b6000612a296014836125b5565b9150612a34826129f3565b602082019050919050565b60006020820190508181036000830152612a5881612a1c565b9050919050565b7f5061697255736474526f6e743a20494e53554646494349454e545f4f5554505560008201527f545f414d4f554e54000000000000000000000000000000000000000000000000602082015250565b6000612abb6028836125b5565b9150612ac682612a5f565b604082019050919050565b60006020820190508181036000830152612aea81612aae565b9050919050565b7f5061697255736474526f6e743a20494e53554646494349454e545f4c4951554960008201527f4449545900000000000000000000000000000000000000000000000000000000602082015250565b6000612b4d6024836125b5565b9150612b5882612af1565b604082019050919050565b60006020820190508181036000830152612b7c81612b40565b9050919050565b600081905092915050565b82818337600083830152505050565b6000612ba98385612b83565b9350612bb6838584612b8e565b82840190509392505050565b6000612bcf828486612b9d565b91508190509392505050565b7f5061697255736474526f6e743a20494e56414c49445f544f0000000000000000600082015250565b6000612c116018836125b5565b9150612c1c82612bdb565b602082019050919050565b60006020820190508181036000830152612c4081612c04565b9050919050565b600081519050612c5681612433565b92915050565b600060208284031215612c7257612c7161241f565b5b6000612c8084828501612c47565b91505092915050565b7f4e487b7100000000000000000000000000000000000000000000000000000000600052601160045260246000fd5b6000612cc382612429565b9150612cce83612429565b9250828203905081811115612ce657612ce5612c89565b5b92915050565b7f5061697255736474526f6e743a20494e53554646494349454e545f494e50555460008201527f5f414d4f554e5400000000000000000000000000000000000000000000000000602082015250565b6000612d486027836125b5565b9150612d5382612cec565b604082019050919050565b60006020820190508181036000830152612d7781612d3b565b9050919050565b6000612d8982612429565b9150612d9483612429565b9250828202612da281612429565b91508282048414831517612db957612db8612c89565b5b5092915050565b7f5061697255736474526f6e743a204b0000000000000000000000000000000000600082015250565b6000612df6600f836125b5565b9150612e0182612dc0565b602082019050919050565b60006020820190508181036000830152612e2581612de9565b9050919050565b7f4e487b7100000000000000000000000000000000000000000000000000000000600052601260045260246000fd5b6000612e6682612429565b9150612e7183612429565b925082612e8157612e80612e2c565b5b828204905092915050565b7f5061697255736474526f6e743a20494e53554646494349454e545f4c4951554960008201527f444954595f4d494e544544000000000000000000000000000000000000000000602082015250565b6000612ee8602b836125b5565b9150612ef382612e8c565b604082019050919050565b60006020820190508181036000830152612f1781612edb565b9050919050565b7f5061697255736474526f6e743a20494e53554646494349454e545f4c4951554960008201527f444954595f4255524e4544000000000000000000000000000000000000000000602082015250565b6000612f7a602b836125b5565b9150612f8582612f1e565b604082019050919050565b60006020820190508181036000830152612fa981612f6d565b9050919050565b7f556e697377617056323a20455850495245440000000000000000000000000000600082015250565b6000612fe66012836125b5565b9150612ff182612fb0565b602082019050919050565b6000602082019050818103600083015261301581612fd9565b9050919050565b600061302782612429565b91507fffffffffffffffffffffffffffffffffffffffffffffffffffffffffffffffff820361305957613058612c89565b5b600182019050919050565b600060c0820190506130796000830189612802565b6130866020830188612751565b6130936040830187612751565b6130a0606083018661277b565b6130ad608083018561277b565b6130ba60a083018461277b565b979650505050505050565b600081905092915050565b7f1901000000000000000000000000000000000000000000000000000000000000600082015250565b60006131066002836130c5565b9150613111826130d0565b600282019050919050565b6000819050919050565b613137613132826127f8565b61311c565b82525050565b6000613148826130f9565b91506131548285613126565b6020820191506131648284613126565b6020820191508190509392505050565b60006080820190506131896000830187612802565b6131966020830186612839565b6131a36040830185612802565b6131b06060830184612802565b95945050505050565b7f556e697377617056323a20494e56414c49445f5349474e415455524500000000600082015250565b60006131ef601c836125b5565b91506131fa826131b9565b602082019050919050565b6000602082019050818103600083015261321e816131e2565b9050919050565b600060408201905061323a6000830185612751565b613247602083018461277b565b9392505050565b600081519050919050565b60006132648261324e565b61326e8185612b83565b935061327e8185602086016125c6565b80840191505092915050565b60006132968284613259565b915081905092915050565b6132aa8161271b565b81146132b557600080fd5b50565b6000815190506132c7816132a1565b92915050565b6000602082840312156132e3576132e261241f565b5b60006132f1848285016132b8565b91505092915050565b7f5061697255736474526f6e743a205452414e534645525f4641494c4544000000600082015250565b6000613330601d836125b5565b915061333b826132fa565b602082019050919050565b6000602082019050818103600083015261335f81613323565b9050919050565b600061337182612429565b915061337c83612429565b92508261338c5761338b612e2c565b5b828206905092915050565b60006133a282612685565b91506133ad83612685565b9250828203905063ffffffff8111156133c9576133c8612c89565b5b92915050565b60007bffffffffffffffffffffffffffffffffffffffffffffffffffffffff82169050919050565b6000613402826133cf565b915061340d836133cf565b92508261341d5761341c612e2c565b5b828204905092915050565b600061343382612429565b915061343e83612429565b925082820190508082111561345657613455612c89565b5b92915050565b6000613467826133cf565b9150613472836133cf565b9250828202613480816133cf565b9150828204841483151761349757613496612c89565b5b509291505056fea26469706673582212200e20a4e011b6f81fd4f1054e3e5078275b0bb44ac03605cfd2528e3c23d91b0f64736f6c63430008120033",
			"opcodes": "PUSH1 0x80 PUSH1 0x40 MSTORE PUSH20 0x5B38DA6A701C568545DCFCB03FCB875F56BEDDC4 PUSH1 0x0 DUP1 PUSH2 0x100 EXP DUP2 SLOAD DUP2 PUSH20 0xFFFFFFFFFFFFFFFFFFFFFFFFFFFFFFFFFFFFFFFF MUL NOT AND SWAP1 DUP4 PUSH20 0xFFFFFFFFFFFFFFFFFFFFFFFFFFFFFFFFFFFFFFFF AND MUL OR SWAP1 SSTORE POP PUSH20 0xD0DA387609ADC13779BADAF1315A4904CD40976E PUSH1 0x1 PUSH1 0x0 PUSH2 0x100 EXP DUP2 SLOAD DUP2 PUSH20 0xFFFFFFFFFFFFFFFFFFFFFFFFFFFFFFFFFFFFFFFF MUL NOT AND SWAP1 DUP4 PUSH20 0xFFFFFFFFFFFFFFFFFFFFFFFFFFFFFFFFFFFFFFFF AND MUL OR SWAP1 SSTORE POP PUSH20 0xD1F9C3397EA04D3DE7F002CB9E63CB49D0DEAA36 PUSH1 0x2 PUSH1 0x0 PUSH2 0x100 EXP DUP2 SLOAD DUP2 PUSH20 0xFFFFFFFFFFFFFFFFFFFFFFFFFFFFFFFFFFFFFFFF MUL NOT AND SWAP1 DUP4 PUSH20 0xFFFFFFFFFFFFFFFFFFFFFFFFFFFFFFFFFFFFFFFF AND MUL OR SWAP1 SSTORE POP PUSH1 0x1 PUSH1 0xC SSTORE CALLVALUE DUP1 ISZERO PUSH3 0x114 JUMPI PUSH1 0x0 DUP1 REVERT JUMPDEST POP PUSH1 0x0 CHAINID SWAP1 POP PUSH32 0x8B73C3C69BB8FE3D512ECC4CF759CC79239F7B179B0FFACAA9A75D522B39400F PUSH1 0x40 MLOAD DUP1 PUSH1 0x40 ADD PUSH1 0x40 MSTORE DUP1 PUSH1 0xE DUP2 MSTORE PUSH1 0x20 ADD PUSH32 0x45524320556E6973776170205632000000000000000000000000000000000000 DUP2 MSTORE POP DUP1 MLOAD SWAP1 PUSH1 0x20 ADD KECCAK256 PUSH1 0x40 MLOAD DUP1 PUSH1 0x40 ADD PUSH1 0x40 MSTORE DUP1 PUSH1 0x1 DUP2 MSTORE PUSH1 0x20 ADD PUSH32 0x3100000000000000000000000000000000000000000000000000000000000000 DUP2 MSTORE POP DUP1 MLOAD SWAP1 PUSH1 0x20 ADD KECCAK256 DUP4 ADDRESS PUSH1 0x40 MLOAD PUSH1 0x20 ADD PUSH3 0x1CD SWAP6 SWAP5 SWAP4 SWAP3 SWAP2 SWAP1 PUSH3 0x2AD JUMP JUMPDEST PUSH1 0x40 MLOAD PUSH1 0x20 DUP2 DUP4 SUB SUB DUP2 MSTORE SWAP1 PUSH1 0x40 MSTORE DUP1 MLOAD SWAP1 PUSH1 0x20 ADD KECCAK256 PUSH1 0x6 DUP2 SWAP1 SSTORE POP PUSH1 0x40 MLOAD PUSH3 0x1F7 SWAP1 PUSH3 0x365 JUMP JUMPDEST PUSH1 0x40 MLOAD DUP1 SWAP2 SUB SWAP1 KECCAK256 PUSH32 0xCF34EF537AC33EE1AC626CA1587A0A7E8E51561E5514F8CB36AFA1C5102B3BAB PUSH1 0x40 MLOAD PUSH1 0x40 MLOAD DUP1 SWAP2 SUB SWAP1 LOG2 POP PUSH3 0x37C JUMP JUMPDEST PUSH1 0x0 DUP2 SWAP1 POP SWAP2 SWAP1 POP JUMP JUMPDEST PUSH3 0x247 DUP2 PUSH3 0x232 JUMP JUMPDEST DUP3 MSTORE POP POP JUMP JUMPDEST PUSH1 0x0 DUP2 SWAP1 POP SWAP2 SWAP1 POP JUMP JUMPDEST PUSH3 0x262 DUP2 PUSH3 0x24D JUMP JUMPDEST DUP3 MSTORE POP POP JUMP JUMPDEST PUSH1 0x0 PUSH20 0xFFFFFFFFFFFFFFFFFFFFFFFFFFFFFFFFFFFFFFFF DUP3 AND SWAP1 POP SWAP2 SWAP1 POP JUMP JUMPDEST PUSH1 0x0 PUSH3 0x295 DUP3 PUSH3 0x268 JUMP JUMPDEST SWAP1 POP SWAP2 SWAP1 POP JUMP JUMPDEST PUSH3 0x2A7 DUP2 PUSH3 0x288 JUMP JUMPDEST DUP3 MSTORE POP POP JUMP JUMPDEST PUSH1 0x0 PUSH1 0xA0 DUP3 ADD SWAP1 POP PUSH3 0x2C4 PUSH1 0x0 DUP4 ADD DUP9 PUSH3 0x23C JUMP JUMPDEST PUSH3 0x2D3 PUSH1 0x20 DUP4 ADD DUP8 PUSH3 0x23C JUMP JUMPDEST PUSH3 0x2E2 PUSH1 0x40 DUP4 ADD DUP7 PUSH3 0x23C JUMP JUMPDEST PUSH3 0x2F1 PUSH1 0x60 DUP4 ADD DUP6 PUSH3 0x257 JUMP JUMPDEST PUSH3 0x300 PUSH1 0x80 DUP4 ADD DUP5 PUSH3 0x29C JUMP JUMPDEST SWAP7 SWAP6 POP POP POP POP POP POP JUMP JUMPDEST PUSH1 0x0 DUP2 SWAP1 POP SWAP3 SWAP2 POP POP JUMP JUMPDEST PUSH32 0x5061697220555344542D524F4E5420636F6E7472616374206372656174656400 PUSH1 0x0 DUP3 ADD MSTORE POP JUMP JUMPDEST PUSH1 0x0 PUSH3 0x34D PUSH1 0x1F DUP4 PUSH3 0x30A JUMP JUMPDEST SWAP2 POP PUSH3 0x35A DUP3 PUSH3 0x315 JUMP JUMPDEST PUSH1 0x1F DUP3 ADD SWAP1 POP SWAP2 SWAP1 POP JUMP JUMPDEST PUSH1 0x0 PUSH3 0x372 DUP3 PUSH3 0x33E JUMP JUMPDEST SWAP2 POP DUP2 SWAP1 POP SWAP2 SWAP1 POP JUMP JUMPDEST PUSH2 0x34D4 DUP1 PUSH3 0x38C PUSH1 0x0 CODECOPY PUSH1 0x0 RETURN INVALID PUSH1 0x80 PUSH1 0x40 MSTORE CALLVALUE DUP1 ISZERO PUSH2 0x10 JUMPI PUSH1 0x0 DUP1 REVERT JUMPDEST POP PUSH1 0x4 CALLDATASIZE LT PUSH2 0x173 JUMPI PUSH1 0x0 CALLDATALOAD PUSH1 0xE0 SHR DUP1 PUSH4 0x6A627842 GT PUSH2 0xDE JUMPI DUP1 PUSH4 0xA9059CBB GT PUSH2 0x97 JUMPI DUP1 PUSH4 0xD21220A7 GT PUSH2 0x71 JUMPI DUP1 PUSH4 0xD21220A7 EQ PUSH2 0x46B JUMPI DUP1 PUSH4 0xD505ACCF EQ PUSH2 0x489 JUMPI DUP1 PUSH4 0xDD62ED3E EQ PUSH2 0x4A5 JUMPI DUP1 PUSH4 0xFFF6CAE9 EQ PUSH2 0x4D5 JUMPI PUSH2 0x173 JUMP JUMPDEST DUP1 PUSH4 0xA9059CBB EQ PUSH2 0x401 JUMPI DUP1 PUSH4 0xBA9A7A56 EQ PUSH2 0x431 JUMPI DUP1 PUSH4 0xBC25CF77 EQ PUSH2 0x44F JUMPI PUSH2 0x173 JUMP JUMPDEST DUP1 PUSH4 0x6A627842 EQ PUSH2 0x304 JUMPI DUP1 PUSH4 0x70A08231 EQ PUSH2 0x334 JUMPI DUP1 PUSH4 0x7464FC3D EQ PUSH2 0x364 JUMPI DUP1 PUSH4 0x7ECEBE00 EQ PUSH2 0x382 JUMPI DUP1 PUSH4 0x89AFCB44 EQ PUSH2 0x3B2 JUMPI DUP1 PUSH4 0x95D89B41 EQ PUSH2 0x3E3 JUMPI PUSH2 0x173 JUMP JUMPDEST DUP1 PUSH4 0x23B872DD GT PUSH2 0x130 JUMPI DUP1 PUSH4 0x23B872DD EQ PUSH2 0x23E JUMPI DUP1 PUSH4 0x30ADF81F EQ PUSH2 0x26E JUMPI DUP1 PUSH4 0x313CE567 EQ PUSH2 0x28C JUMPI DUP1 PUSH4 0x3644E515 EQ PUSH2 0x2AA JUMPI DUP1 PUSH4 0x5909C0D5 EQ PUSH2 0x2C8 JUMPI DUP1 PUSH4 0x5A3D5493 EQ PUSH2 0x2E6 JUMPI PUSH2 0x173 JUMP JUMPDEST DUP1 PUSH4 0x22C0D9F EQ PUSH2 0x178 JUMPI DUP1 PUSH4 0x6FDDE03 EQ PUSH2 0x194 JUMPI DUP1 PUSH4 0x902F1AC EQ PUSH2 0x1B2 JUMPI DUP1 PUSH4 0x95EA7B3 EQ PUSH2 0x1D2 JUMPI DUP1 PUSH4 0xDFE1681 EQ PUSH2 0x202 JUMPI DUP1 PUSH4 0x18160DDD EQ PUSH2 0x220 JUMPI JUMPDEST PUSH1 0x0 DUP1 REVERT JUMPDEST PUSH2 0x192 PUSH1 0x4 DUP1 CALLDATASIZE SUB DUP2 ADD SWAP1 PUSH2 0x18D SWAP2 SWAP1 PUSH2 0x2522 JUMP JUMPDEST PUSH2 0x4DF JUMP JUMPDEST STOP JUMPDEST PUSH2 0x19C PUSH2 0xA4B JUMP JUMPDEST PUSH1 0x40 MLOAD PUSH2 0x1A9 SWAP2 SWAP1 PUSH2 0x263A JUMP JUMPDEST PUSH1 0x40 MLOAD DUP1 SWAP2 SUB SWAP1 RETURN JUMPDEST PUSH2 0x1BA PUSH2 0xA84 JUMP JUMPDEST PUSH1 0x40 MLOAD PUSH2 0x1C9 SWAP4 SWAP3 SWAP2 SWAP1 PUSH2 0x26A4 JUMP JUMPDEST PUSH1 0x40 MLOAD DUP1 SWAP2 SUB SWAP1 RETURN JUMPDEST PUSH2 0x1EC PUSH1 0x4 DUP1 CALLDATASIZE SUB DUP2 ADD SWAP1 PUSH2 0x1E7 SWAP2 SWAP1 PUSH2 0x26DB JUMP JUMPDEST PUSH2 0xAE1 JUMP JUMPDEST PUSH1 0x40 MLOAD PUSH2 0x1F9 SWAP2 SWAP1 PUSH2 0x2736 JUMP JUMPDEST PUSH1 0x40 MLOAD DUP1 SWAP2 SUB SWAP1 RETURN JUMPDEST PUSH2 0x20A PUSH2 0xAF8 JUMP JUMPDEST PUSH1 0x40 MLOAD PUSH2 0x217 SWAP2 SWAP1 PUSH2 0x2760 JUMP JUMPDEST PUSH1 0x40 MLOAD DUP1 SWAP2 SUB SWAP1 RETURN JUMPDEST PUSH2 0x228 PUSH2 0xB1E JUMP JUMPDEST PUSH1 0x40 MLOAD PUSH2 0x235 SWAP2 SWAP1 PUSH2 0x278A JUMP JUMPDEST PUSH1 0x40 MLOAD DUP1 SWAP2 SUB SWAP1 RETURN JUMPDEST PUSH2 0x258 PUSH1 0x4 DUP1 CALLDATASIZE SUB DUP2 ADD SWAP1 PUSH2 0x253 SWAP2 SWAP1 PUSH2 0x27A5 JUMP JUMPDEST PUSH2 0xB24 JUMP JUMPDEST PUSH1 0x40 MLOAD PUSH2 0x265 SWAP2 SWAP1 PUSH2 0x2736 JUMP JUMPDEST PUSH1 0x40 MLOAD DUP1 SWAP2 SUB SWAP1 RETURN JUMPDEST PUSH2 0x276 PUSH2 0xCD8 JUMP JUMPDEST PUSH1 0x40 MLOAD PUSH2 0x283 SWAP2 SWAP1 PUSH2 0x2811 JUMP JUMPDEST PUSH1 0x40 MLOAD DUP1 SWAP2 SUB SWAP1 RETURN JUMPDEST PUSH2 0x294 PUSH2 0xCFF JUMP JUMPDEST PUSH1 0x40 MLOAD PUSH2 0x2A1 SWAP2 SWAP1 PUSH2 0x2848 JUMP JUMPDEST PUSH1 0x40 MLOAD DUP1 SWAP2 SUB SWAP1 RETURN JUMPDEST PUSH2 0x2B2 PUSH2 0xD04 JUMP JUMPDEST PUSH1 0x40 MLOAD PUSH2 0x2BF SWAP2 SWAP1 PUSH2 0x2811 JUMP JUMPDEST PUSH1 0x40 MLOAD DUP1 SWAP2 SUB SWAP1 RETURN JUMPDEST PUSH2 0x2D0 PUSH2 0xD0A JUMP JUMPDEST PUSH1 0x40 MLOAD PUSH2 0x2DD SWAP2 SWAP1 PUSH2 0x278A JUMP JUMPDEST PUSH1 0x40 MLOAD DUP1 SWAP2 SUB SWAP1 RETURN JUMPDEST PUSH2 0x2EE PUSH2 0xD10 JUMP JUMPDEST PUSH1 0x40 MLOAD PUSH2 0x2FB SWAP2 SWAP1 PUSH2 0x278A JUMP JUMPDEST PUSH1 0x40 MLOAD DUP1 SWAP2 SUB SWAP1 RETURN JUMPDEST PUSH2 0x31E PUSH1 0x4 DUP1 CALLDATASIZE SUB DUP2 ADD SWAP1 PUSH2 0x319 SWAP2 SWAP1 PUSH2 0x2863 JUMP JUMPDEST PUSH2 0xD16 JUMP JUMPDEST PUSH1 0x40 MLOAD PUSH2 0x32B SWAP2 SWAP1 PUSH2 0x278A JUMP JUMPDEST PUSH1 0x40 MLOAD DUP1 SWAP2 SUB SWAP1 RETURN JUMPDEST PUSH2 0x34E PUSH1 0x4 DUP1 CALLDATASIZE SUB DUP2 ADD SWAP1 PUSH2 0x349 SWAP2 SWAP1 PUSH2 0x2863 JUMP JUMPDEST PUSH2 0x107D JUMP JUMPDEST PUSH1 0x40 MLOAD PUSH2 0x35B SWAP2 SWAP1 PUSH2 0x278A JUMP JUMPDEST PUSH1 0x40 MLOAD DUP1 SWAP2 SUB SWAP1 RETURN JUMPDEST PUSH2 0x36C PUSH2 0x1095 JUMP JUMPDEST PUSH1 0x40 MLOAD PUSH2 0x379 SWAP2 SWAP1 PUSH2 0x278A JUMP JUMPDEST PUSH1 0x40 MLOAD DUP1 SWAP2 SUB SWAP1 RETURN JUMPDEST PUSH2 0x39C PUSH1 0x4 DUP1 CALLDATASIZE SUB DUP2 ADD SWAP1 PUSH2 0x397 SWAP2 SWAP1 PUSH2 0x2863 JUMP JUMPDEST PUSH2 0x109B JUMP JUMPDEST PUSH1 0x40 MLOAD PUSH2 0x3A9 SWAP2 SWAP1 PUSH2 0x278A JUMP JUMPDEST PUSH1 0x40 MLOAD DUP1 SWAP2 SUB SWAP1 RETURN JUMPDEST PUSH2 0x3CC PUSH1 0x4 DUP1 CALLDATASIZE SUB DUP2 ADD SWAP1 PUSH2 0x3C7 SWAP2 SWAP1 PUSH2 0x2863 JUMP JUMPDEST PUSH2 0x10B3 JUMP JUMPDEST PUSH1 0x40 MLOAD PUSH2 0x3DA SWAP3 SWAP2 SWAP1 PUSH2 0x2890 JUMP JUMPDEST PUSH1 0x40 MLOAD DUP1 SWAP2 SUB SWAP1 RETURN JUMPDEST PUSH2 0x3EB PUSH2 0x14E2 JUMP JUMPDEST PUSH1 0x40 MLOAD PUSH2 0x3F8 SWAP2 SWAP1 PUSH2 0x263A JUMP JUMPDEST PUSH1 0x40 MLOAD DUP1 SWAP2 SUB SWAP1 RETURN JUMPDEST PUSH2 0x41B PUSH1 0x4 DUP1 CALLDATASIZE SUB DUP2 ADD SWAP1 PUSH2 0x416 SWAP2 SWAP1 PUSH2 0x26DB JUMP JUMPDEST PUSH2 0x151B JUMP JUMPDEST PUSH1 0x40 MLOAD PUSH2 0x428 SWAP2 SWAP1 PUSH2 0x2736 JUMP JUMPDEST PUSH1 0x40 MLOAD DUP1 SWAP2 SUB SWAP1 RETURN JUMPDEST PUSH2 0x439 PUSH2 0x1532 JUMP JUMPDEST PUSH1 0x40 MLOAD PUSH2 0x446 SWAP2 SWAP1 PUSH2 0x278A JUMP JUMPDEST PUSH1 0x40 MLOAD DUP1 SWAP2 SUB SWAP1 RETURN JUMPDEST PUSH2 0x469 PUSH1 0x4 DUP1 CALLDATASIZE SUB DUP2 ADD SWAP1 PUSH2 0x464 SWAP2 SWAP1 PUSH2 0x2863 JUMP JUMPDEST PUSH2 0x1537 JUMP JUMPDEST STOP JUMPDEST PUSH2 0x473 PUSH2 0x1755 JUMP JUMPDEST PUSH1 0x40 MLOAD PUSH2 0x480 SWAP2 SWAP1 PUSH2 0x2760 JUMP JUMPDEST PUSH1 0x40 MLOAD DUP1 SWAP2 SUB SWAP1 RETURN JUMPDEST PUSH2 0x4A3 PUSH1 0x4 DUP1 CALLDATASIZE SUB DUP2 ADD SWAP1 PUSH2 0x49E SWAP2 SWAP1 PUSH2 0x2911 JUMP JUMPDEST PUSH2 0x177B JUMP JUMPDEST STOP JUMPDEST PUSH2 0x4BF PUSH1 0x4 DUP1 CALLDATASIZE SUB DUP2 ADD SWAP1 PUSH2 0x4BA SWAP2 SWAP1 PUSH2 0x29B3 JUMP JUMPDEST PUSH2 0x19A3 JUMP JUMPDEST PUSH1 0x40 MLOAD PUSH2 0x4CC SWAP2 SWAP1 PUSH2 0x278A JUMP JUMPDEST PUSH1 0x40 MLOAD DUP1 SWAP2 SUB SWAP1 RETURN JUMPDEST PUSH2 0x4DD PUSH2 0x19C8 JUMP JUMPDEST STOP JUMPDEST PUSH1 0x1 PUSH1 0xC SLOAD EQ PUSH2 0x524 JUMPI PUSH1 0x40 MLOAD PUSH32 0x8C379A000000000000000000000000000000000000000000000000000000000 DUP2 MSTORE PUSH1 0x4 ADD PUSH2 0x51B SWAP1 PUSH2 0x2A3F JUMP JUMPDEST PUSH1 0x40 MLOAD DUP1 SWAP2 SUB SWAP1 REVERT JUMPDEST PUSH1 0x0 PUSH1 0xC DUP2 SWAP1 SSTORE POP PUSH1 0x0 DUP6 GT DUP1 PUSH2 0x53B JUMPI POP PUSH1 0x0 DUP5 GT JUMPDEST PUSH2 0x57A JUMPI PUSH1 0x40 MLOAD PUSH32 0x8C379A000000000000000000000000000000000000000000000000000000000 DUP2 MSTORE PUSH1 0x4 ADD PUSH2 0x571 SWAP1 PUSH2 0x2AD1 JUMP JUMPDEST PUSH1 0x40 MLOAD DUP1 SWAP2 SUB SWAP1 REVERT JUMPDEST PUSH1 0x0 DUP1 PUSH2 0x585 PUSH2 0xA84 JUMP JUMPDEST POP SWAP2 POP SWAP2 POP DUP2 PUSH14 0xFFFFFFFFFFFFFFFFFFFFFFFFFFFF AND DUP8 LT DUP1 ISZERO PUSH2 0x5B8 JUMPI POP DUP1 PUSH14 0xFFFFFFFFFFFFFFFFFFFFFFFFFFFF AND DUP7 LT JUMPDEST PUSH2 0x5F7 JUMPI PUSH1 0x40 MLOAD PUSH32 0x8C379A000000000000000000000000000000000000000000000000000000000 DUP2 MSTORE PUSH1 0x4 ADD PUSH2 0x5EE SWAP1 PUSH2 0x2B63 JUMP JUMPDEST PUSH1 0x40 MLOAD DUP1 SWAP2 SUB SWAP1 REVERT JUMPDEST DUP4 DUP4 PUSH1 0x40 MLOAD PUSH2 0x607 SWAP3 SWAP2 SWAP1 PUSH2 0x2BC2 JUMP JUMPDEST PUSH1 0x40 MLOAD DUP1 SWAP2 SUB SWAP1 KECCAK256 PUSH32 0x532FD6EA96CFB78BB46E09279A26828B8B493DE1A2B8B1EE1FACE527978A15A5 PUSH1 0x40 MLOAD PUSH1 0x40 MLOAD DUP1 SWAP2 SUB SWAP1 LOG2 PUSH1 0x0 DUP1 PUSH1 0x0 PUSH1 0x1 PUSH1 0x0 SWAP1 SLOAD SWAP1 PUSH2 0x100 EXP SWAP1 DIV PUSH20 0xFFFFFFFFFFFFFFFFFFFFFFFFFFFFFFFFFFFFFFFF AND SWAP1 POP PUSH1 0x0 PUSH1 0x2 PUSH1 0x0 SWAP1 SLOAD SWAP1 PUSH2 0x100 EXP SWAP1 DIV PUSH20 0xFFFFFFFFFFFFFFFFFFFFFFFFFFFFFFFFFFFFFFFF AND SWAP1 POP DUP2 PUSH20 0xFFFFFFFFFFFFFFFFFFFFFFFFFFFFFFFFFFFFFFFF AND DUP10 PUSH20 0xFFFFFFFFFFFFFFFFFFFFFFFFFFFFFFFFFFFFFFFF AND EQ ISZERO DUP1 ISZERO PUSH2 0x6F4 JUMPI POP DUP1 PUSH20 0xFFFFFFFFFFFFFFFFFFFFFFFFFFFFFFFFFFFFFFFF AND DUP10 PUSH20 0xFFFFFFFFFFFFFFFFFFFFFFFFFFFFFFFFFFFFFFFF AND EQ ISZERO JUMPDEST PUSH2 0x733 JUMPI PUSH1 0x40 MLOAD PUSH32 0x8C379A000000000000000000000000000000000000000000000000000000000 DUP2 MSTORE PUSH1 0x4 ADD PUSH2 0x72A SWAP1 PUSH2 0x2C27 JUMP JUMPDEST PUSH1 0x40 MLOAD DUP1 SWAP2 SUB SWAP1 REVERT JUMPDEST PUSH1 0x0 DUP12 GT ISZERO PUSH2 0x748 JUMPI PUSH2 0x747 DUP3 DUP11 DUP14 PUSH2 0x1B99 JUMP JUMPDEST JUMPDEST PUSH1 0x0 DUP11 GT ISZERO PUSH2 0x75D JUMPI PUSH2 0x75C DUP2 DUP11 DUP13 PUSH2 0x1B99 JUMP JUMPDEST JUMPDEST DUP2 PUSH20 0xFFFFFFFFFFFFFFFFFFFFFFFFFFFFFFFFFFFFFFFF AND PUSH4 0x70A08231 ADDRESS PUSH1 0x40 MLOAD DUP3 PUSH4 0xFFFFFFFF AND PUSH1 0xE0 SHL DUP2 MSTORE PUSH1 0x4 ADD PUSH2 0x796 SWAP2 SWAP1 PUSH2 0x2760 JUMP JUMPDEST PUSH1 0x20 PUSH1 0x40 MLOAD DUP1 DUP4 SUB DUP2 DUP7 GAS STATICCALL ISZERO DUP1 ISZERO PUSH2 0x7B3 JUMPI RETURNDATASIZE PUSH1 0x0 DUP1 RETURNDATACOPY RETURNDATASIZE PUSH1 0x0 REVERT JUMPDEST POP POP POP POP PUSH1 0x40 MLOAD RETURNDATASIZE PUSH1 0x1F NOT PUSH1 0x1F DUP3 ADD AND DUP3 ADD DUP1 PUSH1 0x40 MSTORE POP DUP2 ADD SWAP1 PUSH2 0x7D7 SWAP2 SWAP1 PUSH2 0x2C5C JUMP JUMPDEST SWAP4 POP DUP1 PUSH20 0xFFFFFFFFFFFFFFFFFFFFFFFFFFFFFFFFFFFFFFFF AND PUSH4 0x70A08231 ADDRESS PUSH1 0x40 MLOAD DUP3 PUSH4 0xFFFFFFFF AND PUSH1 0xE0 SHL DUP2 MSTORE PUSH1 0x4 ADD PUSH2 0x812 SWAP2 SWAP1 PUSH2 0x2760 JUMP JUMPDEST PUSH1 0x20 PUSH1 0x40 MLOAD DUP1 DUP4 SUB DUP2 DUP7 GAS STATICCALL ISZERO DUP1 ISZERO PUSH2 0x82F JUMPI RETURNDATASIZE PUSH1 0x0 DUP1 RETURNDATACOPY RETURNDATASIZE PUSH1 0x0 REVERT JUMPDEST POP POP POP POP PUSH1 0x40 MLOAD RETURNDATASIZE PUSH1 0x1F NOT PUSH1 0x1F DUP3 ADD AND DUP3 ADD DUP1 PUSH1 0x40 MSTORE POP DUP2 ADD SWAP1 PUSH2 0x853 SWAP2 SWAP1 PUSH2 0x2C5C JUMP JUMPDEST SWAP3 POP POP POP PUSH1 0x0 DUP10 DUP6 PUSH14 0xFFFFFFFFFFFFFFFFFFFFFFFFFFFF AND PUSH2 0x875 SWAP2 SWAP1 PUSH2 0x2CB8 JUMP JUMPDEST DUP4 GT PUSH2 0x882 JUMPI PUSH1 0x0 PUSH2 0x8AA JUMP JUMPDEST DUP10 DUP6 PUSH14 0xFFFFFFFFFFFFFFFFFFFFFFFFFFFF AND PUSH2 0x89E SWAP2 SWAP1 PUSH2 0x2CB8 JUMP JUMPDEST DUP4 PUSH2 0x8A9 SWAP2 SWAP1 PUSH2 0x2CB8 JUMP JUMPDEST JUMPDEST SWAP1 POP PUSH1 0x0 DUP10 DUP6 PUSH14 0xFFFFFFFFFFFFFFFFFFFFFFFFFFFF AND PUSH2 0x8CA SWAP2 SWAP1 PUSH2 0x2CB8 JUMP JUMPDEST DUP4 GT PUSH2 0x8D7 JUMPI PUSH1 0x0 PUSH2 0x8FF JUMP JUMPDEST DUP10 DUP6 PUSH14 0xFFFFFFFFFFFFFFFFFFFFFFFFFFFF AND PUSH2 0x8F3 SWAP2 SWAP1 PUSH2 0x2CB8 JUMP JUMPDEST DUP4 PUSH2 0x8FE SWAP2 SWAP1 PUSH2 0x2CB8 JUMP JUMPDEST JUMPDEST SWAP1 POP PUSH1 0x0 DUP3 GT DUP1 PUSH2 0x910 JUMPI POP PUSH1 0x0 DUP2 GT JUMPDEST PUSH2 0x94F JUMPI PUSH1 0x40 MLOAD PUSH32 0x8C379A000000000000000000000000000000000000000000000000000000000 DUP2 MSTORE PUSH1 0x4 ADD PUSH2 0x946 SWAP1 PUSH2 0x2D5E JUMP JUMPDEST PUSH1 0x40 MLOAD DUP1 SWAP2 SUB SWAP1 REVERT JUMPDEST PUSH1 0x0 PUSH1 0x3 DUP4 PUSH2 0x95E SWAP2 SWAP1 PUSH2 0x2D7E JUMP JUMPDEST PUSH2 0x3E8 DUP7 PUSH2 0x96C SWAP2 SWAP1 PUSH2 0x2D7E JUMP JUMPDEST PUSH2 0x976 SWAP2 SWAP1 PUSH2 0x2CB8 JUMP JUMPDEST SWAP1 POP PUSH1 0x0 PUSH1 0x3 DUP4 PUSH2 0x987 SWAP2 SWAP1 PUSH2 0x2D7E JUMP JUMPDEST PUSH2 0x3E8 DUP7 PUSH2 0x995 SWAP2 SWAP1 PUSH2 0x2D7E JUMP JUMPDEST PUSH2 0x99F SWAP2 SWAP1 PUSH2 0x2CB8 JUMP JUMPDEST SWAP1 POP PUSH3 0xF4240 DUP8 PUSH14 0xFFFFFFFFFFFFFFFFFFFFFFFFFFFF AND DUP10 PUSH14 0xFFFFFFFFFFFFFFFFFFFFFFFFFFFF AND PUSH2 0x9D1 SWAP2 SWAP1 PUSH2 0x2D7E JUMP JUMPDEST PUSH2 0x9DB SWAP2 SWAP1 PUSH2 0x2D7E JUMP JUMPDEST DUP2 DUP4 PUSH2 0x9E7 SWAP2 SWAP1 PUSH2 0x2D7E JUMP JUMPDEST LT ISZERO PUSH2 0xA28 JUMPI PUSH1 0x40 MLOAD PUSH32 0x8C379A000000000000000000000000000000000000000000000000000000000 DUP2 MSTORE PUSH1 0x4 ADD PUSH2 0xA1F SWAP1 PUSH2 0x2E0C JUMP JUMPDEST PUSH1 0x40 MLOAD DUP1 SWAP2 SUB SWAP1 REVERT JUMPDEST POP POP PUSH2 0xA36 DUP5 DUP5 DUP9 DUP9 PUSH2 0x1D23 JUMP JUMPDEST POP POP POP POP POP POP PUSH1 0x1 PUSH1 0xC DUP2 SWAP1 SSTORE POP POP POP POP POP POP JUMP JUMPDEST PUSH1 0x40 MLOAD DUP1 PUSH1 0x40 ADD PUSH1 0x40 MSTORE DUP1 PUSH1 0xE DUP2 MSTORE PUSH1 0x20 ADD PUSH32 0x45524320556E6973776170205632000000000000000000000000000000000000 DUP2 MSTORE POP DUP2 JUMP JUMPDEST PUSH1 0x0 DUP1 PUSH1 0x0 PUSH1 0x8 PUSH1 0x0 SWAP1 SLOAD SWAP1 PUSH2 0x100 EXP SWAP1 DIV PUSH14 0xFFFFFFFFFFFFFFFFFFFFFFFFFFFF AND SWAP3 POP PUSH1 0x8 PUSH1 0xE SWAP1 SLOAD SWAP1 PUSH2 0x100 EXP SWAP1 DIV PUSH14 0xFFFFFFFFFFFFFFFFFFFFFFFFFFFF AND SWAP2 POP PUSH1 0x8 PUSH1 0x1C SWAP1 SLOAD SWAP1 PUSH2 0x100 EXP SWAP1 DIV PUSH4 0xFFFFFFFF AND SWAP1 POP SWAP1 SWAP2 SWAP3 JUMP JUMPDEST PUSH1 0x0 PUSH2 0xAEE CALLER DUP5 DUP5 PUSH2 0x1F0D JUMP JUMPDEST PUSH1 0x1 SWAP1 POP SWAP3 SWAP2 POP POP JUMP JUMPDEST PUSH1 0x1 PUSH1 0x0 SWAP1 SLOAD SWAP1 PUSH2 0x100 EXP SWAP1 DIV PUSH20 0xFFFFFFFFFFFFFFFFFFFFFFFFFFFFFFFFFFFFFFFF AND DUP2 JUMP JUMPDEST PUSH1 0x3 SLOAD DUP2 JUMP JUMPDEST PUSH1 0x0 PUSH16 0xFFFFFFFFFFFFFFFFFFFFFFFFFFFFFFFF PUSH1 0x5 PUSH1 0x0 DUP7 PUSH20 0xFFFFFFFFFFFFFFFFFFFFFFFFFFFFFFFFFFFFFFFF AND PUSH20 0xFFFFFFFFFFFFFFFFFFFFFFFFFFFFFFFFFFFFFFFF AND DUP2 MSTORE PUSH1 0x20 ADD SWAP1 DUP2 MSTORE PUSH1 0x20 ADD PUSH1 0x0 KECCAK256 PUSH1 0x0 CALLER PUSH20 0xFFFFFFFFFFFFFFFFFFFFFFFFFFFFFFFFFFFFFFFF AND PUSH20 0xFFFFFFFFFFFFFFFFFFFFFFFFFFFFFFFFFFFFFFFF AND DUP2 MSTORE PUSH1 0x20 ADD SWAP1 DUP2 MSTORE PUSH1 0x20 ADD PUSH1 0x0 KECCAK256 SLOAD EQ PUSH2 0xCC2 JUMPI DUP2 PUSH1 0x5 PUSH1 0x0 DUP7 PUSH20 0xFFFFFFFFFFFFFFFFFFFFFFFFFFFFFFFFFFFFFFFF AND PUSH20 0xFFFFFFFFFFFFFFFFFFFFFFFFFFFFFFFFFFFFFFFF AND DUP2 MSTORE PUSH1 0x20 ADD SWAP1 DUP2 MSTORE PUSH1 0x20 ADD PUSH1 0x0 KECCAK256 PUSH1 0x0 CALLER PUSH20 0xFFFFFFFFFFFFFFFFFFFFFFFFFFFFFFFFFFFFFFFF AND PUSH20 0xFFFFFFFFFFFFFFFFFFFFFFFFFFFFFFFFFFFFFFFF AND DUP2 MSTORE PUSH1 0x20 ADD SWAP1 DUP2 MSTORE PUSH1 0x20 ADD PUSH1 0x0 KECCAK256 SLOAD PUSH2 0xC41 SWAP2 SWAP1 PUSH2 0x2CB8 JUMP JUMPDEST PUSH1 0x5 PUSH1 0x0 DUP7 PUSH20 0xFFFFFFFFFFFFFFFFFFFFFFFFFFFFFFFFFFFFFFFF AND PUSH20 0xFFFFFFFFFFFFFFFFFFFFFFFFFFFFFFFFFFFFFFFF AND DUP2 MSTORE PUSH1 0x20 ADD SWAP1 DUP2 MSTORE PUSH1 0x20 ADD PUSH1 0x0 KECCAK256 PUSH1 0x0 CALLER PUSH20 0xFFFFFFFFFFFFFFFFFFFFFFFFFFFFFFFFFFFFFFFF AND PUSH20 0xFFFFFFFFFFFFFFFFFFFFFFFFFFFFFFFFFFFFFFFF AND DUP2 MSTORE PUSH1 0x20 ADD SWAP1 DUP2 MSTORE PUSH1 0x20 ADD PUSH1 0x0 KECCAK256 DUP2 SWAP1 SSTORE POP JUMPDEST PUSH2 0xCCD DUP5 DUP5 DUP5 PUSH2 0x1F93 JUMP JUMPDEST PUSH1 0x1 SWAP1 POP SWAP4 SWAP3 POP POP POP JUMP JUMPDEST PUSH32 0x6E71EDAE12B1B97F4D1F60370FEF10105FA2FAAE0126114A169C64845D6126C9 PUSH1 0x0 SHL DUP2 JUMP JUMPDEST PUSH1 0x12 DUP2 JUMP JUMPDEST PUSH1 0x6 SLOAD DUP2 JUMP JUMPDEST PUSH1 0x9 SLOAD DUP2 JUMP JUMPDEST PUSH1 0xA SLOAD DUP2 JUMP JUMPDEST PUSH1 0x0 PUSH1 0x1 PUSH1 0xC SLOAD EQ PUSH2 0xD5D JUMPI PUSH1 0x40 MLOAD PUSH32 0x8C379A000000000000000000000000000000000000000000000000000000000 DUP2 MSTORE PUSH1 0x4 ADD PUSH2 0xD54 SWAP1 PUSH2 0x2A3F JUMP JUMPDEST PUSH1 0x40 MLOAD DUP1 SWAP2 SUB SWAP1 REVERT JUMPDEST PUSH1 0x0 PUSH1 0xC DUP2 SWAP1 SSTORE POP PUSH1 0x0 DUP1 PUSH2 0xD70 PUSH2 0xA84 JUMP JUMPDEST POP SWAP2 POP SWAP2 POP PUSH1 0x0 PUSH1 0x1 PUSH1 0x0 SWAP1 SLOAD SWAP1 PUSH2 0x100 EXP SWAP1 DIV PUSH20 0xFFFFFFFFFFFFFFFFFFFFFFFFFFFFFFFFFFFFFFFF AND PUSH20 0xFFFFFFFFFFFFFFFFFFFFFFFFFFFFFFFFFFFFFFFF AND PUSH4 0x70A08231 ADDRESS PUSH1 0x40 MLOAD DUP3 PUSH4 0xFFFFFFFF AND PUSH1 0xE0 SHL DUP2 MSTORE PUSH1 0x4 ADD PUSH2 0xDD2 SWAP2 SWAP1 PUSH2 0x2760 JUMP JUMPDEST PUSH1 0x20 PUSH1 0x40 MLOAD DUP1 DUP4 SUB DUP2 DUP7 GAS STATICCALL ISZERO DUP1 ISZERO PUSH2 0xDEF JUMPI RETURNDATASIZE PUSH1 0x0 DUP1 RETURNDATACOPY RETURNDATASIZE PUSH1 0x0 REVERT JUMPDEST POP POP POP POP PUSH1 0x40 MLOAD RETURNDATASIZE PUSH1 0x1F NOT PUSH1 0x1F DUP3 ADD AND DUP3 ADD DUP1 PUSH1 0x40 MSTORE POP DUP2 ADD SWAP1 PUSH2 0xE13 SWAP2 SWAP1 PUSH2 0x2C5C JUMP JUMPDEST SWAP1 POP PUSH1 0x0 PUSH1 0x2 PUSH1 0x0 SWAP1 SLOAD SWAP1 PUSH2 0x100 EXP SWAP1 DIV PUSH20 0xFFFFFFFFFFFFFFFFFFFFFFFFFFFFFFFFFFFFFFFF AND PUSH20 0xFFFFFFFFFFFFFFFFFFFFFFFFFFFFFFFFFFFFFFFF AND PUSH4 0x70A08231 ADDRESS PUSH1 0x40 MLOAD DUP3 PUSH4 0xFFFFFFFF AND PUSH1 0xE0 SHL DUP2 MSTORE PUSH1 0x4 ADD PUSH2 0xE72 SWAP2 SWAP1 PUSH2 0x2760 JUMP JUMPDEST PUSH1 0x20 PUSH1 0x40 MLOAD DUP1 DUP4 SUB DUP2 DUP7 GAS STATICCALL ISZERO DUP1 ISZERO PUSH2 0xE8F JUMPI RETURNDATASIZE PUSH1 0x0 DUP1 RETURNDATACOPY RETURNDATASIZE PUSH1 0x0 REVERT JUMPDEST POP POP POP POP PUSH1 0x40 MLOAD RETURNDATASIZE PUSH1 0x1F NOT PUSH1 0x1F DUP3 ADD AND DUP3 ADD DUP1 PUSH1 0x40 MSTORE POP DUP2 ADD SWAP1 PUSH2 0xEB3 SWAP2 SWAP1 PUSH2 0x2C5C JUMP JUMPDEST SWAP1 POP PUSH1 0x0 DUP5 PUSH14 0xFFFFFFFFFFFFFFFFFFFFFFFFFFFF AND DUP4 PUSH2 0xED3 SWAP2 SWAP1 PUSH2 0x2CB8 JUMP JUMPDEST SWAP1 POP PUSH1 0x0 DUP5 PUSH14 0xFFFFFFFFFFFFFFFFFFFFFFFFFFFF AND DUP4 PUSH2 0xEF3 SWAP2 SWAP1 PUSH2 0x2CB8 JUMP JUMPDEST SWAP1 POP PUSH1 0x0 PUSH2 0xF01 DUP8 DUP8 PUSH2 0x20B4 JUMP JUMPDEST SWAP1 POP PUSH1 0x0 PUSH1 0x3 SLOAD SWAP1 POP PUSH1 0x0 DUP2 SUB PUSH2 0xF45 JUMPI PUSH1 0x1 PUSH2 0xF28 DUP5 DUP7 PUSH2 0xF23 SWAP2 SWAP1 PUSH2 0x2D7E JUMP JUMPDEST PUSH2 0x220C JUMP JUMPDEST PUSH2 0xF32 SWAP2 SWAP1 PUSH2 0x2CB8 JUMP JUMPDEST SWAP9 POP PUSH2 0xF40 PUSH1 0x0 PUSH1 0x1 PUSH2 0x2286 JUMP JUMPDEST PUSH2 0xF9E JUMP JUMPDEST PUSH2 0xF9B DUP9 PUSH14 0xFFFFFFFFFFFFFFFFFFFFFFFFFFFF AND DUP3 DUP7 PUSH2 0xF65 SWAP2 SWAP1 PUSH2 0x2D7E JUMP JUMPDEST PUSH2 0xF6F SWAP2 SWAP1 PUSH2 0x2E5B JUMP JUMPDEST DUP9 PUSH14 0xFFFFFFFFFFFFFFFFFFFFFFFFFFFF AND DUP4 DUP7 PUSH2 0xF8C SWAP2 SWAP1 PUSH2 0x2D7E JUMP JUMPDEST PUSH2 0xF96 SWAP2 SWAP1 PUSH2 0x2E5B JUMP JUMPDEST PUSH2 0x232C JUMP JUMPDEST SWAP9 POP JUMPDEST PUSH1 0x0 DUP10 GT PUSH2 0xFE1 JUMPI PUSH1 0x40 MLOAD PUSH32 0x8C379A000000000000000000000000000000000000000000000000000000000 DUP2 MSTORE PUSH1 0x4 ADD PUSH2 0xFD8 SWAP1 PUSH2 0x2EFE JUMP JUMPDEST PUSH1 0x40 MLOAD DUP1 SWAP2 SUB SWAP1 REVERT JUMPDEST PUSH2 0xFEB DUP11 DUP11 PUSH2 0x2286 JUMP JUMPDEST PUSH2 0xFF7 DUP7 DUP7 DUP11 DUP11 PUSH2 0x1D23 JUMP JUMPDEST DUP2 ISZERO PUSH2 0x1068 JUMPI PUSH1 0x8 PUSH1 0xE SWAP1 SLOAD SWAP1 PUSH2 0x100 EXP SWAP1 DIV PUSH14 0xFFFFFFFFFFFFFFFFFFFFFFFFFFFF AND PUSH14 0xFFFFFFFFFFFFFFFFFFFFFFFFFFFF AND PUSH1 0x8 PUSH1 0x0 SWAP1 SLOAD SWAP1 PUSH2 0x100 EXP SWAP1 DIV PUSH14 0xFFFFFFFFFFFFFFFFFFFFFFFFFFFF AND PUSH14 0xFFFFFFFFFFFFFFFFFFFFFFFFFFFF AND PUSH2 0x1061 SWAP2 SWAP1 PUSH2 0x2D7E JUMP JUMPDEST PUSH1 0xB DUP2 SWAP1 SSTORE POP JUMPDEST POP POP POP POP POP POP POP POP PUSH1 0x1 PUSH1 0xC DUP2 SWAP1 SSTORE POP SWAP2 SWAP1 POP JUMP JUMPDEST PUSH1 0x4 PUSH1 0x20 MSTORE DUP1 PUSH1 0x0 MSTORE PUSH1 0x40 PUSH1 0x0 KECCAK256 PUSH1 0x0 SWAP2 POP SWAP1 POP SLOAD DUP2 JUMP JUMPDEST PUSH1 0xB SLOAD DUP2 JUMP JUMPDEST PUSH1 0x7 PUSH1 0x20 MSTORE DUP1 PUSH1 0x0 MSTORE PUSH1 0x40 PUSH1 0x0 KECCAK256 PUSH1 0x0 SWAP2 POP SWAP1 POP SLOAD DUP2 JUMP JUMPDEST PUSH1 0x0 DUP1 PUSH1 0x1 PUSH1 0xC SLOAD EQ PUSH2 0x10FB JUMPI PUSH1 0x40 MLOAD PUSH32 0x8C379A000000000000000000000000000000000000000000000000000000000 DUP2 MSTORE PUSH1 0x4 ADD PUSH2 0x10F2 SWAP1 PUSH2 0x2A3F JUMP JUMPDEST PUSH1 0x40 MLOAD DUP1 SWAP2 SUB SWAP1 REVERT JUMPDEST PUSH1 0x0 PUSH1 0xC DUP2 SWAP1 SSTORE POP PUSH1 0x0 DUP1 PUSH2 0x110E PUSH2 0xA84 JUMP JUMPDEST POP SWAP2 POP SWAP2 POP PUSH1 0x0 PUSH1 0x1 PUSH1 0x0 SWAP1 SLOAD SWAP1 PUSH2 0x100 EXP SWAP1 DIV PUSH20 0xFFFFFFFFFFFFFFFFFFFFFFFFFFFFFFFFFFFFFFFF AND SWAP1 POP PUSH1 0x0 PUSH1 0x2 PUSH1 0x0 SWAP1 SLOAD SWAP1 PUSH2 0x100 EXP SWAP1 DIV PUSH20 0xFFFFFFFFFFFFFFFFFFFFFFFFFFFFFFFFFFFFFFFF AND SWAP1 POP PUSH1 0x0 DUP3 PUSH20 0xFFFFFFFFFFFFFFFFFFFFFFFFFFFFFFFFFFFFFFFF AND PUSH4 0x70A08231 ADDRESS PUSH1 0x40 MLOAD DUP3 PUSH4 0xFFFFFFFF AND PUSH1 0xE0 SHL DUP2 MSTORE PUSH1 0x4 ADD PUSH2 0x119C SWAP2 SWAP1 PUSH2 0x2760 JUMP JUMPDEST PUSH1 0x20 PUSH1 0x40 MLOAD DUP1 DUP4 SUB DUP2 DUP7 GAS STATICCALL ISZERO DUP1 ISZERO PUSH2 0x11B9 JUMPI RETURNDATASIZE PUSH1 0x0 DUP1 RETURNDATACOPY RETURNDATASIZE PUSH1 0x0 REVERT JUMPDEST POP POP POP POP PUSH1 0x40 MLOAD RETURNDATASIZE PUSH1 0x1F NOT PUSH1 0x1F DUP3 ADD AND DUP3 ADD DUP1 PUSH1 0x40 MSTORE POP DUP2 ADD SWAP1 PUSH2 0x11DD SWAP2 SWAP1 PUSH2 0x2C5C JUMP JUMPDEST SWAP1 POP PUSH1 0x0 DUP3 PUSH20 0xFFFFFFFFFFFFFFFFFFFFFFFFFFFFFFFFFFFFFFFF AND PUSH4 0x70A08231 ADDRESS PUSH1 0x40 MLOAD DUP3 PUSH4 0xFFFFFFFF AND PUSH1 0xE0 SHL DUP2 MSTORE PUSH1 0x4 ADD PUSH2 0x121A SWAP2 SWAP1 PUSH2 0x2760 JUMP JUMPDEST PUSH1 0x20 PUSH1 0x40 MLOAD DUP1 DUP4 SUB DUP2 DUP7 GAS STATICCALL ISZERO DUP1 ISZERO PUSH2 0x1237 JUMPI RETURNDATASIZE PUSH1 0x0 DUP1 RETURNDATACOPY RETURNDATASIZE PUSH1 0x0 REVERT JUMPDEST POP POP POP POP PUSH1 0x40 MLOAD RETURNDATASIZE PUSH1 0x1F NOT PUSH1 0x1F DUP3 ADD AND DUP3 ADD DUP1 PUSH1 0x40 MSTORE POP DUP2 ADD SWAP1 PUSH2 0x125B SWAP2 SWAP1 PUSH2 0x2C5C JUMP JUMPDEST SWAP1 POP PUSH1 0x0 PUSH1 0x4 PUSH1 0x0 ADDRESS PUSH20 0xFFFFFFFFFFFFFFFFFFFFFFFFFFFFFFFFFFFFFFFF AND PUSH20 0xFFFFFFFFFFFFFFFFFFFFFFFFFFFFFFFFFFFFFFFF AND DUP2 MSTORE PUSH1 0x20 ADD SWAP1 DUP2 MSTORE PUSH1 0x20 ADD PUSH1 0x0 KECCAK256 SLOAD SWAP1 POP PUSH1 0x0 PUSH2 0x12AD DUP9 DUP9 PUSH2 0x20B4 JUMP JUMPDEST SWAP1 POP PUSH1 0x0 PUSH1 0x3 SLOAD SWAP1 POP DUP1 DUP6 DUP5 PUSH2 0x12C3 SWAP2 SWAP1 PUSH2 0x2D7E JUMP JUMPDEST PUSH2 0x12CD SWAP2 SWAP1 PUSH2 0x2E5B JUMP JUMPDEST SWAP11 POP DUP1 DUP5 DUP5 PUSH2 0x12DC SWAP2 SWAP1 PUSH2 0x2D7E JUMP JUMPDEST PUSH2 0x12E6 SWAP2 SWAP1 PUSH2 0x2E5B JUMP JUMPDEST SWAP10 POP PUSH1 0x0 DUP12 GT DUP1 ISZERO PUSH2 0x12F8 JUMPI POP PUSH1 0x0 DUP11 GT JUMPDEST PUSH2 0x1337 JUMPI PUSH1 0x40 MLOAD PUSH32 0x8C379A000000000000000000000000000000000000000000000000000000000 DUP2 MSTORE PUSH1 0x4 ADD PUSH2 0x132E SWAP1 PUSH2 0x2F90 JUMP JUMPDEST PUSH1 0x40 MLOAD DUP1 SWAP2 SUB SWAP1 REVERT JUMPDEST PUSH2 0x1341 ADDRESS DUP5 PUSH2 0x2345 JUMP JUMPDEST PUSH2 0x134C DUP8 DUP14 DUP14 PUSH2 0x1B99 JUMP JUMPDEST PUSH2 0x1357 DUP7 DUP14 DUP13 PUSH2 0x1B99 JUMP JUMPDEST DUP7 PUSH20 0xFFFFFFFFFFFFFFFFFFFFFFFFFFFFFFFFFFFFFFFF AND PUSH4 0x70A08231 ADDRESS PUSH1 0x40 MLOAD DUP3 PUSH4 0xFFFFFFFF AND PUSH1 0xE0 SHL DUP2 MSTORE PUSH1 0x4 ADD PUSH2 0x1390 SWAP2 SWAP1 PUSH2 0x2760 JUMP JUMPDEST PUSH1 0x20 PUSH1 0x40 MLOAD DUP1 DUP4 SUB DUP2 DUP7 GAS STATICCALL ISZERO DUP1 ISZERO PUSH2 0x13AD JUMPI RETURNDATASIZE PUSH1 0x0 DUP1 RETURNDATACOPY RETURNDATASIZE PUSH1 0x0 REVERT JUMPDEST POP POP POP POP PUSH1 0x40 MLOAD RETURNDATASIZE PUSH1 0x1F NOT PUSH1 0x1F DUP3 ADD AND DUP3 ADD DUP1 PUSH1 0x40 MSTORE POP DUP2 ADD SWAP1 PUSH2 0x13D1 SWAP2 SWAP1 PUSH2 0x2C5C JUMP JUMPDEST SWAP5 POP DUP6 PUSH20 0xFFFFFFFFFFFFFFFFFFFFFFFFFFFFFFFFFFFFFFFF AND PUSH4 0x70A08231 ADDRESS PUSH1 0x40 MLOAD DUP3 PUSH4 0xFFFFFFFF AND PUSH1 0xE0 SHL DUP2 MSTORE PUSH1 0x4 ADD PUSH2 0x140C SWAP2 SWAP1 PUSH2 0x2760 JUMP JUMPDEST PUSH1 0x20 PUSH1 0x40 MLOAD DUP1 DUP4 SUB DUP2 DUP7 GAS STATICCALL ISZERO DUP1 ISZERO PUSH2 0x1429 JUMPI RETURNDATASIZE PUSH1 0x0 DUP1 RETURNDATACOPY RETURNDATASIZE PUSH1 0x0 REVERT JUMPDEST POP POP POP POP PUSH1 0x40 MLOAD RETURNDATASIZE PUSH1 0x1F NOT PUSH1 0x1F DUP3 ADD AND DUP3 ADD DUP1 PUSH1 0x40 MSTORE POP DUP2 ADD SWAP1 PUSH2 0x144D SWAP2 SWAP1 PUSH2 0x2C5C JUMP JUMPDEST SWAP4 POP PUSH2 0x145B DUP6 DUP6 DUP12 DUP12 PUSH2 0x1D23 JUMP JUMPDEST DUP2 ISZERO PUSH2 0x14CC JUMPI PUSH1 0x8 PUSH1 0xE SWAP1 SLOAD SWAP1 PUSH2 0x100 EXP SWAP1 DIV PUSH14 0xFFFFFFFFFFFFFFFFFFFFFFFFFFFF AND PUSH14 0xFFFFFFFFFFFFFFFFFFFFFFFFFFFF AND PUSH1 0x8 PUSH1 0x0 SWAP1 SLOAD SWAP1 PUSH2 0x100 EXP SWAP1 DIV PUSH14 0xFFFFFFFFFFFFFFFFFFFFFFFFFFFF AND PUSH14 0xFFFFFFFFFFFFFFFFFFFFFFFFFFFF AND PUSH2 0x14C5 SWAP2 SWAP1 PUSH2 0x2D7E JUMP JUMPDEST PUSH1 0xB DUP2 SWAP1 SSTORE POP JUMPDEST POP POP POP POP POP POP POP POP POP PUSH1 0x1 PUSH1 0xC DUP2 SWAP1 SSTORE POP SWAP2 POP SWAP2 JUMP JUMPDEST PUSH1 0x40 MLOAD DUP1 PUSH1 0x40 ADD PUSH1 0x40 MSTORE DUP1 PUSH1 0xA DUP2 MSTORE PUSH1 0x20 ADD PUSH32 0x45524320554E492D563200000000000000000000000000000000000000000000 DUP2 MSTORE POP DUP2 JUMP JUMPDEST PUSH1 0x0 PUSH2 0x1528 CALLER DUP5 DUP5 PUSH2 0x1F93 JUMP JUMPDEST PUSH1 0x1 SWAP1 POP SWAP3 SWAP2 POP POP JUMP JUMPDEST PUSH1 0x1 DUP2 JUMP JUMPDEST PUSH1 0x1 PUSH1 0xC SLOAD EQ PUSH2 0x157C JUMPI PUSH1 0x40 MLOAD PUSH32 0x8C379A000000000000000000000000000000000000000000000000000000000 DUP2 MSTORE PUSH1 0x4 ADD PUSH2 0x1573 SWAP1 PUSH2 0x2A3F JUMP JUMPDEST PUSH1 0x40 MLOAD DUP1 SWAP2 SUB SWAP1 REVERT JUMPDEST PUSH1 0x0 PUSH1 0xC DUP2 SWAP1 SSTORE POP PUSH1 0x0 PUSH1 0x1 PUSH1 0x0 SWAP1 SLOAD SWAP1 PUSH2 0x100 EXP SWAP1 DIV PUSH20 0xFFFFFFFFFFFFFFFFFFFFFFFFFFFFFFFFFFFFFFFF AND SWAP1 POP PUSH1 0x0 PUSH1 0x2 PUSH1 0x0 SWAP1 SLOAD SWAP1 PUSH2 0x100 EXP SWAP1 DIV PUSH20 0xFFFFFFFFFFFFFFFFFFFFFFFFFFFFFFFFFFFFFFFF AND SWAP1 POP PUSH2 0x168D DUP3 DUP5 PUSH1 0x8 PUSH1 0x0 SWAP1 SLOAD SWAP1 PUSH2 0x100 EXP SWAP1 DIV PUSH14 0xFFFFFFFFFFFFFFFFFFFFFFFFFFFF AND PUSH14 0xFFFFFFFFFFFFFFFFFFFFFFFFFFFF AND DUP6 PUSH20 0xFFFFFFFFFFFFFFFFFFFFFFFFFFFFFFFFFFFFFFFF AND PUSH4 0x70A08231 ADDRESS PUSH1 0x40 MLOAD DUP3 PUSH4 0xFFFFFFFF AND PUSH1 0xE0 SHL DUP2 MSTORE PUSH1 0x4 ADD PUSH2 0x163D SWAP2 SWAP1 PUSH2 0x2760 JUMP JUMPDEST PUSH1 0x20 PUSH1 0x40 MLOAD DUP1 DUP4 SUB DUP2 DUP7 GAS STATICCALL ISZERO DUP1 ISZERO PUSH2 0x165A JUMPI RETURNDATASIZE PUSH1 0x0 DUP1 RETURNDATACOPY RETURNDATASIZE PUSH1 0x0 REVERT JUMPDEST POP POP POP POP PUSH1 0x40 MLOAD RETURNDATASIZE PUSH1 0x1F NOT PUSH1 0x1F DUP3 ADD AND DUP3 ADD DUP1 PUSH1 0x40 MSTORE POP DUP2 ADD SWAP1 PUSH2 0x167E SWAP2 SWAP1 PUSH2 0x2C5C JUMP JUMPDEST PUSH2 0x1688 SWAP2 SWAP1 PUSH2 0x2CB8 JUMP JUMPDEST PUSH2 0x1B99 JUMP JUMPDEST PUSH2 0x1748 DUP2 DUP5 PUSH1 0x8 PUSH1 0xE SWAP1 SLOAD SWAP1 PUSH2 0x100 EXP SWAP1 DIV PUSH14 0xFFFFFFFFFFFFFFFFFFFFFFFFFFFF AND PUSH14 0xFFFFFFFFFFFFFFFFFFFFFFFFFFFF AND DUP5 PUSH20 0xFFFFFFFFFFFFFFFFFFFFFFFFFFFFFFFFFFFFFFFF AND PUSH4 0x70A08231 ADDRESS PUSH1 0x40 MLOAD DUP3 PUSH4 0xFFFFFFFF AND PUSH1 0xE0 SHL DUP2 MSTORE PUSH1 0x4 ADD PUSH2 0x16F8 SWAP2 SWAP1 PUSH2 0x2760 JUMP JUMPDEST PUSH1 0x20 PUSH1 0x40 MLOAD DUP1 DUP4 SUB DUP2 DUP7 GAS STATICCALL ISZERO DUP1 ISZERO PUSH2 0x1715 JUMPI RETURNDATASIZE PUSH1 0x0 DUP1 RETURNDATACOPY RETURNDATASIZE PUSH1 0x0 REVERT JUMPDEST POP POP POP POP PUSH1 0x40 MLOAD RETURNDATASIZE PUSH1 0x1F NOT PUSH1 0x1F DUP3 ADD AND DUP3 ADD DUP1 PUSH1 0x40 MSTORE POP DUP2 ADD SWAP1 PUSH2 0x1739 SWAP2 SWAP1 PUSH2 0x2C5C JUMP JUMPDEST PUSH2 0x1743 SWAP2 SWAP1 PUSH2 0x2CB8 JUMP JUMPDEST PUSH2 0x1B99 JUMP JUMPDEST POP POP PUSH1 0x1 PUSH1 0xC DUP2 SWAP1 SSTORE POP POP JUMP JUMPDEST PUSH1 0x2 PUSH1 0x0 SWAP1 SLOAD SWAP1 PUSH2 0x100 EXP SWAP1 DIV PUSH20 0xFFFFFFFFFFFFFFFFFFFFFFFFFFFFFFFFFFFFFFFF AND DUP2 JUMP JUMPDEST TIMESTAMP DUP5 LT ISZERO PUSH2 0x17BE JUMPI PUSH1 0x40 MLOAD PUSH32 0x8C379A000000000000000000000000000000000000000000000000000000000 DUP2 MSTORE PUSH1 0x4 ADD PUSH2 0x17B5 SWAP1 PUSH2 0x2FFC JUMP JUMPDEST PUSH1 0x40 MLOAD DUP1 SWAP2 SUB SWAP1 REVERT JUMPDEST PUSH1 0x0 PUSH1 0x6 SLOAD PUSH32 0x6E71EDAE12B1B97F4D1F60370FEF10105FA2FAAE0126114A169C64845D6126C9 PUSH1 0x0 SHL DUP10 DUP10 DUP10 PUSH1 0x7 PUSH1 0x0 DUP15 PUSH20 0xFFFFFFFFFFFFFFFFFFFFFFFFFFFFFFFFFFFFFFFF AND PUSH20 0xFFFFFFFFFFFFFFFFFFFFFFFFFFFFFFFFFFFFFFFF AND DUP2 MSTORE PUSH1 0x20 ADD SWAP1 DUP2 MSTORE PUSH1 0x20 ADD PUSH1 0x0 KECCAK256 PUSH1 0x0 DUP2 SLOAD DUP1 SWAP3 SWAP2 SWAP1 PUSH2 0x183A SWAP1 PUSH2 0x301C JUMP JUMPDEST SWAP2 SWAP1 POP SSTORE DUP11 PUSH1 0x40 MLOAD PUSH1 0x20 ADD PUSH2 0x1854 SWAP7 SWAP6 SWAP5 SWAP4 SWAP3 SWAP2 SWAP1 PUSH2 0x3064 JUMP JUMPDEST PUSH1 0x40 MLOAD PUSH1 0x20 DUP2 DUP4 SUB SUB DUP2 MSTORE SWAP1 PUSH1 0x40 MSTORE DUP1 MLOAD SWAP1 PUSH1 0x20 ADD KECCAK256 PUSH1 0x40 MLOAD PUSH1 0x20 ADD PUSH2 0x187B SWAP3 SWAP2 SWAP1 PUSH2 0x313D JUMP JUMPDEST PUSH1 0x40 MLOAD PUSH1 0x20 DUP2 DUP4 SUB SUB DUP2 MSTORE SWAP1 PUSH1 0x40 MSTORE DUP1 MLOAD SWAP1 PUSH1 0x20 ADD KECCAK256 SWAP1 POP PUSH1 0x0 PUSH1 0x1 DUP3 DUP7 DUP7 DUP7 PUSH1 0x40 MLOAD PUSH1 0x0 DUP2 MSTORE PUSH1 0x20 ADD PUSH1 0x40 MSTORE PUSH1 0x40 MLOAD PUSH2 0x18B8 SWAP5 SWAP4 SWAP3 SWAP2 SWAP1 PUSH2 0x3174 JUMP JUMPDEST PUSH1 0x20 PUSH1 0x40 MLOAD PUSH1 0x20 DUP2 SUB SWAP1 DUP1 DUP5 SUB SWAP1 DUP6 GAS STATICCALL ISZERO DUP1 ISZERO PUSH2 0x18DA JUMPI RETURNDATASIZE PUSH1 0x0 DUP1 RETURNDATACOPY RETURNDATASIZE PUSH1 0x0 REVERT JUMPDEST POP POP POP PUSH1 0x20 PUSH1 0x40 MLOAD SUB MLOAD SWAP1 POP PUSH1 0x0 PUSH20 0xFFFFFFFFFFFFFFFFFFFFFFFFFFFFFFFFFFFFFFFF AND DUP2 PUSH20 0xFFFFFFFFFFFFFFFFFFFFFFFFFFFFFFFFFFFFFFFF AND EQ ISZERO DUP1 ISZERO PUSH2 0x194E JUMPI POP DUP9 PUSH20 0xFFFFFFFFFFFFFFFFFFFFFFFFFFFFFFFFFFFFFFFF AND DUP2 PUSH20 0xFFFFFFFFFFFFFFFFFFFFFFFFFFFFFFFFFFFFFFFF AND EQ JUMPDEST PUSH2 0x198D JUMPI PUSH1 0x40 MLOAD PUSH32 0x8C379A000000000000000000000000000000000000000000000000000000000 DUP2 MSTORE PUSH1 0x4 ADD PUSH2 0x1984 SWAP1 PUSH2 0x3205 JUMP JUMPDEST PUSH1 0x40 MLOAD DUP1 SWAP2 SUB SWAP1 REVERT JUMPDEST PUSH2 0x1998 DUP10 DUP10 DUP10 PUSH2 0x1F0D JUMP JUMPDEST POP POP POP POP POP POP POP POP POP JUMP JUMPDEST PUSH1 0x5 PUSH1 0x20 MSTORE DUP2 PUSH1 0x0 MSTORE PUSH1 0x40 PUSH1 0x0 KECCAK256 PUSH1 0x20 MSTORE DUP1 PUSH1 0x0 MSTORE PUSH1 0x40 PUSH1 0x0 KECCAK256 PUSH1 0x0 SWAP2 POP SWAP2 POP POP SLOAD DUP2 JUMP JUMPDEST PUSH1 0x1 PUSH1 0xC SLOAD EQ PUSH2 0x1A0D JUMPI PUSH1 0x40 MLOAD PUSH32 0x8C379A000000000000000000000000000000000000000000000000000000000 DUP2 MSTORE PUSH1 0x4 ADD PUSH2 0x1A04 SWAP1 PUSH2 0x2A3F JUMP JUMPDEST PUSH1 0x40 MLOAD DUP1 SWAP2 SUB SWAP1 REVERT JUMPDEST PUSH1 0x0 PUSH1 0xC DUP2 SWAP1 SSTORE POP PUSH2 0x1B8F PUSH1 0x1 PUSH1 0x0 SWAP1 SLOAD SWAP1 PUSH2 0x100 EXP SWAP1 DIV PUSH20 0xFFFFFFFFFFFFFFFFFFFFFFFFFFFFFFFFFFFFFFFF AND PUSH20 0xFFFFFFFFFFFFFFFFFFFFFFFFFFFFFFFFFFFFFFFF AND PUSH4 0x70A08231 ADDRESS PUSH1 0x40 MLOAD DUP3 PUSH4 0xFFFFFFFF AND PUSH1 0xE0 SHL DUP2 MSTORE PUSH1 0x4 ADD PUSH2 0x1A73 SWAP2 SWAP1 PUSH2 0x2760 JUMP JUMPDEST PUSH1 0x20 PUSH1 0x40 MLOAD DUP1 DUP4 SUB DUP2 DUP7 GAS STATICCALL ISZERO DUP1 ISZERO PUSH2 0x1A90 JUMPI RETURNDATASIZE PUSH1 0x0 DUP1 RETURNDATACOPY RETURNDATASIZE PUSH1 0x0 REVERT JUMPDEST POP POP POP POP PUSH1 0x40 MLOAD RETURNDATASIZE PUSH1 0x1F NOT PUSH1 0x1F DUP3 ADD AND DUP3 ADD DUP1 PUSH1 0x40 MSTORE POP DUP2 ADD SWAP1 PUSH2 0x1AB4 SWAP2 SWAP1 PUSH2 0x2C5C JUMP JUMPDEST PUSH1 0x2 PUSH1 0x0 SWAP1 SLOAD SWAP1 PUSH2 0x100 EXP SWAP1 DIV PUSH20 0xFFFFFFFFFFFFFFFFFFFFFFFFFFFFFFFFFFFFFFFF AND PUSH20 0xFFFFFFFFFFFFFFFFFFFFFFFFFFFFFFFFFFFFFFFF AND PUSH4 0x70A08231 ADDRESS PUSH1 0x40 MLOAD DUP3 PUSH4 0xFFFFFFFF AND PUSH1 0xE0 SHL DUP2 MSTORE PUSH1 0x4 ADD PUSH2 0x1B0F SWAP2 SWAP1 PUSH2 0x2760 JUMP JUMPDEST PUSH1 0x20 PUSH1 0x40 MLOAD DUP1 DUP4 SUB DUP2 DUP7 GAS STATICCALL ISZERO DUP1 ISZERO PUSH2 0x1B2C JUMPI RETURNDATASIZE PUSH1 0x0 DUP1 RETURNDATACOPY RETURNDATASIZE PUSH1 0x0 REVERT JUMPDEST POP POP POP POP PUSH1 0x40 MLOAD RETURNDATASIZE PUSH1 0x1F NOT PUSH1 0x1F DUP3 ADD AND DUP3 ADD DUP1 PUSH1 0x40 MSTORE POP DUP2 ADD SWAP1 PUSH2 0x1B50 SWAP2 SWAP1 PUSH2 0x2C5C JUMP JUMPDEST PUSH1 0x8 PUSH1 0x0 SWAP1 SLOAD SWAP1 PUSH2 0x100 EXP SWAP1 DIV PUSH14 0xFFFFFFFFFFFFFFFFFFFFFFFFFFFF AND PUSH1 0x8 PUSH1 0xE SWAP1 SLOAD SWAP1 PUSH2 0x100 EXP SWAP1 DIV PUSH14 0xFFFFFFFFFFFFFFFFFFFFFFFFFFFF AND PUSH2 0x1D23 JUMP JUMPDEST PUSH1 0x1 PUSH1 0xC DUP2 SWAP1 SSTORE POP JUMP JUMPDEST PUSH1 0x0 DUP1 DUP5 PUSH20 0xFFFFFFFFFFFFFFFFFFFFFFFFFFFFFFFFFFFFFFFF AND PUSH1 0x40 MLOAD DUP1 PUSH1 0x40 ADD PUSH1 0x40 MSTORE DUP1 PUSH1 0x19 DUP2 MSTORE PUSH1 0x20 ADD PUSH32 0x7472616E7366657228616464726573732C75696E743235362900000000000000 DUP2 MSTORE POP DUP1 MLOAD SWAP1 PUSH1 0x20 ADD KECCAK256 DUP6 DUP6 PUSH1 0x40 MLOAD PUSH1 0x24 ADD PUSH2 0x1C03 SWAP3 SWAP2 SWAP1 PUSH2 0x3225 JUMP JUMPDEST PUSH1 0x40 MLOAD PUSH1 0x20 DUP2 DUP4 SUB SUB DUP2 MSTORE SWAP1 PUSH1 0x40 MSTORE SWAP1 PUSH28 0xFFFFFFFFFFFFFFFFFFFFFFFFFFFFFFFFFFFFFFFFFFFFFFFFFFFFFFFF NOT AND PUSH1 0x20 DUP3 ADD DUP1 MLOAD PUSH28 0xFFFFFFFFFFFFFFFFFFFFFFFFFFFFFFFFFFFFFFFFFFFFFFFFFFFFFFFF DUP4 DUP2 DUP4 AND OR DUP4 MSTORE POP POP POP POP PUSH1 0x40 MLOAD PUSH2 0x1C6D SWAP2 SWAP1 PUSH2 0x328A JUMP JUMPDEST PUSH1 0x0 PUSH1 0x40 MLOAD DUP1 DUP4 SUB DUP2 PUSH1 0x0 DUP7 GAS CALL SWAP2 POP POP RETURNDATASIZE DUP1 PUSH1 0x0 DUP2 EQ PUSH2 0x1CAA JUMPI PUSH1 0x40 MLOAD SWAP2 POP PUSH1 0x1F NOT PUSH1 0x3F RETURNDATASIZE ADD AND DUP3 ADD PUSH1 0x40 MSTORE RETURNDATASIZE DUP3 MSTORE RETURNDATASIZE PUSH1 0x0 PUSH1 0x20 DUP5 ADD RETURNDATACOPY PUSH2 0x1CAF JUMP JUMPDEST PUSH1 0x60 SWAP2 POP JUMPDEST POP SWAP2 POP SWAP2 POP DUP2 DUP1 ISZERO PUSH2 0x1CDD JUMPI POP PUSH1 0x0 DUP2 MLOAD EQ DUP1 PUSH2 0x1CDC JUMPI POP DUP1 DUP1 PUSH1 0x20 ADD SWAP1 MLOAD DUP2 ADD SWAP1 PUSH2 0x1CDB SWAP2 SWAP1 PUSH2 0x32CD JUMP JUMPDEST JUMPDEST JUMPDEST PUSH2 0x1D1C JUMPI PUSH1 0x40 MLOAD PUSH32 0x8C379A000000000000000000000000000000000000000000000000000000000 DUP2 MSTORE PUSH1 0x4 ADD PUSH2 0x1D13 SWAP1 PUSH2 0x3346 JUMP JUMPDEST PUSH1 0x40 MLOAD DUP1 SWAP2 SUB SWAP1 REVERT JUMPDEST POP POP POP POP POP JUMP JUMPDEST PUSH1 0x0 PUSH5 0x100000000 TIMESTAMP PUSH2 0x1D36 SWAP2 SWAP1 PUSH2 0x3366 JUMP JUMPDEST SWAP1 POP PUSH1 0x0 PUSH1 0x8 PUSH1 0x1C SWAP1 SLOAD SWAP1 PUSH2 0x100 EXP SWAP1 DIV PUSH4 0xFFFFFFFF AND DUP3 PUSH2 0x1D58 SWAP2 SWAP1 PUSH2 0x3397 JUMP JUMPDEST SWAP1 POP PUSH1 0x0 DUP2 PUSH4 0xFFFFFFFF AND GT DUP1 ISZERO PUSH2 0x1D81 JUMPI POP PUSH1 0x0 DUP5 PUSH14 0xFFFFFFFFFFFFFFFFFFFFFFFFFFFF AND EQ ISZERO JUMPDEST DUP1 ISZERO PUSH2 0x1D9E JUMPI POP PUSH1 0x0 DUP4 PUSH14 0xFFFFFFFFFFFFFFFFFFFFFFFFFFFF AND EQ ISZERO JUMPDEST ISZERO PUSH2 0x1E7A JUMPI DUP1 PUSH4 0xFFFFFFFF AND DUP5 PUSH14 0xFFFFFFFFFFFFFFFFFFFFFFFFFFFF AND PUSH2 0x1DC4 DUP6 PUSH2 0x23EB JUMP JUMPDEST PUSH2 0x1DCE SWAP2 SWAP1 PUSH2 0x33F7 JUMP JUMPDEST PUSH28 0xFFFFFFFFFFFFFFFFFFFFFFFFFFFFFFFFFFFFFFFFFFFFFFFFFFFFFFFF AND PUSH2 0x1DF6 SWAP2 SWAP1 PUSH2 0x2D7E JUMP JUMPDEST PUSH1 0x9 PUSH1 0x0 DUP3 DUP3 SLOAD PUSH2 0x1E07 SWAP2 SWAP1 PUSH2 0x3428 JUMP JUMPDEST SWAP3 POP POP DUP2 SWAP1 SSTORE POP DUP1 PUSH4 0xFFFFFFFF AND DUP4 PUSH14 0xFFFFFFFFFFFFFFFFFFFFFFFFFFFF AND PUSH2 0x1E2F DUP7 PUSH2 0x23EB JUMP JUMPDEST PUSH2 0x1E39 SWAP2 SWAP1 PUSH2 0x33F7 JUMP JUMPDEST PUSH28 0xFFFFFFFFFFFFFFFFFFFFFFFFFFFFFFFFFFFFFFFFFFFFFFFFFFFFFFFF AND PUSH2 0x1E61 SWAP2 SWAP1 PUSH2 0x2D7E JUMP JUMPDEST PUSH1 0xA PUSH1 0x0 DUP3 DUP3 SLOAD PUSH2 0x1E72 SWAP2 SWAP1 PUSH2 0x3428 JUMP JUMPDEST SWAP3 POP POP DUP2 SWAP1 SSTORE POP JUMPDEST DUP6 PUSH1 0x8 PUSH1 0x0 PUSH2 0x100 EXP DUP2 SLOAD DUP2 PUSH14 0xFFFFFFFFFFFFFFFFFFFFFFFFFFFF MUL NOT AND SWAP1 DUP4 PUSH14 0xFFFFFFFFFFFFFFFFFFFFFFFFFFFF AND MUL OR SWAP1 SSTORE POP DUP5 PUSH1 0x8 PUSH1 0xE PUSH2 0x100 EXP DUP2 SLOAD DUP2 PUSH14 0xFFFFFFFFFFFFFFFFFFFFFFFFFFFF MUL NOT AND SWAP1 DUP4 PUSH14 0xFFFFFFFFFFFFFFFFFFFFFFFFFFFF AND MUL OR SWAP1 SSTORE POP DUP2 PUSH1 0x8 PUSH1 0x1C PUSH2 0x100 EXP DUP2 SLOAD DUP2 PUSH4 0xFFFFFFFF MUL NOT AND SWAP1 DUP4 PUSH4 0xFFFFFFFF AND MUL OR SWAP1 SSTORE POP POP POP POP POP POP POP JUMP JUMPDEST DUP1 PUSH1 0x5 PUSH1 0x0 DUP6 PUSH20 0xFFFFFFFFFFFFFFFFFFFFFFFFFFFFFFFFFFFFFFFF AND PUSH20 0xFFFFFFFFFFFFFFFFFFFFFFFFFFFFFFFFFFFFFFFF AND DUP2 MSTORE PUSH1 0x20 ADD SWAP1 DUP2 MSTORE PUSH1 0x20 ADD PUSH1 0x0 KECCAK256 PUSH1 0x0 DUP5 PUSH20 0xFFFFFFFFFFFFFFFFFFFFFFFFFFFFFFFFFFFFFFFF AND PUSH20 0xFFFFFFFFFFFFFFFFFFFFFFFFFFFFFFFFFFFFFFFF AND DUP2 MSTORE PUSH1 0x20 ADD SWAP1 DUP2 MSTORE PUSH1 0x20 ADD PUSH1 0x0 KECCAK256 DUP2 SWAP1 SSTORE POP POP POP POP JUMP JUMPDEST DUP1 PUSH1 0x4 PUSH1 0x0 DUP6 PUSH20 0xFFFFFFFFFFFFFFFFFFFFFFFFFFFFFFFFFFFFFFFF AND PUSH20 0xFFFFFFFFFFFFFFFFFFFFFFFFFFFFFFFFFFFFFFFF AND DUP2 MSTORE PUSH1 0x20 ADD SWAP1 DUP2 MSTORE PUSH1 0x20 ADD PUSH1 0x0 KECCAK256 SLOAD PUSH2 0x1FDE SWAP2 SWAP1 PUSH2 0x2CB8 JUMP JUMPDEST PUSH1 0x4 PUSH1 0x0 DUP6 PUSH20 0xFFFFFFFFFFFFFFFFFFFFFFFFFFFFFFFFFFFFFFFF AND PUSH20 0xFFFFFFFFFFFFFFFFFFFFFFFFFFFFFFFFFFFFFFFF AND DUP2 MSTORE PUSH1 0x20 ADD SWAP1 DUP2 MSTORE PUSH1 0x20 ADD PUSH1 0x0 KECCAK256 DUP2 SWAP1 SSTORE POP DUP1 PUSH1 0x4 PUSH1 0x0 DUP5 PUSH20 0xFFFFFFFFFFFFFFFFFFFFFFFFFFFFFFFFFFFFFFFF AND PUSH20 0xFFFFFFFFFFFFFFFFFFFFFFFFFFFFFFFFFFFFFFFF AND DUP2 MSTORE PUSH1 0x20 ADD SWAP1 DUP2 MSTORE PUSH1 0x20 ADD PUSH1 0x0 KECCAK256 SLOAD PUSH2 0x206C SWAP2 SWAP1 PUSH2 0x2CB8 JUMP JUMPDEST PUSH1 0x4 PUSH1 0x0 DUP5 PUSH20 0xFFFFFFFFFFFFFFFFFFFFFFFFFFFFFFFFFFFFFFFF AND PUSH20 0xFFFFFFFFFFFFFFFFFFFFFFFFFFFFFFFFFFFFFFFF AND DUP2 MSTORE PUSH1 0x20 ADD SWAP1 DUP2 MSTORE PUSH1 0x20 ADD PUSH1 0x0 KECCAK256 DUP2 SWAP1 SSTORE POP POP POP POP JUMP JUMPDEST PUSH1 0x0 DUP1 PUSH20 0xFFFFFFFFFFFFFFFFFFFFFFFFFFFFFFFFFFFFFFFF AND PUSH1 0x0 DUP1 SLOAD SWAP1 PUSH2 0x100 EXP SWAP1 DIV PUSH20 0xFFFFFFFFFFFFFFFFFFFFFFFFFFFFFFFFFFFFFFFF AND PUSH20 0xFFFFFFFFFFFFFFFFFFFFFFFFFFFFFFFFFFFFFFFF AND EQ ISZERO SWAP1 POP PUSH1 0x0 PUSH1 0xB SLOAD SWAP1 POP DUP2 ISZERO PUSH2 0x21F3 JUMPI PUSH1 0x0 DUP2 EQ PUSH2 0x21EE JUMPI PUSH1 0x0 PUSH2 0x2153 DUP5 PUSH14 0xFFFFFFFFFFFFFFFFFFFFFFFFFFFF AND DUP7 PUSH14 0xFFFFFFFFFFFFFFFFFFFFFFFFFFFF AND PUSH2 0x214E SWAP2 SWAP1 PUSH2 0x2D7E JUMP JUMPDEST PUSH2 0x220C JUMP JUMPDEST SWAP1 POP PUSH1 0x0 PUSH2 0x2160 DUP4 PUSH2 0x220C JUMP JUMPDEST SWAP1 POP DUP1 DUP3 GT ISZERO PUSH2 0x21EB JUMPI PUSH1 0x0 DUP2 DUP4 PUSH2 0x2178 SWAP2 SWAP1 PUSH2 0x2CB8 JUMP JUMPDEST PUSH1 0x3 SLOAD PUSH2 0x2185 SWAP2 SWAP1 PUSH2 0x2D7E JUMP JUMPDEST SWAP1 POP PUSH1 0x0 DUP3 PUSH1 0x5 DUP6 PUSH2 0x2197 SWAP2 SWAP1 PUSH2 0x2D7E JUMP JUMPDEST PUSH2 0x21A1 SWAP2 SWAP1 PUSH2 0x3428 JUMP JUMPDEST SWAP1 POP PUSH1 0x0 DUP2 DUP4 PUSH2 0x21B1 SWAP2 SWAP1 PUSH2 0x2E5B JUMP JUMPDEST SWAP1 POP PUSH1 0x0 DUP2 GT ISZERO PUSH2 0x21E7 JUMPI PUSH2 0x21E6 PUSH1 0x0 DUP1 SLOAD SWAP1 PUSH2 0x100 EXP SWAP1 DIV PUSH20 0xFFFFFFFFFFFFFFFFFFFFFFFFFFFFFFFFFFFFFFFF AND DUP3 PUSH2 0x2286 JUMP JUMPDEST JUMPDEST POP POP POP JUMPDEST POP POP JUMPDEST PUSH2 0x2205 JUMP JUMPDEST PUSH1 0x0 DUP2 EQ PUSH2 0x2204 JUMPI PUSH1 0x0 PUSH1 0xB DUP2 SWAP1 SSTORE POP JUMPDEST JUMPDEST POP SWAP3 SWAP2 POP POP JUMP JUMPDEST PUSH1 0x0 PUSH1 0x3 DUP3 GT ISZERO PUSH2 0x2273 JUMPI DUP2 SWAP1 POP PUSH1 0x0 PUSH1 0x1 PUSH1 0x2 DUP5 PUSH2 0x222B SWAP2 SWAP1 PUSH2 0x2E5B JUMP JUMPDEST PUSH2 0x2235 SWAP2 SWAP1 PUSH2 0x3428 JUMP JUMPDEST SWAP1 POP JUMPDEST DUP2 DUP2 LT ISZERO PUSH2 0x226D JUMPI DUP1 SWAP2 POP PUSH1 0x2 DUP2 DUP3 DUP6 PUSH2 0x2252 SWAP2 SWAP1 PUSH2 0x2E5B JUMP JUMPDEST PUSH2 0x225C SWAP2 SWAP1 PUSH2 0x3428 JUMP JUMPDEST PUSH2 0x2266 SWAP2 SWAP1 PUSH2 0x2E5B JUMP JUMPDEST SWAP1 POP PUSH2 0x2238 JUMP JUMPDEST POP PUSH2 0x2281 JUMP JUMPDEST PUSH1 0x0 DUP3 EQ PUSH2 0x2280 JUMPI PUSH1 0x1 SWAP1 POP JUMPDEST JUMPDEST SWAP2 SWAP1 POP JUMP JUMPDEST DUP1 PUSH1 0x3 SLOAD PUSH2 0x2294 SWAP2 SWAP1 PUSH2 0x3428 JUMP JUMPDEST PUSH1 0x3 DUP2 SWAP1 SSTORE POP DUP1 PUSH1 0x4 PUSH1 0x0 DUP5 PUSH20 0xFFFFFFFFFFFFFFFFFFFFFFFFFFFFFFFFFFFFFFFF AND PUSH20 0xFFFFFFFFFFFFFFFFFFFFFFFFFFFFFFFFFFFFFFFF AND DUP2 MSTORE PUSH1 0x20 ADD SWAP1 DUP2 MSTORE PUSH1 0x20 ADD PUSH1 0x0 KECCAK256 SLOAD PUSH2 0x22E5 SWAP2 SWAP1 PUSH2 0x3428 JUMP JUMPDEST PUSH1 0x4 PUSH1 0x0 DUP5 PUSH20 0xFFFFFFFFFFFFFFFFFFFFFFFFFFFFFFFFFFFFFFFF AND PUSH20 0xFFFFFFFFFFFFFFFFFFFFFFFFFFFFFFFFFFFFFFFF AND DUP2 MSTORE PUSH1 0x20 ADD SWAP1 DUP2 MSTORE PUSH1 0x20 ADD PUSH1 0x0 KECCAK256 DUP2 SWAP1 SSTORE POP POP POP JUMP JUMPDEST PUSH1 0x0 DUP2 DUP4 LT PUSH2 0x233B JUMPI DUP2 PUSH2 0x233D JUMP JUMPDEST DUP3 JUMPDEST SWAP1 POP SWAP3 SWAP2 POP POP JUMP JUMPDEST DUP1 PUSH1 0x4 PUSH1 0x0 DUP5 PUSH20 0xFFFFFFFFFFFFFFFFFFFFFFFFFFFFFFFFFFFFFFFF AND PUSH20 0xFFFFFFFFFFFFFFFFFFFFFFFFFFFFFFFFFFFFFFFF AND DUP2 MSTORE PUSH1 0x20 ADD SWAP1 DUP2 MSTORE PUSH1 0x20 ADD PUSH1 0x0 KECCAK256 SLOAD PUSH2 0x2390 SWAP2 SWAP1 PUSH2 0x2CB8 JUMP JUMPDEST PUSH1 0x4 PUSH1 0x0 DUP5 PUSH20 0xFFFFFFFFFFFFFFFFFFFFFFFFFFFFFFFFFFFFFFFF AND PUSH20 0xFFFFFFFFFFFFFFFFFFFFFFFFFFFFFFFFFFFFFFFF AND DUP2 MSTORE PUSH1 0x20 ADD SWAP1 DUP2 MSTORE PUSH1 0x20 ADD PUSH1 0x0 KECCAK256 DUP2 SWAP1 SSTORE POP DUP1 PUSH1 0x3 SLOAD PUSH2 0x23E1 SWAP2 SWAP1 PUSH2 0x2CB8 JUMP JUMPDEST PUSH1 0x3 DUP2 SWAP1 SSTORE POP POP POP JUMP JUMPDEST PUSH1 0x0 PUSH15 0x10000000000000000000000000000 DUP3 PUSH14 0xFFFFFFFFFFFFFFFFFFFFFFFFFFFF AND PUSH2 0x2418 SWAP2 SWAP1 PUSH2 0x345C JUMP JUMPDEST SWAP1 POP SWAP2 SWAP1 POP JUMP JUMPDEST PUSH1 0x0 DUP1 REVERT JUMPDEST PUSH1 0x0 DUP1 REVERT JUMPDEST PUSH1 0x0 DUP2 SWAP1 POP SWAP2 SWAP1 POP JUMP JUMPDEST PUSH2 0x243C DUP2 PUSH2 0x2429 JUMP JUMPDEST DUP2 EQ PUSH2 0x2447 JUMPI PUSH1 0x0 DUP1 REVERT JUMPDEST POP JUMP JUMPDEST PUSH1 0x0 DUP2 CALLDATALOAD SWAP1 POP PUSH2 0x2459 DUP2 PUSH2 0x2433 JUMP JUMPDEST SWAP3 SWAP2 POP POP JUMP JUMPDEST PUSH1 0x0 PUSH20 0xFFFFFFFFFFFFFFFFFFFFFFFFFFFFFFFFFFFFFFFF DUP3 AND SWAP1 POP SWAP2 SWAP1 POP JUMP JUMPDEST PUSH1 0x0 PUSH2 0x248A DUP3 PUSH2 0x245F JUMP JUMPDEST SWAP1 POP SWAP2 SWAP1 POP JUMP JUMPDEST PUSH2 0x249A DUP2 PUSH2 0x247F JUMP JUMPDEST DUP2 EQ PUSH2 0x24A5 JUMPI PUSH1 0x0 DUP1 REVERT JUMPDEST POP JUMP JUMPDEST PUSH1 0x0 DUP2 CALLDATALOAD SWAP1 POP PUSH2 0x24B7 DUP2 PUSH2 0x2491 JUMP JUMPDEST SWAP3 SWAP2 POP POP JUMP JUMPDEST PUSH1 0x0 DUP1 REVERT JUMPDEST PUSH1 0x0 DUP1 REVERT JUMPDEST PUSH1 0x0 DUP1 REVERT JUMPDEST PUSH1 0x0 DUP1 DUP4 PUSH1 0x1F DUP5 ADD SLT PUSH2 0x24E2 JUMPI PUSH2 0x24E1 PUSH2 0x24BD JUMP JUMPDEST JUMPDEST DUP3 CALLDATALOAD SWAP1 POP PUSH8 0xFFFFFFFFFFFFFFFF DUP2 GT ISZERO PUSH2 0x24FF JUMPI PUSH2 0x24FE PUSH2 0x24C2 JUMP JUMPDEST JUMPDEST PUSH1 0x20 DUP4 ADD SWAP2 POP DUP4 PUSH1 0x1 DUP3 MUL DUP4 ADD GT ISZERO PUSH2 0x251B JUMPI PUSH2 0x251A PUSH2 0x24C7 JUMP JUMPDEST JUMPDEST SWAP3 POP SWAP3 SWAP1 POP JUMP JUMPDEST PUSH1 0x0 DUP1 PUSH1 0x0 DUP1 PUSH1 0x0 PUSH1 0x80 DUP7 DUP9 SUB SLT ISZERO PUSH2 0x253E JUMPI PUSH2 0x253D PUSH2 0x241F JUMP JUMPDEST JUMPDEST PUSH1 0x0 PUSH2 0x254C DUP9 DUP3 DUP10 ADD PUSH2 0x244A JUMP JUMPDEST SWAP6 POP POP PUSH1 0x20 PUSH2 0x255D DUP9 DUP3 DUP10 ADD PUSH2 0x244A JUMP JUMPDEST SWAP5 POP POP PUSH1 0x40 PUSH2 0x256E DUP9 DUP3 DUP10 ADD PUSH2 0x24A8 JUMP JUMPDEST SWAP4 POP POP PUSH1 0x60 DUP7 ADD CALLDATALOAD PUSH8 0xFFFFFFFFFFFFFFFF DUP2 GT ISZERO PUSH2 0x258F JUMPI PUSH2 0x258E PUSH2 0x2424 JUMP JUMPDEST JUMPDEST PUSH2 0x259B DUP9 DUP3 DUP10 ADD PUSH2 0x24CC JUMP JUMPDEST SWAP3 POP SWAP3 POP POP SWAP3 SWAP6 POP SWAP3 SWAP6 SWAP1 SWAP4 POP JUMP JUMPDEST PUSH1 0x0 DUP2 MLOAD SWAP1 POP SWAP2 SWAP1 POP JUMP JUMPDEST PUSH1 0x0 DUP3 DUP3 MSTORE PUSH1 0x20 DUP3 ADD SWAP1 POP SWAP3 SWAP2 POP POP JUMP JUMPDEST PUSH1 0x0 JUMPDEST DUP4 DUP2 LT ISZERO PUSH2 0x25E4 JUMPI DUP1 DUP3 ADD MLOAD DUP2 DUP5 ADD MSTORE PUSH1 0x20 DUP2 ADD SWAP1 POP PUSH2 0x25C9 JUMP JUMPDEST PUSH1 0x0 DUP5 DUP5 ADD MSTORE POP POP POP POP JUMP JUMPDEST PUSH1 0x0 PUSH1 0x1F NOT PUSH1 0x1F DUP4 ADD AND SWAP1 POP SWAP2 SWAP1 POP JUMP JUMPDEST PUSH1 0x0 PUSH2 0x260C DUP3 PUSH2 0x25AA JUMP JUMPDEST PUSH2 0x2616 DUP2 DUP6 PUSH2 0x25B5 JUMP JUMPDEST SWAP4 POP PUSH2 0x2626 DUP2 DUP6 PUSH1 0x20 DUP7 ADD PUSH2 0x25C6 JUMP JUMPDEST PUSH2 0x262F DUP2 PUSH2 0x25F0 JUMP JUMPDEST DUP5 ADD SWAP2 POP POP SWAP3 SWAP2 POP POP JUMP JUMPDEST PUSH1 0x0 PUSH1 0x20 DUP3 ADD SWAP1 POP DUP2 DUP2 SUB PUSH1 0x0 DUP4 ADD MSTORE PUSH2 0x2654 DUP2 DUP5 PUSH2 0x2601 JUMP JUMPDEST SWAP1 POP SWAP3 SWAP2 POP POP JUMP JUMPDEST PUSH1 0x0 PUSH14 0xFFFFFFFFFFFFFFFFFFFFFFFFFFFF DUP3 AND SWAP1 POP SWAP2 SWAP1 POP JUMP JUMPDEST PUSH2 0x267F DUP2 PUSH2 0x265C JUMP JUMPDEST DUP3 MSTORE POP POP JUMP JUMPDEST PUSH1 0x0 PUSH4 0xFFFFFFFF DUP3 AND SWAP1 POP SWAP2 SWAP1 POP JUMP JUMPDEST PUSH2 0x269E DUP2 PUSH2 0x2685 JUMP JUMPDEST DUP3 MSTORE POP POP JUMP JUMPDEST PUSH1 0x0 PUSH1 0x60 DUP3 ADD SWAP1 POP PUSH2 0x26B9 PUSH1 0x0 DUP4 ADD DUP7 PUSH2 0x2676 JUMP JUMPDEST PUSH2 0x26C6 PUSH1 0x20 DUP4 ADD DUP6 PUSH2 0x2676 JUMP JUMPDEST PUSH2 0x26D3 PUSH1 0x40 DUP4 ADD DUP5 PUSH2 0x2695 JUMP JUMPDEST SWAP5 SWAP4 POP POP POP POP JUMP JUMPDEST PUSH1 0x0 DUP1 PUSH1 0x40 DUP4 DUP6 SUB SLT ISZERO PUSH2 0x26F2 JUMPI PUSH2 0x26F1 PUSH2 0x241F JUMP JUMPDEST JUMPDEST PUSH1 0x0 PUSH2 0x2700 DUP6 DUP3 DUP7 ADD PUSH2 0x24A8 JUMP JUMPDEST SWAP3 POP POP PUSH1 0x20 PUSH2 0x2711 DUP6 DUP3 DUP7 ADD PUSH2 0x244A JUMP JUMPDEST SWAP2 POP POP SWAP3 POP SWAP3 SWAP1 POP JUMP JUMPDEST PUSH1 0x0 DUP2 ISZERO ISZERO SWAP1 POP SWAP2 SWAP1 POP JUMP JUMPDEST PUSH2 0x2730 DUP2 PUSH2 0x271B JUMP JUMPDEST DUP3 MSTORE POP POP JUMP JUMPDEST PUSH1 0x0 PUSH1 0x20 DUP3 ADD SWAP1 POP PUSH2 0x274B PUSH1 0x0 DUP4 ADD DUP5 PUSH2 0x2727 JUMP JUMPDEST SWAP3 SWAP2 POP POP JUMP JUMPDEST PUSH2 0x275A DUP2 PUSH2 0x247F JUMP JUMPDEST DUP3 MSTORE POP POP JUMP JUMPDEST PUSH1 0x0 PUSH1 0x20 DUP3 ADD SWAP1 POP PUSH2 0x2775 PUSH1 0x0 DUP4 ADD DUP5 PUSH2 0x2751 JUMP JUMPDEST SWAP3 SWAP2 POP POP JUMP JUMPDEST PUSH2 0x2784 DUP2 PUSH2 0x2429 JUMP JUMPDEST DUP3 MSTORE POP POP JUMP JUMPDEST PUSH1 0x0 PUSH1 0x20 DUP3 ADD SWAP1 POP PUSH2 0x279F PUSH1 0x0 DUP4 ADD DUP5 PUSH2 0x277B JUMP JUMPDEST SWAP3 SWAP2 POP POP JUMP JUMPDEST PUSH1 0x0 DUP1 PUSH1 0x0 PUSH1 0x60 DUP5 DUP7 SUB SLT ISZERO PUSH2 0x27BE JUMPI PUSH2 0x27BD PUSH2 0x241F JUMP JUMPDEST JUMPDEST PUSH1 0x0 PUSH2 0x27CC DUP7 DUP3 DUP8 ADD PUSH2 0x24A8 JUMP JUMPDEST SWAP4 POP POP PUSH1 0x20 PUSH2 0x27DD DUP7 DUP3 DUP8 ADD PUSH2 0x24A8 JUMP JUMPDEST SWAP3 POP POP PUSH1 0x40 PUSH2 0x27EE DUP7 DUP3 DUP8 ADD PUSH2 0x244A JUMP JUMPDEST SWAP2 POP POP SWAP3 POP SWAP3 POP SWAP3 JUMP JUMPDEST PUSH1 0x0 DUP2 SWAP1 POP SWAP2 SWAP1 POP JUMP JUMPDEST PUSH2 0x280B DUP2 PUSH2 0x27F8 JUMP JUMPDEST DUP3 MSTORE POP POP JUMP JUMPDEST PUSH1 0x0 PUSH1 0x20 DUP3 ADD SWAP1 POP PUSH2 0x2826 PUSH1 0x0 DUP4 ADD DUP5 PUSH2 0x2802 JUMP JUMPDEST SWAP3 SWAP2 POP POP JUMP JUMPDEST PUSH1 0x0 PUSH1 0xFF DUP3 AND SWAP1 POP SWAP2 SWAP1 POP JUMP JUMPDEST PUSH2 0x2842 DUP2 PUSH2 0x282C JUMP JUMPDEST DUP3 MSTORE POP POP JUMP JUMPDEST PUSH1 0x0 PUSH1 0x20 DUP3 ADD SWAP1 POP PUSH2 0x285D PUSH1 0x0 DUP4 ADD DUP5 PUSH2 0x2839 JUMP JUMPDEST SWAP3 SWAP2 POP POP JUMP JUMPDEST PUSH1 0x0 PUSH1 0x20 DUP3 DUP5 SUB SLT ISZERO PUSH2 0x2879 JUMPI PUSH2 0x2878 PUSH2 0x241F JUMP JUMPDEST JUMPDEST PUSH1 0x0 PUSH2 0x2887 DUP5 DUP3 DUP6 ADD PUSH2 0x24A8 JUMP JUMPDEST SWAP2 POP POP SWAP3 SWAP2 POP POP JUMP JUMPDEST PUSH1 0x0 PUSH1 0x40 DUP3 ADD SWAP1 POP PUSH2 0x28A5 PUSH1 0x0 DUP4 ADD DUP6 PUSH2 0x277B JUMP JUMPDEST PUSH2 0x28B2 PUSH1 0x20 DUP4 ADD DUP5 PUSH2 0x277B JUMP JUMPDEST SWAP4 SWAP3 POP POP POP JUMP JUMPDEST PUSH2 0x28C2 DUP2 PUSH2 0x282C JUMP JUMPDEST DUP2 EQ PUSH2 0x28CD JUMPI PUSH1 0x0 DUP1 REVERT JUMPDEST POP JUMP JUMPDEST PUSH1 0x0 DUP2 CALLDATALOAD SWAP1 POP PUSH2 0x28DF DUP2 PUSH2 0x28B9 JUMP JUMPDEST SWAP3 SWAP2 POP POP JUMP JUMPDEST PUSH2 0x28EE DUP2 PUSH2 0x27F8 JUMP JUMPDEST DUP2 EQ PUSH2 0x28F9 JUMPI PUSH1 0x0 DUP1 REVERT JUMPDEST POP JUMP JUMPDEST PUSH1 0x0 DUP2 CALLDATALOAD SWAP1 POP PUSH2 0x290B DUP2 PUSH2 0x28E5 JUMP JUMPDEST SWAP3 SWAP2 POP POP JUMP JUMPDEST PUSH1 0x0 DUP1 PUSH1 0x0 DUP1 PUSH1 0x0 DUP1 PUSH1 0x0 PUSH1 0xE0 DUP9 DUP11 SUB SLT ISZERO PUSH2 0x2930 JUMPI PUSH2 0x292F PUSH2 0x241F JUMP JUMPDEST JUMPDEST PUSH1 0x0 PUSH2 0x293E DUP11 DUP3 DUP12 ADD PUSH2 0x24A8 JUMP JUMPDEST SWAP8 POP POP PUSH1 0x20 PUSH2 0x294F DUP11 DUP3 DUP12 ADD PUSH2 0x24A8 JUMP JUMPDEST SWAP7 POP POP PUSH1 0x40 PUSH2 0x2960 DUP11 DUP3 DUP12 ADD PUSH2 0x244A JUMP JUMPDEST SWAP6 POP POP PUSH1 0x60 PUSH2 0x2971 DUP11 DUP3 DUP12 ADD PUSH2 0x244A JUMP JUMPDEST SWAP5 POP POP PUSH1 0x80 PUSH2 0x2982 DUP11 DUP3 DUP12 ADD PUSH2 0x28D0 JUMP JUMPDEST SWAP4 POP POP PUSH1 0xA0 PUSH2 0x2993 DUP11 DUP3 DUP12 ADD PUSH2 0x28FC JUMP JUMPDEST SWAP3 POP POP PUSH1 0xC0 PUSH2 0x29A4 DUP11 DUP3 DUP12 ADD PUSH2 0x28FC JUMP JUMPDEST SWAP2 POP POP SWAP3 SWAP6 SWAP9 SWAP2 SWAP5 SWAP8 POP SWAP3 SWAP6 POP JUMP JUMPDEST PUSH1 0x0 DUP1 PUSH1 0x40 DUP4 DUP6 SUB SLT ISZERO PUSH2 0x29CA JUMPI PUSH2 0x29C9 PUSH2 0x241F JUMP JUMPDEST JUMPDEST PUSH1 0x0 PUSH2 0x29D8 DUP6 DUP3 DUP7 ADD PUSH2 0x24A8 JUMP JUMPDEST SWAP3 POP POP PUSH1 0x20 PUSH2 0x29E9 DUP6 DUP3 DUP7 ADD PUSH2 0x24A8 JUMP JUMPDEST SWAP2 POP POP SWAP3 POP SWAP3 SWAP1 POP JUMP JUMPDEST PUSH32 0x5061697255736474526F6E743A204C4F434B4544000000000000000000000000 PUSH1 0x0 DUP3 ADD MSTORE POP JUMP JUMPDEST PUSH1 0x0 PUSH2 0x2A29 PUSH1 0x14 DUP4 PUSH2 0x25B5 JUMP JUMPDEST SWAP2 POP PUSH2 0x2A34 DUP3 PUSH2 0x29F3 JUMP JUMPDEST PUSH1 0x20 DUP3 ADD SWAP1 POP SWAP2 SWAP1 POP JUMP JUMPDEST PUSH1 0x0 PUSH1 0x20 DUP3 ADD SWAP1 POP DUP2 DUP2 SUB PUSH1 0x0 DUP4 ADD MSTORE PUSH2 0x2A58 DUP2 PUSH2 0x2A1C JUMP JUMPDEST SWAP1 POP SWAP2 SWAP1 POP JUMP JUMPDEST PUSH32 0x5061697255736474526F6E743A20494E53554646494349454E545F4F55545055 PUSH1 0x0 DUP3 ADD MSTORE PUSH32 0x545F414D4F554E54000000000000000000000000000000000000000000000000 PUSH1 0x20 DUP3 ADD MSTORE POP JUMP JUMPDEST PUSH1 0x0 PUSH2 0x2ABB PUSH1 0x28 DUP4 PUSH2 0x25B5 JUMP JUMPDEST SWAP2 POP PUSH2 0x2AC6 DUP3 PUSH2 0x2A5F JUMP JUMPDEST PUSH1 0x40 DUP3 ADD SWAP1 POP SWAP2 SWAP1 POP JUMP JUMPDEST PUSH1 0x0 PUSH1 0x20 DUP3 ADD SWAP1 POP DUP2 DUP2 SUB PUSH1 0x0 DUP4 ADD MSTORE PUSH2 0x2AEA DUP2 PUSH2 0x2AAE JUMP JUMPDEST SWAP1 POP SWAP2 SWAP1 POP JUMP JUMPDEST PUSH32 0x5061697255736474526F6E743A20494E53554646494349454E545F4C49515549 PUSH1 0x0 DUP3 ADD MSTORE PUSH32 0x4449545900000000000000000000000000000000000000000000000000000000 PUSH1 0x20 DUP3 ADD MSTORE POP JUMP JUMPDEST PUSH1 0x0 PUSH2 0x2B4D PUSH1 0x24 DUP4 PUSH2 0x25B5 JUMP JUMPDEST SWAP2 POP PUSH2 0x2B58 DUP3 PUSH2 0x2AF1 JUMP JUMPDEST PUSH1 0x40 DUP3 ADD SWAP1 POP SWAP2 SWAP1 POP JUMP JUMPDEST PUSH1 0x0 PUSH1 0x20 DUP3 ADD SWAP1 POP DUP2 DUP2 SUB PUSH1 0x0 DUP4 ADD MSTORE PUSH2 0x2B7C DUP2 PUSH2 0x2B40 JUMP JUMPDEST SWAP1 POP SWAP2 SWAP1 POP JUMP JUMPDEST PUSH1 0x0 DUP2 SWAP1 POP SWAP3 SWAP2 POP POP JUMP JUMPDEST DUP3 DUP2 DUP4 CALLDATACOPY PUSH1 0x0 DUP4 DUP4 ADD MSTORE POP POP POP JUMP JUMPDEST PUSH1 0x0 PUSH2 0x2BA9 DUP4 DUP6 PUSH2 0x2B83 JUMP JUMPDEST SWAP4 POP PUSH2 0x2BB6 DUP4 DUP6 DUP5 PUSH2 0x2B8E JUMP JUMPDEST DUP3 DUP5 ADD SWAP1 POP SWAP4 SWAP3 POP POP POP JUMP JUMPDEST PUSH1 0x0 PUSH2 0x2BCF DUP3 DUP5 DUP7 PUSH2 0x2B9D JUMP JUMPDEST SWAP2 POP DUP2 SWAP1 POP SWAP4 SWAP3 POP POP POP JUMP JUMPDEST PUSH32 0x5061697255736474526F6E743A20494E56414C49445F544F0000000000000000 PUSH1 0x0 DUP3 ADD MSTORE POP JUMP JUMPDEST PUSH1 0x0 PUSH2 0x2C11 PUSH1 0x18 DUP4 PUSH2 0x25B5 JUMP JUMPDEST SWAP2 POP PUSH2 0x2C1C DUP3 PUSH2 0x2BDB JUMP JUMPDEST PUSH1 0x20 DUP3 ADD SWAP1 POP SWAP2 SWAP1 POP JUMP JUMPDEST PUSH1 0x0 PUSH1 0x20 DUP3 ADD SWAP1 POP DUP2 DUP2 SUB PUSH1 0x0 DUP4 ADD MSTORE PUSH2 0x2C40 DUP2 PUSH2 0x2C04 JUMP JUMPDEST SWAP1 POP SWAP2 SWAP1 POP JUMP JUMPDEST PUSH1 0x0 DUP2 MLOAD SWAP1 POP PUSH2 0x2C56 DUP2 PUSH2 0x2433 JUMP JUMPDEST SWAP3 SWAP2 POP POP JUMP JUMPDEST PUSH1 0x0 PUSH1 0x20 DUP3 DUP5 SUB SLT ISZERO PUSH2 0x2C72 JUMPI PUSH2 0x2C71 PUSH2 0x241F JUMP JUMPDEST JUMPDEST PUSH1 0x0 PUSH2 0x2C80 DUP5 DUP3 DUP6 ADD PUSH2 0x2C47 JUMP JUMPDEST SWAP2 POP POP SWAP3 SWAP2 POP POP JUMP JUMPDEST PUSH32 0x4E487B7100000000000000000000000000000000000000000000000000000000 PUSH1 0x0 MSTORE PUSH1 0x11 PUSH1 0x4 MSTORE PUSH1 0x24 PUSH1 0x0 REVERT JUMPDEST PUSH1 0x0 PUSH2 0x2CC3 DUP3 PUSH2 0x2429 JUMP JUMPDEST SWAP2 POP PUSH2 0x2CCE DUP4 PUSH2 0x2429 JUMP JUMPDEST SWAP3 POP DUP3 DUP3 SUB SWAP1 POP DUP2 DUP2 GT ISZERO PUSH2 0x2CE6 JUMPI PUSH2 0x2CE5 PUSH2 0x2C89 JUMP JUMPDEST JUMPDEST SWAP3 SWAP2 POP POP JUMP JUMPDEST PUSH32 0x5061697255736474526F6E743A20494E53554646494349454E545F494E505554 PUSH1 0x0 DUP3 ADD MSTORE PUSH32 0x5F414D4F554E5400000000000000000000000000000000000000000000000000 PUSH1 0x20 DUP3 ADD MSTORE POP JUMP JUMPDEST PUSH1 0x0 PUSH2 0x2D48 PUSH1 0x27 DUP4 PUSH2 0x25B5 JUMP JUMPDEST SWAP2 POP PUSH2 0x2D53 DUP3 PUSH2 0x2CEC JUMP JUMPDEST PUSH1 0x40 DUP3 ADD SWAP1 POP SWAP2 SWAP1 POP JUMP JUMPDEST PUSH1 0x0 PUSH1 0x20 DUP3 ADD SWAP1 POP DUP2 DUP2 SUB PUSH1 0x0 DUP4 ADD MSTORE PUSH2 0x2D77 DUP2 PUSH2 0x2D3B JUMP JUMPDEST SWAP1 POP SWAP2 SWAP1 POP JUMP JUMPDEST PUSH1 0x0 PUSH2 0x2D89 DUP3 PUSH2 0x2429 JUMP JUMPDEST SWAP2 POP PUSH2 0x2D94 DUP4 PUSH2 0x2429 JUMP JUMPDEST SWAP3 POP DUP3 DUP3 MUL PUSH2 0x2DA2 DUP2 PUSH2 0x2429 JUMP JUMPDEST SWAP2 POP DUP3 DUP3 DIV DUP5 EQ DUP4 ISZERO OR PUSH2 0x2DB9 JUMPI PUSH2 0x2DB8 PUSH2 0x2C89 JUMP JUMPDEST JUMPDEST POP SWAP3 SWAP2 POP POP JUMP JUMPDEST PUSH32 0x5061697255736474526F6E743A204B0000000000000000000000000000000000 PUSH1 0x0 DUP3 ADD MSTORE POP JUMP JUMPDEST PUSH1 0x0 PUSH2 0x2DF6 PUSH1 0xF DUP4 PUSH2 0x25B5 JUMP JUMPDEST SWAP2 POP PUSH2 0x2E01 DUP3 PUSH2 0x2DC0 JUMP JUMPDEST PUSH1 0x20 DUP3 ADD SWAP1 POP SWAP2 SWAP1 POP JUMP JUMPDEST PUSH1 0x0 PUSH1 0x20 DUP3 ADD SWAP1 POP DUP2 DUP2 SUB PUSH1 0x0 DUP4 ADD MSTORE PUSH2 0x2E25 DUP2 PUSH2 0x2DE9 JUMP JUMPDEST SWAP1 POP SWAP2 SWAP1 POP JUMP JUMPDEST PUSH32 0x4E487B7100000000000000000000000000000000000000000000000000000000 PUSH1 0x0 MSTORE PUSH1 0x12 PUSH1 0x4 MSTORE PUSH1 0x24 PUSH1 0x0 REVERT JUMPDEST PUSH1 0x0 PUSH2 0x2E66 DUP3 PUSH2 0x2429 JUMP JUMPDEST SWAP2 POP PUSH2 0x2E71 DUP4 PUSH2 0x2429 JUMP JUMPDEST SWAP3 POP DUP3 PUSH2 0x2E81 JUMPI PUSH2 0x2E80 PUSH2 0x2E2C JUMP JUMPDEST JUMPDEST DUP3 DUP3 DIV SWAP1 POP SWAP3 SWAP2 POP POP JUMP JUMPDEST PUSH32 0x5061697255736474526F6E743A20494E53554646494349454E545F4C49515549 PUSH1 0x0 DUP3 ADD MSTORE PUSH32 0x444954595F4D494E544544000000000000000000000000000000000000000000 PUSH1 0x20 DUP3 ADD MSTORE POP JUMP JUMPDEST PUSH1 0x0 PUSH2 0x2EE8 PUSH1 0x2B DUP4 PUSH2 0x25B5 JUMP JUMPDEST SWAP2 POP PUSH2 0x2EF3 DUP3 PUSH2 0x2E8C JUMP JUMPDEST PUSH1 0x40 DUP3 ADD SWAP1 POP SWAP2 SWAP1 POP JUMP JUMPDEST PUSH1 0x0 PUSH1 0x20 DUP3 ADD SWAP1 POP DUP2 DUP2 SUB PUSH1 0x0 DUP4 ADD MSTORE PUSH2 0x2F17 DUP2 PUSH2 0x2EDB JUMP JUMPDEST SWAP1 POP SWAP2 SWAP1 POP JUMP JUMPDEST PUSH32 0x5061697255736474526F6E743A20494E53554646494349454E545F4C49515549 PUSH1 0x0 DUP3 ADD MSTORE PUSH32 0x444954595F4255524E4544000000000000000000000000000000000000000000 PUSH1 0x20 DUP3 ADD MSTORE POP JUMP JUMPDEST PUSH1 0x0 PUSH2 0x2F7A PUSH1 0x2B DUP4 PUSH2 0x25B5 JUMP JUMPDEST SWAP2 POP PUSH2 0x2F85 DUP3 PUSH2 0x2F1E JUMP JUMPDEST PUSH1 0x40 DUP3 ADD SWAP1 POP SWAP2 SWAP1 POP JUMP JUMPDEST PUSH1 0x0 PUSH1 0x20 DUP3 ADD SWAP1 POP DUP2 DUP2 SUB PUSH1 0x0 DUP4 ADD MSTORE PUSH2 0x2FA9 DUP2 PUSH2 0x2F6D JUMP JUMPDEST SWAP1 POP SWAP2 SWAP1 POP JUMP JUMPDEST PUSH32 0x556E697377617056323A20455850495245440000000000000000000000000000 PUSH1 0x0 DUP3 ADD MSTORE POP JUMP JUMPDEST PUSH1 0x0 PUSH2 0x2FE6 PUSH1 0x12 DUP4 PUSH2 0x25B5 JUMP JUMPDEST SWAP2 POP PUSH2 0x2FF1 DUP3 PUSH2 0x2FB0 JUMP JUMPDEST PUSH1 0x20 DUP3 ADD SWAP1 POP SWAP2 SWAP1 POP JUMP JUMPDEST PUSH1 0x0 PUSH1 0x20 DUP3 ADD SWAP1 POP DUP2 DUP2 SUB PUSH1 0x0 DUP4 ADD MSTORE PUSH2 0x3015 DUP2 PUSH2 0x2FD9 JUMP JUMPDEST SWAP1 POP SWAP2 SWAP1 POP JUMP JUMPDEST PUSH1 0x0 PUSH2 0x3027 DUP3 PUSH2 0x2429 JUMP JUMPDEST SWAP2 POP PUSH32 0xFFFFFFFFFFFFFFFFFFFFFFFFFFFFFFFFFFFFFFFFFFFFFFFFFFFFFFFFFFFFFFFF DUP3 SUB PUSH2 0x3059 JUMPI PUSH2 0x3058 PUSH2 0x2C89 JUMP JUMPDEST JUMPDEST PUSH1 0x1 DUP3 ADD SWAP1 POP SWAP2 SWAP1 POP JUMP JUMPDEST PUSH1 0x0 PUSH1 0xC0 DUP3 ADD SWAP1 POP PUSH2 0x3079 PUSH1 0x0 DUP4 ADD DUP10 PUSH2 0x2802 JUMP JUMPDEST PUSH2 0x3086 PUSH1 0x20 DUP4 ADD DUP9 PUSH2 0x2751 JUMP JUMPDEST PUSH2 0x3093 PUSH1 0x40 DUP4 ADD DUP8 PUSH2 0x2751 JUMP JUMPDEST PUSH2 0x30A0 PUSH1 0x60 DUP4 ADD DUP7 PUSH2 0x277B JUMP JUMPDEST PUSH2 0x30AD PUSH1 0x80 DUP4 ADD DUP6 PUSH2 0x277B JUMP JUMPDEST PUSH2 0x30BA PUSH1 0xA0 DUP4 ADD DUP5 PUSH2 0x277B JUMP JUMPDEST SWAP8 SWAP7 POP POP POP POP POP POP POP JUMP JUMPDEST PUSH1 0x0 DUP2 SWAP1 POP SWAP3 SWAP2 POP POP JUMP JUMPDEST PUSH32 0x1901000000000000000000000000000000000000000000000000000000000000 PUSH1 0x0 DUP3 ADD MSTORE POP JUMP JUMPDEST PUSH1 0x0 PUSH2 0x3106 PUSH1 0x2 DUP4 PUSH2 0x30C5 JUMP JUMPDEST SWAP2 POP PUSH2 0x3111 DUP3 PUSH2 0x30D0 JUMP JUMPDEST PUSH1 0x2 DUP3 ADD SWAP1 POP SWAP2 SWAP1 POP JUMP JUMPDEST PUSH1 0x0 DUP2 SWAP1 POP SWAP2 SWAP1 POP JUMP JUMPDEST PUSH2 0x3137 PUSH2 0x3132 DUP3 PUSH2 0x27F8 JUMP JUMPDEST PUSH2 0x311C JUMP JUMPDEST DUP3 MSTORE POP POP JUMP JUMPDEST PUSH1 0x0 PUSH2 0x3148 DUP3 PUSH2 0x30F9 JUMP JUMPDEST SWAP2 POP PUSH2 0x3154 DUP3 DUP6 PUSH2 0x3126 JUMP JUMPDEST PUSH1 0x20 DUP3 ADD SWAP2 POP PUSH2 0x3164 DUP3 DUP5 PUSH2 0x3126 JUMP JUMPDEST PUSH1 0x20 DUP3 ADD SWAP2 POP DUP2 SWAP1 POP SWAP4 SWAP3 POP POP POP JUMP JUMPDEST PUSH1 0x0 PUSH1 0x80 DUP3 ADD SWAP1 POP PUSH2 0x3189 PUSH1 0x0 DUP4 ADD DUP8 PUSH2 0x2802 JUMP JUMPDEST PUSH2 0x3196 PUSH1 0x20 DUP4 ADD DUP7 PUSH2 0x2839 JUMP JUMPDEST PUSH2 0x31A3 PUSH1 0x40 DUP4 ADD DUP6 PUSH2 0x2802 JUMP JUMPDEST PUSH2 0x31B0 PUSH1 0x60 DUP4 ADD DUP5 PUSH2 0x2802 JUMP JUMPDEST SWAP6 SWAP5 POP POP POP POP POP JUMP JUMPDEST PUSH32 0x556E697377617056323A20494E56414C49445F5349474E415455524500000000 PUSH1 0x0 DUP3 ADD MSTORE POP JUMP JUMPDEST PUSH1 0x0 PUSH2 0x31EF PUSH1 0x1C DUP4 PUSH2 0x25B5 JUMP JUMPDEST SWAP2 POP PUSH2 0x31FA DUP3 PUSH2 0x31B9 JUMP JUMPDEST PUSH1 0x20 DUP3 ADD SWAP1 POP SWAP2 SWAP1 POP JUMP JUMPDEST PUSH1 0x0 PUSH1 0x20 DUP3 ADD SWAP1 POP DUP2 DUP2 SUB PUSH1 0x0 DUP4 ADD MSTORE PUSH2 0x321E DUP2 PUSH2 0x31E2 JUMP JUMPDEST SWAP1 POP SWAP2 SWAP1 POP JUMP JUMPDEST PUSH1 0x0 PUSH1 0x40 DUP3 ADD SWAP1 POP PUSH2 0x323A PUSH1 0x0 DUP4 ADD DUP6 PUSH2 0x2751 JUMP JUMPDEST PUSH2 0x3247 PUSH1 0x20 DUP4 ADD DUP5 PUSH2 0x277B JUMP JUMPDEST SWAP4 SWAP3 POP POP POP JUMP JUMPDEST PUSH1 0x0 DUP2 MLOAD SWAP1 POP SWAP2 SWAP1 POP JUMP JUMPDEST PUSH1 0x0 PUSH2 0x3264 DUP3 PUSH2 0x324E JUMP JUMPDEST PUSH2 0x326E DUP2 DUP6 PUSH2 0x2B83 JUMP JUMPDEST SWAP4 POP PUSH2 0x327E DUP2 DUP6 PUSH1 0x20 DUP7 ADD PUSH2 0x25C6 JUMP JUMPDEST DUP1 DUP5 ADD SWAP2 POP POP SWAP3 SWAP2 POP POP JUMP JUMPDEST PUSH1 0x0 PUSH2 0x3296 DUP3 DUP5 PUSH2 0x3259 JUMP JUMPDEST SWAP2 POP DUP2 SWAP1 POP SWAP3 SWAP2 POP POP JUMP JUMPDEST PUSH2 0x32AA DUP2 PUSH2 0x271B JUMP JUMPDEST DUP2 EQ PUSH2 0x32B5 JUMPI PUSH1 0x0 DUP1 REVERT JUMPDEST POP JUMP JUMPDEST PUSH1 0x0 DUP2 MLOAD SWAP1 POP PUSH2 0x32C7 DUP2 PUSH2 0x32A1 JUMP JUMPDEST SWAP3 SWAP2 POP POP JUMP JUMPDEST PUSH1 0x0 PUSH1 0x20 DUP3 DUP5 SUB SLT ISZERO PUSH2 0x32E3 JUMPI PUSH2 0x32E2 PUSH2 0x241F JUMP JUMPDEST JUMPDEST PUSH1 0x0 PUSH2 0x32F1 DUP5 DUP3 DUP6 ADD PUSH2 0x32B8 JUMP JUMPDEST SWAP2 POP POP SWAP3 SWAP2 POP POP JUMP JUMPDEST PUSH32 0x5061697255736474526F6E743A205452414E534645525F4641494C4544000000 PUSH1 0x0 DUP3 ADD MSTORE POP JUMP JUMPDEST PUSH1 0x0 PUSH2 0x3330 PUSH1 0x1D DUP4 PUSH2 0x25B5 JUMP JUMPDEST SWAP2 POP PUSH2 0x333B DUP3 PUSH2 0x32FA JUMP JUMPDEST PUSH1 0x20 DUP3 ADD SWAP1 POP SWAP2 SWAP1 POP JUMP JUMPDEST PUSH1 0x0 PUSH1 0x20 DUP3 ADD SWAP1 POP DUP2 DUP2 SUB PUSH1 0x0 DUP4 ADD MSTORE PUSH2 0x335F DUP2 PUSH2 0x3323 JUMP JUMPDEST SWAP1 POP SWAP2 SWAP1 POP JUMP JUMPDEST PUSH1 0x0 PUSH2 0x3371 DUP3 PUSH2 0x2429 JUMP JUMPDEST SWAP2 POP PUSH2 0x337C DUP4 PUSH2 0x2429 JUMP JUMPDEST SWAP3 POP DUP3 PUSH2 0x338C JUMPI PUSH2 0x338B PUSH2 0x2E2C JUMP JUMPDEST JUMPDEST DUP3 DUP3 MOD SWAP1 POP SWAP3 SWAP2 POP POP JUMP JUMPDEST PUSH1 0x0 PUSH2 0x33A2 DUP3 PUSH2 0x2685 JUMP JUMPDEST SWAP2 POP PUSH2 0x33AD DUP4 PUSH2 0x2685 JUMP JUMPDEST SWAP3 POP DUP3 DUP3 SUB SWAP1 POP PUSH4 0xFFFFFFFF DUP2 GT ISZERO PUSH2 0x33C9 JUMPI PUSH2 0x33C8 PUSH2 0x2C89 JUMP JUMPDEST JUMPDEST SWAP3 SWAP2 POP POP JUMP JUMPDEST PUSH1 0x0 PUSH28 0xFFFFFFFFFFFFFFFFFFFFFFFFFFFFFFFFFFFFFFFFFFFFFFFFFFFFFFFF DUP3 AND SWAP1 POP SWAP2 SWAP1 POP JUMP JUMPDEST PUSH1 0x0 PUSH2 0x3402 DUP3 PUSH2 0x33CF JUMP JUMPDEST SWAP2 POP PUSH2 0x340D DUP4 PUSH2 0x33CF JUMP JUMPDEST SWAP3 POP DUP3 PUSH2 0x341D JUMPI PUSH2 0x341C PUSH2 0x2E2C JUMP JUMPDEST JUMPDEST DUP3 DUP3 DIV SWAP1 POP SWAP3 SWAP2 POP POP JUMP JUMPDEST PUSH1 0x0 PUSH2 0x3433 DUP3 PUSH2 0x2429 JUMP JUMPDEST SWAP2 POP PUSH2 0x343E DUP4 PUSH2 0x2429 JUMP JUMPDEST SWAP3 POP DUP3 DUP3 ADD SWAP1 POP DUP1 DUP3 GT ISZERO PUSH2 0x3456 JUMPI PUSH2 0x3455 PUSH2 0x2C89 JUMP JUMPDEST JUMPDEST SWAP3 SWAP2 POP POP JUMP JUMPDEST PUSH1 0x0 PUSH2 0x3467 DUP3 PUSH2 0x33CF JUMP JUMPDEST SWAP2 POP PUSH2 0x3472 DUP4 PUSH2 0x33CF JUMP JUMPDEST SWAP3 POP DUP3 DUP3 MUL PUSH2 0x3480 DUP2 PUSH2 0x33CF JUMP JUMPDEST SWAP2 POP DUP3 DUP3 DIV DUP5 EQ DUP4 ISZERO OR PUSH2 0x3497 JUMPI PUSH2 0x3496 PUSH2 0x2C89 JUMP JUMPDEST JUMPDEST POP SWAP3 SWAP2 POP POP JUMP INVALID LOG2 PUSH5 0x6970667358 0x22 SLT KECCAK256 0xE KECCAK256 LOG4 0xE0 GT 0xB6 0xF8 0x1F 0xD4 CALL SDIV 0x4E RETURNDATACOPY POP PUSH25 0x275B0BB44AC03605CFD2528E3C23D91B0F64736F6C63430008 SLT STOP CALLER "
		},
		"gasEstimates": {
			"creation": {
				"codeDepositCost": "2704800",
				"executionCost": "infinite",
				"totalCost": "infinite"
			},
			"external": {
				"DOMAIN_SEPARATOR()": "2518",
				"MINIMUM_LIQUIDITY()": "396",
				"PERMIT_TYPEHASH()": "380",
				"allowance(address,address)": "infinite",
				"approve(address,uint256)": "23252",
				"balanceOf(address)": "2859",
				"burn(address)": "infinite",
				"decimals()": "402",
				"getReserves()": "infinite",
				"kLast()": "2496",
				"mint(address)": "infinite",
				"name()": "infinite",
				"nonces(address)": "2903",
				"permit(address,address,uint256,uint256,uint8,bytes32,bytes32)": "infinite",
				"price0CumulativeLast()": "2540",
				"price1CumulativeLast()": "2562",
				"skim(address)": "infinite",
				"swap(uint256,uint256,address,bytes)": "infinite",
				"symbol()": "infinite",
				"sync()": "infinite",
				"token0()": "2626",
				"token1()": "2558",
				"totalSupply()": "2563",
				"transfer(address,uint256)": "infinite",
				"transferFrom(address,address,uint256)": "infinite"
			},
			"internal": {
				"_approve(address,address,uint256)": "22315",
				"_burn(address,uint256)": "infinite",
				"_mint(address,uint256)": "infinite",
				"_mintFee(uint112,uint112)": "infinite",
				"_safeTransfer(address,address,uint256)": "infinite",
				"_transfer(address,address,uint256)": "infinite",
				"_update(uint256,uint256,uint112,uint112)": "infinite",
				"encode(uint112)": "infinite",
				"min(uint256,uint256)": "64",
				"sqrt(uint256)": "infinite"
			}
		},
		"methodIdentifiers": {
			"DOMAIN_SEPARATOR()": "3644e515",
			"MINIMUM_LIQUIDITY()": "ba9a7a56",
			"PERMIT_TYPEHASH()": "30adf81f",
			"allowance(address,address)": "dd62ed3e",
			"approve(address,uint256)": "095ea7b3",
			"balanceOf(address)": "70a08231",
			"burn(address)": "89afcb44",
			"decimals()": "313ce567",
			"getReserves()": "0902f1ac",
			"kLast()": "7464fc3d",
			"mint(address)": "6a627842",
			"name()": "06fdde03",
			"nonces(address)": "7ecebe00",
			"permit(address,address,uint256,uint256,uint8,bytes32,bytes32)": "d505accf",
			"price0CumulativeLast()": "5909c0d5",
			"price1CumulativeLast()": "5a3d5493",
			"skim(address)": "bc25cf77",
			"swap(uint256,uint256,address,bytes)": "022c0d9f",
			"symbol()": "95d89b41",
			"sync()": "fff6cae9",
			"token0()": "0dfe1681",
			"token1()": "d21220a7",
			"totalSupply()": "18160ddd",
			"transfer(address,uint256)": "a9059cbb",
			"transferFrom(address,address,uint256)": "23b872dd"
		}
	},
	"abi": [
		{
			"inputs": [],
			"stateMutability": "nonpayable",
			"type": "constructor"
		},
		{
			"anonymous": false,
			"inputs": [
				{
					"indexed": true,
					"internalType": "string",
					"name": "msg",
					"type": "string"
				}
			],
			"name": "Log",
			"type": "event"
		},
		{
			"anonymous": false,
			"inputs": [
				{
					"indexed": true,
					"internalType": "bytes",
					"name": "msg",
					"type": "bytes"
				}
			],
			"name": "LogBytes",
			"type": "event"
		},
		{
			"inputs": [],
			"name": "DOMAIN_SEPARATOR",
			"outputs": [
				{
					"internalType": "bytes32",
					"name": "",
					"type": "bytes32"
				}
			],
			"stateMutability": "view",
			"type": "function"
		},
		{
			"inputs": [],
			"name": "MINIMUM_LIQUIDITY",
			"outputs": [
				{
					"internalType": "uint256",
					"name": "",
					"type": "uint256"
				}
			],
			"stateMutability": "view",
			"type": "function"
		},
		{
			"inputs": [],
			"name": "PERMIT_TYPEHASH",
			"outputs": [
				{
					"internalType": "bytes32",
					"name": "",
					"type": "bytes32"
				}
			],
			"stateMutability": "view",
			"type": "function"
		},
		{
			"inputs": [
				{
					"internalType": "address",
					"name": "",
					"type": "address"
				},
				{
					"internalType": "address",
					"name": "",
					"type": "address"
				}
			],
			"name": "allowance",
			"outputs": [
				{
					"internalType": "uint256",
					"name": "",
					"type": "uint256"
				}
			],
			"stateMutability": "view",
			"type": "function"
		},
		{
			"inputs": [
				{
					"internalType": "address",
					"name": "spender",
					"type": "address"
				},
				{
					"internalType": "uint256",
					"name": "value",
					"type": "uint256"
				}
			],
			"name": "approve",
			"outputs": [
				{
					"internalType": "bool",
					"name": "",
					"type": "bool"
				}
			],
			"stateMutability": "nonpayable",
			"type": "function"
		},
		{
			"inputs": [
				{
					"internalType": "address",
					"name": "",
					"type": "address"
				}
			],
			"name": "balanceOf",
			"outputs": [
				{
					"internalType": "uint256",
					"name": "",
					"type": "uint256"
				}
			],
			"stateMutability": "view",
			"type": "function"
		},
		{
			"inputs": [
				{
					"internalType": "address",
					"name": "to",
					"type": "address"
				}
			],
			"name": "burn",
			"outputs": [
				{
					"internalType": "uint256",
					"name": "amount0",
					"type": "uint256"
				},
				{
					"internalType": "uint256",
					"name": "amount1",
					"type": "uint256"
				}
			],
			"stateMutability": "nonpayable",
			"type": "function"
		},
		{
			"inputs": [],
			"name": "decimals",
			"outputs": [
				{
					"internalType": "uint8",
					"name": "",
					"type": "uint8"
				}
			],
			"stateMutability": "view",
			"type": "function"
		},
		{
			"inputs": [],
			"name": "getReserves",
			"outputs": [
				{
					"internalType": "uint112",
					"name": "_reserve0",
					"type": "uint112"
				},
				{
					"internalType": "uint112",
					"name": "_reserve1",
					"type": "uint112"
				},
				{
					"internalType": "uint32",
					"name": "_blockTimestampLast",
					"type": "uint32"
				}
			],
			"stateMutability": "view",
			"type": "function"
		},
		{
			"inputs": [],
			"name": "kLast",
			"outputs": [
				{
					"internalType": "uint256",
					"name": "",
					"type": "uint256"
				}
			],
			"stateMutability": "view",
			"type": "function"
		},
		{
			"inputs": [
				{
					"internalType": "address",
					"name": "to",
					"type": "address"
				}
			],
			"name": "mint",
			"outputs": [
				{
					"internalType": "uint256",
					"name": "liquidity",
					"type": "uint256"
				}
			],
			"stateMutability": "nonpayable",
			"type": "function"
		},
		{
			"inputs": [],
			"name": "name",
			"outputs": [
				{
					"internalType": "string",
					"name": "",
					"type": "string"
				}
			],
			"stateMutability": "view",
			"type": "function"
		},
		{
			"inputs": [
				{
					"internalType": "address",
					"name": "",
					"type": "address"
				}
			],
			"name": "nonces",
			"outputs": [
				{
					"internalType": "uint256",
					"name": "",
					"type": "uint256"
				}
			],
			"stateMutability": "view",
			"type": "function"
		},
		{
			"inputs": [
				{
					"internalType": "address",
					"name": "owner",
					"type": "address"
				},
				{
					"internalType": "address",
					"name": "spender",
					"type": "address"
				},
				{
					"internalType": "uint256",
					"name": "value",
					"type": "uint256"
				},
				{
					"internalType": "uint256",
					"name": "deadline",
					"type": "uint256"
				},
				{
					"internalType": "uint8",
					"name": "v",
					"type": "uint8"
				},
				{
					"internalType": "bytes32",
					"name": "r",
					"type": "bytes32"
				},
				{
					"internalType": "bytes32",
					"name": "s",
					"type": "bytes32"
				}
			],
			"name": "permit",
			"outputs": [],
			"stateMutability": "nonpayable",
			"type": "function"
		},
		{
			"inputs": [],
			"name": "price0CumulativeLast",
			"outputs": [
				{
					"internalType": "uint256",
					"name": "",
					"type": "uint256"
				}
			],
			"stateMutability": "view",
			"type": "function"
		},
		{
			"inputs": [],
			"name": "price1CumulativeLast",
			"outputs": [
				{
					"internalType": "uint256",
					"name": "",
					"type": "uint256"
				}
			],
			"stateMutability": "view",
			"type": "function"
		},
		{
			"inputs": [
				{
					"internalType": "address",
					"name": "to",
					"type": "address"
				}
			],
			"name": "skim",
			"outputs": [],
			"stateMutability": "nonpayable",
			"type": "function"
		},
		{
			"inputs": [
				{
					"internalType": "uint256",
					"name": "amount0Out",
					"type": "uint256"
				},
				{
					"internalType": "uint256",
					"name": "amount1Out",
					"type": "uint256"
				},
				{
					"internalType": "address",
					"name": "to",
					"type": "address"
				},
				{
					"internalType": "bytes",
					"name": "data",
					"type": "bytes"
				}
			],
			"name": "swap",
			"outputs": [],
			"stateMutability": "nonpayable",
			"type": "function"
		},
		{
			"inputs": [],
			"name": "symbol",
			"outputs": [
				{
					"internalType": "string",
					"name": "",
					"type": "string"
				}
			],
			"stateMutability": "view",
			"type": "function"
		},
		{
			"inputs": [],
			"name": "sync",
			"outputs": [],
			"stateMutability": "nonpayable",
			"type": "function"
		},
		{
			"inputs": [],
			"name": "token0",
			"outputs": [
				{
					"internalType": "address",
					"name": "",
					"type": "address"
				}
			],
			"stateMutability": "view",
			"type": "function"
		},
		{
			"inputs": [],
			"name": "token1",
			"outputs": [
				{
					"internalType": "address",
					"name": "",
					"type": "address"
				}
			],
			"stateMutability": "view",
			"type": "function"
		},
		{
			"inputs": [],
			"name": "totalSupply",
			"outputs": [
				{
					"internalType": "uint256",
					"name": "",
					"type": "uint256"
				}
			],
			"stateMutability": "view",
			"type": "function"
		},
		{
			"inputs": [
				{
					"internalType": "address",
					"name": "to",
					"type": "address"
				},
				{
					"internalType": "uint256",
					"name": "value",
					"type": "uint256"
				}
			],
			"name": "transfer",
			"outputs": [
				{
					"internalType": "bool",
					"name": "",
					"type": "bool"
				}
			],
			"stateMutability": "nonpayable",
			"type": "function"
		},
		{
			"inputs": [
				{
					"internalType": "address",
					"name": "from",
					"type": "address"
				},
				{
					"internalType": "address",
					"name": "to",
					"type": "address"
				},
				{
					"internalType": "uint256",
					"name": "value",
					"type": "uint256"
				}
			],
			"name": "transferFrom",
			"outputs": [
				{
					"internalType": "bool",
					"name": "",
					"type": "bool"
				}
			],
			"stateMutability": "nonpayable",
			"type": "function"
		}
	]
}