{
	"GoWorkspace/github.com/hdlabs-ro/sc_base/ours/TestLogger.sol": {
		"TestLogger": {
			"abi": [
				{
					"inputs": [],
					"name": "LogString",
					"outputs": [],
					"stateMutability": "nonpayable",
					"type": "function"
				}
			],
			"devdoc": {
				"kind": "dev",
				"methods": {},
				"version": 1
			},
			"evm": {
				"assembly": "    /* \"GoWorkspace/github.com/hdlabs-ro/sc_base/ours/TestLogger.sol\":255:455  contract TestLogger {... */\n  mstore(0x40, 0x80)\n  callvalue\n  dup1\n  iszero\n  tag_1\n  jumpi\n  0x00\n  dup1\n  revert\ntag_1:\n  pop\n  dataSize(sub_0)\n  dup1\n  dataOffset(sub_0)\n  0x00\n  codecopy\n  0x00\n  return\nstop\n\nsub_0: assembly {\n        /* \"GoWorkspace/github.com/hdlabs-ro/sc_base/ours/TestLogger.sol\":255:455  contract TestLogger {... */\n      mstore(0x40, 0x80)\n      callvalue\n      dup1\n      iszero\n      tag_1\n      jumpi\n      0x00\n      dup1\n      revert\n    tag_1:\n      pop\n      jumpi(tag_2, lt(calldatasize, 0x04))\n      shr(0xe0, calldataload(0x00))\n      dup1\n      0x73cbd02d\n      eq\n      tag_3\n      jumpi\n    tag_2:\n      0x00\n      dup1\n      revert\n        /* \"GoWorkspace/github.com/hdlabs-ro/sc_base/ours/TestLogger.sol\":281:453  function LogString() external {... */\n    tag_3:\n      tag_4\n      tag_5\n      jump\t// in\n    tag_4:\n      stop\n    tag_5:\n        /* \"GoWorkspace/github.com/hdlabs-ro/sc_base/ours/TestLogger.sol\":321:342  address loggerAddress */\n      0x00\n        /* \"GoWorkspace/github.com/hdlabs-ro/sc_base/ours/TestLogger.sol\":345:387  0xD0DA387609Adc13779badAf1315a4904CD40976E */\n      0xd0da387609adc13779badaf1315a4904cd40976e\n        /* \"GoWorkspace/github.com/hdlabs-ro/sc_base/ours/TestLogger.sol\":321:387  address loggerAddress = 0xD0DA387609Adc13779badAf1315a4904CD40976E */\n      swap1\n      pop\n        /* \"GoWorkspace/github.com/hdlabs-ro/sc_base/ours/TestLogger.sol\":406:419  loggerAddress */\n      dup1\n        /* \"GoWorkspace/github.com/hdlabs-ro/sc_base/ours/TestLogger.sol\":398:430  ILogger(loggerAddress).LogString */\n      0xffffffffffffffffffffffffffffffffffffffff\n      and\n      0x11a4d282\n        /* \"GoWorkspace/github.com/hdlabs-ro/sc_base/ours/TestLogger.sol\":398:446  ILogger(loggerAddress).LogString(\"\", \"\", \"\", \"\") */\n      mload(0x40)\n      dup2\n      0xffffffff\n      and\n      0xe0\n      shl\n      dup2\n      mstore\n      0x04\n      add\n      tag_7\n      swap1\n      tag_8\n      jump\t// in\n    tag_7:\n      0x00\n      mload(0x40)\n      dup1\n      dup4\n      sub\n      dup2\n      0x00\n      dup8\n      dup1\n      extcodesize\n      iszero\n      dup1\n      iszero\n      tag_9\n      jumpi\n      0x00\n      dup1\n      revert\n    tag_9:\n      pop\n      gas\n      call\n      iszero\n      dup1\n      iszero\n      tag_11\n      jumpi\n      returndatasize\n      0x00\n      dup1\n      returndatacopy\n      revert(0x00, returndatasize)\n    tag_11:\n      pop\n      pop\n      pop\n      pop\n        /* \"GoWorkspace/github.com/hdlabs-ro/sc_base/ours/TestLogger.sol\":311:453  {... */\n      pop\n        /* \"GoWorkspace/github.com/hdlabs-ro/sc_base/ours/TestLogger.sol\":281:453  function LogString() external {... */\n      jump\t// out\n        /* \"#utility.yul\":7:176   */\n    tag_12:\n        /* \"#utility.yul\":91:102   */\n      0x00\n        /* \"#utility.yul\":125:131   */\n      dup3\n        /* \"#utility.yul\":120:123   */\n      dup3\n        /* \"#utility.yul\":113:132   */\n      mstore\n        /* \"#utility.yul\":165:169   */\n      0x20\n        /* \"#utility.yul\":160:163   */\n      dup3\n        /* \"#utility.yul\":156:170   */\n      add\n        /* \"#utility.yul\":141:170   */\n      swap1\n      pop\n        /* \"#utility.yul\":7:176   */\n      swap3\n      swap2\n      pop\n      pop\n      jump\t// out\n        /* \"#utility.yul\":182:296   */\n    tag_13:\n      pop\n      jump\t// out\n        /* \"#utility.yul\":302:666   */\n    tag_14:\n        /* \"#utility.yul\":444:447   */\n      0x00\n        /* \"#utility.yul\":465:531   */\n      tag_19\n        /* \"#utility.yul\":529:530   */\n      0x00\n        /* \"#utility.yul\":524:527   */\n      dup4\n        /* \"#utility.yul\":465:531   */\n      tag_12\n      jump\t// in\n    tag_19:\n        /* \"#utility.yul\":458:531   */\n      swap2\n      pop\n        /* \"#utility.yul\":540:633   */\n      tag_20\n        /* \"#utility.yul\":629:632   */\n      dup3\n        /* \"#utility.yul\":540:633   */\n      tag_13\n      jump\t// in\n    tag_20:\n        /* \"#utility.yul\":658:659   */\n      0x00\n        /* \"#utility.yul\":653:656   */\n      dup3\n        /* \"#utility.yul\":649:660   */\n      add\n        /* \"#utility.yul\":642:660   */\n      swap1\n      pop\n        /* \"#utility.yul\":302:666   */\n      swap2\n      swap1\n      pop\n      jump\t// out\n        /* \"#utility.yul\":672:2013   */\n    tag_8:\n        /* \"#utility.yul\":1141:1145   */\n      0x00\n        /* \"#utility.yul\":1179:1182   */\n      0x80\n        /* \"#utility.yul\":1168:1177   */\n      dup3\n        /* \"#utility.yul\":1164:1183   */\n      add\n        /* \"#utility.yul\":1156:1183   */\n      swap1\n      pop\n        /* \"#utility.yul\":1229:1238   */\n      dup2\n        /* \"#utility.yul\":1223:1227   */\n      dup2\n        /* \"#utility.yul\":1219:1239   */\n      sub\n        /* \"#utility.yul\":1215:1216   */\n      0x00\n        /* \"#utility.yul\":1204:1213   */\n      dup4\n        /* \"#utility.yul\":1200:1217   */\n      add\n        /* \"#utility.yul\":1193:1240   */\n      mstore\n        /* \"#utility.yul\":1257:1388   */\n      tag_22\n        /* \"#utility.yul\":1383:1387   */\n      dup2\n        /* \"#utility.yul\":1257:1388   */\n      tag_14\n      jump\t// in\n    tag_22:\n        /* \"#utility.yul\":1249:1388   */\n      swap1\n      pop\n        /* \"#utility.yul\":1435:1444   */\n      dup2\n        /* \"#utility.yul\":1429:1433   */\n      dup2\n        /* \"#utility.yul\":1425:1445   */\n      sub\n        /* \"#utility.yul\":1420:1422   */\n      0x20\n        /* \"#utility.yul\":1409:1418   */\n      dup4\n        /* \"#utility.yul\":1405:1423   */\n      add\n        /* \"#utility.yul\":1398:1446   */\n      mstore\n        /* \"#utility.yul\":1463:1594   */\n      tag_23\n        /* \"#utility.yul\":1589:1593   */\n      dup2\n        /* \"#utility.yul\":1463:1594   */\n      tag_14\n      jump\t// in\n    tag_23:\n        /* \"#utility.yul\":1455:1594   */\n      swap1\n      pop\n        /* \"#utility.yul\":1641:1650   */\n      dup2\n        /* \"#utility.yul\":1635:1639   */\n      dup2\n        /* \"#utility.yul\":1631:1651   */\n      sub\n        /* \"#utility.yul\":1626:1628   */\n      0x40\n        /* \"#utility.yul\":1615:1624   */\n      dup4\n        /* \"#utility.yul\":1611:1629   */\n      add\n        /* \"#utility.yul\":1604:1652   */\n      mstore\n        /* \"#utility.yul\":1669:1800   */\n      tag_24\n        /* \"#utility.yul\":1795:1799   */\n      dup2\n        /* \"#utility.yul\":1669:1800   */\n      tag_14\n      jump\t// in\n    tag_24:\n        /* \"#utility.yul\":1661:1800   */\n      swap1\n      pop\n        /* \"#utility.yul\":1847:1856   */\n      dup2\n        /* \"#utility.yul\":1841:1845   */\n      dup2\n        /* \"#utility.yul\":1837:1857   */\n      sub\n        /* \"#utility.yul\":1832:1834   */\n      0x60\n        /* \"#utility.yul\":1821:1830   */\n      dup4\n        /* \"#utility.yul\":1817:1835   */\n      add\n        /* \"#utility.yul\":1810:1858   */\n      mstore\n        /* \"#utility.yul\":1875:2006   */\n      tag_25\n        /* \"#utility.yul\":2001:2005   */\n      dup2\n        /* \"#utility.yul\":1875:2006   */\n      tag_14\n      jump\t// in\n    tag_25:\n        /* \"#utility.yul\":1867:2006   */\n      swap1\n      pop\n        /* \"#utility.yul\":672:2013   */\n      swap2\n      swap1\n      pop\n      jump\t// out\n\n    auxdata: 0xa26469706673582212207be6d0c84e9013e4f73a839a057e67ce947969a39f89b99a836df28b2571358064736f6c63430008110033\n}\n",
				"bytecode": {
					"linkReferences": {},
					"object": "608060405234801561001057600080fd5b50610185806100206000396000f3fe608060405234801561001057600080fd5b506004361061002b5760003560e01c806373cbd02d14610030575b600080fd5b61003861003a565b005b600073d0da387609adc13779badaf1315a4904cd40976e90508073ffffffffffffffffffffffffffffffffffffffff166311a4d2826040518163ffffffff1660e01b815260040161008a906100f6565b600060405180830381600087803b1580156100a457600080fd5b505af11580156100b8573d6000803e3d6000fd5b5050505050565b600082825260208201905092915050565b50565b60006100e06000836100bf565b91506100eb826100d0565b600082019050919050565b6000608082019050818103600083015261010f816100d3565b90508181036020830152610122816100d3565b90508181036040830152610135816100d3565b90508181036060830152610148816100d3565b905091905056fea26469706673582212207be6d0c84e9013e4f73a839a057e67ce947969a39f89b99a836df28b2571358064736f6c63430008110033",
					"opcodes": "PUSH1 0x80 PUSH1 0x40 MSTORE CALLVALUE DUP1 ISZERO PUSH2 0x10 JUMPI PUSH1 0x0 DUP1 REVERT JUMPDEST POP PUSH2 0x185 DUP1 PUSH2 0x20 PUSH1 0x0 CODECOPY PUSH1 0x0 RETURN INVALID PUSH1 0x80 PUSH1 0x40 MSTORE CALLVALUE DUP1 ISZERO PUSH2 0x10 JUMPI PUSH1 0x0 DUP1 REVERT JUMPDEST POP PUSH1 0x4 CALLDATASIZE LT PUSH2 0x2B JUMPI PUSH1 0x0 CALLDATALOAD PUSH1 0xE0 SHR DUP1 PUSH4 0x73CBD02D EQ PUSH2 0x30 JUMPI JUMPDEST PUSH1 0x0 DUP1 REVERT JUMPDEST PUSH2 0x38 PUSH2 0x3A JUMP JUMPDEST STOP JUMPDEST PUSH1 0x0 PUSH20 0xD0DA387609ADC13779BADAF1315A4904CD40976E SWAP1 POP DUP1 PUSH20 0xFFFFFFFFFFFFFFFFFFFFFFFFFFFFFFFFFFFFFFFF AND PUSH4 0x11A4D282 PUSH1 0x40 MLOAD DUP2 PUSH4 0xFFFFFFFF AND PUSH1 0xE0 SHL DUP2 MSTORE PUSH1 0x4 ADD PUSH2 0x8A SWAP1 PUSH2 0xF6 JUMP JUMPDEST PUSH1 0x0 PUSH1 0x40 MLOAD DUP1 DUP4 SUB DUP2 PUSH1 0x0 DUP8 DUP1 EXTCODESIZE ISZERO DUP1 ISZERO PUSH2 0xA4 JUMPI PUSH1 0x0 DUP1 REVERT JUMPDEST POP GAS CALL ISZERO DUP1 ISZERO PUSH2 0xB8 JUMPI RETURNDATASIZE PUSH1 0x0 DUP1 RETURNDATACOPY RETURNDATASIZE PUSH1 0x0 REVERT JUMPDEST POP POP POP POP POP JUMP JUMPDEST PUSH1 0x0 DUP3 DUP3 MSTORE PUSH1 0x20 DUP3 ADD SWAP1 POP SWAP3 SWAP2 POP POP JUMP JUMPDEST POP JUMP JUMPDEST PUSH1 0x0 PUSH2 0xE0 PUSH1 0x0 DUP4 PUSH2 0xBF JUMP JUMPDEST SWAP2 POP PUSH2 0xEB DUP3 PUSH2 0xD0 JUMP JUMPDEST PUSH1 0x0 DUP3 ADD SWAP1 POP SWAP2 SWAP1 POP JUMP JUMPDEST PUSH1 0x0 PUSH1 0x80 DUP3 ADD SWAP1 POP DUP2 DUP2 SUB PUSH1 0x0 DUP4 ADD MSTORE PUSH2 0x10F DUP2 PUSH2 0xD3 JUMP JUMPDEST SWAP1 POP DUP2 DUP2 SUB PUSH1 0x20 DUP4 ADD MSTORE PUSH2 0x122 DUP2 PUSH2 0xD3 JUMP JUMPDEST SWAP1 POP DUP2 DUP2 SUB PUSH1 0x40 DUP4 ADD MSTORE PUSH2 0x135 DUP2 PUSH2 0xD3 JUMP JUMPDEST SWAP1 POP DUP2 DUP2 SUB PUSH1 0x60 DUP4 ADD MSTORE PUSH2 0x148 DUP2 PUSH2 0xD3 JUMP JUMPDEST SWAP1 POP SWAP2 SWAP1 POP JUMP INVALID LOG2 PUSH5 0x6970667358 0x22 SLT KECCAK256 PUSH28 0xE6D0C84E9013E4F73A839A057E67CE947969A39F89B99A836DF28B25 PUSH18 0x358064736F6C634300081100330000000000 "
				},
				"gasEstimates": {
					"creation": {
						"codeDepositCost": "77800",
						"executionCost": "129",
						"totalCost": "77929"
					},
					"external": {
						"LogString()": "infinite"
					}
				},
				"methodIdentifiers": {
					"LogString()": "73cbd02d"
				}
			},
			"storageLayout": {
				"storage": [],
				"types": null
			},
			"userdoc": {
				"kind": "user",
				"methods": {},
				"version": 1
			}
		}
	}
}