{
	"data": {
		"bytecode": {
			"linkReferences": {},
			"object": "61012060405234801561001157600080fd5b50733c16cf6cc170a4a5c1fd82490f21bb01f9682c3873ffffffffffffffffffffffffffffffffffffffff1660808173ffffffffffffffffffffffffffffffffffffffff168152505073fce02b33a21b8dcd5073ab42b4b80f4f002ea77b73ffffffffffffffffffffffffffffffffffffffff1660a08173ffffffffffffffffffffffffffffffffffffffff168152505073d0da387609adc13779badaf1315a4904cd40976e73ffffffffffffffffffffffffffffffffffffffff1660c08173ffffffffffffffffffffffffffffffffffffffff168152505073d1f9c3397ea04d3de7f002cb9e63cb49d0deaa3673ffffffffffffffffffffffffffffffffffffffff1660e08173ffffffffffffffffffffffffffffffffffffffff1681525050733f7e06a4f8061b0389fe0551a2e33376f2ba02ee73ffffffffffffffffffffffffffffffffffffffff166101008173ffffffffffffffffffffffffffffffffffffffff168152505060805160a05160c05160e0516101005161604862000341600039600061220e01526000612b3e015260006110420152600081816101a701528181610802015281816108400152818161093d01528181610bee015281816110ac01528181611351015281816114670152818161188301528181611a4201528181611b2101528181611c0601528181611d9401528181611e3001528181612232015281816122b60152818161236b0152818161244f0152818161250a0152818161258b01528181612bc101528181612e2901528181612e8201528181612eb601528181612f37015281816130d20152818161325401526132f0015260008181610a0401528181610b0901528181610ce101528181610d1901528181610e4d01528181610f52015281816111730152818161126c01528181611445015281816115bb0152818161197701528181611cbf01528181611e6f015281816120250152818161211e015281816125ca0152818161290201528181612b1a01528181612b6701528181612b9f01528181612d0c01528181612e600152818161318b0152818161332f01528181613c8701528181613cdb01528181613ff0015281816141f501526145fd01526160486000f3fe6080604052600436106101a05760003560e01c80638803dbee116100ec578063c45a01551161008a578063ded9382a11610064578063ded9382a146106d6578063e8e3370014610714578063f305d71914610753578063fb3bdb411461078557610203565b8063c45a015514610643578063c54e44eb1461066e578063d06ca61f1461069957610203565b8063ad615dec116100c6578063ad615dec1461056f578063af2979eb146105ac578063b6f9de95146105e9578063baa2abde1461060557610203565b80638803dbee146104dc578063a7c37aaa14610519578063ad5c46481461054457610203565b80634624fc34116101595780635c11d795116101335780635c11d7951461041d578063791ac947146104465780637ff36ab51461046f57806385f8c2591461049f57610203565b80634624fc34146103785780634a25d94a146103a35780635b0d5984146103e057610203565b806302751cec14610208578063054d50d41461024657806318cbafe5146102835780631f00ca74146102c05780632195995c146102fd57806338ed17391461033b57610203565b36610203577f000000000000000000000000000000000000000000000000000000000000000073ffffffffffffffffffffffffffffffffffffffff163373ffffffffffffffffffffffffffffffffffffffff161461020157610200614834565b5b005b600080fd5b34801561021457600080fd5b5061022f600480360381019061022a919061490b565b6107b5565b60405161023d9291906149a7565b60405180910390f35b34801561025257600080fd5b5061026d600480360381019061026891906149d0565b6108df565b60405161027a9190614a23565b60405180910390f35b34801561028f57600080fd5b506102aa60048036038101906102a59190614aa3565b6108f5565b6040516102b79190614bfb565b60405180910390f35b3480156102cc57600080fd5b506102e760048036038101906102e29190614d6c565b610cda565b6040516102f49190614bfb565b60405180910390f35b34801561030957600080fd5b50610324600480360381019061031f9190614e6f565b610d0f565b6040516103329291906149a7565b60405180910390f35b34801561034757600080fd5b50610362600480360381019061035d9190614aa3565b610e02565b60405161036f9190614bfb565b60405180910390f35b34801561038457600080fd5b5061038d611040565b60405161039a9190614f72565b60405180910390f35b3480156103af57600080fd5b506103ca60048036038101906103c59190614aa3565b611064565b6040516103d79190614bfb565b60405180910390f35b3480156103ec57600080fd5b5061040760048036038101906104029190614f8d565b61143d565b6040516104149190614a23565b60405180910390f35b34801561042957600080fd5b50610444600480360381019061043f9190614aa3565b611545565b005b34801561045257600080fd5b5061046d60048036038101906104689190614aa3565b61183d565b005b6104896004803603810190610484919061506c565b611bbe565b6040516104969190614bfb565b60405180910390f35b3480156104ab57600080fd5b506104c660048036038101906104c191906149d0565b611fc4565b6040516104d39190614a23565b60405180910390f35b3480156104e857600080fd5b5061050360048036038101906104fe9190614aa3565b611fda565b6040516105109190614bfb565b60405180910390f35b34801561052557600080fd5b5061052e61220c565b60405161053b9190614f72565b60405180910390f35b34801561055057600080fd5b50610559612230565b6040516105669190614f72565b60405180910390f35b34801561057b57600080fd5b50610596600480360381019061059191906149d0565b612254565b6040516105a39190614a23565b60405180910390f35b3480156105b857600080fd5b506105d360048036038101906105ce919061490b565b61226a565b6040516105e09190614a23565b60405180910390f35b61060360048036038101906105fe919061506c565b612409565b005b34801561061157600080fd5b5061062c600480360381019061062791906150f4565b6128b4565b60405161063a9291906149a7565b60405180910390f35b34801561064f57600080fd5b50610658612b18565b6040516106659190614f72565b60405180910390f35b34801561067a57600080fd5b50610683612b3c565b6040516106909190614f72565b60405180910390f35b3480156106a557600080fd5b506106c060048036038101906106bb9190614d6c565b612b60565b6040516106cd9190614bfb565b60405180910390f35b3480156106e257600080fd5b506106fd60048036038101906106f89190614f8d565b612b95565b60405161070b9291906149a7565b60405180910390f35b34801561072057600080fd5b5061073b60048036038101906107369190615196565b612ca6565b60405161074a9392919061524c565b60405180910390f35b61076d6004803603810190610768919061490b565b612dda565b60405161077c9392919061524c565b60405180910390f35b61079f600480360381019061079a919061506c565b61308a565b6040516107ac9190614bfb565b60405180910390f35b60008082428110156107fc576040517f08c379a00000000000000000000000000000000000000000000000000000000081526004016107f3906152e0565b60405180910390fd5b61082b897f00000000000000000000000000000000000000000000000000000000000000008a8a8a308a6128b4565b809350819450505061083e8986856134d8565b7f000000000000000000000000000000000000000000000000000000000000000073ffffffffffffffffffffffffffffffffffffffff16632e1a7d4d836040518263ffffffff1660e01b81526004016108979190614a23565b600060405180830381600087803b1580156108b157600080fd5b505af11580156108c5573d6000803e3d6000fd5b505050506108d385836135a0565b50965096945050505050565b60006108ec8484846136a0565b90509392505050565b6060814281101561093b576040517f08c379a0000000000000000000000000000000000000000000000000000000008152600401610932906152e0565b60405180910390fd5b7f000000000000000000000000000000000000000000000000000000000000000073ffffffffffffffffffffffffffffffffffffffff168686600189899050610984919061532f565b81811061099457610993615363565b5b90506020020160208101906109a99190615392565b73ffffffffffffffffffffffffffffffffffffffff16146109ff576040517f08c379a00000000000000000000000000000000000000000000000000000000081526004016109f69061540b565b60405180910390fd5b610a6b7f000000000000000000000000000000000000000000000000000000000000000089888880806020026020016040519081016040528093929190818152602001838360200280828437600081840152601f19601f8201169050808301925050505050505061378a565b9150868260018451610a7d919061532f565b81518110610a8e57610a8d615363565b5b60200260200101511015610ad7576040517f08c379a0000000000000000000000000000000000000000000000000000000008152600401610ace90615477565b60405180910390fd5b610ba086866000818110610aee57610aed615363565b5b9050602002016020810190610b039190615392565b33610b7f7f00000000000000000000000000000000000000000000000000000000000000008a8a6000818110610b3c57610b3b615363565b5b9050602002016020810190610b519190615392565b8b8b6001818110610b6557610b64615363565b5b9050602002016020810190610b7a9190615392565b613915565b85600081518110610b9357610b92615363565b5b6020026020010151613aba565b610bec82878780806020026020016040519081016040528093929190818152602001838360200280828437600081840152601f19601f8201169050808301925050505050505030613b85565b7f000000000000000000000000000000000000000000000000000000000000000073ffffffffffffffffffffffffffffffffffffffff16632e1a7d4d8360018551610c37919061532f565b81518110610c4857610c47615363565b5b60200260200101516040518263ffffffff1660e01b8152600401610c6c9190614a23565b600060405180830381600087803b158015610c8657600080fd5b505af1158015610c9a573d6000803e3d6000fd5b50505050610ccf848360018551610cb1919061532f565b81518110610cc257610cc1615363565b5b60200260200101516135a0565b509695505050505050565b6060610d077f00000000000000000000000000000000000000000000000000000000000000008484613dde565b905092915050565b6000806000610d3f7f00000000000000000000000000000000000000000000000000000000000000008f8f613915565b9050600087610d4e578c610d60565b6fffffffffffffffffffffffffffffffff5b90508173ffffffffffffffffffffffffffffffffffffffff1663d505accf3330848d8c8c8c6040518863ffffffff1660e01b8152600401610da797969594939291906154b5565b600060405180830381600087803b158015610dc157600080fd5b505af1158015610dd5573d6000803e3d6000fd5b50505050610de88f8f8f8f8f8f8f6128b4565b809450819550505050509b509b9950505050505050505050565b60608142811015610e48576040517f08c379a0000000000000000000000000000000000000000000000000000000008152600401610e3f906152e0565b60405180910390fd5b610eb47f000000000000000000000000000000000000000000000000000000000000000089888880806020026020016040519081016040528093929190818152602001838360200280828437600081840152601f19601f8201169050808301925050505050505061378a565b9150868260018451610ec6919061532f565b81518110610ed757610ed6615363565b5b60200260200101511015610f20576040517f08c379a0000000000000000000000000000000000000000000000000000000008152600401610f1790615477565b60405180910390fd5b610fe986866000818110610f3757610f36615363565b5b9050602002016020810190610f4c9190615392565b33610fc87f00000000000000000000000000000000000000000000000000000000000000008a8a6000818110610f8557610f84615363565b5b9050602002016020810190610f9a9190615392565b8b8b6001818110610fae57610fad615363565b5b9050602002016020810190610fc39190615392565b613915565b85600081518110610fdc57610fdb615363565b5b6020026020010151613aba565b61103582878780806020026020016040519081016040528093929190818152602001838360200280828437600081840152601f19601f8201169050808301925050505050505086613b85565b509695505050505050565b7f000000000000000000000000000000000000000000000000000000000000000081565b606081428110156110aa576040517f08c379a00000000000000000000000000000000000000000000000000000000081526004016110a1906152e0565b60405180910390fd5b7f000000000000000000000000000000000000000000000000000000000000000073ffffffffffffffffffffffffffffffffffffffff1686866001898990506110f3919061532f565b81811061110357611102615363565b5b90506020020160208101906111189190615392565b73ffffffffffffffffffffffffffffffffffffffff161461116e576040517f08c379a00000000000000000000000000000000000000000000000000000000081526004016111659061540b565b60405180910390fd5b6111da7f000000000000000000000000000000000000000000000000000000000000000089888880806020026020016040519081016040528093929190818152602001838360200280828437600081840152601f19601f82011690508083019250505050505050613dde565b915086826000815181106111f1576111f0615363565b5b6020026020010151111561123a576040517f08c379a000000000000000000000000000000000000000000000000000000000815260040161123190615570565b60405180910390fd5b6113038686600081811061125157611250615363565b5b90506020020160208101906112669190615392565b336112e27f00000000000000000000000000000000000000000000000000000000000000008a8a600081811061129f5761129e615363565b5b90506020020160208101906112b49190615392565b8b8b60018181106112c8576112c7615363565b5b90506020020160208101906112dd9190615392565b613915565b856000815181106112f6576112f5615363565b5b6020026020010151613aba565b61134f82878780806020026020016040519081016040528093929190818152602001838360200280828437600081840152601f19601f8201169050808301925050505050505030613b85565b7f000000000000000000000000000000000000000000000000000000000000000073ffffffffffffffffffffffffffffffffffffffff16632e1a7d4d836001855161139a919061532f565b815181106113ab576113aa615363565b5b60200260200101516040518263ffffffff1660e01b81526004016113cf9190614a23565b600060405180830381600087803b1580156113e957600080fd5b505af11580156113fd573d6000803e3d6000fd5b50505050611432848360018551611414919061532f565b8151811061142557611424615363565b5b60200260200101516135a0565b509695505050505050565b60008061148b7f00000000000000000000000000000000000000000000000000000000000000008d7f0000000000000000000000000000000000000000000000000000000000000000613915565b905060008661149a578b6114ac565b6fffffffffffffffffffffffffffffffff5b90508173ffffffffffffffffffffffffffffffffffffffff1663d505accf3330848c8b8b8b6040518863ffffffff1660e01b81526004016114f397969594939291906154b5565b600060405180830381600087803b15801561150d57600080fd5b505af1158015611521573d6000803e3d6000fd5b505050506115338d8d8d8d8d8d61226a565b925050509a9950505050505050505050565b8042811015611589576040517f08c379a0000000000000000000000000000000000000000000000000000000008152600401611580906152e0565b60405180910390fd5b611637858560008181106115a05761159f615363565b5b90506020020160208101906115b59190615392565b336116317f0000000000000000000000000000000000000000000000000000000000000000898960008181106115ee576115ed615363565b5b90506020020160208101906116039190615392565b8a8a600181811061161757611616615363565b5b905060200201602081019061162c9190615392565b613915565b8a613aba565b6000858560018888905061164b919061532f565b81811061165b5761165a615363565b5b90506020020160208101906116709190615392565b73ffffffffffffffffffffffffffffffffffffffff166370a08231856040518263ffffffff1660e01b81526004016116a89190614f72565b602060405180830381865afa1580156116c5573d6000803e3d6000fd5b505050506040513d601f19601f820116820180604052508101906116e991906155a5565b9050611736868680806020026020016040519081016040528093929190818152602001838360200280828437600081840152601f19601f8201169050808301925050505050505085613f79565b8681878760018a8a905061174a919061532f565b81811061175a57611759615363565b5b905060200201602081019061176f9190615392565b73ffffffffffffffffffffffffffffffffffffffff166370a08231876040518263ffffffff1660e01b81526004016117a79190614f72565b602060405180830381865afa1580156117c4573d6000803e3d6000fd5b505050506040513d601f19601f820116820180604052508101906117e891906155a5565b6117f2919061532f565b1015611833576040517f08c379a000000000000000000000000000000000000000000000000000000000815260040161182a90615477565b60405180910390fd5b5050505050505050565b8042811015611881576040517f08c379a0000000000000000000000000000000000000000000000000000000008152600401611878906152e0565b60405180910390fd5b7f000000000000000000000000000000000000000000000000000000000000000073ffffffffffffffffffffffffffffffffffffffff1685856001888890506118ca919061532f565b8181106118da576118d9615363565b5b90506020020160208101906118ef9190615392565b73ffffffffffffffffffffffffffffffffffffffff1614611945576040517f08c379a000000000000000000000000000000000000000000000000000000000815260040161193c9061540b565b60405180910390fd5b6119f38585600081811061195c5761195b615363565b5b90506020020160208101906119719190615392565b336119ed7f0000000000000000000000000000000000000000000000000000000000000000898960008181106119aa576119a9615363565b5b90506020020160208101906119bf9190615392565b8a8a60018181106119d3576119d2615363565b5b90506020020160208101906119e89190615392565b613915565b8a613aba565b611a3e858580806020026020016040519081016040528093929190818152602001838360200280828437600081840152601f19601f8201169050808301925050505050505030613f79565b60007f000000000000000000000000000000000000000000000000000000000000000073ffffffffffffffffffffffffffffffffffffffff166370a08231306040518263ffffffff1660e01b8152600401611a999190614f72565b602060405180830381865afa158015611ab6573d6000803e3d6000fd5b505050506040513d601f19601f82011682018060405250810190611ada91906155a5565b905086811015611b1f576040517f08c379a0000000000000000000000000000000000000000000000000000000008152600401611b1690615477565b60405180910390fd5b7f000000000000000000000000000000000000000000000000000000000000000073ffffffffffffffffffffffffffffffffffffffff16632e1a7d4d826040518263ffffffff1660e01b8152600401611b789190614a23565b600060405180830381600087803b158015611b9257600080fd5b505af1158015611ba6573d6000803e3d6000fd5b50505050611bb484826135a0565b5050505050505050565b60608142811015611c04576040517f08c379a0000000000000000000000000000000000000000000000000000000008152600401611bfb906152e0565b60405180910390fd5b7f000000000000000000000000000000000000000000000000000000000000000073ffffffffffffffffffffffffffffffffffffffff1686866000818110611c4f57611c4e615363565b5b9050602002016020810190611c649190615392565b73ffffffffffffffffffffffffffffffffffffffff1614611cba576040517f08c379a0000000000000000000000000000000000000000000000000000000008152600401611cb19061540b565b60405180910390fd5b611d267f000000000000000000000000000000000000000000000000000000000000000034888880806020026020016040519081016040528093929190818152602001838360200280828437600081840152601f19601f8201169050808301925050505050505061378a565b9150868260018451611d38919061532f565b81518110611d4957611d48615363565b5b60200260200101511015611d92576040517f08c379a0000000000000000000000000000000000000000000000000000000008152600401611d8990615477565b60405180910390fd5b7f000000000000000000000000000000000000000000000000000000000000000073ffffffffffffffffffffffffffffffffffffffff1663d0e30db083600081518110611de257611de1615363565b5b60200260200101516040518263ffffffff1660e01b81526004016000604051808303818588803b158015611e1557600080fd5b505af1158015611e29573d6000803e3d6000fd5b50505050507f000000000000000000000000000000000000000000000000000000000000000073ffffffffffffffffffffffffffffffffffffffff1663a9059cbb611ee57f000000000000000000000000000000000000000000000000000000000000000089896000818110611ea257611ea1615363565b5b9050602002016020810190611eb79190615392565b8a8a6001818110611ecb57611eca615363565b5b9050602002016020810190611ee09190615392565b613915565b84600081518110611ef957611ef8615363565b5b60200260200101516040518363ffffffff1660e01b8152600401611f1e9291906155d2565b6020604051808303816000875af1158015611f3d573d6000803e3d6000fd5b505050506040513d601f19601f82011682018060405250810190611f619190615610565b611f6e57611f6d614834565b5b611fba82878780806020026020016040519081016040528093929190818152602001838360200280828437600081840152601f19601f8201169050808301925050505050505086613b85565b5095945050505050565b6000611fd1848484614323565b90509392505050565b60608142811015612020576040517f08c379a0000000000000000000000000000000000000000000000000000000008152600401612017906152e0565b60405180910390fd5b61208c7f000000000000000000000000000000000000000000000000000000000000000089888880806020026020016040519081016040528093929190818152602001838360200280828437600081840152601f19601f82011690508083019250505050505050613dde565b915086826000815181106120a3576120a2615363565b5b602002602001015111156120ec576040517f08c379a00000000000000000000000000000000000000000000000000000000081526004016120e390615570565b60405180910390fd5b6121b58686600081811061210357612102615363565b5b90506020020160208101906121189190615392565b336121947f00000000000000000000000000000000000000000000000000000000000000008a8a600081811061215157612150615363565b5b90506020020160208101906121669190615392565b8b8b600181811061217a57612179615363565b5b905060200201602081019061218f9190615392565b613915565b856000815181106121a8576121a7615363565b5b6020026020010151613aba565b61220182878780806020026020016040519081016040528093929190818152602001838360200280828437600081840152601f19601f8201169050808301925050505050505086613b85565b509695505050505050565b7f000000000000000000000000000000000000000000000000000000000000000081565b7f000000000000000000000000000000000000000000000000000000000000000081565b6000612261848484614413565b90509392505050565b600081428110156122b0576040517f08c379a00000000000000000000000000000000000000000000000000000000081526004016122a7906152e0565b60405180910390fd5b6122df887f000000000000000000000000000000000000000000000000000000000000000089898930896128b4565b90508092505061236988858a73ffffffffffffffffffffffffffffffffffffffff166370a08231306040518263ffffffff1660e01b81526004016123239190614f72565b602060405180830381865afa158015612340573d6000803e3d6000fd5b505050506040513d601f19601f8201168201806040525081019061236491906155a5565b6134d8565b7f000000000000000000000000000000000000000000000000000000000000000073ffffffffffffffffffffffffffffffffffffffff16632e1a7d4d836040518263ffffffff1660e01b81526004016123c29190614a23565b600060405180830381600087803b1580156123dc57600080fd5b505af11580156123f0573d6000803e3d6000fd5b505050506123fe84836135a0565b509695505050505050565b804281101561244d576040517f08c379a0000000000000000000000000000000000000000000000000000000008152600401612444906152e0565b60405180910390fd5b7f000000000000000000000000000000000000000000000000000000000000000073ffffffffffffffffffffffffffffffffffffffff168585600081811061249857612497615363565b5b90506020020160208101906124ad9190615392565b73ffffffffffffffffffffffffffffffffffffffff1614612503576040517f08c379a00000000000000000000000000000000000000000000000000000000081526004016124fa9061540b565b60405180910390fd5b60003490507f000000000000000000000000000000000000000000000000000000000000000073ffffffffffffffffffffffffffffffffffffffff1663d0e30db0826040518263ffffffff1660e01b81526004016000604051808303818588803b15801561257057600080fd5b505af1158015612584573d6000803e3d6000fd5b50505050507f000000000000000000000000000000000000000000000000000000000000000073ffffffffffffffffffffffffffffffffffffffff1663a9059cbb6126407f0000000000000000000000000000000000000000000000000000000000000000898960008181106125fd576125fc615363565b5b90506020020160208101906126129190615392565b8a8a600181811061262657612625615363565b5b905060200201602081019061263b9190615392565b613915565b836040518363ffffffff1660e01b815260040161265e9291906155d2565b6020604051808303816000875af115801561267d573d6000803e3d6000fd5b505050506040513d601f19601f820116820180604052508101906126a19190615610565b6126ae576126ad614834565b5b600086866001898990506126c2919061532f565b8181106126d2576126d1615363565b5b90506020020160208101906126e79190615392565b73ffffffffffffffffffffffffffffffffffffffff166370a08231866040518263ffffffff1660e01b815260040161271f9190614f72565b602060405180830381865afa15801561273c573d6000803e3d6000fd5b505050506040513d601f19601f8201168201806040525081019061276091906155a5565b90506127ad878780806020026020016040519081016040528093929190818152602001838360200280828437600081840152601f19601f8201169050808301925050505050505086613f79565b8781888860018b8b90506127c1919061532f565b8181106127d1576127d0615363565b5b90506020020160208101906127e69190615392565b73ffffffffffffffffffffffffffffffffffffffff166370a08231886040518263ffffffff1660e01b815260040161281e9190614f72565b602060405180830381865afa15801561283b573d6000803e3d6000fd5b505050506040513d601f19601f8201168201806040525081019061285f91906155a5565b612869919061532f565b10156128aa576040517f08c379a00000000000000000000000000000000000000000000000000000000081526004016128a190615477565b60405180910390fd5b5050505050505050565b60008082428110156128fb576040517f08c379a00000000000000000000000000000000000000000000000000000000081526004016128f2906152e0565b60405180910390fd5b60006129287f00000000000000000000000000000000000000000000000000000000000000008c8c613915565b90508073ffffffffffffffffffffffffffffffffffffffff166323b872dd33838c6040518463ffffffff1660e01b81526004016129679392919061563d565b6020604051808303816000875af1158015612986573d6000803e3d6000fd5b505050506040513d601f19601f820116820180604052508101906129aa9190615610565b506000808273ffffffffffffffffffffffffffffffffffffffff166389afcb44896040518263ffffffff1660e01b81526004016129e79190614f72565b60408051808303816000875af1158015612a05573d6000803e3d6000fd5b505050506040513d601f19601f82011682018060405250810190612a299190615674565b915091506000612a398e8e6144c6565b5090508073ffffffffffffffffffffffffffffffffffffffff168e73ffffffffffffffffffffffffffffffffffffffff1614612a76578183612a79565b82825b80975081985050508a871015612ac4576040517f08c379a0000000000000000000000000000000000000000000000000000000008152600401612abb90615700565b60405180910390fd5b89861015612b07576040517f08c379a0000000000000000000000000000000000000000000000000000000008152600401612afe9061576c565b60405180910390fd5b505050505097509795505050505050565b7f000000000000000000000000000000000000000000000000000000000000000081565b7f000000000000000000000000000000000000000000000000000000000000000081565b6060612b8d7f0000000000000000000000000000000000000000000000000000000000000000848461378a565b905092915050565b6000806000612be57f00000000000000000000000000000000000000000000000000000000000000008e7f0000000000000000000000000000000000000000000000000000000000000000613915565b9050600087612bf4578c612c06565b6fffffffffffffffffffffffffffffffff5b90508173ffffffffffffffffffffffffffffffffffffffff1663d505accf3330848d8c8c8c6040518863ffffffff1660e01b8152600401612c4d97969594939291906154b5565b600060405180830381600087803b158015612c6757600080fd5b505af1158015612c7b573d6000803e3d6000fd5b50505050612c8d8e8e8e8e8e8e6107b5565b809450819550505050509a509a98505050505050505050565b60008060008342811015612cef576040517f08c379a0000000000000000000000000000000000000000000000000000000008152600401612ce6906152e0565b60405180910390fd5b612cfd8c8c8c8c8c8c6145f2565b80945081955050506000612d327f00000000000000000000000000000000000000000000000000000000000000008e8e613915565b9050612d408d338388613aba565b612d4c8c338387613aba565b8073ffffffffffffffffffffffffffffffffffffffff16636a627842886040518263ffffffff1660e01b8152600401612d859190614f72565b6020604051808303816000875af1158015612da4573d6000803e3d6000fd5b505050506040513d601f19601f82011682018060405250810190612dc891906155a5565b92505050985098509895505050505050565b60008060008342811015612e23576040517f08c379a0000000000000000000000000000000000000000000000000000000008152600401612e1a906152e0565b60405180910390fd5b612e518a7f00000000000000000000000000000000000000000000000000000000000000008b348c8c6145f2565b80945081955050506000612ea67f00000000000000000000000000000000000000000000000000000000000000008c7f0000000000000000000000000000000000000000000000000000000000000000613915565b9050612eb48b338388613aba565b7f000000000000000000000000000000000000000000000000000000000000000073ffffffffffffffffffffffffffffffffffffffff1663d0e30db0856040518263ffffffff1660e01b81526004016000604051808303818588803b158015612f1c57600080fd5b505af1158015612f30573d6000803e3d6000fd5b50505050507f000000000000000000000000000000000000000000000000000000000000000073ffffffffffffffffffffffffffffffffffffffff1663a9059cbb82866040518363ffffffff1660e01b8152600401612f909291906155d2565b6020604051808303816000875af1158015612faf573d6000803e3d6000fd5b505050506040513d601f19601f82011682018060405250810190612fd39190615610565b612fe057612fdf614834565b5b8073ffffffffffffffffffffffffffffffffffffffff16636a627842886040518263ffffffff1660e01b81526004016130199190614f72565b6020604051808303816000875af1158015613038573d6000803e3d6000fd5b505050506040513d601f19601f8201168201806040525081019061305c91906155a5565b92508334111561307c5761307b338534613076919061532f565b6135a0565b5b505096509650969350505050565b606081428110156130d0576040517f08c379a00000000000000000000000000000000000000000000000000000000081526004016130c7906152e0565b60405180910390fd5b7f000000000000000000000000000000000000000000000000000000000000000073ffffffffffffffffffffffffffffffffffffffff168686600081811061311b5761311a615363565b5b90506020020160208101906131309190615392565b73ffffffffffffffffffffffffffffffffffffffff1614613186576040517f08c379a000000000000000000000000000000000000000000000000000000000815260040161317d9061540b565b60405180910390fd5b6131f27f000000000000000000000000000000000000000000000000000000000000000088888880806020026020016040519081016040528093929190818152602001838360200280828437600081840152601f19601f82011690508083019250505050505050613dde565b9150348260008151811061320957613208615363565b5b60200260200101511115613252576040517f08c379a000000000000000000000000000000000000000000000000000000000815260040161324990615570565b60405180910390fd5b7f000000000000000000000000000000000000000000000000000000000000000073ffffffffffffffffffffffffffffffffffffffff1663d0e30db0836000815181106132a2576132a1615363565b5b60200260200101516040518263ffffffff1660e01b81526004016000604051808303818588803b1580156132d557600080fd5b505af11580156132e9573d6000803e3d6000fd5b50505050507f000000000000000000000000000000000000000000000000000000000000000073ffffffffffffffffffffffffffffffffffffffff1663a9059cbb6133a57f00000000000000000000000000000000000000000000000000000000000000008989600081811061336257613361615363565b5b90506020020160208101906133779190615392565b8a8a600181811061338b5761338a615363565b5b90506020020160208101906133a09190615392565b613915565b846000815181106133b9576133b8615363565b5b60200260200101516040518363ffffffff1660e01b81526004016133de9291906155d2565b6020604051808303816000875af11580156133fd573d6000803e3d6000fd5b505050506040513d601f19601f820116820180604052508101906134219190615610565b61342e5761342d614834565b5b61347a82878780806020026020016040519081016040528093929190818152602001838360200280828437600081840152601f19601f8201169050808301925050505050505086613b85565b8160008151811061348e5761348d615363565b5b60200260200101513411156134ce576134cd33836000815181106134b5576134b4615363565b5b6020026020010151346134c8919061532f565b6135a0565b5b5095945050505050565b60008373ffffffffffffffffffffffffffffffffffffffff1663a9059cbb84846040518363ffffffff1660e01b81526004016135159291906155d2565b6020604051808303816000875af1158015613534573d6000803e3d6000fd5b505050506040513d601f19601f820116820180604052508101906135589190615610565b90508061359a576040517f08c379a0000000000000000000000000000000000000000000000000000000008152600401613591906157fe565b60405180910390fd5b50505050565b60008273ffffffffffffffffffffffffffffffffffffffff1682600067ffffffffffffffff8111156135d5576135d4614c2e565b5b6040519080825280601f01601f1916602001820160405280156136075781602001600182028036833780820191505090505b50604051613615919061588f565b60006040518083038185875af1925050503d8060008114613652576040519150601f19603f3d011682016040523d82523d6000602084013e613657565b606091505b505090508061369b576040517f08c379a000000000000000000000000000000000000000000000000000000000815260040161369290615918565b60405180910390fd5b505050565b60008084116136e4576040517f08c379a00000000000000000000000000000000000000000000000000000000081526004016136db90615984565b60405180910390fd5b6000831180156136f45750600082115b613733576040517f08c379a000000000000000000000000000000000000000000000000000000000815260040161372a906159f0565b60405180910390fd5b60006103e5856137439190615a10565b9050600083826137539190615a10565b90506000826103e8876137669190615a10565b6137709190615a52565b9050808261377e9190615ab5565b93505050509392505050565b60606002825110156137d1576040517f08c379a00000000000000000000000000000000000000000000000000000000081526004016137c89061540b565b60405180910390fd5b815167ffffffffffffffff8111156137ec576137eb614c2e565b5b60405190808252806020026020018201604052801561381a5781602001602082028036833780820191505090505b509050828160008151811061383257613831615363565b5b60200260200101818152505060005b6001835161384f919061532f565b81101561390d576000806138a4878685815181106138705761386f615363565b5b6020026020010151876001876138869190615a52565b8151811061389757613896615363565b5b6020026020010151614731565b915091506138cd8484815181106138be576138bd615363565b5b602002602001015183836136a0565b846001856138db9190615a52565b815181106138ec576138eb615363565b5b6020026020010181815250505050808061390590615ae6565b915050613841565b509392505050565b600080600061392485856144c6565b91509150600073d0da387609adc13779badaf1315a4904cd40976e9050600073d1f9c3397ea04d3de7f002cb9e63cb49d0deaa3690506000733f7e06a4f8061b0389fe0551a2e33376f2ba02ee90508273ffffffffffffffffffffffffffffffffffffffff168873ffffffffffffffffffffffffffffffffffffffff1614806139d857508173ffffffffffffffffffffffffffffffffffffffff168873ffffffffffffffffffffffffffffffffffffffff16145b8015613a4557508273ffffffffffffffffffffffffffffffffffffffff168773ffffffffffffffffffffffffffffffffffffffff161480613a4457508173ffffffffffffffffffffffffffffffffffffffff168773ffffffffffffffffffffffffffffffffffffffff16145b5b15613a57578095505050505050613ab3565b888585604051602001613a6b929190615b76565b60405160208183030381529060405280519060200120604051602001613a92929190615c66565b6040516020818303038152906040528051906020012060001c955050505050505b9392505050565b60008473ffffffffffffffffffffffffffffffffffffffff166323b872dd8585856040518463ffffffff1660e01b8152600401613af99392919061563d565b6020604051808303816000875af1158015613b18573d6000803e3d6000fd5b505050506040513d601f19601f82011682018060405250810190613b3c9190615610565b905080613b7e576040517f08c379a0000000000000000000000000000000000000000000000000000000008152600401613b7590615d1a565b60405180910390fd5b5050505050565b60005b60018351613b96919061532f565b811015613dd857600080848381518110613bb357613bb2615363565b5b602002602001015185600185613bc99190615a52565b81518110613bda57613bd9615363565b5b6020026020010151915091506000613bf283836144c6565b509050600087600186613c059190615a52565b81518110613c1657613c15615363565b5b602002602001015190506000808373ffffffffffffffffffffffffffffffffffffffff168673ffffffffffffffffffffffffffffffffffffffff1614613c5e57826000613c62565b6000835b91509150600060028a51613c76919061532f565b8810613c825788613cd4565b613cd37f0000000000000000000000000000000000000000000000000000000000000000878c60028c613cb59190615a52565b81518110613cc657613cc5615363565b5b6020026020010151613915565b5b9050613d017f00000000000000000000000000000000000000000000000000000000000000008888613915565b73ffffffffffffffffffffffffffffffffffffffff1663022c0d9f848484600067ffffffffffffffff811115613d3a57613d39614c2e565b5b6040519080825280601f01601f191660200182016040528015613d6c5781602001600182028036833780820191505090505b506040518563ffffffff1660e01b8152600401613d8c9493929190615d84565b600060405180830381600087803b158015613da657600080fd5b505af1158015613dba573d6000803e3d6000fd5b50505050505050505050508080613dd090615ae6565b915050613b88565b50505050565b6060600282511015613e25576040517f08c379a0000000000000000000000000000000000000000000000000000000008152600401613e1c9061540b565b60405180910390fd5b815167ffffffffffffffff811115613e4057613e3f614c2e565b5b604051908082528060200260200182016040528015613e6e5781602001602082028036833780820191505090505b509050828160018351613e81919061532f565b81518110613e9257613e91615363565b5b602002602001018181525050600060018351613eae919061532f565b90505b6000811115613f7157600080613f088786600186613ecf919061532f565b81518110613ee057613edf615363565b5b6020026020010151878681518110613efb57613efa615363565b5b6020026020010151614731565b91509150613f31848481518110613f2257613f21615363565b5b60200260200101518383614323565b84600185613f3f919061532f565b81518110613f5057613f4f615363565b5b60200260200101818152505050508080613f6990615dd0565b915050613eb1565b509392505050565b60005b60018351613f8a919061532f565b81101561431e57600080848381518110613fa757613fa6615363565b5b602002602001015185600185613fbd9190615a52565b81518110613fce57613fcd615363565b5b6020026020010151915091506000613fe683836144c6565b50905060006140167f00000000000000000000000000000000000000000000000000000000000000008585613915565b90506000806000808473ffffffffffffffffffffffffffffffffffffffff16630902f1ac6040518163ffffffff1660e01b8152600401606060405180830381865afa158015614069573d6000803e3d6000fd5b505050506040513d601f19601f8201168201806040525081019061408d9190615e7b565b506dffffffffffffffffffffffffffff1691506dffffffffffffffffffffffffffff1691506000808773ffffffffffffffffffffffffffffffffffffffff168a73ffffffffffffffffffffffffffffffffffffffff16146140ef5782846140f2565b83835b91509150818a73ffffffffffffffffffffffffffffffffffffffff166370a08231896040518263ffffffff1660e01b81526004016141309190614f72565b602060405180830381865afa15801561414d573d6000803e3d6000fd5b505050506040513d601f19601f8201168201806040525081019061417191906155a5565b61417b919061532f565b95506141888683836136a0565b9450505050506000808573ffffffffffffffffffffffffffffffffffffffff168873ffffffffffffffffffffffffffffffffffffffff16146141cc578260006141d0565b6000835b91509150600060028c516141e4919061532f565b8a106141f0578a614242565b6142417f0000000000000000000000000000000000000000000000000000000000000000898e60028e6142239190615a52565b8151811061423457614233615363565b5b6020026020010151613915565b5b90508573ffffffffffffffffffffffffffffffffffffffff1663022c0d9f848484600067ffffffffffffffff81111561427e5761427d614c2e565b5b6040519080825280601f01601f1916602001820160405280156142b05781602001600182028036833780820191505090505b506040518563ffffffff1660e01b81526004016142d09493929190615d84565b600060405180830381600087803b1580156142ea57600080fd5b505af11580156142fe573d6000803e3d6000fd5b50505050505050505050505050808061431690615ae6565b915050613f7c565b505050565b6000808411614367576040517f08c379a000000000000000000000000000000000000000000000000000000000815260040161435e90615477565b60405180910390fd5b6000831180156143775750600082115b6143b6576040517f08c379a00000000000000000000000000000000000000000000000000000000081526004016143ad906159f0565b60405180910390fd5b60006103e885856143c79190615a10565b6143d19190615a10565b905060006103e586856143e4919061532f565b6143ee9190615a10565b9050600181836143fe9190615ab5565b6144089190615a52565b925050509392505050565b6000808411614457576040517f08c379a000000000000000000000000000000000000000000000000000000000815260040161444e90615f1a565b60405180910390fd5b6000831180156144675750600082115b6144a6576040517f08c379a000000000000000000000000000000000000000000000000000000000815260040161449d906159f0565b60405180910390fd5b8282856144b39190615a10565b6144bd9190615ab5565b90509392505050565b6000808273ffffffffffffffffffffffffffffffffffffffff168473ffffffffffffffffffffffffffffffffffffffff1603614537576040517f08c379a000000000000000000000000000000000000000000000000000000000815260040161452e90615f86565b60405180910390fd5b8273ffffffffffffffffffffffffffffffffffffffff168473ffffffffffffffffffffffffffffffffffffffff1610614571578284614574565b83835b8092508193505050600073ffffffffffffffffffffffffffffffffffffffff168273ffffffffffffffffffffffffffffffffffffffff16036145eb576040517f08c379a00000000000000000000000000000000000000000000000000000000081526004016145e290615ff2565b60405180910390fd5b9250929050565b6000806000806146237f00000000000000000000000000000000000000000000000000000000000000008b8b614731565b915091506000821480156146375750600081145b1561464b5787878094508195505050614724565b6000614658898484614413565b90508781116146b357858110156146a4576040517f08c379a000000000000000000000000000000000000000000000000000000000815260040161469b9061576c565b60405180910390fd5b88818095508196505050614722565b60006146c0898486614413565b9050898111156146d3576146d2614834565b5b87811015614716576040517f08c379a000000000000000000000000000000000000000000000000000000000815260040161470d90615700565b60405180910390fd5b80898096508197505050505b505b5050965096945050505050565b600080600061474085856144c6565b509050600080614751888888613915565b73ffffffffffffffffffffffffffffffffffffffff16630902f1ac6040518163ffffffff1660e01b8152600401606060405180830381865afa15801561479b573d6000803e3d6000fd5b505050506040513d601f19601f820116820180604052508101906147bf9190615e7b565b506dffffffffffffffffffffffffffff1691506dffffffffffffffffffffffffffff1691508273ffffffffffffffffffffffffffffffffffffffff168773ffffffffffffffffffffffffffffffffffffffff161461481e578082614821565b81815b8095508196505050505050935093915050565b7f4e487b7100000000000000000000000000000000000000000000000000000000600052600160045260246000fd5b6000604051905090565b600080fd5b600080fd5b600073ffffffffffffffffffffffffffffffffffffffff82169050919050565b60006148a282614877565b9050919050565b6148b281614897565b81146148bd57600080fd5b50565b6000813590506148cf816148a9565b92915050565b6000819050919050565b6148e8816148d5565b81146148f357600080fd5b50565b600081359050614905816148df565b92915050565b60008060008060008060c087890312156149285761492761486d565b5b600061493689828a016148c0565b965050602061494789828a016148f6565b955050604061495889828a016148f6565b945050606061496989828a016148f6565b935050608061497a89828a016148c0565b92505060a061498b89828a016148f6565b9150509295509295509295565b6149a1816148d5565b82525050565b60006040820190506149bc6000830185614998565b6149c96020830184614998565b9392505050565b6000806000606084860312156149e9576149e861486d565b5b60006149f7868287016148f6565b9350506020614a08868287016148f6565b9250506040614a19868287016148f6565b9150509250925092565b6000602082019050614a386000830184614998565b92915050565b600080fd5b600080fd5b600080fd5b60008083601f840112614a6357614a62614a3e565b5b8235905067ffffffffffffffff811115614a8057614a7f614a43565b5b602083019150836020820283011115614a9c57614a9b614a48565b5b9250929050565b60008060008060008060a08789031215614ac057614abf61486d565b5b6000614ace89828a016148f6565b9650506020614adf89828a016148f6565b955050604087013567ffffffffffffffff811115614b0057614aff614872565b5b614b0c89828a01614a4d565b94509450506060614b1f89828a016148c0565b9250506080614b3089828a016148f6565b9150509295509295509295565b600081519050919050565b600082825260208201905092915050565b6000819050602082019050919050565b614b72816148d5565b82525050565b6000614b848383614b69565b60208301905092915050565b6000602082019050919050565b6000614ba882614b3d565b614bb28185614b48565b9350614bbd83614b59565b8060005b83811015614bee578151614bd58882614b78565b9750614be083614b90565b925050600181019050614bc1565b5085935050505092915050565b60006020820190508181036000830152614c158184614b9d565b905092915050565b6000601f19601f8301169050919050565b7f4e487b7100000000000000000000000000000000000000000000000000000000600052604160045260246000fd5b614c6682614c1d565b810181811067ffffffffffffffff82111715614c8557614c84614c2e565b5b80604052505050565b6000614c98614863565b9050614ca48282614c5d565b919050565b600067ffffffffffffffff821115614cc457614cc3614c2e565b5b602082029050602081019050919050565b6000614ce8614ce384614ca9565b614c8e565b90508083825260208201905060208402830185811115614d0b57614d0a614a48565b5b835b81811015614d345780614d2088826148c0565b845260208401935050602081019050614d0d565b5050509392505050565b600082601f830112614d5357614d52614a3e565b5b8135614d63848260208601614cd5565b91505092915050565b60008060408385031215614d8357614d8261486d565b5b6000614d91858286016148f6565b925050602083013567ffffffffffffffff811115614db257614db1614872565b5b614dbe85828601614d3e565b9150509250929050565b60008115159050919050565b614ddd81614dc8565b8114614de857600080fd5b50565b600081359050614dfa81614dd4565b92915050565b600060ff82169050919050565b614e1681614e00565b8114614e2157600080fd5b50565b600081359050614e3381614e0d565b92915050565b6000819050919050565b614e4c81614e39565b8114614e5757600080fd5b50565b600081359050614e6981614e43565b92915050565b60008060008060008060008060008060006101608c8e031215614e9557614e9461486d565b5b6000614ea38e828f016148c0565b9b50506020614eb48e828f016148c0565b9a50506040614ec58e828f016148f6565b9950506060614ed68e828f016148f6565b9850506080614ee78e828f016148f6565b97505060a0614ef88e828f016148c0565b96505060c0614f098e828f016148f6565b95505060e0614f1a8e828f01614deb565b945050610100614f2c8e828f01614e24565b935050610120614f3e8e828f01614e5a565b925050610140614f508e828f01614e5a565b9150509295989b509295989b9093969950565b614f6c81614897565b82525050565b6000602082019050614f876000830184614f63565b92915050565b6000806000806000806000806000806101408b8d031215614fb157614fb061486d565b5b6000614fbf8d828e016148c0565b9a50506020614fd08d828e016148f6565b9950506040614fe18d828e016148f6565b9850506060614ff28d828e016148f6565b97505060806150038d828e016148c0565b96505060a06150148d828e016148f6565b95505060c06150258d828e01614deb565b94505060e06150368d828e01614e24565b9350506101006150488d828e01614e5a565b92505061012061505a8d828e01614e5a565b9150509295989b9194979a5092959850565b6000806000806000608086880312156150885761508761486d565b5b6000615096888289016148f6565b955050602086013567ffffffffffffffff8111156150b7576150b6614872565b5b6150c388828901614a4d565b945094505060406150d6888289016148c0565b92505060606150e7888289016148f6565b9150509295509295909350565b600080600080600080600060e0888a0312156151135761511261486d565b5b60006151218a828b016148c0565b97505060206151328a828b016148c0565b96505060406151438a828b016148f6565b95505060606151548a828b016148f6565b94505060806151658a828b016148f6565b93505060a06151768a828b016148c0565b92505060c06151878a828b016148f6565b91505092959891949750929550565b600080600080600080600080610100898b0312156151b7576151b661486d565b5b60006151c58b828c016148c0565b98505060206151d68b828c016148c0565b97505060406151e78b828c016148f6565b96505060606151f88b828c016148f6565b95505060806152098b828c016148f6565b94505060a061521a8b828c016148f6565b93505060c061522b8b828c016148c0565b92505060e061523c8b828c016148f6565b9150509295985092959890939650565b60006060820190506152616000830186614998565b61526e6020830185614998565b61527b6040830184614998565b949350505050565b600082825260208201905092915050565b7f4558504952454400000000000000000000000000000000000000000000000000600082015250565b60006152ca600783615283565b91506152d582615294565b602082019050919050565b600060208201905081810360008301526152f9816152bd565b9050919050565b7f4e487b7100000000000000000000000000000000000000000000000000000000600052601160045260246000fd5b600061533a826148d5565b9150615345836148d5565b925082820390508181111561535d5761535c615300565b5b92915050565b7f4e487b7100000000000000000000000000000000000000000000000000000000600052603260045260246000fd5b6000602082840312156153a8576153a761486d565b5b60006153b6848285016148c0565b91505092915050565b7f494e56414c49445f504154480000000000000000000000000000000000000000600082015250565b60006153f5600c83615283565b9150615400826153bf565b602082019050919050565b60006020820190508181036000830152615424816153e8565b9050919050565b7f494e53554646494349454e545f4f55545055545f414d4f554e54000000000000600082015250565b6000615461601a83615283565b915061546c8261542b565b602082019050919050565b6000602082019050818103600083015261549081615454565b9050919050565b6154a081614e00565b82525050565b6154af81614e39565b82525050565b600060e0820190506154ca600083018a614f63565b6154d76020830189614f63565b6154e46040830188614998565b6154f16060830187614998565b6154fe6080830186615497565b61550b60a08301856154a6565b61551860c08301846154a6565b98975050505050505050565b7f4558434553534956455f494e5055545f414d4f554e5400000000000000000000600082015250565b600061555a601683615283565b915061556582615524565b602082019050919050565b600060208201905081810360008301526155898161554d565b9050919050565b60008151905061559f816148df565b92915050565b6000602082840312156155bb576155ba61486d565b5b60006155c984828501615590565b91505092915050565b60006040820190506155e76000830185614f63565b6155f46020830184614998565b9392505050565b60008151905061560a81614dd4565b92915050565b6000602082840312156156265761562561486d565b5b6000615634848285016155fb565b91505092915050565b60006060820190506156526000830186614f63565b61565f6020830185614f63565b61566c6040830184614998565b949350505050565b6000806040838503121561568b5761568a61486d565b5b600061569985828601615590565b92505060206156aa85828601615590565b9150509250929050565b7f494e53554646494349454e545f415f414d4f554e540000000000000000000000600082015250565b60006156ea601583615283565b91506156f5826156b4565b602082019050919050565b60006020820190508181036000830152615719816156dd565b9050919050565b7f494e53554646494349454e545f425f414d4f554e540000000000000000000000600082015250565b6000615756601583615283565b915061576182615720565b602082019050919050565b6000602082019050818103600083015261578581615749565b9050919050565b7f5472616e7366657248656c7065723a3a736166655472616e736665723a20747260008201527f616e73666572206661696c656400000000000000000000000000000000000000602082015250565b60006157e8602d83615283565b91506157f38261578c565b604082019050919050565b60006020820190508181036000830152615817816157db565b9050919050565b600081519050919050565b600081905092915050565b60005b83811015615852578082015181840152602081019050615837565b60008484015250505050565b60006158698261581e565b6158738185615829565b9350615883818560208601615834565b80840191505092915050565b600061589b828461585e565b915081905092915050565b7f5472616e7366657248656c7065723a3a736166655472616e736665724554483a60008201527f20455448207472616e73666572206661696c6564000000000000000000000000602082015250565b6000615902603483615283565b915061590d826158a6565b604082019050919050565b60006020820190508181036000830152615931816158f5565b9050919050565b7f494e53554646494349454e545f494e5055545f414d4f554e5400000000000000600082015250565b600061596e601983615283565b915061597982615938565b602082019050919050565b6000602082019050818103600083015261599d81615961565b9050919050565b7f494e53554646494349454e545f4c495155494449545900000000000000000000600082015250565b60006159da601683615283565b91506159e5826159a4565b602082019050919050565b60006020820190508181036000830152615a09816159cd565b9050919050565b6000615a1b826148d5565b9150615a26836148d5565b9250828202615a34816148d5565b91508282048414831517615a4b57615a4a615300565b5b5092915050565b6000615a5d826148d5565b9150615a68836148d5565b9250828201905080821115615a8057615a7f615300565b5b92915050565b7f4e487b7100000000000000000000000000000000000000000000000000000000600052601260045260246000fd5b6000615ac0826148d5565b9150615acb836148d5565b925082615adb57615ada615a86565b5b828204905092915050565b6000615af1826148d5565b91507fffffffffffffffffffffffffffffffffffffffffffffffffffffffffffffffff8203615b2357615b22615300565b5b600182019050919050565b60008160601b9050919050565b6000615b4682615b2e565b9050919050565b6000615b5882615b3b565b9050919050565b615b70615b6b82614897565b615b4d565b82525050565b6000615b828285615b5f565b601482019150615b928284615b5f565b6014820191508190509392505050565b600081905092915050565b7fff00000000000000000000000000000000000000000000000000000000000000600082015250565b6000615be3600183615ba2565b9150615bee82615bad565b600182019050919050565b6000819050919050565b615c14615c0f82614e39565b615bf9565b82525050565b7f96e8ac4277198ff8b6f785478aa9a39f403cb768dd02cbee326c3e7da348845f600082015250565b6000615c50602083615ba2565b9150615c5b82615c1a565b602082019050919050565b6000615c7182615bd6565b9150615c7d8285615b5f565b601482019150615c8d8284615c03565b602082019150615c9c82615c43565b91508190509392505050565b7f5472616e7366657248656c7065723a3a7472616e7366657246726f6d3a20747260008201527f616e7366657246726f6d206661696c6564200000000000000000000000000000602082015250565b6000615d04603283615283565b9150615d0f82615ca8565b604082019050919050565b60006020820190508181036000830152615d3381615cf7565b9050919050565b600082825260208201905092915050565b6000615d568261581e565b615d608185615d3a565b9350615d70818560208601615834565b615d7981614c1d565b840191505092915050565b6000608082019050615d996000830187614998565b615da66020830186614998565b615db36040830185614f63565b8181036060830152615dc58184615d4b565b905095945050505050565b6000615ddb826148d5565b915060008203615dee57615ded615300565b5b600182039050919050565b60006dffffffffffffffffffffffffffff82169050919050565b615e1c81615df9565b8114615e2757600080fd5b50565b600081519050615e3981615e13565b92915050565b600063ffffffff82169050919050565b615e5881615e3f565b8114615e6357600080fd5b50565b600081519050615e7581615e4f565b92915050565b600080600060608486031215615e9457615e9361486d565b5b6000615ea286828701615e2a565b9350506020615eb386828701615e2a565b9250506040615ec486828701615e66565b9150509250925092565b7f494e53554646494349454e545f414d4f554e5400000000000000000000000000600082015250565b6000615f04601383615283565b9150615f0f82615ece565b602082019050919050565b60006020820190508181036000830152615f3381615ef7565b9050919050565b7f4944454e544943414c5f41444452455353455300000000000000000000000000600082015250565b6000615f70601383615283565b9150615f7b82615f3a565b602082019050919050565b60006020820190508181036000830152615f9f81615f63565b9050919050565b7f5a45524f5f414444524553530000000000000000000000000000000000000000600082015250565b6000615fdc600c83615283565b9150615fe782615fa6565b602082019050919050565b6000602082019050818103600083015261600b81615fcf565b905091905056fea26469706673582212204d8e9a2602c5750aa210fae38703d32d3af4275abbc13a27e4ece99078f433c264736f6c63430008120033",
			"opcodes": "PUSH2 0x120 PUSH1 0x40 MSTORE CALLVALUE DUP1 ISZERO PUSH2 0x11 JUMPI PUSH1 0x0 DUP1 REVERT JUMPDEST POP PUSH20 0x3C16CF6CC170A4A5C1FD82490F21BB01F9682C38 PUSH20 0xFFFFFFFFFFFFFFFFFFFFFFFFFFFFFFFFFFFFFFFF AND PUSH1 0x80 DUP2 PUSH20 0xFFFFFFFFFFFFFFFFFFFFFFFFFFFFFFFFFFFFFFFF AND DUP2 MSTORE POP POP PUSH20 0xFCE02B33A21B8DCD5073AB42B4B80F4F002EA77B PUSH20 0xFFFFFFFFFFFFFFFFFFFFFFFFFFFFFFFFFFFFFFFF AND PUSH1 0xA0 DUP2 PUSH20 0xFFFFFFFFFFFFFFFFFFFFFFFFFFFFFFFFFFFFFFFF AND DUP2 MSTORE POP POP PUSH20 0xD0DA387609ADC13779BADAF1315A4904CD40976E PUSH20 0xFFFFFFFFFFFFFFFFFFFFFFFFFFFFFFFFFFFFFFFF AND PUSH1 0xC0 DUP2 PUSH20 0xFFFFFFFFFFFFFFFFFFFFFFFFFFFFFFFFFFFFFFFF AND DUP2 MSTORE POP POP PUSH20 0xD1F9C3397EA04D3DE7F002CB9E63CB49D0DEAA36 PUSH20 0xFFFFFFFFFFFFFFFFFFFFFFFFFFFFFFFFFFFFFFFF AND PUSH1 0xE0 DUP2 PUSH20 0xFFFFFFFFFFFFFFFFFFFFFFFFFFFFFFFFFFFFFFFF AND DUP2 MSTORE POP POP PUSH20 0x3F7E06A4F8061B0389FE0551A2E33376F2BA02EE PUSH20 0xFFFFFFFFFFFFFFFFFFFFFFFFFFFFFFFFFFFFFFFF AND PUSH2 0x100 DUP2 PUSH20 0xFFFFFFFFFFFFFFFFFFFFFFFFFFFFFFFFFFFFFFFF AND DUP2 MSTORE POP POP PUSH1 0x80 MLOAD PUSH1 0xA0 MLOAD PUSH1 0xC0 MLOAD PUSH1 0xE0 MLOAD PUSH2 0x100 MLOAD PUSH2 0x6048 PUSH3 0x341 PUSH1 0x0 CODECOPY PUSH1 0x0 PUSH2 0x220E ADD MSTORE PUSH1 0x0 PUSH2 0x2B3E ADD MSTORE PUSH1 0x0 PUSH2 0x1042 ADD MSTORE PUSH1 0x0 DUP2 DUP2 PUSH2 0x1A7 ADD MSTORE DUP2 DUP2 PUSH2 0x802 ADD MSTORE DUP2 DUP2 PUSH2 0x840 ADD MSTORE DUP2 DUP2 PUSH2 0x93D ADD MSTORE DUP2 DUP2 PUSH2 0xBEE ADD MSTORE DUP2 DUP2 PUSH2 0x10AC ADD MSTORE DUP2 DUP2 PUSH2 0x1351 ADD MSTORE DUP2 DUP2 PUSH2 0x1467 ADD MSTORE DUP2 DUP2 PUSH2 0x1883 ADD MSTORE DUP2 DUP2 PUSH2 0x1A42 ADD MSTORE DUP2 DUP2 PUSH2 0x1B21 ADD MSTORE DUP2 DUP2 PUSH2 0x1C06 ADD MSTORE DUP2 DUP2 PUSH2 0x1D94 ADD MSTORE DUP2 DUP2 PUSH2 0x1E30 ADD MSTORE DUP2 DUP2 PUSH2 0x2232 ADD MSTORE DUP2 DUP2 PUSH2 0x22B6 ADD MSTORE DUP2 DUP2 PUSH2 0x236B ADD MSTORE DUP2 DUP2 PUSH2 0x244F ADD MSTORE DUP2 DUP2 PUSH2 0x250A ADD MSTORE DUP2 DUP2 PUSH2 0x258B ADD MSTORE DUP2 DUP2 PUSH2 0x2BC1 ADD MSTORE DUP2 DUP2 PUSH2 0x2E29 ADD MSTORE DUP2 DUP2 PUSH2 0x2E82 ADD MSTORE DUP2 DUP2 PUSH2 0x2EB6 ADD MSTORE DUP2 DUP2 PUSH2 0x2F37 ADD MSTORE DUP2 DUP2 PUSH2 0x30D2 ADD MSTORE DUP2 DUP2 PUSH2 0x3254 ADD MSTORE PUSH2 0x32F0 ADD MSTORE PUSH1 0x0 DUP2 DUP2 PUSH2 0xA04 ADD MSTORE DUP2 DUP2 PUSH2 0xB09 ADD MSTORE DUP2 DUP2 PUSH2 0xCE1 ADD MSTORE DUP2 DUP2 PUSH2 0xD19 ADD MSTORE DUP2 DUP2 PUSH2 0xE4D ADD MSTORE DUP2 DUP2 PUSH2 0xF52 ADD MSTORE DUP2 DUP2 PUSH2 0x1173 ADD MSTORE DUP2 DUP2 PUSH2 0x126C ADD MSTORE DUP2 DUP2 PUSH2 0x1445 ADD MSTORE DUP2 DUP2 PUSH2 0x15BB ADD MSTORE DUP2 DUP2 PUSH2 0x1977 ADD MSTORE DUP2 DUP2 PUSH2 0x1CBF ADD MSTORE DUP2 DUP2 PUSH2 0x1E6F ADD MSTORE DUP2 DUP2 PUSH2 0x2025 ADD MSTORE DUP2 DUP2 PUSH2 0x211E ADD MSTORE DUP2 DUP2 PUSH2 0x25CA ADD MSTORE DUP2 DUP2 PUSH2 0x2902 ADD MSTORE DUP2 DUP2 PUSH2 0x2B1A ADD MSTORE DUP2 DUP2 PUSH2 0x2B67 ADD MSTORE DUP2 DUP2 PUSH2 0x2B9F ADD MSTORE DUP2 DUP2 PUSH2 0x2D0C ADD MSTORE DUP2 DUP2 PUSH2 0x2E60 ADD MSTORE DUP2 DUP2 PUSH2 0x318B ADD MSTORE DUP2 DUP2 PUSH2 0x332F ADD MSTORE DUP2 DUP2 PUSH2 0x3C87 ADD MSTORE DUP2 DUP2 PUSH2 0x3CDB ADD MSTORE DUP2 DUP2 PUSH2 0x3FF0 ADD MSTORE DUP2 DUP2 PUSH2 0x41F5 ADD MSTORE PUSH2 0x45FD ADD MSTORE PUSH2 0x6048 PUSH1 0x0 RETURN INVALID PUSH1 0x80 PUSH1 0x40 MSTORE PUSH1 0x4 CALLDATASIZE LT PUSH2 0x1A0 JUMPI PUSH1 0x0 CALLDATALOAD PUSH1 0xE0 SHR DUP1 PUSH4 0x8803DBEE GT PUSH2 0xEC JUMPI DUP1 PUSH4 0xC45A0155 GT PUSH2 0x8A JUMPI DUP1 PUSH4 0xDED9382A GT PUSH2 0x64 JUMPI DUP1 PUSH4 0xDED9382A EQ PUSH2 0x6D6 JUMPI DUP1 PUSH4 0xE8E33700 EQ PUSH2 0x714 JUMPI DUP1 PUSH4 0xF305D719 EQ PUSH2 0x753 JUMPI DUP1 PUSH4 0xFB3BDB41 EQ PUSH2 0x785 JUMPI PUSH2 0x203 JUMP JUMPDEST DUP1 PUSH4 0xC45A0155 EQ PUSH2 0x643 JUMPI DUP1 PUSH4 0xC54E44EB EQ PUSH2 0x66E JUMPI DUP1 PUSH4 0xD06CA61F EQ PUSH2 0x699 JUMPI PUSH2 0x203 JUMP JUMPDEST DUP1 PUSH4 0xAD615DEC GT PUSH2 0xC6 JUMPI DUP1 PUSH4 0xAD615DEC EQ PUSH2 0x56F JUMPI DUP1 PUSH4 0xAF2979EB EQ PUSH2 0x5AC JUMPI DUP1 PUSH4 0xB6F9DE95 EQ PUSH2 0x5E9 JUMPI DUP1 PUSH4 0xBAA2ABDE EQ PUSH2 0x605 JUMPI PUSH2 0x203 JUMP JUMPDEST DUP1 PUSH4 0x8803DBEE EQ PUSH2 0x4DC JUMPI DUP1 PUSH4 0xA7C37AAA EQ PUSH2 0x519 JUMPI DUP1 PUSH4 0xAD5C4648 EQ PUSH2 0x544 JUMPI PUSH2 0x203 JUMP JUMPDEST DUP1 PUSH4 0x4624FC34 GT PUSH2 0x159 JUMPI DUP1 PUSH4 0x5C11D795 GT PUSH2 0x133 JUMPI DUP1 PUSH4 0x5C11D795 EQ PUSH2 0x41D JUMPI DUP1 PUSH4 0x791AC947 EQ PUSH2 0x446 JUMPI DUP1 PUSH4 0x7FF36AB5 EQ PUSH2 0x46F JUMPI DUP1 PUSH4 0x85F8C259 EQ PUSH2 0x49F JUMPI PUSH2 0x203 JUMP JUMPDEST DUP1 PUSH4 0x4624FC34 EQ PUSH2 0x378 JUMPI DUP1 PUSH4 0x4A25D94A EQ PUSH2 0x3A3 JUMPI DUP1 PUSH4 0x5B0D5984 EQ PUSH2 0x3E0 JUMPI PUSH2 0x203 JUMP JUMPDEST DUP1 PUSH4 0x2751CEC EQ PUSH2 0x208 JUMPI DUP1 PUSH4 0x54D50D4 EQ PUSH2 0x246 JUMPI DUP1 PUSH4 0x18CBAFE5 EQ PUSH2 0x283 JUMPI DUP1 PUSH4 0x1F00CA74 EQ PUSH2 0x2C0 JUMPI DUP1 PUSH4 0x2195995C EQ PUSH2 0x2FD JUMPI DUP1 PUSH4 0x38ED1739 EQ PUSH2 0x33B JUMPI PUSH2 0x203 JUMP JUMPDEST CALLDATASIZE PUSH2 0x203 JUMPI PUSH32 0x0 PUSH20 0xFFFFFFFFFFFFFFFFFFFFFFFFFFFFFFFFFFFFFFFF AND CALLER PUSH20 0xFFFFFFFFFFFFFFFFFFFFFFFFFFFFFFFFFFFFFFFF AND EQ PUSH2 0x201 JUMPI PUSH2 0x200 PUSH2 0x4834 JUMP JUMPDEST JUMPDEST STOP JUMPDEST PUSH1 0x0 DUP1 REVERT JUMPDEST CALLVALUE DUP1 ISZERO PUSH2 0x214 JUMPI PUSH1 0x0 DUP1 REVERT JUMPDEST POP PUSH2 0x22F PUSH1 0x4 DUP1 CALLDATASIZE SUB DUP2 ADD SWAP1 PUSH2 0x22A SWAP2 SWAP1 PUSH2 0x490B JUMP JUMPDEST PUSH2 0x7B5 JUMP JUMPDEST PUSH1 0x40 MLOAD PUSH2 0x23D SWAP3 SWAP2 SWAP1 PUSH2 0x49A7 JUMP JUMPDEST PUSH1 0x40 MLOAD DUP1 SWAP2 SUB SWAP1 RETURN JUMPDEST CALLVALUE DUP1 ISZERO PUSH2 0x252 JUMPI PUSH1 0x0 DUP1 REVERT JUMPDEST POP PUSH2 0x26D PUSH1 0x4 DUP1 CALLDATASIZE SUB DUP2 ADD SWAP1 PUSH2 0x268 SWAP2 SWAP1 PUSH2 0x49D0 JUMP JUMPDEST PUSH2 0x8DF JUMP JUMPDEST PUSH1 0x40 MLOAD PUSH2 0x27A SWAP2 SWAP1 PUSH2 0x4A23 JUMP JUMPDEST PUSH1 0x40 MLOAD DUP1 SWAP2 SUB SWAP1 RETURN JUMPDEST CALLVALUE DUP1 ISZERO PUSH2 0x28F JUMPI PUSH1 0x0 DUP1 REVERT JUMPDEST POP PUSH2 0x2AA PUSH1 0x4 DUP1 CALLDATASIZE SUB DUP2 ADD SWAP1 PUSH2 0x2A5 SWAP2 SWAP1 PUSH2 0x4AA3 JUMP JUMPDEST PUSH2 0x8F5 JUMP JUMPDEST PUSH1 0x40 MLOAD PUSH2 0x2B7 SWAP2 SWAP1 PUSH2 0x4BFB JUMP JUMPDEST PUSH1 0x40 MLOAD DUP1 SWAP2 SUB SWAP1 RETURN JUMPDEST CALLVALUE DUP1 ISZERO PUSH2 0x2CC JUMPI PUSH1 0x0 DUP1 REVERT JUMPDEST POP PUSH2 0x2E7 PUSH1 0x4 DUP1 CALLDATASIZE SUB DUP2 ADD SWAP1 PUSH2 0x2E2 SWAP2 SWAP1 PUSH2 0x4D6C JUMP JUMPDEST PUSH2 0xCDA JUMP JUMPDEST PUSH1 0x40 MLOAD PUSH2 0x2F4 SWAP2 SWAP1 PUSH2 0x4BFB JUMP JUMPDEST PUSH1 0x40 MLOAD DUP1 SWAP2 SUB SWAP1 RETURN JUMPDEST CALLVALUE DUP1 ISZERO PUSH2 0x309 JUMPI PUSH1 0x0 DUP1 REVERT JUMPDEST POP PUSH2 0x324 PUSH1 0x4 DUP1 CALLDATASIZE SUB DUP2 ADD SWAP1 PUSH2 0x31F SWAP2 SWAP1 PUSH2 0x4E6F JUMP JUMPDEST PUSH2 0xD0F JUMP JUMPDEST PUSH1 0x40 MLOAD PUSH2 0x332 SWAP3 SWAP2 SWAP1 PUSH2 0x49A7 JUMP JUMPDEST PUSH1 0x40 MLOAD DUP1 SWAP2 SUB SWAP1 RETURN JUMPDEST CALLVALUE DUP1 ISZERO PUSH2 0x347 JUMPI PUSH1 0x0 DUP1 REVERT JUMPDEST POP PUSH2 0x362 PUSH1 0x4 DUP1 CALLDATASIZE SUB DUP2 ADD SWAP1 PUSH2 0x35D SWAP2 SWAP1 PUSH2 0x4AA3 JUMP JUMPDEST PUSH2 0xE02 JUMP JUMPDEST PUSH1 0x40 MLOAD PUSH2 0x36F SWAP2 SWAP1 PUSH2 0x4BFB JUMP JUMPDEST PUSH1 0x40 MLOAD DUP1 SWAP2 SUB SWAP1 RETURN JUMPDEST CALLVALUE DUP1 ISZERO PUSH2 0x384 JUMPI PUSH1 0x0 DUP1 REVERT JUMPDEST POP PUSH2 0x38D PUSH2 0x1040 JUMP JUMPDEST PUSH1 0x40 MLOAD PUSH2 0x39A SWAP2 SWAP1 PUSH2 0x4F72 JUMP JUMPDEST PUSH1 0x40 MLOAD DUP1 SWAP2 SUB SWAP1 RETURN JUMPDEST CALLVALUE DUP1 ISZERO PUSH2 0x3AF JUMPI PUSH1 0x0 DUP1 REVERT JUMPDEST POP PUSH2 0x3CA PUSH1 0x4 DUP1 CALLDATASIZE SUB DUP2 ADD SWAP1 PUSH2 0x3C5 SWAP2 SWAP1 PUSH2 0x4AA3 JUMP JUMPDEST PUSH2 0x1064 JUMP JUMPDEST PUSH1 0x40 MLOAD PUSH2 0x3D7 SWAP2 SWAP1 PUSH2 0x4BFB JUMP JUMPDEST PUSH1 0x40 MLOAD DUP1 SWAP2 SUB SWAP1 RETURN JUMPDEST CALLVALUE DUP1 ISZERO PUSH2 0x3EC JUMPI PUSH1 0x0 DUP1 REVERT JUMPDEST POP PUSH2 0x407 PUSH1 0x4 DUP1 CALLDATASIZE SUB DUP2 ADD SWAP1 PUSH2 0x402 SWAP2 SWAP1 PUSH2 0x4F8D JUMP JUMPDEST PUSH2 0x143D JUMP JUMPDEST PUSH1 0x40 MLOAD PUSH2 0x414 SWAP2 SWAP1 PUSH2 0x4A23 JUMP JUMPDEST PUSH1 0x40 MLOAD DUP1 SWAP2 SUB SWAP1 RETURN JUMPDEST CALLVALUE DUP1 ISZERO PUSH2 0x429 JUMPI PUSH1 0x0 DUP1 REVERT JUMPDEST POP PUSH2 0x444 PUSH1 0x4 DUP1 CALLDATASIZE SUB DUP2 ADD SWAP1 PUSH2 0x43F SWAP2 SWAP1 PUSH2 0x4AA3 JUMP JUMPDEST PUSH2 0x1545 JUMP JUMPDEST STOP JUMPDEST CALLVALUE DUP1 ISZERO PUSH2 0x452 JUMPI PUSH1 0x0 DUP1 REVERT JUMPDEST POP PUSH2 0x46D PUSH1 0x4 DUP1 CALLDATASIZE SUB DUP2 ADD SWAP1 PUSH2 0x468 SWAP2 SWAP1 PUSH2 0x4AA3 JUMP JUMPDEST PUSH2 0x183D JUMP JUMPDEST STOP JUMPDEST PUSH2 0x489 PUSH1 0x4 DUP1 CALLDATASIZE SUB DUP2 ADD SWAP1 PUSH2 0x484 SWAP2 SWAP1 PUSH2 0x506C JUMP JUMPDEST PUSH2 0x1BBE JUMP JUMPDEST PUSH1 0x40 MLOAD PUSH2 0x496 SWAP2 SWAP1 PUSH2 0x4BFB JUMP JUMPDEST PUSH1 0x40 MLOAD DUP1 SWAP2 SUB SWAP1 RETURN JUMPDEST CALLVALUE DUP1 ISZERO PUSH2 0x4AB JUMPI PUSH1 0x0 DUP1 REVERT JUMPDEST POP PUSH2 0x4C6 PUSH1 0x4 DUP1 CALLDATASIZE SUB DUP2 ADD SWAP1 PUSH2 0x4C1 SWAP2 SWAP1 PUSH2 0x49D0 JUMP JUMPDEST PUSH2 0x1FC4 JUMP JUMPDEST PUSH1 0x40 MLOAD PUSH2 0x4D3 SWAP2 SWAP1 PUSH2 0x4A23 JUMP JUMPDEST PUSH1 0x40 MLOAD DUP1 SWAP2 SUB SWAP1 RETURN JUMPDEST CALLVALUE DUP1 ISZERO PUSH2 0x4E8 JUMPI PUSH1 0x0 DUP1 REVERT JUMPDEST POP PUSH2 0x503 PUSH1 0x4 DUP1 CALLDATASIZE SUB DUP2 ADD SWAP1 PUSH2 0x4FE SWAP2 SWAP1 PUSH2 0x4AA3 JUMP JUMPDEST PUSH2 0x1FDA JUMP JUMPDEST PUSH1 0x40 MLOAD PUSH2 0x510 SWAP2 SWAP1 PUSH2 0x4BFB JUMP JUMPDEST PUSH1 0x40 MLOAD DUP1 SWAP2 SUB SWAP1 RETURN JUMPDEST CALLVALUE DUP1 ISZERO PUSH2 0x525 JUMPI PUSH1 0x0 DUP1 REVERT JUMPDEST POP PUSH2 0x52E PUSH2 0x220C JUMP JUMPDEST PUSH1 0x40 MLOAD PUSH2 0x53B SWAP2 SWAP1 PUSH2 0x4F72 JUMP JUMPDEST PUSH1 0x40 MLOAD DUP1 SWAP2 SUB SWAP1 RETURN JUMPDEST CALLVALUE DUP1 ISZERO PUSH2 0x550 JUMPI PUSH1 0x0 DUP1 REVERT JUMPDEST POP PUSH2 0x559 PUSH2 0x2230 JUMP JUMPDEST PUSH1 0x40 MLOAD PUSH2 0x566 SWAP2 SWAP1 PUSH2 0x4F72 JUMP JUMPDEST PUSH1 0x40 MLOAD DUP1 SWAP2 SUB SWAP1 RETURN JUMPDEST CALLVALUE DUP1 ISZERO PUSH2 0x57B JUMPI PUSH1 0x0 DUP1 REVERT JUMPDEST POP PUSH2 0x596 PUSH1 0x4 DUP1 CALLDATASIZE SUB DUP2 ADD SWAP1 PUSH2 0x591 SWAP2 SWAP1 PUSH2 0x49D0 JUMP JUMPDEST PUSH2 0x2254 JUMP JUMPDEST PUSH1 0x40 MLOAD PUSH2 0x5A3 SWAP2 SWAP1 PUSH2 0x4A23 JUMP JUMPDEST PUSH1 0x40 MLOAD DUP1 SWAP2 SUB SWAP1 RETURN JUMPDEST CALLVALUE DUP1 ISZERO PUSH2 0x5B8 JUMPI PUSH1 0x0 DUP1 REVERT JUMPDEST POP PUSH2 0x5D3 PUSH1 0x4 DUP1 CALLDATASIZE SUB DUP2 ADD SWAP1 PUSH2 0x5CE SWAP2 SWAP1 PUSH2 0x490B JUMP JUMPDEST PUSH2 0x226A JUMP JUMPDEST PUSH1 0x40 MLOAD PUSH2 0x5E0 SWAP2 SWAP1 PUSH2 0x4A23 JUMP JUMPDEST PUSH1 0x40 MLOAD DUP1 SWAP2 SUB SWAP1 RETURN JUMPDEST PUSH2 0x603 PUSH1 0x4 DUP1 CALLDATASIZE SUB DUP2 ADD SWAP1 PUSH2 0x5FE SWAP2 SWAP1 PUSH2 0x506C JUMP JUMPDEST PUSH2 0x2409 JUMP JUMPDEST STOP JUMPDEST CALLVALUE DUP1 ISZERO PUSH2 0x611 JUMPI PUSH1 0x0 DUP1 REVERT JUMPDEST POP PUSH2 0x62C PUSH1 0x4 DUP1 CALLDATASIZE SUB DUP2 ADD SWAP1 PUSH2 0x627 SWAP2 SWAP1 PUSH2 0x50F4 JUMP JUMPDEST PUSH2 0x28B4 JUMP JUMPDEST PUSH1 0x40 MLOAD PUSH2 0x63A SWAP3 SWAP2 SWAP1 PUSH2 0x49A7 JUMP JUMPDEST PUSH1 0x40 MLOAD DUP1 SWAP2 SUB SWAP1 RETURN JUMPDEST CALLVALUE DUP1 ISZERO PUSH2 0x64F JUMPI PUSH1 0x0 DUP1 REVERT JUMPDEST POP PUSH2 0x658 PUSH2 0x2B18 JUMP JUMPDEST PUSH1 0x40 MLOAD PUSH2 0x665 SWAP2 SWAP1 PUSH2 0x4F72 JUMP JUMPDEST PUSH1 0x40 MLOAD DUP1 SWAP2 SUB SWAP1 RETURN JUMPDEST CALLVALUE DUP1 ISZERO PUSH2 0x67A JUMPI PUSH1 0x0 DUP1 REVERT JUMPDEST POP PUSH2 0x683 PUSH2 0x2B3C JUMP JUMPDEST PUSH1 0x40 MLOAD PUSH2 0x690 SWAP2 SWAP1 PUSH2 0x4F72 JUMP JUMPDEST PUSH1 0x40 MLOAD DUP1 SWAP2 SUB SWAP1 RETURN JUMPDEST CALLVALUE DUP1 ISZERO PUSH2 0x6A5 JUMPI PUSH1 0x0 DUP1 REVERT JUMPDEST POP PUSH2 0x6C0 PUSH1 0x4 DUP1 CALLDATASIZE SUB DUP2 ADD SWAP1 PUSH2 0x6BB SWAP2 SWAP1 PUSH2 0x4D6C JUMP JUMPDEST PUSH2 0x2B60 JUMP JUMPDEST PUSH1 0x40 MLOAD PUSH2 0x6CD SWAP2 SWAP1 PUSH2 0x4BFB JUMP JUMPDEST PUSH1 0x40 MLOAD DUP1 SWAP2 SUB SWAP1 RETURN JUMPDEST CALLVALUE DUP1 ISZERO PUSH2 0x6E2 JUMPI PUSH1 0x0 DUP1 REVERT JUMPDEST POP PUSH2 0x6FD PUSH1 0x4 DUP1 CALLDATASIZE SUB DUP2 ADD SWAP1 PUSH2 0x6F8 SWAP2 SWAP1 PUSH2 0x4F8D JUMP JUMPDEST PUSH2 0x2B95 JUMP JUMPDEST PUSH1 0x40 MLOAD PUSH2 0x70B SWAP3 SWAP2 SWAP1 PUSH2 0x49A7 JUMP JUMPDEST PUSH1 0x40 MLOAD DUP1 SWAP2 SUB SWAP1 RETURN JUMPDEST CALLVALUE DUP1 ISZERO PUSH2 0x720 JUMPI PUSH1 0x0 DUP1 REVERT JUMPDEST POP PUSH2 0x73B PUSH1 0x4 DUP1 CALLDATASIZE SUB DUP2 ADD SWAP1 PUSH2 0x736 SWAP2 SWAP1 PUSH2 0x5196 JUMP JUMPDEST PUSH2 0x2CA6 JUMP JUMPDEST PUSH1 0x40 MLOAD PUSH2 0x74A SWAP4 SWAP3 SWAP2 SWAP1 PUSH2 0x524C JUMP JUMPDEST PUSH1 0x40 MLOAD DUP1 SWAP2 SUB SWAP1 RETURN JUMPDEST PUSH2 0x76D PUSH1 0x4 DUP1 CALLDATASIZE SUB DUP2 ADD SWAP1 PUSH2 0x768 SWAP2 SWAP1 PUSH2 0x490B JUMP JUMPDEST PUSH2 0x2DDA JUMP JUMPDEST PUSH1 0x40 MLOAD PUSH2 0x77C SWAP4 SWAP3 SWAP2 SWAP1 PUSH2 0x524C JUMP JUMPDEST PUSH1 0x40 MLOAD DUP1 SWAP2 SUB SWAP1 RETURN JUMPDEST PUSH2 0x79F PUSH1 0x4 DUP1 CALLDATASIZE SUB DUP2 ADD SWAP1 PUSH2 0x79A SWAP2 SWAP1 PUSH2 0x506C JUMP JUMPDEST PUSH2 0x308A JUMP JUMPDEST PUSH1 0x40 MLOAD PUSH2 0x7AC SWAP2 SWAP1 PUSH2 0x4BFB JUMP JUMPDEST PUSH1 0x40 MLOAD DUP1 SWAP2 SUB SWAP1 RETURN JUMPDEST PUSH1 0x0 DUP1 DUP3 TIMESTAMP DUP2 LT ISZERO PUSH2 0x7FC JUMPI PUSH1 0x40 MLOAD PUSH32 0x8C379A000000000000000000000000000000000000000000000000000000000 DUP2 MSTORE PUSH1 0x4 ADD PUSH2 0x7F3 SWAP1 PUSH2 0x52E0 JUMP JUMPDEST PUSH1 0x40 MLOAD DUP1 SWAP2 SUB SWAP1 REVERT JUMPDEST PUSH2 0x82B DUP10 PUSH32 0x0 DUP11 DUP11 DUP11 ADDRESS DUP11 PUSH2 0x28B4 JUMP JUMPDEST DUP1 SWAP4 POP DUP2 SWAP5 POP POP POP PUSH2 0x83E DUP10 DUP7 DUP6 PUSH2 0x34D8 JUMP JUMPDEST PUSH32 0x0 PUSH20 0xFFFFFFFFFFFFFFFFFFFFFFFFFFFFFFFFFFFFFFFF AND PUSH4 0x2E1A7D4D DUP4 PUSH1 0x40 MLOAD DUP3 PUSH4 0xFFFFFFFF AND PUSH1 0xE0 SHL DUP2 MSTORE PUSH1 0x4 ADD PUSH2 0x897 SWAP2 SWAP1 PUSH2 0x4A23 JUMP JUMPDEST PUSH1 0x0 PUSH1 0x40 MLOAD DUP1 DUP4 SUB DUP2 PUSH1 0x0 DUP8 DUP1 EXTCODESIZE ISZERO DUP1 ISZERO PUSH2 0x8B1 JUMPI PUSH1 0x0 DUP1 REVERT JUMPDEST POP GAS CALL ISZERO DUP1 ISZERO PUSH2 0x8C5 JUMPI RETURNDATASIZE PUSH1 0x0 DUP1 RETURNDATACOPY RETURNDATASIZE PUSH1 0x0 REVERT JUMPDEST POP POP POP POP PUSH2 0x8D3 DUP6 DUP4 PUSH2 0x35A0 JUMP JUMPDEST POP SWAP7 POP SWAP7 SWAP5 POP POP POP POP POP JUMP JUMPDEST PUSH1 0x0 PUSH2 0x8EC DUP5 DUP5 DUP5 PUSH2 0x36A0 JUMP JUMPDEST SWAP1 POP SWAP4 SWAP3 POP POP POP JUMP JUMPDEST PUSH1 0x60 DUP2 TIMESTAMP DUP2 LT ISZERO PUSH2 0x93B JUMPI PUSH1 0x40 MLOAD PUSH32 0x8C379A000000000000000000000000000000000000000000000000000000000 DUP2 MSTORE PUSH1 0x4 ADD PUSH2 0x932 SWAP1 PUSH2 0x52E0 JUMP JUMPDEST PUSH1 0x40 MLOAD DUP1 SWAP2 SUB SWAP1 REVERT JUMPDEST PUSH32 0x0 PUSH20 0xFFFFFFFFFFFFFFFFFFFFFFFFFFFFFFFFFFFFFFFF AND DUP7 DUP7 PUSH1 0x1 DUP10 DUP10 SWAP1 POP PUSH2 0x984 SWAP2 SWAP1 PUSH2 0x532F JUMP JUMPDEST DUP2 DUP2 LT PUSH2 0x994 JUMPI PUSH2 0x993 PUSH2 0x5363 JUMP JUMPDEST JUMPDEST SWAP1 POP PUSH1 0x20 MUL ADD PUSH1 0x20 DUP2 ADD SWAP1 PUSH2 0x9A9 SWAP2 SWAP1 PUSH2 0x5392 JUMP JUMPDEST PUSH20 0xFFFFFFFFFFFFFFFFFFFFFFFFFFFFFFFFFFFFFFFF AND EQ PUSH2 0x9FF JUMPI PUSH1 0x40 MLOAD PUSH32 0x8C379A000000000000000000000000000000000000000000000000000000000 DUP2 MSTORE PUSH1 0x4 ADD PUSH2 0x9F6 SWAP1 PUSH2 0x540B JUMP JUMPDEST PUSH1 0x40 MLOAD DUP1 SWAP2 SUB SWAP1 REVERT JUMPDEST PUSH2 0xA6B PUSH32 0x0 DUP10 DUP9 DUP9 DUP1 DUP1 PUSH1 0x20 MUL PUSH1 0x20 ADD PUSH1 0x40 MLOAD SWAP1 DUP2 ADD PUSH1 0x40 MSTORE DUP1 SWAP4 SWAP3 SWAP2 SWAP1 DUP2 DUP2 MSTORE PUSH1 0x20 ADD DUP4 DUP4 PUSH1 0x20 MUL DUP1 DUP3 DUP5 CALLDATACOPY PUSH1 0x0 DUP2 DUP5 ADD MSTORE PUSH1 0x1F NOT PUSH1 0x1F DUP3 ADD AND SWAP1 POP DUP1 DUP4 ADD SWAP3 POP POP POP POP POP POP POP PUSH2 0x378A JUMP JUMPDEST SWAP2 POP DUP7 DUP3 PUSH1 0x1 DUP5 MLOAD PUSH2 0xA7D SWAP2 SWAP1 PUSH2 0x532F JUMP JUMPDEST DUP2 MLOAD DUP2 LT PUSH2 0xA8E JUMPI PUSH2 0xA8D PUSH2 0x5363 JUMP JUMPDEST JUMPDEST PUSH1 0x20 MUL PUSH1 0x20 ADD ADD MLOAD LT ISZERO PUSH2 0xAD7 JUMPI PUSH1 0x40 MLOAD PUSH32 0x8C379A000000000000000000000000000000000000000000000000000000000 DUP2 MSTORE PUSH1 0x4 ADD PUSH2 0xACE SWAP1 PUSH2 0x5477 JUMP JUMPDEST PUSH1 0x40 MLOAD DUP1 SWAP2 SUB SWAP1 REVERT JUMPDEST PUSH2 0xBA0 DUP7 DUP7 PUSH1 0x0 DUP2 DUP2 LT PUSH2 0xAEE JUMPI PUSH2 0xAED PUSH2 0x5363 JUMP JUMPDEST JUMPDEST SWAP1 POP PUSH1 0x20 MUL ADD PUSH1 0x20 DUP2 ADD SWAP1 PUSH2 0xB03 SWAP2 SWAP1 PUSH2 0x5392 JUMP JUMPDEST CALLER PUSH2 0xB7F PUSH32 0x0 DUP11 DUP11 PUSH1 0x0 DUP2 DUP2 LT PUSH2 0xB3C JUMPI PUSH2 0xB3B PUSH2 0x5363 JUMP JUMPDEST JUMPDEST SWAP1 POP PUSH1 0x20 MUL ADD PUSH1 0x20 DUP2 ADD SWAP1 PUSH2 0xB51 SWAP2 SWAP1 PUSH2 0x5392 JUMP JUMPDEST DUP12 DUP12 PUSH1 0x1 DUP2 DUP2 LT PUSH2 0xB65 JUMPI PUSH2 0xB64 PUSH2 0x5363 JUMP JUMPDEST JUMPDEST SWAP1 POP PUSH1 0x20 MUL ADD PUSH1 0x20 DUP2 ADD SWAP1 PUSH2 0xB7A SWAP2 SWAP1 PUSH2 0x5392 JUMP JUMPDEST PUSH2 0x3915 JUMP JUMPDEST DUP6 PUSH1 0x0 DUP2 MLOAD DUP2 LT PUSH2 0xB93 JUMPI PUSH2 0xB92 PUSH2 0x5363 JUMP JUMPDEST JUMPDEST PUSH1 0x20 MUL PUSH1 0x20 ADD ADD MLOAD PUSH2 0x3ABA JUMP JUMPDEST PUSH2 0xBEC DUP3 DUP8 DUP8 DUP1 DUP1 PUSH1 0x20 MUL PUSH1 0x20 ADD PUSH1 0x40 MLOAD SWAP1 DUP2 ADD PUSH1 0x40 MSTORE DUP1 SWAP4 SWAP3 SWAP2 SWAP1 DUP2 DUP2 MSTORE PUSH1 0x20 ADD DUP4 DUP4 PUSH1 0x20 MUL DUP1 DUP3 DUP5 CALLDATACOPY PUSH1 0x0 DUP2 DUP5 ADD MSTORE PUSH1 0x1F NOT PUSH1 0x1F DUP3 ADD AND SWAP1 POP DUP1 DUP4 ADD SWAP3 POP POP POP POP POP POP POP ADDRESS PUSH2 0x3B85 JUMP JUMPDEST PUSH32 0x0 PUSH20 0xFFFFFFFFFFFFFFFFFFFFFFFFFFFFFFFFFFFFFFFF AND PUSH4 0x2E1A7D4D DUP4 PUSH1 0x1 DUP6 MLOAD PUSH2 0xC37 SWAP2 SWAP1 PUSH2 0x532F JUMP JUMPDEST DUP2 MLOAD DUP2 LT PUSH2 0xC48 JUMPI PUSH2 0xC47 PUSH2 0x5363 JUMP JUMPDEST JUMPDEST PUSH1 0x20 MUL PUSH1 0x20 ADD ADD MLOAD PUSH1 0x40 MLOAD DUP3 PUSH4 0xFFFFFFFF AND PUSH1 0xE0 SHL DUP2 MSTORE PUSH1 0x4 ADD PUSH2 0xC6C SWAP2 SWAP1 PUSH2 0x4A23 JUMP JUMPDEST PUSH1 0x0 PUSH1 0x40 MLOAD DUP1 DUP4 SUB DUP2 PUSH1 0x0 DUP8 DUP1 EXTCODESIZE ISZERO DUP1 ISZERO PUSH2 0xC86 JUMPI PUSH1 0x0 DUP1 REVERT JUMPDEST POP GAS CALL ISZERO DUP1 ISZERO PUSH2 0xC9A JUMPI RETURNDATASIZE PUSH1 0x0 DUP1 RETURNDATACOPY RETURNDATASIZE PUSH1 0x0 REVERT JUMPDEST POP POP POP POP PUSH2 0xCCF DUP5 DUP4 PUSH1 0x1 DUP6 MLOAD PUSH2 0xCB1 SWAP2 SWAP1 PUSH2 0x532F JUMP JUMPDEST DUP2 MLOAD DUP2 LT PUSH2 0xCC2 JUMPI PUSH2 0xCC1 PUSH2 0x5363 JUMP JUMPDEST JUMPDEST PUSH1 0x20 MUL PUSH1 0x20 ADD ADD MLOAD PUSH2 0x35A0 JUMP JUMPDEST POP SWAP7 SWAP6 POP POP POP POP POP POP JUMP JUMPDEST PUSH1 0x60 PUSH2 0xD07 PUSH32 0x0 DUP5 DUP5 PUSH2 0x3DDE JUMP JUMPDEST SWAP1 POP SWAP3 SWAP2 POP POP JUMP JUMPDEST PUSH1 0x0 DUP1 PUSH1 0x0 PUSH2 0xD3F PUSH32 0x0 DUP16 DUP16 PUSH2 0x3915 JUMP JUMPDEST SWAP1 POP PUSH1 0x0 DUP8 PUSH2 0xD4E JUMPI DUP13 PUSH2 0xD60 JUMP JUMPDEST PUSH16 0xFFFFFFFFFFFFFFFFFFFFFFFFFFFFFFFF JUMPDEST SWAP1 POP DUP2 PUSH20 0xFFFFFFFFFFFFFFFFFFFFFFFFFFFFFFFFFFFFFFFF AND PUSH4 0xD505ACCF CALLER ADDRESS DUP5 DUP14 DUP13 DUP13 DUP13 PUSH1 0x40 MLOAD DUP9 PUSH4 0xFFFFFFFF AND PUSH1 0xE0 SHL DUP2 MSTORE PUSH1 0x4 ADD PUSH2 0xDA7 SWAP8 SWAP7 SWAP6 SWAP5 SWAP4 SWAP3 SWAP2 SWAP1 PUSH2 0x54B5 JUMP JUMPDEST PUSH1 0x0 PUSH1 0x40 MLOAD DUP1 DUP4 SUB DUP2 PUSH1 0x0 DUP8 DUP1 EXTCODESIZE ISZERO DUP1 ISZERO PUSH2 0xDC1 JUMPI PUSH1 0x0 DUP1 REVERT JUMPDEST POP GAS CALL ISZERO DUP1 ISZERO PUSH2 0xDD5 JUMPI RETURNDATASIZE PUSH1 0x0 DUP1 RETURNDATACOPY RETURNDATASIZE PUSH1 0x0 REVERT JUMPDEST POP POP POP POP PUSH2 0xDE8 DUP16 DUP16 DUP16 DUP16 DUP16 DUP16 DUP16 PUSH2 0x28B4 JUMP JUMPDEST DUP1 SWAP5 POP DUP2 SWAP6 POP POP POP POP POP SWAP12 POP SWAP12 SWAP10 POP POP POP POP POP POP POP POP POP POP JUMP JUMPDEST PUSH1 0x60 DUP2 TIMESTAMP DUP2 LT ISZERO PUSH2 0xE48 JUMPI PUSH1 0x40 MLOAD PUSH32 0x8C379A000000000000000000000000000000000000000000000000000000000 DUP2 MSTORE PUSH1 0x4 ADD PUSH2 0xE3F SWAP1 PUSH2 0x52E0 JUMP JUMPDEST PUSH1 0x40 MLOAD DUP1 SWAP2 SUB SWAP1 REVERT JUMPDEST PUSH2 0xEB4 PUSH32 0x0 DUP10 DUP9 DUP9 DUP1 DUP1 PUSH1 0x20 MUL PUSH1 0x20 ADD PUSH1 0x40 MLOAD SWAP1 DUP2 ADD PUSH1 0x40 MSTORE DUP1 SWAP4 SWAP3 SWAP2 SWAP1 DUP2 DUP2 MSTORE PUSH1 0x20 ADD DUP4 DUP4 PUSH1 0x20 MUL DUP1 DUP3 DUP5 CALLDATACOPY PUSH1 0x0 DUP2 DUP5 ADD MSTORE PUSH1 0x1F NOT PUSH1 0x1F DUP3 ADD AND SWAP1 POP DUP1 DUP4 ADD SWAP3 POP POP POP POP POP POP POP PUSH2 0x378A JUMP JUMPDEST SWAP2 POP DUP7 DUP3 PUSH1 0x1 DUP5 MLOAD PUSH2 0xEC6 SWAP2 SWAP1 PUSH2 0x532F JUMP JUMPDEST DUP2 MLOAD DUP2 LT PUSH2 0xED7 JUMPI PUSH2 0xED6 PUSH2 0x5363 JUMP JUMPDEST JUMPDEST PUSH1 0x20 MUL PUSH1 0x20 ADD ADD MLOAD LT ISZERO PUSH2 0xF20 JUMPI PUSH1 0x40 MLOAD PUSH32 0x8C379A000000000000000000000000000000000000000000000000000000000 DUP2 MSTORE PUSH1 0x4 ADD PUSH2 0xF17 SWAP1 PUSH2 0x5477 JUMP JUMPDEST PUSH1 0x40 MLOAD DUP1 SWAP2 SUB SWAP1 REVERT JUMPDEST PUSH2 0xFE9 DUP7 DUP7 PUSH1 0x0 DUP2 DUP2 LT PUSH2 0xF37 JUMPI PUSH2 0xF36 PUSH2 0x5363 JUMP JUMPDEST JUMPDEST SWAP1 POP PUSH1 0x20 MUL ADD PUSH1 0x20 DUP2 ADD SWAP1 PUSH2 0xF4C SWAP2 SWAP1 PUSH2 0x5392 JUMP JUMPDEST CALLER PUSH2 0xFC8 PUSH32 0x0 DUP11 DUP11 PUSH1 0x0 DUP2 DUP2 LT PUSH2 0xF85 JUMPI PUSH2 0xF84 PUSH2 0x5363 JUMP JUMPDEST JUMPDEST SWAP1 POP PUSH1 0x20 MUL ADD PUSH1 0x20 DUP2 ADD SWAP1 PUSH2 0xF9A SWAP2 SWAP1 PUSH2 0x5392 JUMP JUMPDEST DUP12 DUP12 PUSH1 0x1 DUP2 DUP2 LT PUSH2 0xFAE JUMPI PUSH2 0xFAD PUSH2 0x5363 JUMP JUMPDEST JUMPDEST SWAP1 POP PUSH1 0x20 MUL ADD PUSH1 0x20 DUP2 ADD SWAP1 PUSH2 0xFC3 SWAP2 SWAP1 PUSH2 0x5392 JUMP JUMPDEST PUSH2 0x3915 JUMP JUMPDEST DUP6 PUSH1 0x0 DUP2 MLOAD DUP2 LT PUSH2 0xFDC JUMPI PUSH2 0xFDB PUSH2 0x5363 JUMP JUMPDEST JUMPDEST PUSH1 0x20 MUL PUSH1 0x20 ADD ADD MLOAD PUSH2 0x3ABA JUMP JUMPDEST PUSH2 0x1035 DUP3 DUP8 DUP8 DUP1 DUP1 PUSH1 0x20 MUL PUSH1 0x20 ADD PUSH1 0x40 MLOAD SWAP1 DUP2 ADD PUSH1 0x40 MSTORE DUP1 SWAP4 SWAP3 SWAP2 SWAP1 DUP2 DUP2 MSTORE PUSH1 0x20 ADD DUP4 DUP4 PUSH1 0x20 MUL DUP1 DUP3 DUP5 CALLDATACOPY PUSH1 0x0 DUP2 DUP5 ADD MSTORE PUSH1 0x1F NOT PUSH1 0x1F DUP3 ADD AND SWAP1 POP DUP1 DUP4 ADD SWAP3 POP POP POP POP POP POP POP DUP7 PUSH2 0x3B85 JUMP JUMPDEST POP SWAP7 SWAP6 POP POP POP POP POP POP JUMP JUMPDEST PUSH32 0x0 DUP2 JUMP JUMPDEST PUSH1 0x60 DUP2 TIMESTAMP DUP2 LT ISZERO PUSH2 0x10AA JUMPI PUSH1 0x40 MLOAD PUSH32 0x8C379A000000000000000000000000000000000000000000000000000000000 DUP2 MSTORE PUSH1 0x4 ADD PUSH2 0x10A1 SWAP1 PUSH2 0x52E0 JUMP JUMPDEST PUSH1 0x40 MLOAD DUP1 SWAP2 SUB SWAP1 REVERT JUMPDEST PUSH32 0x0 PUSH20 0xFFFFFFFFFFFFFFFFFFFFFFFFFFFFFFFFFFFFFFFF AND DUP7 DUP7 PUSH1 0x1 DUP10 DUP10 SWAP1 POP PUSH2 0x10F3 SWAP2 SWAP1 PUSH2 0x532F JUMP JUMPDEST DUP2 DUP2 LT PUSH2 0x1103 JUMPI PUSH2 0x1102 PUSH2 0x5363 JUMP JUMPDEST JUMPDEST SWAP1 POP PUSH1 0x20 MUL ADD PUSH1 0x20 DUP2 ADD SWAP1 PUSH2 0x1118 SWAP2 SWAP1 PUSH2 0x5392 JUMP JUMPDEST PUSH20 0xFFFFFFFFFFFFFFFFFFFFFFFFFFFFFFFFFFFFFFFF AND EQ PUSH2 0x116E JUMPI PUSH1 0x40 MLOAD PUSH32 0x8C379A000000000000000000000000000000000000000000000000000000000 DUP2 MSTORE PUSH1 0x4 ADD PUSH2 0x1165 SWAP1 PUSH2 0x540B JUMP JUMPDEST PUSH1 0x40 MLOAD DUP1 SWAP2 SUB SWAP1 REVERT JUMPDEST PUSH2 0x11DA PUSH32 0x0 DUP10 DUP9 DUP9 DUP1 DUP1 PUSH1 0x20 MUL PUSH1 0x20 ADD PUSH1 0x40 MLOAD SWAP1 DUP2 ADD PUSH1 0x40 MSTORE DUP1 SWAP4 SWAP3 SWAP2 SWAP1 DUP2 DUP2 MSTORE PUSH1 0x20 ADD DUP4 DUP4 PUSH1 0x20 MUL DUP1 DUP3 DUP5 CALLDATACOPY PUSH1 0x0 DUP2 DUP5 ADD MSTORE PUSH1 0x1F NOT PUSH1 0x1F DUP3 ADD AND SWAP1 POP DUP1 DUP4 ADD SWAP3 POP POP POP POP POP POP POP PUSH2 0x3DDE JUMP JUMPDEST SWAP2 POP DUP7 DUP3 PUSH1 0x0 DUP2 MLOAD DUP2 LT PUSH2 0x11F1 JUMPI PUSH2 0x11F0 PUSH2 0x5363 JUMP JUMPDEST JUMPDEST PUSH1 0x20 MUL PUSH1 0x20 ADD ADD MLOAD GT ISZERO PUSH2 0x123A JUMPI PUSH1 0x40 MLOAD PUSH32 0x8C379A000000000000000000000000000000000000000000000000000000000 DUP2 MSTORE PUSH1 0x4 ADD PUSH2 0x1231 SWAP1 PUSH2 0x5570 JUMP JUMPDEST PUSH1 0x40 MLOAD DUP1 SWAP2 SUB SWAP1 REVERT JUMPDEST PUSH2 0x1303 DUP7 DUP7 PUSH1 0x0 DUP2 DUP2 LT PUSH2 0x1251 JUMPI PUSH2 0x1250 PUSH2 0x5363 JUMP JUMPDEST JUMPDEST SWAP1 POP PUSH1 0x20 MUL ADD PUSH1 0x20 DUP2 ADD SWAP1 PUSH2 0x1266 SWAP2 SWAP1 PUSH2 0x5392 JUMP JUMPDEST CALLER PUSH2 0x12E2 PUSH32 0x0 DUP11 DUP11 PUSH1 0x0 DUP2 DUP2 LT PUSH2 0x129F JUMPI PUSH2 0x129E PUSH2 0x5363 JUMP JUMPDEST JUMPDEST SWAP1 POP PUSH1 0x20 MUL ADD PUSH1 0x20 DUP2 ADD SWAP1 PUSH2 0x12B4 SWAP2 SWAP1 PUSH2 0x5392 JUMP JUMPDEST DUP12 DUP12 PUSH1 0x1 DUP2 DUP2 LT PUSH2 0x12C8 JUMPI PUSH2 0x12C7 PUSH2 0x5363 JUMP JUMPDEST JUMPDEST SWAP1 POP PUSH1 0x20 MUL ADD PUSH1 0x20 DUP2 ADD SWAP1 PUSH2 0x12DD SWAP2 SWAP1 PUSH2 0x5392 JUMP JUMPDEST PUSH2 0x3915 JUMP JUMPDEST DUP6 PUSH1 0x0 DUP2 MLOAD DUP2 LT PUSH2 0x12F6 JUMPI PUSH2 0x12F5 PUSH2 0x5363 JUMP JUMPDEST JUMPDEST PUSH1 0x20 MUL PUSH1 0x20 ADD ADD MLOAD PUSH2 0x3ABA JUMP JUMPDEST PUSH2 0x134F DUP3 DUP8 DUP8 DUP1 DUP1 PUSH1 0x20 MUL PUSH1 0x20 ADD PUSH1 0x40 MLOAD SWAP1 DUP2 ADD PUSH1 0x40 MSTORE DUP1 SWAP4 SWAP3 SWAP2 SWAP1 DUP2 DUP2 MSTORE PUSH1 0x20 ADD DUP4 DUP4 PUSH1 0x20 MUL DUP1 DUP3 DUP5 CALLDATACOPY PUSH1 0x0 DUP2 DUP5 ADD MSTORE PUSH1 0x1F NOT PUSH1 0x1F DUP3 ADD AND SWAP1 POP DUP1 DUP4 ADD SWAP3 POP POP POP POP POP POP POP ADDRESS PUSH2 0x3B85 JUMP JUMPDEST PUSH32 0x0 PUSH20 0xFFFFFFFFFFFFFFFFFFFFFFFFFFFFFFFFFFFFFFFF AND PUSH4 0x2E1A7D4D DUP4 PUSH1 0x1 DUP6 MLOAD PUSH2 0x139A SWAP2 SWAP1 PUSH2 0x532F JUMP JUMPDEST DUP2 MLOAD DUP2 LT PUSH2 0x13AB JUMPI PUSH2 0x13AA PUSH2 0x5363 JUMP JUMPDEST JUMPDEST PUSH1 0x20 MUL PUSH1 0x20 ADD ADD MLOAD PUSH1 0x40 MLOAD DUP3 PUSH4 0xFFFFFFFF AND PUSH1 0xE0 SHL DUP2 MSTORE PUSH1 0x4 ADD PUSH2 0x13CF SWAP2 SWAP1 PUSH2 0x4A23 JUMP JUMPDEST PUSH1 0x0 PUSH1 0x40 MLOAD DUP1 DUP4 SUB DUP2 PUSH1 0x0 DUP8 DUP1 EXTCODESIZE ISZERO DUP1 ISZERO PUSH2 0x13E9 JUMPI PUSH1 0x0 DUP1 REVERT JUMPDEST POP GAS CALL ISZERO DUP1 ISZERO PUSH2 0x13FD JUMPI RETURNDATASIZE PUSH1 0x0 DUP1 RETURNDATACOPY RETURNDATASIZE PUSH1 0x0 REVERT JUMPDEST POP POP POP POP PUSH2 0x1432 DUP5 DUP4 PUSH1 0x1 DUP6 MLOAD PUSH2 0x1414 SWAP2 SWAP1 PUSH2 0x532F JUMP JUMPDEST DUP2 MLOAD DUP2 LT PUSH2 0x1425 JUMPI PUSH2 0x1424 PUSH2 0x5363 JUMP JUMPDEST JUMPDEST PUSH1 0x20 MUL PUSH1 0x20 ADD ADD MLOAD PUSH2 0x35A0 JUMP JUMPDEST POP SWAP7 SWAP6 POP POP POP POP POP POP JUMP JUMPDEST PUSH1 0x0 DUP1 PUSH2 0x148B PUSH32 0x0 DUP14 PUSH32 0x0 PUSH2 0x3915 JUMP JUMPDEST SWAP1 POP PUSH1 0x0 DUP7 PUSH2 0x149A JUMPI DUP12 PUSH2 0x14AC JUMP JUMPDEST PUSH16 0xFFFFFFFFFFFFFFFFFFFFFFFFFFFFFFFF JUMPDEST SWAP1 POP DUP2 PUSH20 0xFFFFFFFFFFFFFFFFFFFFFFFFFFFFFFFFFFFFFFFF AND PUSH4 0xD505ACCF CALLER ADDRESS DUP5 DUP13 DUP12 DUP12 DUP12 PUSH1 0x40 MLOAD DUP9 PUSH4 0xFFFFFFFF AND PUSH1 0xE0 SHL DUP2 MSTORE PUSH1 0x4 ADD PUSH2 0x14F3 SWAP8 SWAP7 SWAP6 SWAP5 SWAP4 SWAP3 SWAP2 SWAP1 PUSH2 0x54B5 JUMP JUMPDEST PUSH1 0x0 PUSH1 0x40 MLOAD DUP1 DUP4 SUB DUP2 PUSH1 0x0 DUP8 DUP1 EXTCODESIZE ISZERO DUP1 ISZERO PUSH2 0x150D JUMPI PUSH1 0x0 DUP1 REVERT JUMPDEST POP GAS CALL ISZERO DUP1 ISZERO PUSH2 0x1521 JUMPI RETURNDATASIZE PUSH1 0x0 DUP1 RETURNDATACOPY RETURNDATASIZE PUSH1 0x0 REVERT JUMPDEST POP POP POP POP PUSH2 0x1533 DUP14 DUP14 DUP14 DUP14 DUP14 DUP14 PUSH2 0x226A JUMP JUMPDEST SWAP3 POP POP POP SWAP11 SWAP10 POP POP POP POP POP POP POP POP POP POP JUMP JUMPDEST DUP1 TIMESTAMP DUP2 LT ISZERO PUSH2 0x1589 JUMPI PUSH1 0x40 MLOAD PUSH32 0x8C379A000000000000000000000000000000000000000000000000000000000 DUP2 MSTORE PUSH1 0x4 ADD PUSH2 0x1580 SWAP1 PUSH2 0x52E0 JUMP JUMPDEST PUSH1 0x40 MLOAD DUP1 SWAP2 SUB SWAP1 REVERT JUMPDEST PUSH2 0x1637 DUP6 DUP6 PUSH1 0x0 DUP2 DUP2 LT PUSH2 0x15A0 JUMPI PUSH2 0x159F PUSH2 0x5363 JUMP JUMPDEST JUMPDEST SWAP1 POP PUSH1 0x20 MUL ADD PUSH1 0x20 DUP2 ADD SWAP1 PUSH2 0x15B5 SWAP2 SWAP1 PUSH2 0x5392 JUMP JUMPDEST CALLER PUSH2 0x1631 PUSH32 0x0 DUP10 DUP10 PUSH1 0x0 DUP2 DUP2 LT PUSH2 0x15EE JUMPI PUSH2 0x15ED PUSH2 0x5363 JUMP JUMPDEST JUMPDEST SWAP1 POP PUSH1 0x20 MUL ADD PUSH1 0x20 DUP2 ADD SWAP1 PUSH2 0x1603 SWAP2 SWAP1 PUSH2 0x5392 JUMP JUMPDEST DUP11 DUP11 PUSH1 0x1 DUP2 DUP2 LT PUSH2 0x1617 JUMPI PUSH2 0x1616 PUSH2 0x5363 JUMP JUMPDEST JUMPDEST SWAP1 POP PUSH1 0x20 MUL ADD PUSH1 0x20 DUP2 ADD SWAP1 PUSH2 0x162C SWAP2 SWAP1 PUSH2 0x5392 JUMP JUMPDEST PUSH2 0x3915 JUMP JUMPDEST DUP11 PUSH2 0x3ABA JUMP JUMPDEST PUSH1 0x0 DUP6 DUP6 PUSH1 0x1 DUP9 DUP9 SWAP1 POP PUSH2 0x164B SWAP2 SWAP1 PUSH2 0x532F JUMP JUMPDEST DUP2 DUP2 LT PUSH2 0x165B JUMPI PUSH2 0x165A PUSH2 0x5363 JUMP JUMPDEST JUMPDEST SWAP1 POP PUSH1 0x20 MUL ADD PUSH1 0x20 DUP2 ADD SWAP1 PUSH2 0x1670 SWAP2 SWAP1 PUSH2 0x5392 JUMP JUMPDEST PUSH20 0xFFFFFFFFFFFFFFFFFFFFFFFFFFFFFFFFFFFFFFFF AND PUSH4 0x70A08231 DUP6 PUSH1 0x40 MLOAD DUP3 PUSH4 0xFFFFFFFF AND PUSH1 0xE0 SHL DUP2 MSTORE PUSH1 0x4 ADD PUSH2 0x16A8 SWAP2 SWAP1 PUSH2 0x4F72 JUMP JUMPDEST PUSH1 0x20 PUSH1 0x40 MLOAD DUP1 DUP4 SUB DUP2 DUP7 GAS STATICCALL ISZERO DUP1 ISZERO PUSH2 0x16C5 JUMPI RETURNDATASIZE PUSH1 0x0 DUP1 RETURNDATACOPY RETURNDATASIZE PUSH1 0x0 REVERT JUMPDEST POP POP POP POP PUSH1 0x40 MLOAD RETURNDATASIZE PUSH1 0x1F NOT PUSH1 0x1F DUP3 ADD AND DUP3 ADD DUP1 PUSH1 0x40 MSTORE POP DUP2 ADD SWAP1 PUSH2 0x16E9 SWAP2 SWAP1 PUSH2 0x55A5 JUMP JUMPDEST SWAP1 POP PUSH2 0x1736 DUP7 DUP7 DUP1 DUP1 PUSH1 0x20 MUL PUSH1 0x20 ADD PUSH1 0x40 MLOAD SWAP1 DUP2 ADD PUSH1 0x40 MSTORE DUP1 SWAP4 SWAP3 SWAP2 SWAP1 DUP2 DUP2 MSTORE PUSH1 0x20 ADD DUP4 DUP4 PUSH1 0x20 MUL DUP1 DUP3 DUP5 CALLDATACOPY PUSH1 0x0 DUP2 DUP5 ADD MSTORE PUSH1 0x1F NOT PUSH1 0x1F DUP3 ADD AND SWAP1 POP DUP1 DUP4 ADD SWAP3 POP POP POP POP POP POP POP DUP6 PUSH2 0x3F79 JUMP JUMPDEST DUP7 DUP2 DUP8 DUP8 PUSH1 0x1 DUP11 DUP11 SWAP1 POP PUSH2 0x174A SWAP2 SWAP1 PUSH2 0x532F JUMP JUMPDEST DUP2 DUP2 LT PUSH2 0x175A JUMPI PUSH2 0x1759 PUSH2 0x5363 JUMP JUMPDEST JUMPDEST SWAP1 POP PUSH1 0x20 MUL ADD PUSH1 0x20 DUP2 ADD SWAP1 PUSH2 0x176F SWAP2 SWAP1 PUSH2 0x5392 JUMP JUMPDEST PUSH20 0xFFFFFFFFFFFFFFFFFFFFFFFFFFFFFFFFFFFFFFFF AND PUSH4 0x70A08231 DUP8 PUSH1 0x40 MLOAD DUP3 PUSH4 0xFFFFFFFF AND PUSH1 0xE0 SHL DUP2 MSTORE PUSH1 0x4 ADD PUSH2 0x17A7 SWAP2 SWAP1 PUSH2 0x4F72 JUMP JUMPDEST PUSH1 0x20 PUSH1 0x40 MLOAD DUP1 DUP4 SUB DUP2 DUP7 GAS STATICCALL ISZERO DUP1 ISZERO PUSH2 0x17C4 JUMPI RETURNDATASIZE PUSH1 0x0 DUP1 RETURNDATACOPY RETURNDATASIZE PUSH1 0x0 REVERT JUMPDEST POP POP POP POP PUSH1 0x40 MLOAD RETURNDATASIZE PUSH1 0x1F NOT PUSH1 0x1F DUP3 ADD AND DUP3 ADD DUP1 PUSH1 0x40 MSTORE POP DUP2 ADD SWAP1 PUSH2 0x17E8 SWAP2 SWAP1 PUSH2 0x55A5 JUMP JUMPDEST PUSH2 0x17F2 SWAP2 SWAP1 PUSH2 0x532F JUMP JUMPDEST LT ISZERO PUSH2 0x1833 JUMPI PUSH1 0x40 MLOAD PUSH32 0x8C379A000000000000000000000000000000000000000000000000000000000 DUP2 MSTORE PUSH1 0x4 ADD PUSH2 0x182A SWAP1 PUSH2 0x5477 JUMP JUMPDEST PUSH1 0x40 MLOAD DUP1 SWAP2 SUB SWAP1 REVERT JUMPDEST POP POP POP POP POP POP POP POP JUMP JUMPDEST DUP1 TIMESTAMP DUP2 LT ISZERO PUSH2 0x1881 JUMPI PUSH1 0x40 MLOAD PUSH32 0x8C379A000000000000000000000000000000000000000000000000000000000 DUP2 MSTORE PUSH1 0x4 ADD PUSH2 0x1878 SWAP1 PUSH2 0x52E0 JUMP JUMPDEST PUSH1 0x40 MLOAD DUP1 SWAP2 SUB SWAP1 REVERT JUMPDEST PUSH32 0x0 PUSH20 0xFFFFFFFFFFFFFFFFFFFFFFFFFFFFFFFFFFFFFFFF AND DUP6 DUP6 PUSH1 0x1 DUP9 DUP9 SWAP1 POP PUSH2 0x18CA SWAP2 SWAP1 PUSH2 0x532F JUMP JUMPDEST DUP2 DUP2 LT PUSH2 0x18DA JUMPI PUSH2 0x18D9 PUSH2 0x5363 JUMP JUMPDEST JUMPDEST SWAP1 POP PUSH1 0x20 MUL ADD PUSH1 0x20 DUP2 ADD SWAP1 PUSH2 0x18EF SWAP2 SWAP1 PUSH2 0x5392 JUMP JUMPDEST PUSH20 0xFFFFFFFFFFFFFFFFFFFFFFFFFFFFFFFFFFFFFFFF AND EQ PUSH2 0x1945 JUMPI PUSH1 0x40 MLOAD PUSH32 0x8C379A000000000000000000000000000000000000000000000000000000000 DUP2 MSTORE PUSH1 0x4 ADD PUSH2 0x193C SWAP1 PUSH2 0x540B JUMP JUMPDEST PUSH1 0x40 MLOAD DUP1 SWAP2 SUB SWAP1 REVERT JUMPDEST PUSH2 0x19F3 DUP6 DUP6 PUSH1 0x0 DUP2 DUP2 LT PUSH2 0x195C JUMPI PUSH2 0x195B PUSH2 0x5363 JUMP JUMPDEST JUMPDEST SWAP1 POP PUSH1 0x20 MUL ADD PUSH1 0x20 DUP2 ADD SWAP1 PUSH2 0x1971 SWAP2 SWAP1 PUSH2 0x5392 JUMP JUMPDEST CALLER PUSH2 0x19ED PUSH32 0x0 DUP10 DUP10 PUSH1 0x0 DUP2 DUP2 LT PUSH2 0x19AA JUMPI PUSH2 0x19A9 PUSH2 0x5363 JUMP JUMPDEST JUMPDEST SWAP1 POP PUSH1 0x20 MUL ADD PUSH1 0x20 DUP2 ADD SWAP1 PUSH2 0x19BF SWAP2 SWAP1 PUSH2 0x5392 JUMP JUMPDEST DUP11 DUP11 PUSH1 0x1 DUP2 DUP2 LT PUSH2 0x19D3 JUMPI PUSH2 0x19D2 PUSH2 0x5363 JUMP JUMPDEST JUMPDEST SWAP1 POP PUSH1 0x20 MUL ADD PUSH1 0x20 DUP2 ADD SWAP1 PUSH2 0x19E8 SWAP2 SWAP1 PUSH2 0x5392 JUMP JUMPDEST PUSH2 0x3915 JUMP JUMPDEST DUP11 PUSH2 0x3ABA JUMP JUMPDEST PUSH2 0x1A3E DUP6 DUP6 DUP1 DUP1 PUSH1 0x20 MUL PUSH1 0x20 ADD PUSH1 0x40 MLOAD SWAP1 DUP2 ADD PUSH1 0x40 MSTORE DUP1 SWAP4 SWAP3 SWAP2 SWAP1 DUP2 DUP2 MSTORE PUSH1 0x20 ADD DUP4 DUP4 PUSH1 0x20 MUL DUP1 DUP3 DUP5 CALLDATACOPY PUSH1 0x0 DUP2 DUP5 ADD MSTORE PUSH1 0x1F NOT PUSH1 0x1F DUP3 ADD AND SWAP1 POP DUP1 DUP4 ADD SWAP3 POP POP POP POP POP POP POP ADDRESS PUSH2 0x3F79 JUMP JUMPDEST PUSH1 0x0 PUSH32 0x0 PUSH20 0xFFFFFFFFFFFFFFFFFFFFFFFFFFFFFFFFFFFFFFFF AND PUSH4 0x70A08231 ADDRESS PUSH1 0x40 MLOAD DUP3 PUSH4 0xFFFFFFFF AND PUSH1 0xE0 SHL DUP2 MSTORE PUSH1 0x4 ADD PUSH2 0x1A99 SWAP2 SWAP1 PUSH2 0x4F72 JUMP JUMPDEST PUSH1 0x20 PUSH1 0x40 MLOAD DUP1 DUP4 SUB DUP2 DUP7 GAS STATICCALL ISZERO DUP1 ISZERO PUSH2 0x1AB6 JUMPI RETURNDATASIZE PUSH1 0x0 DUP1 RETURNDATACOPY RETURNDATASIZE PUSH1 0x0 REVERT JUMPDEST POP POP POP POP PUSH1 0x40 MLOAD RETURNDATASIZE PUSH1 0x1F NOT PUSH1 0x1F DUP3 ADD AND DUP3 ADD DUP1 PUSH1 0x40 MSTORE POP DUP2 ADD SWAP1 PUSH2 0x1ADA SWAP2 SWAP1 PUSH2 0x55A5 JUMP JUMPDEST SWAP1 POP DUP7 DUP2 LT ISZERO PUSH2 0x1B1F JUMPI PUSH1 0x40 MLOAD PUSH32 0x8C379A000000000000000000000000000000000000000000000000000000000 DUP2 MSTORE PUSH1 0x4 ADD PUSH2 0x1B16 SWAP1 PUSH2 0x5477 JUMP JUMPDEST PUSH1 0x40 MLOAD DUP1 SWAP2 SUB SWAP1 REVERT JUMPDEST PUSH32 0x0 PUSH20 0xFFFFFFFFFFFFFFFFFFFFFFFFFFFFFFFFFFFFFFFF AND PUSH4 0x2E1A7D4D DUP3 PUSH1 0x40 MLOAD DUP3 PUSH4 0xFFFFFFFF AND PUSH1 0xE0 SHL DUP2 MSTORE PUSH1 0x4 ADD PUSH2 0x1B78 SWAP2 SWAP1 PUSH2 0x4A23 JUMP JUMPDEST PUSH1 0x0 PUSH1 0x40 MLOAD DUP1 DUP4 SUB DUP2 PUSH1 0x0 DUP8 DUP1 EXTCODESIZE ISZERO DUP1 ISZERO PUSH2 0x1B92 JUMPI PUSH1 0x0 DUP1 REVERT JUMPDEST POP GAS CALL ISZERO DUP1 ISZERO PUSH2 0x1BA6 JUMPI RETURNDATASIZE PUSH1 0x0 DUP1 RETURNDATACOPY RETURNDATASIZE PUSH1 0x0 REVERT JUMPDEST POP POP POP POP PUSH2 0x1BB4 DUP5 DUP3 PUSH2 0x35A0 JUMP JUMPDEST POP POP POP POP POP POP POP POP JUMP JUMPDEST PUSH1 0x60 DUP2 TIMESTAMP DUP2 LT ISZERO PUSH2 0x1C04 JUMPI PUSH1 0x40 MLOAD PUSH32 0x8C379A000000000000000000000000000000000000000000000000000000000 DUP2 MSTORE PUSH1 0x4 ADD PUSH2 0x1BFB SWAP1 PUSH2 0x52E0 JUMP JUMPDEST PUSH1 0x40 MLOAD DUP1 SWAP2 SUB SWAP1 REVERT JUMPDEST PUSH32 0x0 PUSH20 0xFFFFFFFFFFFFFFFFFFFFFFFFFFFFFFFFFFFFFFFF AND DUP7 DUP7 PUSH1 0x0 DUP2 DUP2 LT PUSH2 0x1C4F JUMPI PUSH2 0x1C4E PUSH2 0x5363 JUMP JUMPDEST JUMPDEST SWAP1 POP PUSH1 0x20 MUL ADD PUSH1 0x20 DUP2 ADD SWAP1 PUSH2 0x1C64 SWAP2 SWAP1 PUSH2 0x5392 JUMP JUMPDEST PUSH20 0xFFFFFFFFFFFFFFFFFFFFFFFFFFFFFFFFFFFFFFFF AND EQ PUSH2 0x1CBA JUMPI PUSH1 0x40 MLOAD PUSH32 0x8C379A000000000000000000000000000000000000000000000000000000000 DUP2 MSTORE PUSH1 0x4 ADD PUSH2 0x1CB1 SWAP1 PUSH2 0x540B JUMP JUMPDEST PUSH1 0x40 MLOAD DUP1 SWAP2 SUB SWAP1 REVERT JUMPDEST PUSH2 0x1D26 PUSH32 0x0 CALLVALUE DUP9 DUP9 DUP1 DUP1 PUSH1 0x20 MUL PUSH1 0x20 ADD PUSH1 0x40 MLOAD SWAP1 DUP2 ADD PUSH1 0x40 MSTORE DUP1 SWAP4 SWAP3 SWAP2 SWAP1 DUP2 DUP2 MSTORE PUSH1 0x20 ADD DUP4 DUP4 PUSH1 0x20 MUL DUP1 DUP3 DUP5 CALLDATACOPY PUSH1 0x0 DUP2 DUP5 ADD MSTORE PUSH1 0x1F NOT PUSH1 0x1F DUP3 ADD AND SWAP1 POP DUP1 DUP4 ADD SWAP3 POP POP POP POP POP POP POP PUSH2 0x378A JUMP JUMPDEST SWAP2 POP DUP7 DUP3 PUSH1 0x1 DUP5 MLOAD PUSH2 0x1D38 SWAP2 SWAP1 PUSH2 0x532F JUMP JUMPDEST DUP2 MLOAD DUP2 LT PUSH2 0x1D49 JUMPI PUSH2 0x1D48 PUSH2 0x5363 JUMP JUMPDEST JUMPDEST PUSH1 0x20 MUL PUSH1 0x20 ADD ADD MLOAD LT ISZERO PUSH2 0x1D92 JUMPI PUSH1 0x40 MLOAD PUSH32 0x8C379A000000000000000000000000000000000000000000000000000000000 DUP2 MSTORE PUSH1 0x4 ADD PUSH2 0x1D89 SWAP1 PUSH2 0x5477 JUMP JUMPDEST PUSH1 0x40 MLOAD DUP1 SWAP2 SUB SWAP1 REVERT JUMPDEST PUSH32 0x0 PUSH20 0xFFFFFFFFFFFFFFFFFFFFFFFFFFFFFFFFFFFFFFFF AND PUSH4 0xD0E30DB0 DUP4 PUSH1 0x0 DUP2 MLOAD DUP2 LT PUSH2 0x1DE2 JUMPI PUSH2 0x1DE1 PUSH2 0x5363 JUMP JUMPDEST JUMPDEST PUSH1 0x20 MUL PUSH1 0x20 ADD ADD MLOAD PUSH1 0x40 MLOAD DUP3 PUSH4 0xFFFFFFFF AND PUSH1 0xE0 SHL DUP2 MSTORE PUSH1 0x4 ADD PUSH1 0x0 PUSH1 0x40 MLOAD DUP1 DUP4 SUB DUP2 DUP6 DUP9 DUP1 EXTCODESIZE ISZERO DUP1 ISZERO PUSH2 0x1E15 JUMPI PUSH1 0x0 DUP1 REVERT JUMPDEST POP GAS CALL ISZERO DUP1 ISZERO PUSH2 0x1E29 JUMPI RETURNDATASIZE PUSH1 0x0 DUP1 RETURNDATACOPY RETURNDATASIZE PUSH1 0x0 REVERT JUMPDEST POP POP POP POP POP PUSH32 0x0 PUSH20 0xFFFFFFFFFFFFFFFFFFFFFFFFFFFFFFFFFFFFFFFF AND PUSH4 0xA9059CBB PUSH2 0x1EE5 PUSH32 0x0 DUP10 DUP10 PUSH1 0x0 DUP2 DUP2 LT PUSH2 0x1EA2 JUMPI PUSH2 0x1EA1 PUSH2 0x5363 JUMP JUMPDEST JUMPDEST SWAP1 POP PUSH1 0x20 MUL ADD PUSH1 0x20 DUP2 ADD SWAP1 PUSH2 0x1EB7 SWAP2 SWAP1 PUSH2 0x5392 JUMP JUMPDEST DUP11 DUP11 PUSH1 0x1 DUP2 DUP2 LT PUSH2 0x1ECB JUMPI PUSH2 0x1ECA PUSH2 0x5363 JUMP JUMPDEST JUMPDEST SWAP1 POP PUSH1 0x20 MUL ADD PUSH1 0x20 DUP2 ADD SWAP1 PUSH2 0x1EE0 SWAP2 SWAP1 PUSH2 0x5392 JUMP JUMPDEST PUSH2 0x3915 JUMP JUMPDEST DUP5 PUSH1 0x0 DUP2 MLOAD DUP2 LT PUSH2 0x1EF9 JUMPI PUSH2 0x1EF8 PUSH2 0x5363 JUMP JUMPDEST JUMPDEST PUSH1 0x20 MUL PUSH1 0x20 ADD ADD MLOAD PUSH1 0x40 MLOAD DUP4 PUSH4 0xFFFFFFFF AND PUSH1 0xE0 SHL DUP2 MSTORE PUSH1 0x4 ADD PUSH2 0x1F1E SWAP3 SWAP2 SWAP1 PUSH2 0x55D2 JUMP JUMPDEST PUSH1 0x20 PUSH1 0x40 MLOAD DUP1 DUP4 SUB DUP2 PUSH1 0x0 DUP8 GAS CALL ISZERO DUP1 ISZERO PUSH2 0x1F3D JUMPI RETURNDATASIZE PUSH1 0x0 DUP1 RETURNDATACOPY RETURNDATASIZE PUSH1 0x0 REVERT JUMPDEST POP POP POP POP PUSH1 0x40 MLOAD RETURNDATASIZE PUSH1 0x1F NOT PUSH1 0x1F DUP3 ADD AND DUP3 ADD DUP1 PUSH1 0x40 MSTORE POP DUP2 ADD SWAP1 PUSH2 0x1F61 SWAP2 SWAP1 PUSH2 0x5610 JUMP JUMPDEST PUSH2 0x1F6E JUMPI PUSH2 0x1F6D PUSH2 0x4834 JUMP JUMPDEST JUMPDEST PUSH2 0x1FBA DUP3 DUP8 DUP8 DUP1 DUP1 PUSH1 0x20 MUL PUSH1 0x20 ADD PUSH1 0x40 MLOAD SWAP1 DUP2 ADD PUSH1 0x40 MSTORE DUP1 SWAP4 SWAP3 SWAP2 SWAP1 DUP2 DUP2 MSTORE PUSH1 0x20 ADD DUP4 DUP4 PUSH1 0x20 MUL DUP1 DUP3 DUP5 CALLDATACOPY PUSH1 0x0 DUP2 DUP5 ADD MSTORE PUSH1 0x1F NOT PUSH1 0x1F DUP3 ADD AND SWAP1 POP DUP1 DUP4 ADD SWAP3 POP POP POP POP POP POP POP DUP7 PUSH2 0x3B85 JUMP JUMPDEST POP SWAP6 SWAP5 POP POP POP POP POP JUMP JUMPDEST PUSH1 0x0 PUSH2 0x1FD1 DUP5 DUP5 DUP5 PUSH2 0x4323 JUMP JUMPDEST SWAP1 POP SWAP4 SWAP3 POP POP POP JUMP JUMPDEST PUSH1 0x60 DUP2 TIMESTAMP DUP2 LT ISZERO PUSH2 0x2020 JUMPI PUSH1 0x40 MLOAD PUSH32 0x8C379A000000000000000000000000000000000000000000000000000000000 DUP2 MSTORE PUSH1 0x4 ADD PUSH2 0x2017 SWAP1 PUSH2 0x52E0 JUMP JUMPDEST PUSH1 0x40 MLOAD DUP1 SWAP2 SUB SWAP1 REVERT JUMPDEST PUSH2 0x208C PUSH32 0x0 DUP10 DUP9 DUP9 DUP1 DUP1 PUSH1 0x20 MUL PUSH1 0x20 ADD PUSH1 0x40 MLOAD SWAP1 DUP2 ADD PUSH1 0x40 MSTORE DUP1 SWAP4 SWAP3 SWAP2 SWAP1 DUP2 DUP2 MSTORE PUSH1 0x20 ADD DUP4 DUP4 PUSH1 0x20 MUL DUP1 DUP3 DUP5 CALLDATACOPY PUSH1 0x0 DUP2 DUP5 ADD MSTORE PUSH1 0x1F NOT PUSH1 0x1F DUP3 ADD AND SWAP1 POP DUP1 DUP4 ADD SWAP3 POP POP POP POP POP POP POP PUSH2 0x3DDE JUMP JUMPDEST SWAP2 POP DUP7 DUP3 PUSH1 0x0 DUP2 MLOAD DUP2 LT PUSH2 0x20A3 JUMPI PUSH2 0x20A2 PUSH2 0x5363 JUMP JUMPDEST JUMPDEST PUSH1 0x20 MUL PUSH1 0x20 ADD ADD MLOAD GT ISZERO PUSH2 0x20EC JUMPI PUSH1 0x40 MLOAD PUSH32 0x8C379A000000000000000000000000000000000000000000000000000000000 DUP2 MSTORE PUSH1 0x4 ADD PUSH2 0x20E3 SWAP1 PUSH2 0x5570 JUMP JUMPDEST PUSH1 0x40 MLOAD DUP1 SWAP2 SUB SWAP1 REVERT JUMPDEST PUSH2 0x21B5 DUP7 DUP7 PUSH1 0x0 DUP2 DUP2 LT PUSH2 0x2103 JUMPI PUSH2 0x2102 PUSH2 0x5363 JUMP JUMPDEST JUMPDEST SWAP1 POP PUSH1 0x20 MUL ADD PUSH1 0x20 DUP2 ADD SWAP1 PUSH2 0x2118 SWAP2 SWAP1 PUSH2 0x5392 JUMP JUMPDEST CALLER PUSH2 0x2194 PUSH32 0x0 DUP11 DUP11 PUSH1 0x0 DUP2 DUP2 LT PUSH2 0x2151 JUMPI PUSH2 0x2150 PUSH2 0x5363 JUMP JUMPDEST JUMPDEST SWAP1 POP PUSH1 0x20 MUL ADD PUSH1 0x20 DUP2 ADD SWAP1 PUSH2 0x2166 SWAP2 SWAP1 PUSH2 0x5392 JUMP JUMPDEST DUP12 DUP12 PUSH1 0x1 DUP2 DUP2 LT PUSH2 0x217A JUMPI PUSH2 0x2179 PUSH2 0x5363 JUMP JUMPDEST JUMPDEST SWAP1 POP PUSH1 0x20 MUL ADD PUSH1 0x20 DUP2 ADD SWAP1 PUSH2 0x218F SWAP2 SWAP1 PUSH2 0x5392 JUMP JUMPDEST PUSH2 0x3915 JUMP JUMPDEST DUP6 PUSH1 0x0 DUP2 MLOAD DUP2 LT PUSH2 0x21A8 JUMPI PUSH2 0x21A7 PUSH2 0x5363 JUMP JUMPDEST JUMPDEST PUSH1 0x20 MUL PUSH1 0x20 ADD ADD MLOAD PUSH2 0x3ABA JUMP JUMPDEST PUSH2 0x2201 DUP3 DUP8 DUP8 DUP1 DUP1 PUSH1 0x20 MUL PUSH1 0x20 ADD PUSH1 0x40 MLOAD SWAP1 DUP2 ADD PUSH1 0x40 MSTORE DUP1 SWAP4 SWAP3 SWAP2 SWAP1 DUP2 DUP2 MSTORE PUSH1 0x20 ADD DUP4 DUP4 PUSH1 0x20 MUL DUP1 DUP3 DUP5 CALLDATACOPY PUSH1 0x0 DUP2 DUP5 ADD MSTORE PUSH1 0x1F NOT PUSH1 0x1F DUP3 ADD AND SWAP1 POP DUP1 DUP4 ADD SWAP3 POP POP POP POP POP POP POP DUP7 PUSH2 0x3B85 JUMP JUMPDEST POP SWAP7 SWAP6 POP POP POP POP POP POP JUMP JUMPDEST PUSH32 0x0 DUP2 JUMP JUMPDEST PUSH32 0x0 DUP2 JUMP JUMPDEST PUSH1 0x0 PUSH2 0x2261 DUP5 DUP5 DUP5 PUSH2 0x4413 JUMP JUMPDEST SWAP1 POP SWAP4 SWAP3 POP POP POP JUMP JUMPDEST PUSH1 0x0 DUP2 TIMESTAMP DUP2 LT ISZERO PUSH2 0x22B0 JUMPI PUSH1 0x40 MLOAD PUSH32 0x8C379A000000000000000000000000000000000000000000000000000000000 DUP2 MSTORE PUSH1 0x4 ADD PUSH2 0x22A7 SWAP1 PUSH2 0x52E0 JUMP JUMPDEST PUSH1 0x40 MLOAD DUP1 SWAP2 SUB SWAP1 REVERT JUMPDEST PUSH2 0x22DF DUP9 PUSH32 0x0 DUP10 DUP10 DUP10 ADDRESS DUP10 PUSH2 0x28B4 JUMP JUMPDEST SWAP1 POP DUP1 SWAP3 POP POP PUSH2 0x2369 DUP9 DUP6 DUP11 PUSH20 0xFFFFFFFFFFFFFFFFFFFFFFFFFFFFFFFFFFFFFFFF AND PUSH4 0x70A08231 ADDRESS PUSH1 0x40 MLOAD DUP3 PUSH4 0xFFFFFFFF AND PUSH1 0xE0 SHL DUP2 MSTORE PUSH1 0x4 ADD PUSH2 0x2323 SWAP2 SWAP1 PUSH2 0x4F72 JUMP JUMPDEST PUSH1 0x20 PUSH1 0x40 MLOAD DUP1 DUP4 SUB DUP2 DUP7 GAS STATICCALL ISZERO DUP1 ISZERO PUSH2 0x2340 JUMPI RETURNDATASIZE PUSH1 0x0 DUP1 RETURNDATACOPY RETURNDATASIZE PUSH1 0x0 REVERT JUMPDEST POP POP POP POP PUSH1 0x40 MLOAD RETURNDATASIZE PUSH1 0x1F NOT PUSH1 0x1F DUP3 ADD AND DUP3 ADD DUP1 PUSH1 0x40 MSTORE POP DUP2 ADD SWAP1 PUSH2 0x2364 SWAP2 SWAP1 PUSH2 0x55A5 JUMP JUMPDEST PUSH2 0x34D8 JUMP JUMPDEST PUSH32 0x0 PUSH20 0xFFFFFFFFFFFFFFFFFFFFFFFFFFFFFFFFFFFFFFFF AND PUSH4 0x2E1A7D4D DUP4 PUSH1 0x40 MLOAD DUP3 PUSH4 0xFFFFFFFF AND PUSH1 0xE0 SHL DUP2 MSTORE PUSH1 0x4 ADD PUSH2 0x23C2 SWAP2 SWAP1 PUSH2 0x4A23 JUMP JUMPDEST PUSH1 0x0 PUSH1 0x40 MLOAD DUP1 DUP4 SUB DUP2 PUSH1 0x0 DUP8 DUP1 EXTCODESIZE ISZERO DUP1 ISZERO PUSH2 0x23DC JUMPI PUSH1 0x0 DUP1 REVERT JUMPDEST POP GAS CALL ISZERO DUP1 ISZERO PUSH2 0x23F0 JUMPI RETURNDATASIZE PUSH1 0x0 DUP1 RETURNDATACOPY RETURNDATASIZE PUSH1 0x0 REVERT JUMPDEST POP POP POP POP PUSH2 0x23FE DUP5 DUP4 PUSH2 0x35A0 JUMP JUMPDEST POP SWAP7 SWAP6 POP POP POP POP POP POP JUMP JUMPDEST DUP1 TIMESTAMP DUP2 LT ISZERO PUSH2 0x244D JUMPI PUSH1 0x40 MLOAD PUSH32 0x8C379A000000000000000000000000000000000000000000000000000000000 DUP2 MSTORE PUSH1 0x4 ADD PUSH2 0x2444 SWAP1 PUSH2 0x52E0 JUMP JUMPDEST PUSH1 0x40 MLOAD DUP1 SWAP2 SUB SWAP1 REVERT JUMPDEST PUSH32 0x0 PUSH20 0xFFFFFFFFFFFFFFFFFFFFFFFFFFFFFFFFFFFFFFFF AND DUP6 DUP6 PUSH1 0x0 DUP2 DUP2 LT PUSH2 0x2498 JUMPI PUSH2 0x2497 PUSH2 0x5363 JUMP JUMPDEST JUMPDEST SWAP1 POP PUSH1 0x20 MUL ADD PUSH1 0x20 DUP2 ADD SWAP1 PUSH2 0x24AD SWAP2 SWAP1 PUSH2 0x5392 JUMP JUMPDEST PUSH20 0xFFFFFFFFFFFFFFFFFFFFFFFFFFFFFFFFFFFFFFFF AND EQ PUSH2 0x2503 JUMPI PUSH1 0x40 MLOAD PUSH32 0x8C379A000000000000000000000000000000000000000000000000000000000 DUP2 MSTORE PUSH1 0x4 ADD PUSH2 0x24FA SWAP1 PUSH2 0x540B JUMP JUMPDEST PUSH1 0x40 MLOAD DUP1 SWAP2 SUB SWAP1 REVERT JUMPDEST PUSH1 0x0 CALLVALUE SWAP1 POP PUSH32 0x0 PUSH20 0xFFFFFFFFFFFFFFFFFFFFFFFFFFFFFFFFFFFFFFFF AND PUSH4 0xD0E30DB0 DUP3 PUSH1 0x40 MLOAD DUP3 PUSH4 0xFFFFFFFF AND PUSH1 0xE0 SHL DUP2 MSTORE PUSH1 0x4 ADD PUSH1 0x0 PUSH1 0x40 MLOAD DUP1 DUP4 SUB DUP2 DUP6 DUP9 DUP1 EXTCODESIZE ISZERO DUP1 ISZERO PUSH2 0x2570 JUMPI PUSH1 0x0 DUP1 REVERT JUMPDEST POP GAS CALL ISZERO DUP1 ISZERO PUSH2 0x2584 JUMPI RETURNDATASIZE PUSH1 0x0 DUP1 RETURNDATACOPY RETURNDATASIZE PUSH1 0x0 REVERT JUMPDEST POP POP POP POP POP PUSH32 0x0 PUSH20 0xFFFFFFFFFFFFFFFFFFFFFFFFFFFFFFFFFFFFFFFF AND PUSH4 0xA9059CBB PUSH2 0x2640 PUSH32 0x0 DUP10 DUP10 PUSH1 0x0 DUP2 DUP2 LT PUSH2 0x25FD JUMPI PUSH2 0x25FC PUSH2 0x5363 JUMP JUMPDEST JUMPDEST SWAP1 POP PUSH1 0x20 MUL ADD PUSH1 0x20 DUP2 ADD SWAP1 PUSH2 0x2612 SWAP2 SWAP1 PUSH2 0x5392 JUMP JUMPDEST DUP11 DUP11 PUSH1 0x1 DUP2 DUP2 LT PUSH2 0x2626 JUMPI PUSH2 0x2625 PUSH2 0x5363 JUMP JUMPDEST JUMPDEST SWAP1 POP PUSH1 0x20 MUL ADD PUSH1 0x20 DUP2 ADD SWAP1 PUSH2 0x263B SWAP2 SWAP1 PUSH2 0x5392 JUMP JUMPDEST PUSH2 0x3915 JUMP JUMPDEST DUP4 PUSH1 0x40 MLOAD DUP4 PUSH4 0xFFFFFFFF AND PUSH1 0xE0 SHL DUP2 MSTORE PUSH1 0x4 ADD PUSH2 0x265E SWAP3 SWAP2 SWAP1 PUSH2 0x55D2 JUMP JUMPDEST PUSH1 0x20 PUSH1 0x40 MLOAD DUP1 DUP4 SUB DUP2 PUSH1 0x0 DUP8 GAS CALL ISZERO DUP1 ISZERO PUSH2 0x267D JUMPI RETURNDATASIZE PUSH1 0x0 DUP1 RETURNDATACOPY RETURNDATASIZE PUSH1 0x0 REVERT JUMPDEST POP POP POP POP PUSH1 0x40 MLOAD RETURNDATASIZE PUSH1 0x1F NOT PUSH1 0x1F DUP3 ADD AND DUP3 ADD DUP1 PUSH1 0x40 MSTORE POP DUP2 ADD SWAP1 PUSH2 0x26A1 SWAP2 SWAP1 PUSH2 0x5610 JUMP JUMPDEST PUSH2 0x26AE JUMPI PUSH2 0x26AD PUSH2 0x4834 JUMP JUMPDEST JUMPDEST PUSH1 0x0 DUP7 DUP7 PUSH1 0x1 DUP10 DUP10 SWAP1 POP PUSH2 0x26C2 SWAP2 SWAP1 PUSH2 0x532F JUMP JUMPDEST DUP2 DUP2 LT PUSH2 0x26D2 JUMPI PUSH2 0x26D1 PUSH2 0x5363 JUMP JUMPDEST JUMPDEST SWAP1 POP PUSH1 0x20 MUL ADD PUSH1 0x20 DUP2 ADD SWAP1 PUSH2 0x26E7 SWAP2 SWAP1 PUSH2 0x5392 JUMP JUMPDEST PUSH20 0xFFFFFFFFFFFFFFFFFFFFFFFFFFFFFFFFFFFFFFFF AND PUSH4 0x70A08231 DUP7 PUSH1 0x40 MLOAD DUP3 PUSH4 0xFFFFFFFF AND PUSH1 0xE0 SHL DUP2 MSTORE PUSH1 0x4 ADD PUSH2 0x271F SWAP2 SWAP1 PUSH2 0x4F72 JUMP JUMPDEST PUSH1 0x20 PUSH1 0x40 MLOAD DUP1 DUP4 SUB DUP2 DUP7 GAS STATICCALL ISZERO DUP1 ISZERO PUSH2 0x273C JUMPI RETURNDATASIZE PUSH1 0x0 DUP1 RETURNDATACOPY RETURNDATASIZE PUSH1 0x0 REVERT JUMPDEST POP POP POP POP PUSH1 0x40 MLOAD RETURNDATASIZE PUSH1 0x1F NOT PUSH1 0x1F DUP3 ADD AND DUP3 ADD DUP1 PUSH1 0x40 MSTORE POP DUP2 ADD SWAP1 PUSH2 0x2760 SWAP2 SWAP1 PUSH2 0x55A5 JUMP JUMPDEST SWAP1 POP PUSH2 0x27AD DUP8 DUP8 DUP1 DUP1 PUSH1 0x20 MUL PUSH1 0x20 ADD PUSH1 0x40 MLOAD SWAP1 DUP2 ADD PUSH1 0x40 MSTORE DUP1 SWAP4 SWAP3 SWAP2 SWAP1 DUP2 DUP2 MSTORE PUSH1 0x20 ADD DUP4 DUP4 PUSH1 0x20 MUL DUP1 DUP3 DUP5 CALLDATACOPY PUSH1 0x0 DUP2 DUP5 ADD MSTORE PUSH1 0x1F NOT PUSH1 0x1F DUP3 ADD AND SWAP1 POP DUP1 DUP4 ADD SWAP3 POP POP POP POP POP POP POP DUP7 PUSH2 0x3F79 JUMP JUMPDEST DUP8 DUP2 DUP9 DUP9 PUSH1 0x1 DUP12 DUP12 SWAP1 POP PUSH2 0x27C1 SWAP2 SWAP1 PUSH2 0x532F JUMP JUMPDEST DUP2 DUP2 LT PUSH2 0x27D1 JUMPI PUSH2 0x27D0 PUSH2 0x5363 JUMP JUMPDEST JUMPDEST SWAP1 POP PUSH1 0x20 MUL ADD PUSH1 0x20 DUP2 ADD SWAP1 PUSH2 0x27E6 SWAP2 SWAP1 PUSH2 0x5392 JUMP JUMPDEST PUSH20 0xFFFFFFFFFFFFFFFFFFFFFFFFFFFFFFFFFFFFFFFF AND PUSH4 0x70A08231 DUP9 PUSH1 0x40 MLOAD DUP3 PUSH4 0xFFFFFFFF AND PUSH1 0xE0 SHL DUP2 MSTORE PUSH1 0x4 ADD PUSH2 0x281E SWAP2 SWAP1 PUSH2 0x4F72 JUMP JUMPDEST PUSH1 0x20 PUSH1 0x40 MLOAD DUP1 DUP4 SUB DUP2 DUP7 GAS STATICCALL ISZERO DUP1 ISZERO PUSH2 0x283B JUMPI RETURNDATASIZE PUSH1 0x0 DUP1 RETURNDATACOPY RETURNDATASIZE PUSH1 0x0 REVERT JUMPDEST POP POP POP POP PUSH1 0x40 MLOAD RETURNDATASIZE PUSH1 0x1F NOT PUSH1 0x1F DUP3 ADD AND DUP3 ADD DUP1 PUSH1 0x40 MSTORE POP DUP2 ADD SWAP1 PUSH2 0x285F SWAP2 SWAP1 PUSH2 0x55A5 JUMP JUMPDEST PUSH2 0x2869 SWAP2 SWAP1 PUSH2 0x532F JUMP JUMPDEST LT ISZERO PUSH2 0x28AA JUMPI PUSH1 0x40 MLOAD PUSH32 0x8C379A000000000000000000000000000000000000000000000000000000000 DUP2 MSTORE PUSH1 0x4 ADD PUSH2 0x28A1 SWAP1 PUSH2 0x5477 JUMP JUMPDEST PUSH1 0x40 MLOAD DUP1 SWAP2 SUB SWAP1 REVERT JUMPDEST POP POP POP POP POP POP POP POP JUMP JUMPDEST PUSH1 0x0 DUP1 DUP3 TIMESTAMP DUP2 LT ISZERO PUSH2 0x28FB JUMPI PUSH1 0x40 MLOAD PUSH32 0x8C379A000000000000000000000000000000000000000000000000000000000 DUP2 MSTORE PUSH1 0x4 ADD PUSH2 0x28F2 SWAP1 PUSH2 0x52E0 JUMP JUMPDEST PUSH1 0x40 MLOAD DUP1 SWAP2 SUB SWAP1 REVERT JUMPDEST PUSH1 0x0 PUSH2 0x2928 PUSH32 0x0 DUP13 DUP13 PUSH2 0x3915 JUMP JUMPDEST SWAP1 POP DUP1 PUSH20 0xFFFFFFFFFFFFFFFFFFFFFFFFFFFFFFFFFFFFFFFF AND PUSH4 0x23B872DD CALLER DUP4 DUP13 PUSH1 0x40 MLOAD DUP5 PUSH4 0xFFFFFFFF AND PUSH1 0xE0 SHL DUP2 MSTORE PUSH1 0x4 ADD PUSH2 0x2967 SWAP4 SWAP3 SWAP2 SWAP1 PUSH2 0x563D JUMP JUMPDEST PUSH1 0x20 PUSH1 0x40 MLOAD DUP1 DUP4 SUB DUP2 PUSH1 0x0 DUP8 GAS CALL ISZERO DUP1 ISZERO PUSH2 0x2986 JUMPI RETURNDATASIZE PUSH1 0x0 DUP1 RETURNDATACOPY RETURNDATASIZE PUSH1 0x0 REVERT JUMPDEST POP POP POP POP PUSH1 0x40 MLOAD RETURNDATASIZE PUSH1 0x1F NOT PUSH1 0x1F DUP3 ADD AND DUP3 ADD DUP1 PUSH1 0x40 MSTORE POP DUP2 ADD SWAP1 PUSH2 0x29AA SWAP2 SWAP1 PUSH2 0x5610 JUMP JUMPDEST POP PUSH1 0x0 DUP1 DUP3 PUSH20 0xFFFFFFFFFFFFFFFFFFFFFFFFFFFFFFFFFFFFFFFF AND PUSH4 0x89AFCB44 DUP10 PUSH1 0x40 MLOAD DUP3 PUSH4 0xFFFFFFFF AND PUSH1 0xE0 SHL DUP2 MSTORE PUSH1 0x4 ADD PUSH2 0x29E7 SWAP2 SWAP1 PUSH2 0x4F72 JUMP JUMPDEST PUSH1 0x40 DUP1 MLOAD DUP1 DUP4 SUB DUP2 PUSH1 0x0 DUP8 GAS CALL ISZERO DUP1 ISZERO PUSH2 0x2A05 JUMPI RETURNDATASIZE PUSH1 0x0 DUP1 RETURNDATACOPY RETURNDATASIZE PUSH1 0x0 REVERT JUMPDEST POP POP POP POP PUSH1 0x40 MLOAD RETURNDATASIZE PUSH1 0x1F NOT PUSH1 0x1F DUP3 ADD AND DUP3 ADD DUP1 PUSH1 0x40 MSTORE POP DUP2 ADD SWAP1 PUSH2 0x2A29 SWAP2 SWAP1 PUSH2 0x5674 JUMP JUMPDEST SWAP2 POP SWAP2 POP PUSH1 0x0 PUSH2 0x2A39 DUP15 DUP15 PUSH2 0x44C6 JUMP JUMPDEST POP SWAP1 POP DUP1 PUSH20 0xFFFFFFFFFFFFFFFFFFFFFFFFFFFFFFFFFFFFFFFF AND DUP15 PUSH20 0xFFFFFFFFFFFFFFFFFFFFFFFFFFFFFFFFFFFFFFFF AND EQ PUSH2 0x2A76 JUMPI DUP2 DUP4 PUSH2 0x2A79 JUMP JUMPDEST DUP3 DUP3 JUMPDEST DUP1 SWAP8 POP DUP2 SWAP9 POP POP POP DUP11 DUP8 LT ISZERO PUSH2 0x2AC4 JUMPI PUSH1 0x40 MLOAD PUSH32 0x8C379A000000000000000000000000000000000000000000000000000000000 DUP2 MSTORE PUSH1 0x4 ADD PUSH2 0x2ABB SWAP1 PUSH2 0x5700 JUMP JUMPDEST PUSH1 0x40 MLOAD DUP1 SWAP2 SUB SWAP1 REVERT JUMPDEST DUP10 DUP7 LT ISZERO PUSH2 0x2B07 JUMPI PUSH1 0x40 MLOAD PUSH32 0x8C379A000000000000000000000000000000000000000000000000000000000 DUP2 MSTORE PUSH1 0x4 ADD PUSH2 0x2AFE SWAP1 PUSH2 0x576C JUMP JUMPDEST PUSH1 0x40 MLOAD DUP1 SWAP2 SUB SWAP1 REVERT JUMPDEST POP POP POP POP POP SWAP8 POP SWAP8 SWAP6 POP POP POP POP POP POP JUMP JUMPDEST PUSH32 0x0 DUP2 JUMP JUMPDEST PUSH32 0x0 DUP2 JUMP JUMPDEST PUSH1 0x60 PUSH2 0x2B8D PUSH32 0x0 DUP5 DUP5 PUSH2 0x378A JUMP JUMPDEST SWAP1 POP SWAP3 SWAP2 POP POP JUMP JUMPDEST PUSH1 0x0 DUP1 PUSH1 0x0 PUSH2 0x2BE5 PUSH32 0x0 DUP15 PUSH32 0x0 PUSH2 0x3915 JUMP JUMPDEST SWAP1 POP PUSH1 0x0 DUP8 PUSH2 0x2BF4 JUMPI DUP13 PUSH2 0x2C06 JUMP JUMPDEST PUSH16 0xFFFFFFFFFFFFFFFFFFFFFFFFFFFFFFFF JUMPDEST SWAP1 POP DUP2 PUSH20 0xFFFFFFFFFFFFFFFFFFFFFFFFFFFFFFFFFFFFFFFF AND PUSH4 0xD505ACCF CALLER ADDRESS DUP5 DUP14 DUP13 DUP13 DUP13 PUSH1 0x40 MLOAD DUP9 PUSH4 0xFFFFFFFF AND PUSH1 0xE0 SHL DUP2 MSTORE PUSH1 0x4 ADD PUSH2 0x2C4D SWAP8 SWAP7 SWAP6 SWAP5 SWAP4 SWAP3 SWAP2 SWAP1 PUSH2 0x54B5 JUMP JUMPDEST PUSH1 0x0 PUSH1 0x40 MLOAD DUP1 DUP4 SUB DUP2 PUSH1 0x0 DUP8 DUP1 EXTCODESIZE ISZERO DUP1 ISZERO PUSH2 0x2C67 JUMPI PUSH1 0x0 DUP1 REVERT JUMPDEST POP GAS CALL ISZERO DUP1 ISZERO PUSH2 0x2C7B JUMPI RETURNDATASIZE PUSH1 0x0 DUP1 RETURNDATACOPY RETURNDATASIZE PUSH1 0x0 REVERT JUMPDEST POP POP POP POP PUSH2 0x2C8D DUP15 DUP15 DUP15 DUP15 DUP15 DUP15 PUSH2 0x7B5 JUMP JUMPDEST DUP1 SWAP5 POP DUP2 SWAP6 POP POP POP POP POP SWAP11 POP SWAP11 SWAP9 POP POP POP POP POP POP POP POP POP JUMP JUMPDEST PUSH1 0x0 DUP1 PUSH1 0x0 DUP4 TIMESTAMP DUP2 LT ISZERO PUSH2 0x2CEF JUMPI PUSH1 0x40 MLOAD PUSH32 0x8C379A000000000000000000000000000000000000000000000000000000000 DUP2 MSTORE PUSH1 0x4 ADD PUSH2 0x2CE6 SWAP1 PUSH2 0x52E0 JUMP JUMPDEST PUSH1 0x40 MLOAD DUP1 SWAP2 SUB SWAP1 REVERT JUMPDEST PUSH2 0x2CFD DUP13 DUP13 DUP13 DUP13 DUP13 DUP13 PUSH2 0x45F2 JUMP JUMPDEST DUP1 SWAP5 POP DUP2 SWAP6 POP POP POP PUSH1 0x0 PUSH2 0x2D32 PUSH32 0x0 DUP15 DUP15 PUSH2 0x3915 JUMP JUMPDEST SWAP1 POP PUSH2 0x2D40 DUP14 CALLER DUP4 DUP9 PUSH2 0x3ABA JUMP JUMPDEST PUSH2 0x2D4C DUP13 CALLER DUP4 DUP8 PUSH2 0x3ABA JUMP JUMPDEST DUP1 PUSH20 0xFFFFFFFFFFFFFFFFFFFFFFFFFFFFFFFFFFFFFFFF AND PUSH4 0x6A627842 DUP9 PUSH1 0x40 MLOAD DUP3 PUSH4 0xFFFFFFFF AND PUSH1 0xE0 SHL DUP2 MSTORE PUSH1 0x4 ADD PUSH2 0x2D85 SWAP2 SWAP1 PUSH2 0x4F72 JUMP JUMPDEST PUSH1 0x20 PUSH1 0x40 MLOAD DUP1 DUP4 SUB DUP2 PUSH1 0x0 DUP8 GAS CALL ISZERO DUP1 ISZERO PUSH2 0x2DA4 JUMPI RETURNDATASIZE PUSH1 0x0 DUP1 RETURNDATACOPY RETURNDATASIZE PUSH1 0x0 REVERT JUMPDEST POP POP POP POP PUSH1 0x40 MLOAD RETURNDATASIZE PUSH1 0x1F NOT PUSH1 0x1F DUP3 ADD AND DUP3 ADD DUP1 PUSH1 0x40 MSTORE POP DUP2 ADD SWAP1 PUSH2 0x2DC8 SWAP2 SWAP1 PUSH2 0x55A5 JUMP JUMPDEST SWAP3 POP POP POP SWAP9 POP SWAP9 POP SWAP9 SWAP6 POP POP POP POP POP POP JUMP JUMPDEST PUSH1 0x0 DUP1 PUSH1 0x0 DUP4 TIMESTAMP DUP2 LT ISZERO PUSH2 0x2E23 JUMPI PUSH1 0x40 MLOAD PUSH32 0x8C379A000000000000000000000000000000000000000000000000000000000 DUP2 MSTORE PUSH1 0x4 ADD PUSH2 0x2E1A SWAP1 PUSH2 0x52E0 JUMP JUMPDEST PUSH1 0x40 MLOAD DUP1 SWAP2 SUB SWAP1 REVERT JUMPDEST PUSH2 0x2E51 DUP11 PUSH32 0x0 DUP12 CALLVALUE DUP13 DUP13 PUSH2 0x45F2 JUMP JUMPDEST DUP1 SWAP5 POP DUP2 SWAP6 POP POP POP PUSH1 0x0 PUSH2 0x2EA6 PUSH32 0x0 DUP13 PUSH32 0x0 PUSH2 0x3915 JUMP JUMPDEST SWAP1 POP PUSH2 0x2EB4 DUP12 CALLER DUP4 DUP9 PUSH2 0x3ABA JUMP JUMPDEST PUSH32 0x0 PUSH20 0xFFFFFFFFFFFFFFFFFFFFFFFFFFFFFFFFFFFFFFFF AND PUSH4 0xD0E30DB0 DUP6 PUSH1 0x40 MLOAD DUP3 PUSH4 0xFFFFFFFF AND PUSH1 0xE0 SHL DUP2 MSTORE PUSH1 0x4 ADD PUSH1 0x0 PUSH1 0x40 MLOAD DUP1 DUP4 SUB DUP2 DUP6 DUP9 DUP1 EXTCODESIZE ISZERO DUP1 ISZERO PUSH2 0x2F1C JUMPI PUSH1 0x0 DUP1 REVERT JUMPDEST POP GAS CALL ISZERO DUP1 ISZERO PUSH2 0x2F30 JUMPI RETURNDATASIZE PUSH1 0x0 DUP1 RETURNDATACOPY RETURNDATASIZE PUSH1 0x0 REVERT JUMPDEST POP POP POP POP POP PUSH32 0x0 PUSH20 0xFFFFFFFFFFFFFFFFFFFFFFFFFFFFFFFFFFFFFFFF AND PUSH4 0xA9059CBB DUP3 DUP7 PUSH1 0x40 MLOAD DUP4 PUSH4 0xFFFFFFFF AND PUSH1 0xE0 SHL DUP2 MSTORE PUSH1 0x4 ADD PUSH2 0x2F90 SWAP3 SWAP2 SWAP1 PUSH2 0x55D2 JUMP JUMPDEST PUSH1 0x20 PUSH1 0x40 MLOAD DUP1 DUP4 SUB DUP2 PUSH1 0x0 DUP8 GAS CALL ISZERO DUP1 ISZERO PUSH2 0x2FAF JUMPI RETURNDATASIZE PUSH1 0x0 DUP1 RETURNDATACOPY RETURNDATASIZE PUSH1 0x0 REVERT JUMPDEST POP POP POP POP PUSH1 0x40 MLOAD RETURNDATASIZE PUSH1 0x1F NOT PUSH1 0x1F DUP3 ADD AND DUP3 ADD DUP1 PUSH1 0x40 MSTORE POP DUP2 ADD SWAP1 PUSH2 0x2FD3 SWAP2 SWAP1 PUSH2 0x5610 JUMP JUMPDEST PUSH2 0x2FE0 JUMPI PUSH2 0x2FDF PUSH2 0x4834 JUMP JUMPDEST JUMPDEST DUP1 PUSH20 0xFFFFFFFFFFFFFFFFFFFFFFFFFFFFFFFFFFFFFFFF AND PUSH4 0x6A627842 DUP9 PUSH1 0x40 MLOAD DUP3 PUSH4 0xFFFFFFFF AND PUSH1 0xE0 SHL DUP2 MSTORE PUSH1 0x4 ADD PUSH2 0x3019 SWAP2 SWAP1 PUSH2 0x4F72 JUMP JUMPDEST PUSH1 0x20 PUSH1 0x40 MLOAD DUP1 DUP4 SUB DUP2 PUSH1 0x0 DUP8 GAS CALL ISZERO DUP1 ISZERO PUSH2 0x3038 JUMPI RETURNDATASIZE PUSH1 0x0 DUP1 RETURNDATACOPY RETURNDATASIZE PUSH1 0x0 REVERT JUMPDEST POP POP POP POP PUSH1 0x40 MLOAD RETURNDATASIZE PUSH1 0x1F NOT PUSH1 0x1F DUP3 ADD AND DUP3 ADD DUP1 PUSH1 0x40 MSTORE POP DUP2 ADD SWAP1 PUSH2 0x305C SWAP2 SWAP1 PUSH2 0x55A5 JUMP JUMPDEST SWAP3 POP DUP4 CALLVALUE GT ISZERO PUSH2 0x307C JUMPI PUSH2 0x307B CALLER DUP6 CALLVALUE PUSH2 0x3076 SWAP2 SWAP1 PUSH2 0x532F JUMP JUMPDEST PUSH2 0x35A0 JUMP JUMPDEST JUMPDEST POP POP SWAP7 POP SWAP7 POP SWAP7 SWAP4 POP POP POP POP JUMP JUMPDEST PUSH1 0x60 DUP2 TIMESTAMP DUP2 LT ISZERO PUSH2 0x30D0 JUMPI PUSH1 0x40 MLOAD PUSH32 0x8C379A000000000000000000000000000000000000000000000000000000000 DUP2 MSTORE PUSH1 0x4 ADD PUSH2 0x30C7 SWAP1 PUSH2 0x52E0 JUMP JUMPDEST PUSH1 0x40 MLOAD DUP1 SWAP2 SUB SWAP1 REVERT JUMPDEST PUSH32 0x0 PUSH20 0xFFFFFFFFFFFFFFFFFFFFFFFFFFFFFFFFFFFFFFFF AND DUP7 DUP7 PUSH1 0x0 DUP2 DUP2 LT PUSH2 0x311B JUMPI PUSH2 0x311A PUSH2 0x5363 JUMP JUMPDEST JUMPDEST SWAP1 POP PUSH1 0x20 MUL ADD PUSH1 0x20 DUP2 ADD SWAP1 PUSH2 0x3130 SWAP2 SWAP1 PUSH2 0x5392 JUMP JUMPDEST PUSH20 0xFFFFFFFFFFFFFFFFFFFFFFFFFFFFFFFFFFFFFFFF AND EQ PUSH2 0x3186 JUMPI PUSH1 0x40 MLOAD PUSH32 0x8C379A000000000000000000000000000000000000000000000000000000000 DUP2 MSTORE PUSH1 0x4 ADD PUSH2 0x317D SWAP1 PUSH2 0x540B JUMP JUMPDEST PUSH1 0x40 MLOAD DUP1 SWAP2 SUB SWAP1 REVERT JUMPDEST PUSH2 0x31F2 PUSH32 0x0 DUP9 DUP9 DUP9 DUP1 DUP1 PUSH1 0x20 MUL PUSH1 0x20 ADD PUSH1 0x40 MLOAD SWAP1 DUP2 ADD PUSH1 0x40 MSTORE DUP1 SWAP4 SWAP3 SWAP2 SWAP1 DUP2 DUP2 MSTORE PUSH1 0x20 ADD DUP4 DUP4 PUSH1 0x20 MUL DUP1 DUP3 DUP5 CALLDATACOPY PUSH1 0x0 DUP2 DUP5 ADD MSTORE PUSH1 0x1F NOT PUSH1 0x1F DUP3 ADD AND SWAP1 POP DUP1 DUP4 ADD SWAP3 POP POP POP POP POP POP POP PUSH2 0x3DDE JUMP JUMPDEST SWAP2 POP CALLVALUE DUP3 PUSH1 0x0 DUP2 MLOAD DUP2 LT PUSH2 0x3209 JUMPI PUSH2 0x3208 PUSH2 0x5363 JUMP JUMPDEST JUMPDEST PUSH1 0x20 MUL PUSH1 0x20 ADD ADD MLOAD GT ISZERO PUSH2 0x3252 JUMPI PUSH1 0x40 MLOAD PUSH32 0x8C379A000000000000000000000000000000000000000000000000000000000 DUP2 MSTORE PUSH1 0x4 ADD PUSH2 0x3249 SWAP1 PUSH2 0x5570 JUMP JUMPDEST PUSH1 0x40 MLOAD DUP1 SWAP2 SUB SWAP1 REVERT JUMPDEST PUSH32 0x0 PUSH20 0xFFFFFFFFFFFFFFFFFFFFFFFFFFFFFFFFFFFFFFFF AND PUSH4 0xD0E30DB0 DUP4 PUSH1 0x0 DUP2 MLOAD DUP2 LT PUSH2 0x32A2 JUMPI PUSH2 0x32A1 PUSH2 0x5363 JUMP JUMPDEST JUMPDEST PUSH1 0x20 MUL PUSH1 0x20 ADD ADD MLOAD PUSH1 0x40 MLOAD DUP3 PUSH4 0xFFFFFFFF AND PUSH1 0xE0 SHL DUP2 MSTORE PUSH1 0x4 ADD PUSH1 0x0 PUSH1 0x40 MLOAD DUP1 DUP4 SUB DUP2 DUP6 DUP9 DUP1 EXTCODESIZE ISZERO DUP1 ISZERO PUSH2 0x32D5 JUMPI PUSH1 0x0 DUP1 REVERT JUMPDEST POP GAS CALL ISZERO DUP1 ISZERO PUSH2 0x32E9 JUMPI RETURNDATASIZE PUSH1 0x0 DUP1 RETURNDATACOPY RETURNDATASIZE PUSH1 0x0 REVERT JUMPDEST POP POP POP POP POP PUSH32 0x0 PUSH20 0xFFFFFFFFFFFFFFFFFFFFFFFFFFFFFFFFFFFFFFFF AND PUSH4 0xA9059CBB PUSH2 0x33A5 PUSH32 0x0 DUP10 DUP10 PUSH1 0x0 DUP2 DUP2 LT PUSH2 0x3362 JUMPI PUSH2 0x3361 PUSH2 0x5363 JUMP JUMPDEST JUMPDEST SWAP1 POP PUSH1 0x20 MUL ADD PUSH1 0x20 DUP2 ADD SWAP1 PUSH2 0x3377 SWAP2 SWAP1 PUSH2 0x5392 JUMP JUMPDEST DUP11 DUP11 PUSH1 0x1 DUP2 DUP2 LT PUSH2 0x338B JUMPI PUSH2 0x338A PUSH2 0x5363 JUMP JUMPDEST JUMPDEST SWAP1 POP PUSH1 0x20 MUL ADD PUSH1 0x20 DUP2 ADD SWAP1 PUSH2 0x33A0 SWAP2 SWAP1 PUSH2 0x5392 JUMP JUMPDEST PUSH2 0x3915 JUMP JUMPDEST DUP5 PUSH1 0x0 DUP2 MLOAD DUP2 LT PUSH2 0x33B9 JUMPI PUSH2 0x33B8 PUSH2 0x5363 JUMP JUMPDEST JUMPDEST PUSH1 0x20 MUL PUSH1 0x20 ADD ADD MLOAD PUSH1 0x40 MLOAD DUP4 PUSH4 0xFFFFFFFF AND PUSH1 0xE0 SHL DUP2 MSTORE PUSH1 0x4 ADD PUSH2 0x33DE SWAP3 SWAP2 SWAP1 PUSH2 0x55D2 JUMP JUMPDEST PUSH1 0x20 PUSH1 0x40 MLOAD DUP1 DUP4 SUB DUP2 PUSH1 0x0 DUP8 GAS CALL ISZERO DUP1 ISZERO PUSH2 0x33FD JUMPI RETURNDATASIZE PUSH1 0x0 DUP1 RETURNDATACOPY RETURNDATASIZE PUSH1 0x0 REVERT JUMPDEST POP POP POP POP PUSH1 0x40 MLOAD RETURNDATASIZE PUSH1 0x1F NOT PUSH1 0x1F DUP3 ADD AND DUP3 ADD DUP1 PUSH1 0x40 MSTORE POP DUP2 ADD SWAP1 PUSH2 0x3421 SWAP2 SWAP1 PUSH2 0x5610 JUMP JUMPDEST PUSH2 0x342E JUMPI PUSH2 0x342D PUSH2 0x4834 JUMP JUMPDEST JUMPDEST PUSH2 0x347A DUP3 DUP8 DUP8 DUP1 DUP1 PUSH1 0x20 MUL PUSH1 0x20 ADD PUSH1 0x40 MLOAD SWAP1 DUP2 ADD PUSH1 0x40 MSTORE DUP1 SWAP4 SWAP3 SWAP2 SWAP1 DUP2 DUP2 MSTORE PUSH1 0x20 ADD DUP4 DUP4 PUSH1 0x20 MUL DUP1 DUP3 DUP5 CALLDATACOPY PUSH1 0x0 DUP2 DUP5 ADD MSTORE PUSH1 0x1F NOT PUSH1 0x1F DUP3 ADD AND SWAP1 POP DUP1 DUP4 ADD SWAP3 POP POP POP POP POP POP POP DUP7 PUSH2 0x3B85 JUMP JUMPDEST DUP2 PUSH1 0x0 DUP2 MLOAD DUP2 LT PUSH2 0x348E JUMPI PUSH2 0x348D PUSH2 0x5363 JUMP JUMPDEST JUMPDEST PUSH1 0x20 MUL PUSH1 0x20 ADD ADD MLOAD CALLVALUE GT ISZERO PUSH2 0x34CE JUMPI PUSH2 0x34CD CALLER DUP4 PUSH1 0x0 DUP2 MLOAD DUP2 LT PUSH2 0x34B5 JUMPI PUSH2 0x34B4 PUSH2 0x5363 JUMP JUMPDEST JUMPDEST PUSH1 0x20 MUL PUSH1 0x20 ADD ADD MLOAD CALLVALUE PUSH2 0x34C8 SWAP2 SWAP1 PUSH2 0x532F JUMP JUMPDEST PUSH2 0x35A0 JUMP JUMPDEST JUMPDEST POP SWAP6 SWAP5 POP POP POP POP POP JUMP JUMPDEST PUSH1 0x0 DUP4 PUSH20 0xFFFFFFFFFFFFFFFFFFFFFFFFFFFFFFFFFFFFFFFF AND PUSH4 0xA9059CBB DUP5 DUP5 PUSH1 0x40 MLOAD DUP4 PUSH4 0xFFFFFFFF AND PUSH1 0xE0 SHL DUP2 MSTORE PUSH1 0x4 ADD PUSH2 0x3515 SWAP3 SWAP2 SWAP1 PUSH2 0x55D2 JUMP JUMPDEST PUSH1 0x20 PUSH1 0x40 MLOAD DUP1 DUP4 SUB DUP2 PUSH1 0x0 DUP8 GAS CALL ISZERO DUP1 ISZERO PUSH2 0x3534 JUMPI RETURNDATASIZE PUSH1 0x0 DUP1 RETURNDATACOPY RETURNDATASIZE PUSH1 0x0 REVERT JUMPDEST POP POP POP POP PUSH1 0x40 MLOAD RETURNDATASIZE PUSH1 0x1F NOT PUSH1 0x1F DUP3 ADD AND DUP3 ADD DUP1 PUSH1 0x40 MSTORE POP DUP2 ADD SWAP1 PUSH2 0x3558 SWAP2 SWAP1 PUSH2 0x5610 JUMP JUMPDEST SWAP1 POP DUP1 PUSH2 0x359A JUMPI PUSH1 0x40 MLOAD PUSH32 0x8C379A000000000000000000000000000000000000000000000000000000000 DUP2 MSTORE PUSH1 0x4 ADD PUSH2 0x3591 SWAP1 PUSH2 0x57FE JUMP JUMPDEST PUSH1 0x40 MLOAD DUP1 SWAP2 SUB SWAP1 REVERT JUMPDEST POP POP POP POP JUMP JUMPDEST PUSH1 0x0 DUP3 PUSH20 0xFFFFFFFFFFFFFFFFFFFFFFFFFFFFFFFFFFFFFFFF AND DUP3 PUSH1 0x0 PUSH8 0xFFFFFFFFFFFFFFFF DUP2 GT ISZERO PUSH2 0x35D5 JUMPI PUSH2 0x35D4 PUSH2 0x4C2E JUMP JUMPDEST JUMPDEST PUSH1 0x40 MLOAD SWAP1 DUP1 DUP3 MSTORE DUP1 PUSH1 0x1F ADD PUSH1 0x1F NOT AND PUSH1 0x20 ADD DUP3 ADD PUSH1 0x40 MSTORE DUP1 ISZERO PUSH2 0x3607 JUMPI DUP2 PUSH1 0x20 ADD PUSH1 0x1 DUP3 MUL DUP1 CALLDATASIZE DUP4 CALLDATACOPY DUP1 DUP3 ADD SWAP2 POP POP SWAP1 POP JUMPDEST POP PUSH1 0x40 MLOAD PUSH2 0x3615 SWAP2 SWAP1 PUSH2 0x588F JUMP JUMPDEST PUSH1 0x0 PUSH1 0x40 MLOAD DUP1 DUP4 SUB DUP2 DUP6 DUP8 GAS CALL SWAP3 POP POP POP RETURNDATASIZE DUP1 PUSH1 0x0 DUP2 EQ PUSH2 0x3652 JUMPI PUSH1 0x40 MLOAD SWAP2 POP PUSH1 0x1F NOT PUSH1 0x3F RETURNDATASIZE ADD AND DUP3 ADD PUSH1 0x40 MSTORE RETURNDATASIZE DUP3 MSTORE RETURNDATASIZE PUSH1 0x0 PUSH1 0x20 DUP5 ADD RETURNDATACOPY PUSH2 0x3657 JUMP JUMPDEST PUSH1 0x60 SWAP2 POP JUMPDEST POP POP SWAP1 POP DUP1 PUSH2 0x369B JUMPI PUSH1 0x40 MLOAD PUSH32 0x8C379A000000000000000000000000000000000000000000000000000000000 DUP2 MSTORE PUSH1 0x4 ADD PUSH2 0x3692 SWAP1 PUSH2 0x5918 JUMP JUMPDEST PUSH1 0x40 MLOAD DUP1 SWAP2 SUB SWAP1 REVERT JUMPDEST POP POP POP JUMP JUMPDEST PUSH1 0x0 DUP1 DUP5 GT PUSH2 0x36E4 JUMPI PUSH1 0x40 MLOAD PUSH32 0x8C379A000000000000000000000000000000000000000000000000000000000 DUP2 MSTORE PUSH1 0x4 ADD PUSH2 0x36DB SWAP1 PUSH2 0x5984 JUMP JUMPDEST PUSH1 0x40 MLOAD DUP1 SWAP2 SUB SWAP1 REVERT JUMPDEST PUSH1 0x0 DUP4 GT DUP1 ISZERO PUSH2 0x36F4 JUMPI POP PUSH1 0x0 DUP3 GT JUMPDEST PUSH2 0x3733 JUMPI PUSH1 0x40 MLOAD PUSH32 0x8C379A000000000000000000000000000000000000000000000000000000000 DUP2 MSTORE PUSH1 0x4 ADD PUSH2 0x372A SWAP1 PUSH2 0x59F0 JUMP JUMPDEST PUSH1 0x40 MLOAD DUP1 SWAP2 SUB SWAP1 REVERT JUMPDEST PUSH1 0x0 PUSH2 0x3E5 DUP6 PUSH2 0x3743 SWAP2 SWAP1 PUSH2 0x5A10 JUMP JUMPDEST SWAP1 POP PUSH1 0x0 DUP4 DUP3 PUSH2 0x3753 SWAP2 SWAP1 PUSH2 0x5A10 JUMP JUMPDEST SWAP1 POP PUSH1 0x0 DUP3 PUSH2 0x3E8 DUP8 PUSH2 0x3766 SWAP2 SWAP1 PUSH2 0x5A10 JUMP JUMPDEST PUSH2 0x3770 SWAP2 SWAP1 PUSH2 0x5A52 JUMP JUMPDEST SWAP1 POP DUP1 DUP3 PUSH2 0x377E SWAP2 SWAP1 PUSH2 0x5AB5 JUMP JUMPDEST SWAP4 POP POP POP POP SWAP4 SWAP3 POP POP POP JUMP JUMPDEST PUSH1 0x60 PUSH1 0x2 DUP3 MLOAD LT ISZERO PUSH2 0x37D1 JUMPI PUSH1 0x40 MLOAD PUSH32 0x8C379A000000000000000000000000000000000000000000000000000000000 DUP2 MSTORE PUSH1 0x4 ADD PUSH2 0x37C8 SWAP1 PUSH2 0x540B JUMP JUMPDEST PUSH1 0x40 MLOAD DUP1 SWAP2 SUB SWAP1 REVERT JUMPDEST DUP2 MLOAD PUSH8 0xFFFFFFFFFFFFFFFF DUP2 GT ISZERO PUSH2 0x37EC JUMPI PUSH2 0x37EB PUSH2 0x4C2E JUMP JUMPDEST JUMPDEST PUSH1 0x40 MLOAD SWAP1 DUP1 DUP3 MSTORE DUP1 PUSH1 0x20 MUL PUSH1 0x20 ADD DUP3 ADD PUSH1 0x40 MSTORE DUP1 ISZERO PUSH2 0x381A JUMPI DUP2 PUSH1 0x20 ADD PUSH1 0x20 DUP3 MUL DUP1 CALLDATASIZE DUP4 CALLDATACOPY DUP1 DUP3 ADD SWAP2 POP POP SWAP1 POP JUMPDEST POP SWAP1 POP DUP3 DUP2 PUSH1 0x0 DUP2 MLOAD DUP2 LT PUSH2 0x3832 JUMPI PUSH2 0x3831 PUSH2 0x5363 JUMP JUMPDEST JUMPDEST PUSH1 0x20 MUL PUSH1 0x20 ADD ADD DUP2 DUP2 MSTORE POP POP PUSH1 0x0 JUMPDEST PUSH1 0x1 DUP4 MLOAD PUSH2 0x384F SWAP2 SWAP1 PUSH2 0x532F JUMP JUMPDEST DUP2 LT ISZERO PUSH2 0x390D JUMPI PUSH1 0x0 DUP1 PUSH2 0x38A4 DUP8 DUP7 DUP6 DUP2 MLOAD DUP2 LT PUSH2 0x3870 JUMPI PUSH2 0x386F PUSH2 0x5363 JUMP JUMPDEST JUMPDEST PUSH1 0x20 MUL PUSH1 0x20 ADD ADD MLOAD DUP8 PUSH1 0x1 DUP8 PUSH2 0x3886 SWAP2 SWAP1 PUSH2 0x5A52 JUMP JUMPDEST DUP2 MLOAD DUP2 LT PUSH2 0x3897 JUMPI PUSH2 0x3896 PUSH2 0x5363 JUMP JUMPDEST JUMPDEST PUSH1 0x20 MUL PUSH1 0x20 ADD ADD MLOAD PUSH2 0x4731 JUMP JUMPDEST SWAP2 POP SWAP2 POP PUSH2 0x38CD DUP5 DUP5 DUP2 MLOAD DUP2 LT PUSH2 0x38BE JUMPI PUSH2 0x38BD PUSH2 0x5363 JUMP JUMPDEST JUMPDEST PUSH1 0x20 MUL PUSH1 0x20 ADD ADD MLOAD DUP4 DUP4 PUSH2 0x36A0 JUMP JUMPDEST DUP5 PUSH1 0x1 DUP6 PUSH2 0x38DB SWAP2 SWAP1 PUSH2 0x5A52 JUMP JUMPDEST DUP2 MLOAD DUP2 LT PUSH2 0x38EC JUMPI PUSH2 0x38EB PUSH2 0x5363 JUMP JUMPDEST JUMPDEST PUSH1 0x20 MUL PUSH1 0x20 ADD ADD DUP2 DUP2 MSTORE POP POP POP POP DUP1 DUP1 PUSH2 0x3905 SWAP1 PUSH2 0x5AE6 JUMP JUMPDEST SWAP2 POP POP PUSH2 0x3841 JUMP JUMPDEST POP SWAP4 SWAP3 POP POP POP JUMP JUMPDEST PUSH1 0x0 DUP1 PUSH1 0x0 PUSH2 0x3924 DUP6 DUP6 PUSH2 0x44C6 JUMP JUMPDEST SWAP2 POP SWAP2 POP PUSH1 0x0 PUSH20 0xD0DA387609ADC13779BADAF1315A4904CD40976E SWAP1 POP PUSH1 0x0 PUSH20 0xD1F9C3397EA04D3DE7F002CB9E63CB49D0DEAA36 SWAP1 POP PUSH1 0x0 PUSH20 0x3F7E06A4F8061B0389FE0551A2E33376F2BA02EE SWAP1 POP DUP3 PUSH20 0xFFFFFFFFFFFFFFFFFFFFFFFFFFFFFFFFFFFFFFFF AND DUP9 PUSH20 0xFFFFFFFFFFFFFFFFFFFFFFFFFFFFFFFFFFFFFFFF AND EQ DUP1 PUSH2 0x39D8 JUMPI POP DUP2 PUSH20 0xFFFFFFFFFFFFFFFFFFFFFFFFFFFFFFFFFFFFFFFF AND DUP9 PUSH20 0xFFFFFFFFFFFFFFFFFFFFFFFFFFFFFFFFFFFFFFFF AND EQ JUMPDEST DUP1 ISZERO PUSH2 0x3A45 JUMPI POP DUP3 PUSH20 0xFFFFFFFFFFFFFFFFFFFFFFFFFFFFFFFFFFFFFFFF AND DUP8 PUSH20 0xFFFFFFFFFFFFFFFFFFFFFFFFFFFFFFFFFFFFFFFF AND EQ DUP1 PUSH2 0x3A44 JUMPI POP DUP2 PUSH20 0xFFFFFFFFFFFFFFFFFFFFFFFFFFFFFFFFFFFFFFFF AND DUP8 PUSH20 0xFFFFFFFFFFFFFFFFFFFFFFFFFFFFFFFFFFFFFFFF AND EQ JUMPDEST JUMPDEST ISZERO PUSH2 0x3A57 JUMPI DUP1 SWAP6 POP POP POP POP POP POP PUSH2 0x3AB3 JUMP JUMPDEST DUP9 DUP6 DUP6 PUSH1 0x40 MLOAD PUSH1 0x20 ADD PUSH2 0x3A6B SWAP3 SWAP2 SWAP1 PUSH2 0x5B76 JUMP JUMPDEST PUSH1 0x40 MLOAD PUSH1 0x20 DUP2 DUP4 SUB SUB DUP2 MSTORE SWAP1 PUSH1 0x40 MSTORE DUP1 MLOAD SWAP1 PUSH1 0x20 ADD KECCAK256 PUSH1 0x40 MLOAD PUSH1 0x20 ADD PUSH2 0x3A92 SWAP3 SWAP2 SWAP1 PUSH2 0x5C66 JUMP JUMPDEST PUSH1 0x40 MLOAD PUSH1 0x20 DUP2 DUP4 SUB SUB DUP2 MSTORE SWAP1 PUSH1 0x40 MSTORE DUP1 MLOAD SWAP1 PUSH1 0x20 ADD KECCAK256 PUSH1 0x0 SHR SWAP6 POP POP POP POP POP POP JUMPDEST SWAP4 SWAP3 POP POP POP JUMP JUMPDEST PUSH1 0x0 DUP5 PUSH20 0xFFFFFFFFFFFFFFFFFFFFFFFFFFFFFFFFFFFFFFFF AND PUSH4 0x23B872DD DUP6 DUP6 DUP6 PUSH1 0x40 MLOAD DUP5 PUSH4 0xFFFFFFFF AND PUSH1 0xE0 SHL DUP2 MSTORE PUSH1 0x4 ADD PUSH2 0x3AF9 SWAP4 SWAP3 SWAP2 SWAP1 PUSH2 0x563D JUMP JUMPDEST PUSH1 0x20 PUSH1 0x40 MLOAD DUP1 DUP4 SUB DUP2 PUSH1 0x0 DUP8 GAS CALL ISZERO DUP1 ISZERO PUSH2 0x3B18 JUMPI RETURNDATASIZE PUSH1 0x0 DUP1 RETURNDATACOPY RETURNDATASIZE PUSH1 0x0 REVERT JUMPDEST POP POP POP POP PUSH1 0x40 MLOAD RETURNDATASIZE PUSH1 0x1F NOT PUSH1 0x1F DUP3 ADD AND DUP3 ADD DUP1 PUSH1 0x40 MSTORE POP DUP2 ADD SWAP1 PUSH2 0x3B3C SWAP2 SWAP1 PUSH2 0x5610 JUMP JUMPDEST SWAP1 POP DUP1 PUSH2 0x3B7E JUMPI PUSH1 0x40 MLOAD PUSH32 0x8C379A000000000000000000000000000000000000000000000000000000000 DUP2 MSTORE PUSH1 0x4 ADD PUSH2 0x3B75 SWAP1 PUSH2 0x5D1A JUMP JUMPDEST PUSH1 0x40 MLOAD DUP1 SWAP2 SUB SWAP1 REVERT JUMPDEST POP POP POP POP POP JUMP JUMPDEST PUSH1 0x0 JUMPDEST PUSH1 0x1 DUP4 MLOAD PUSH2 0x3B96 SWAP2 SWAP1 PUSH2 0x532F JUMP JUMPDEST DUP2 LT ISZERO PUSH2 0x3DD8 JUMPI PUSH1 0x0 DUP1 DUP5 DUP4 DUP2 MLOAD DUP2 LT PUSH2 0x3BB3 JUMPI PUSH2 0x3BB2 PUSH2 0x5363 JUMP JUMPDEST JUMPDEST PUSH1 0x20 MUL PUSH1 0x20 ADD ADD MLOAD DUP6 PUSH1 0x1 DUP6 PUSH2 0x3BC9 SWAP2 SWAP1 PUSH2 0x5A52 JUMP JUMPDEST DUP2 MLOAD DUP2 LT PUSH2 0x3BDA JUMPI PUSH2 0x3BD9 PUSH2 0x5363 JUMP JUMPDEST JUMPDEST PUSH1 0x20 MUL PUSH1 0x20 ADD ADD MLOAD SWAP2 POP SWAP2 POP PUSH1 0x0 PUSH2 0x3BF2 DUP4 DUP4 PUSH2 0x44C6 JUMP JUMPDEST POP SWAP1 POP PUSH1 0x0 DUP8 PUSH1 0x1 DUP7 PUSH2 0x3C05 SWAP2 SWAP1 PUSH2 0x5A52 JUMP JUMPDEST DUP2 MLOAD DUP2 LT PUSH2 0x3C16 JUMPI PUSH2 0x3C15 PUSH2 0x5363 JUMP JUMPDEST JUMPDEST PUSH1 0x20 MUL PUSH1 0x20 ADD ADD MLOAD SWAP1 POP PUSH1 0x0 DUP1 DUP4 PUSH20 0xFFFFFFFFFFFFFFFFFFFFFFFFFFFFFFFFFFFFFFFF AND DUP7 PUSH20 0xFFFFFFFFFFFFFFFFFFFFFFFFFFFFFFFFFFFFFFFF AND EQ PUSH2 0x3C5E JUMPI DUP3 PUSH1 0x0 PUSH2 0x3C62 JUMP JUMPDEST PUSH1 0x0 DUP4 JUMPDEST SWAP2 POP SWAP2 POP PUSH1 0x0 PUSH1 0x2 DUP11 MLOAD PUSH2 0x3C76 SWAP2 SWAP1 PUSH2 0x532F JUMP JUMPDEST DUP9 LT PUSH2 0x3C82 JUMPI DUP9 PUSH2 0x3CD4 JUMP JUMPDEST PUSH2 0x3CD3 PUSH32 0x0 DUP8 DUP13 PUSH1 0x2 DUP13 PUSH2 0x3CB5 SWAP2 SWAP1 PUSH2 0x5A52 JUMP JUMPDEST DUP2 MLOAD DUP2 LT PUSH2 0x3CC6 JUMPI PUSH2 0x3CC5 PUSH2 0x5363 JUMP JUMPDEST JUMPDEST PUSH1 0x20 MUL PUSH1 0x20 ADD ADD MLOAD PUSH2 0x3915 JUMP JUMPDEST JUMPDEST SWAP1 POP PUSH2 0x3D01 PUSH32 0x0 DUP9 DUP9 PUSH2 0x3915 JUMP JUMPDEST PUSH20 0xFFFFFFFFFFFFFFFFFFFFFFFFFFFFFFFFFFFFFFFF AND PUSH4 0x22C0D9F DUP5 DUP5 DUP5 PUSH1 0x0 PUSH8 0xFFFFFFFFFFFFFFFF DUP2 GT ISZERO PUSH2 0x3D3A JUMPI PUSH2 0x3D39 PUSH2 0x4C2E JUMP JUMPDEST JUMPDEST PUSH1 0x40 MLOAD SWAP1 DUP1 DUP3 MSTORE DUP1 PUSH1 0x1F ADD PUSH1 0x1F NOT AND PUSH1 0x20 ADD DUP3 ADD PUSH1 0x40 MSTORE DUP1 ISZERO PUSH2 0x3D6C JUMPI DUP2 PUSH1 0x20 ADD PUSH1 0x1 DUP3 MUL DUP1 CALLDATASIZE DUP4 CALLDATACOPY DUP1 DUP3 ADD SWAP2 POP POP SWAP1 POP JUMPDEST POP PUSH1 0x40 MLOAD DUP6 PUSH4 0xFFFFFFFF AND PUSH1 0xE0 SHL DUP2 MSTORE PUSH1 0x4 ADD PUSH2 0x3D8C SWAP5 SWAP4 SWAP3 SWAP2 SWAP1 PUSH2 0x5D84 JUMP JUMPDEST PUSH1 0x0 PUSH1 0x40 MLOAD DUP1 DUP4 SUB DUP2 PUSH1 0x0 DUP8 DUP1 EXTCODESIZE ISZERO DUP1 ISZERO PUSH2 0x3DA6 JUMPI PUSH1 0x0 DUP1 REVERT JUMPDEST POP GAS CALL ISZERO DUP1 ISZERO PUSH2 0x3DBA JUMPI RETURNDATASIZE PUSH1 0x0 DUP1 RETURNDATACOPY RETURNDATASIZE PUSH1 0x0 REVERT JUMPDEST POP POP POP POP POP POP POP POP POP POP POP DUP1 DUP1 PUSH2 0x3DD0 SWAP1 PUSH2 0x5AE6 JUMP JUMPDEST SWAP2 POP POP PUSH2 0x3B88 JUMP JUMPDEST POP POP POP POP JUMP JUMPDEST PUSH1 0x60 PUSH1 0x2 DUP3 MLOAD LT ISZERO PUSH2 0x3E25 JUMPI PUSH1 0x40 MLOAD PUSH32 0x8C379A000000000000000000000000000000000000000000000000000000000 DUP2 MSTORE PUSH1 0x4 ADD PUSH2 0x3E1C SWAP1 PUSH2 0x540B JUMP JUMPDEST PUSH1 0x40 MLOAD DUP1 SWAP2 SUB SWAP1 REVERT JUMPDEST DUP2 MLOAD PUSH8 0xFFFFFFFFFFFFFFFF DUP2 GT ISZERO PUSH2 0x3E40 JUMPI PUSH2 0x3E3F PUSH2 0x4C2E JUMP JUMPDEST JUMPDEST PUSH1 0x40 MLOAD SWAP1 DUP1 DUP3 MSTORE DUP1 PUSH1 0x20 MUL PUSH1 0x20 ADD DUP3 ADD PUSH1 0x40 MSTORE DUP1 ISZERO PUSH2 0x3E6E JUMPI DUP2 PUSH1 0x20 ADD PUSH1 0x20 DUP3 MUL DUP1 CALLDATASIZE DUP4 CALLDATACOPY DUP1 DUP3 ADD SWAP2 POP POP SWAP1 POP JUMPDEST POP SWAP1 POP DUP3 DUP2 PUSH1 0x1 DUP4 MLOAD PUSH2 0x3E81 SWAP2 SWAP1 PUSH2 0x532F JUMP JUMPDEST DUP2 MLOAD DUP2 LT PUSH2 0x3E92 JUMPI PUSH2 0x3E91 PUSH2 0x5363 JUMP JUMPDEST JUMPDEST PUSH1 0x20 MUL PUSH1 0x20 ADD ADD DUP2 DUP2 MSTORE POP POP PUSH1 0x0 PUSH1 0x1 DUP4 MLOAD PUSH2 0x3EAE SWAP2 SWAP1 PUSH2 0x532F JUMP JUMPDEST SWAP1 POP JUMPDEST PUSH1 0x0 DUP2 GT ISZERO PUSH2 0x3F71 JUMPI PUSH1 0x0 DUP1 PUSH2 0x3F08 DUP8 DUP7 PUSH1 0x1 DUP7 PUSH2 0x3ECF SWAP2 SWAP1 PUSH2 0x532F JUMP JUMPDEST DUP2 MLOAD DUP2 LT PUSH2 0x3EE0 JUMPI PUSH2 0x3EDF PUSH2 0x5363 JUMP JUMPDEST JUMPDEST PUSH1 0x20 MUL PUSH1 0x20 ADD ADD MLOAD DUP8 DUP7 DUP2 MLOAD DUP2 LT PUSH2 0x3EFB JUMPI PUSH2 0x3EFA PUSH2 0x5363 JUMP JUMPDEST JUMPDEST PUSH1 0x20 MUL PUSH1 0x20 ADD ADD MLOAD PUSH2 0x4731 JUMP JUMPDEST SWAP2 POP SWAP2 POP PUSH2 0x3F31 DUP5 DUP5 DUP2 MLOAD DUP2 LT PUSH2 0x3F22 JUMPI PUSH2 0x3F21 PUSH2 0x5363 JUMP JUMPDEST JUMPDEST PUSH1 0x20 MUL PUSH1 0x20 ADD ADD MLOAD DUP4 DUP4 PUSH2 0x4323 JUMP JUMPDEST DUP5 PUSH1 0x1 DUP6 PUSH2 0x3F3F SWAP2 SWAP1 PUSH2 0x532F JUMP JUMPDEST DUP2 MLOAD DUP2 LT PUSH2 0x3F50 JUMPI PUSH2 0x3F4F PUSH2 0x5363 JUMP JUMPDEST JUMPDEST PUSH1 0x20 MUL PUSH1 0x20 ADD ADD DUP2 DUP2 MSTORE POP POP POP POP DUP1 DUP1 PUSH2 0x3F69 SWAP1 PUSH2 0x5DD0 JUMP JUMPDEST SWAP2 POP POP PUSH2 0x3EB1 JUMP JUMPDEST POP SWAP4 SWAP3 POP POP POP JUMP JUMPDEST PUSH1 0x0 JUMPDEST PUSH1 0x1 DUP4 MLOAD PUSH2 0x3F8A SWAP2 SWAP1 PUSH2 0x532F JUMP JUMPDEST DUP2 LT ISZERO PUSH2 0x431E JUMPI PUSH1 0x0 DUP1 DUP5 DUP4 DUP2 MLOAD DUP2 LT PUSH2 0x3FA7 JUMPI PUSH2 0x3FA6 PUSH2 0x5363 JUMP JUMPDEST JUMPDEST PUSH1 0x20 MUL PUSH1 0x20 ADD ADD MLOAD DUP6 PUSH1 0x1 DUP6 PUSH2 0x3FBD SWAP2 SWAP1 PUSH2 0x5A52 JUMP JUMPDEST DUP2 MLOAD DUP2 LT PUSH2 0x3FCE JUMPI PUSH2 0x3FCD PUSH2 0x5363 JUMP JUMPDEST JUMPDEST PUSH1 0x20 MUL PUSH1 0x20 ADD ADD MLOAD SWAP2 POP SWAP2 POP PUSH1 0x0 PUSH2 0x3FE6 DUP4 DUP4 PUSH2 0x44C6 JUMP JUMPDEST POP SWAP1 POP PUSH1 0x0 PUSH2 0x4016 PUSH32 0x0 DUP6 DUP6 PUSH2 0x3915 JUMP JUMPDEST SWAP1 POP PUSH1 0x0 DUP1 PUSH1 0x0 DUP1 DUP5 PUSH20 0xFFFFFFFFFFFFFFFFFFFFFFFFFFFFFFFFFFFFFFFF AND PUSH4 0x902F1AC PUSH1 0x40 MLOAD DUP2 PUSH4 0xFFFFFFFF AND PUSH1 0xE0 SHL DUP2 MSTORE PUSH1 0x4 ADD PUSH1 0x60 PUSH1 0x40 MLOAD DUP1 DUP4 SUB DUP2 DUP7 GAS STATICCALL ISZERO DUP1 ISZERO PUSH2 0x4069 JUMPI RETURNDATASIZE PUSH1 0x0 DUP1 RETURNDATACOPY RETURNDATASIZE PUSH1 0x0 REVERT JUMPDEST POP POP POP POP PUSH1 0x40 MLOAD RETURNDATASIZE PUSH1 0x1F NOT PUSH1 0x1F DUP3 ADD AND DUP3 ADD DUP1 PUSH1 0x40 MSTORE POP DUP2 ADD SWAP1 PUSH2 0x408D SWAP2 SWAP1 PUSH2 0x5E7B JUMP JUMPDEST POP PUSH14 0xFFFFFFFFFFFFFFFFFFFFFFFFFFFF AND SWAP2 POP PUSH14 0xFFFFFFFFFFFFFFFFFFFFFFFFFFFF AND SWAP2 POP PUSH1 0x0 DUP1 DUP8 PUSH20 0xFFFFFFFFFFFFFFFFFFFFFFFFFFFFFFFFFFFFFFFF AND DUP11 PUSH20 0xFFFFFFFFFFFFFFFFFFFFFFFFFFFFFFFFFFFFFFFF AND EQ PUSH2 0x40EF JUMPI DUP3 DUP5 PUSH2 0x40F2 JUMP JUMPDEST DUP4 DUP4 JUMPDEST SWAP2 POP SWAP2 POP DUP2 DUP11 PUSH20 0xFFFFFFFFFFFFFFFFFFFFFFFFFFFFFFFFFFFFFFFF AND PUSH4 0x70A08231 DUP10 PUSH1 0x40 MLOAD DUP3 PUSH4 0xFFFFFFFF AND PUSH1 0xE0 SHL DUP2 MSTORE PUSH1 0x4 ADD PUSH2 0x4130 SWAP2 SWAP1 PUSH2 0x4F72 JUMP JUMPDEST PUSH1 0x20 PUSH1 0x40 MLOAD DUP1 DUP4 SUB DUP2 DUP7 GAS STATICCALL ISZERO DUP1 ISZERO PUSH2 0x414D JUMPI RETURNDATASIZE PUSH1 0x0 DUP1 RETURNDATACOPY RETURNDATASIZE PUSH1 0x0 REVERT JUMPDEST POP POP POP POP PUSH1 0x40 MLOAD RETURNDATASIZE PUSH1 0x1F NOT PUSH1 0x1F DUP3 ADD AND DUP3 ADD DUP1 PUSH1 0x40 MSTORE POP DUP2 ADD SWAP1 PUSH2 0x4171 SWAP2 SWAP1 PUSH2 0x55A5 JUMP JUMPDEST PUSH2 0x417B SWAP2 SWAP1 PUSH2 0x532F JUMP JUMPDEST SWAP6 POP PUSH2 0x4188 DUP7 DUP4 DUP4 PUSH2 0x36A0 JUMP JUMPDEST SWAP5 POP POP POP POP POP PUSH1 0x0 DUP1 DUP6 PUSH20 0xFFFFFFFFFFFFFFFFFFFFFFFFFFFFFFFFFFFFFFFF AND DUP9 PUSH20 0xFFFFFFFFFFFFFFFFFFFFFFFFFFFFFFFFFFFFFFFF AND EQ PUSH2 0x41CC JUMPI DUP3 PUSH1 0x0 PUSH2 0x41D0 JUMP JUMPDEST PUSH1 0x0 DUP4 JUMPDEST SWAP2 POP SWAP2 POP PUSH1 0x0 PUSH1 0x2 DUP13 MLOAD PUSH2 0x41E4 SWAP2 SWAP1 PUSH2 0x532F JUMP JUMPDEST DUP11 LT PUSH2 0x41F0 JUMPI DUP11 PUSH2 0x4242 JUMP JUMPDEST PUSH2 0x4241 PUSH32 0x0 DUP10 DUP15 PUSH1 0x2 DUP15 PUSH2 0x4223 SWAP2 SWAP1 PUSH2 0x5A52 JUMP JUMPDEST DUP2 MLOAD DUP2 LT PUSH2 0x4234 JUMPI PUSH2 0x4233 PUSH2 0x5363 JUMP JUMPDEST JUMPDEST PUSH1 0x20 MUL PUSH1 0x20 ADD ADD MLOAD PUSH2 0x3915 JUMP JUMPDEST JUMPDEST SWAP1 POP DUP6 PUSH20 0xFFFFFFFFFFFFFFFFFFFFFFFFFFFFFFFFFFFFFFFF AND PUSH4 0x22C0D9F DUP5 DUP5 DUP5 PUSH1 0x0 PUSH8 0xFFFFFFFFFFFFFFFF DUP2 GT ISZERO PUSH2 0x427E JUMPI PUSH2 0x427D PUSH2 0x4C2E JUMP JUMPDEST JUMPDEST PUSH1 0x40 MLOAD SWAP1 DUP1 DUP3 MSTORE DUP1 PUSH1 0x1F ADD PUSH1 0x1F NOT AND PUSH1 0x20 ADD DUP3 ADD PUSH1 0x40 MSTORE DUP1 ISZERO PUSH2 0x42B0 JUMPI DUP2 PUSH1 0x20 ADD PUSH1 0x1 DUP3 MUL DUP1 CALLDATASIZE DUP4 CALLDATACOPY DUP1 DUP3 ADD SWAP2 POP POP SWAP1 POP JUMPDEST POP PUSH1 0x40 MLOAD DUP6 PUSH4 0xFFFFFFFF AND PUSH1 0xE0 SHL DUP2 MSTORE PUSH1 0x4 ADD PUSH2 0x42D0 SWAP5 SWAP4 SWAP3 SWAP2 SWAP1 PUSH2 0x5D84 JUMP JUMPDEST PUSH1 0x0 PUSH1 0x40 MLOAD DUP1 DUP4 SUB DUP2 PUSH1 0x0 DUP8 DUP1 EXTCODESIZE ISZERO DUP1 ISZERO PUSH2 0x42EA JUMPI PUSH1 0x0 DUP1 REVERT JUMPDEST POP GAS CALL ISZERO DUP1 ISZERO PUSH2 0x42FE JUMPI RETURNDATASIZE PUSH1 0x0 DUP1 RETURNDATACOPY RETURNDATASIZE PUSH1 0x0 REVERT JUMPDEST POP POP POP POP POP POP POP POP POP POP POP POP POP DUP1 DUP1 PUSH2 0x4316 SWAP1 PUSH2 0x5AE6 JUMP JUMPDEST SWAP2 POP POP PUSH2 0x3F7C JUMP JUMPDEST POP POP POP JUMP JUMPDEST PUSH1 0x0 DUP1 DUP5 GT PUSH2 0x4367 JUMPI PUSH1 0x40 MLOAD PUSH32 0x8C379A000000000000000000000000000000000000000000000000000000000 DUP2 MSTORE PUSH1 0x4 ADD PUSH2 0x435E SWAP1 PUSH2 0x5477 JUMP JUMPDEST PUSH1 0x40 MLOAD DUP1 SWAP2 SUB SWAP1 REVERT JUMPDEST PUSH1 0x0 DUP4 GT DUP1 ISZERO PUSH2 0x4377 JUMPI POP PUSH1 0x0 DUP3 GT JUMPDEST PUSH2 0x43B6 JUMPI PUSH1 0x40 MLOAD PUSH32 0x8C379A000000000000000000000000000000000000000000000000000000000 DUP2 MSTORE PUSH1 0x4 ADD PUSH2 0x43AD SWAP1 PUSH2 0x59F0 JUMP JUMPDEST PUSH1 0x40 MLOAD DUP1 SWAP2 SUB SWAP1 REVERT JUMPDEST PUSH1 0x0 PUSH2 0x3E8 DUP6 DUP6 PUSH2 0x43C7 SWAP2 SWAP1 PUSH2 0x5A10 JUMP JUMPDEST PUSH2 0x43D1 SWAP2 SWAP1 PUSH2 0x5A10 JUMP JUMPDEST SWAP1 POP PUSH1 0x0 PUSH2 0x3E5 DUP7 DUP6 PUSH2 0x43E4 SWAP2 SWAP1 PUSH2 0x532F JUMP JUMPDEST PUSH2 0x43EE SWAP2 SWAP1 PUSH2 0x5A10 JUMP JUMPDEST SWAP1 POP PUSH1 0x1 DUP2 DUP4 PUSH2 0x43FE SWAP2 SWAP1 PUSH2 0x5AB5 JUMP JUMPDEST PUSH2 0x4408 SWAP2 SWAP1 PUSH2 0x5A52 JUMP JUMPDEST SWAP3 POP POP POP SWAP4 SWAP3 POP POP POP JUMP JUMPDEST PUSH1 0x0 DUP1 DUP5 GT PUSH2 0x4457 JUMPI PUSH1 0x40 MLOAD PUSH32 0x8C379A000000000000000000000000000000000000000000000000000000000 DUP2 MSTORE PUSH1 0x4 ADD PUSH2 0x444E SWAP1 PUSH2 0x5F1A JUMP JUMPDEST PUSH1 0x40 MLOAD DUP1 SWAP2 SUB SWAP1 REVERT JUMPDEST PUSH1 0x0 DUP4 GT DUP1 ISZERO PUSH2 0x4467 JUMPI POP PUSH1 0x0 DUP3 GT JUMPDEST PUSH2 0x44A6 JUMPI PUSH1 0x40 MLOAD PUSH32 0x8C379A000000000000000000000000000000000000000000000000000000000 DUP2 MSTORE PUSH1 0x4 ADD PUSH2 0x449D SWAP1 PUSH2 0x59F0 JUMP JUMPDEST PUSH1 0x40 MLOAD DUP1 SWAP2 SUB SWAP1 REVERT JUMPDEST DUP3 DUP3 DUP6 PUSH2 0x44B3 SWAP2 SWAP1 PUSH2 0x5A10 JUMP JUMPDEST PUSH2 0x44BD SWAP2 SWAP1 PUSH2 0x5AB5 JUMP JUMPDEST SWAP1 POP SWAP4 SWAP3 POP POP POP JUMP JUMPDEST PUSH1 0x0 DUP1 DUP3 PUSH20 0xFFFFFFFFFFFFFFFFFFFFFFFFFFFFFFFFFFFFFFFF AND DUP5 PUSH20 0xFFFFFFFFFFFFFFFFFFFFFFFFFFFFFFFFFFFFFFFF AND SUB PUSH2 0x4537 JUMPI PUSH1 0x40 MLOAD PUSH32 0x8C379A000000000000000000000000000000000000000000000000000000000 DUP2 MSTORE PUSH1 0x4 ADD PUSH2 0x452E SWAP1 PUSH2 0x5F86 JUMP JUMPDEST PUSH1 0x40 MLOAD DUP1 SWAP2 SUB SWAP1 REVERT JUMPDEST DUP3 PUSH20 0xFFFFFFFFFFFFFFFFFFFFFFFFFFFFFFFFFFFFFFFF AND DUP5 PUSH20 0xFFFFFFFFFFFFFFFFFFFFFFFFFFFFFFFFFFFFFFFF AND LT PUSH2 0x4571 JUMPI DUP3 DUP5 PUSH2 0x4574 JUMP JUMPDEST DUP4 DUP4 JUMPDEST DUP1 SWAP3 POP DUP2 SWAP4 POP POP POP PUSH1 0x0 PUSH20 0xFFFFFFFFFFFFFFFFFFFFFFFFFFFFFFFFFFFFFFFF AND DUP3 PUSH20 0xFFFFFFFFFFFFFFFFFFFFFFFFFFFFFFFFFFFFFFFF AND SUB PUSH2 0x45EB JUMPI PUSH1 0x40 MLOAD PUSH32 0x8C379A000000000000000000000000000000000000000000000000000000000 DUP2 MSTORE PUSH1 0x4 ADD PUSH2 0x45E2 SWAP1 PUSH2 0x5FF2 JUMP JUMPDEST PUSH1 0x40 MLOAD DUP1 SWAP2 SUB SWAP1 REVERT JUMPDEST SWAP3 POP SWAP3 SWAP1 POP JUMP JUMPDEST PUSH1 0x0 DUP1 PUSH1 0x0 DUP1 PUSH2 0x4623 PUSH32 0x0 DUP12 DUP12 PUSH2 0x4731 JUMP JUMPDEST SWAP2 POP SWAP2 POP PUSH1 0x0 DUP3 EQ DUP1 ISZERO PUSH2 0x4637 JUMPI POP PUSH1 0x0 DUP2 EQ JUMPDEST ISZERO PUSH2 0x464B JUMPI DUP8 DUP8 DUP1 SWAP5 POP DUP2 SWAP6 POP POP POP PUSH2 0x4724 JUMP JUMPDEST PUSH1 0x0 PUSH2 0x4658 DUP10 DUP5 DUP5 PUSH2 0x4413 JUMP JUMPDEST SWAP1 POP DUP8 DUP2 GT PUSH2 0x46B3 JUMPI DUP6 DUP2 LT ISZERO PUSH2 0x46A4 JUMPI PUSH1 0x40 MLOAD PUSH32 0x8C379A000000000000000000000000000000000000000000000000000000000 DUP2 MSTORE PUSH1 0x4 ADD PUSH2 0x469B SWAP1 PUSH2 0x576C JUMP JUMPDEST PUSH1 0x40 MLOAD DUP1 SWAP2 SUB SWAP1 REVERT JUMPDEST DUP9 DUP2 DUP1 SWAP6 POP DUP2 SWAP7 POP POP POP PUSH2 0x4722 JUMP JUMPDEST PUSH1 0x0 PUSH2 0x46C0 DUP10 DUP5 DUP7 PUSH2 0x4413 JUMP JUMPDEST SWAP1 POP DUP10 DUP2 GT ISZERO PUSH2 0x46D3 JUMPI PUSH2 0x46D2 PUSH2 0x4834 JUMP JUMPDEST JUMPDEST DUP8 DUP2 LT ISZERO PUSH2 0x4716 JUMPI PUSH1 0x40 MLOAD PUSH32 0x8C379A000000000000000000000000000000000000000000000000000000000 DUP2 MSTORE PUSH1 0x4 ADD PUSH2 0x470D SWAP1 PUSH2 0x5700 JUMP JUMPDEST PUSH1 0x40 MLOAD DUP1 SWAP2 SUB SWAP1 REVERT JUMPDEST DUP1 DUP10 DUP1 SWAP7 POP DUP2 SWAP8 POP POP POP POP JUMPDEST POP JUMPDEST POP POP SWAP7 POP SWAP7 SWAP5 POP POP POP POP POP JUMP JUMPDEST PUSH1 0x0 DUP1 PUSH1 0x0 PUSH2 0x4740 DUP6 DUP6 PUSH2 0x44C6 JUMP JUMPDEST POP SWAP1 POP PUSH1 0x0 DUP1 PUSH2 0x4751 DUP9 DUP9 DUP9 PUSH2 0x3915 JUMP JUMPDEST PUSH20 0xFFFFFFFFFFFFFFFFFFFFFFFFFFFFFFFFFFFFFFFF AND PUSH4 0x902F1AC PUSH1 0x40 MLOAD DUP2 PUSH4 0xFFFFFFFF AND PUSH1 0xE0 SHL DUP2 MSTORE PUSH1 0x4 ADD PUSH1 0x60 PUSH1 0x40 MLOAD DUP1 DUP4 SUB DUP2 DUP7 GAS STATICCALL ISZERO DUP1 ISZERO PUSH2 0x479B JUMPI RETURNDATASIZE PUSH1 0x0 DUP1 RETURNDATACOPY RETURNDATASIZE PUSH1 0x0 REVERT JUMPDEST POP POP POP POP PUSH1 0x40 MLOAD RETURNDATASIZE PUSH1 0x1F NOT PUSH1 0x1F DUP3 ADD AND DUP3 ADD DUP1 PUSH1 0x40 MSTORE POP DUP2 ADD SWAP1 PUSH2 0x47BF SWAP2 SWAP1 PUSH2 0x5E7B JUMP JUMPDEST POP PUSH14 0xFFFFFFFFFFFFFFFFFFFFFFFFFFFF AND SWAP2 POP PUSH14 0xFFFFFFFFFFFFFFFFFFFFFFFFFFFF AND SWAP2 POP DUP3 PUSH20 0xFFFFFFFFFFFFFFFFFFFFFFFFFFFFFFFFFFFFFFFF AND DUP8 PUSH20 0xFFFFFFFFFFFFFFFFFFFFFFFFFFFFFFFFFFFFFFFF AND EQ PUSH2 0x481E JUMPI DUP1 DUP3 PUSH2 0x4821 JUMP JUMPDEST DUP2 DUP2 JUMPDEST DUP1 SWAP6 POP DUP2 SWAP7 POP POP POP POP POP POP SWAP4 POP SWAP4 SWAP2 POP POP JUMP JUMPDEST PUSH32 0x4E487B7100000000000000000000000000000000000000000000000000000000 PUSH1 0x0 MSTORE PUSH1 0x1 PUSH1 0x4 MSTORE PUSH1 0x24 PUSH1 0x0 REVERT JUMPDEST PUSH1 0x0 PUSH1 0x40 MLOAD SWAP1 POP SWAP1 JUMP JUMPDEST PUSH1 0x0 DUP1 REVERT JUMPDEST PUSH1 0x0 DUP1 REVERT JUMPDEST PUSH1 0x0 PUSH20 0xFFFFFFFFFFFFFFFFFFFFFFFFFFFFFFFFFFFFFFFF DUP3 AND SWAP1 POP SWAP2 SWAP1 POP JUMP JUMPDEST PUSH1 0x0 PUSH2 0x48A2 DUP3 PUSH2 0x4877 JUMP JUMPDEST SWAP1 POP SWAP2 SWAP1 POP JUMP JUMPDEST PUSH2 0x48B2 DUP2 PUSH2 0x4897 JUMP JUMPDEST DUP2 EQ PUSH2 0x48BD JUMPI PUSH1 0x0 DUP1 REVERT JUMPDEST POP JUMP JUMPDEST PUSH1 0x0 DUP2 CALLDATALOAD SWAP1 POP PUSH2 0x48CF DUP2 PUSH2 0x48A9 JUMP JUMPDEST SWAP3 SWAP2 POP POP JUMP JUMPDEST PUSH1 0x0 DUP2 SWAP1 POP SWAP2 SWAP1 POP JUMP JUMPDEST PUSH2 0x48E8 DUP2 PUSH2 0x48D5 JUMP JUMPDEST DUP2 EQ PUSH2 0x48F3 JUMPI PUSH1 0x0 DUP1 REVERT JUMPDEST POP JUMP JUMPDEST PUSH1 0x0 DUP2 CALLDATALOAD SWAP1 POP PUSH2 0x4905 DUP2 PUSH2 0x48DF JUMP JUMPDEST SWAP3 SWAP2 POP POP JUMP JUMPDEST PUSH1 0x0 DUP1 PUSH1 0x0 DUP1 PUSH1 0x0 DUP1 PUSH1 0xC0 DUP8 DUP10 SUB SLT ISZERO PUSH2 0x4928 JUMPI PUSH2 0x4927 PUSH2 0x486D JUMP JUMPDEST JUMPDEST PUSH1 0x0 PUSH2 0x4936 DUP10 DUP3 DUP11 ADD PUSH2 0x48C0 JUMP JUMPDEST SWAP7 POP POP PUSH1 0x20 PUSH2 0x4947 DUP10 DUP3 DUP11 ADD PUSH2 0x48F6 JUMP JUMPDEST SWAP6 POP POP PUSH1 0x40 PUSH2 0x4958 DUP10 DUP3 DUP11 ADD PUSH2 0x48F6 JUMP JUMPDEST SWAP5 POP POP PUSH1 0x60 PUSH2 0x4969 DUP10 DUP3 DUP11 ADD PUSH2 0x48F6 JUMP JUMPDEST SWAP4 POP POP PUSH1 0x80 PUSH2 0x497A DUP10 DUP3 DUP11 ADD PUSH2 0x48C0 JUMP JUMPDEST SWAP3 POP POP PUSH1 0xA0 PUSH2 0x498B DUP10 DUP3 DUP11 ADD PUSH2 0x48F6 JUMP JUMPDEST SWAP2 POP POP SWAP3 SWAP6 POP SWAP3 SWAP6 POP SWAP3 SWAP6 JUMP JUMPDEST PUSH2 0x49A1 DUP2 PUSH2 0x48D5 JUMP JUMPDEST DUP3 MSTORE POP POP JUMP JUMPDEST PUSH1 0x0 PUSH1 0x40 DUP3 ADD SWAP1 POP PUSH2 0x49BC PUSH1 0x0 DUP4 ADD DUP6 PUSH2 0x4998 JUMP JUMPDEST PUSH2 0x49C9 PUSH1 0x20 DUP4 ADD DUP5 PUSH2 0x4998 JUMP JUMPDEST SWAP4 SWAP3 POP POP POP JUMP JUMPDEST PUSH1 0x0 DUP1 PUSH1 0x0 PUSH1 0x60 DUP5 DUP7 SUB SLT ISZERO PUSH2 0x49E9 JUMPI PUSH2 0x49E8 PUSH2 0x486D JUMP JUMPDEST JUMPDEST PUSH1 0x0 PUSH2 0x49F7 DUP7 DUP3 DUP8 ADD PUSH2 0x48F6 JUMP JUMPDEST SWAP4 POP POP PUSH1 0x20 PUSH2 0x4A08 DUP7 DUP3 DUP8 ADD PUSH2 0x48F6 JUMP JUMPDEST SWAP3 POP POP PUSH1 0x40 PUSH2 0x4A19 DUP7 DUP3 DUP8 ADD PUSH2 0x48F6 JUMP JUMPDEST SWAP2 POP POP SWAP3 POP SWAP3 POP SWAP3 JUMP JUMPDEST PUSH1 0x0 PUSH1 0x20 DUP3 ADD SWAP1 POP PUSH2 0x4A38 PUSH1 0x0 DUP4 ADD DUP5 PUSH2 0x4998 JUMP JUMPDEST SWAP3 SWAP2 POP POP JUMP JUMPDEST PUSH1 0x0 DUP1 REVERT JUMPDEST PUSH1 0x0 DUP1 REVERT JUMPDEST PUSH1 0x0 DUP1 REVERT JUMPDEST PUSH1 0x0 DUP1 DUP4 PUSH1 0x1F DUP5 ADD SLT PUSH2 0x4A63 JUMPI PUSH2 0x4A62 PUSH2 0x4A3E JUMP JUMPDEST JUMPDEST DUP3 CALLDATALOAD SWAP1 POP PUSH8 0xFFFFFFFFFFFFFFFF DUP2 GT ISZERO PUSH2 0x4A80 JUMPI PUSH2 0x4A7F PUSH2 0x4A43 JUMP JUMPDEST JUMPDEST PUSH1 0x20 DUP4 ADD SWAP2 POP DUP4 PUSH1 0x20 DUP3 MUL DUP4 ADD GT ISZERO PUSH2 0x4A9C JUMPI PUSH2 0x4A9B PUSH2 0x4A48 JUMP JUMPDEST JUMPDEST SWAP3 POP SWAP3 SWAP1 POP JUMP JUMPDEST PUSH1 0x0 DUP1 PUSH1 0x0 DUP1 PUSH1 0x0 DUP1 PUSH1 0xA0 DUP8 DUP10 SUB SLT ISZERO PUSH2 0x4AC0 JUMPI PUSH2 0x4ABF PUSH2 0x486D JUMP JUMPDEST JUMPDEST PUSH1 0x0 PUSH2 0x4ACE DUP10 DUP3 DUP11 ADD PUSH2 0x48F6 JUMP JUMPDEST SWAP7 POP POP PUSH1 0x20 PUSH2 0x4ADF DUP10 DUP3 DUP11 ADD PUSH2 0x48F6 JUMP JUMPDEST SWAP6 POP POP PUSH1 0x40 DUP8 ADD CALLDATALOAD PUSH8 0xFFFFFFFFFFFFFFFF DUP2 GT ISZERO PUSH2 0x4B00 JUMPI PUSH2 0x4AFF PUSH2 0x4872 JUMP JUMPDEST JUMPDEST PUSH2 0x4B0C DUP10 DUP3 DUP11 ADD PUSH2 0x4A4D JUMP JUMPDEST SWAP5 POP SWAP5 POP POP PUSH1 0x60 PUSH2 0x4B1F DUP10 DUP3 DUP11 ADD PUSH2 0x48C0 JUMP JUMPDEST SWAP3 POP POP PUSH1 0x80 PUSH2 0x4B30 DUP10 DUP3 DUP11 ADD PUSH2 0x48F6 JUMP JUMPDEST SWAP2 POP POP SWAP3 SWAP6 POP SWAP3 SWAP6 POP SWAP3 SWAP6 JUMP JUMPDEST PUSH1 0x0 DUP2 MLOAD SWAP1 POP SWAP2 SWAP1 POP JUMP JUMPDEST PUSH1 0x0 DUP3 DUP3 MSTORE PUSH1 0x20 DUP3 ADD SWAP1 POP SWAP3 SWAP2 POP POP JUMP JUMPDEST PUSH1 0x0 DUP2 SWAP1 POP PUSH1 0x20 DUP3 ADD SWAP1 POP SWAP2 SWAP1 POP JUMP JUMPDEST PUSH2 0x4B72 DUP2 PUSH2 0x48D5 JUMP JUMPDEST DUP3 MSTORE POP POP JUMP JUMPDEST PUSH1 0x0 PUSH2 0x4B84 DUP4 DUP4 PUSH2 0x4B69 JUMP JUMPDEST PUSH1 0x20 DUP4 ADD SWAP1 POP SWAP3 SWAP2 POP POP JUMP JUMPDEST PUSH1 0x0 PUSH1 0x20 DUP3 ADD SWAP1 POP SWAP2 SWAP1 POP JUMP JUMPDEST PUSH1 0x0 PUSH2 0x4BA8 DUP3 PUSH2 0x4B3D JUMP JUMPDEST PUSH2 0x4BB2 DUP2 DUP6 PUSH2 0x4B48 JUMP JUMPDEST SWAP4 POP PUSH2 0x4BBD DUP4 PUSH2 0x4B59 JUMP JUMPDEST DUP1 PUSH1 0x0 JUMPDEST DUP4 DUP2 LT ISZERO PUSH2 0x4BEE JUMPI DUP2 MLOAD PUSH2 0x4BD5 DUP9 DUP3 PUSH2 0x4B78 JUMP JUMPDEST SWAP8 POP PUSH2 0x4BE0 DUP4 PUSH2 0x4B90 JUMP JUMPDEST SWAP3 POP POP PUSH1 0x1 DUP2 ADD SWAP1 POP PUSH2 0x4BC1 JUMP JUMPDEST POP DUP6 SWAP4 POP POP POP POP SWAP3 SWAP2 POP POP JUMP JUMPDEST PUSH1 0x0 PUSH1 0x20 DUP3 ADD SWAP1 POP DUP2 DUP2 SUB PUSH1 0x0 DUP4 ADD MSTORE PUSH2 0x4C15 DUP2 DUP5 PUSH2 0x4B9D JUMP JUMPDEST SWAP1 POP SWAP3 SWAP2 POP POP JUMP JUMPDEST PUSH1 0x0 PUSH1 0x1F NOT PUSH1 0x1F DUP4 ADD AND SWAP1 POP SWAP2 SWAP1 POP JUMP JUMPDEST PUSH32 0x4E487B7100000000000000000000000000000000000000000000000000000000 PUSH1 0x0 MSTORE PUSH1 0x41 PUSH1 0x4 MSTORE PUSH1 0x24 PUSH1 0x0 REVERT JUMPDEST PUSH2 0x4C66 DUP3 PUSH2 0x4C1D JUMP JUMPDEST DUP2 ADD DUP2 DUP2 LT PUSH8 0xFFFFFFFFFFFFFFFF DUP3 GT OR ISZERO PUSH2 0x4C85 JUMPI PUSH2 0x4C84 PUSH2 0x4C2E JUMP JUMPDEST JUMPDEST DUP1 PUSH1 0x40 MSTORE POP POP POP JUMP JUMPDEST PUSH1 0x0 PUSH2 0x4C98 PUSH2 0x4863 JUMP JUMPDEST SWAP1 POP PUSH2 0x4CA4 DUP3 DUP3 PUSH2 0x4C5D JUMP JUMPDEST SWAP2 SWAP1 POP JUMP JUMPDEST PUSH1 0x0 PUSH8 0xFFFFFFFFFFFFFFFF DUP3 GT ISZERO PUSH2 0x4CC4 JUMPI PUSH2 0x4CC3 PUSH2 0x4C2E JUMP JUMPDEST JUMPDEST PUSH1 0x20 DUP3 MUL SWAP1 POP PUSH1 0x20 DUP2 ADD SWAP1 POP SWAP2 SWAP1 POP JUMP JUMPDEST PUSH1 0x0 PUSH2 0x4CE8 PUSH2 0x4CE3 DUP5 PUSH2 0x4CA9 JUMP JUMPDEST PUSH2 0x4C8E JUMP JUMPDEST SWAP1 POP DUP1 DUP4 DUP3 MSTORE PUSH1 0x20 DUP3 ADD SWAP1 POP PUSH1 0x20 DUP5 MUL DUP4 ADD DUP6 DUP2 GT ISZERO PUSH2 0x4D0B JUMPI PUSH2 0x4D0A PUSH2 0x4A48 JUMP JUMPDEST JUMPDEST DUP4 JUMPDEST DUP2 DUP2 LT ISZERO PUSH2 0x4D34 JUMPI DUP1 PUSH2 0x4D20 DUP9 DUP3 PUSH2 0x48C0 JUMP JUMPDEST DUP5 MSTORE PUSH1 0x20 DUP5 ADD SWAP4 POP POP PUSH1 0x20 DUP2 ADD SWAP1 POP PUSH2 0x4D0D JUMP JUMPDEST POP POP POP SWAP4 SWAP3 POP POP POP JUMP JUMPDEST PUSH1 0x0 DUP3 PUSH1 0x1F DUP4 ADD SLT PUSH2 0x4D53 JUMPI PUSH2 0x4D52 PUSH2 0x4A3E JUMP JUMPDEST JUMPDEST DUP2 CALLDATALOAD PUSH2 0x4D63 DUP5 DUP3 PUSH1 0x20 DUP7 ADD PUSH2 0x4CD5 JUMP JUMPDEST SWAP2 POP POP SWAP3 SWAP2 POP POP JUMP JUMPDEST PUSH1 0x0 DUP1 PUSH1 0x40 DUP4 DUP6 SUB SLT ISZERO PUSH2 0x4D83 JUMPI PUSH2 0x4D82 PUSH2 0x486D JUMP JUMPDEST JUMPDEST PUSH1 0x0 PUSH2 0x4D91 DUP6 DUP3 DUP7 ADD PUSH2 0x48F6 JUMP JUMPDEST SWAP3 POP POP PUSH1 0x20 DUP4 ADD CALLDATALOAD PUSH8 0xFFFFFFFFFFFFFFFF DUP2 GT ISZERO PUSH2 0x4DB2 JUMPI PUSH2 0x4DB1 PUSH2 0x4872 JUMP JUMPDEST JUMPDEST PUSH2 0x4DBE DUP6 DUP3 DUP7 ADD PUSH2 0x4D3E JUMP JUMPDEST SWAP2 POP POP SWAP3 POP SWAP3 SWAP1 POP JUMP JUMPDEST PUSH1 0x0 DUP2 ISZERO ISZERO SWAP1 POP SWAP2 SWAP1 POP JUMP JUMPDEST PUSH2 0x4DDD DUP2 PUSH2 0x4DC8 JUMP JUMPDEST DUP2 EQ PUSH2 0x4DE8 JUMPI PUSH1 0x0 DUP1 REVERT JUMPDEST POP JUMP JUMPDEST PUSH1 0x0 DUP2 CALLDATALOAD SWAP1 POP PUSH2 0x4DFA DUP2 PUSH2 0x4DD4 JUMP JUMPDEST SWAP3 SWAP2 POP POP JUMP JUMPDEST PUSH1 0x0 PUSH1 0xFF DUP3 AND SWAP1 POP SWAP2 SWAP1 POP JUMP JUMPDEST PUSH2 0x4E16 DUP2 PUSH2 0x4E00 JUMP JUMPDEST DUP2 EQ PUSH2 0x4E21 JUMPI PUSH1 0x0 DUP1 REVERT JUMPDEST POP JUMP JUMPDEST PUSH1 0x0 DUP2 CALLDATALOAD SWAP1 POP PUSH2 0x4E33 DUP2 PUSH2 0x4E0D JUMP JUMPDEST SWAP3 SWAP2 POP POP JUMP JUMPDEST PUSH1 0x0 DUP2 SWAP1 POP SWAP2 SWAP1 POP JUMP JUMPDEST PUSH2 0x4E4C DUP2 PUSH2 0x4E39 JUMP JUMPDEST DUP2 EQ PUSH2 0x4E57 JUMPI PUSH1 0x0 DUP1 REVERT JUMPDEST POP JUMP JUMPDEST PUSH1 0x0 DUP2 CALLDATALOAD SWAP1 POP PUSH2 0x4E69 DUP2 PUSH2 0x4E43 JUMP JUMPDEST SWAP3 SWAP2 POP POP JUMP JUMPDEST PUSH1 0x0 DUP1 PUSH1 0x0 DUP1 PUSH1 0x0 DUP1 PUSH1 0x0 DUP1 PUSH1 0x0 DUP1 PUSH1 0x0 PUSH2 0x160 DUP13 DUP15 SUB SLT ISZERO PUSH2 0x4E95 JUMPI PUSH2 0x4E94 PUSH2 0x486D JUMP JUMPDEST JUMPDEST PUSH1 0x0 PUSH2 0x4EA3 DUP15 DUP3 DUP16 ADD PUSH2 0x48C0 JUMP JUMPDEST SWAP12 POP POP PUSH1 0x20 PUSH2 0x4EB4 DUP15 DUP3 DUP16 ADD PUSH2 0x48C0 JUMP JUMPDEST SWAP11 POP POP PUSH1 0x40 PUSH2 0x4EC5 DUP15 DUP3 DUP16 ADD PUSH2 0x48F6 JUMP JUMPDEST SWAP10 POP POP PUSH1 0x60 PUSH2 0x4ED6 DUP15 DUP3 DUP16 ADD PUSH2 0x48F6 JUMP JUMPDEST SWAP9 POP POP PUSH1 0x80 PUSH2 0x4EE7 DUP15 DUP3 DUP16 ADD PUSH2 0x48F6 JUMP JUMPDEST SWAP8 POP POP PUSH1 0xA0 PUSH2 0x4EF8 DUP15 DUP3 DUP16 ADD PUSH2 0x48C0 JUMP JUMPDEST SWAP7 POP POP PUSH1 0xC0 PUSH2 0x4F09 DUP15 DUP3 DUP16 ADD PUSH2 0x48F6 JUMP JUMPDEST SWAP6 POP POP PUSH1 0xE0 PUSH2 0x4F1A DUP15 DUP3 DUP16 ADD PUSH2 0x4DEB JUMP JUMPDEST SWAP5 POP POP PUSH2 0x100 PUSH2 0x4F2C DUP15 DUP3 DUP16 ADD PUSH2 0x4E24 JUMP JUMPDEST SWAP4 POP POP PUSH2 0x120 PUSH2 0x4F3E DUP15 DUP3 DUP16 ADD PUSH2 0x4E5A JUMP JUMPDEST SWAP3 POP POP PUSH2 0x140 PUSH2 0x4F50 DUP15 DUP3 DUP16 ADD PUSH2 0x4E5A JUMP JUMPDEST SWAP2 POP POP SWAP3 SWAP6 SWAP9 SWAP12 POP SWAP3 SWAP6 SWAP9 SWAP12 SWAP1 SWAP4 SWAP7 SWAP10 POP JUMP JUMPDEST PUSH2 0x4F6C DUP2 PUSH2 0x4897 JUMP JUMPDEST DUP3 MSTORE POP POP JUMP JUMPDEST PUSH1 0x0 PUSH1 0x20 DUP3 ADD SWAP1 POP PUSH2 0x4F87 PUSH1 0x0 DUP4 ADD DUP5 PUSH2 0x4F63 JUMP JUMPDEST SWAP3 SWAP2 POP POP JUMP JUMPDEST PUSH1 0x0 DUP1 PUSH1 0x0 DUP1 PUSH1 0x0 DUP1 PUSH1 0x0 DUP1 PUSH1 0x0 DUP1 PUSH2 0x140 DUP12 DUP14 SUB SLT ISZERO PUSH2 0x4FB1 JUMPI PUSH2 0x4FB0 PUSH2 0x486D JUMP JUMPDEST JUMPDEST PUSH1 0x0 PUSH2 0x4FBF DUP14 DUP3 DUP15 ADD PUSH2 0x48C0 JUMP JUMPDEST SWAP11 POP POP PUSH1 0x20 PUSH2 0x4FD0 DUP14 DUP3 DUP15 ADD PUSH2 0x48F6 JUMP JUMPDEST SWAP10 POP POP PUSH1 0x40 PUSH2 0x4FE1 DUP14 DUP3 DUP15 ADD PUSH2 0x48F6 JUMP JUMPDEST SWAP9 POP POP PUSH1 0x60 PUSH2 0x4FF2 DUP14 DUP3 DUP15 ADD PUSH2 0x48F6 JUMP JUMPDEST SWAP8 POP POP PUSH1 0x80 PUSH2 0x5003 DUP14 DUP3 DUP15 ADD PUSH2 0x48C0 JUMP JUMPDEST SWAP7 POP POP PUSH1 0xA0 PUSH2 0x5014 DUP14 DUP3 DUP15 ADD PUSH2 0x48F6 JUMP JUMPDEST SWAP6 POP POP PUSH1 0xC0 PUSH2 0x5025 DUP14 DUP3 DUP15 ADD PUSH2 0x4DEB JUMP JUMPDEST SWAP5 POP POP PUSH1 0xE0 PUSH2 0x5036 DUP14 DUP3 DUP15 ADD PUSH2 0x4E24 JUMP JUMPDEST SWAP4 POP POP PUSH2 0x100 PUSH2 0x5048 DUP14 DUP3 DUP15 ADD PUSH2 0x4E5A JUMP JUMPDEST SWAP3 POP POP PUSH2 0x120 PUSH2 0x505A DUP14 DUP3 DUP15 ADD PUSH2 0x4E5A JUMP JUMPDEST SWAP2 POP POP SWAP3 SWAP6 SWAP9 SWAP12 SWAP2 SWAP5 SWAP8 SWAP11 POP SWAP3 SWAP6 SWAP9 POP JUMP JUMPDEST PUSH1 0x0 DUP1 PUSH1 0x0 DUP1 PUSH1 0x0 PUSH1 0x80 DUP7 DUP9 SUB SLT ISZERO PUSH2 0x5088 JUMPI PUSH2 0x5087 PUSH2 0x486D JUMP JUMPDEST JUMPDEST PUSH1 0x0 PUSH2 0x5096 DUP9 DUP3 DUP10 ADD PUSH2 0x48F6 JUMP JUMPDEST SWAP6 POP POP PUSH1 0x20 DUP7 ADD CALLDATALOAD PUSH8 0xFFFFFFFFFFFFFFFF DUP2 GT ISZERO PUSH2 0x50B7 JUMPI PUSH2 0x50B6 PUSH2 0x4872 JUMP JUMPDEST JUMPDEST PUSH2 0x50C3 DUP9 DUP3 DUP10 ADD PUSH2 0x4A4D JUMP JUMPDEST SWAP5 POP SWAP5 POP POP PUSH1 0x40 PUSH2 0x50D6 DUP9 DUP3 DUP10 ADD PUSH2 0x48C0 JUMP JUMPDEST SWAP3 POP POP PUSH1 0x60 PUSH2 0x50E7 DUP9 DUP3 DUP10 ADD PUSH2 0x48F6 JUMP JUMPDEST SWAP2 POP POP SWAP3 SWAP6 POP SWAP3 SWAP6 SWAP1 SWAP4 POP JUMP JUMPDEST PUSH1 0x0 DUP1 PUSH1 0x0 DUP1 PUSH1 0x0 DUP1 PUSH1 0x0 PUSH1 0xE0 DUP9 DUP11 SUB SLT ISZERO PUSH2 0x5113 JUMPI PUSH2 0x5112 PUSH2 0x486D JUMP JUMPDEST JUMPDEST PUSH1 0x0 PUSH2 0x5121 DUP11 DUP3 DUP12 ADD PUSH2 0x48C0 JUMP JUMPDEST SWAP8 POP POP PUSH1 0x20 PUSH2 0x5132 DUP11 DUP3 DUP12 ADD PUSH2 0x48C0 JUMP JUMPDEST SWAP7 POP POP PUSH1 0x40 PUSH2 0x5143 DUP11 DUP3 DUP12 ADD PUSH2 0x48F6 JUMP JUMPDEST SWAP6 POP POP PUSH1 0x60 PUSH2 0x5154 DUP11 DUP3 DUP12 ADD PUSH2 0x48F6 JUMP JUMPDEST SWAP5 POP POP PUSH1 0x80 PUSH2 0x5165 DUP11 DUP3 DUP12 ADD PUSH2 0x48F6 JUMP JUMPDEST SWAP4 POP POP PUSH1 0xA0 PUSH2 0x5176 DUP11 DUP3 DUP12 ADD PUSH2 0x48C0 JUMP JUMPDEST SWAP3 POP POP PUSH1 0xC0 PUSH2 0x5187 DUP11 DUP3 DUP12 ADD PUSH2 0x48F6 JUMP JUMPDEST SWAP2 POP POP SWAP3 SWAP6 SWAP9 SWAP2 SWAP5 SWAP8 POP SWAP3 SWAP6 POP JUMP JUMPDEST PUSH1 0x0 DUP1 PUSH1 0x0 DUP1 PUSH1 0x0 DUP1 PUSH1 0x0 DUP1 PUSH2 0x100 DUP10 DUP12 SUB SLT ISZERO PUSH2 0x51B7 JUMPI PUSH2 0x51B6 PUSH2 0x486D JUMP JUMPDEST JUMPDEST PUSH1 0x0 PUSH2 0x51C5 DUP12 DUP3 DUP13 ADD PUSH2 0x48C0 JUMP JUMPDEST SWAP9 POP POP PUSH1 0x20 PUSH2 0x51D6 DUP12 DUP3 DUP13 ADD PUSH2 0x48C0 JUMP JUMPDEST SWAP8 POP POP PUSH1 0x40 PUSH2 0x51E7 DUP12 DUP3 DUP13 ADD PUSH2 0x48F6 JUMP JUMPDEST SWAP7 POP POP PUSH1 0x60 PUSH2 0x51F8 DUP12 DUP3 DUP13 ADD PUSH2 0x48F6 JUMP JUMPDEST SWAP6 POP POP PUSH1 0x80 PUSH2 0x5209 DUP12 DUP3 DUP13 ADD PUSH2 0x48F6 JUMP JUMPDEST SWAP5 POP POP PUSH1 0xA0 PUSH2 0x521A DUP12 DUP3 DUP13 ADD PUSH2 0x48F6 JUMP JUMPDEST SWAP4 POP POP PUSH1 0xC0 PUSH2 0x522B DUP12 DUP3 DUP13 ADD PUSH2 0x48C0 JUMP JUMPDEST SWAP3 POP POP PUSH1 0xE0 PUSH2 0x523C DUP12 DUP3 DUP13 ADD PUSH2 0x48F6 JUMP JUMPDEST SWAP2 POP POP SWAP3 SWAP6 SWAP9 POP SWAP3 SWAP6 SWAP9 SWAP1 SWAP4 SWAP7 POP JUMP JUMPDEST PUSH1 0x0 PUSH1 0x60 DUP3 ADD SWAP1 POP PUSH2 0x5261 PUSH1 0x0 DUP4 ADD DUP7 PUSH2 0x4998 JUMP JUMPDEST PUSH2 0x526E PUSH1 0x20 DUP4 ADD DUP6 PUSH2 0x4998 JUMP JUMPDEST PUSH2 0x527B PUSH1 0x40 DUP4 ADD DUP5 PUSH2 0x4998 JUMP JUMPDEST SWAP5 SWAP4 POP POP POP POP JUMP JUMPDEST PUSH1 0x0 DUP3 DUP3 MSTORE PUSH1 0x20 DUP3 ADD SWAP1 POP SWAP3 SWAP2 POP POP JUMP JUMPDEST PUSH32 0x4558504952454400000000000000000000000000000000000000000000000000 PUSH1 0x0 DUP3 ADD MSTORE POP JUMP JUMPDEST PUSH1 0x0 PUSH2 0x52CA PUSH1 0x7 DUP4 PUSH2 0x5283 JUMP JUMPDEST SWAP2 POP PUSH2 0x52D5 DUP3 PUSH2 0x5294 JUMP JUMPDEST PUSH1 0x20 DUP3 ADD SWAP1 POP SWAP2 SWAP1 POP JUMP JUMPDEST PUSH1 0x0 PUSH1 0x20 DUP3 ADD SWAP1 POP DUP2 DUP2 SUB PUSH1 0x0 DUP4 ADD MSTORE PUSH2 0x52F9 DUP2 PUSH2 0x52BD JUMP JUMPDEST SWAP1 POP SWAP2 SWAP1 POP JUMP JUMPDEST PUSH32 0x4E487B7100000000000000000000000000000000000000000000000000000000 PUSH1 0x0 MSTORE PUSH1 0x11 PUSH1 0x4 MSTORE PUSH1 0x24 PUSH1 0x0 REVERT JUMPDEST PUSH1 0x0 PUSH2 0x533A DUP3 PUSH2 0x48D5 JUMP JUMPDEST SWAP2 POP PUSH2 0x5345 DUP4 PUSH2 0x48D5 JUMP JUMPDEST SWAP3 POP DUP3 DUP3 SUB SWAP1 POP DUP2 DUP2 GT ISZERO PUSH2 0x535D JUMPI PUSH2 0x535C PUSH2 0x5300 JUMP JUMPDEST JUMPDEST SWAP3 SWAP2 POP POP JUMP JUMPDEST PUSH32 0x4E487B7100000000000000000000000000000000000000000000000000000000 PUSH1 0x0 MSTORE PUSH1 0x32 PUSH1 0x4 MSTORE PUSH1 0x24 PUSH1 0x0 REVERT JUMPDEST PUSH1 0x0 PUSH1 0x20 DUP3 DUP5 SUB SLT ISZERO PUSH2 0x53A8 JUMPI PUSH2 0x53A7 PUSH2 0x486D JUMP JUMPDEST JUMPDEST PUSH1 0x0 PUSH2 0x53B6 DUP5 DUP3 DUP6 ADD PUSH2 0x48C0 JUMP JUMPDEST SWAP2 POP POP SWAP3 SWAP2 POP POP JUMP JUMPDEST PUSH32 0x494E56414C49445F504154480000000000000000000000000000000000000000 PUSH1 0x0 DUP3 ADD MSTORE POP JUMP JUMPDEST PUSH1 0x0 PUSH2 0x53F5 PUSH1 0xC DUP4 PUSH2 0x5283 JUMP JUMPDEST SWAP2 POP PUSH2 0x5400 DUP3 PUSH2 0x53BF JUMP JUMPDEST PUSH1 0x20 DUP3 ADD SWAP1 POP SWAP2 SWAP1 POP JUMP JUMPDEST PUSH1 0x0 PUSH1 0x20 DUP3 ADD SWAP1 POP DUP2 DUP2 SUB PUSH1 0x0 DUP4 ADD MSTORE PUSH2 0x5424 DUP2 PUSH2 0x53E8 JUMP JUMPDEST SWAP1 POP SWAP2 SWAP1 POP JUMP JUMPDEST PUSH32 0x494E53554646494349454E545F4F55545055545F414D4F554E54000000000000 PUSH1 0x0 DUP3 ADD MSTORE POP JUMP JUMPDEST PUSH1 0x0 PUSH2 0x5461 PUSH1 0x1A DUP4 PUSH2 0x5283 JUMP JUMPDEST SWAP2 POP PUSH2 0x546C DUP3 PUSH2 0x542B JUMP JUMPDEST PUSH1 0x20 DUP3 ADD SWAP1 POP SWAP2 SWAP1 POP JUMP JUMPDEST PUSH1 0x0 PUSH1 0x20 DUP3 ADD SWAP1 POP DUP2 DUP2 SUB PUSH1 0x0 DUP4 ADD MSTORE PUSH2 0x5490 DUP2 PUSH2 0x5454 JUMP JUMPDEST SWAP1 POP SWAP2 SWAP1 POP JUMP JUMPDEST PUSH2 0x54A0 DUP2 PUSH2 0x4E00 JUMP JUMPDEST DUP3 MSTORE POP POP JUMP JUMPDEST PUSH2 0x54AF DUP2 PUSH2 0x4E39 JUMP JUMPDEST DUP3 MSTORE POP POP JUMP JUMPDEST PUSH1 0x0 PUSH1 0xE0 DUP3 ADD SWAP1 POP PUSH2 0x54CA PUSH1 0x0 DUP4 ADD DUP11 PUSH2 0x4F63 JUMP JUMPDEST PUSH2 0x54D7 PUSH1 0x20 DUP4 ADD DUP10 PUSH2 0x4F63 JUMP JUMPDEST PUSH2 0x54E4 PUSH1 0x40 DUP4 ADD DUP9 PUSH2 0x4998 JUMP JUMPDEST PUSH2 0x54F1 PUSH1 0x60 DUP4 ADD DUP8 PUSH2 0x4998 JUMP JUMPDEST PUSH2 0x54FE PUSH1 0x80 DUP4 ADD DUP7 PUSH2 0x5497 JUMP JUMPDEST PUSH2 0x550B PUSH1 0xA0 DUP4 ADD DUP6 PUSH2 0x54A6 JUMP JUMPDEST PUSH2 0x5518 PUSH1 0xC0 DUP4 ADD DUP5 PUSH2 0x54A6 JUMP JUMPDEST SWAP9 SWAP8 POP POP POP POP POP POP POP POP JUMP JUMPDEST PUSH32 0x4558434553534956455F494E5055545F414D4F554E5400000000000000000000 PUSH1 0x0 DUP3 ADD MSTORE POP JUMP JUMPDEST PUSH1 0x0 PUSH2 0x555A PUSH1 0x16 DUP4 PUSH2 0x5283 JUMP JUMPDEST SWAP2 POP PUSH2 0x5565 DUP3 PUSH2 0x5524 JUMP JUMPDEST PUSH1 0x20 DUP3 ADD SWAP1 POP SWAP2 SWAP1 POP JUMP JUMPDEST PUSH1 0x0 PUSH1 0x20 DUP3 ADD SWAP1 POP DUP2 DUP2 SUB PUSH1 0x0 DUP4 ADD MSTORE PUSH2 0x5589 DUP2 PUSH2 0x554D JUMP JUMPDEST SWAP1 POP SWAP2 SWAP1 POP JUMP JUMPDEST PUSH1 0x0 DUP2 MLOAD SWAP1 POP PUSH2 0x559F DUP2 PUSH2 0x48DF JUMP JUMPDEST SWAP3 SWAP2 POP POP JUMP JUMPDEST PUSH1 0x0 PUSH1 0x20 DUP3 DUP5 SUB SLT ISZERO PUSH2 0x55BB JUMPI PUSH2 0x55BA PUSH2 0x486D JUMP JUMPDEST JUMPDEST PUSH1 0x0 PUSH2 0x55C9 DUP5 DUP3 DUP6 ADD PUSH2 0x5590 JUMP JUMPDEST SWAP2 POP POP SWAP3 SWAP2 POP POP JUMP JUMPDEST PUSH1 0x0 PUSH1 0x40 DUP3 ADD SWAP1 POP PUSH2 0x55E7 PUSH1 0x0 DUP4 ADD DUP6 PUSH2 0x4F63 JUMP JUMPDEST PUSH2 0x55F4 PUSH1 0x20 DUP4 ADD DUP5 PUSH2 0x4998 JUMP JUMPDEST SWAP4 SWAP3 POP POP POP JUMP JUMPDEST PUSH1 0x0 DUP2 MLOAD SWAP1 POP PUSH2 0x560A DUP2 PUSH2 0x4DD4 JUMP JUMPDEST SWAP3 SWAP2 POP POP JUMP JUMPDEST PUSH1 0x0 PUSH1 0x20 DUP3 DUP5 SUB SLT ISZERO PUSH2 0x5626 JUMPI PUSH2 0x5625 PUSH2 0x486D JUMP JUMPDEST JUMPDEST PUSH1 0x0 PUSH2 0x5634 DUP5 DUP3 DUP6 ADD PUSH2 0x55FB JUMP JUMPDEST SWAP2 POP POP SWAP3 SWAP2 POP POP JUMP JUMPDEST PUSH1 0x0 PUSH1 0x60 DUP3 ADD SWAP1 POP PUSH2 0x5652 PUSH1 0x0 DUP4 ADD DUP7 PUSH2 0x4F63 JUMP JUMPDEST PUSH2 0x565F PUSH1 0x20 DUP4 ADD DUP6 PUSH2 0x4F63 JUMP JUMPDEST PUSH2 0x566C PUSH1 0x40 DUP4 ADD DUP5 PUSH2 0x4998 JUMP JUMPDEST SWAP5 SWAP4 POP POP POP POP JUMP JUMPDEST PUSH1 0x0 DUP1 PUSH1 0x40 DUP4 DUP6 SUB SLT ISZERO PUSH2 0x568B JUMPI PUSH2 0x568A PUSH2 0x486D JUMP JUMPDEST JUMPDEST PUSH1 0x0 PUSH2 0x5699 DUP6 DUP3 DUP7 ADD PUSH2 0x5590 JUMP JUMPDEST SWAP3 POP POP PUSH1 0x20 PUSH2 0x56AA DUP6 DUP3 DUP7 ADD PUSH2 0x5590 JUMP JUMPDEST SWAP2 POP POP SWAP3 POP SWAP3 SWAP1 POP JUMP JUMPDEST PUSH32 0x494E53554646494349454E545F415F414D4F554E540000000000000000000000 PUSH1 0x0 DUP3 ADD MSTORE POP JUMP JUMPDEST PUSH1 0x0 PUSH2 0x56EA PUSH1 0x15 DUP4 PUSH2 0x5283 JUMP JUMPDEST SWAP2 POP PUSH2 0x56F5 DUP3 PUSH2 0x56B4 JUMP JUMPDEST PUSH1 0x20 DUP3 ADD SWAP1 POP SWAP2 SWAP1 POP JUMP JUMPDEST PUSH1 0x0 PUSH1 0x20 DUP3 ADD SWAP1 POP DUP2 DUP2 SUB PUSH1 0x0 DUP4 ADD MSTORE PUSH2 0x5719 DUP2 PUSH2 0x56DD JUMP JUMPDEST SWAP1 POP SWAP2 SWAP1 POP JUMP JUMPDEST PUSH32 0x494E53554646494349454E545F425F414D4F554E540000000000000000000000 PUSH1 0x0 DUP3 ADD MSTORE POP JUMP JUMPDEST PUSH1 0x0 PUSH2 0x5756 PUSH1 0x15 DUP4 PUSH2 0x5283 JUMP JUMPDEST SWAP2 POP PUSH2 0x5761 DUP3 PUSH2 0x5720 JUMP JUMPDEST PUSH1 0x20 DUP3 ADD SWAP1 POP SWAP2 SWAP1 POP JUMP JUMPDEST PUSH1 0x0 PUSH1 0x20 DUP3 ADD SWAP1 POP DUP2 DUP2 SUB PUSH1 0x0 DUP4 ADD MSTORE PUSH2 0x5785 DUP2 PUSH2 0x5749 JUMP JUMPDEST SWAP1 POP SWAP2 SWAP1 POP JUMP JUMPDEST PUSH32 0x5472616E7366657248656C7065723A3A736166655472616E736665723A207472 PUSH1 0x0 DUP3 ADD MSTORE PUSH32 0x616E73666572206661696C656400000000000000000000000000000000000000 PUSH1 0x20 DUP3 ADD MSTORE POP JUMP JUMPDEST PUSH1 0x0 PUSH2 0x57E8 PUSH1 0x2D DUP4 PUSH2 0x5283 JUMP JUMPDEST SWAP2 POP PUSH2 0x57F3 DUP3 PUSH2 0x578C JUMP JUMPDEST PUSH1 0x40 DUP3 ADD SWAP1 POP SWAP2 SWAP1 POP JUMP JUMPDEST PUSH1 0x0 PUSH1 0x20 DUP3 ADD SWAP1 POP DUP2 DUP2 SUB PUSH1 0x0 DUP4 ADD MSTORE PUSH2 0x5817 DUP2 PUSH2 0x57DB JUMP JUMPDEST SWAP1 POP SWAP2 SWAP1 POP JUMP JUMPDEST PUSH1 0x0 DUP2 MLOAD SWAP1 POP SWAP2 SWAP1 POP JUMP JUMPDEST PUSH1 0x0 DUP2 SWAP1 POP SWAP3 SWAP2 POP POP JUMP JUMPDEST PUSH1 0x0 JUMPDEST DUP4 DUP2 LT ISZERO PUSH2 0x5852 JUMPI DUP1 DUP3 ADD MLOAD DUP2 DUP5 ADD MSTORE PUSH1 0x20 DUP2 ADD SWAP1 POP PUSH2 0x5837 JUMP JUMPDEST PUSH1 0x0 DUP5 DUP5 ADD MSTORE POP POP POP POP JUMP JUMPDEST PUSH1 0x0 PUSH2 0x5869 DUP3 PUSH2 0x581E JUMP JUMPDEST PUSH2 0x5873 DUP2 DUP6 PUSH2 0x5829 JUMP JUMPDEST SWAP4 POP PUSH2 0x5883 DUP2 DUP6 PUSH1 0x20 DUP7 ADD PUSH2 0x5834 JUMP JUMPDEST DUP1 DUP5 ADD SWAP2 POP POP SWAP3 SWAP2 POP POP JUMP JUMPDEST PUSH1 0x0 PUSH2 0x589B DUP3 DUP5 PUSH2 0x585E JUMP JUMPDEST SWAP2 POP DUP2 SWAP1 POP SWAP3 SWAP2 POP POP JUMP JUMPDEST PUSH32 0x5472616E7366657248656C7065723A3A736166655472616E736665724554483A PUSH1 0x0 DUP3 ADD MSTORE PUSH32 0x20455448207472616E73666572206661696C6564000000000000000000000000 PUSH1 0x20 DUP3 ADD MSTORE POP JUMP JUMPDEST PUSH1 0x0 PUSH2 0x5902 PUSH1 0x34 DUP4 PUSH2 0x5283 JUMP JUMPDEST SWAP2 POP PUSH2 0x590D DUP3 PUSH2 0x58A6 JUMP JUMPDEST PUSH1 0x40 DUP3 ADD SWAP1 POP SWAP2 SWAP1 POP JUMP JUMPDEST PUSH1 0x0 PUSH1 0x20 DUP3 ADD SWAP1 POP DUP2 DUP2 SUB PUSH1 0x0 DUP4 ADD MSTORE PUSH2 0x5931 DUP2 PUSH2 0x58F5 JUMP JUMPDEST SWAP1 POP SWAP2 SWAP1 POP JUMP JUMPDEST PUSH32 0x494E53554646494349454E545F494E5055545F414D4F554E5400000000000000 PUSH1 0x0 DUP3 ADD MSTORE POP JUMP JUMPDEST PUSH1 0x0 PUSH2 0x596E PUSH1 0x19 DUP4 PUSH2 0x5283 JUMP JUMPDEST SWAP2 POP PUSH2 0x5979 DUP3 PUSH2 0x5938 JUMP JUMPDEST PUSH1 0x20 DUP3 ADD SWAP1 POP SWAP2 SWAP1 POP JUMP JUMPDEST PUSH1 0x0 PUSH1 0x20 DUP3 ADD SWAP1 POP DUP2 DUP2 SUB PUSH1 0x0 DUP4 ADD MSTORE PUSH2 0x599D DUP2 PUSH2 0x5961 JUMP JUMPDEST SWAP1 POP SWAP2 SWAP1 POP JUMP JUMPDEST PUSH32 0x494E53554646494349454E545F4C495155494449545900000000000000000000 PUSH1 0x0 DUP3 ADD MSTORE POP JUMP JUMPDEST PUSH1 0x0 PUSH2 0x59DA PUSH1 0x16 DUP4 PUSH2 0x5283 JUMP JUMPDEST SWAP2 POP PUSH2 0x59E5 DUP3 PUSH2 0x59A4 JUMP JUMPDEST PUSH1 0x20 DUP3 ADD SWAP1 POP SWAP2 SWAP1 POP JUMP JUMPDEST PUSH1 0x0 PUSH1 0x20 DUP3 ADD SWAP1 POP DUP2 DUP2 SUB PUSH1 0x0 DUP4 ADD MSTORE PUSH2 0x5A09 DUP2 PUSH2 0x59CD JUMP JUMPDEST SWAP1 POP SWAP2 SWAP1 POP JUMP JUMPDEST PUSH1 0x0 PUSH2 0x5A1B DUP3 PUSH2 0x48D5 JUMP JUMPDEST SWAP2 POP PUSH2 0x5A26 DUP4 PUSH2 0x48D5 JUMP JUMPDEST SWAP3 POP DUP3 DUP3 MUL PUSH2 0x5A34 DUP2 PUSH2 0x48D5 JUMP JUMPDEST SWAP2 POP DUP3 DUP3 DIV DUP5 EQ DUP4 ISZERO OR PUSH2 0x5A4B JUMPI PUSH2 0x5A4A PUSH2 0x5300 JUMP JUMPDEST JUMPDEST POP SWAP3 SWAP2 POP POP JUMP JUMPDEST PUSH1 0x0 PUSH2 0x5A5D DUP3 PUSH2 0x48D5 JUMP JUMPDEST SWAP2 POP PUSH2 0x5A68 DUP4 PUSH2 0x48D5 JUMP JUMPDEST SWAP3 POP DUP3 DUP3 ADD SWAP1 POP DUP1 DUP3 GT ISZERO PUSH2 0x5A80 JUMPI PUSH2 0x5A7F PUSH2 0x5300 JUMP JUMPDEST JUMPDEST SWAP3 SWAP2 POP POP JUMP JUMPDEST PUSH32 0x4E487B7100000000000000000000000000000000000000000000000000000000 PUSH1 0x0 MSTORE PUSH1 0x12 PUSH1 0x4 MSTORE PUSH1 0x24 PUSH1 0x0 REVERT JUMPDEST PUSH1 0x0 PUSH2 0x5AC0 DUP3 PUSH2 0x48D5 JUMP JUMPDEST SWAP2 POP PUSH2 0x5ACB DUP4 PUSH2 0x48D5 JUMP JUMPDEST SWAP3 POP DUP3 PUSH2 0x5ADB JUMPI PUSH2 0x5ADA PUSH2 0x5A86 JUMP JUMPDEST JUMPDEST DUP3 DUP3 DIV SWAP1 POP SWAP3 SWAP2 POP POP JUMP JUMPDEST PUSH1 0x0 PUSH2 0x5AF1 DUP3 PUSH2 0x48D5 JUMP JUMPDEST SWAP2 POP PUSH32 0xFFFFFFFFFFFFFFFFFFFFFFFFFFFFFFFFFFFFFFFFFFFFFFFFFFFFFFFFFFFFFFFF DUP3 SUB PUSH2 0x5B23 JUMPI PUSH2 0x5B22 PUSH2 0x5300 JUMP JUMPDEST JUMPDEST PUSH1 0x1 DUP3 ADD SWAP1 POP SWAP2 SWAP1 POP JUMP JUMPDEST PUSH1 0x0 DUP2 PUSH1 0x60 SHL SWAP1 POP SWAP2 SWAP1 POP JUMP JUMPDEST PUSH1 0x0 PUSH2 0x5B46 DUP3 PUSH2 0x5B2E JUMP JUMPDEST SWAP1 POP SWAP2 SWAP1 POP JUMP JUMPDEST PUSH1 0x0 PUSH2 0x5B58 DUP3 PUSH2 0x5B3B JUMP JUMPDEST SWAP1 POP SWAP2 SWAP1 POP JUMP JUMPDEST PUSH2 0x5B70 PUSH2 0x5B6B DUP3 PUSH2 0x4897 JUMP JUMPDEST PUSH2 0x5B4D JUMP JUMPDEST DUP3 MSTORE POP POP JUMP JUMPDEST PUSH1 0x0 PUSH2 0x5B82 DUP3 DUP6 PUSH2 0x5B5F JUMP JUMPDEST PUSH1 0x14 DUP3 ADD SWAP2 POP PUSH2 0x5B92 DUP3 DUP5 PUSH2 0x5B5F JUMP JUMPDEST PUSH1 0x14 DUP3 ADD SWAP2 POP DUP2 SWAP1 POP SWAP4 SWAP3 POP POP POP JUMP JUMPDEST PUSH1 0x0 DUP2 SWAP1 POP SWAP3 SWAP2 POP POP JUMP JUMPDEST PUSH32 0xFF00000000000000000000000000000000000000000000000000000000000000 PUSH1 0x0 DUP3 ADD MSTORE POP JUMP JUMPDEST PUSH1 0x0 PUSH2 0x5BE3 PUSH1 0x1 DUP4 PUSH2 0x5BA2 JUMP JUMPDEST SWAP2 POP PUSH2 0x5BEE DUP3 PUSH2 0x5BAD JUMP JUMPDEST PUSH1 0x1 DUP3 ADD SWAP1 POP SWAP2 SWAP1 POP JUMP JUMPDEST PUSH1 0x0 DUP2 SWAP1 POP SWAP2 SWAP1 POP JUMP JUMPDEST PUSH2 0x5C14 PUSH2 0x5C0F DUP3 PUSH2 0x4E39 JUMP JUMPDEST PUSH2 0x5BF9 JUMP JUMPDEST DUP3 MSTORE POP POP JUMP JUMPDEST PUSH32 0x96E8AC4277198FF8B6F785478AA9A39F403CB768DD02CBEE326C3E7DA348845F PUSH1 0x0 DUP3 ADD MSTORE POP JUMP JUMPDEST PUSH1 0x0 PUSH2 0x5C50 PUSH1 0x20 DUP4 PUSH2 0x5BA2 JUMP JUMPDEST SWAP2 POP PUSH2 0x5C5B DUP3 PUSH2 0x5C1A JUMP JUMPDEST PUSH1 0x20 DUP3 ADD SWAP1 POP SWAP2 SWAP1 POP JUMP JUMPDEST PUSH1 0x0 PUSH2 0x5C71 DUP3 PUSH2 0x5BD6 JUMP JUMPDEST SWAP2 POP PUSH2 0x5C7D DUP3 DUP6 PUSH2 0x5B5F JUMP JUMPDEST PUSH1 0x14 DUP3 ADD SWAP2 POP PUSH2 0x5C8D DUP3 DUP5 PUSH2 0x5C03 JUMP JUMPDEST PUSH1 0x20 DUP3 ADD SWAP2 POP PUSH2 0x5C9C DUP3 PUSH2 0x5C43 JUMP JUMPDEST SWAP2 POP DUP2 SWAP1 POP SWAP4 SWAP3 POP POP POP JUMP JUMPDEST PUSH32 0x5472616E7366657248656C7065723A3A7472616E7366657246726F6D3A207472 PUSH1 0x0 DUP3 ADD MSTORE PUSH32 0x616E7366657246726F6D206661696C6564200000000000000000000000000000 PUSH1 0x20 DUP3 ADD MSTORE POP JUMP JUMPDEST PUSH1 0x0 PUSH2 0x5D04 PUSH1 0x32 DUP4 PUSH2 0x5283 JUMP JUMPDEST SWAP2 POP PUSH2 0x5D0F DUP3 PUSH2 0x5CA8 JUMP JUMPDEST PUSH1 0x40 DUP3 ADD SWAP1 POP SWAP2 SWAP1 POP JUMP JUMPDEST PUSH1 0x0 PUSH1 0x20 DUP3 ADD SWAP1 POP DUP2 DUP2 SUB PUSH1 0x0 DUP4 ADD MSTORE PUSH2 0x5D33 DUP2 PUSH2 0x5CF7 JUMP JUMPDEST SWAP1 POP SWAP2 SWAP1 POP JUMP JUMPDEST PUSH1 0x0 DUP3 DUP3 MSTORE PUSH1 0x20 DUP3 ADD SWAP1 POP SWAP3 SWAP2 POP POP JUMP JUMPDEST PUSH1 0x0 PUSH2 0x5D56 DUP3 PUSH2 0x581E JUMP JUMPDEST PUSH2 0x5D60 DUP2 DUP6 PUSH2 0x5D3A JUMP JUMPDEST SWAP4 POP PUSH2 0x5D70 DUP2 DUP6 PUSH1 0x20 DUP7 ADD PUSH2 0x5834 JUMP JUMPDEST PUSH2 0x5D79 DUP2 PUSH2 0x4C1D JUMP JUMPDEST DUP5 ADD SWAP2 POP POP SWAP3 SWAP2 POP POP JUMP JUMPDEST PUSH1 0x0 PUSH1 0x80 DUP3 ADD SWAP1 POP PUSH2 0x5D99 PUSH1 0x0 DUP4 ADD DUP8 PUSH2 0x4998 JUMP JUMPDEST PUSH2 0x5DA6 PUSH1 0x20 DUP4 ADD DUP7 PUSH2 0x4998 JUMP JUMPDEST PUSH2 0x5DB3 PUSH1 0x40 DUP4 ADD DUP6 PUSH2 0x4F63 JUMP JUMPDEST DUP2 DUP2 SUB PUSH1 0x60 DUP4 ADD MSTORE PUSH2 0x5DC5 DUP2 DUP5 PUSH2 0x5D4B JUMP JUMPDEST SWAP1 POP SWAP6 SWAP5 POP POP POP POP POP JUMP JUMPDEST PUSH1 0x0 PUSH2 0x5DDB DUP3 PUSH2 0x48D5 JUMP JUMPDEST SWAP2 POP PUSH1 0x0 DUP3 SUB PUSH2 0x5DEE JUMPI PUSH2 0x5DED PUSH2 0x5300 JUMP JUMPDEST JUMPDEST PUSH1 0x1 DUP3 SUB SWAP1 POP SWAP2 SWAP1 POP JUMP JUMPDEST PUSH1 0x0 PUSH14 0xFFFFFFFFFFFFFFFFFFFFFFFFFFFF DUP3 AND SWAP1 POP SWAP2 SWAP1 POP JUMP JUMPDEST PUSH2 0x5E1C DUP2 PUSH2 0x5DF9 JUMP JUMPDEST DUP2 EQ PUSH2 0x5E27 JUMPI PUSH1 0x0 DUP1 REVERT JUMPDEST POP JUMP JUMPDEST PUSH1 0x0 DUP2 MLOAD SWAP1 POP PUSH2 0x5E39 DUP2 PUSH2 0x5E13 JUMP JUMPDEST SWAP3 SWAP2 POP POP JUMP JUMPDEST PUSH1 0x0 PUSH4 0xFFFFFFFF DUP3 AND SWAP1 POP SWAP2 SWAP1 POP JUMP JUMPDEST PUSH2 0x5E58 DUP2 PUSH2 0x5E3F JUMP JUMPDEST DUP2 EQ PUSH2 0x5E63 JUMPI PUSH1 0x0 DUP1 REVERT JUMPDEST POP JUMP JUMPDEST PUSH1 0x0 DUP2 MLOAD SWAP1 POP PUSH2 0x5E75 DUP2 PUSH2 0x5E4F JUMP JUMPDEST SWAP3 SWAP2 POP POP JUMP JUMPDEST PUSH1 0x0 DUP1 PUSH1 0x0 PUSH1 0x60 DUP5 DUP7 SUB SLT ISZERO PUSH2 0x5E94 JUMPI PUSH2 0x5E93 PUSH2 0x486D JUMP JUMPDEST JUMPDEST PUSH1 0x0 PUSH2 0x5EA2 DUP7 DUP3 DUP8 ADD PUSH2 0x5E2A JUMP JUMPDEST SWAP4 POP POP PUSH1 0x20 PUSH2 0x5EB3 DUP7 DUP3 DUP8 ADD PUSH2 0x5E2A JUMP JUMPDEST SWAP3 POP POP PUSH1 0x40 PUSH2 0x5EC4 DUP7 DUP3 DUP8 ADD PUSH2 0x5E66 JUMP JUMPDEST SWAP2 POP POP SWAP3 POP SWAP3 POP SWAP3 JUMP JUMPDEST PUSH32 0x494E53554646494349454E545F414D4F554E5400000000000000000000000000 PUSH1 0x0 DUP3 ADD MSTORE POP JUMP JUMPDEST PUSH1 0x0 PUSH2 0x5F04 PUSH1 0x13 DUP4 PUSH2 0x5283 JUMP JUMPDEST SWAP2 POP PUSH2 0x5F0F DUP3 PUSH2 0x5ECE JUMP JUMPDEST PUSH1 0x20 DUP3 ADD SWAP1 POP SWAP2 SWAP1 POP JUMP JUMPDEST PUSH1 0x0 PUSH1 0x20 DUP3 ADD SWAP1 POP DUP2 DUP2 SUB PUSH1 0x0 DUP4 ADD MSTORE PUSH2 0x5F33 DUP2 PUSH2 0x5EF7 JUMP JUMPDEST SWAP1 POP SWAP2 SWAP1 POP JUMP JUMPDEST PUSH32 0x4944454E544943414C5F41444452455353455300000000000000000000000000 PUSH1 0x0 DUP3 ADD MSTORE POP JUMP JUMPDEST PUSH1 0x0 PUSH2 0x5F70 PUSH1 0x13 DUP4 PUSH2 0x5283 JUMP JUMPDEST SWAP2 POP PUSH2 0x5F7B DUP3 PUSH2 0x5F3A JUMP JUMPDEST PUSH1 0x20 DUP3 ADD SWAP1 POP SWAP2 SWAP1 POP JUMP JUMPDEST PUSH1 0x0 PUSH1 0x20 DUP3 ADD SWAP1 POP DUP2 DUP2 SUB PUSH1 0x0 DUP4 ADD MSTORE PUSH2 0x5F9F DUP2 PUSH2 0x5F63 JUMP JUMPDEST SWAP1 POP SWAP2 SWAP1 POP JUMP JUMPDEST PUSH32 0x5A45524F5F414444524553530000000000000000000000000000000000000000 PUSH1 0x0 DUP3 ADD MSTORE POP JUMP JUMPDEST PUSH1 0x0 PUSH2 0x5FDC PUSH1 0xC DUP4 PUSH2 0x5283 JUMP JUMPDEST SWAP2 POP PUSH2 0x5FE7 DUP3 PUSH2 0x5FA6 JUMP JUMPDEST PUSH1 0x20 DUP3 ADD SWAP1 POP SWAP2 SWAP1 POP JUMP JUMPDEST PUSH1 0x0 PUSH1 0x20 DUP3 ADD SWAP1 POP DUP2 DUP2 SUB PUSH1 0x0 DUP4 ADD MSTORE PUSH2 0x600B DUP2 PUSH2 0x5FCF JUMP JUMPDEST SWAP1 POP SWAP2 SWAP1 POP JUMP INVALID LOG2 PUSH5 0x6970667358 0x22 SLT KECCAK256 0x4D DUP15 SWAP11 0x26 MUL 0xC5 PUSH22 0xAA210FAE38703D32D3AF4275ABBC13A27E4ECE99078 DELEGATECALL CALLER 0xC2 PUSH5 0x736F6C6343 STOP ADDMOD SLT STOP CALLER "
		},
		"gasEstimates": {
			"creation": {
				"codeDepositCost": "4929600",
				"executionCost": "infinite",
				"totalCost": "infinite"
			},
			"external": {
				"RONT()": "infinite",
				"USDT()": "infinite",
				"WETH()": "infinite",
				"addLiquidity(address,address,uint256,uint256,uint256,uint256,address,uint256)": "infinite",
				"addLiquidityETH(address,uint256,uint256,uint256,address,uint256)": "infinite",
				"factory()": "infinite",
				"getAmountIn(uint256,uint256,uint256)": "infinite",
				"getAmountOut(uint256,uint256,uint256)": "infinite",
				"getAmountsIn(uint256,address[])": "infinite",
				"getAmountsOut(uint256,address[])": "infinite",
				"ourPair()": "infinite",
				"quote(uint256,uint256,uint256)": "infinite",
				"removeLiquidity(address,address,uint256,uint256,uint256,address,uint256)": "infinite",
				"removeLiquidityETH(address,uint256,uint256,uint256,address,uint256)": "infinite",
				"removeLiquidityETHSupportingFeeOnTransferTokens(address,uint256,uint256,uint256,address,uint256)": "infinite",
				"removeLiquidityETHWithPermit(address,uint256,uint256,uint256,address,uint256,bool,uint8,bytes32,bytes32)": "infinite",
				"removeLiquidityETHWithPermitSupportingFeeOnTransferTokens(address,uint256,uint256,uint256,address,uint256,bool,uint8,bytes32,bytes32)": "infinite",
				"removeLiquidityWithPermit(address,address,uint256,uint256,uint256,address,uint256,bool,uint8,bytes32,bytes32)": "infinite",
				"swapETHForExactTokens(uint256,address[],address,uint256)": "infinite",
				"swapExactETHForTokens(uint256,address[],address,uint256)": "infinite",
				"swapExactETHForTokensSupportingFeeOnTransferTokens(uint256,address[],address,uint256)": "infinite",
				"swapExactTokensForETH(uint256,uint256,address[],address,uint256)": "infinite",
				"swapExactTokensForETHSupportingFeeOnTransferTokens(uint256,uint256,address[],address,uint256)": "infinite",
				"swapExactTokensForTokens(uint256,uint256,address[],address,uint256)": "infinite",
				"swapExactTokensForTokensSupportingFeeOnTransferTokens(uint256,uint256,address[],address,uint256)": "infinite",
				"swapTokensForExactETH(uint256,uint256,address[],address,uint256)": "infinite",
				"swapTokensForExactTokens(uint256,uint256,address[],address,uint256)": "infinite"
			},
			"internal": {
				"_addLiquidity(address,address,uint256,uint256,uint256,uint256)": "infinite",
				"_getAmountIn(uint256,uint256,uint256)": "infinite",
				"_getAmountOut(uint256,uint256,uint256)": "infinite",
				"_getAmountsIn(address,uint256,address[] memory)": "infinite",
				"_getAmountsOut(address,uint256,address[] memory)": "infinite",
				"_getReserves(address,address,address)": "infinite",
				"_pairFor(address,address,address)": "infinite",
				"_quote(uint256,uint256,uint256)": "infinite",
				"_sortTokens(address,address)": "infinite",
				"_swap(uint256[] memory,address[] memory,address)": "infinite",
				"_swapSupportingFeeOnTransferTokens(address[] memory,address)": "infinite",
				"safeTransfer(address,address,uint256)": "infinite",
				"safeTransferETH(address,uint256)": "infinite",
				"safeTransferFrom(address,address,address,uint256)": "infinite"
			}
		},
		"methodIdentifiers": {
			"RONT()": "4624fc34",
			"USDT()": "c54e44eb",
			"WETH()": "ad5c4648",
			"addLiquidity(address,address,uint256,uint256,uint256,uint256,address,uint256)": "e8e33700",
			"addLiquidityETH(address,uint256,uint256,uint256,address,uint256)": "f305d719",
			"factory()": "c45a0155",
			"getAmountIn(uint256,uint256,uint256)": "85f8c259",
			"getAmountOut(uint256,uint256,uint256)": "054d50d4",
			"getAmountsIn(uint256,address[])": "1f00ca74",
			"getAmountsOut(uint256,address[])": "d06ca61f",
			"ourPair()": "a7c37aaa",
			"quote(uint256,uint256,uint256)": "ad615dec",
			"removeLiquidity(address,address,uint256,uint256,uint256,address,uint256)": "baa2abde",
			"removeLiquidityETH(address,uint256,uint256,uint256,address,uint256)": "02751cec",
			"removeLiquidityETHSupportingFeeOnTransferTokens(address,uint256,uint256,uint256,address,uint256)": "af2979eb",
			"removeLiquidityETHWithPermit(address,uint256,uint256,uint256,address,uint256,bool,uint8,bytes32,bytes32)": "ded9382a",
			"removeLiquidityETHWithPermitSupportingFeeOnTransferTokens(address,uint256,uint256,uint256,address,uint256,bool,uint8,bytes32,bytes32)": "5b0d5984",
			"removeLiquidityWithPermit(address,address,uint256,uint256,uint256,address,uint256,bool,uint8,bytes32,bytes32)": "2195995c",
			"swapETHForExactTokens(uint256,address[],address,uint256)": "fb3bdb41",
			"swapExactETHForTokens(uint256,address[],address,uint256)": "7ff36ab5",
			"swapExactETHForTokensSupportingFeeOnTransferTokens(uint256,address[],address,uint256)": "b6f9de95",
			"swapExactTokensForETH(uint256,uint256,address[],address,uint256)": "18cbafe5",
			"swapExactTokensForETHSupportingFeeOnTransferTokens(uint256,uint256,address[],address,uint256)": "791ac947",
			"swapExactTokensForTokens(uint256,uint256,address[],address,uint256)": "38ed1739",
			"swapExactTokensForTokensSupportingFeeOnTransferTokens(uint256,uint256,address[],address,uint256)": "5c11d795",
			"swapTokensForExactETH(uint256,uint256,address[],address,uint256)": "4a25d94a",
			"swapTokensForExactTokens(uint256,uint256,address[],address,uint256)": "8803dbee"
		}
	},
	"abi": [
		{
			"inputs": [],
			"stateMutability": "nonpayable",
			"type": "constructor"
		},
		{
			"inputs": [],
			"name": "RONT",
			"outputs": [
				{
					"internalType": "address",
					"name": "",
					"type": "address"
				}
			],
			"stateMutability": "view",
			"type": "function"
		},
		{
			"inputs": [],
			"name": "USDT",
			"outputs": [
				{
					"internalType": "address",
					"name": "",
					"type": "address"
				}
			],
			"stateMutability": "view",
			"type": "function"
		},
		{
			"inputs": [],
			"name": "WETH",
			"outputs": [
				{
					"internalType": "address",
					"name": "",
					"type": "address"
				}
			],
			"stateMutability": "view",
			"type": "function"
		},
		{
			"inputs": [
				{
					"internalType": "address",
					"name": "tokenA",
					"type": "address"
				},
				{
					"internalType": "address",
					"name": "tokenB",
					"type": "address"
				},
				{
					"internalType": "uint256",
					"name": "amountADesired",
					"type": "uint256"
				},
				{
					"internalType": "uint256",
					"name": "amountBDesired",
					"type": "uint256"
				},
				{
					"internalType": "uint256",
					"name": "amountAMin",
					"type": "uint256"
				},
				{
					"internalType": "uint256",
					"name": "amountBMin",
					"type": "uint256"
				},
				{
					"internalType": "address",
					"name": "to",
					"type": "address"
				},
				{
					"internalType": "uint256",
					"name": "deadline",
					"type": "uint256"
				}
			],
			"name": "addLiquidity",
			"outputs": [
				{
					"internalType": "uint256",
					"name": "amountA",
					"type": "uint256"
				},
				{
					"internalType": "uint256",
					"name": "amountB",
					"type": "uint256"
				},
				{
					"internalType": "uint256",
					"name": "liquidity",
					"type": "uint256"
				}
			],
			"stateMutability": "nonpayable",
			"type": "function"
		},
		{
			"inputs": [
				{
					"internalType": "address",
					"name": "token",
					"type": "address"
				},
				{
					"internalType": "uint256",
					"name": "amountTokenDesired",
					"type": "uint256"
				},
				{
					"internalType": "uint256",
					"name": "amountTokenMin",
					"type": "uint256"
				},
				{
					"internalType": "uint256",
					"name": "amountETHMin",
					"type": "uint256"
				},
				{
					"internalType": "address",
					"name": "to",
					"type": "address"
				},
				{
					"internalType": "uint256",
					"name": "deadline",
					"type": "uint256"
				}
			],
			"name": "addLiquidityETH",
			"outputs": [
				{
					"internalType": "uint256",
					"name": "amountToken",
					"type": "uint256"
				},
				{
					"internalType": "uint256",
					"name": "amountETH",
					"type": "uint256"
				},
				{
					"internalType": "uint256",
					"name": "liquidity",
					"type": "uint256"
				}
			],
			"stateMutability": "payable",
			"type": "function"
		},
		{
			"inputs": [],
			"name": "factory",
			"outputs": [
				{
					"internalType": "address",
					"name": "",
					"type": "address"
				}
			],
			"stateMutability": "view",
			"type": "function"
		},
		{
			"inputs": [
				{
					"internalType": "uint256",
					"name": "amountOut",
					"type": "uint256"
				},
				{
					"internalType": "uint256",
					"name": "reserveIn",
					"type": "uint256"
				},
				{
					"internalType": "uint256",
					"name": "reserveOut",
					"type": "uint256"
				}
			],
			"name": "getAmountIn",
			"outputs": [
				{
					"internalType": "uint256",
					"name": "amountIn",
					"type": "uint256"
				}
			],
			"stateMutability": "pure",
			"type": "function"
		},
		{
			"inputs": [
				{
					"internalType": "uint256",
					"name": "amountIn",
					"type": "uint256"
				},
				{
					"internalType": "uint256",
					"name": "reserveIn",
					"type": "uint256"
				},
				{
					"internalType": "uint256",
					"name": "reserveOut",
					"type": "uint256"
				}
			],
			"name": "getAmountOut",
			"outputs": [
				{
					"internalType": "uint256",
					"name": "amountOut",
					"type": "uint256"
				}
			],
			"stateMutability": "pure",
			"type": "function"
		},
		{
			"inputs": [
				{
					"internalType": "uint256",
					"name": "amountOut",
					"type": "uint256"
				},
				{
					"internalType": "address[]",
					"name": "path",
					"type": "address[]"
				}
			],
			"name": "getAmountsIn",
			"outputs": [
				{
					"internalType": "uint256[]",
					"name": "amounts",
					"type": "uint256[]"
				}
			],
			"stateMutability": "view",
			"type": "function"
		},
		{
			"inputs": [
				{
					"internalType": "uint256",
					"name": "amountIn",
					"type": "uint256"
				},
				{
					"internalType": "address[]",
					"name": "path",
					"type": "address[]"
				}
			],
			"name": "getAmountsOut",
			"outputs": [
				{
					"internalType": "uint256[]",
					"name": "amounts",
					"type": "uint256[]"
				}
			],
			"stateMutability": "view",
			"type": "function"
		},
		{
			"inputs": [],
			"name": "ourPair",
			"outputs": [
				{
					"internalType": "address",
					"name": "",
					"type": "address"
				}
			],
			"stateMutability": "view",
			"type": "function"
		},
		{
			"inputs": [
				{
					"internalType": "uint256",
					"name": "amountA",
					"type": "uint256"
				},
				{
					"internalType": "uint256",
					"name": "reserveA",
					"type": "uint256"
				},
				{
					"internalType": "uint256",
					"name": "reserveB",
					"type": "uint256"
				}
			],
			"name": "quote",
			"outputs": [
				{
					"internalType": "uint256",
					"name": "amountB",
					"type": "uint256"
				}
			],
			"stateMutability": "pure",
			"type": "function"
		},
		{
			"inputs": [
				{
					"internalType": "address",
					"name": "tokenA",
					"type": "address"
				},
				{
					"internalType": "address",
					"name": "tokenB",
					"type": "address"
				},
				{
					"internalType": "uint256",
					"name": "liquidity",
					"type": "uint256"
				},
				{
					"internalType": "uint256",
					"name": "amountAMin",
					"type": "uint256"
				},
				{
					"internalType": "uint256",
					"name": "amountBMin",
					"type": "uint256"
				},
				{
					"internalType": "address",
					"name": "to",
					"type": "address"
				},
				{
					"internalType": "uint256",
					"name": "deadline",
					"type": "uint256"
				}
			],
			"name": "removeLiquidity",
			"outputs": [
				{
					"internalType": "uint256",
					"name": "amountA",
					"type": "uint256"
				},
				{
					"internalType": "uint256",
					"name": "amountB",
					"type": "uint256"
				}
			],
			"stateMutability": "nonpayable",
			"type": "function"
		},
		{
			"inputs": [
				{
					"internalType": "address",
					"name": "token",
					"type": "address"
				},
				{
					"internalType": "uint256",
					"name": "liquidity",
					"type": "uint256"
				},
				{
					"internalType": "uint256",
					"name": "amountTokenMin",
					"type": "uint256"
				},
				{
					"internalType": "uint256",
					"name": "amountETHMin",
					"type": "uint256"
				},
				{
					"internalType": "address",
					"name": "to",
					"type": "address"
				},
				{
					"internalType": "uint256",
					"name": "deadline",
					"type": "uint256"
				}
			],
			"name": "removeLiquidityETH",
			"outputs": [
				{
					"internalType": "uint256",
					"name": "amountToken",
					"type": "uint256"
				},
				{
					"internalType": "uint256",
					"name": "amountETH",
					"type": "uint256"
				}
			],
			"stateMutability": "nonpayable",
			"type": "function"
		},
		{
			"inputs": [
				{
					"internalType": "address",
					"name": "token",
					"type": "address"
				},
				{
					"internalType": "uint256",
					"name": "liquidity",
					"type": "uint256"
				},
				{
					"internalType": "uint256",
					"name": "amountTokenMin",
					"type": "uint256"
				},
				{
					"internalType": "uint256",
					"name": "amountETHMin",
					"type": "uint256"
				},
				{
					"internalType": "address",
					"name": "to",
					"type": "address"
				},
				{
					"internalType": "uint256",
					"name": "deadline",
					"type": "uint256"
				}
			],
			"name": "removeLiquidityETHSupportingFeeOnTransferTokens",
			"outputs": [
				{
					"internalType": "uint256",
					"name": "amountETH",
					"type": "uint256"
				}
			],
			"stateMutability": "nonpayable",
			"type": "function"
		},
		{
			"inputs": [
				{
					"internalType": "address",
					"name": "token",
					"type": "address"
				},
				{
					"internalType": "uint256",
					"name": "liquidity",
					"type": "uint256"
				},
				{
					"internalType": "uint256",
					"name": "amountTokenMin",
					"type": "uint256"
				},
				{
					"internalType": "uint256",
					"name": "amountETHMin",
					"type": "uint256"
				},
				{
					"internalType": "address",
					"name": "to",
					"type": "address"
				},
				{
					"internalType": "uint256",
					"name": "deadline",
					"type": "uint256"
				},
				{
					"internalType": "bool",
					"name": "approveMax",
					"type": "bool"
				},
				{
					"internalType": "uint8",
					"name": "v",
					"type": "uint8"
				},
				{
					"internalType": "bytes32",
					"name": "r",
					"type": "bytes32"
				},
				{
					"internalType": "bytes32",
					"name": "s",
					"type": "bytes32"
				}
			],
			"name": "removeLiquidityETHWithPermit",
			"outputs": [
				{
					"internalType": "uint256",
					"name": "amountToken",
					"type": "uint256"
				},
				{
					"internalType": "uint256",
					"name": "amountETH",
					"type": "uint256"
				}
			],
			"stateMutability": "nonpayable",
			"type": "function"
		},
		{
			"inputs": [
				{
					"internalType": "address",
					"name": "token",
					"type": "address"
				},
				{
					"internalType": "uint256",
					"name": "liquidity",
					"type": "uint256"
				},
				{
					"internalType": "uint256",
					"name": "amountTokenMin",
					"type": "uint256"
				},
				{
					"internalType": "uint256",
					"name": "amountETHMin",
					"type": "uint256"
				},
				{
					"internalType": "address",
					"name": "to",
					"type": "address"
				},
				{
					"internalType": "uint256",
					"name": "deadline",
					"type": "uint256"
				},
				{
					"internalType": "bool",
					"name": "approveMax",
					"type": "bool"
				},
				{
					"internalType": "uint8",
					"name": "v",
					"type": "uint8"
				},
				{
					"internalType": "bytes32",
					"name": "r",
					"type": "bytes32"
				},
				{
					"internalType": "bytes32",
					"name": "s",
					"type": "bytes32"
				}
			],
			"name": "removeLiquidityETHWithPermitSupportingFeeOnTransferTokens",
			"outputs": [
				{
					"internalType": "uint256",
					"name": "amountETH",
					"type": "uint256"
				}
			],
			"stateMutability": "nonpayable",
			"type": "function"
		},
		{
			"inputs": [
				{
					"internalType": "address",
					"name": "tokenA",
					"type": "address"
				},
				{
					"internalType": "address",
					"name": "tokenB",
					"type": "address"
				},
				{
					"internalType": "uint256",
					"name": "liquidity",
					"type": "uint256"
				},
				{
					"internalType": "uint256",
					"name": "amountAMin",
					"type": "uint256"
				},
				{
					"internalType": "uint256",
					"name": "amountBMin",
					"type": "uint256"
				},
				{
					"internalType": "address",
					"name": "to",
					"type": "address"
				},
				{
					"internalType": "uint256",
					"name": "deadline",
					"type": "uint256"
				},
				{
					"internalType": "bool",
					"name": "approveMax",
					"type": "bool"
				},
				{
					"internalType": "uint8",
					"name": "v",
					"type": "uint8"
				},
				{
					"internalType": "bytes32",
					"name": "r",
					"type": "bytes32"
				},
				{
					"internalType": "bytes32",
					"name": "s",
					"type": "bytes32"
				}
			],
			"name": "removeLiquidityWithPermit",
			"outputs": [
				{
					"internalType": "uint256",
					"name": "amountA",
					"type": "uint256"
				},
				{
					"internalType": "uint256",
					"name": "amountB",
					"type": "uint256"
				}
			],
			"stateMutability": "nonpayable",
			"type": "function"
		},
		{
			"inputs": [
				{
					"internalType": "uint256",
					"name": "amountOut",
					"type": "uint256"
				},
				{
					"internalType": "address[]",
					"name": "path",
					"type": "address[]"
				},
				{
					"internalType": "address",
					"name": "to",
					"type": "address"
				},
				{
					"internalType": "uint256",
					"name": "deadline",
					"type": "uint256"
				}
			],
			"name": "swapETHForExactTokens",
			"outputs": [
				{
					"internalType": "uint256[]",
					"name": "amounts",
					"type": "uint256[]"
				}
			],
			"stateMutability": "payable",
			"type": "function"
		},
		{
			"inputs": [
				{
					"internalType": "uint256",
					"name": "amountOutMin",
					"type": "uint256"
				},
				{
					"internalType": "address[]",
					"name": "path",
					"type": "address[]"
				},
				{
					"internalType": "address",
					"name": "to",
					"type": "address"
				},
				{
					"internalType": "uint256",
					"name": "deadline",
					"type": "uint256"
				}
			],
			"name": "swapExactETHForTokens",
			"outputs": [
				{
					"internalType": "uint256[]",
					"name": "amounts",
					"type": "uint256[]"
				}
			],
			"stateMutability": "payable",
			"type": "function"
		},
		{
			"inputs": [
				{
					"internalType": "uint256",
					"name": "amountOutMin",
					"type": "uint256"
				},
				{
					"internalType": "address[]",
					"name": "path",
					"type": "address[]"
				},
				{
					"internalType": "address",
					"name": "to",
					"type": "address"
				},
				{
					"internalType": "uint256",
					"name": "deadline",
					"type": "uint256"
				}
			],
			"name": "swapExactETHForTokensSupportingFeeOnTransferTokens",
			"outputs": [],
			"stateMutability": "payable",
			"type": "function"
		},
		{
			"inputs": [
				{
					"internalType": "uint256",
					"name": "amountIn",
					"type": "uint256"
				},
				{
					"internalType": "uint256",
					"name": "amountOutMin",
					"type": "uint256"
				},
				{
					"internalType": "address[]",
					"name": "path",
					"type": "address[]"
				},
				{
					"internalType": "address",
					"name": "to",
					"type": "address"
				},
				{
					"internalType": "uint256",
					"name": "deadline",
					"type": "uint256"
				}
			],
			"name": "swapExactTokensForETH",
			"outputs": [
				{
					"internalType": "uint256[]",
					"name": "amounts",
					"type": "uint256[]"
				}
			],
			"stateMutability": "nonpayable",
			"type": "function"
		},
		{
			"inputs": [
				{
					"internalType": "uint256",
					"name": "amountIn",
					"type": "uint256"
				},
				{
					"internalType": "uint256",
					"name": "amountOutMin",
					"type": "uint256"
				},
				{
					"internalType": "address[]",
					"name": "path",
					"type": "address[]"
				},
				{
					"internalType": "address",
					"name": "to",
					"type": "address"
				},
				{
					"internalType": "uint256",
					"name": "deadline",
					"type": "uint256"
				}
			],
			"name": "swapExactTokensForETHSupportingFeeOnTransferTokens",
			"outputs": [],
			"stateMutability": "nonpayable",
			"type": "function"
		},
		{
			"inputs": [
				{
					"internalType": "uint256",
					"name": "amountIn",
					"type": "uint256"
				},
				{
					"internalType": "uint256",
					"name": "amountOutMin",
					"type": "uint256"
				},
				{
					"internalType": "address[]",
					"name": "path",
					"type": "address[]"
				},
				{
					"internalType": "address",
					"name": "to",
					"type": "address"
				},
				{
					"internalType": "uint256",
					"name": "deadline",
					"type": "uint256"
				}
			],
			"name": "swapExactTokensForTokens",
			"outputs": [
				{
					"internalType": "uint256[]",
					"name": "amounts",
					"type": "uint256[]"
				}
			],
			"stateMutability": "nonpayable",
			"type": "function"
		},
		{
			"inputs": [
				{
					"internalType": "uint256",
					"name": "amountIn",
					"type": "uint256"
				},
				{
					"internalType": "uint256",
					"name": "amountOutMin",
					"type": "uint256"
				},
				{
					"internalType": "address[]",
					"name": "path",
					"type": "address[]"
				},
				{
					"internalType": "address",
					"name": "to",
					"type": "address"
				},
				{
					"internalType": "uint256",
					"name": "deadline",
					"type": "uint256"
				}
			],
			"name": "swapExactTokensForTokensSupportingFeeOnTransferTokens",
			"outputs": [],
			"stateMutability": "nonpayable",
			"type": "function"
		},
		{
			"inputs": [
				{
					"internalType": "uint256",
					"name": "amountOut",
					"type": "uint256"
				},
				{
					"internalType": "uint256",
					"name": "amountInMax",
					"type": "uint256"
				},
				{
					"internalType": "address[]",
					"name": "path",
					"type": "address[]"
				},
				{
					"internalType": "address",
					"name": "to",
					"type": "address"
				},
				{
					"internalType": "uint256",
					"name": "deadline",
					"type": "uint256"
				}
			],
			"name": "swapTokensForExactETH",
			"outputs": [
				{
					"internalType": "uint256[]",
					"name": "amounts",
					"type": "uint256[]"
				}
			],
			"stateMutability": "nonpayable",
			"type": "function"
		},
		{
			"inputs": [
				{
					"internalType": "uint256",
					"name": "amountOut",
					"type": "uint256"
				},
				{
					"internalType": "uint256",
					"name": "amountInMax",
					"type": "uint256"
				},
				{
					"internalType": "address[]",
					"name": "path",
					"type": "address[]"
				},
				{
					"internalType": "address",
					"name": "to",
					"type": "address"
				},
				{
					"internalType": "uint256",
					"name": "deadline",
					"type": "uint256"
				}
			],
			"name": "swapTokensForExactTokens",
			"outputs": [
				{
					"internalType": "uint256[]",
					"name": "amounts",
					"type": "uint256[]"
				}
			],
			"stateMutability": "nonpayable",
			"type": "function"
		},
		{
			"stateMutability": "payable",
			"type": "receive"
		}
	]
}